{
    "contractName": "AccessRegistry",
    "abi": [
        {
            "inputs": [
                {
                    "internalType": "address",
                    "name": "account_",
                    "type": "address"
                }
            ],
            "stateMutability": "nonpayable",
            "type": "constructor"
        },
        {
            "anonymous": false,
            "inputs": [
                {
                    "indexed": true,
                    "internalType": "bytes32",
                    "name": "role",
                    "type": "bytes32"
                },
                {
                    "indexed": true,
                    "internalType": "address",
                    "name": "account",
                    "type": "address"
                },
                {
                    "indexed": true,
                    "internalType": "address",
                    "name": "sender",
                    "type": "address"
                }
            ],
            "name": "AdminRoleGranted",
            "type": "event"
        },
        {
            "anonymous": false,
            "inputs": [
                {
                    "indexed": true,
                    "internalType": "bytes32",
                    "name": "role",
                    "type": "bytes32"
                },
                {
                    "indexed": true,
                    "internalType": "address",
                    "name": "account",
                    "type": "address"
                },
                {
                    "indexed": true,
                    "internalType": "address",
                    "name": "sender",
                    "type": "address"
                }
            ],
            "name": "AdminRoleRevoked",
            "type": "event"
        },
        {
            "anonymous": false,
            "inputs": [
                {
                    "indexed": true,
                    "internalType": "bytes32",
                    "name": "role",
                    "type": "bytes32"
                },
                {
                    "indexed": true,
                    "internalType": "address",
                    "name": "account",
                    "type": "address"
                },
                {
                    "indexed": true,
                    "internalType": "address",
                    "name": "sender",
                    "type": "address"
                }
            ],
            "name": "RoleGranted",
            "type": "event"
        },
        {
            "anonymous": false,
            "inputs": [
                {
                    "indexed": true,
                    "internalType": "bytes32",
                    "name": "role",
                    "type": "bytes32"
                },
                {
                    "indexed": true,
                    "internalType": "address",
                    "name": "account",
                    "type": "address"
                },
                {
                    "indexed": true,
                    "internalType": "address",
                    "name": "sender",
                    "type": "address"
                }
            ],
            "name": "RoleRevoked",
            "type": "event"
        },
        {
            "stateMutability": "payable",
            "type": "fallback"
        },
        {
            "inputs": [
                {
                    "internalType": "bytes32",
                    "name": "role",
                    "type": "bytes32"
                },
                {
                    "internalType": "address",
                    "name": "account",
                    "type": "address"
                }
            ],
            "name": "addAdmin",
            "outputs": [],
            "stateMutability": "nonpayable",
            "type": "function"
        },
        {
            "inputs": [
                {
                    "internalType": "bytes32",
                    "name": "role",
                    "type": "bytes32"
                },
                {
                    "internalType": "address",
                    "name": "account",
                    "type": "address"
                }
            ],
            "name": "addRole",
            "outputs": [],
            "stateMutability": "nonpayable",
            "type": "function"
        },
        {
            "inputs": [],
            "name": "adminAddress",
            "outputs": [
                {
                    "internalType": "address",
                    "name": "",
                    "type": "address"
                }
            ],
            "stateMutability": "view",
            "type": "function"
        },
        {
            "inputs": [
                {
                    "internalType": "bytes32",
                    "name": "role",
                    "type": "bytes32"
                },
                {
                    "internalType": "address",
                    "name": "oldAccount",
                    "type": "address"
                },
                {
                    "internalType": "address",
                    "name": "newAccount",
                    "type": "address"
                }
            ],
            "name": "adminRoleTransfer",
            "outputs": [],
            "stateMutability": "nonpayable",
            "type": "function"
        },
        {
            "inputs": [
                {
                    "internalType": "bytes32",
                    "name": "role",
                    "type": "bytes32"
                },
                {
                    "internalType": "address",
                    "name": "account",
                    "type": "address"
                }
            ],
            "name": "hasAdminRole",
            "outputs": [
                {
                    "internalType": "bool",
                    "name": "",
                    "type": "bool"
                }
            ],
            "stateMutability": "view",
            "type": "function"
        },
        {
            "inputs": [
                {
                    "internalType": "bytes32",
                    "name": "role",
                    "type": "bytes32"
                },
                {
                    "internalType": "address",
                    "name": "account",
                    "type": "address"
                }
            ],
            "name": "hasRole",
            "outputs": [
                {
                    "internalType": "bool",
                    "name": "",
                    "type": "bool"
                }
            ],
            "stateMutability": "view",
            "type": "function"
        },
        {
            "inputs": [
                {
                    "internalType": "bytes32",
                    "name": "role",
                    "type": "bytes32"
                },
                {
                    "internalType": "address",
                    "name": "account",
                    "type": "address"
                }
            ],
            "name": "removeAdmin",
            "outputs": [],
            "stateMutability": "nonpayable",
            "type": "function"
        },
        {
            "inputs": [
                {
                    "internalType": "bytes32",
                    "name": "role",
                    "type": "bytes32"
                },
                {
                    "internalType": "address",
                    "name": "account",
                    "type": "address"
                }
            ],
            "name": "removeRole",
            "outputs": [],
            "stateMutability": "nonpayable",
            "type": "function"
        },
        {
            "inputs": [
                {
                    "internalType": "bytes32",
                    "name": "role",
                    "type": "bytes32"
                },
                {
                    "internalType": "address",
                    "name": "account",
                    "type": "address"
                }
            ],
            "name": "renounceRole",
            "outputs": [],
            "stateMutability": "nonpayable",
            "type": "function"
        },
        {
            "inputs": [
                {
                    "internalType": "bytes32",
                    "name": "role",
                    "type": "bytes32"
                },
                {
                    "internalType": "address",
                    "name": "oldAccount",
                    "type": "address"
                },
                {
                    "internalType": "address",
                    "name": "newAccount",
                    "type": "address"
                }
            ],
            "name": "transferRole",
            "outputs": [],
            "stateMutability": "nonpayable",
            "type": "function"
        },
        {
            "stateMutability": "payable",
            "type": "receive"
        }
    ],
    "bytecode": "608060405234801561001057600080fd5b50604051610d71380380610d7183398101604081905261002f916100eb565b600080546001600160a01b0319166001600160a01b0383169081179091556001546100599161005f565b5061011b565b6001600160a01b038116600081815260036020908152604080832086845280835281842080546001600160a01b031916861790556002810180546001818101835582875285872090910189905590548886529101909252808320919091555133929185917fb754d28367d5b086c81243c886ead0839c92cb5f281e492d7159800bc57d3c179190a45050565b6000602082840312156100fd57600080fd5b81516001600160a01b038116811461011457600080fd5b9392505050565b610c478061012a6000396000f3fe6080604052600436106100955760003560e01c806391d148541161005957806391d14854146101a25780639a387ce6146101c2578063e959b38a146101e2578063f6ba000714610202578063fc6f946814610222576100d6565b806336568abe146100eb578063428c56db1461010d5780635cb87d26146101425780636419bcdb146101625780636d8e291314610182576100d6565b366100d6576000546001600160a01b03166108fc345b6040518115909202916000818181858888f193505050501580156100d3573d6000803e3d6000fd5b50005b6000546001600160a01b03166108fc346100ab565b3480156100f757600080fd5b5061010b610106366004610ab7565b61025a565b005b34801561011957600080fd5b5061012d610128366004610ab7565b6102e8565b60405190151581526020015b60405180910390f35b34801561014e57600080fd5b5061010b61015d366004610ae3565b6102fd565b34801561016e57600080fd5b5061010b61017d366004610ab7565b610350565b34801561018e57600080fd5b5061010b61019d366004610ae3565b6103bc565b3480156101ae57600080fd5b5061012d6101bd366004610ab7565b610432565b3480156101ce57600080fd5b5061010b6101dd366004610ab7565b61043e565b3480156101ee57600080fd5b5061010b6101fd366004610ab7565b6104a3565b34801561020e57600080fd5b5061010b61021d366004610ab7565b610509565b34801561022e57600080fd5b50600054610242906001600160a01b031681565b6040516001600160a01b039091168152602001610139565b610264828261056e565b6102895760405162461bcd60e51b815260040161028090610b72565b60405180910390fd5b336001600160a01b038216146102da5760405162461bcd60e51b8152602060048201526016602482015275496e6164657175617465207065726d697373696f6e7360501b6044820152606401610280565b6102e482826105ab565b5050565b60006102f48383610783565b90505b92915050565b610307838361056e565b801561031b5750336001600160a01b038316145b6103375760405162461bcd60e51b815260040161028090610b72565b61034183836105ab565b61034b83826107b7565b505050565b6001546000546001600160a01b03166103698282610783565b6103855760405162461bcd60e51b815260040161028090610b72565b61038f8484610783565b156103ac5760405162461bcd60e51b815260040161028090610b1f565b6103b68484610842565b50505050565b6001546000546001600160a01b03166103d58282610783565b6103f15760405162461bcd60e51b815260040161028090610b72565b6103fb8585610783565b6104175760405162461bcd60e51b815260040161028090610b1f565b61042185856108ce565b61042b8584610842565b5050505050565b60006102f4838361056e565b6001546000546001600160a01b03166104578282610783565b6104735760405162461bcd60e51b815260040161028090610b72565b61047d8484610783565b6104995760405162461bcd60e51b815260040161028090610b72565b6103b684846108ce565b6001546000546001600160a01b03166104bc8282610783565b6104d85760405162461bcd60e51b815260040161028090610b72565b6104e2848461056e565b156104ff5760405162461bcd60e51b815260040161028090610b1f565b6103b684846107b7565b6001546000546001600160a01b03166105228282610783565b61053e5760405162461bcd60e51b815260040161028090610b72565b610548848461056e565b6105645760405162461bcd60e51b815260040161028090610b72565b6103b684846105ab565b6001600160a01b0381166000908152600260209081526040808320858452600101909152812054156105a2575060016102f7565b50600092915050565b6001600160a01b038116600090815260026020908152604080832085845280835281842080546001600160a01b031916905560019081019092528220546105f29190610bb8565b6001600160a01b0383166000908152600260208190526040822001549192509061061e90600190610bb8565b905080821061062d5750505050565b6001600160a01b038316600090815260026020819052604082200180548390811061065a5761065a610bfb565b906000526020600020015490508282146106e7578060026000866001600160a01b03166001600160a01b0316815260200190815260200160002060020184815481106106a8576106a8610bfb565b6000918252602090912001556106bf836001610ba0565b6001600160a01b03851660009081526002602090815260408083208584526001019091529020555b6001600160a01b03841660009081526002602081905260409091200180548061071257610712610be5565b6000828152602080822060001990840181018390559092019092556001600160a01b0386168083526002825260408084208985526001019092528183208390559051339288917ff6391f5c32d9c69d2a47ea670b442974b53935d1edc7fd64eb21e047a839171b9190a45050505050565b6001600160a01b0381166000908152600360209081526040808320858452600101909152812054156105a2575060016102f7565b6001600160a01b038116600081815260026020818152604080842087855280835281852080546001600160a01b0319168717905592830180546001818101835582875284872090910189905590548886529301909152808320919091555133929185917f2f8788117e7eff1d82e926ec794901d17c78024a50270940304540a733656f0d9190a45050565b6001600160a01b038116600081815260036020908152604080832086845280835281842080546001600160a01b031916861790556002810180546001818101835582875285872090910189905590548886529101909252808320919091555133929185917fb754d28367d5b086c81243c886ead0839c92cb5f281e492d7159800bc57d3c179190a45050565b6001600160a01b038116600090815260036020908152604080832085845280835281842080546001600160a01b031916905560019081019092528220546109159190610bb8565b6001600160a01b0383166000908152600360205260408120600201549192509061094190600190610bb8565b90508082106109505750505050565b6001600160a01b038316600090815260036020526040812060020180548390811061097d5761097d610bfb565b90600052602060002001549050828214610a00576001600160a01b03841660009081526003602052604090206002018054829190859081106109c1576109c1610bfb565b6000918252602090912001556109d8836001610ba0565b6001600160a01b03851660009081526003602090815260408083208584526001019091529020555b6001600160a01b0384166000908152600360205260409020600201805480610a2a57610a2a610be5565b6000828152602080822060001990840181018390559092019092556001600160a01b0386168083526003825260408084208985526001019092528183208390559051339288917f77a3124d5a7fb118ef3bd073fd7ee2c762b24256db96ace524ecd6b6cf11415c9190a45050505050565b80356001600160a01b0381168114610ab257600080fd5b919050565b60008060408385031215610aca57600080fd5b82359150610ada60208401610a9b565b90509250929050565b600080600060608486031215610af857600080fd5b83359250610b0860208501610a9b565b9150610b1660408501610a9b565b90509250925092565b60208082526033908201527f526f6c6520616c7265616479206578697374732e20506c6561736520637265616040820152727465206120646966666572656e7420726f6c6560681b606082015260800190565b6020808252601490820152732937b632903237b2b9903737ba1032bc34b9ba1760611b604082015260600190565b60008219821115610bb357610bb3610bcf565b500190565b600082821015610bca57610bca610bcf565b500390565b634e487b7160e01b600052601160045260246000fd5b634e487b7160e01b600052603160045260246000fd5b634e487b7160e01b600052603260045260246000fdfea26469706673582212209ebd160ea30818a9516b8bc5dc4db15039914103038a208c040cf9ff6c500f9c64736f6c63430008070033",
    "sourcePath": "f:/workspace/Open-protocol/contracts/AccessRegistry.sol",
    "compiler": {
        "name": "solc",
        "version": "0.8.7+commit.e28d00a7"
    },
    "functionHashes": {
        "addAdmin(bytes32,address)": "6419bcdb",
        "addRole(bytes32,address)": "e959b38a",
        "adminAddress()": "fc6f9468",
        "adminRoleTransfer(bytes32,address,address)": "6d8e2913",
        "hasAdminRole(bytes32,address)": "428c56db",
        "hasRole(bytes32,address)": "91d14854",
        "removeAdmin(bytes32,address)": "9a387ce6",
        "removeRole(bytes32,address)": "f6ba0007",
        "renounceRole(bytes32,address)": "36568abe",
        "transferRole(bytes32,address,address)": "5cb87d26"
    },
    "gasEstimates": {
        "creation": {
            "codeDepositCost": "628600",
            "executionCost": "infinite",
            "totalCost": "infinite"
        },
        "external": {
            "": "infinite",
            "addAdmin(bytes32,address)": "infinite",
            "addRole(bytes32,address)": "infinite",
            "adminAddress()": "2425",
            "adminRoleTransfer(bytes32,address,address)": "infinite",
            "hasAdminRole(bytes32,address)": "infinite",
            "hasRole(bytes32,address)": "infinite",
            "removeAdmin(bytes32,address)": "infinite",
            "removeRole(bytes32,address)": "infinite",
            "renounceRole(bytes32,address)": "infinite",
            "transferRole(bytes32,address,address)": "infinite"
        },
        "internal": {
            "_addAdmin(bytes32,address)": "96998",
            "_addRole(bytes32,address)": "96998",
            "_hasAdminRole(bytes32,address)": "2326",
            "_hasRole(bytes32,address)": "2326",
            "_revokeAdmin(bytes32,address)": "infinite",
            "_revokeRole(bytes32,address)": "infinite"
        }
    }
}