{
  "abi": [
    {
      "inputs": [],
      "name": "liquidationTrigger",
      "outputs": [],
      "stateMutability": "nonpayable",
      "type": "function"
    },
    {
      "inputs": [],
      "name": "setMaxWithdrawal",
      "outputs": [],
      "stateMutability": "nonpayable",
      "type": "function"
    },
    {
      "inputs": [],
      "name": "setReserveFactor",
      "outputs": [],
      "stateMutability": "nonpayable",
      "type": "function"
    },
    {
      "inputs": [],
      "name": "updateApr",
      "outputs": [],
      "stateMutability": "nonpayable",
      "type": "function"
    },
    {
      "inputs": [],
      "name": "updateApy",
      "outputs": [],
      "stateMutability": "nonpayable",
      "type": "function"
    },
    {
      "inputs": [],
      "name": "updateDepositPreclosureFees",
      "outputs": [],
      "stateMutability": "nonpayable",
      "type": "function"
    },
    {
      "inputs": [],
      "name": "updateLoanClosureFees",
      "outputs": [],
      "stateMutability": "nonpayable",
      "type": "function"
    },
    {
      "inputs": [],
      "name": "updateLoanIssuanceFees",
      "outputs": [],
      "stateMutability": "nonpayable",
      "type": "function"
    },
    {
      "inputs": [],
      "name": "updateLoanpreClosureFees",
      "outputs": [],
      "stateMutability": "nonpayable",
      "type": "function"
    },
    {
      "inputs": [],
      "name": "updateSwitchDepositTypeFee",
      "outputs": [],
      "stateMutability": "nonpayable",
      "type": "function"
    }
  ],
  "evm": {
    "bytecode": {
      "linkReferences": {},
      "object": "608060405234801561001057600080fd5b5061012f806100206000396000f3fe6080604052348015600f57600080fd5b506004361060905760003560e01c8063b64219ea11605d578063b64219ea1460bd578063cdc1e7e61460c5578063e00fd5871460cd578063f3b3fa241460d5578063fe7532fd1460dd576090565b806348690fd214609557806361631a8b14609d5780637e5485df1460a557806380b72c9e1460ad5780639f841ae81460b5575b600080fd5b609b60e5565b005b60a360e7565b005b60ab60e9565b005b60b360eb565b005b60bb60ed565b005b60c360ef565b005b60cb60f1565b005b60d360f3565b005b60db60f5565b005b60e360f7565b005b565b565b565b565b565b565b565b565b565b56fea264697066735822122060cfc051fa70b004629e1eca1dd182895af86099250779a92e34d42a3a7a319b64736f6c63430008070033",
      "opcodes": "PUSH1 0x80 PUSH1 0x40 MSTORE CALLVALUE DUP1 ISZERO PUSH2 0x10 JUMPI PUSH1 0x0 DUP1 REVERT JUMPDEST POP PUSH2 0x12F DUP1 PUSH2 0x20 PUSH1 0x0 CODECOPY PUSH1 0x0 RETURN INVALID PUSH1 0x80 PUSH1 0x40 MSTORE CALLVALUE DUP1 ISZERO PUSH1 0xF JUMPI PUSH1 0x0 DUP1 REVERT JUMPDEST POP PUSH1 0x4 CALLDATASIZE LT PUSH1 0x90 JUMPI PUSH1 0x0 CALLDATALOAD PUSH1 0xE0 SHR DUP1 PUSH4 0xB64219EA GT PUSH1 0x5D JUMPI DUP1 PUSH4 0xB64219EA EQ PUSH1 0xBD JUMPI DUP1 PUSH4 0xCDC1E7E6 EQ PUSH1 0xC5 JUMPI DUP1 PUSH4 0xE00FD587 EQ PUSH1 0xCD JUMPI DUP1 PUSH4 0xF3B3FA24 EQ PUSH1 0xD5 JUMPI DUP1 PUSH4 0xFE7532FD EQ PUSH1 0xDD JUMPI PUSH1 0x90 JUMP JUMPDEST DUP1 PUSH4 0x48690FD2 EQ PUSH1 0x95 JUMPI DUP1 PUSH4 0x61631A8B EQ PUSH1 0x9D JUMPI DUP1 PUSH4 0x7E5485DF EQ PUSH1 0xA5 JUMPI DUP1 PUSH4 0x80B72C9E EQ PUSH1 0xAD JUMPI DUP1 PUSH4 0x9F841AE8 EQ PUSH1 0xB5 JUMPI JUMPDEST PUSH1 0x0 DUP1 REVERT JUMPDEST PUSH1 0x9B PUSH1 0xE5 JUMP JUMPDEST STOP JUMPDEST PUSH1 0xA3 PUSH1 0xE7 JUMP JUMPDEST STOP JUMPDEST PUSH1 0xAB PUSH1 0xE9 JUMP JUMPDEST STOP JUMPDEST PUSH1 0xB3 PUSH1 0xEB JUMP JUMPDEST STOP JUMPDEST PUSH1 0xBB PUSH1 0xED JUMP JUMPDEST STOP JUMPDEST PUSH1 0xC3 PUSH1 0xEF JUMP JUMPDEST STOP JUMPDEST PUSH1 0xCB PUSH1 0xF1 JUMP JUMPDEST STOP JUMPDEST PUSH1 0xD3 PUSH1 0xF3 JUMP JUMPDEST STOP JUMPDEST PUSH1 0xDB PUSH1 0xF5 JUMP JUMPDEST STOP JUMPDEST PUSH1 0xE3 PUSH1 0xF7 JUMP JUMPDEST STOP JUMPDEST JUMP JUMPDEST JUMP JUMPDEST JUMP JUMPDEST JUMP JUMPDEST JUMP JUMPDEST JUMP JUMPDEST JUMP JUMPDEST JUMP JUMPDEST JUMP JUMPDEST JUMP INVALID LOG2 PUSH5 0x6970667358 0x22 SLT KECCAK256 PUSH1 0xCF 0xC0 MLOAD STATICCALL PUSH17 0xB004629E1ECA1DD182895AF86099250779 0xA9 0x2E CALLVALUE 0xD4 0x2A GASPRICE PUSH27 0x319B64736F6C634300080700330000000000000000000000000000 "
    }
  }
}