{
  "abi": [
    {
      "inputs": [],
      "name": "borrow",
      "outputs": [],
      "stateMutability": "nonpayable",
      "type": "function"
    },
    {
      "inputs": [],
      "name": "currentApr",
      "outputs": [],
      "stateMutability": "nonpayable",
      "type": "function"
    },
    {
      "inputs": [],
      "name": "permissibleWithdrawal",
      "outputs": [
        {
          "internalType": "bool",
          "name": "",
          "type": "bool"
        }
      ],
      "stateMutability": "nonpayable",
      "type": "function"
    },
    {
      "inputs": [],
      "name": "switchLoanType",
      "outputs": [],
      "stateMutability": "nonpayable",
      "type": "function"
    }
  ],
  "evm": {
    "bytecode": {
      "linkReferences": {},
      "object": "608060405234801561001057600080fd5b5060f08061001f6000396000f3fe6080604052348015600f57600080fd5b506004361060465760003560e01c80632c64883c14604b5780634f322ae8146053578063e68d356914605b578063f008b21d146063575b600080fd5b6051607d565b005b6059607f565b005b60616081565b005b60696083565b604051607491906095565b60405180910390f35b565b565b565b600090565b608f8160ae565b82525050565b600060208201905060a860008301846088565b92915050565b6000811515905091905056fea26469706673582212206b3acaa46f20fdba54daaa0bf538e4fafee0ce965bbfc6d89ff38e04501ed00664736f6c63430008070033",
      "opcodes": "PUSH1 0x80 PUSH1 0x40 MSTORE CALLVALUE DUP1 ISZERO PUSH2 0x10 JUMPI PUSH1 0x0 DUP1 REVERT JUMPDEST POP PUSH1 0xF0 DUP1 PUSH2 0x1F PUSH1 0x0 CODECOPY PUSH1 0x0 RETURN INVALID PUSH1 0x80 PUSH1 0x40 MSTORE CALLVALUE DUP1 ISZERO PUSH1 0xF JUMPI PUSH1 0x0 DUP1 REVERT JUMPDEST POP PUSH1 0x4 CALLDATASIZE LT PUSH1 0x46 JUMPI PUSH1 0x0 CALLDATALOAD PUSH1 0xE0 SHR DUP1 PUSH4 0x2C64883C EQ PUSH1 0x4B JUMPI DUP1 PUSH4 0x4F322AE8 EQ PUSH1 0x53 JUMPI DUP1 PUSH4 0xE68D3569 EQ PUSH1 0x5B JUMPI DUP1 PUSH4 0xF008B21D EQ PUSH1 0x63 JUMPI JUMPDEST PUSH1 0x0 DUP1 REVERT JUMPDEST PUSH1 0x51 PUSH1 0x7D JUMP JUMPDEST STOP JUMPDEST PUSH1 0x59 PUSH1 0x7F JUMP JUMPDEST STOP JUMPDEST PUSH1 0x61 PUSH1 0x81 JUMP JUMPDEST STOP JUMPDEST PUSH1 0x69 PUSH1 0x83 JUMP JUMPDEST PUSH1 0x40 MLOAD PUSH1 0x74 SWAP2 SWAP1 PUSH1 0x95 JUMP JUMPDEST PUSH1 0x40 MLOAD DUP1 SWAP2 SUB SWAP1 RETURN JUMPDEST JUMP JUMPDEST JUMP JUMPDEST JUMP JUMPDEST PUSH1 0x0 SWAP1 JUMP JUMPDEST PUSH1 0x8F DUP2 PUSH1 0xAE JUMP JUMPDEST DUP3 MSTORE POP POP JUMP JUMPDEST PUSH1 0x0 PUSH1 0x20 DUP3 ADD SWAP1 POP PUSH1 0xA8 PUSH1 0x0 DUP4 ADD DUP5 PUSH1 0x88 JUMP JUMPDEST SWAP3 SWAP2 POP POP JUMP JUMPDEST PUSH1 0x0 DUP2 ISZERO ISZERO SWAP1 POP SWAP2 SWAP1 POP JUMP INVALID LOG2 PUSH5 0x6970667358 0x22 SLT KECCAK256 PUSH12 0x3ACAA46F20FDBA54DAAA0BF5 CODESIZE 0xE4 STATICCALL INVALID 0xE0 0xCE SWAP7 JUMPDEST 0xBF 0xC6 0xD8 SWAP16 RETURN DUP15 DIV POP 0x1E 0xD0 MOD PUSH5 0x736F6C6343 STOP ADDMOD SMOD STOP CALLER "
    }
  }
}