{
  "abi": [
    {
      "inputs": [],
      "stateMutability": "nonpayable",
      "type": "constructor"
    },
    {
      "inputs": [],
      "name": "implementation",
      "outputs": [
        {
          "internalType": "address",
          "name": "impl",
          "type": "address"
        }
      ],
      "stateMutability": "view",
      "type": "function"
    },
    {
      "inputs": [],
      "name": "proxyOwner",
      "outputs": [
        {
          "internalType": "address",
          "name": "owner",
          "type": "address"
        }
      ],
      "stateMutability": "view",
      "type": "function"
    },
    {
      "inputs": [
        {
          "internalType": "address",
          "name": "_newOwner",
          "type": "address"
        }
      ],
      "name": "transferProxyOwnership",
      "outputs": [],
      "stateMutability": "nonpayable",
      "type": "function"
    },
    {
      "inputs": [
        {
          "internalType": "address",
          "name": "_implementation",
          "type": "address"
        }
      ],
      "name": "upgradeTo",
      "outputs": [],
      "stateMutability": "nonpayable",
      "type": "function"
    }
  ],
  "evm": {
    "bytecode": {
      "linkReferences": {},
      "object": "608060405234801561001057600080fd5b506100203361002560201b60201c565b610051565b60007f550660f651e2eba1f42d909178abf3134ac364f2a211cd09ff4921845a85b1d790508181555050565b61038b806100606000396000f3fe608060405234801561001057600080fd5b506004361061004c5760003560e01c8063025313a2146100515780633659cfe61461006f5780635c60da1b1461008b578063f1739cae146100a9575b600080fd5b6100596100c5565b60405161006691906102ec565b60405180910390f35b610089600480360381019061008491906102b0565b6100f3565b005b61009361013e565b6040516100a091906102ec565b60405180910390f35b6100c360048036038101906100be91906102b0565b61016c565b005b6000807f550660f651e2eba1f42d909178abf3134ac364f2a211cd09ff4921845a85b1d79050805491505090565b6100fb6100c5565b73ffffffffffffffffffffffffffffffffffffffff163373ffffffffffffffffffffffffffffffffffffffff161461013257600080fd5b61013b816101f1565b50565b6000807f04475c3ba8239906ec67715b19239264505acfa3e52ccc1e633040241724b08d9050805491505090565b6101746100c5565b73ffffffffffffffffffffffffffffffffffffffff163373ffffffffffffffffffffffffffffffffffffffff16146101ab57600080fd5b600073ffffffffffffffffffffffffffffffffffffffff168173ffffffffffffffffffffffffffffffffffffffff1614156101e557600080fd5b6101ee81610243565b50565b60006101fb61013e565b90508173ffffffffffffffffffffffffffffffffffffffff168173ffffffffffffffffffffffffffffffffffffffff16141561023657600080fd5b61023f8261026f565b5050565b60007f550660f651e2eba1f42d909178abf3134ac364f2a211cd09ff4921845a85b1d790508181555050565b60007f04475c3ba8239906ec67715b19239264505acfa3e52ccc1e633040241724b08d90508181555050565b6000813590506102aa8161033e565b92915050565b6000602082840312156102c6576102c5610339565b5b60006102d48482850161029b565b91505092915050565b6102e681610307565b82525050565b600060208201905061030160008301846102dd565b92915050565b600061031282610319565b9050919050565b600073ffffffffffffffffffffffffffffffffffffffff82169050919050565b600080fd5b61034781610307565b811461035257600080fd5b5056fea264697066735822122013374c7c25074558540cc30942c41f5e5e667e3d61a58a1ad0c4ee18fbc20eed64736f6c63430008070033",
      "opcodes": "PUSH1 0x80 PUSH1 0x40 MSTORE CALLVALUE DUP1 ISZERO PUSH2 0x10 JUMPI PUSH1 0x0 DUP1 REVERT JUMPDEST POP PUSH2 0x20 CALLER PUSH2 0x25 PUSH1 0x20 SHL PUSH1 0x20 SHR JUMP JUMPDEST PUSH2 0x51 JUMP JUMPDEST PUSH1 0x0 PUSH32 0x550660F651E2EBA1F42D909178ABF3134AC364F2A211CD09FF4921845A85B1D7 SWAP1 POP DUP2 DUP2 SSTORE POP POP JUMP JUMPDEST PUSH2 0x38B DUP1 PUSH2 0x60 PUSH1 0x0 CODECOPY PUSH1 0x0 RETURN INVALID PUSH1 0x80 PUSH1 0x40 MSTORE CALLVALUE DUP1 ISZERO PUSH2 0x10 JUMPI PUSH1 0x0 DUP1 REVERT JUMPDEST POP PUSH1 0x4 CALLDATASIZE LT PUSH2 0x4C JUMPI PUSH1 0x0 CALLDATALOAD PUSH1 0xE0 SHR DUP1 PUSH4 0x25313A2 EQ PUSH2 0x51 JUMPI DUP1 PUSH4 0x3659CFE6 EQ PUSH2 0x6F JUMPI DUP1 PUSH4 0x5C60DA1B EQ PUSH2 0x8B JUMPI DUP1 PUSH4 0xF1739CAE EQ PUSH2 0xA9 JUMPI JUMPDEST PUSH1 0x0 DUP1 REVERT JUMPDEST PUSH2 0x59 PUSH2 0xC5 JUMP JUMPDEST PUSH1 0x40 MLOAD PUSH2 0x66 SWAP2 SWAP1 PUSH2 0x2EC JUMP JUMPDEST PUSH1 0x40 MLOAD DUP1 SWAP2 SUB SWAP1 RETURN JUMPDEST PUSH2 0x89 PUSH1 0x4 DUP1 CALLDATASIZE SUB DUP2 ADD SWAP1 PUSH2 0x84 SWAP2 SWAP1 PUSH2 0x2B0 JUMP JUMPDEST PUSH2 0xF3 JUMP JUMPDEST STOP JUMPDEST PUSH2 0x93 PUSH2 0x13E JUMP JUMPDEST PUSH1 0x40 MLOAD PUSH2 0xA0 SWAP2 SWAP1 PUSH2 0x2EC JUMP JUMPDEST PUSH1 0x40 MLOAD DUP1 SWAP2 SUB SWAP1 RETURN JUMPDEST PUSH2 0xC3 PUSH1 0x4 DUP1 CALLDATASIZE SUB DUP2 ADD SWAP1 PUSH2 0xBE SWAP2 SWAP1 PUSH2 0x2B0 JUMP JUMPDEST PUSH2 0x16C JUMP JUMPDEST STOP JUMPDEST PUSH1 0x0 DUP1 PUSH32 0x550660F651E2EBA1F42D909178ABF3134AC364F2A211CD09FF4921845A85B1D7 SWAP1 POP DUP1 SLOAD SWAP2 POP POP SWAP1 JUMP JUMPDEST PUSH2 0xFB PUSH2 0xC5 JUMP JUMPDEST PUSH20 0xFFFFFFFFFFFFFFFFFFFFFFFFFFFFFFFFFFFFFFFF AND CALLER PUSH20 0xFFFFFFFFFFFFFFFFFFFFFFFFFFFFFFFFFFFFFFFF AND EQ PUSH2 0x132 JUMPI PUSH1 0x0 DUP1 REVERT JUMPDEST PUSH2 0x13B DUP2 PUSH2 0x1F1 JUMP JUMPDEST POP JUMP JUMPDEST PUSH1 0x0 DUP1 PUSH32 0x4475C3BA8239906EC67715B19239264505ACFA3E52CCC1E633040241724B08D SWAP1 POP DUP1 SLOAD SWAP2 POP POP SWAP1 JUMP JUMPDEST PUSH2 0x174 PUSH2 0xC5 JUMP JUMPDEST PUSH20 0xFFFFFFFFFFFFFFFFFFFFFFFFFFFFFFFFFFFFFFFF AND CALLER PUSH20 0xFFFFFFFFFFFFFFFFFFFFFFFFFFFFFFFFFFFFFFFF AND EQ PUSH2 0x1AB JUMPI PUSH1 0x0 DUP1 REVERT JUMPDEST PUSH1 0x0 PUSH20 0xFFFFFFFFFFFFFFFFFFFFFFFFFFFFFFFFFFFFFFFF AND DUP2 PUSH20 0xFFFFFFFFFFFFFFFFFFFFFFFFFFFFFFFFFFFFFFFF AND EQ ISZERO PUSH2 0x1E5 JUMPI PUSH1 0x0 DUP1 REVERT JUMPDEST PUSH2 0x1EE DUP2 PUSH2 0x243 JUMP JUMPDEST POP JUMP JUMPDEST PUSH1 0x0 PUSH2 0x1FB PUSH2 0x13E JUMP JUMPDEST SWAP1 POP DUP2 PUSH20 0xFFFFFFFFFFFFFFFFFFFFFFFFFFFFFFFFFFFFFFFF AND DUP2 PUSH20 0xFFFFFFFFFFFFFFFFFFFFFFFFFFFFFFFFFFFFFFFF AND EQ ISZERO PUSH2 0x236 JUMPI PUSH1 0x0 DUP1 REVERT JUMPDEST PUSH2 0x23F DUP3 PUSH2 0x26F JUMP JUMPDEST POP POP JUMP JUMPDEST PUSH1 0x0 PUSH32 0x550660F651E2EBA1F42D909178ABF3134AC364F2A211CD09FF4921845A85B1D7 SWAP1 POP DUP2 DUP2 SSTORE POP POP JUMP JUMPDEST PUSH1 0x0 PUSH32 0x4475C3BA8239906EC67715B19239264505ACFA3E52CCC1E633040241724B08D SWAP1 POP DUP2 DUP2 SSTORE POP POP JUMP JUMPDEST PUSH1 0x0 DUP2 CALLDATALOAD SWAP1 POP PUSH2 0x2AA DUP2 PUSH2 0x33E JUMP JUMPDEST SWAP3 SWAP2 POP POP JUMP JUMPDEST PUSH1 0x0 PUSH1 0x20 DUP3 DUP5 SUB SLT ISZERO PUSH2 0x2C6 JUMPI PUSH2 0x2C5 PUSH2 0x339 JUMP JUMPDEST JUMPDEST PUSH1 0x0 PUSH2 0x2D4 DUP5 DUP3 DUP6 ADD PUSH2 0x29B JUMP JUMPDEST SWAP2 POP POP SWAP3 SWAP2 POP POP JUMP JUMPDEST PUSH2 0x2E6 DUP2 PUSH2 0x307 JUMP JUMPDEST DUP3 MSTORE POP POP JUMP JUMPDEST PUSH1 0x0 PUSH1 0x20 DUP3 ADD SWAP1 POP PUSH2 0x301 PUSH1 0x0 DUP4 ADD DUP5 PUSH2 0x2DD JUMP JUMPDEST SWAP3 SWAP2 POP POP JUMP JUMPDEST PUSH1 0x0 PUSH2 0x312 DUP3 PUSH2 0x319 JUMP JUMPDEST SWAP1 POP SWAP2 SWAP1 POP JUMP JUMPDEST PUSH1 0x0 PUSH20 0xFFFFFFFFFFFFFFFFFFFFFFFFFFFFFFFFFFFFFFFF DUP3 AND SWAP1 POP SWAP2 SWAP1 POP JUMP JUMPDEST PUSH1 0x0 DUP1 REVERT JUMPDEST PUSH2 0x347 DUP2 PUSH2 0x307 JUMP JUMPDEST DUP2 EQ PUSH2 0x352 JUMPI PUSH1 0x0 DUP1 REVERT JUMPDEST POP JUMP INVALID LOG2 PUSH5 0x6970667358 0x22 SLT KECCAK256 SGT CALLDATACOPY 0x4C PUSH29 0x25074558540CC30942C41F5E5E667E3D61A58A1AD0C4EE18FBC20EED64 PUSH20 0x6F6C634300080700330000000000000000000000 "
    }
  }
}