{
  "contractName": "AccessRegistry",
  "abi": [
    {
      "inputs": [
        {
          "internalType": "address",
          "name": "account_",
          "type": "address"
        }
      ],
      "stateMutability": "nonpayable",
      "type": "constructor"
    },
    {
      "anonymous": false,
      "inputs": [
        {
          "indexed": true,
          "internalType": "bytes32",
          "name": "role",
          "type": "bytes32"
        },
        {
          "indexed": true,
          "internalType": "address",
          "name": "account",
          "type": "address"
        },
        {
          "indexed": true,
          "internalType": "address",
          "name": "sender",
          "type": "address"
        }
      ],
      "name": "AdminRoleDataGranted",
      "type": "event"
    },
    {
      "anonymous": false,
      "inputs": [
        {
          "indexed": true,
          "internalType": "bytes32",
          "name": "role",
          "type": "bytes32"
        },
        {
          "indexed": true,
          "internalType": "address",
          "name": "account",
          "type": "address"
        },
        {
          "indexed": true,
          "internalType": "address",
          "name": "sender",
          "type": "address"
        }
      ],
      "name": "AdminRoleDataRevoked",
      "type": "event"
    },
    {
      "anonymous": false,
      "inputs": [
        {
          "indexed": true,
          "internalType": "address",
          "name": "_pauser",
          "type": "address"
        },
        {
          "indexed": false,
          "internalType": "bool",
          "name": "isPaused",
          "type": "bool"
        }
      ],
      "name": "PauseState",
      "type": "event"
    },
    {
      "anonymous": false,
      "inputs": [
        {
          "indexed": true,
          "internalType": "bytes32",
          "name": "role",
          "type": "bytes32"
        },
        {
          "indexed": true,
          "internalType": "address",
          "name": "account",
          "type": "address"
        },
        {
          "indexed": true,
          "internalType": "address",
          "name": "sender",
          "type": "address"
        }
      ],
      "name": "RoleGranted",
      "type": "event"
    },
    {
      "anonymous": false,
      "inputs": [
        {
          "indexed": true,
          "internalType": "bytes32",
          "name": "role",
          "type": "bytes32"
        },
        {
          "indexed": true,
          "internalType": "address",
          "name": "account",
          "type": "address"
        },
        {
          "indexed": true,
          "internalType": "address",
          "name": "sender",
          "type": "address"
        }
      ],
      "name": "RoleRevoked",
      "type": "event"
    },
    {
      "stateMutability": "payable",
      "type": "fallback"
    },
    {
      "inputs": [],
      "name": "adminAddress",
      "outputs": [
        {
          "internalType": "address",
          "name": "",
          "type": "address"
        }
      ],
      "stateMutability": "view",
      "type": "function"
    },
    {
      "inputs": [],
      "name": "pauseState",
      "outputs": [
        {
          "internalType": "string",
          "name": "",
          "type": "string"
        }
      ],
      "stateMutability": "view",
      "type": "function"
    },
    {
      "inputs": [],
      "name": "paused",
      "outputs": [
        {
          "internalType": "bool",
          "name": "",
          "type": "bool"
        }
      ],
      "stateMutability": "view",
      "type": "function"
    },
    {
      "stateMutability": "payable",
      "type": "receive"
    },
    {
      "inputs": [
        {
          "internalType": "address",
          "name": "token_",
          "type": "address"
        },
        {
          "internalType": "address",
          "name": "recipient_",
          "type": "address"
        },
        {
          "internalType": "uint256",
          "name": "value_",
          "type": "uint256"
        }
      ],
      "name": "transferAnyERC20",
      "outputs": [
        {
          "internalType": "bool",
          "name": "",
          "type": "bool"
        }
      ],
      "stateMutability": "nonpayable",
      "type": "function"
    },
    {
      "inputs": [
        {
          "internalType": "bytes32",
          "name": "role",
          "type": "bytes32"
        },
        {
          "internalType": "address",
          "name": "account",
          "type": "address"
        }
      ],
      "name": "hasRole",
      "outputs": [
        {
          "internalType": "bool",
          "name": "",
          "type": "bool"
        }
      ],
      "stateMutability": "view",
      "type": "function"
    },
    {
      "inputs": [
        {
          "internalType": "bytes32",
          "name": "role",
          "type": "bytes32"
        },
        {
          "internalType": "address",
          "name": "account",
          "type": "address"
        }
      ],
      "name": "addRole",
      "outputs": [],
      "stateMutability": "nonpayable",
      "type": "function"
    },
    {
      "inputs": [
        {
          "internalType": "bytes32",
          "name": "role",
          "type": "bytes32"
        },
        {
          "internalType": "address",
          "name": "account",
          "type": "address"
        }
      ],
      "name": "removeRole",
      "outputs": [],
      "stateMutability": "nonpayable",
      "type": "function"
    },
    {
      "inputs": [
        {
          "internalType": "bytes32",
          "name": "role",
          "type": "bytes32"
        },
        {
          "internalType": "address",
          "name": "account",
          "type": "address"
        }
      ],
      "name": "renounceRole",
      "outputs": [],
      "stateMutability": "nonpayable",
      "type": "function"
    },
    {
      "inputs": [
        {
          "internalType": "bytes32",
          "name": "role",
          "type": "bytes32"
        },
        {
          "internalType": "address",
          "name": "oldAccount",
          "type": "address"
        },
        {
          "internalType": "address",
          "name": "newAccount",
          "type": "address"
        }
      ],
      "name": "transferRole",
      "outputs": [],
      "stateMutability": "nonpayable",
      "type": "function"
    },
    {
      "inputs": [
        {
          "internalType": "bytes32",
          "name": "role",
          "type": "bytes32"
        },
        {
          "internalType": "address",
          "name": "account",
          "type": "address"
        }
      ],
      "name": "hasAdminRole",
      "outputs": [
        {
          "internalType": "bool",
          "name": "",
          "type": "bool"
        }
      ],
      "stateMutability": "view",
      "type": "function"
    },
    {
      "inputs": [
        {
          "internalType": "bytes32",
          "name": "role",
          "type": "bytes32"
        },
        {
          "internalType": "address",
          "name": "account",
          "type": "address"
        }
      ],
      "name": "addAdminRole",
      "outputs": [],
      "stateMutability": "nonpayable",
      "type": "function"
    },
    {
      "inputs": [
        {
          "internalType": "bytes32",
          "name": "role",
          "type": "bytes32"
        },
        {
          "internalType": "address",
          "name": "account",
          "type": "address"
        }
      ],
      "name": "removeAdminRole",
      "outputs": [],
      "stateMutability": "nonpayable",
      "type": "function"
    },
    {
      "inputs": [
        {
          "internalType": "bytes32",
          "name": "role",
          "type": "bytes32"
        },
        {
          "internalType": "address",
          "name": "oldAccount",
          "type": "address"
        },
        {
          "internalType": "address",
          "name": "newAccount",
          "type": "address"
        }
      ],
      "name": "adminRoleTransfer",
      "outputs": [],
      "stateMutability": "nonpayable",
      "type": "function"
    },
    {
      "inputs": [
        {
          "internalType": "bytes32",
          "name": "role",
          "type": "bytes32"
        },
        {
          "internalType": "address",
          "name": "account",
          "type": "address"
        }
      ],
      "name": "adminRoleRenounce",
      "outputs": [],
      "stateMutability": "nonpayable",
      "type": "function"
    },
    {
      "inputs": [],
      "name": "pause",
      "outputs": [],
      "stateMutability": "nonpayable",
      "type": "function"
    },
    {
      "inputs": [],
      "name": "unpause",
      "outputs": [],
      "stateMutability": "nonpayable",
      "type": "function"
    }
  ],
  "bytecode": "0x608060405260008060006101000a81548160ff0219169083151502179055503480156200002b57600080fd5b5060405162001e1638038062001e16833981810160405281019062000051919062000235565b60008060016101000a81548160ff02191690831515021790555080600060026101000a81548173ffffffffffffffffffffffffffffffffffffffff021916908373ffffffffffffffffffffffffffffffffffffffff160217905550620000e2600154600060029054906101000a900473ffffffffffffffffffffffffffffffffffffffff16620000e960201b60201c565b5062000267565b60016003600084815260200190815260200160002060000160008373ffffffffffffffffffffffffffffffffffffffff1673ffffffffffffffffffffffffffffffffffffffff16815260200190815260200160002060006101000a81548160ff02191690831515021790555062000165620001c360201b60201c565b73ffffffffffffffffffffffffffffffffffffffff168173ffffffffffffffffffffffffffffffffffffffff16837f3dd66c162a5be70a1968ee8a27be69293c11303ba183c880508c86de57fff29e60405160405180910390a45050565b600033905090565b600080fd5b600073ffffffffffffffffffffffffffffffffffffffff82169050919050565b6000620001fd82620001d0565b9050919050565b6200020f81620001f0565b81146200021b57600080fd5b50565b6000815190506200022f8162000204565b92915050565b6000602082840312156200024e576200024d620001cb565b5b60006200025e848285016200021e565b91505092915050565b611b9f80620002776000396000f3fe6080604052600436106100f75760003560e01c80635cb87d261161008a578063d711835111610059578063d7118351146103e6578063e959b38a14610411578063f6ba00071461043a578063fc6f9468146104635761016e565b80635cb87d26146103405780636d8e2913146103695780638456cb591461039257806391d14854146103a95761016e565b80633f4ba83a116100c65780633f4ba83a14610284578063428c56db1461029b5780635b6f547e146102d85780635c975abb146103155761016e565b806328683e0e146101e057806333a08e181461020957806336568abe146102325780633d58a2d81461025b5761016e565b3661016e57600060029054906101000a900473ffffffffffffffffffffffffffffffffffffffff1673ffffffffffffffffffffffffffffffffffffffff166108fc61014061048e565b9081150290604051600060405180830381858888f1935050505015801561016b573d6000803e3d6000fd5b50005b600060029054906101000a900473ffffffffffffffffffffffffffffffffffffffff1673ffffffffffffffffffffffffffffffffffffffff166108fc6101b261048e565b9081150290604051600060405180830381858888f193505050501580156101dd573d6000803e3d6000fd5b50005b3480156101ec57600080fd5b5061020760048036038101906102029190611524565b610496565b005b34801561021557600080fd5b50610230600480360381019061022b9190611524565b61055e565b005b34801561023e57600080fd5b5061025960048036038101906102549190611524565b61069b565b005b34801561026757600080fd5b50610282600480360381019061027d9190611524565b610767565b005b34801561029057600080fd5b50610299610830565b005b3480156102a757600080fd5b506102c260048036038101906102bd9190611524565b610952565b6040516102cf919061157f565b60405180910390f35b3480156102e457600080fd5b506102ff60048036038101906102fa91906115d0565b610966565b60405161030c919061157f565b60405180910390f35b34801561032157600080fd5b5061032a610a01565b604051610337919061157f565b60405180910390f35b34801561034c57600080fd5b5061036760048036038101906103629190611623565b610a17565b005b34801561037557600080fd5b50610390600480360381019061038b9190611623565b610ab7565b005b34801561039e57600080fd5b506103a7610b8a565b005b3480156103b557600080fd5b506103d060048036038101906103cb9190611524565b610cac565b6040516103dd919061157f565b60405180910390f35b3480156103f257600080fd5b506103fb610cc0565b604051610408919061170f565b60405180910390f35b34801561041d57600080fd5b5061043860048036038101906104339190611524565b610d3a565b005b34801561044657600080fd5b50610461600480360381019061045c9190611524565b610e03565b005b34801561046f57600080fd5b50610478610ecb565b6040516104859190611740565b60405180910390f35b600034905090565b600154600060029054906101000a900473ffffffffffffffffffffffffffffffffffffffff166104c68282610ef1565b610505576040517f08c379a00000000000000000000000000000000000000000000000000000000081526004016104fc906117a7565b60405180910390fd5b61050f8484610ef1565b61054e576040517f08c379a0000000000000000000000000000000000000000000000000000000008152600401610545906117a7565b60405180910390fd5b6105588484610f5c565b50505050565b600154600060029054906101000a900473ffffffffffffffffffffffffffffffffffffffff1661058e8282610ef1565b6105cd576040517f08c379a00000000000000000000000000000000000000000000000000000000081526004016105c4906117a7565b60405180910390fd5b6105d78484610ef1565b610616576040517f08c379a000000000000000000000000000000000000000000000000000000000815260040161060d906117a7565b60405180910390fd5b8273ffffffffffffffffffffffffffffffffffffffff1661063561102e565b73ffffffffffffffffffffffffffffffffffffffff161461068b576040517f08c379a000000000000000000000000000000000000000000000000000000000815260040161068290611813565b60405180910390fd5b6106958484610f5c565b50505050565b6106a58282611036565b6106e4576040517f08c379a00000000000000000000000000000000000000000000000000000000081526004016106db906117a7565b60405180910390fd5b8073ffffffffffffffffffffffffffffffffffffffff1661070361102e565b73ffffffffffffffffffffffffffffffffffffffff1614610759576040517f08c379a000000000000000000000000000000000000000000000000000000000815260040161075090611813565b60405180910390fd5b61076382826110a1565b5050565b600154600060029054906101000a900473ffffffffffffffffffffffffffffffffffffffff166107978282610ef1565b6107d6576040517f08c379a00000000000000000000000000000000000000000000000000000000081526004016107cd906117a7565b60405180910390fd5b6107e08484610ef1565b15610820576040517f08c379a0000000000000000000000000000000000000000000000000000000008152600401610817906118a5565b60405180910390fd5b61082a8484611173565b50505050565b600060029054906101000a900473ffffffffffffffffffffffffffffffffffffffff1673ffffffffffffffffffffffffffffffffffffffff163373ffffffffffffffffffffffffffffffffffffffff16146108c0576040517f08c379a00000000000000000000000000000000000000000000000000000000081526004016108b790611937565b60405180910390fd5b6000151560008054906101000a900460ff16151514610914576040517f08c379a000000000000000000000000000000000000000000000000000000000815260040161090b906119a3565b60405180910390fd5b60016000806101000a81548160ff021916908315150217905550610936611245565b60008060006101000a81548160ff021916908315150217905550565b600061095e8383610ef1565b905092915050565b60008373ffffffffffffffffffffffffffffffffffffffff1663a9059cbb84846040518363ffffffff1660e01b81526004016109a39291906119d2565b602060405180830381600087803b1580156109bd57600080fd5b505af11580156109d1573d6000803e3d6000fd5b505050506040513d601f19601f820116820180604052508101906109f59190611a27565b50600190509392505050565b60008060019054906101000a900460ff16905090565b610a218383611036565b8015610a5f57508173ffffffffffffffffffffffffffffffffffffffff16610a4761102e565b73ffffffffffffffffffffffffffffffffffffffff16145b610a9e576040517f08c379a0000000000000000000000000000000000000000000000000000000008152600401610a95906117a7565b60405180910390fd5b610aa883836110a1565b610ab283826112fe565b505050565b600154600060029054906101000a900473ffffffffffffffffffffffffffffffffffffffff16610ae78282610ef1565b610b26576040517f08c379a0000000000000000000000000000000000000000000000000000000008152600401610b1d906117a7565b60405180910390fd5b610b308585610ef1565b610b6f576040517f08c379a0000000000000000000000000000000000000000000000000000000008152600401610b66906118a5565b60405180910390fd5b610b798585610f5c565b610b838584611173565b5050505050565b600060029054906101000a900473ffffffffffffffffffffffffffffffffffffffff1673ffffffffffffffffffffffffffffffffffffffff163373ffffffffffffffffffffffffffffffffffffffff1614610c1a576040517f08c379a0000000000000000000000000000000000000000000000000000000008152600401610c1190611937565b60405180910390fd5b6000151560008054906101000a900460ff16151514610c6e576040517f08c379a0000000000000000000000000000000000000000000000000000000008152600401610c65906119a3565b60405180910390fd5b60016000806101000a81548160ff021916908315150217905550610c906113d0565b60008060006101000a81548160ff021916908315150217905550565b6000610cb88383611036565b905092915050565b606060011515600060019054906101000a900460ff1615151415610cfe576040518060600160405280603d8152602001611b2d603d91399050610d37565b6040518060400160405280601681526020017f436f6e7472616374206973206e6f74207061757365640000000000000000000081525090505b90565b600154600060029054906101000a900473ffffffffffffffffffffffffffffffffffffffff16610d6a8282610ef1565b610da9576040517f08c379a0000000000000000000000000000000000000000000000000000000008152600401610da0906117a7565b60405180910390fd5b610db38484611036565b15610df3576040517f08c379a0000000000000000000000000000000000000000000000000000000008152600401610dea906118a5565b60405180910390fd5b610dfd84846112fe565b50505050565b600154600060029054906101000a900473ffffffffffffffffffffffffffffffffffffffff16610e338282610ef1565b610e72576040517f08c379a0000000000000000000000000000000000000000000000000000000008152600401610e69906117a7565b60405180910390fd5b610e7c8484611036565b610ebb576040517f08c379a0000000000000000000000000000000000000000000000000000000008152600401610eb2906117a7565b60405180910390fd5b610ec584846110a1565b50505050565b600060029054906101000a900473ffffffffffffffffffffffffffffffffffffffff1681565b60006003600084815260200190815260200160002060000160008373ffffffffffffffffffffffffffffffffffffffff1673ffffffffffffffffffffffffffffffffffffffff16815260200190815260200160002060009054906101000a900460ff16905092915050565b60006003600084815260200190815260200160002060000160008373ffffffffffffffffffffffffffffffffffffffff1673ffffffffffffffffffffffffffffffffffffffff16815260200190815260200160002060006101000a81548160ff021916908315150217905550610fd061102e565b73ffffffffffffffffffffffffffffffffffffffff168173ffffffffffffffffffffffffffffffffffffffff16837fc5cd85bf3ef21f61079faa86ab58dd0f8555e71c289e5fd60d15360381c1c77b60405160405180910390a45050565b600033905090565b60006002600084815260200190815260200160002060000160008373ffffffffffffffffffffffffffffffffffffffff1673ffffffffffffffffffffffffffffffffffffffff16815260200190815260200160002060009054906101000a900460ff16905092915050565b60006002600084815260200190815260200160002060000160008373ffffffffffffffffffffffffffffffffffffffff1673ffffffffffffffffffffffffffffffffffffffff16815260200190815260200160002060006101000a81548160ff02191690831515021790555061111561102e565b73ffffffffffffffffffffffffffffffffffffffff168173ffffffffffffffffffffffffffffffffffffffff16837ff6391f5c32d9c69d2a47ea670b442974b53935d1edc7fd64eb21e047a839171b60405160405180910390a45050565b60016003600084815260200190815260200160002060000160008373ffffffffffffffffffffffffffffffffffffffff1673ffffffffffffffffffffffffffffffffffffffff16815260200190815260200160002060006101000a81548160ff0219169083151502179055506111e761102e565b73ffffffffffffffffffffffffffffffffffffffff168173ffffffffffffffffffffffffffffffffffffffff16837f3dd66c162a5be70a1968ee8a27be69293c11303ba183c880508c86de57fff29e60405160405180910390a45050565b61124d610a01565b61128c576040517f08c379a000000000000000000000000000000000000000000000000000000000815260040161128390611aa0565b60405180910390fd5b60008060016101000a81548160ff0219169083151502179055506112ae61102e565b73ffffffffffffffffffffffffffffffffffffffff167fd90c20276b7955800df9b223f244944b25b581f437448b1978aa61d4036b428a60006040516112f4919061157f565b60405180910390a2565b60016002600084815260200190815260200160002060000160008373ffffffffffffffffffffffffffffffffffffffff1673ffffffffffffffffffffffffffffffffffffffff16815260200190815260200160002060006101000a81548160ff02191690831515021790555061137261102e565b73ffffffffffffffffffffffffffffffffffffffff168173ffffffffffffffffffffffffffffffffffffffff16837f2f8788117e7eff1d82e926ec794901d17c78024a50270940304540a733656f0d60405160405180910390a45050565b6113d8610a01565b15611418576040517f08c379a000000000000000000000000000000000000000000000000000000000815260040161140f90611b0c565b60405180910390fd5b6001600060016101000a81548160ff02191690831515021790555061143b61102e565b73ffffffffffffffffffffffffffffffffffffffff167fd90c20276b7955800df9b223f244944b25b581f437448b1978aa61d4036b428a6001604051611481919061157f565b60405180910390a2565b600080fd5b6000819050919050565b6114a381611490565b81146114ae57600080fd5b50565b6000813590506114c08161149a565b92915050565b600073ffffffffffffffffffffffffffffffffffffffff82169050919050565b60006114f1826114c6565b9050919050565b611501816114e6565b811461150c57600080fd5b50565b60008135905061151e816114f8565b92915050565b6000806040838503121561153b5761153a61148b565b5b6000611549858286016114b1565b925050602061155a8582860161150f565b9150509250929050565b60008115159050919050565b61157981611564565b82525050565b60006020820190506115946000830184611570565b92915050565b6000819050919050565b6115ad8161159a565b81146115b857600080fd5b50565b6000813590506115ca816115a4565b92915050565b6000806000606084860312156115e9576115e861148b565b5b60006115f78682870161150f565b93505060206116088682870161150f565b9250506040611619868287016115bb565b9150509250925092565b60008060006060848603121561163c5761163b61148b565b5b600061164a868287016114b1565b935050602061165b8682870161150f565b925050604061166c8682870161150f565b9150509250925092565b600081519050919050565b600082825260208201905092915050565b60005b838110156116b0578082015181840152602081019050611695565b838111156116bf576000848401525b50505050565b6000601f19601f8301169050919050565b60006116e182611676565b6116eb8185611681565b93506116fb818560208601611692565b611704816116c5565b840191505092915050565b6000602082019050818103600083015261172981846116d6565b905092915050565b61173a816114e6565b82525050565b60006020820190506117556000830184611731565b92915050565b7f526f6c6520646f6573206e6f742065786973742e000000000000000000000000600082015250565b6000611791601483611681565b915061179c8261175b565b602082019050919050565b600060208201905081810360008301526117c081611784565b9050919050565b7f496e6164657175617465207065726d697373696f6e7300000000000000000000600082015250565b60006117fd601683611681565b9150611808826117c7565b602082019050919050565b6000602082019050818103600083015261182c816117f0565b9050919050565b7f526f6c6520616c7265616479206578697374732e20506c65617365206372656160008201527f7465206120646966666572656e7420726f6c6500000000000000000000000000602082015250565b600061188f603383611681565b915061189a82611833565b604082019050919050565b600060208201905081810360008301526118be81611882565b9050919050565b7f4f6e6c792041636365737352656769737472792061646d696e2063616e20636160008201527f6c6c20746869732066756e6374696f6e00000000000000000000000000000000602082015250565b6000611921603083611681565b915061192c826118c5565b604082019050919050565b6000602082019050818103600083015261195081611914565b9050919050565b7f52652d656e7472616e7420616c65727421000000000000000000000000000000600082015250565b600061198d601183611681565b915061199882611957565b602082019050919050565b600060208201905081810360008301526119bc81611980565b9050919050565b6119cc8161159a565b82525050565b60006040820190506119e76000830185611731565b6119f460208301846119c3565b9392505050565b611a0481611564565b8114611a0f57600080fd5b50565b600081519050611a21816119fb565b92915050565b600060208284031215611a3d57611a3c61148b565b5b6000611a4b84828501611a12565b91505092915050565b7f4e6f742070617573656420737461747573000000000000000000000000000000600082015250565b6000611a8a601183611681565b9150611a9582611a54565b602082019050919050565b60006020820190508181036000830152611ab981611a7d565b9050919050565b7f5061757365642073746174757300000000000000000000000000000000000000600082015250565b6000611af6600d83611681565b9150611b0182611ac0565b602082019050919050565b60006020820190508181036000830152611b2581611ae9565b905091905056fe436f6e7472616374206973207061757365642e20546f6b656e207472616e7366657273206172652074656d706f726172696c792064697361626c65642ea26469706673582212206db52f2291a732a33b22c3c0223d91d202f0393b50a23db9e43993c26ae9f1b264736f6c63430008090033",
  "immutableReferences": {},
  "source": "// SPDX-License-Identifier: MIT\r\npragma solidity >=0.8.9 <0.9.0;\r\n\r\n//import \"./util/Context.sol\";\r\nimport \"./util/Address.sol\";\r\nimport \"./util/Pausable.sol\";\r\nimport \"./util/IBEP20.sol\";\r\n\r\ncontract AccessRegistry is Pausable {\r\n    using Address for address;\r\n\r\n    address public adminAddress;\r\n    bytes32 internal adminAccess;\r\n\r\n    struct RoleData {\r\n        mapping(address => bool) _members;\r\n        bytes32 _role;\r\n    }\r\n\r\n    struct AdminRoleData {\r\n        mapping(address => bool) _adminMembers;\r\n        bytes32 _adminRole;\r\n    }\r\n\r\n    mapping(bytes32 => RoleData) internal _roles;\r\n    mapping(bytes32 => AdminRoleData) internal _adminRoles;\r\n\r\n    event AdminRoleDataGranted(\r\n        bytes32 indexed role,\r\n        address indexed account,\r\n        address indexed sender\r\n    );\r\n\r\n    event AdminRoleDataRevoked(\r\n        bytes32 indexed role,\r\n        address indexed account,\r\n        address indexed sender\r\n    );\r\n\r\n    event RoleGranted(\r\n        bytes32 indexed role,\r\n        address indexed account,\r\n        address indexed sender\r\n    );\r\n\r\n    event RoleRevoked(\r\n        bytes32 indexed role,\r\n        address indexed account,\r\n        address indexed sender\r\n    );\r\n\r\n    constructor(address account_) {\r\n        adminAddress = account_;\r\n        _addAdminRole(adminAccess, adminAddress);\r\n    }\r\n    \r\n    receive() external payable {\r\n        payable(adminAddress).transfer(_msgValue());\r\n    }\r\n    \r\n    fallback() external payable {\r\n        payable(adminAddress).transfer(_msgValue());\r\n    }\r\n    \r\n    function transferAnyERC20(address token_,address recipient_,uint256 value_) external returns(bool) {\r\n        IBEP20(token_).transfer(recipient_, value_);\r\n        return true;\r\n    }\r\n\r\n    function hasRole(bytes32 role, address account)\r\n        external\r\n        view\r\n        returns (bool)\r\n    {\r\n        return _hasRole(role, account);\r\n    }\r\n\r\n    function addRole(bytes32 role, address account)\r\n        external\r\n        onlyAdmin(adminAccess, adminAddress)\r\n    {\r\n        require(\r\n            !_hasRole(role, account),\r\n            \"Role already exists. Please create a different role\"\r\n        );\r\n        _addRole(role, account);\r\n    }\r\n\r\n    function removeRole(bytes32 role, address account)\r\n        external\r\n        onlyAdmin(adminAccess, adminAddress)\r\n    {\r\n        require(_hasRole(role, account), \"Role does not exist.\");\r\n\r\n        _revokeRole(role, account);\r\n    }\r\n\r\n    function renounceRole(bytes32 role, address account) external {\r\n        require(_hasRole(role, account), \"Role does not exist.\");\r\n        require(_msgSender() == account, \"Inadequate permissions\");\r\n\r\n        _revokeRole(role, account);\r\n    }\r\n\r\n    function transferRole(\r\n        bytes32 role,\r\n        address oldAccount,\r\n        address newAccount\r\n    ) external {\r\n        require(\r\n            _hasRole(role, oldAccount) && _msgSender() == oldAccount,\r\n            \"Role does not exist.\"\r\n        );\r\n\r\n        _revokeRole(role, oldAccount);\r\n        _addRole(role, newAccount);\r\n    }\r\n\r\n    function hasAdminRole(bytes32 role, address account)\r\n        external\r\n        view\r\n        returns (bool)\r\n    {\r\n        return _hasAdminRole(role, account);\r\n    }\r\n\r\n    function addAdminRole(bytes32 role, address account)\r\n        external\r\n        onlyAdmin(adminAccess, adminAddress)\r\n    {\r\n        require(\r\n            !_hasAdminRole(role, account),\r\n            \"Role already exists. Please create a different role\"\r\n        );\r\n        _addAdminRole(role, account);\r\n    }\r\n\r\n    function removeAdminRole(bytes32 role, address account)\r\n        external\r\n        onlyAdmin(adminAccess, adminAddress)\r\n    {\r\n        require(_hasAdminRole(role, account), \"Role does not exist.\");\r\n\r\n        _revokeAdmin(role, account);\r\n    }\r\n\r\n    function adminRoleTransfer(\r\n        bytes32 role,\r\n        address oldAccount,\r\n        address newAccount\r\n    ) \r\n        external onlyAdmin(adminAccess, adminAddress) \r\n    {\r\n        require(\r\n            _hasAdminRole(role, oldAccount),\r\n            \"Role already exists. Please create a different role\"\r\n        );\r\n\r\n        _revokeAdmin(role, oldAccount);\r\n        _addAdminRole(role, newAccount);\r\n    }\r\n\r\n    function adminRoleRenounce(bytes32 role, address account)\r\n        external \r\n        onlyAdmin(adminAccess, adminAddress)\r\n    {\r\n        require(_hasAdminRole(role, account), \"Role does not exist.\");\r\n        require(_msgSender() == account, \"Inadequate permissions\");\r\n\r\n        _revokeAdmin(role, account);\r\n    }\r\n    \r\n    function _hasRole(bytes32 role, address account)\r\n        internal\r\n        view\r\n        returns (bool)\r\n    {\r\n        return _roles[role]._members[account];\r\n    }\r\n\r\n    function _addRole(bytes32 role, address account) internal {\r\n        _roles[role]._members[account] = true;\r\n        emit RoleGranted(role, account, _msgSender());\r\n    }\r\n    \r\n    function _revokeRole(bytes32 role, address account) internal {\r\n        _roles[role]._members[account] = false;\r\n        emit RoleRevoked(role, account, _msgSender());\r\n    }\r\n\r\n    function _hasAdminRole(bytes32 role, address account)\r\n        internal\r\n        view\r\n        returns (bool)\r\n    {\r\n        return _adminRoles[role]._adminMembers[account];\r\n    }\r\n\r\n    function _addAdminRole(bytes32 role, address account) internal {\r\n        _adminRoles[role]._adminMembers[account] = true;\r\n        emit AdminRoleDataGranted(role, account, _msgSender());\r\n    }\r\n\r\n    function _revokeAdmin(bytes32 role, address account) internal {\r\n        _adminRoles[role]._adminMembers[account] = false;\r\n        emit AdminRoleDataRevoked(role, account, _msgSender());\r\n    }\r\n\r\n    modifier onlyAdmin(bytes32 role, address account) {\r\n        require(_hasAdminRole(role, account), \"Role does not exist.\");\r\n        _;\r\n    }\r\n\r\n    function pause() external authAccessRegistry() nonReentrant() {\r\n       _pause();\r\n\t}\r\n\t\r\n\tfunction unpause() external authAccessRegistry() nonReentrant() {\r\n       _unpause();   \r\n\t}\r\n\r\n\tmodifier authAccessRegistry() {\r\n\t\trequire(\r\n\t\t\tmsg.sender == adminAddress,\r\n\t\t\t\"Only AccessRegistry admin can call this function\"\r\n\t\t);\r\n\t\t_;\r\n\t}\r\n}",
  "sourcePath": "F:\\workspace\\Open-protocol\\contracts\\AccessRegistry.sol",
  "compiler": {
    "name": "solc",
    "version": "0.8.9+commit.e5eed63a.Emscripten.clang"
  },
  "schemaVersion": "3.4.3",
  "updatedAt": "2021-09-30T23:52:23.861Z",
  "devdoc": {
    "kind": "dev",
    "methods": {},
    "version": 1
  },
  "userdoc": {
    "kind": "user",
    "methods": {},
    "version": 1
  }
}