{
  "contractName": "AccessRegistry",
  "abi": [
    {
      "inputs": [
        {
          "internalType": "address",
          "name": "account_",
          "type": "address"
        }
      ],
      "stateMutability": "nonpayable",
      "type": "constructor"
    },
    {
      "anonymous": false,
      "inputs": [
        {
          "indexed": true,
          "internalType": "bytes32",
          "name": "role",
          "type": "bytes32"
        },
        {
          "indexed": true,
          "internalType": "address",
          "name": "account",
          "type": "address"
        },
        {
          "indexed": true,
          "internalType": "address",
          "name": "sender",
          "type": "address"
        }
      ],
      "name": "AdminRoleGranted",
      "type": "event"
    },
    {
      "anonymous": false,
      "inputs": [
        {
          "indexed": true,
          "internalType": "bytes32",
          "name": "role",
          "type": "bytes32"
        },
        {
          "indexed": true,
          "internalType": "address",
          "name": "account",
          "type": "address"
        },
        {
          "indexed": true,
          "internalType": "address",
          "name": "sender",
          "type": "address"
        }
      ],
      "name": "AdminRoleRevoked",
      "type": "event"
    },
    {
      "anonymous": false,
      "inputs": [
        {
          "indexed": true,
          "internalType": "bytes32",
          "name": "role",
          "type": "bytes32"
        },
        {
          "indexed": true,
          "internalType": "address",
          "name": "account",
          "type": "address"
        },
        {
          "indexed": true,
          "internalType": "address",
          "name": "sender",
          "type": "address"
        }
      ],
      "name": "RoleGranted",
      "type": "event"
    },
    {
      "anonymous": false,
      "inputs": [
        {
          "indexed": true,
          "internalType": "bytes32",
          "name": "role",
          "type": "bytes32"
        },
        {
          "indexed": true,
          "internalType": "address",
          "name": "account",
          "type": "address"
        },
        {
          "indexed": true,
          "internalType": "address",
          "name": "sender",
          "type": "address"
        }
      ],
      "name": "RoleRevoked",
      "type": "event"
    },
    {
      "stateMutability": "payable",
      "type": "fallback"
    },
    {
      "inputs": [],
      "name": "adminAddress",
      "outputs": [
        {
          "internalType": "address",
          "name": "",
          "type": "address"
        }
      ],
      "stateMutability": "view",
      "type": "function"
    },
    {
      "stateMutability": "payable",
      "type": "receive"
    },
    {
      "inputs": [
        {
          "internalType": "bytes32",
          "name": "role",
          "type": "bytes32"
        },
        {
          "internalType": "address",
          "name": "account",
          "type": "address"
        }
      ],
      "name": "hasRole",
      "outputs": [
        {
          "internalType": "bool",
          "name": "",
          "type": "bool"
        }
      ],
      "stateMutability": "view",
      "type": "function"
    },
    {
      "inputs": [
        {
          "internalType": "bytes32",
          "name": "role",
          "type": "bytes32"
        },
        {
          "internalType": "address",
          "name": "account",
          "type": "address"
        }
      ],
      "name": "addRole",
      "outputs": [],
      "stateMutability": "nonpayable",
      "type": "function"
    },
    {
      "inputs": [
        {
          "internalType": "bytes32",
          "name": "role",
          "type": "bytes32"
        },
        {
          "internalType": "address",
          "name": "account",
          "type": "address"
        }
      ],
      "name": "removeRole",
      "outputs": [],
      "stateMutability": "nonpayable",
      "type": "function"
    },
    {
      "inputs": [
        {
          "internalType": "bytes32",
          "name": "role",
          "type": "bytes32"
        },
        {
          "internalType": "address",
          "name": "account",
          "type": "address"
        }
      ],
      "name": "renounceRole",
      "outputs": [],
      "stateMutability": "nonpayable",
      "type": "function"
    },
    {
      "inputs": [
        {
          "internalType": "bytes32",
          "name": "role",
          "type": "bytes32"
        },
        {
          "internalType": "address",
          "name": "oldAccount",
          "type": "address"
        },
        {
          "internalType": "address",
          "name": "newAccount",
          "type": "address"
        }
      ],
      "name": "transferRole",
      "outputs": [],
      "stateMutability": "nonpayable",
      "type": "function"
    },
    {
      "inputs": [
        {
          "internalType": "bytes32",
          "name": "role",
          "type": "bytes32"
        },
        {
          "internalType": "address",
          "name": "account",
          "type": "address"
        }
      ],
      "name": "hasAdminRole",
      "outputs": [
        {
          "internalType": "bool",
          "name": "",
          "type": "bool"
        }
      ],
      "stateMutability": "view",
      "type": "function"
    },
    {
      "inputs": [
        {
          "internalType": "bytes32",
          "name": "role",
          "type": "bytes32"
        },
        {
          "internalType": "address",
          "name": "account",
          "type": "address"
        }
      ],
      "name": "addAdmin",
      "outputs": [],
      "stateMutability": "nonpayable",
      "type": "function"
    },
    {
      "inputs": [
        {
          "internalType": "bytes32",
          "name": "role",
          "type": "bytes32"
        },
        {
          "internalType": "address",
          "name": "account",
          "type": "address"
        }
      ],
      "name": "removeAdmin",
      "outputs": [],
      "stateMutability": "nonpayable",
      "type": "function"
    },
    {
      "inputs": [
        {
          "internalType": "bytes32",
          "name": "role",
          "type": "bytes32"
        },
        {
          "internalType": "address",
          "name": "oldAccount",
          "type": "address"
        },
        {
          "internalType": "address",
          "name": "newAccount",
          "type": "address"
        }
      ],
      "name": "adminRoleTransfer",
      "outputs": [],
      "stateMutability": "nonpayable",
      "type": "function"
    }
  ],
  "bytecode": "0x60806040523480156200001157600080fd5b5060405162001cb338038062001cb38339818101604052810190620000379190620002d7565b806000806101000a81548173ffffffffffffffffffffffffffffffffffffffff021916908373ffffffffffffffffffffffffffffffffffffffff160217905550620000ab60015460008054906101000a900473ffffffffffffffffffffffffffffffffffffffff16620000b260201b60201c565b506200035c565b80600360008373ffffffffffffffffffffffffffffffffffffffff1673ffffffffffffffffffffffffffffffffffffffff168152602001908152602001600020600001600084815260200190815260200160002060006101000a81548173ffffffffffffffffffffffffffffffffffffffff021916908373ffffffffffffffffffffffffffffffffffffffff160217905550600360008273ffffffffffffffffffffffffffffffffffffffff1673ffffffffffffffffffffffffffffffffffffffff168152602001908152602001600020600201829080600181540180825580915050600190039060005260206000200160009091909190915055600360008273ffffffffffffffffffffffffffffffffffffffff1673ffffffffffffffffffffffffffffffffffffffff16815260200190815260200160002060020180549050600360008373ffffffffffffffffffffffffffffffffffffffff1673ffffffffffffffffffffffffffffffffffffffff1681526020019081526020016000206001016000848152602001908152602001600020819055506200025a620002b860201b60201c565b73ffffffffffffffffffffffffffffffffffffffff168173ffffffffffffffffffffffffffffffffffffffff16837fb754d28367d5b086c81243c886ead0839c92cb5f281e492d7159800bc57d3c1760405160405180910390a45050565b600033905090565b600081519050620002d18162000342565b92915050565b600060208284031215620002f057620002ef6200033d565b5b60006200030084828501620002c0565b91505092915050565b600062000316826200031d565b9050919050565b600073ffffffffffffffffffffffffffffffffffffffff82169050919050565b600080fd5b6200034d8162000309565b81146200035957600080fd5b50565b611947806200036c6000396000f3fe6080604052600436106100955760003560e01c806391d148541161005957806391d148541461025b5780639a387ce614610298578063e959b38a146102c1578063f6ba0007146102ea578063fc6f9468146103135761010a565b806336568abe1461017a578063428c56db146101a35780635cb87d26146101e05780636419bcdb146102095780636d8e2913146102325761010a565b3661010a5760008054906101000a900473ffffffffffffffffffffffffffffffffffffffff1673ffffffffffffffffffffffffffffffffffffffff166108fc6100dc61033e565b9081150290604051600060405180830381858888f19350505050158015610107573d6000803e3d6000fd5b50005b60008054906101000a900473ffffffffffffffffffffffffffffffffffffffff1673ffffffffffffffffffffffffffffffffffffffff166108fc61014c61033e565b9081150290604051600060405180830381858888f19350505050158015610177573d6000803e3d6000fd5b50005b34801561018657600080fd5b506101a1600480360381019061019c9190611513565b610346565b005b3480156101af57600080fd5b506101ca60048036038101906101c59190611513565b610412565b6040516101d79190611648565b60405180910390f35b3480156101ec57600080fd5b5061020760048036038101906102029190611553565b610426565b005b34801561021557600080fd5b50610230600480360381019061022b9190611513565b6104c6565b005b34801561023e57600080fd5b5061025960048036038101906102549190611553565b61058d565b005b34801561026757600080fd5b50610282600480360381019061027d9190611513565b61065e565b60405161028f9190611648565b60405180910390f35b3480156102a457600080fd5b506102bf60048036038101906102ba9190611513565b610672565b005b3480156102cd57600080fd5b506102e860048036038101906102e39190611513565b610738565b005b3480156102f657600080fd5b50610311600480360381019061030c9190611513565b6107ff565b005b34801561031f57600080fd5b506103286108c5565b604051610335919061162d565b60405180910390f35b600034905090565b61035082826108e9565b61038f576040517f08c379a000000000000000000000000000000000000000000000000000000000815260040161038690611683565b60405180910390fd5b8073ffffffffffffffffffffffffffffffffffffffff166103ae610959565b73ffffffffffffffffffffffffffffffffffffffff1614610404576040517f08c379a00000000000000000000000000000000000000000000000000000000081526004016103fb906116a3565b60405180910390fd5b61040e8282610961565b5050565b600061041e8383610cef565b905092915050565b61043083836108e9565b801561046e57508173ffffffffffffffffffffffffffffffffffffffff16610456610959565b73ffffffffffffffffffffffffffffffffffffffff16145b6104ad576040517f08c379a00000000000000000000000000000000000000000000000000000000081526004016104a490611683565b60405180910390fd5b6104b78383610961565b6104c18382610d5f565b505050565b60015460008054906101000a900473ffffffffffffffffffffffffffffffffffffffff166104f48282610cef565b610533576040517f08c379a000000000000000000000000000000000000000000000000000000000815260040161052a90611683565b60405180910390fd5b61053d8484610cef565b1561057d576040517f08c379a000000000000000000000000000000000000000000000000000000000815260040161057490611663565b60405180910390fd5b6105878484610f5d565b50505050565b60015460008054906101000a900473ffffffffffffffffffffffffffffffffffffffff166105bb8282610cef565b6105fa576040517f08c379a00000000000000000000000000000000000000000000000000000000081526004016105f190611683565b60405180910390fd5b6106048585610cef565b610643576040517f08c379a000000000000000000000000000000000000000000000000000000000815260040161063a90611663565b60405180910390fd5b61064d858561115b565b6106578584610f5d565b5050505050565b600061066a83836108e9565b905092915050565b60015460008054906101000a900473ffffffffffffffffffffffffffffffffffffffff166106a08282610cef565b6106df576040517f08c379a00000000000000000000000000000000000000000000000000000000081526004016106d690611683565b60405180910390fd5b6106e98484610cef565b610728576040517f08c379a000000000000000000000000000000000000000000000000000000000815260040161071f90611683565b60405180910390fd5b610732848461115b565b50505050565b60015460008054906101000a900473ffffffffffffffffffffffffffffffffffffffff166107668282610cef565b6107a5576040517f08c379a000000000000000000000000000000000000000000000000000000000815260040161079c90611683565b60405180910390fd5b6107af84846108e9565b156107ef576040517f08c379a00000000000000000000000000000000000000000000000000000000081526004016107e690611663565b60405180910390fd5b6107f98484610d5f565b50505050565b60015460008054906101000a900473ffffffffffffffffffffffffffffffffffffffff1661082d8282610cef565b61086c576040517f08c379a000000000000000000000000000000000000000000000000000000000815260040161086390611683565b60405180910390fd5b61087684846108e9565b6108b5576040517f08c379a00000000000000000000000000000000000000000000000000000000081526004016108ac90611683565b60405180910390fd5b6108bf8484610961565b50505050565b60008054906101000a900473ffffffffffffffffffffffffffffffffffffffff1681565b600080600260008473ffffffffffffffffffffffffffffffffffffffff1673ffffffffffffffffffffffffffffffffffffffff1681526020019081526020016000206001016000858152602001908152602001600020541461094e5760019050610953565b600090505b92915050565b600033905090565b600260008273ffffffffffffffffffffffffffffffffffffffff1673ffffffffffffffffffffffffffffffffffffffff168152602001908152602001600020600001600083815260200190815260200160002060006101000a81549073ffffffffffffffffffffffffffffffffffffffff02191690556000600260008373ffffffffffffffffffffffffffffffffffffffff1673ffffffffffffffffffffffffffffffffffffffff16815260200190815260200160002060010160008481526020019081526020016000205490506000600182610a3e919061172a565b90506000600260008573ffffffffffffffffffffffffffffffffffffffff1673ffffffffffffffffffffffffffffffffffffffff1681526020019081526020016000206002018054905090506000600182610a99919061172a565b90506000600260008773ffffffffffffffffffffffffffffffffffffffff1673ffffffffffffffffffffffffffffffffffffffff1681526020019081526020016000206002018281548110610af157610af061180e565b5b9060005260206000200154905080600260008873ffffffffffffffffffffffffffffffffffffffff1673ffffffffffffffffffffffffffffffffffffffff1681526020019081526020016000206002018581548110610b5357610b5261180e565b5b9060005260206000200181905550600184610b6e91906116d4565b600260008873ffffffffffffffffffffffffffffffffffffffff1673ffffffffffffffffffffffffffffffffffffffff168152602001908152602001600020600101600083815260200190815260200160002081905550600260008773ffffffffffffffffffffffffffffffffffffffff1673ffffffffffffffffffffffffffffffffffffffff168152602001908152602001600020600201805480610c1757610c166117df565b5b60019003818190600052602060002001600090559055600260008773ffffffffffffffffffffffffffffffffffffffff1673ffffffffffffffffffffffffffffffffffffffff168152602001908152602001600020600101600088815260200190815260200160002060009055610c8c610959565b73ffffffffffffffffffffffffffffffffffffffff168673ffffffffffffffffffffffffffffffffffffffff16887ff6391f5c32d9c69d2a47ea670b442974b53935d1edc7fd64eb21e047a839171b60405160405180910390a450505050505050565b600080600360008473ffffffffffffffffffffffffffffffffffffffff1673ffffffffffffffffffffffffffffffffffffffff16815260200190815260200160002060010160008581526020019081526020016000205414610d545760019050610d59565b600090505b92915050565b80600260008373ffffffffffffffffffffffffffffffffffffffff1673ffffffffffffffffffffffffffffffffffffffff168152602001908152602001600020600001600084815260200190815260200160002060006101000a81548173ffffffffffffffffffffffffffffffffffffffff021916908373ffffffffffffffffffffffffffffffffffffffff160217905550600260008273ffffffffffffffffffffffffffffffffffffffff1673ffffffffffffffffffffffffffffffffffffffff168152602001908152602001600020600201829080600181540180825580915050600190039060005260206000200160009091909190915055600260008273ffffffffffffffffffffffffffffffffffffffff1673ffffffffffffffffffffffffffffffffffffffff16815260200190815260200160002060020180549050600260008373ffffffffffffffffffffffffffffffffffffffff1673ffffffffffffffffffffffffffffffffffffffff168152602001908152602001600020600101600084815260200190815260200160002081905550610eff610959565b73ffffffffffffffffffffffffffffffffffffffff168173ffffffffffffffffffffffffffffffffffffffff16837f2f8788117e7eff1d82e926ec794901d17c78024a50270940304540a733656f0d60405160405180910390a45050565b80600360008373ffffffffffffffffffffffffffffffffffffffff1673ffffffffffffffffffffffffffffffffffffffff168152602001908152602001600020600001600084815260200190815260200160002060006101000a81548173ffffffffffffffffffffffffffffffffffffffff021916908373ffffffffffffffffffffffffffffffffffffffff160217905550600360008273ffffffffffffffffffffffffffffffffffffffff1673ffffffffffffffffffffffffffffffffffffffff168152602001908152602001600020600201829080600181540180825580915050600190039060005260206000200160009091909190915055600360008273ffffffffffffffffffffffffffffffffffffffff1673ffffffffffffffffffffffffffffffffffffffff16815260200190815260200160002060020180549050600360008373ffffffffffffffffffffffffffffffffffffffff1673ffffffffffffffffffffffffffffffffffffffff1681526020019081526020016000206001016000848152602001908152602001600020819055506110fd610959565b73ffffffffffffffffffffffffffffffffffffffff168173ffffffffffffffffffffffffffffffffffffffff16837fb754d28367d5b086c81243c886ead0839c92cb5f281e492d7159800bc57d3c1760405160405180910390a45050565b600360008273ffffffffffffffffffffffffffffffffffffffff1673ffffffffffffffffffffffffffffffffffffffff168152602001908152602001600020600001600083815260200190815260200160002060006101000a81549073ffffffffffffffffffffffffffffffffffffffff02191690556000600360008373ffffffffffffffffffffffffffffffffffffffff1673ffffffffffffffffffffffffffffffffffffffff16815260200190815260200160002060010160008481526020019081526020016000205490506000600182611238919061172a565b90506000600360008573ffffffffffffffffffffffffffffffffffffffff1673ffffffffffffffffffffffffffffffffffffffff1681526020019081526020016000206002018054905090506000600182611293919061172a565b90506000600360008773ffffffffffffffffffffffffffffffffffffffff1673ffffffffffffffffffffffffffffffffffffffff16815260200190815260200160002060020182815481106112eb576112ea61180e565b5b9060005260206000200154905080600360008873ffffffffffffffffffffffffffffffffffffffff1673ffffffffffffffffffffffffffffffffffffffff168152602001908152602001600020600201858154811061134d5761134c61180e565b5b906000526020600020018190555060018461136891906116d4565b600360008873ffffffffffffffffffffffffffffffffffffffff1673ffffffffffffffffffffffffffffffffffffffff168152602001908152602001600020600101600083815260200190815260200160002081905550600360008773ffffffffffffffffffffffffffffffffffffffff1673ffffffffffffffffffffffffffffffffffffffff168152602001908152602001600020600201805480611411576114106117df565b5b60019003818190600052602060002001600090559055600360008773ffffffffffffffffffffffffffffffffffffffff1673ffffffffffffffffffffffffffffffffffffffff168152602001908152602001600020600101600088815260200190815260200160002060009055611486610959565b73ffffffffffffffffffffffffffffffffffffffff168673ffffffffffffffffffffffffffffffffffffffff16887f77a3124d5a7fb118ef3bd073fd7ee2c762b24256db96ace524ecd6b6cf11415c60405160405180910390a450505050505050565b6000813590506114f8816118e3565b92915050565b60008135905061150d816118fa565b92915050565b6000806040838503121561152a5761152961183d565b5b6000611538858286016114fe565b9250506020611549858286016114e9565b9150509250929050565b60008060006060848603121561156c5761156b61183d565b5b600061157a868287016114fe565b935050602061158b868287016114e9565b925050604061159c868287016114e9565b9150509250925092565b6115af8161175e565b82525050565b6115be81611770565b82525050565b60006115d16033836116c3565b91506115dc82611842565b604082019050919050565b60006115f46014836116c3565b91506115ff82611891565b602082019050919050565b60006116176016836116c3565b9150611622826118ba565b602082019050919050565b600060208201905061164260008301846115a6565b92915050565b600060208201905061165d60008301846115b5565b92915050565b6000602082019050818103600083015261167c816115c4565b9050919050565b6000602082019050818103600083015261169c816115e7565b9050919050565b600060208201905081810360008301526116bc8161160a565b9050919050565b600082825260208201905092915050565b60006116df826117a6565b91506116ea836117a6565b9250827fffffffffffffffffffffffffffffffffffffffffffffffffffffffffffffffff0382111561171f5761171e6117b0565b5b828201905092915050565b6000611735826117a6565b9150611740836117a6565b925082821015611753576117526117b0565b5b828203905092915050565b600061176982611786565b9050919050565b60008115159050919050565b6000819050919050565b600073ffffffffffffffffffffffffffffffffffffffff82169050919050565b6000819050919050565b7f4e487b7100000000000000000000000000000000000000000000000000000000600052601160045260246000fd5b7f4e487b7100000000000000000000000000000000000000000000000000000000600052603160045260246000fd5b7f4e487b7100000000000000000000000000000000000000000000000000000000600052603260045260246000fd5b600080fd5b7f526f6c6520616c7265616479206578697374732e20506c65617365206372656160008201527f7465206120646966666572656e7420726f6c6500000000000000000000000000602082015250565b7f526f6c6520646f6573206e6f742065786973742e000000000000000000000000600082015250565b7f496e6164657175617465207065726d697373696f6e7300000000000000000000600082015250565b6118ec8161175e565b81146118f757600080fd5b50565b6119038161177c565b811461190e57600080fd5b5056fea26469706673582212200ebeb5c95196b411e2dd789f6c1cff0cd6532066a29d723c991de5bd52e1ea8264736f6c63430008070033",
  "immutableReferences": {},
  "source": "// SPDX-License-Identifier: MIT\r\npragma solidity >=0.8.7 <0.9.0;\r\n\r\nimport \"./util/Context.sol\";\r\nimport \"./util/Address.sol\";\r\n\r\ncontract AccessRegistry is Context {\r\n    using Address for address;\r\n\r\n    address public adminAddress;\r\n    bytes32 internal adminAccess;\r\n\r\n    struct RoleData {\r\n        mapping(bytes32 => address) _roleRegistry; //mapping of all roles & addresses\r\n        mapping(bytes32 => uint256) _indexes;\r\n        bytes32[] _roleList;\r\n    }\r\n\r\n    struct AdminRegistry {\r\n        mapping(bytes32 => address) _adminRegistry;\r\n        mapping(bytes32 => uint256) _adminIndex;\r\n        bytes32[] _adminRoleList;\r\n    }\r\n\r\n    mapping(address => RoleData) internal _roles;\r\n    mapping(address => AdminRegistry) internal _adminRoles;\r\n\r\n    event AdminRoleGranted(\r\n        bytes32 indexed role,\r\n        address indexed account,\r\n        address indexed sender\r\n    );\r\n    event AdminRoleRevoked(\r\n        bytes32 indexed role,\r\n        address indexed account,\r\n        address indexed sender\r\n    );\r\n\r\n    event RoleGranted(\r\n        bytes32 indexed role,\r\n        address indexed account,\r\n        address indexed sender\r\n    );\r\n    event RoleRevoked(\r\n        bytes32 indexed role,\r\n        address indexed account,\r\n        address indexed sender\r\n    );\r\n\r\n    constructor(address account_) {\r\n        adminAddress = account_;\r\n        _addAdmin(adminAccess, adminAddress);\r\n    }\r\n    receive() external payable {\r\n        payable(adminAddress).transfer(_msgValue());\r\n    }\r\n    fallback() external payable {\r\n        payable(adminAddress).transfer(_msgValue());\r\n    }\r\n\r\n    function hasRole(bytes32 role, address account)\r\n        external\r\n        view\r\n        returns (bool)\r\n    {\r\n        return _hasRole(role, account);\r\n    }\r\n\r\n    function addRole(bytes32 role, address account)\r\n        external\r\n        onlyAdmin(adminAccess, adminAddress)\r\n    {\r\n        require(\r\n            !_hasRole(role, account),\r\n            \"Role already exists. Please create a different role\"\r\n        );\r\n        _addRole(role, account);\r\n    }\r\n\r\n    function removeRole(bytes32 role, address account)\r\n        external\r\n        onlyAdmin(adminAccess, adminAddress)\r\n    {\r\n        require(_hasRole(role, account), \"Role does not exist.\");\r\n\r\n        _revokeRole(role, account);\r\n    }\r\n\r\n    function renounceRole(bytes32 role, address account) external {\r\n        require(_hasRole(role, account), \"Role does not exist.\");\r\n        require(_msgSender() == account, \"Inadequate permissions\");\r\n\r\n        _revokeRole(role, account);\r\n    }\r\n\r\n    function transferRole(\r\n        bytes32 role,\r\n        address oldAccount,\r\n        address newAccount\r\n    ) external {\r\n        require(\r\n            _hasRole(role, oldAccount) && _msgSender() == oldAccount,\r\n            \"Role does not exist.\"\r\n        );\r\n\r\n        _revokeRole(role, oldAccount);\r\n        _addRole(role, newAccount);\r\n    }\r\n\r\n    function hasAdminRole(bytes32 role, address account)\r\n        external\r\n        view\r\n        returns (bool)\r\n    {\r\n        return _hasAdminRole(role, account);\r\n    }\r\n\r\n    function addAdmin(bytes32 role, address account)\r\n        external\r\n        onlyAdmin(adminAccess, adminAddress)\r\n    {\r\n        require(\r\n            !_hasAdminRole(role, account),\r\n            \"Role already exists. Please create a different role\"\r\n        );\r\n        _addAdmin(role, account);\r\n    }\r\n\r\n    function removeAdmin(bytes32 role, address account)\r\n        external\r\n        onlyAdmin(adminAccess, adminAddress)\r\n    {\r\n        require(_hasAdminRole(role, account), \"Role does not exist.\");\r\n\r\n        _revokeAdmin(role, account);\r\n    }\r\n\r\n    function adminRoleTransfer(\r\n        bytes32 role,\r\n        address oldAccount,\r\n        address newAccount\r\n    ) external onlyAdmin(adminAccess, adminAddress) {\r\n        require(\r\n            _hasAdminRole(role, oldAccount),\r\n            \"Role already exists. Please create a different role\"\r\n        );\r\n\r\n        _revokeAdmin(role, oldAccount);\r\n        _addAdmin(role, newAccount);\r\n    }\r\n\r\n    function _hasRole(bytes32 role, address account)\r\n        internal\r\n        view\r\n        returns (bool)\r\n    {\r\n        if (_roles[account]._indexes[role] != 0) {\r\n            return true;\r\n        }\r\n        return false;\r\n    }\r\n\r\n    function _addRole(bytes32 role, address account) internal {\r\n        _roles[account]._roleRegistry[role] = account;\r\n        _roles[account]._roleList.push(role);\r\n        _roles[account]._indexes[role] = _roles[account]._roleList.length;\r\n\r\n        emit RoleGranted(role, account, _msgSender());\r\n    }\r\n    \r\n    function _revokeRole(bytes32 role, address account) internal {\r\n        delete _roles[account]._roleRegistry[role];\r\n\r\n        uint256 _value = _roles[account]._indexes[role];\r\n        uint256 _toDeleteIndex = _value - 1;\r\n\r\n        uint256 _lastValue = _roles[account]._roleList.length;\r\n        uint256 _lastValueIndex = _lastValue - 1;\r\n\r\n        bytes32 lastRole = _roles[account]._roleList[_lastValueIndex];\r\n\r\n        _roles[account]._roleList[_toDeleteIndex] = lastRole; // Index assignment\r\n        _roles[account]._indexes[lastRole] = _toDeleteIndex + 1;\r\n\r\n        _roles[account]._roleList.pop();\r\n        delete _roles[account]._indexes[role];\r\n\r\n        emit RoleRevoked(role, account, _msgSender());\r\n    }\r\n\r\n    function _hasAdminRole(bytes32 role, address account)\r\n        internal\r\n        view\r\n        returns (bool)\r\n    {\r\n        if (_adminRoles[account]._adminIndex[role] != 0) {\r\n            // if (_adminRoles[account]._adminIndex[role]!=0)  {\r\n            return true;\r\n        }\r\n        return false;\r\n    }\r\n\r\n    function _addAdmin(bytes32 role, address account) internal {\r\n        _adminRoles[account]._adminRegistry[role] = account;\r\n        _adminRoles[account]._adminRoleList.push(role);\r\n\r\n        _adminRoles[account]._adminIndex[role] = _adminRoles[account]\r\n            ._adminRoleList\r\n            .length;\r\n\r\n        emit AdminRoleGranted(role, account, _msgSender());\r\n    }\r\n\r\n    function _revokeAdmin(bytes32 role, address account) internal {\r\n        delete _adminRoles[account]._adminRegistry[role];\r\n\r\n        uint256 _value = _adminRoles[account]._adminIndex[role];\r\n        uint256 _toDeleteIndex = _value - 1;\r\n\r\n        uint256 _lastValue = _adminRoles[account]._adminRoleList.length;\r\n        uint256 _lastValueIndex = _lastValue - 1;\r\n\r\n        bytes32 lastRole = _adminRoles[account]._adminRoleList[_lastValueIndex];\r\n\r\n        _adminRoles[account]._adminRoleList[_toDeleteIndex] = lastRole; // Index assignment\r\n\r\n        _adminRoles[account]._adminIndex[lastRole] = _toDeleteIndex + 1;\r\n\r\n        _adminRoles[account]._adminRoleList.pop();\r\n        delete _adminRoles[account]._adminIndex[role];\r\n\r\n        emit AdminRoleRevoked(role, account, _msgSender());\r\n    }\r\n\r\n    modifier onlyAdmin(bytes32 role, address account) {\r\n        require(_hasAdminRole(role, account), \"Role does not exist.\");\r\n        _;\r\n    }\r\n}\r\n",
  "sourcePath": "F:\\workspace\\Open-protocol\\contracts\\AccessRegistry.sol",
  "compiler": {
    "name": "solc",
    "version": "0.8.7+commit.e28d00a7.Emscripten.clang"
  },
  "schemaVersion": "3.4.3",
  "updatedAt": "2021-09-24T14:00:34.307Z",
  "devdoc": {
    "kind": "dev",
    "methods": {},
    "version": 1
  },
  "userdoc": {
    "kind": "user",
    "methods": {},
    "version": 1
  }
}