{
  "contractName": "AccessRegistry",
  "abi": [
    {
      "inputs": [
        {
          "internalType": "address",
          "name": "account_",
          "type": "address"
        }
      ],
      "stateMutability": "nonpayable",
      "type": "constructor"
    },
    {
      "anonymous": false,
      "inputs": [
        {
          "indexed": true,
          "internalType": "bytes32",
          "name": "role",
          "type": "bytes32"
        },
        {
          "indexed": true,
          "internalType": "address",
          "name": "account",
          "type": "address"
        },
        {
          "indexed": true,
          "internalType": "address",
          "name": "sender",
          "type": "address"
        }
      ],
      "name": "AdminRoleGranted",
      "type": "event"
    },
    {
      "anonymous": false,
      "inputs": [
        {
          "indexed": true,
          "internalType": "bytes32",
          "name": "role",
          "type": "bytes32"
        },
        {
          "indexed": true,
          "internalType": "address",
          "name": "account",
          "type": "address"
        },
        {
          "indexed": true,
          "internalType": "address",
          "name": "sender",
          "type": "address"
        }
      ],
      "name": "AdminRoleRevoked",
      "type": "event"
    },
    {
      "anonymous": false,
      "inputs": [
        {
          "indexed": false,
          "internalType": "address",
          "name": "account",
          "type": "address"
        }
      ],
      "name": "Paused",
      "type": "event"
    },
    {
      "anonymous": false,
      "inputs": [
        {
          "indexed": true,
          "internalType": "bytes32",
          "name": "role",
          "type": "bytes32"
        },
        {
          "indexed": true,
          "internalType": "address",
          "name": "account",
          "type": "address"
        },
        {
          "indexed": true,
          "internalType": "address",
          "name": "sender",
          "type": "address"
        }
      ],
      "name": "RoleGranted",
      "type": "event"
    },
    {
      "anonymous": false,
      "inputs": [
        {
          "indexed": true,
          "internalType": "bytes32",
          "name": "role",
          "type": "bytes32"
        },
        {
          "indexed": true,
          "internalType": "address",
          "name": "account",
          "type": "address"
        },
        {
          "indexed": true,
          "internalType": "address",
          "name": "sender",
          "type": "address"
        }
      ],
      "name": "RoleRevoked",
      "type": "event"
    },
    {
      "anonymous": false,
      "inputs": [
        {
          "indexed": false,
          "internalType": "address",
          "name": "account",
          "type": "address"
        }
      ],
      "name": "Unpaused",
      "type": "event"
    },
    {
      "stateMutability": "payable",
      "type": "fallback"
    },
    {
      "inputs": [],
      "name": "adminAddress",
      "outputs": [
        {
          "internalType": "address",
          "name": "",
          "type": "address"
        }
      ],
      "stateMutability": "view",
      "type": "function"
    },
    {
      "inputs": [],
      "name": "paused",
      "outputs": [
        {
          "internalType": "bool",
          "name": "",
          "type": "bool"
        }
      ],
      "stateMutability": "view",
      "type": "function"
    },
    {
      "stateMutability": "payable",
      "type": "receive"
    },
    {
      "inputs": [
        {
          "internalType": "bytes32",
          "name": "role",
          "type": "bytes32"
        },
        {
          "internalType": "address",
          "name": "account",
          "type": "address"
        }
      ],
      "name": "hasRole",
      "outputs": [
        {
          "internalType": "bool",
          "name": "",
          "type": "bool"
        }
      ],
      "stateMutability": "view",
      "type": "function"
    },
    {
      "inputs": [
        {
          "internalType": "bytes32",
          "name": "role",
          "type": "bytes32"
        },
        {
          "internalType": "address",
          "name": "account",
          "type": "address"
        }
      ],
      "name": "addRole",
      "outputs": [],
      "stateMutability": "nonpayable",
      "type": "function"
    },
    {
      "inputs": [
        {
          "internalType": "bytes32",
          "name": "role",
          "type": "bytes32"
        },
        {
          "internalType": "address",
          "name": "account",
          "type": "address"
        }
      ],
      "name": "removeRole",
      "outputs": [],
      "stateMutability": "nonpayable",
      "type": "function"
    },
    {
      "inputs": [
        {
          "internalType": "bytes32",
          "name": "role",
          "type": "bytes32"
        },
        {
          "internalType": "address",
          "name": "account",
          "type": "address"
        }
      ],
      "name": "renounceRole",
      "outputs": [],
      "stateMutability": "nonpayable",
      "type": "function"
    },
    {
      "inputs": [
        {
          "internalType": "bytes32",
          "name": "role",
          "type": "bytes32"
        },
        {
          "internalType": "address",
          "name": "oldAccount",
          "type": "address"
        },
        {
          "internalType": "address",
          "name": "newAccount",
          "type": "address"
        }
      ],
      "name": "transferRole",
      "outputs": [],
      "stateMutability": "nonpayable",
      "type": "function"
    },
    {
      "inputs": [
        {
          "internalType": "bytes32",
          "name": "role",
          "type": "bytes32"
        },
        {
          "internalType": "address",
          "name": "account",
          "type": "address"
        }
      ],
      "name": "hasAdminRole",
      "outputs": [
        {
          "internalType": "bool",
          "name": "",
          "type": "bool"
        }
      ],
      "stateMutability": "view",
      "type": "function"
    },
    {
      "inputs": [
        {
          "internalType": "bytes32",
          "name": "role",
          "type": "bytes32"
        },
        {
          "internalType": "address",
          "name": "account",
          "type": "address"
        }
      ],
      "name": "addAdmin",
      "outputs": [],
      "stateMutability": "nonpayable",
      "type": "function"
    },
    {
      "inputs": [
        {
          "internalType": "bytes32",
          "name": "role",
          "type": "bytes32"
        },
        {
          "internalType": "address",
          "name": "account",
          "type": "address"
        }
      ],
      "name": "removeAdmin",
      "outputs": [],
      "stateMutability": "nonpayable",
      "type": "function"
    },
    {
      "inputs": [
        {
          "internalType": "bytes32",
          "name": "role",
          "type": "bytes32"
        },
        {
          "internalType": "address",
          "name": "oldAccount",
          "type": "address"
        },
        {
          "internalType": "address",
          "name": "newAccount",
          "type": "address"
        }
      ],
      "name": "adminRoleTransfer",
      "outputs": [],
      "stateMutability": "nonpayable",
      "type": "function"
    },
    {
      "inputs": [
        {
          "internalType": "bytes32",
          "name": "role",
          "type": "bytes32"
        },
        {
          "internalType": "address",
          "name": "account",
          "type": "address"
        }
      ],
      "name": "adminRoleRenounce",
      "outputs": [],
      "stateMutability": "nonpayable",
      "type": "function"
    }
  ],
  "bytecode": "0x60806040523480156200001157600080fd5b5060405162001eb338038062001eb38339818101604052810190620000379190620002f4565b60008060006101000a81548160ff02191690831515021790555080600060016101000a81548173ffffffffffffffffffffffffffffffffffffffff021916908373ffffffffffffffffffffffffffffffffffffffff160217905550620000c8600154600060019054906101000a900473ffffffffffffffffffffffffffffffffffffffff16620000cf60201b60201c565b5062000379565b80600360008373ffffffffffffffffffffffffffffffffffffffff1673ffffffffffffffffffffffffffffffffffffffff168152602001908152602001600020600001600084815260200190815260200160002060006101000a81548173ffffffffffffffffffffffffffffffffffffffff021916908373ffffffffffffffffffffffffffffffffffffffff160217905550600360008273ffffffffffffffffffffffffffffffffffffffff1673ffffffffffffffffffffffffffffffffffffffff168152602001908152602001600020600201829080600181540180825580915050600190039060005260206000200160009091909190915055600360008273ffffffffffffffffffffffffffffffffffffffff1673ffffffffffffffffffffffffffffffffffffffff16815260200190815260200160002060020180549050600360008373ffffffffffffffffffffffffffffffffffffffff1673ffffffffffffffffffffffffffffffffffffffff16815260200190815260200160002060010160008481526020019081526020016000208190555062000277620002d560201b60201c565b73ffffffffffffffffffffffffffffffffffffffff168173ffffffffffffffffffffffffffffffffffffffff16837fb754d28367d5b086c81243c886ead0839c92cb5f281e492d7159800bc57d3c1760405160405180910390a45050565b600033905090565b600081519050620002ee816200035f565b92915050565b6000602082840312156200030d576200030c6200035a565b5b60006200031d84828501620002dd565b91505092915050565b600062000333826200033a565b9050919050565b600073ffffffffffffffffffffffffffffffffffffffff82169050919050565b600080fd5b6200036a8162000326565b81146200037657600080fd5b50565b611b2a80620003896000396000f3fe6080604052600436106100ab5760003560e01c80636d8e2913116100645780636d8e2913146102a057806391d14854146102c95780639a387ce614610306578063e959b38a1461032f578063f6ba000714610358578063fc6f94681461038157610122565b806333a08e181461019457806336568abe146101bd578063428c56db146101e65780635c975abb146102235780635cb87d261461024e5780636419bcdb1461027757610122565b3661012257600060019054906101000a900473ffffffffffffffffffffffffffffffffffffffff1673ffffffffffffffffffffffffffffffffffffffff166108fc6100f46103ac565b9081150290604051600060405180830381858888f1935050505015801561011f573d6000803e3d6000fd5b50005b600060019054906101000a900473ffffffffffffffffffffffffffffffffffffffff1673ffffffffffffffffffffffffffffffffffffffff166108fc6101666103ac565b9081150290604051600060405180830381858888f19350505050158015610191573d6000803e3d6000fd5b50005b3480156101a057600080fd5b506101bb60048036038101906101b691906116f6565b6103b4565b005b3480156101c957600080fd5b506101e460048036038101906101df91906116f6565b6104f1565b005b3480156101f257600080fd5b5061020d600480360381019061020891906116f6565b6105bd565b60405161021a919061182b565b60405180910390f35b34801561022f57600080fd5b506102386105d1565b604051610245919061182b565b60405180910390f35b34801561025a57600080fd5b5061027560048036038101906102709190611736565b6105e7565b005b34801561028357600080fd5b5061029e600480360381019061029991906116f6565b610687565b005b3480156102ac57600080fd5b506102c760048036038101906102c29190611736565b610750565b005b3480156102d557600080fd5b506102f060048036038101906102eb91906116f6565b610823565b6040516102fd919061182b565b60405180910390f35b34801561031257600080fd5b5061032d600480360381019061032891906116f6565b610837565b005b34801561033b57600080fd5b50610356600480360381019061035191906116f6565b6108ff565b005b34801561036457600080fd5b5061037f600480360381019061037a91906116f6565b6109c8565b005b34801561038d57600080fd5b50610396610a90565b6040516103a39190611810565b60405180910390f35b600034905090565b600154600060019054906101000a900473ffffffffffffffffffffffffffffffffffffffff166103e48282610ab6565b610423576040517f08c379a000000000000000000000000000000000000000000000000000000000815260040161041a90611866565b60405180910390fd5b61042d8484610ab6565b61046c576040517f08c379a000000000000000000000000000000000000000000000000000000000815260040161046390611866565b60405180910390fd5b8273ffffffffffffffffffffffffffffffffffffffff1661048b610b26565b73ffffffffffffffffffffffffffffffffffffffff16146104e1576040517f08c379a00000000000000000000000000000000000000000000000000000000081526004016104d890611886565b60405180910390fd5b6104eb8484610b2e565b50505050565b6104fb8282610ec7565b61053a576040517f08c379a000000000000000000000000000000000000000000000000000000000815260040161053190611866565b60405180910390fd5b8073ffffffffffffffffffffffffffffffffffffffff16610559610b26565b73ffffffffffffffffffffffffffffffffffffffff16146105af576040517f08c379a00000000000000000000000000000000000000000000000000000000081526004016105a690611886565b60405180910390fd5b6105b98282610f37565b5050565b60006105c98383610ab6565b905092915050565b60008060009054906101000a900460ff16905090565b6105f18383610ec7565b801561062f57508173ffffffffffffffffffffffffffffffffffffffff16610617610b26565b73ffffffffffffffffffffffffffffffffffffffff16145b61066e576040517f08c379a000000000000000000000000000000000000000000000000000000000815260040161066590611866565b60405180910390fd5b6106788383610f37565b61068283826112d0565b505050565b600154600060019054906101000a900473ffffffffffffffffffffffffffffffffffffffff166106b78282610ab6565b6106f6576040517f08c379a00000000000000000000000000000000000000000000000000000000081526004016106ed90611866565b60405180910390fd5b6107008484610ab6565b15610740576040517f08c379a000000000000000000000000000000000000000000000000000000000815260040161073790611846565b60405180910390fd5b61074a84846114ce565b50505050565b600154600060019054906101000a900473ffffffffffffffffffffffffffffffffffffffff166107808282610ab6565b6107bf576040517f08c379a00000000000000000000000000000000000000000000000000000000081526004016107b690611866565b60405180910390fd5b6107c98585610ab6565b610808576040517f08c379a00000000000000000000000000000000000000000000000000000000081526004016107ff90611846565b60405180910390fd5b6108128585610b2e565b61081c85846114ce565b5050505050565b600061082f8383610ec7565b905092915050565b600154600060019054906101000a900473ffffffffffffffffffffffffffffffffffffffff166108678282610ab6565b6108a6576040517f08c379a000000000000000000000000000000000000000000000000000000000815260040161089d90611866565b60405180910390fd5b6108b08484610ab6565b6108ef576040517f08c379a00000000000000000000000000000000000000000000000000000000081526004016108e690611866565b60405180910390fd5b6108f98484610b2e565b50505050565b600154600060019054906101000a900473ffffffffffffffffffffffffffffffffffffffff1661092f8282610ab6565b61096e576040517f08c379a000000000000000000000000000000000000000000000000000000000815260040161096590611866565b60405180910390fd5b6109788484610ec7565b156109b8576040517f08c379a00000000000000000000000000000000000000000000000000000000081526004016109af90611846565b60405180910390fd5b6109c284846112d0565b50505050565b600154600060019054906101000a900473ffffffffffffffffffffffffffffffffffffffff166109f88282610ab6565b610a37576040517f08c379a0000000000000000000000000000000000000000000000000000000008152600401610a2e90611866565b60405180910390fd5b610a418484610ec7565b610a80576040517f08c379a0000000000000000000000000000000000000000000000000000000008152600401610a7790611866565b60405180910390fd5b610a8a8484610f37565b50505050565b600060019054906101000a900473ffffffffffffffffffffffffffffffffffffffff1681565b600080600360008473ffffffffffffffffffffffffffffffffffffffff1673ffffffffffffffffffffffffffffffffffffffff16815260200190815260200160002060010160008581526020019081526020016000205414610b1b5760019050610b20565b600090505b92915050565b600033905090565b600360008273ffffffffffffffffffffffffffffffffffffffff1673ffffffffffffffffffffffffffffffffffffffff168152602001908152602001600020600001600083815260200190815260200160002060006101000a81549073ffffffffffffffffffffffffffffffffffffffff021916905560006001600360008473ffffffffffffffffffffffffffffffffffffffff1673ffffffffffffffffffffffffffffffffffffffff168152602001908152602001600020600101600085815260200190815260200160002054610c06919061190d565b905060006001600360008573ffffffffffffffffffffffffffffffffffffffff1673ffffffffffffffffffffffffffffffffffffffff16815260200190815260200160002060020180549050610c5c919061190d565b9050808210610c6c575050610ec3565b6000600360008573ffffffffffffffffffffffffffffffffffffffff1673ffffffffffffffffffffffffffffffffffffffff1681526020019081526020016000206002018281548110610cc257610cc16119f1565b5b90600052602060002001549050828214610d9e5780600360008673ffffffffffffffffffffffffffffffffffffffff1673ffffffffffffffffffffffffffffffffffffffff1681526020019081526020016000206002018481548110610d2b57610d2a6119f1565b5b9060005260206000200181905550600183610d4691906118b7565b600360008673ffffffffffffffffffffffffffffffffffffffff1673ffffffffffffffffffffffffffffffffffffffff1681526020019081526020016000206001016000838152602001908152602001600020819055505b600360008573ffffffffffffffffffffffffffffffffffffffff1673ffffffffffffffffffffffffffffffffffffffff168152602001908152602001600020600201805480610df057610def6119c2565b5b60019003818190600052602060002001600090559055600360008573ffffffffffffffffffffffffffffffffffffffff1673ffffffffffffffffffffffffffffffffffffffff168152602001908152602001600020600101600086815260200190815260200160002060009055610e65610b26565b73ffffffffffffffffffffffffffffffffffffffff168473ffffffffffffffffffffffffffffffffffffffff16867f77a3124d5a7fb118ef3bd073fd7ee2c762b24256db96ace524ecd6b6cf11415c60405160405180910390a45050505b5050565b600080600260008473ffffffffffffffffffffffffffffffffffffffff1673ffffffffffffffffffffffffffffffffffffffff16815260200190815260200160002060010160008581526020019081526020016000205414610f2c5760019050610f31565b600090505b92915050565b600260008273ffffffffffffffffffffffffffffffffffffffff1673ffffffffffffffffffffffffffffffffffffffff168152602001908152602001600020600001600083815260200190815260200160002060006101000a81549073ffffffffffffffffffffffffffffffffffffffff021916905560006001600260008473ffffffffffffffffffffffffffffffffffffffff1673ffffffffffffffffffffffffffffffffffffffff16815260200190815260200160002060010160008581526020019081526020016000205461100f919061190d565b905060006001600260008573ffffffffffffffffffffffffffffffffffffffff1673ffffffffffffffffffffffffffffffffffffffff16815260200190815260200160002060020180549050611065919061190d565b90508082106110755750506112cc565b6000600260008573ffffffffffffffffffffffffffffffffffffffff1673ffffffffffffffffffffffffffffffffffffffff16815260200190815260200160002060020182815481106110cb576110ca6119f1565b5b906000526020600020015490508282146111a75780600260008673ffffffffffffffffffffffffffffffffffffffff1673ffffffffffffffffffffffffffffffffffffffff1681526020019081526020016000206002018481548110611134576111336119f1565b5b906000526020600020018190555060018361114f91906118b7565b600260008673ffffffffffffffffffffffffffffffffffffffff1673ffffffffffffffffffffffffffffffffffffffff1681526020019081526020016000206001016000838152602001908152602001600020819055505b600260008573ffffffffffffffffffffffffffffffffffffffff1673ffffffffffffffffffffffffffffffffffffffff1681526020019081526020016000206002018054806111f9576111f86119c2565b5b60019003818190600052602060002001600090559055600260008573ffffffffffffffffffffffffffffffffffffffff1673ffffffffffffffffffffffffffffffffffffffff16815260200190815260200160002060010160008681526020019081526020016000206000905561126e610b26565b73ffffffffffffffffffffffffffffffffffffffff168473ffffffffffffffffffffffffffffffffffffffff16867ff6391f5c32d9c69d2a47ea670b442974b53935d1edc7fd64eb21e047a839171b60405160405180910390a45050505b5050565b80600260008373ffffffffffffffffffffffffffffffffffffffff1673ffffffffffffffffffffffffffffffffffffffff168152602001908152602001600020600001600084815260200190815260200160002060006101000a81548173ffffffffffffffffffffffffffffffffffffffff021916908373ffffffffffffffffffffffffffffffffffffffff160217905550600260008273ffffffffffffffffffffffffffffffffffffffff1673ffffffffffffffffffffffffffffffffffffffff168152602001908152602001600020600201829080600181540180825580915050600190039060005260206000200160009091909190915055600260008273ffffffffffffffffffffffffffffffffffffffff1673ffffffffffffffffffffffffffffffffffffffff16815260200190815260200160002060020180549050600260008373ffffffffffffffffffffffffffffffffffffffff1673ffffffffffffffffffffffffffffffffffffffff168152602001908152602001600020600101600084815260200190815260200160002081905550611470610b26565b73ffffffffffffffffffffffffffffffffffffffff168173ffffffffffffffffffffffffffffffffffffffff16837f2f8788117e7eff1d82e926ec794901d17c78024a50270940304540a733656f0d60405160405180910390a45050565b80600360008373ffffffffffffffffffffffffffffffffffffffff1673ffffffffffffffffffffffffffffffffffffffff168152602001908152602001600020600001600084815260200190815260200160002060006101000a81548173ffffffffffffffffffffffffffffffffffffffff021916908373ffffffffffffffffffffffffffffffffffffffff160217905550600360008273ffffffffffffffffffffffffffffffffffffffff1673ffffffffffffffffffffffffffffffffffffffff168152602001908152602001600020600201829080600181540180825580915050600190039060005260206000200160009091909190915055600360008273ffffffffffffffffffffffffffffffffffffffff1673ffffffffffffffffffffffffffffffffffffffff16815260200190815260200160002060020180549050600360008373ffffffffffffffffffffffffffffffffffffffff1673ffffffffffffffffffffffffffffffffffffffff16815260200190815260200160002060010160008481526020019081526020016000208190555061166e610b26565b73ffffffffffffffffffffffffffffffffffffffff168173ffffffffffffffffffffffffffffffffffffffff16837fb754d28367d5b086c81243c886ead0839c92cb5f281e492d7159800bc57d3c1760405160405180910390a45050565b6000813590506116db81611ac6565b92915050565b6000813590506116f081611add565b92915050565b6000806040838503121561170d5761170c611a20565b5b600061171b858286016116e1565b925050602061172c858286016116cc565b9150509250929050565b60008060006060848603121561174f5761174e611a20565b5b600061175d868287016116e1565b935050602061176e868287016116cc565b925050604061177f868287016116cc565b9150509250925092565b61179281611941565b82525050565b6117a181611953565b82525050565b60006117b46033836118a6565b91506117bf82611a25565b604082019050919050565b60006117d76014836118a6565b91506117e282611a74565b602082019050919050565b60006117fa6016836118a6565b915061180582611a9d565b602082019050919050565b60006020820190506118256000830184611789565b92915050565b60006020820190506118406000830184611798565b92915050565b6000602082019050818103600083015261185f816117a7565b9050919050565b6000602082019050818103600083015261187f816117ca565b9050919050565b6000602082019050818103600083015261189f816117ed565b9050919050565b600082825260208201905092915050565b60006118c282611989565b91506118cd83611989565b9250827fffffffffffffffffffffffffffffffffffffffffffffffffffffffffffffffff0382111561190257611901611993565b5b828201905092915050565b600061191882611989565b915061192383611989565b92508282101561193657611935611993565b5b828203905092915050565b600061194c82611969565b9050919050565b60008115159050919050565b6000819050919050565b600073ffffffffffffffffffffffffffffffffffffffff82169050919050565b6000819050919050565b7f4e487b7100000000000000000000000000000000000000000000000000000000600052601160045260246000fd5b7f4e487b7100000000000000000000000000000000000000000000000000000000600052603160045260246000fd5b7f4e487b7100000000000000000000000000000000000000000000000000000000600052603260045260246000fd5b600080fd5b7f526f6c6520616c7265616479206578697374732e20506c65617365206372656160008201527f7465206120646966666572656e7420726f6c6500000000000000000000000000602082015250565b7f526f6c6520646f6573206e6f742065786973742e000000000000000000000000600082015250565b7f496e6164657175617465207065726d697373696f6e7300000000000000000000600082015250565b611acf81611941565b8114611ada57600080fd5b50565b611ae68161195f565b8114611af157600080fd5b5056fea26469706673582212208c40cd76d39baa1adf704c772533be1dbcc2fb48efba4e058ba5c03e7e6381e264736f6c63430008070033",
  "immutableReferences": {},
  "source": "// SPDX-License-Identifier: MIT\r\npragma solidity >=0.8.7 <0.9.0;\r\n\r\n//import \"./util/Context.sol\";\r\nimport \"./util/Address.sol\";\r\nimport \"./util/Pausable.sol\";\r\n\r\ncontract AccessRegistry is Pausable {\r\n    using Address for address;\r\n\r\n    address public adminAddress;\r\n    bytes32 internal adminAccess;\r\n\r\n    struct RoleData {\r\n        mapping(bytes32 => address) _roleRegistry; //mapping of all roles & addresses\r\n        mapping(bytes32 => uint256) _indexes;\r\n        bytes32[] _roleList;\r\n    }\r\n\r\n    struct AdminRegistry  {\r\n        mapping(bytes32 => address) _adminRegistry;\r\n        mapping(bytes32 => uint256) _adminIndex;\r\n        bytes32[] _adminRoleList;\r\n    }\r\n\r\n    mapping(address => RoleData) internal _roles;\r\n    mapping(address => AdminRegistry ) internal _adminRoles;\r\n\r\n    event AdminRoleGranted(\r\n        bytes32 indexed role,\r\n        address indexed account,\r\n        address indexed sender\r\n    );\r\n\r\n    event AdminRoleRevoked(\r\n        bytes32 indexed role,\r\n        address indexed account,\r\n        address indexed sender\r\n    );\r\n\r\n    event RoleGranted(\r\n        bytes32 indexed role,\r\n        address indexed account,\r\n        address indexed sender\r\n    );\r\n\r\n    event RoleRevoked(\r\n        bytes32 indexed role,\r\n        address indexed account,\r\n        address indexed sender\r\n    );\r\n\r\n    constructor(address account_) {\r\n        adminAddress = account_;\r\n        _addAdmin(adminAccess, adminAddress);\r\n    }\r\n    receive() external payable {\r\n        payable(adminAddress).transfer(_msgValue());\r\n    }\r\n    fallback() external payable {\r\n        payable(adminAddress).transfer(_msgValue());\r\n    }\r\n\r\n    function hasRole(bytes32 role, address account)\r\n        external\r\n        view\r\n        returns (bool)\r\n    {\r\n        return _hasRole(role, account);\r\n    }\r\n\r\n    function addRole(bytes32 role, address account)\r\n        external\r\n        auth(adminAccess, adminAddress)\r\n    {\r\n        require(\r\n            !_hasRole(role, account),\r\n            \"Role already exists. Please create a different role\"\r\n        );\r\n        _addRole(role, account);\r\n    }\r\n\r\n    function removeRole(bytes32 role, address account)\r\n        external\r\n        auth(adminAccess, adminAddress)\r\n    {\r\n        require(_hasRole(role, account), \"Role does not exist.\");\r\n\r\n        _revokeRole(role, account);\r\n    }\r\n\r\n    function renounceRole(bytes32 role, address account) external {\r\n        require(_hasRole(role, account), \"Role does not exist.\");\r\n        require(_msgSender() == account, \"Inadequate permissions\");\r\n\r\n        _revokeRole(role, account);\r\n    }\r\n\r\n    function transferRole(\r\n        bytes32 role,\r\n        address oldAccount,\r\n        address newAccount\r\n    ) external {\r\n        require(\r\n            _hasRole(role, oldAccount) && _msgSender() == oldAccount,\r\n            \"Role does not exist.\"\r\n        );\r\n\r\n        _revokeRole(role, oldAccount);\r\n        _addRole(role, newAccount);\r\n    }\r\n\r\n    function hasAdminRole(bytes32 role, address account)\r\n        external\r\n        view\r\n        returns (bool)\r\n    {\r\n        return _hasAdminRole(role, account);\r\n    }\r\n\r\n    function addAdmin(bytes32 role, address account)\r\n        external\r\n        auth(adminAccess, adminAddress)\r\n    {\r\n        require(\r\n            !_hasAdminRole(role, account),\r\n            \"Role already exists. Please create a different role\"\r\n        );\r\n        _addAdmin(role, account);\r\n    }\r\n\r\n    function removeAdmin(bytes32 role, address account)\r\n        external\r\n        auth(adminAccess, adminAddress)\r\n    {\r\n        require(_hasAdminRole(role, account), \"Role does not exist.\");\r\n\r\n        _revokeAdmin(role, account);\r\n    }\r\n\r\n    function adminRoleTransfer(\r\n        bytes32 role,\r\n        address oldAccount,\r\n        address newAccount\r\n    ) external auth(adminAccess, adminAddress) {\r\n        require(\r\n            _hasAdminRole(role, oldAccount),\r\n            \"Role already exists. Please create a different role\"\r\n        );\r\n\r\n        _revokeAdmin(role, oldAccount);\r\n        _addAdmin(role, newAccount);\r\n    }\r\n\r\n    function adminRoleRenounce(bytes32 role, address account) external auth(adminAccess, adminAddress){\r\n        require(_hasAdminRole(role, account), \"Role does not exist.\");\r\n        require(_msgSender() == account, \"Inadequate permissions\");\r\n\r\n        _revokeAdmin(role, account);\r\n    }\r\n    \r\n    function _hasRole(bytes32 role, address account)\r\n        internal\r\n        view\r\n        returns (bool)\r\n    {\r\n        if (_roles[account]._indexes[role] != 0) {\r\n            return true;\r\n        }\r\n        return false;\r\n    }\r\n\r\n    function _addRole(bytes32 role, address account) internal {\r\n        _roles[account]._roleRegistry[role] = account;\r\n        _roles[account]._roleList.push(role);\r\n        _roles[account]._indexes[role] = _roles[account]._roleList.length;\r\n\r\n        emit RoleGranted(role, account, _msgSender());\r\n    }\r\n    \r\n    function _revokeRole(bytes32 role, address account) internal {\r\n        delete _roles[account]._roleRegistry[role];\r\n\r\n        uint256 _toDeleteIndex = _roles[account]._indexes[role] - 1;\r\n        uint256 _lastValueIndex = _roles[account]._roleList.length - 1;\r\n\r\n        if(_toDeleteIndex >= _lastValueIndex) return;\r\n\r\n        bytes32 lastRole = _roles[account]._roleList[_lastValueIndex];\r\n\r\n        if(_lastValueIndex != _toDeleteIndex){\r\n            _roles[account]._roleList[_toDeleteIndex] = lastRole; // Index assignment\r\n            _roles[account]._indexes[lastRole] = _toDeleteIndex + 1;\r\n        }\r\n\r\n        _roles[account]._roleList.pop();\r\n        delete _roles[account]._indexes[role];\r\n\r\n        emit RoleRevoked(role, account, _msgSender());\r\n    }\r\n\r\n    function _hasAdminRole(bytes32 role, address account)\r\n        internal\r\n        view\r\n        returns (bool)\r\n    {\r\n        if (_adminRoles[account]._adminIndex[role] != 0) return true;\r\n        return false;\r\n    }\r\n\r\n    function _addAdmin(bytes32 role, address account) internal {\r\n        _adminRoles[account]._adminRegistry[role] = account;\r\n        _adminRoles[account]._adminRoleList.push(role);\r\n\r\n        _adminRoles[account]._adminIndex[role] = _adminRoles[account]\r\n            ._adminRoleList\r\n            .length;\r\n\r\n        emit AdminRoleGranted(role, account, _msgSender());\r\n    }\r\n\r\n    function _revokeAdmin(bytes32 role, address account) internal {\r\n\r\n        delete _adminRoles[account]._adminRegistry[role];\r\n\r\n        uint256 _toDeleteIndex = _adminRoles[account]._adminIndex[role] - 1;\r\n        uint256 _lastValueIndex = _adminRoles[account]._adminRoleList.length - 1;\r\n\r\n        if(_toDeleteIndex >= _lastValueIndex) return;\r\n\r\n        bytes32 lastRole = _adminRoles[account]._adminRoleList[_lastValueIndex];\r\n\r\n        if(_lastValueIndex != _toDeleteIndex){\r\n            _adminRoles[account]._adminRoleList[_toDeleteIndex] = lastRole; // Index assignment\r\n            _adminRoles[account]._adminIndex[lastRole] = _toDeleteIndex + 1;\r\n        }\r\n        \r\n        _adminRoles[account]._adminRoleList.pop();\r\n        delete _adminRoles[account]._adminIndex[role];\r\n\r\n        emit AdminRoleRevoked(role, account, _msgSender());\r\n    }\r\n\r\n    modifier auth(bytes32 role, address account) {\r\n        require(_hasAdminRole(role, account), \"Role does not exist.\");\r\n        _;\r\n    }\r\n}",
  "sourcePath": "F:\\workspace\\Open-protocol\\contracts\\AccessRegistry.sol",
  "compiler": {
    "name": "solc",
    "version": "0.8.7+commit.e28d00a7.Emscripten.clang"
  },
  "schemaVersion": "3.4.3",
  "updatedAt": "2021-09-27T06:01:02.791Z",
  "devdoc": {
    "kind": "dev",
    "methods": {},
    "version": 1
  },
  "userdoc": {
    "kind": "user",
    "methods": {},
    "version": 1
  }
}