{
  "contractName": "AccessRegistry",
  "abi": [
    {
      "inputs": [
        {
          "internalType": "address",
          "name": "account_",
          "type": "address"
        }
      ],
      "stateMutability": "nonpayable",
      "type": "constructor"
    },
    {
      "anonymous": false,
      "inputs": [
        {
          "indexed": true,
          "internalType": "bytes32",
          "name": "role",
          "type": "bytes32"
        },
        {
          "indexed": true,
          "internalType": "address",
          "name": "account",
          "type": "address"
        },
        {
          "indexed": true,
          "internalType": "address",
          "name": "sender",
          "type": "address"
        }
      ],
      "name": "AdminRoleDataGranted",
      "type": "event"
    },
    {
      "anonymous": false,
      "inputs": [
        {
          "indexed": true,
          "internalType": "bytes32",
          "name": "role",
          "type": "bytes32"
        },
        {
          "indexed": true,
          "internalType": "address",
          "name": "account",
          "type": "address"
        },
        {
          "indexed": true,
          "internalType": "address",
          "name": "sender",
          "type": "address"
        }
      ],
      "name": "AdminRoleDataRevoked",
      "type": "event"
    },
    {
      "anonymous": false,
      "inputs": [
        {
          "indexed": false,
          "internalType": "address",
          "name": "account",
          "type": "address"
        }
      ],
      "name": "Paused",
      "type": "event"
    },
    {
      "anonymous": false,
      "inputs": [
        {
          "indexed": true,
          "internalType": "bytes32",
          "name": "role",
          "type": "bytes32"
        },
        {
          "indexed": true,
          "internalType": "address",
          "name": "account",
          "type": "address"
        },
        {
          "indexed": true,
          "internalType": "address",
          "name": "sender",
          "type": "address"
        }
      ],
      "name": "RoleGranted",
      "type": "event"
    },
    {
      "anonymous": false,
      "inputs": [
        {
          "indexed": true,
          "internalType": "bytes32",
          "name": "role",
          "type": "bytes32"
        },
        {
          "indexed": true,
          "internalType": "address",
          "name": "account",
          "type": "address"
        },
        {
          "indexed": true,
          "internalType": "address",
          "name": "sender",
          "type": "address"
        }
      ],
      "name": "RoleRevoked",
      "type": "event"
    },
    {
      "anonymous": false,
      "inputs": [
        {
          "indexed": false,
          "internalType": "address",
          "name": "account",
          "type": "address"
        }
      ],
      "name": "Unpaused",
      "type": "event"
    },
    {
      "stateMutability": "payable",
      "type": "fallback"
    },
    {
      "inputs": [],
      "name": "adminAddress",
      "outputs": [
        {
          "internalType": "address",
          "name": "",
          "type": "address"
        }
      ],
      "stateMutability": "view",
      "type": "function"
    },
    {
      "inputs": [],
      "name": "paused",
      "outputs": [
        {
          "internalType": "bool",
          "name": "",
          "type": "bool"
        }
      ],
      "stateMutability": "view",
      "type": "function"
    },
    {
      "stateMutability": "payable",
      "type": "receive"
    },
    {
      "inputs": [
        {
          "internalType": "bytes32",
          "name": "role",
          "type": "bytes32"
        },
        {
          "internalType": "address",
          "name": "account",
          "type": "address"
        }
      ],
      "name": "hasRole",
      "outputs": [
        {
          "internalType": "bool",
          "name": "",
          "type": "bool"
        }
      ],
      "stateMutability": "view",
      "type": "function"
    },
    {
      "inputs": [
        {
          "internalType": "bytes32",
          "name": "role",
          "type": "bytes32"
        },
        {
          "internalType": "address",
          "name": "account",
          "type": "address"
        }
      ],
      "name": "addRole",
      "outputs": [],
      "stateMutability": "nonpayable",
      "type": "function"
    },
    {
      "inputs": [
        {
          "internalType": "bytes32",
          "name": "role",
          "type": "bytes32"
        },
        {
          "internalType": "address",
          "name": "account",
          "type": "address"
        }
      ],
      "name": "removeRole",
      "outputs": [],
      "stateMutability": "nonpayable",
      "type": "function"
    },
    {
      "inputs": [
        {
          "internalType": "bytes32",
          "name": "role",
          "type": "bytes32"
        },
        {
          "internalType": "address",
          "name": "account",
          "type": "address"
        }
      ],
      "name": "renounceRole",
      "outputs": [],
      "stateMutability": "nonpayable",
      "type": "function"
    },
    {
      "inputs": [
        {
          "internalType": "bytes32",
          "name": "role",
          "type": "bytes32"
        },
        {
          "internalType": "address",
          "name": "oldAccount",
          "type": "address"
        },
        {
          "internalType": "address",
          "name": "newAccount",
          "type": "address"
        }
      ],
      "name": "transferRole",
      "outputs": [],
      "stateMutability": "nonpayable",
      "type": "function"
    },
    {
      "inputs": [
        {
          "internalType": "bytes32",
          "name": "role",
          "type": "bytes32"
        },
        {
          "internalType": "address",
          "name": "account",
          "type": "address"
        }
      ],
      "name": "hasAdminRole",
      "outputs": [
        {
          "internalType": "bool",
          "name": "",
          "type": "bool"
        }
      ],
      "stateMutability": "view",
      "type": "function"
    },
    {
      "inputs": [
        {
          "internalType": "bytes32",
          "name": "role",
          "type": "bytes32"
        },
        {
          "internalType": "address",
          "name": "account",
          "type": "address"
        }
      ],
      "name": "addAdminRole",
      "outputs": [],
      "stateMutability": "nonpayable",
      "type": "function"
    },
    {
      "inputs": [
        {
          "internalType": "bytes32",
          "name": "role",
          "type": "bytes32"
        },
        {
          "internalType": "address",
          "name": "account",
          "type": "address"
        }
      ],
      "name": "removeAdminRole",
      "outputs": [],
      "stateMutability": "nonpayable",
      "type": "function"
    },
    {
      "inputs": [
        {
          "internalType": "bytes32",
          "name": "role",
          "type": "bytes32"
        },
        {
          "internalType": "address",
          "name": "oldAccount",
          "type": "address"
        },
        {
          "internalType": "address",
          "name": "newAccount",
          "type": "address"
        }
      ],
      "name": "adminRoleTransfer",
      "outputs": [],
      "stateMutability": "nonpayable",
      "type": "function"
    },
    {
      "inputs": [
        {
          "internalType": "bytes32",
          "name": "role",
          "type": "bytes32"
        },
        {
          "internalType": "address",
          "name": "account",
          "type": "address"
        }
      ],
      "name": "adminRoleRenounce",
      "outputs": [],
      "stateMutability": "nonpayable",
      "type": "function"
    }
  ],
  "bytecode": "0x60806040523480156200001157600080fd5b50604051620014763803806200147683398181016040528101906200003791906200021b565b60008060006101000a81548160ff02191690831515021790555080600060016101000a81548173ffffffffffffffffffffffffffffffffffffffff021916908373ffffffffffffffffffffffffffffffffffffffff160217905550620000c8600154600060019054906101000a900473ffffffffffffffffffffffffffffffffffffffff16620000cf60201b60201c565b506200024d565b60016003600084815260200190815260200160002060000160008373ffffffffffffffffffffffffffffffffffffffff1673ffffffffffffffffffffffffffffffffffffffff16815260200190815260200160002060006101000a81548160ff0219169083151502179055506200014b620001a960201b60201c565b73ffffffffffffffffffffffffffffffffffffffff168173ffffffffffffffffffffffffffffffffffffffff16837f3dd66c162a5be70a1968ee8a27be69293c11303ba183c880508c86de57fff29e60405160405180910390a45050565b600033905090565b600080fd5b600073ffffffffffffffffffffffffffffffffffffffff82169050919050565b6000620001e382620001b6565b9050919050565b620001f581620001d6565b81146200020157600080fd5b50565b6000815190506200021581620001ea565b92915050565b600060208284031215620002345762000233620001b1565b5b6000620002448482850162000204565b91505092915050565b611219806200025d6000396000f3fe6080604052600436106100ab5760003560e01c80635cb87d26116100645780635cb87d26146102a05780636d8e2913146102c957806391d14854146102f2578063e959b38a1461032f578063f6ba000714610358578063fc6f94681461038157610122565b806328683e0e1461019457806333a08e18146101bd57806336568abe146101e65780633d58a2d81461020f578063428c56db146102385780635c975abb1461027557610122565b3661012257600060019054906101000a900473ffffffffffffffffffffffffffffffffffffffff1673ffffffffffffffffffffffffffffffffffffffff166108fc6100f46103ac565b9081150290604051600060405180830381858888f1935050505015801561011f573d6000803e3d6000fd5b50005b600060019054906101000a900473ffffffffffffffffffffffffffffffffffffffff1673ffffffffffffffffffffffffffffffffffffffff166108fc6101666103ac565b9081150290604051600060405180830381858888f19350505050158015610191573d6000803e3d6000fd5b50005b3480156101a057600080fd5b506101bb60048036038101906101b69190610f75565b6103b4565b005b3480156101c957600080fd5b506101e460048036038101906101df9190610f75565b61047c565b005b3480156101f257600080fd5b5061020d60048036038101906102089190610f75565b6105b9565b005b34801561021b57600080fd5b5061023660048036038101906102319190610f75565b610685565b005b34801561024457600080fd5b5061025f600480360381019061025a9190610f75565b61074e565b60405161026c9190610fd0565b60405180910390f35b34801561028157600080fd5b5061028a610762565b6040516102979190610fd0565b60405180910390f35b3480156102ac57600080fd5b506102c760048036038101906102c29190610feb565b610778565b005b3480156102d557600080fd5b506102f060048036038101906102eb9190610feb565b610818565b005b3480156102fe57600080fd5b5061031960048036038101906103149190610f75565b6108eb565b6040516103269190610fd0565b60405180910390f35b34801561033b57600080fd5b5061035660048036038101906103519190610f75565b6108ff565b005b34801561036457600080fd5b5061037f600480360381019061037a9190610f75565b6109c8565b005b34801561038d57600080fd5b50610396610a90565b6040516103a3919061104d565b60405180910390f35b600034905090565b600154600060019054906101000a900473ffffffffffffffffffffffffffffffffffffffff166103e48282610ab6565b610423576040517f08c379a000000000000000000000000000000000000000000000000000000000815260040161041a906110c5565b60405180910390fd5b61042d8484610ab6565b61046c576040517f08c379a0000000000000000000000000000000000000000000000000000000008152600401610463906110c5565b60405180910390fd5b6104768484610b21565b50505050565b600154600060019054906101000a900473ffffffffffffffffffffffffffffffffffffffff166104ac8282610ab6565b6104eb576040517f08c379a00000000000000000000000000000000000000000000000000000000081526004016104e2906110c5565b60405180910390fd5b6104f58484610ab6565b610534576040517f08c379a000000000000000000000000000000000000000000000000000000000815260040161052b906110c5565b60405180910390fd5b8273ffffffffffffffffffffffffffffffffffffffff16610553610bf3565b73ffffffffffffffffffffffffffffffffffffffff16146105a9576040517f08c379a00000000000000000000000000000000000000000000000000000000081526004016105a090611131565b60405180910390fd5b6105b38484610b21565b50505050565b6105c38282610bfb565b610602576040517f08c379a00000000000000000000000000000000000000000000000000000000081526004016105f9906110c5565b60405180910390fd5b8073ffffffffffffffffffffffffffffffffffffffff16610621610bf3565b73ffffffffffffffffffffffffffffffffffffffff1614610677576040517f08c379a000000000000000000000000000000000000000000000000000000000815260040161066e90611131565b60405180910390fd5b6106818282610c66565b5050565b600154600060019054906101000a900473ffffffffffffffffffffffffffffffffffffffff166106b58282610ab6565b6106f4576040517f08c379a00000000000000000000000000000000000000000000000000000000081526004016106eb906110c5565b60405180910390fd5b6106fe8484610ab6565b1561073e576040517f08c379a0000000000000000000000000000000000000000000000000000000008152600401610735906111c3565b60405180910390fd5b6107488484610d38565b50505050565b600061075a8383610ab6565b905092915050565b60008060009054906101000a900460ff16905090565b6107828383610bfb565b80156107c057508173ffffffffffffffffffffffffffffffffffffffff166107a8610bf3565b73ffffffffffffffffffffffffffffffffffffffff16145b6107ff576040517f08c379a00000000000000000000000000000000000000000000000000000000081526004016107f6906110c5565b60405180910390fd5b6108098383610c66565b6108138382610e0a565b505050565b600154600060019054906101000a900473ffffffffffffffffffffffffffffffffffffffff166108488282610ab6565b610887576040517f08c379a000000000000000000000000000000000000000000000000000000000815260040161087e906110c5565b60405180910390fd5b6108918585610ab6565b6108d0576040517f08c379a00000000000000000000000000000000000000000000000000000000081526004016108c7906111c3565b60405180910390fd5b6108da8585610b21565b6108e48584610d38565b5050505050565b60006108f78383610bfb565b905092915050565b600154600060019054906101000a900473ffffffffffffffffffffffffffffffffffffffff1661092f8282610ab6565b61096e576040517f08c379a0000000000000000000000000000000000000000000000000000000008152600401610965906110c5565b60405180910390fd5b6109788484610bfb565b156109b8576040517f08c379a00000000000000000000000000000000000000000000000000000000081526004016109af906111c3565b60405180910390fd5b6109c28484610e0a565b50505050565b600154600060019054906101000a900473ffffffffffffffffffffffffffffffffffffffff166109f88282610ab6565b610a37576040517f08c379a0000000000000000000000000000000000000000000000000000000008152600401610a2e906110c5565b60405180910390fd5b610a418484610bfb565b610a80576040517f08c379a0000000000000000000000000000000000000000000000000000000008152600401610a77906110c5565b60405180910390fd5b610a8a8484610c66565b50505050565b600060019054906101000a900473ffffffffffffffffffffffffffffffffffffffff1681565b60006003600084815260200190815260200160002060000160008373ffffffffffffffffffffffffffffffffffffffff1673ffffffffffffffffffffffffffffffffffffffff16815260200190815260200160002060009054906101000a900460ff16905092915050565b60006003600084815260200190815260200160002060000160008373ffffffffffffffffffffffffffffffffffffffff1673ffffffffffffffffffffffffffffffffffffffff16815260200190815260200160002060006101000a81548160ff021916908315150217905550610b95610bf3565b73ffffffffffffffffffffffffffffffffffffffff168173ffffffffffffffffffffffffffffffffffffffff16837fc5cd85bf3ef21f61079faa86ab58dd0f8555e71c289e5fd60d15360381c1c77b60405160405180910390a45050565b600033905090565b60006002600084815260200190815260200160002060000160008373ffffffffffffffffffffffffffffffffffffffff1673ffffffffffffffffffffffffffffffffffffffff16815260200190815260200160002060009054906101000a900460ff16905092915050565b60006002600084815260200190815260200160002060000160008373ffffffffffffffffffffffffffffffffffffffff1673ffffffffffffffffffffffffffffffffffffffff16815260200190815260200160002060006101000a81548160ff021916908315150217905550610cda610bf3565b73ffffffffffffffffffffffffffffffffffffffff168173ffffffffffffffffffffffffffffffffffffffff16837ff6391f5c32d9c69d2a47ea670b442974b53935d1edc7fd64eb21e047a839171b60405160405180910390a45050565b60016003600084815260200190815260200160002060000160008373ffffffffffffffffffffffffffffffffffffffff1673ffffffffffffffffffffffffffffffffffffffff16815260200190815260200160002060006101000a81548160ff021916908315150217905550610dac610bf3565b73ffffffffffffffffffffffffffffffffffffffff168173ffffffffffffffffffffffffffffffffffffffff16837f3dd66c162a5be70a1968ee8a27be69293c11303ba183c880508c86de57fff29e60405160405180910390a45050565b60016002600084815260200190815260200160002060000160008373ffffffffffffffffffffffffffffffffffffffff1673ffffffffffffffffffffffffffffffffffffffff16815260200190815260200160002060006101000a81548160ff021916908315150217905550610e7e610bf3565b73ffffffffffffffffffffffffffffffffffffffff168173ffffffffffffffffffffffffffffffffffffffff16837f2f8788117e7eff1d82e926ec794901d17c78024a50270940304540a733656f0d60405160405180910390a45050565b600080fd5b6000819050919050565b610ef481610ee1565b8114610eff57600080fd5b50565b600081359050610f1181610eeb565b92915050565b600073ffffffffffffffffffffffffffffffffffffffff82169050919050565b6000610f4282610f17565b9050919050565b610f5281610f37565b8114610f5d57600080fd5b50565b600081359050610f6f81610f49565b92915050565b60008060408385031215610f8c57610f8b610edc565b5b6000610f9a85828601610f02565b9250506020610fab85828601610f60565b9150509250929050565b60008115159050919050565b610fca81610fb5565b82525050565b6000602082019050610fe56000830184610fc1565b92915050565b60008060006060848603121561100457611003610edc565b5b600061101286828701610f02565b935050602061102386828701610f60565b925050604061103486828701610f60565b9150509250925092565b61104781610f37565b82525050565b6000602082019050611062600083018461103e565b92915050565b600082825260208201905092915050565b7f526f6c6520646f6573206e6f742065786973742e000000000000000000000000600082015250565b60006110af601483611068565b91506110ba82611079565b602082019050919050565b600060208201905081810360008301526110de816110a2565b9050919050565b7f496e6164657175617465207065726d697373696f6e7300000000000000000000600082015250565b600061111b601683611068565b9150611126826110e5565b602082019050919050565b6000602082019050818103600083015261114a8161110e565b9050919050565b7f526f6c6520616c7265616479206578697374732e20506c65617365206372656160008201527f7465206120646966666572656e7420726f6c6500000000000000000000000000602082015250565b60006111ad603383611068565b91506111b882611151565b604082019050919050565b600060208201905081810360008301526111dc816111a0565b905091905056fea26469706673582212203323f7fbdf16230074c9ab2717b146e8aa3132073ee2d95fe1af02a292aabfa364736f6c63430008090033",
  "immutableReferences": {},
  "source": "// SPDX-License-Identifier: MIT\r\npragma solidity >=0.8.7 <0.9.0;\r\n\r\n//import \"./util/Context.sol\";\r\nimport \"./util/Address.sol\";\r\nimport \"./util/Pausable.sol\";\r\n\r\ncontract AccessRegistry is Pausable {\r\n    using Address for address;\r\n\r\n    address public adminAddress;\r\n    bytes32 internal adminAccess;\r\n\r\n    struct RoleData {\r\n        mapping(address => bool) _members;\r\n        bytes32 _role;\r\n    }\r\n\r\n    struct AdminRoleData {\r\n        mapping(address => bool) _adminMembers;\r\n        bytes32 _adminRole;\r\n    }\r\n\r\n    mapping(bytes32 => RoleData) internal _roles;\r\n    mapping(bytes32 => AdminRoleData) internal _adminRoles;\r\n\r\n    event AdminRoleDataGranted(\r\n        bytes32 indexed role,\r\n        address indexed account,\r\n        address indexed sender\r\n    );\r\n\r\n    event AdminRoleDataRevoked(\r\n        bytes32 indexed role,\r\n        address indexed account,\r\n        address indexed sender\r\n    );\r\n\r\n    event RoleGranted(\r\n        bytes32 indexed role,\r\n        address indexed account,\r\n        address indexed sender\r\n    );\r\n\r\n    event RoleRevoked(\r\n        bytes32 indexed role,\r\n        address indexed account,\r\n        address indexed sender\r\n    );\r\n\r\n    constructor(address account_) {\r\n        adminAddress = account_;\r\n        _addAdminRole(adminAccess, adminAddress);\r\n    }\r\n    receive() external payable {\r\n        payable(adminAddress).transfer(_msgValue());\r\n    }\r\n    fallback() external payable {\r\n        payable(adminAddress).transfer(_msgValue());\r\n    }\r\n\r\n    function hasRole(bytes32 role, address account)\r\n        external\r\n        view\r\n        returns (bool)\r\n    {\r\n        return _hasRole(role, account);\r\n    }\r\n\r\n    function addRole(bytes32 role, address account)\r\n        external\r\n        onlyAdmin(adminAccess, adminAddress)\r\n    {\r\n        require(\r\n            !_hasRole(role, account),\r\n            \"Role already exists. Please create a different role\"\r\n        );\r\n        _addRole(role, account);\r\n    }\r\n\r\n    function removeRole(bytes32 role, address account)\r\n        external\r\n        onlyAdmin(adminAccess, adminAddress)\r\n    {\r\n        require(_hasRole(role, account), \"Role does not exist.\");\r\n\r\n        _revokeRole(role, account);\r\n    }\r\n\r\n    function renounceRole(bytes32 role, address account) external {\r\n        require(_hasRole(role, account), \"Role does not exist.\");\r\n        require(_msgSender() == account, \"Inadequate permissions\");\r\n\r\n        _revokeRole(role, account);\r\n    }\r\n\r\n    function transferRole(\r\n        bytes32 role,\r\n        address oldAccount,\r\n        address newAccount\r\n    ) external {\r\n        require(\r\n            _hasRole(role, oldAccount) && _msgSender() == oldAccount,\r\n            \"Role does not exist.\"\r\n        );\r\n\r\n        _revokeRole(role, oldAccount);\r\n        _addRole(role, newAccount);\r\n    }\r\n\r\n    function hasAdminRole(bytes32 role, address account)\r\n        external\r\n        view\r\n        returns (bool)\r\n    {\r\n        return _hasAdminRole(role, account);\r\n    }\r\n\r\n    function addAdminRole(bytes32 role, address account)\r\n        external\r\n        onlyAdmin(adminAccess, adminAddress)\r\n    {\r\n        require(\r\n            !_hasAdminRole(role, account),\r\n            \"Role already exists. Please create a different role\"\r\n        );\r\n        _addAdminRole(role, account);\r\n    }\r\n\r\n    function removeAdminRole(bytes32 role, address account)\r\n        external\r\n        onlyAdmin(adminAccess, adminAddress)\r\n    {\r\n        require(_hasAdminRole(role, account), \"Role does not exist.\");\r\n\r\n        _revokeAdmin(role, account);\r\n    }\r\n\r\n    function adminRoleTransfer(\r\n        bytes32 role,\r\n        address oldAccount,\r\n        address newAccount\r\n    ) \r\n        external onlyAdmin(adminAccess, adminAddress) \r\n    {\r\n        require(\r\n            _hasAdminRole(role, oldAccount),\r\n            \"Role already exists. Please create a different role\"\r\n        );\r\n\r\n        _revokeAdmin(role, oldAccount);\r\n        _addAdminRole(role, newAccount);\r\n    }\r\n\r\n    function adminRoleRenounce(bytes32 role, address account)\r\n        external \r\n        onlyAdmin(adminAccess, adminAddress)\r\n    {\r\n        require(_hasAdminRole(role, account), \"Role does not exist.\");\r\n        require(_msgSender() == account, \"Inadequate permissions\");\r\n\r\n        _revokeAdmin(role, account);\r\n    }\r\n    \r\n    function _hasRole(bytes32 role, address account)\r\n        internal\r\n        view\r\n        returns (bool)\r\n    {\r\n        return _roles[role]._members[account];\r\n    }\r\n\r\n    function _addRole(bytes32 role, address account) internal {\r\n        _roles[role]._members[account] = true;\r\n        emit RoleGranted(role, account, _msgSender());\r\n    }\r\n    \r\n    function _revokeRole(bytes32 role, address account) internal {\r\n        _roles[role]._members[account] = false;\r\n        emit RoleRevoked(role, account, _msgSender());\r\n    }\r\n\r\n    function _hasAdminRole(bytes32 role, address account)\r\n        internal\r\n        view\r\n        returns (bool)\r\n    {\r\n        return _adminRoles[role]._adminMembers[account];\r\n    }\r\n\r\n    function _addAdminRole(bytes32 role, address account) internal {\r\n        _adminRoles[role]._adminMembers[account] = true;\r\n        emit AdminRoleDataGranted(role, account, _msgSender());\r\n    }\r\n\r\n    function _revokeAdmin(bytes32 role, address account) internal {\r\n        _adminRoles[role]._adminMembers[account] = false;\r\n        emit AdminRoleDataRevoked(role, account, _msgSender());\r\n    }\r\n\r\n    modifier onlyAdmin(bytes32 role, address account) {\r\n        require(_hasAdminRole(role, account), \"Role does not exist.\");\r\n        _;\r\n    }\r\n}",
  "sourcePath": "F:\\workspace\\Open-protocol\\contracts\\AccessRegistry.sol",
  "compiler": {
    "name": "solc",
    "version": "0.8.9+commit.e5eed63a.Emscripten.clang"
  },
  "schemaVersion": "3.4.3",
  "updatedAt": "2021-09-30T01:03:14.716Z",
  "devdoc": {
    "kind": "dev",
    "methods": {},
    "version": 1
  },
  "userdoc": {
    "kind": "user",
    "methods": {},
    "version": 1
  }
}