{
  "contractName": "AccessRegistry",
  "abi": [
    {
      "inputs": [
        {
          "internalType": "address",
          "name": "account_",
          "type": "address"
        },
        {
          "internalType": "address",
          "name": "tokenListAddr_",
          "type": "address"
        },
        {
          "internalType": "address",
          "name": "comptrollerAddr_",
          "type": "address"
        },
        {
          "internalType": "address",
          "name": "reserveAddr_",
          "type": "address"
        },
        {
          "internalType": "address",
          "name": "depositAddr_",
          "type": "address"
        },
        {
          "internalType": "address",
          "name": "oracleAddr_",
          "type": "address"
        },
        {
          "internalType": "address",
          "name": "loanAddr_",
          "type": "address"
        },
        {
          "internalType": "address",
          "name": "liquidatorAddr_",
          "type": "address"
        }
      ],
      "stateMutability": "nonpayable",
      "type": "constructor"
    },
    {
      "anonymous": false,
      "inputs": [
        {
          "indexed": true,
          "internalType": "bytes32",
          "name": "role",
          "type": "bytes32"
        },
        {
          "indexed": true,
          "internalType": "address",
          "name": "account",
          "type": "address"
        },
        {
          "indexed": true,
          "internalType": "address",
          "name": "sender",
          "type": "address"
        }
      ],
      "name": "AdminRoleDataGranted",
      "type": "event"
    },
    {
      "anonymous": false,
      "inputs": [
        {
          "indexed": true,
          "internalType": "bytes32",
          "name": "role",
          "type": "bytes32"
        },
        {
          "indexed": true,
          "internalType": "address",
          "name": "account",
          "type": "address"
        },
        {
          "indexed": true,
          "internalType": "address",
          "name": "sender",
          "type": "address"
        }
      ],
      "name": "AdminRoleDataRevoked",
      "type": "event"
    },
    {
      "anonymous": false,
      "inputs": [
        {
          "indexed": true,
          "internalType": "address",
          "name": "_pauser",
          "type": "address"
        },
        {
          "indexed": false,
          "internalType": "bool",
          "name": "isPaused",
          "type": "bool"
        }
      ],
      "name": "PauseState",
      "type": "event"
    },
    {
      "anonymous": false,
      "inputs": [
        {
          "indexed": true,
          "internalType": "bytes32",
          "name": "role",
          "type": "bytes32"
        },
        {
          "indexed": true,
          "internalType": "address",
          "name": "account",
          "type": "address"
        },
        {
          "indexed": true,
          "internalType": "address",
          "name": "sender",
          "type": "address"
        }
      ],
      "name": "RoleGranted",
      "type": "event"
    },
    {
      "anonymous": false,
      "inputs": [
        {
          "indexed": true,
          "internalType": "bytes32",
          "name": "role",
          "type": "bytes32"
        },
        {
          "indexed": true,
          "internalType": "address",
          "name": "account",
          "type": "address"
        },
        {
          "indexed": true,
          "internalType": "address",
          "name": "sender",
          "type": "address"
        }
      ],
      "name": "RoleRevoked",
      "type": "event"
    },
    {
      "stateMutability": "payable",
      "type": "fallback"
    },
    {
      "inputs": [],
      "name": "adminAddress",
      "outputs": [
        {
          "internalType": "address",
          "name": "",
          "type": "address"
        }
      ],
      "stateMutability": "view",
      "type": "function"
    },
    {
      "inputs": [],
      "name": "pauseState",
      "outputs": [
        {
          "internalType": "string",
          "name": "",
          "type": "string"
        }
      ],
      "stateMutability": "view",
      "type": "function"
    },
    {
      "inputs": [],
      "name": "paused",
      "outputs": [
        {
          "internalType": "bool",
          "name": "",
          "type": "bool"
        }
      ],
      "stateMutability": "view",
      "type": "function"
    },
    {
      "stateMutability": "payable",
      "type": "receive"
    },
    {
      "inputs": [
        {
          "internalType": "address",
          "name": "token_",
          "type": "address"
        },
        {
          "internalType": "address",
          "name": "recipient_",
          "type": "address"
        },
        {
          "internalType": "uint256",
          "name": "value_",
          "type": "uint256"
        }
      ],
      "name": "transferAnyBEP20",
      "outputs": [
        {
          "internalType": "bool",
          "name": "",
          "type": "bool"
        }
      ],
      "stateMutability": "nonpayable",
      "type": "function"
    },
    {
      "inputs": [
        {
          "internalType": "bytes32",
          "name": "role",
          "type": "bytes32"
        },
        {
          "internalType": "address",
          "name": "account",
          "type": "address"
        }
      ],
      "name": "hasRole",
      "outputs": [
        {
          "internalType": "bool",
          "name": "",
          "type": "bool"
        }
      ],
      "stateMutability": "view",
      "type": "function"
    },
    {
      "inputs": [
        {
          "internalType": "bytes32",
          "name": "role",
          "type": "bytes32"
        },
        {
          "internalType": "address",
          "name": "account",
          "type": "address"
        }
      ],
      "name": "addRole",
      "outputs": [],
      "stateMutability": "nonpayable",
      "type": "function"
    },
    {
      "inputs": [
        {
          "internalType": "bytes32",
          "name": "role",
          "type": "bytes32"
        },
        {
          "internalType": "address",
          "name": "account",
          "type": "address"
        }
      ],
      "name": "removeRole",
      "outputs": [],
      "stateMutability": "nonpayable",
      "type": "function"
    },
    {
      "inputs": [
        {
          "internalType": "bytes32",
          "name": "role",
          "type": "bytes32"
        },
        {
          "internalType": "address",
          "name": "account",
          "type": "address"
        }
      ],
      "name": "renounceRole",
      "outputs": [],
      "stateMutability": "nonpayable",
      "type": "function"
    },
    {
      "inputs": [
        {
          "internalType": "bytes32",
          "name": "role",
          "type": "bytes32"
        },
        {
          "internalType": "address",
          "name": "oldAccount",
          "type": "address"
        },
        {
          "internalType": "address",
          "name": "newAccount",
          "type": "address"
        }
      ],
      "name": "transferRole",
      "outputs": [],
      "stateMutability": "nonpayable",
      "type": "function"
    },
    {
      "inputs": [
        {
          "internalType": "bytes32",
          "name": "role",
          "type": "bytes32"
        },
        {
          "internalType": "address",
          "name": "account",
          "type": "address"
        }
      ],
      "name": "hasAdminRole",
      "outputs": [
        {
          "internalType": "bool",
          "name": "",
          "type": "bool"
        }
      ],
      "stateMutability": "view",
      "type": "function"
    },
    {
      "inputs": [
        {
          "internalType": "bytes32",
          "name": "role",
          "type": "bytes32"
        },
        {
          "internalType": "address",
          "name": "account",
          "type": "address"
        }
      ],
      "name": "addAdminRole",
      "outputs": [],
      "stateMutability": "nonpayable",
      "type": "function"
    },
    {
      "inputs": [
        {
          "internalType": "bytes32",
          "name": "role",
          "type": "bytes32"
        },
        {
          "internalType": "address",
          "name": "account",
          "type": "address"
        }
      ],
      "name": "removeAdminRole",
      "outputs": [],
      "stateMutability": "nonpayable",
      "type": "function"
    },
    {
      "inputs": [
        {
          "internalType": "bytes32",
          "name": "role",
          "type": "bytes32"
        },
        {
          "internalType": "address",
          "name": "oldAccount",
          "type": "address"
        },
        {
          "internalType": "address",
          "name": "newAccount",
          "type": "address"
        }
      ],
      "name": "adminRoleTransfer",
      "outputs": [],
      "stateMutability": "nonpayable",
      "type": "function"
    },
    {
      "inputs": [
        {
          "internalType": "bytes32",
          "name": "role",
          "type": "bytes32"
        },
        {
          "internalType": "address",
          "name": "account",
          "type": "address"
        }
      ],
      "name": "adminRoleRenounce",
      "outputs": [],
      "stateMutability": "nonpayable",
      "type": "function"
    },
    {
      "inputs": [],
      "name": "pause",
      "outputs": [],
      "stateMutability": "nonpayable",
      "type": "function"
    },
    {
      "inputs": [],
      "name": "unpause",
      "outputs": [],
      "stateMutability": "nonpayable",
      "type": "function"
    }
  ],
  "bytecode": "0x60806040526000805460ff191690553480156200001b57600080fd5b506040516200127c3803806200127c8339810160408190526200003e9162000275565b60008054610100600160b01b031916620100006001600160a01b038b8116820292909217928390557ff26039279e9ceafa7245985a069ae834f198b242ae1b83b43668032e8629910b60018190556200009d93909291900416620001df565b620000c97faedad2ed782900ee09e04404bf8181905c0a71ae653b7bd9b05cb519a1fc9c2588620001df565b620000f57fba5e6ccf75c7948511b1a4d3d4111d3628092383ca800656ebf1c77006a50d9987620001df565b620001217ff712c2fa585715e22c7fcc833629ce4482ad96496ecd08f3a14847183c4ef4ee86620001df565b6200014d7f48c73f681176fc7b3f9693986fd7b14581e8d540519e27400e88b8713932be0185620001df565b620001797f89cbf5af14e0328a3cd3a734f92c3832d729d431da79b7873a62cbeebd37beb684620001df565b620001a57f1e832f8b2d26432acaa55cdf58826c2f6ff7b1de0e8d6e3e63ddb7e08ef87dd883620001df565b620001d17fd4dcaf5d726e88ed1f3140fcade8fe80ad7c39e6281bef4334013e20ed3c722882620001df565b50505050505050506200031d565b60008281526003602090815260408083206001600160a01b03851684529091529020805460ff19166001179055620002143390565b6001600160a01b0316816001600160a01b0316837f3dd66c162a5be70a1968ee8a27be69293c11303ba183c880508c86de57fff29e60405160405180910390a45050565b80516001600160a01b03811681146200027057600080fd5b919050565b600080600080600080600080610100898b0312156200029357600080fd5b6200029e8962000258565b9750620002ae60208a0162000258565b9650620002be60408a0162000258565b9550620002ce60608a0162000258565b9450620002de60808a0162000258565b9350620002ee60a08a0162000258565b9250620002fe60c08a0162000258565b91506200030e60e08a0162000258565b90509295985092959890939650565b610f4f806200032d6000396000f3fe6080604052600436106100f75760003560e01c80635cb87d261161008a578063d711835111610059578063d7118351146102d7578063e959b38a146102f9578063f6ba000714610319578063fc6f9468146103395761013e565b80635cb87d26146102625780636d8e2913146102825780638456cb59146102a257806391d14854146102b75761013e565b80633d58a2d8116100c65780633d58a2d8146101f05780633f4ba83a14610210578063428c56db146102255780635c975abb146102455761013e565b8063164b26301461015957806328683e0e1461018e57806333a08e18146101b057806336568abe146101d05761013e565b3661013e576000546201000090046001600160a01b03166108fc345b6040518115909202916000818181858888f1935050505015801561013b573d6000803e3d6000fd5b50005b6000546201000090046001600160a01b03166108fc34610113565b34801561016557600080fd5b50610179610174366004610cf0565b610377565b60405190151581526020015b60405180910390f35b34801561019a57600080fd5b506101ae6101a9366004610d2c565b610450565b005b3480156101bc57600080fd5b506101ae6101cb366004610d2c565b6104c1565b3480156101dc57600080fd5b506101ae6101eb366004610d2c565b610573565b3480156101fc57600080fd5b506101ae61020b366004610d2c565b6105f8565b34801561021c57600080fd5b506101ae610664565b34801561023157600080fd5b50610179610240366004610d2c565b6106fc565b34801561025157600080fd5b50600054610100900460ff16610179565b34801561026e57600080fd5b506101ae61027d366004610d58565b61070f565b34801561028e57600080fd5b506101ae61029d366004610d58565b610762565b3480156102ae57600080fd5b506101ae6107de565b3480156102c357600080fd5b506101796102d2366004610d2c565b61086a565b3480156102e357600080fd5b506102ec610876565b6040516101859190610d94565b34801561030557600080fd5b506101ae610314366004610d2c565b6108de565b34801561032557600080fd5b506101ae610334366004610d2c565b61094a565b34801561034557600080fd5b5060005461035f906201000090046001600160a01b031681565b6040516001600160a01b039091168152602001610185565b6000600154600060029054906101000a90046001600160a01b031661039c82826109b5565b6103c15760405162461bcd60e51b81526004016103b890610de9565b60405180910390fd5b60405163a9059cbb60e01b81526001600160a01b0386811660048301526024820186905287169063a9059cbb90604401602060405180830381600087803b15801561040b57600080fd5b505af115801561041f573d6000803e3d6000fd5b505050506040513d601f19601f820116820180604052508101906104439190610e17565b5060019695505050505050565b6001546000546201000090046001600160a01b031661046f82826109b5565b61048b5760405162461bcd60e51b81526004016103b890610de9565b61049584846109b5565b6104b15760405162461bcd60e51b81526004016103b890610de9565b6104bb84846109e0565b50505050565b6001546000546201000090046001600160a01b03166104e082826109b5565b6104fc5760405162461bcd60e51b81526004016103b890610de9565b61050684846109b5565b6105225760405162461bcd60e51b81526004016103b890610de9565b336001600160a01b038416146104b15760405162461bcd60e51b8152602060048201526016602482015275496e6164657175617465207065726d697373696f6e7360501b60448201526064016103b8565b61057d8282610a38565b6105995760405162461bcd60e51b81526004016103b890610de9565b336001600160a01b038216146105ea5760405162461bcd60e51b8152602060048201526016602482015275496e6164657175617465207065726d697373696f6e7360501b60448201526064016103b8565b6105f48282610a63565b5050565b6001546000546201000090046001600160a01b031661061782826109b5565b6106335760405162461bcd60e51b81526004016103b890610de9565b61063d84846109b5565b1561065a5760405162461bcd60e51b81526004016103b890610e39565b6104bb8484610abb565b6000546201000090046001600160a01b031633146106945760405162461bcd60e51b81526004016103b890610e8c565b60005460ff16156106db5760405162461bcd60e51b815260206004820152601160248201527052652d656e7472616e7420616c6572742160781b60448201526064016103b8565b6000805460ff191660011790556106f0610b33565b6000805460ff19169055565b600061070883836109b5565b9392505050565b6107198383610a38565b801561072d5750336001600160a01b038316145b6107495760405162461bcd60e51b81526004016103b890610de9565b6107538383610a63565b61075d8382610bc1565b505050565b6001546000546201000090046001600160a01b031661078182826109b5565b61079d5760405162461bcd60e51b81526004016103b890610de9565b6107a785856109b5565b6107c35760405162461bcd60e51b81526004016103b890610e39565b6107cd85856109e0565b6107d78584610abb565b5050505050565b6000546201000090046001600160a01b0316331461080e5760405162461bcd60e51b81526004016103b890610e8c565b60005460ff16156108555760405162461bcd60e51b815260206004820152601160248201527052652d656e7472616e7420616c6572742160781b60448201526064016103b8565b6000805460ff191660011790556106f0610c39565b60006107088383610a38565b60005460609060ff610100909104161515600114156108ad576040518060600160405280603d8152602001610edd603d9139905090565b5060408051808201909152601681527510dbdb9d1c9858dd081a5cc81b9bdd081c185d5cd95960521b602082015290565b6001546000546201000090046001600160a01b03166108fd82826109b5565b6109195760405162461bcd60e51b81526004016103b890610de9565b6109238484610a38565b156109405760405162461bcd60e51b81526004016103b890610e39565b6104bb8484610bc1565b6001546000546201000090046001600160a01b031661096982826109b5565b6109855760405162461bcd60e51b81526004016103b890610de9565b61098f8484610a38565b6109ab5760405162461bcd60e51b81526004016103b890610de9565b6104bb8484610a63565b60009182526003602090815260408084206001600160a01b0393909316845291905290205460ff1690565b60008281526003602090815260408083206001600160a01b0385168085529252808320805460ff1916905551339285917fc5cd85bf3ef21f61079faa86ab58dd0f8555e71c289e5fd60d15360381c1c77b9190a45050565b60009182526002602090815260408084206001600160a01b0393909316845291905290205460ff1690565b60008281526002602090815260408083206001600160a01b0385168085529252808320805460ff1916905551339285917ff6391f5c32d9c69d2a47ea670b442974b53935d1edc7fd64eb21e047a839171b9190a45050565b60008281526003602090815260408083206001600160a01b03851684529091529020805460ff19166001179055610aef3390565b6001600160a01b0316816001600160a01b0316837f3dd66c162a5be70a1968ee8a27be69293c11303ba183c880508c86de57fff29e60405160405180910390a45050565b600054610100900460ff16610b7e5760405162461bcd60e51b81526020600482015260116024820152704e6f74207061757365642073746174757360781b60448201526064016103b8565b6000805461ff001916815560405190815233907fd90c20276b7955800df9b223f244944b25b581f437448b1978aa61d4036b428a906020015b60405180910390a2565b60008281526002602090815260408083206001600160a01b03851684529091529020805460ff19166001179055610bf53390565b6001600160a01b0316816001600160a01b0316837f2f8788117e7eff1d82e926ec794901d17c78024a50270940304540a733656f0d60405160405180910390a45050565b600054610100900460ff1615610c815760405162461bcd60e51b815260206004820152600d60248201526c5061757365642073746174757360981b60448201526064016103b8565b6000805461ff001916610100179055610c973390565b6001600160a01b03167fd90c20276b7955800df9b223f244944b25b581f437448b1978aa61d4036b428a6001604051610bb7911515815260200190565b80356001600160a01b0381168114610ceb57600080fd5b919050565b600080600060608486031215610d0557600080fd5b610d0e84610cd4565b9250610d1c60208501610cd4565b9150604084013590509250925092565b60008060408385031215610d3f57600080fd5b82359150610d4f60208401610cd4565b90509250929050565b600080600060608486031215610d6d57600080fd5b83359250610d7d60208501610cd4565b9150610d8b60408501610cd4565b90509250925092565b600060208083528351808285015260005b81811015610dc157858101830151858201604001528201610da5565b81811115610dd3576000604083870101525b50601f01601f1916929092016040019392505050565b6020808252601490820152732937b632903237b2b9903737ba1032bc34b9ba1760611b604082015260600190565b600060208284031215610e2957600080fd5b8151801515811461070857600080fd5b60208082526033908201527f526f6c6520616c7265616479206578697374732e20506c6561736520637265616040820152727465206120646966666572656e7420726f6c6560681b606082015260800190565b60208082526030908201527f4f6e6c792041636365737352656769737472792061646d696e2063616e20636160408201526f3636103a3434b990333ab731ba34b7b760811b60608201526080019056fe436f6e7472616374206973207061757365642e20546f6b656e207472616e7366657273206172652074656d706f726172696c792064697361626c65642ea2646970667358221220ed4cc603e1c94566524af77803ee518343d69aafb2bad160f635e3a4cbc0c39e64736f6c63430008090033",
  "immutableReferences": {},
  "source": "// SPDX-License-Identifier: MIT\r\npragma solidity >=0.8.9 <0.9.0;\r\n\r\nimport \"./util/Address.sol\";\r\nimport \"./util/Pausable.sol\";\r\n// import \"./mockup/IMockBep20.sol\";\r\nimport \"./util/IBEP20.sol\";\r\n\r\ncontract AccessRegistry is Pausable {\r\n    using Address for address;\r\n\r\n    address public adminAddress;\r\n    bytes32 internal adminAccess;\r\n\r\n    struct RoleData {\r\n        mapping(address => bool) _members;\r\n        bytes32 _role;\r\n    }\r\n\r\n    struct AdminRoleData {\r\n        mapping(address => bool) _adminMembers;\r\n        bytes32 _adminRole;\r\n    }\r\n\r\n    mapping(bytes32 => RoleData) internal _roles;\r\n    mapping(bytes32 => AdminRoleData) internal _adminRoles;\r\n\r\n    event AdminRoleDataGranted(\r\n        bytes32 indexed role,\r\n        address indexed account,\r\n        address indexed sender\r\n    );\r\n\r\n    event AdminRoleDataRevoked(\r\n        bytes32 indexed role,\r\n        address indexed account,\r\n        address indexed sender\r\n    );\r\n\r\n    event RoleGranted(\r\n        bytes32 indexed role,\r\n        address indexed account,\r\n        address indexed sender\r\n    );\r\n\r\n    event RoleRevoked(\r\n        bytes32 indexed role,\r\n        address indexed account,\r\n        address indexed sender\r\n    );\r\n\r\n    constructor(\r\n        address account_, \r\n        address tokenListAddr_,\r\n        address comptrollerAddr_,\r\n        address reserveAddr_,\r\n        address depositAddr_,\r\n        address oracleAddr_,\r\n        address loanAddr_,\r\n        address liquidatorAddr_\r\n    ) \r\n    {\r\n        adminAddress = account_;\r\n        adminAccess = keccak256(\"AccessRegistry.adminAccess\");\r\n        _addAdminRole(adminAccess, adminAddress);\r\n        _addAdminRole(keccak256(\"tokenList\"), tokenListAddr_);\r\n        _addAdminRole(keccak256(\"comptroller\"), comptrollerAddr_);\r\n        _addAdminRole(keccak256(\"reserve\"), reserveAddr_);\r\n        _addAdminRole(keccak256(\"deposit\"), depositAddr_);\r\n        _addAdminRole(keccak256(\"oracle\"), oracleAddr_);\r\n        _addAdminRole(keccak256(\"loan\"), loanAddr_);\r\n        _addAdminRole(keccak256(\"liquidator\"), liquidatorAddr_);\r\n    }\r\n    \r\n    receive() external payable {\r\n        payable(adminAddress).transfer(_msgValue());\r\n    }\r\n    \r\n    fallback() external payable {\r\n        payable(adminAddress).transfer(_msgValue());\r\n    }\r\n    \r\n    function transferAnyBEP20(address token_,address recipient_,uint256 value_) external onlyAdmin(adminAccess, adminAddress) returns(bool) {\r\n        IBEP20(token_).transfer(recipient_, value_);\r\n        return true;\r\n    }\r\n\r\n    function hasRole(bytes32 role, address account)\r\n        external\r\n        view\r\n        returns (bool)\r\n    {\r\n        return _hasRole(role, account);\r\n    }\r\n\r\n    function addRole(bytes32 role, address account)\r\n        external\r\n        onlyAdmin(adminAccess, adminAddress)\r\n    {\r\n        require(\r\n            !_hasRole(role, account),\r\n            \"Role already exists. Please create a different role\"\r\n        );\r\n        _addRole(role, account);\r\n    }\r\n\r\n    function removeRole(bytes32 role, address account)\r\n        external\r\n        onlyAdmin(adminAccess, adminAddress)\r\n    {\r\n        require(_hasRole(role, account), \"Role does not exist.\");\r\n\r\n        _revokeRole(role, account);\r\n    }\r\n\r\n    function renounceRole(bytes32 role, address account) external {\r\n        require(_hasRole(role, account), \"Role does not exist.\");\r\n        require(_msgSender() == account, \"Inadequate permissions\");\r\n\r\n        _revokeRole(role, account);\r\n    }\r\n\r\n    function transferRole(\r\n        bytes32 role,\r\n        address oldAccount,\r\n        address newAccount\r\n    ) external {\r\n        require(\r\n            _hasRole(role, oldAccount) && _msgSender() == oldAccount,\r\n            \"Role does not exist.\"\r\n        );\r\n\r\n        _revokeRole(role, oldAccount);\r\n        _addRole(role, newAccount);\r\n    }\r\n\r\n    function hasAdminRole(bytes32 role, address account)\r\n        external\r\n        view\r\n        returns (bool)\r\n    {\r\n        return _hasAdminRole(role, account);\r\n    }\r\n\r\n    function addAdminRole(bytes32 role, address account)\r\n        external\r\n        onlyAdmin(adminAccess, adminAddress)\r\n    {\r\n        require(\r\n            !_hasAdminRole(role, account),\r\n            \"Role already exists. Please create a different role\"\r\n        );\r\n        _addAdminRole(role, account);\r\n    }\r\n\r\n    function removeAdminRole(bytes32 role, address account)\r\n        external\r\n        onlyAdmin(adminAccess, adminAddress)\r\n    {\r\n        require(_hasAdminRole(role, account), \"Role does not exist.\");\r\n\r\n        _revokeAdmin(role, account);\r\n    }\r\n\r\n    function adminRoleTransfer(\r\n        bytes32 role,\r\n        address oldAccount,\r\n        address newAccount\r\n    ) \r\n        external onlyAdmin(adminAccess, adminAddress) \r\n    {\r\n        require(\r\n            _hasAdminRole(role, oldAccount),\r\n            \"Role already exists. Please create a different role\"\r\n        );\r\n\r\n        _revokeAdmin(role, oldAccount);\r\n        _addAdminRole(role, newAccount);\r\n    }\r\n\r\n    function adminRoleRenounce(bytes32 role, address account)\r\n        external \r\n        onlyAdmin(adminAccess, adminAddress)\r\n    {\r\n        require(_hasAdminRole(role, account), \"Role does not exist.\");\r\n        require(_msgSender() == account, \"Inadequate permissions\");\r\n\r\n        _revokeAdmin(role, account);\r\n    }\r\n    \r\n    function _hasRole(bytes32 role, address account)\r\n        internal\r\n        view\r\n        returns (bool)\r\n    {\r\n        return _roles[role]._members[account];\r\n    }\r\n\r\n    function _addRole(bytes32 role, address account) internal {\r\n        _roles[role]._members[account] = true;\r\n        emit RoleGranted(role, account, _msgSender());\r\n    }\r\n    \r\n    function _revokeRole(bytes32 role, address account) internal {\r\n        _roles[role]._members[account] = false;\r\n        emit RoleRevoked(role, account, _msgSender());\r\n    }\r\n\r\n    function _hasAdminRole(bytes32 role, address account)\r\n        internal\r\n        view\r\n        returns (bool)\r\n    {\r\n        return _adminRoles[role]._adminMembers[account];\r\n    }\r\n\r\n    function _addAdminRole(bytes32 role, address account) internal {\r\n        _adminRoles[role]._adminMembers[account] = true;\r\n        emit AdminRoleDataGranted(role, account, _msgSender());\r\n    }\r\n\r\n    function _revokeAdmin(bytes32 role, address account) internal {\r\n        _adminRoles[role]._adminMembers[account] = false;\r\n        emit AdminRoleDataRevoked(role, account, _msgSender());\r\n    }\r\n\r\n    modifier onlyAdmin(bytes32 role, address account) {\r\n        require(_hasAdminRole(role, account), \"Role does not exist.\");\r\n        _;\r\n    }\r\n\r\n    function pause() external authAccessRegistry() nonReentrant() {\r\n       _pause();\r\n\t}\r\n\t\r\n\tfunction unpause() external authAccessRegistry() nonReentrant() {\r\n       _unpause();   \r\n\t}\r\n\r\n\tmodifier authAccessRegistry() {\r\n\t\trequire(\r\n\t\t\tmsg.sender == adminAddress,\r\n\t\t\t\"Only AccessRegistry admin can call this function\"\r\n\t\t);\r\n\t\t_;\r\n\t}\r\n}",
  "sourcePath": "F:\\workspace\\Open-protocol\\contracts\\AccessRegistry.sol",
  "compiler": {
    "name": "solc",
    "version": "0.8.9+commit.e5eed63a.Emscripten.clang"
  },
  "schemaVersion": "3.4.3",
  "updatedAt": "2021-10-23T13:11:27.035Z",
  "devdoc": {
    "kind": "dev",
    "methods": {},
    "version": 1
  },
  "userdoc": {
    "kind": "user",
    "methods": {},
    "version": 1
  }
}