{
  "contractName": "Comptroller",
  "abi": [
    {
      "inputs": [
        {
          "internalType": "address",
          "name": "superAdminAddr_",
          "type": "address"
        }
      ],
      "stateMutability": "nonpayable",
      "type": "constructor"
    },
    {
      "anonymous": false,
      "inputs": [
        {
          "indexed": true,
          "internalType": "address",
          "name": "admin",
          "type": "address"
        },
        {
          "indexed": true,
          "internalType": "uint256",
          "name": "newAPR",
          "type": "uint256"
        },
        {
          "indexed": false,
          "internalType": "uint256",
          "name": "oldAPR",
          "type": "uint256"
        },
        {
          "indexed": true,
          "internalType": "uint256",
          "name": "timestamp",
          "type": "uint256"
        }
      ],
      "name": "APRupdated",
      "type": "event"
    },
    {
      "anonymous": false,
      "inputs": [
        {
          "indexed": true,
          "internalType": "address",
          "name": "admin",
          "type": "address"
        },
        {
          "indexed": true,
          "internalType": "uint256",
          "name": "newAPY",
          "type": "uint256"
        },
        {
          "indexed": false,
          "internalType": "uint256",
          "name": "oldAPY",
          "type": "uint256"
        },
        {
          "indexed": true,
          "internalType": "uint256",
          "name": "timestamp",
          "type": "uint256"
        }
      ],
      "name": "APYupdated",
      "type": "event"
    },
    {
      "anonymous": false,
      "inputs": [
        {
          "indexed": true,
          "internalType": "address",
          "name": "admin",
          "type": "address"
        },
        {
          "indexed": false,
          "internalType": "uint256",
          "name": "oldFees",
          "type": "uint256"
        },
        {
          "indexed": true,
          "internalType": "uint256",
          "name": "newFees",
          "type": "uint256"
        },
        {
          "indexed": true,
          "internalType": "uint256",
          "name": "timestamp",
          "type": "uint256"
        }
      ],
      "name": "CollateralReleaseFeesUpdated",
      "type": "event"
    },
    {
      "anonymous": false,
      "inputs": [
        {
          "indexed": true,
          "internalType": "address",
          "name": "admin",
          "type": "address"
        },
        {
          "indexed": false,
          "internalType": "uint256",
          "name": "oldFees",
          "type": "uint256"
        },
        {
          "indexed": true,
          "internalType": "uint256",
          "name": "newFees",
          "type": "uint256"
        },
        {
          "indexed": true,
          "internalType": "uint256",
          "name": "timestamp",
          "type": "uint256"
        }
      ],
      "name": "DepositPreClosureFeesUpdated",
      "type": "event"
    },
    {
      "anonymous": false,
      "inputs": [
        {
          "indexed": true,
          "internalType": "address",
          "name": "admin",
          "type": "address"
        },
        {
          "indexed": false,
          "internalType": "uint256",
          "name": "oldFees",
          "type": "uint256"
        },
        {
          "indexed": true,
          "internalType": "uint256",
          "name": "newFees",
          "type": "uint256"
        },
        {
          "indexed": true,
          "internalType": "uint256",
          "name": "timestamp",
          "type": "uint256"
        }
      ],
      "name": "DepositWithdrawalFeesUpdated",
      "type": "event"
    },
    {
      "anonymous": false,
      "inputs": [
        {
          "indexed": true,
          "internalType": "address",
          "name": "admin",
          "type": "address"
        },
        {
          "indexed": false,
          "internalType": "uint256",
          "name": "oldFees",
          "type": "uint256"
        },
        {
          "indexed": true,
          "internalType": "uint256",
          "name": "newFees",
          "type": "uint256"
        },
        {
          "indexed": true,
          "internalType": "uint256",
          "name": "timestamp",
          "type": "uint256"
        }
      ],
      "name": "LoanClosureFeesUpdated",
      "type": "event"
    },
    {
      "anonymous": false,
      "inputs": [
        {
          "indexed": true,
          "internalType": "address",
          "name": "admin",
          "type": "address"
        },
        {
          "indexed": false,
          "internalType": "uint256",
          "name": "oldFees",
          "type": "uint256"
        },
        {
          "indexed": true,
          "internalType": "uint256",
          "name": "newFees",
          "type": "uint256"
        },
        {
          "indexed": true,
          "internalType": "uint256",
          "name": "timestamp",
          "type": "uint256"
        }
      ],
      "name": "LoanIssuanceFeesUpdated",
      "type": "event"
    },
    {
      "anonymous": false,
      "inputs": [
        {
          "indexed": true,
          "internalType": "address",
          "name": "admin",
          "type": "address"
        },
        {
          "indexed": false,
          "internalType": "uint256",
          "name": "oldFees",
          "type": "uint256"
        },
        {
          "indexed": true,
          "internalType": "uint256",
          "name": "newFees",
          "type": "uint256"
        },
        {
          "indexed": true,
          "internalType": "uint256",
          "name": "timestamp",
          "type": "uint256"
        }
      ],
      "name": "LoanPreClosureFeesUpdated",
      "type": "event"
    },
    {
      "anonymous": false,
      "inputs": [
        {
          "indexed": true,
          "internalType": "address",
          "name": "admin",
          "type": "address"
        },
        {
          "indexed": false,
          "internalType": "uint256",
          "name": "oldFees",
          "type": "uint256"
        },
        {
          "indexed": true,
          "internalType": "uint256",
          "name": "newFees",
          "type": "uint256"
        },
        {
          "indexed": true,
          "internalType": "uint256",
          "name": "timestamp",
          "type": "uint256"
        }
      ],
      "name": "MarketSwapFeesUpdated",
      "type": "event"
    },
    {
      "anonymous": false,
      "inputs": [
        {
          "indexed": true,
          "internalType": "address",
          "name": "admin",
          "type": "address"
        },
        {
          "indexed": true,
          "internalType": "uint256",
          "name": "newFactor",
          "type": "uint256"
        },
        {
          "indexed": true,
          "internalType": "uint256",
          "name": "newBlockLimit",
          "type": "uint256"
        },
        {
          "indexed": false,
          "internalType": "uint256",
          "name": "oldFactor",
          "type": "uint256"
        },
        {
          "indexed": false,
          "internalType": "uint256",
          "name": "oldBlockLimit",
          "type": "uint256"
        },
        {
          "indexed": false,
          "internalType": "uint256",
          "name": "timestamp",
          "type": "uint256"
        }
      ],
      "name": "MaxWithdrawalUpdated",
      "type": "event"
    },
    {
      "anonymous": false,
      "inputs": [
        {
          "indexed": true,
          "internalType": "address",
          "name": "_pauser",
          "type": "address"
        },
        {
          "indexed": false,
          "internalType": "bool",
          "name": "isPaused",
          "type": "bool"
        }
      ],
      "name": "PauseState",
      "type": "event"
    },
    {
      "anonymous": false,
      "inputs": [
        {
          "indexed": true,
          "internalType": "address",
          "name": "admin",
          "type": "address"
        },
        {
          "indexed": false,
          "internalType": "uint256",
          "name": "oldReserveFactor",
          "type": "uint256"
        },
        {
          "indexed": true,
          "internalType": "uint256",
          "name": "newReserveFactor",
          "type": "uint256"
        },
        {
          "indexed": true,
          "internalType": "uint256",
          "name": "timestamp",
          "type": "uint256"
        }
      ],
      "name": "ReserveFactorUpdated",
      "type": "event"
    },
    {
      "anonymous": false,
      "inputs": [
        {
          "indexed": true,
          "internalType": "address",
          "name": "admin",
          "type": "address"
        },
        {
          "indexed": false,
          "internalType": "uint256",
          "name": "oldFees",
          "type": "uint256"
        },
        {
          "indexed": true,
          "internalType": "uint256",
          "name": "newFees",
          "type": "uint256"
        },
        {
          "indexed": true,
          "internalType": "uint256",
          "name": "timestamp",
          "type": "uint256"
        }
      ],
      "name": "YieldConversionFeesUpdated",
      "type": "event"
    },
    {
      "stateMutability": "payable",
      "type": "fallback"
    },
    {
      "inputs": [],
      "name": "collateralReleaseFees",
      "outputs": [
        {
          "internalType": "uint256",
          "name": "",
          "type": "uint256"
        }
      ],
      "stateMutability": "view",
      "type": "function"
    },
    {
      "inputs": [],
      "name": "depositPreClosureFees",
      "outputs": [
        {
          "internalType": "uint256",
          "name": "",
          "type": "uint256"
        }
      ],
      "stateMutability": "view",
      "type": "function"
    },
    {
      "inputs": [],
      "name": "depositWithdrawalFees",
      "outputs": [
        {
          "internalType": "uint256",
          "name": "",
          "type": "uint256"
        }
      ],
      "stateMutability": "view",
      "type": "function"
    },
    {
      "inputs": [],
      "name": "loanClosureFees",
      "outputs": [
        {
          "internalType": "uint256",
          "name": "",
          "type": "uint256"
        }
      ],
      "stateMutability": "view",
      "type": "function"
    },
    {
      "inputs": [],
      "name": "loanIssuanceFees",
      "outputs": [
        {
          "internalType": "uint256",
          "name": "",
          "type": "uint256"
        }
      ],
      "stateMutability": "view",
      "type": "function"
    },
    {
      "inputs": [],
      "name": "loanPreClosureFees",
      "outputs": [
        {
          "internalType": "uint256",
          "name": "",
          "type": "uint256"
        }
      ],
      "stateMutability": "view",
      "type": "function"
    },
    {
      "inputs": [],
      "name": "marketSwapFees",
      "outputs": [
        {
          "internalType": "uint256",
          "name": "",
          "type": "uint256"
        }
      ],
      "stateMutability": "view",
      "type": "function"
    },
    {
      "inputs": [],
      "name": "maxWithdrawalBlockLimit",
      "outputs": [
        {
          "internalType": "uint256",
          "name": "",
          "type": "uint256"
        }
      ],
      "stateMutability": "view",
      "type": "function"
    },
    {
      "inputs": [],
      "name": "maxWithdrawalFactor",
      "outputs": [
        {
          "internalType": "uint256",
          "name": "",
          "type": "uint256"
        }
      ],
      "stateMutability": "view",
      "type": "function"
    },
    {
      "inputs": [],
      "name": "pauseState",
      "outputs": [
        {
          "internalType": "string",
          "name": "",
          "type": "string"
        }
      ],
      "stateMutability": "view",
      "type": "function"
    },
    {
      "inputs": [],
      "name": "paused",
      "outputs": [
        {
          "internalType": "bool",
          "name": "",
          "type": "bool"
        }
      ],
      "stateMutability": "view",
      "type": "function"
    },
    {
      "inputs": [],
      "name": "reserveFactor",
      "outputs": [
        {
          "internalType": "uint256",
          "name": "",
          "type": "uint256"
        }
      ],
      "stateMutability": "view",
      "type": "function"
    },
    {
      "inputs": [],
      "name": "yieldConversionFees",
      "outputs": [
        {
          "internalType": "uint256",
          "name": "",
          "type": "uint256"
        }
      ],
      "stateMutability": "view",
      "type": "function"
    },
    {
      "stateMutability": "payable",
      "type": "receive"
    },
    {
      "inputs": [
        {
          "internalType": "address",
          "name": "token_",
          "type": "address"
        },
        {
          "internalType": "address",
          "name": "recipient_",
          "type": "address"
        },
        {
          "internalType": "uint256",
          "name": "value_",
          "type": "uint256"
        }
      ],
      "name": "transferAnyBEP20",
      "outputs": [
        {
          "internalType": "bool",
          "name": "",
          "type": "bool"
        }
      ],
      "stateMutability": "nonpayable",
      "type": "function"
    },
    {
      "inputs": [
        {
          "internalType": "bytes32",
          "name": "_commitment",
          "type": "bytes32"
        }
      ],
      "name": "getAPR",
      "outputs": [
        {
          "internalType": "uint256",
          "name": "",
          "type": "uint256"
        }
      ],
      "stateMutability": "view",
      "type": "function"
    },
    {
      "inputs": [
        {
          "internalType": "bytes32",
          "name": "_commitment",
          "type": "bytes32"
        },
        {
          "internalType": "uint256",
          "name": "_index",
          "type": "uint256"
        }
      ],
      "name": "getAPRInd",
      "outputs": [
        {
          "internalType": "uint256",
          "name": "",
          "type": "uint256"
        }
      ],
      "stateMutability": "view",
      "type": "function"
    },
    {
      "inputs": [
        {
          "internalType": "bytes32",
          "name": "_commitment",
          "type": "bytes32"
        }
      ],
      "name": "getAPY",
      "outputs": [
        {
          "internalType": "uint256",
          "name": "",
          "type": "uint256"
        }
      ],
      "stateMutability": "view",
      "type": "function"
    },
    {
      "inputs": [
        {
          "internalType": "bytes32",
          "name": "_commitment",
          "type": "bytes32"
        },
        {
          "internalType": "uint256",
          "name": "_index",
          "type": "uint256"
        }
      ],
      "name": "getAPYInd",
      "outputs": [
        {
          "internalType": "uint256",
          "name": "",
          "type": "uint256"
        }
      ],
      "stateMutability": "view",
      "type": "function"
    },
    {
      "inputs": [
        {
          "internalType": "bytes32",
          "name": "_commitment",
          "type": "bytes32"
        },
        {
          "internalType": "uint256",
          "name": "_index",
          "type": "uint256"
        }
      ],
      "name": "getApytimeber",
      "outputs": [
        {
          "internalType": "uint256",
          "name": "",
          "type": "uint256"
        }
      ],
      "stateMutability": "view",
      "type": "function"
    },
    {
      "inputs": [
        {
          "internalType": "bytes32",
          "name": "_commitment",
          "type": "bytes32"
        },
        {
          "internalType": "uint256",
          "name": "_index",
          "type": "uint256"
        }
      ],
      "name": "getAprtimeber",
      "outputs": [
        {
          "internalType": "uint256",
          "name": "",
          "type": "uint256"
        }
      ],
      "stateMutability": "view",
      "type": "function"
    },
    {
      "inputs": [
        {
          "internalType": "bytes32",
          "name": "commitment_",
          "type": "bytes32"
        }
      ],
      "name": "getApyLastTime",
      "outputs": [
        {
          "internalType": "uint256",
          "name": "",
          "type": "uint256"
        }
      ],
      "stateMutability": "view",
      "type": "function"
    },
    {
      "inputs": [
        {
          "internalType": "bytes32",
          "name": "commitment_",
          "type": "bytes32"
        }
      ],
      "name": "getAprLastTime",
      "outputs": [
        {
          "internalType": "uint256",
          "name": "",
          "type": "uint256"
        }
      ],
      "stateMutability": "view",
      "type": "function"
    },
    {
      "inputs": [
        {
          "internalType": "bytes32",
          "name": "commitment_",
          "type": "bytes32"
        }
      ],
      "name": "getApyTimeLength",
      "outputs": [
        {
          "internalType": "uint256",
          "name": "",
          "type": "uint256"
        }
      ],
      "stateMutability": "view",
      "type": "function"
    },
    {
      "inputs": [
        {
          "internalType": "bytes32",
          "name": "commitment_",
          "type": "bytes32"
        }
      ],
      "name": "getAprTimeLength",
      "outputs": [
        {
          "internalType": "uint256",
          "name": "",
          "type": "uint256"
        }
      ],
      "stateMutability": "view",
      "type": "function"
    },
    {
      "inputs": [
        {
          "internalType": "uint256",
          "name": "index_",
          "type": "uint256"
        }
      ],
      "name": "getCommitment",
      "outputs": [
        {
          "internalType": "bytes32",
          "name": "",
          "type": "bytes32"
        }
      ],
      "stateMutability": "view",
      "type": "function"
    },
    {
      "inputs": [
        {
          "internalType": "bytes32",
          "name": "_commitment",
          "type": "bytes32"
        }
      ],
      "name": "setCommitment",
      "outputs": [],
      "stateMutability": "nonpayable",
      "type": "function"
    },
    {
      "inputs": [
        {
          "internalType": "uint256",
          "name": "loanID",
          "type": "uint256"
        }
      ],
      "name": "liquidationTrigger",
      "outputs": [],
      "stateMutability": "nonpayable",
      "type": "function"
    },
    {
      "inputs": [
        {
          "internalType": "bytes32",
          "name": "_commitment",
          "type": "bytes32"
        },
        {
          "internalType": "uint256",
          "name": "_apy",
          "type": "uint256"
        }
      ],
      "name": "updateAPY",
      "outputs": [
        {
          "internalType": "bool",
          "name": "",
          "type": "bool"
        }
      ],
      "stateMutability": "nonpayable",
      "type": "function"
    },
    {
      "inputs": [
        {
          "internalType": "bytes32",
          "name": "_commitment",
          "type": "bytes32"
        },
        {
          "internalType": "uint256",
          "name": "_apr",
          "type": "uint256"
        }
      ],
      "name": "updateAPR",
      "outputs": [
        {
          "internalType": "bool",
          "name": "",
          "type": "bool"
        }
      ],
      "stateMutability": "nonpayable",
      "type": "function"
    },
    {
      "inputs": [
        {
          "internalType": "bytes32",
          "name": "_commitment",
          "type": "bytes32"
        },
        {
          "internalType": "uint256",
          "name": "oldLengthAccruedInterest",
          "type": "uint256"
        },
        {
          "internalType": "uint256",
          "name": "oldTime",
          "type": "uint256"
        },
        {
          "internalType": "uint256",
          "name": "aggregateInterest",
          "type": "uint256"
        }
      ],
      "name": "calcAPR",
      "outputs": [],
      "stateMutability": "view",
      "type": "function"
    },
    {
      "inputs": [
        {
          "internalType": "bytes32",
          "name": "_commitment",
          "type": "bytes32"
        },
        {
          "internalType": "uint256",
          "name": "oldLengthAccruedYield",
          "type": "uint256"
        },
        {
          "internalType": "uint256",
          "name": "oldTime",
          "type": "uint256"
        },
        {
          "internalType": "uint256",
          "name": "aggregateYield",
          "type": "uint256"
        }
      ],
      "name": "calcAPY",
      "outputs": [],
      "stateMutability": "view",
      "type": "function"
    },
    {
      "inputs": [
        {
          "internalType": "uint256",
          "name": "fees",
          "type": "uint256"
        }
      ],
      "name": "updateLoanIssuanceFees",
      "outputs": [
        {
          "internalType": "bool",
          "name": "success",
          "type": "bool"
        }
      ],
      "stateMutability": "nonpayable",
      "type": "function"
    },
    {
      "inputs": [
        {
          "internalType": "uint256",
          "name": "fees",
          "type": "uint256"
        }
      ],
      "name": "updateLoanClosureFees",
      "outputs": [
        {
          "internalType": "bool",
          "name": "success",
          "type": "bool"
        }
      ],
      "stateMutability": "nonpayable",
      "type": "function"
    },
    {
      "inputs": [
        {
          "internalType": "uint256",
          "name": "fees",
          "type": "uint256"
        }
      ],
      "name": "updateLoanPreClosureFees",
      "outputs": [
        {
          "internalType": "bool",
          "name": "success",
          "type": "bool"
        }
      ],
      "stateMutability": "nonpayable",
      "type": "function"
    },
    {
      "inputs": [
        {
          "internalType": "uint256",
          "name": "fees",
          "type": "uint256"
        }
      ],
      "name": "updateDepositPreclosureFees",
      "outputs": [
        {
          "internalType": "bool",
          "name": "success",
          "type": "bool"
        }
      ],
      "stateMutability": "nonpayable",
      "type": "function"
    },
    {
      "inputs": [
        {
          "internalType": "uint256",
          "name": "fees",
          "type": "uint256"
        }
      ],
      "name": "updateWithdrawalFees",
      "outputs": [
        {
          "internalType": "bool",
          "name": "success",
          "type": "bool"
        }
      ],
      "stateMutability": "nonpayable",
      "type": "function"
    },
    {
      "inputs": [
        {
          "internalType": "uint256",
          "name": "fees",
          "type": "uint256"
        }
      ],
      "name": "updateCollateralReleaseFees",
      "outputs": [
        {
          "internalType": "bool",
          "name": "success",
          "type": "bool"
        }
      ],
      "stateMutability": "nonpayable",
      "type": "function"
    },
    {
      "inputs": [
        {
          "internalType": "uint256",
          "name": "fees",
          "type": "uint256"
        }
      ],
      "name": "updateYieldConversion",
      "outputs": [
        {
          "internalType": "bool",
          "name": "success",
          "type": "bool"
        }
      ],
      "stateMutability": "nonpayable",
      "type": "function"
    },
    {
      "inputs": [
        {
          "internalType": "uint256",
          "name": "fees",
          "type": "uint256"
        }
      ],
      "name": "updateMarketSwapFees",
      "outputs": [
        {
          "internalType": "bool",
          "name": "success",
          "type": "bool"
        }
      ],
      "stateMutability": "nonpayable",
      "type": "function"
    },
    {
      "inputs": [
        {
          "internalType": "uint256",
          "name": "_reserveFactor",
          "type": "uint256"
        }
      ],
      "name": "updateReserveFactor",
      "outputs": [
        {
          "internalType": "bool",
          "name": "success",
          "type": "bool"
        }
      ],
      "stateMutability": "nonpayable",
      "type": "function"
    },
    {
      "inputs": [
        {
          "internalType": "uint256",
          "name": "factor",
          "type": "uint256"
        },
        {
          "internalType": "uint256",
          "name": "blockLimit",
          "type": "uint256"
        }
      ],
      "name": "updateMaxWithdrawal",
      "outputs": [
        {
          "internalType": "bool",
          "name": "success",
          "type": "bool"
        }
      ],
      "stateMutability": "nonpayable",
      "type": "function"
    },
    {
      "inputs": [],
      "name": "getReserveFactor",
      "outputs": [
        {
          "internalType": "uint256",
          "name": "",
          "type": "uint256"
        }
      ],
      "stateMutability": "view",
      "type": "function"
    },
    {
      "inputs": [],
      "name": "pause",
      "outputs": [],
      "stateMutability": "nonpayable",
      "type": "function"
    },
    {
      "inputs": [],
      "name": "unpause",
      "outputs": [],
      "stateMutability": "nonpayable",
      "type": "function"
    }
  ],
  "bytecode": "0x60806040526000805460ff1916905534801561001a57600080fd5b50604051611c83380380611c8383398101604081905261003991610072565b6000805461ff0019169055600380546001600160a01b039092166001600160a01b031992831617905560028054909116331790556100a2565b60006020828403121561008457600080fd5b81516001600160a01b038116811461009b57600080fd5b9392505050565b611bd2806100b16000396000f3fe60806040526004361061026b5760003560e01c80635c975abb11610144578063be00e075116100b6578063d24325af1161007a578063d24325af1461076c578063d71183511461078c578063e6e0cc0b146107ae578063f0cff4b5146107ce578063f23c7ac1146107ee578063f9386a431461080e576102ac565b8063be00e075146106da578063c35c63c1146106fa578063c9f19e981461072a578063cdc6fdd314610740578063d138866314610756576102ac565b8063844458e211610108578063844458e2146105ef5780638456cb591461061f57806388dfa4c0146106345780638e13bd541461064a578063a6f43a621461066a578063abe200321461068a576102ac565b80635c975abb146105675780635f558e5314610584578063624793511461059957806369bcdb7d146105b95780636eadb58b146105d9576102ac565b80633278182f116101dd57806344622fc2116101a157806344622fc2146104b3578063496c9169146104d357806349e271d7146104f35780634a2fd9c1146105135780634dccf0d71461053157806351ad1c9314610547576102ac565b80633278182f1461043257806335a84ce2146104525780633f4ba83a146104685780634322b7141461047d578063439c373914610493576102ac565b80631d09c6c81161022f5780631d09c6c8146103865780631fae2eb1146103a6578063238c8055146103c657806324a2ac9a146103e657806328a18d34146104065780632ea9ec0b1461041c576102ac565b806302eb8f49146102c157806303e80d48146102f657806305564e8f14610324578063164b2630146103445780631a60c46d14610364576102ac565b366102ac576002546001600160a01b03166108fc345b6040518115909202916000818181858888f193505050501580156102a9573d6000803e3d6000fd5b50005b6002546001600160a01b03166108fc34610281565b3480156102cd57600080fd5b506102e16102dc36600461191e565b610824565b60405190151581526020015b60405180910390f35b34801561030257600080fd5b5061031661031136600461191e565b6108a3565b6040519081526020016102ed565b34801561033057600080fd5b5061031661033f36600461191e565b6108e4565b34801561035057600080fd5b506102e161035f36600461194e565b610904565b34801561037057600080fd5b5061038461037f36600461198a565b6109be565b005b34801561039257600080fd5b506103166103a13660046119bc565b610d42565b3480156103b257600080fd5b506103166103c13660046119bc565b610d79565b3480156103d257600080fd5b506102e16103e136600461191e565b610d9c565b3480156103f257600080fd5b506102e16104013660046119bc565b610e07565b34801561041257600080fd5b50610316600f5481565b34801561042857600080fd5b5061031660075481565b34801561043e57600080fd5b5061031661044d36600461191e565b610e45565b34801561045e57600080fd5b50610316600d5481565b34801561047457600080fd5b50610384610e65565b34801561048957600080fd5b5061031660055481565b34801561049f57600080fd5b506102e16104ae3660046119bc565b610ef7565b3480156104bf57600080fd5b506102e16104ce36600461191e565b610f80565b3480156104df57600080fd5b506102e16104ee3660046119bc565b610feb565b3480156104ff57600080fd5b506102e161050e36600461191e565b611022565b34801561051f57600080fd5b5061038461052e36600461191e565b50565b34801561053d57600080fd5b50610316600c5481565b34801561055357600080fd5b506102e161056236600461191e565b61108d565b34801561057357600080fd5b50600054610100900460ff166102e1565b34801561059057600080fd5b50600554610316565b3480156105a557600080fd5b506102e16105b436600461191e565b6110f8565b3480156105c557600080fd5b506103166105d436600461191e565b611163565b3480156105e557600080fd5b50610316600a5481565b3480156105fb57600080fd5b5061031661060a36600461191e565b60009081526010602052604090206001015490565b34801561062b57600080fd5b506103846111ca565b34801561064057600080fd5b50610316600b5481565b34801561065657600080fd5b506102e161066536600461191e565b611250565b34801561067657600080fd5b506103166106853660046119bc565b6112bb565b34801561069657600080fd5b506103846106a536600461191e565b600480546001810182556000919091527f8a35acfbc15ff81a39ae7d344fd709f28e8600b4aa8c65c6b64bfe7fe36bd19b0155565b3480156106e657600080fd5b506103166106f536600461191e565b6112de565b34801561070657600080fd5b5061031661071536600461191e565b60009081526011602052604090206001015490565b34801561073657600080fd5b5061031660085481565b34801561074c57600080fd5b50610316600e5481565b34801561076257600080fd5b5061031660095481565b34801561077857600080fd5b506103166107873660046119bc565b6112fd565b34801561079857600080fd5b506107a1611320565b6040516102ed91906119de565b3480156107ba57600080fd5b506102e16107c936600461191e565b611388565b3480156107da57600080fd5b506103846107e936600461198a565b6113f3565b3480156107fa57600080fd5b506102e161080936600461191e565b611702565b34801561081a57600080fd5b5061031660065481565b6002546000906001600160a01b0316331461085a5760405162461bcd60e51b815260040161085190611a33565b60405180910390fd5b60058054908390556040518181524290849033907ffb98269f19d78474ac878322ac7ba04b71c45c7622771ea1d2f7e8644df6ea4e906020015b60405180910390a4505b919050565b600081815260106020526040812060020180546108c290600190611a9c565b815481106108d2576108d2611ab3565b90600052602060002001549050919050565b60008181526011602052604081206001908101805490916108c291611a9c565b6002546000906001600160a01b031633146109315760405162461bcd60e51b815260040161085190611a33565b60405163a9059cbb60e01b81526001600160a01b0384811660048301526024820184905285169063a9059cbb90604401602060405180830381600087803b15801561097b57600080fd5b505af115801561098f573d6000803e3d6000fd5b505050506040513d601f19601f820116820180604052508101906109b39190611ac9565b506001949350505050565b6000848152601160205260408120906109d8600186611a9c565b60018301549091508490861015610c8357808360010183815481106109ff576109ff611ab3565b90600052602060002001541015610b7c576000610a1d836001611aeb565b9050620186a06064856002018581548110610a3a57610a3a611ab3565b906000526020600020015484876001018581548110610a5b57610a5b611ab3565b9060005260206000200154610a709190611a9c565b610a7a9190611b03565b610a849190611b22565b610a909061016d611b03565b610a9a9190611b22565b9450805b6002850154811015610b75576000856001018281548110610ac157610ac1611ab3565b906000526020600020015486600101836001610add9190611aeb565b81548110610aed57610aed611ab3565b9060005260206000200154610b029190611a9c565b9050620186a06064876002018581548110610b1f57610b1f611ab3565b906000526020600020015483610b359190611b03565b610b3f9190611b22565b610b4b9061016d611b03565b610b559190611b22565b610b5f9088611aeb565b9650508080610b6d90611b44565b915050610a9e565b5050610d39565b80836001018381548110610b9257610b92611ab3565b90600052602060002001541415610c7e57815b6002840154811015610c7c576000846001018281548110610bc857610bc8611ab3565b906000526020600020015485600101836001610be49190611aeb565b81548110610bf457610bf4611ab3565b9060005260206000200154610c099190611a9c565b9050620186a06064866002018681548110610c2657610c26611ab3565b906000526020600020015483610c3c9190611b03565b610c469190611b22565b610c529061016d611b03565b610c5c9190611b22565b610c669087611aeb565b9550508080610c7490611b44565b915050610ba5565b505b610d39565b600183015486148015610c9557508542115b15610d395780836001018381548110610cb057610cb0611ab3565b90600052602060002001541080610ce5575080836001018381548110610cd857610cd8611ab3565b9060005260206000200154145b15610d39576064836002018381548110610d0157610d01611ab3565b90600052602060002001548242610d189190611a9c565b610d229190611b03565b610d2c9190611b22565b610d369085611aeb565b93505b50505050505050565b6000828152601160205260408120600101805483908110610d6557610d65611ab3565b906000526020600020015490505b92915050565b6000828152601060205260408120600101805483908110610d6557610d65611ab3565b6002546000906001600160a01b03163314610dc95760405162461bcd60e51b815260040161085190611a33565b60068054908390556040518181524290849033907f06403715997d4fe2f9f7585b59802b551be29c70f61af541f97386bcaa1f8d4990602001610894565b6002546000906001600160a01b03163314610e345760405162461bcd60e51b815260040161085190611a33565b610e3e838361176d565b9392505050565b60008181526010602052604081206001908101805490916108c291611a9c565b6002546001600160a01b03163314610e8f5760405162461bcd60e51b815260040161085190611a33565b60005460ff1615610ed65760405162461bcd60e51b815260206004820152601160248201527052652d656e7472616e7420616c6572742160781b6044820152606401610851565b6000805460ff19166001179055610eeb6117ce565b6000805460ff19169055565b6002546000906001600160a01b03163314610f245760405162461bcd60e51b815260040161085190611a33565b600a805490849055600b83905560408051828152602081018590524281830152905184918291879133917f4ce89aa93adb8bafdc7ddc6061773865d605197ea1a77541afa107c9abe8cd5c9181900360600190a4505092915050565b6002546000906001600160a01b03163314610fad5760405162461bcd60e51b815260040161085190611a33565b600d8054908390556040518181524290849033907f94a4ce4f658c0cb80a75f72ee9be12bf0e43be440d70c7293c8cbc3cc6ed867290602001610894565b6002546000906001600160a01b031633146110185760405162461bcd60e51b815260040161085190611a33565b610e3e838361185c565b6002546000906001600160a01b0316331461104f5760405162461bcd60e51b815260040161085190611a33565b60098054908390556040518181524290849033907fb5b77994ac42b763f4b57c1c03b5b2ba471e7aefe8ab19d99bd81be07d0e785190602001610894565b6002546000906001600160a01b031633146110ba5760405162461bcd60e51b815260040161085190611a33565b60088054908390556040518181524290849033907fe50cbf802e464265ce9d3aae039ac0bf2e942407e205efa4dc9c0d565d1e061790602001610894565b6002546000906001600160a01b031633146111255760405162461bcd60e51b815260040161085190611a33565b600c8054908390556040518181524290849033907ffd27186b5b06bb0abc85385b8e907fe9145ac75075115bbfb59eeac15e2a38f990602001610894565b60045460009082106111b75760405162461bcd60e51b815260206004820152601d60248201527f436f6d6d69746d656e7420496e646578206f7574206f662072616e67650000006044820152606401610851565b600482815481106108d2576108d2611ab3565b6002546001600160a01b031633146111f45760405162461bcd60e51b815260040161085190611a33565b60005460ff161561123b5760405162461bcd60e51b815260206004820152601160248201527052652d656e7472616e7420616c6572742160781b6044820152606401610851565b6000805460ff19166001179055610eeb611883565b6002546000906001600160a01b0316331461127d5760405162461bcd60e51b815260040161085190611a33565b600f8054908390556040518181524290849033907ff00afe6a0c954abee03186f00fc4805dacac7759356f090e2803b71155888edf90602001610894565b6000828152601060205260408120600201805483908110610d6557610d65611ab3565b600081815260116020526040812060020180546108c290600190611a9c565b6000828152601160205260408120600201805483908110610d6557610d65611ab3565b60005460609060ff61010090910416151560011415611357576040518060600160405280603d8152602001611b60603d9139905090565b5060408051808201909152601681527510dbdb9d1c9858dd081a5cc81b9bdd081c185d5cd95960521b602082015290565b6002546000906001600160a01b031633146113b55760405162461bcd60e51b815260040161085190611a33565b60078054908390556040518181524290849033907f4167d03bb850949b07518fa64067465d7da592fcc03b73bbed505ff85a3b6b6a90602001610894565b6000848152601060205260409020836114585760405162461bcd60e51b815260206004820152602160248201527f4552524f52203a206f6c644c656e677468416363727565645969656c64203c206044820152603160f81b6064820152608401610851565b6000611465600186611a9c565b60018301549091508490861015610c83578083600101838154811061148c5761148c611ab3565b906000526020600020015410156116025760006114aa836001611aeb565b9050620186a060648560020185815481106114c7576114c7611ab3565b9060005260206000200154848760010185815481106114e8576114e8611ab3565b90600052602060002001546114fd9190611a9c565b6115079190611b03565b6115119190611b22565b61151d9061016d611b03565b6115279190611b22565b9450805b6002850154811015610b7557600085600101828154811061154e5761154e611ab3565b90600052602060002001548660010183600161156a9190611aeb565b8154811061157a5761157a611ab3565b906000526020600020015461158f9190611a9c565b9050620186a060648760020185815481106115ac576115ac611ab3565b9060005260206000200154836115c29190611b03565b6115cc9190611b22565b6115d89061016d611b03565b6115e29190611b22565b6115ec9088611aeb565b96505080806115fa90611b44565b91505061152b565b8083600101838154811061161857611618611ab3565b90600052602060002001541415610c7e57815b6002840154811015610c7c57600084600101828154811061164e5761164e611ab3565b90600052602060002001548560010183600161166a9190611aeb565b8154811061167a5761167a611ab3565b906000526020600020015461168f9190611a9c565b9050620186a060648660020186815481106116ac576116ac611ab3565b9060005260206000200154836116c29190611b03565b6116cc9190611b22565b6116d89061016d611b03565b6116e29190611b22565b6116ec9087611aeb565b95505080806116fa90611b44565b91505061162b565b6002546000906001600160a01b0316331461172f5760405162461bcd60e51b815260040161085190611a33565b600e8054908390556040518181524290849033907f1167e818614d931d4346c17b9a2bee2456e36f5f833d6e387504450b609ca09290602001610894565b60008281526011602052604081206002810154600182015414611794576000915050610d73565b9283555060018083018054808301825560009182526020808320429201919091556002909401805480840182559082529390209092015590565b600054610100900460ff166118195760405162461bcd60e51b81526020600482015260116024820152704e6f74207061757365642073746174757360781b6044820152606401610851565b6000805461ff001916815560405190815233907fd90c20276b7955800df9b223f244944b25b581f437448b1978aa61d4036b428a906020015b60405180910390a2565b60008281526010602052604081206002810154600182015414611794576000915050610d73565b600054610100900460ff16156118cb5760405162461bcd60e51b815260206004820152600d60248201526c5061757365642073746174757360981b6044820152606401610851565b6000805461ff0019166101001790556118e13390565b6001600160a01b03167fd90c20276b7955800df9b223f244944b25b581f437448b1978aa61d4036b428a6001604051611852911515815260200190565b60006020828403121561193057600080fd5b5035919050565b80356001600160a01b038116811461089e57600080fd5b60008060006060848603121561196357600080fd5b61196c84611937565b925061197a60208501611937565b9150604084013590509250925092565b600080600080608085870312156119a057600080fd5b5050823594602084013594506040840135936060013592509050565b600080604083850312156119cf57600080fd5b50508035926020909101359150565b600060208083528351808285015260005b81811015611a0b578581018301518582016040015282016119ef565b81811115611a1d576000604083870101525b50601f01601f1916929092016040019392505050565b60208082526033908201527f4f6e6c792074686520636f6d7074726f6c6c65722061646d696e2063616e206d60408201527237b234b33c903a3434b990333ab731ba34b7b760691b606082015260800190565b634e487b7160e01b600052601160045260246000fd5b600082821015611aae57611aae611a86565b500390565b634e487b7160e01b600052603260045260246000fd5b600060208284031215611adb57600080fd5b81518015158114610e3e57600080fd5b60008219821115611afe57611afe611a86565b500190565b6000816000190483118215151615611b1d57611b1d611a86565b500290565b600082611b3f57634e487b7160e01b600052601260045260246000fd5b500490565b6000600019821415611b5857611b58611a86565b506001019056fe436f6e7472616374206973207061757365642e20546f6b656e207472616e7366657273206172652074656d706f726172696c792064697361626c65642ea26469706673582212207aa199b47bdb896c3e2741deea7c33055e602bc712f6a903fb27ab73f9c4952a64736f6c63430008090033",
  "immutableReferences": {},
  "source": "// SPDX-License-Identifier: MIT\r\npragma solidity >=0.8.9 <0.9.0;\r\nimport \"./util/Address.sol\";\r\nimport \"./util/Pausable.sol\";\r\n// import \"./mockup/IMockBep20.sol\";\r\nimport \"./util/IBEP20.sol\";\r\n\r\ncontract Comptroller is Pausable {\r\n\tusing Address for address;\r\n\r\n\tbytes32 adminComptroller;\r\n\taddress adminComptrollerAddress;\r\n\taddress superAdminAddress;\r\n\r\n\t// uint public latestAPR;\r\n\t// uint public latestAPY;\r\n\t\r\n\tbytes32[] commitment; // NONE, TWOWEEKS, ONEMONTH, THREEMONTHS\r\n\t\r\n\tuint public reserveFactor;\r\n\tuint public loanIssuanceFees;\r\n\tuint public loanClosureFees;\r\n\tuint public loanPreClosureFees;\r\n\tuint public depositPreClosureFees;\r\n\tuint public maxWithdrawalFactor;\r\n\tuint public maxWithdrawalBlockLimit;\r\n\tuint public depositWithdrawalFees;\r\n\tuint public collateralReleaseFees;\r\n\tuint public yieldConversionFees;\r\n\tuint public marketSwapFees;\r\n\r\n/// @notice each APY or APR struct holds the recorded changes in interest data & the\r\n/// corresponding time for a particular commitment type.\r\n\tstruct APY  {\r\n\t\tbytes32 commitment; \r\n\t\tuint[] time; // ledger of time when the APY changes were made.\r\n\t\tuint[] apyChanges; // ledger of APY changes.\r\n\t}\r\n\r\n\tstruct APR  {\r\n\t\tbytes32 commitment; // validity\r\n\t\tuint[] time; // ledger of time when the APR changes were made.\r\n\t\tuint[] aprChanges; // Per block.timestamp APR is tabulated in here.\r\n\t}\t\r\n\t// Latest Individual apy/apr data\r\n\tmapping(bytes32 => APY) indAPYRecords;\r\n\tmapping(bytes32 => APR) indAPRRecords;\r\n\r\n\tevent APRupdated(address indexed admin, uint indexed newAPR, uint oldAPR, uint indexed timestamp);\r\n\tevent APYupdated(address indexed admin, uint indexed newAPY, uint oldAPY, uint indexed timestamp);\r\n\t\r\n\tevent ReserveFactorUpdated(address indexed admin, uint oldReserveFactor, uint indexed newReserveFactor, uint indexed timestamp);\r\n\tevent LoanIssuanceFeesUpdated(address indexed admin, uint oldFees, uint indexed newFees, uint indexed timestamp);\r\n\tevent LoanClosureFeesUpdated(address indexed admin, uint oldFees, uint indexed newFees, uint indexed timestamp);\r\n\tevent LoanPreClosureFeesUpdated(address indexed admin, uint oldFees, uint indexed newFees, uint indexed timestamp);\r\n\tevent DepositPreClosureFeesUpdated(address indexed admin, uint oldFees, uint indexed newFees, uint indexed timestamp);\r\n\tevent DepositWithdrawalFeesUpdated(address indexed admin, uint oldFees, uint indexed newFees, uint indexed timestamp);\r\n\tevent CollateralReleaseFeesUpdated(address indexed admin, uint oldFees, uint indexed newFees, uint indexed timestamp);\r\n\tevent YieldConversionFeesUpdated(address indexed admin, uint oldFees, uint indexed newFees, uint indexed timestamp);\r\n\tevent MarketSwapFeesUpdated(address indexed admin, uint oldFees, uint indexed newFees, uint indexed timestamp);\r\n\tevent MaxWithdrawalUpdated(address indexed admin, uint indexed newFactor, uint indexed newBlockLimit, uint oldFactor, uint oldBlockLimit, uint timestamp);\r\n\t\r\n\tconstructor(address superAdminAddr_) {\r\n\t\tsuperAdminAddress = superAdminAddr_;\r\n\t\tadminComptrollerAddress = msg.sender;\r\n\t}\r\n\t\r\n\treceive() external payable {\r\n\t\t payable(adminComptrollerAddress).transfer(_msgValue());\r\n\t}\r\n\t\r\n\tfallback() external payable {\r\n\t\tpayable(adminComptrollerAddress).transfer(_msgValue());\r\n\t}\r\n\t\r\n\tfunction transferAnyBEP20(address token_,address recipient_,uint256 value_) external authComptroller returns(bool) {\r\n\t\tIBEP20(token_).transfer(recipient_, value_);\r\n\t\treturn true;\r\n\t}\r\n\t\r\n\tfunction getAPR(bytes32 _commitment) external view returns (uint) {\r\n\t\treturn indAPRRecords[_commitment].aprChanges[indAPRRecords[_commitment].aprChanges.length - 1];\r\n\t}\r\n\tfunction getAPRInd(bytes32 _commitment, uint _index) external view returns (uint) {\r\n\t\treturn indAPRRecords[_commitment].aprChanges[_index];\r\n\t}\r\n\r\n\tfunction getAPY(bytes32 _commitment) external view returns (uint) {\r\n\t\treturn indAPYRecords[_commitment].apyChanges[indAPYRecords[_commitment].apyChanges.length - 1];\r\n\t}\r\n\r\n\tfunction getAPYInd(bytes32 _commitment, uint _index) external view returns (uint) {\r\n\t\treturn indAPYRecords[_commitment].apyChanges[_index];\r\n\t}\r\n\r\n\tfunction getApytimeber(bytes32 _commitment, uint _index) external view returns (uint) {\r\n\t\treturn indAPYRecords[_commitment].time[_index];\r\n\t}\r\n\r\n\tfunction getAprtimeber(bytes32 _commitment, uint _index) external view returns (uint) {\r\n\t\treturn indAPRRecords[_commitment].time[_index];\r\n\t}\r\n\r\n\tfunction getApyLastTime(bytes32 commitment_) external view returns (uint) {\r\n\t\treturn indAPYRecords[commitment_].time[indAPYRecords[commitment_].time.length - 1];\r\n\t}\r\n\r\n\tfunction getAprLastTime(bytes32 commitment_) external view returns (uint) {\r\n\t\treturn indAPRRecords[commitment_].time[indAPRRecords[commitment_].time.length - 1];\r\n\t}\r\n\r\n\tfunction getApyTimeLength(bytes32 commitment_) external view returns (uint) {\r\n\t\treturn indAPYRecords[commitment_].time.length;\r\n\t}\r\n\r\n\tfunction getAprTimeLength(bytes32 commitment_) external view returns (uint) {\r\n\t\treturn indAPRRecords[commitment_].time.length;\r\n\t}\r\n\r\n\tfunction getCommitment(uint index_) external view returns (bytes32) {\r\n\t\trequire(index_ < commitment.length, \"Commitment Index out of range\");\r\n\t\treturn commitment[index_];\r\n\t}\r\n\r\n\tfunction setCommitment(bytes32 _commitment) external {\r\n\t\tcommitment.push(_commitment);\r\n\t}\r\n\r\n\tfunction liquidationTrigger(uint loanID) external {}\r\n\r\n\t// SETTERS\r\n\tfunction updateAPY(bytes32 _commitment, uint _apy) external authComptroller() returns (bool) {\r\n\t\treturn _updateApy(_commitment, _apy);\r\n\t}\r\n\r\n\tfunction updateAPR(bytes32 _commitment, uint _apr) external authComptroller() returns (bool ) {\r\n\t\treturn _updateApr(_commitment, _apr);\r\n\t}\r\n\r\n\tfunction _updateApy(bytes32 _commitment, uint _apy) internal returns (bool) {\r\n\t\tAPY storage apyUpdate = indAPYRecords[_commitment];\r\n\r\n\t\tif(apyUpdate.time.length != apyUpdate.apyChanges.length) return false;\r\n\r\n\t\tapyUpdate.commitment = _commitment;\r\n\t\tapyUpdate.time.push(block.timestamp);\r\n\t\tapyUpdate.apyChanges.push(_apy);\r\n\t\treturn true;\r\n\t}\r\n\t\r\n\tfunction _updateApr(bytes32 _commitment, uint _apr) internal returns (bool) {\r\n\t\tAPR storage aprUpdate = indAPRRecords[_commitment];\r\n\r\n\t\tif(aprUpdate.time.length != aprUpdate.aprChanges.length) return false;\r\n\r\n\t\taprUpdate.commitment = _commitment;\r\n\t\taprUpdate.time.push(block.timestamp);\r\n\t\taprUpdate.aprChanges.push(_apr);\r\n\t\treturn true;\r\n\t}\r\n\r\n\tfunction calcAPR(bytes32 _commitment, uint oldLengthAccruedInterest, uint oldTime, uint aggregateInterest) external view {\r\n\t\t\r\n\t\tAPR storage apr = indAPRRecords[_commitment];\r\n\r\n\t\tuint256 index = oldLengthAccruedInterest - 1;\r\n\t\tuint256 time = oldTime;\r\n\r\n\t\t// // 1. apr.time.length > oldLengthAccruedInterest => there is some change.\r\n\r\n\t\tif (apr.time.length > oldLengthAccruedInterest)  {\r\n\r\n\t\t\tif (apr.time[index] < time) {\r\n\t\t\t\tuint256 newIndex = index + 1;\r\n\t\t\t\t// Convert the aprChanges to the lowest unit value.\r\n\t\t\t\taggregateInterest = (((apr.time[newIndex] - time) *apr.aprChanges[index])/100)*365/(100*1000);\r\n\t\t\t\r\n\t\t\t\tfor (uint256 i = newIndex; i < apr.aprChanges.length; i++) {\r\n\t\t\t\t\tuint256 timeDiff = apr.time[i + 1] - apr.time[i];\r\n\t\t\t\t\taggregateInterest += (timeDiff*apr.aprChanges[newIndex] / 100)*365/(100*1000);\r\n\t\t\t\t}\r\n\t\t\t}\r\n\t\t\telse if (apr.time[index] == time) {\r\n\t\t\t\tfor (uint256 i = index; i < apr.aprChanges.length; i++) {\r\n\t\t\t\t\tuint256 timeDiff = apr.time[i + 1] - apr.time[i];\r\n\t\t\t\t\taggregateInterest += (timeDiff*apr.aprChanges[index] / 100)*365/(100*1000);\r\n\t\t\t\t}\r\n\t\t\t}\r\n\t\t} else if (apr.time.length == oldLengthAccruedInterest && block.timestamp > oldLengthAccruedInterest) {\r\n\t\t\tif (apr.time[index] < time || apr.time[index] == time) {\r\n\t\t\t\taggregateInterest += (block.timestamp - time)*apr.aprChanges[index]/100;\r\n\t\t\t\t// Convert the aprChanges to the lowest unit value.\r\n\t\t\t\t// aggregateYield = (((apr.time[newIndex] - time) *apr.aprChanges[index])/100)*365/(100*1000);\r\n\t\t\t}\r\n\t\t}\r\n\t\toldLengthAccruedInterest = apr.time.length;\r\n\t\toldTime = block.timestamp;\r\n\t}\r\n\r\n\tfunction calcAPY(bytes32 _commitment, uint oldLengthAccruedYield, uint oldTime, uint aggregateYield) external view {\r\n\t\t\r\n\t\tAPY storage apy = indAPYRecords[_commitment];\r\n\r\n\t\trequire(oldLengthAccruedYield>0, \"ERROR : oldLengthAccruedYield < 1\");\r\n\t\t\r\n\t\tuint256 index = oldLengthAccruedYield - 1;\r\n\t\tuint256 time = oldTime;\r\n\r\n\t\t// 1. apr.time.length > oldLengthAccruedInterest => there is some change.\r\n\r\n\t\tif (apy.time.length > oldLengthAccruedYield)  {\r\n\r\n\t\t\tif (apy.time[index] < time) {\r\n\t\t\t\tuint256 newIndex = index + 1;\r\n\t\t\t\t// Convert the aprChanges to the lowest unit value.\r\n\t\t\t\taggregateYield = (((apy.time[newIndex] - time) *apy.apyChanges[index])/100)*365/(100*1000);\r\n\t\t\t\r\n\t\t\t\tfor (uint256 i = newIndex; i < apy.apyChanges.length; i++) {\r\n\t\t\t\t\tuint256 timeDiff = apy.time[i + 1] - apy.time[i];\r\n\t\t\t\t\taggregateYield += (timeDiff*apy.apyChanges[newIndex] / 100)*365/(100*1000);\r\n\t\t\t\t}\r\n\t\t\t}\r\n\t\t\telse if (apy.time[index] == time) {\r\n\t\t\t\tfor (uint256 i = index; i < apy.apyChanges.length; i++) {\r\n\t\t\t\t\tuint256 timeDiff = apy.time[i + 1] - apy.time[i];\r\n\t\t\t\t\taggregateYield += (timeDiff*apy.apyChanges[index] / 100)*365/(100*1000);\r\n\t\t\t\t}\r\n\t\t\t}\r\n\t\t} else if (apy.time.length == oldLengthAccruedYield && block.timestamp > oldLengthAccruedYield) {\r\n\t\t\tif (apy.time[index] < time || apy.time[index] == time) {\r\n\t\t\t\taggregateYield += (block.timestamp - time)*apy.apyChanges[index]/100;\r\n\t\t\t\t// Convert the aprChanges to the lowest unit value.\r\n\t\t\t\t// aggregateYield = (((apr.time[newIndex] - time) *apr.aprChanges[index])/100)*365/(100*1000);\r\n\t\t\t}\r\n\t\t}\r\n\t\toldLengthAccruedYield = apy.time.length;\r\n\t\toldTime = block.timestamp;\r\n\t}\r\n\r\n\tfunction updateLoanIssuanceFees(uint fees) external authComptroller() returns(bool success) {\r\n\t\tuint oldFees = loanIssuanceFees;\r\n\t\tloanIssuanceFees = fees;\r\n\r\n\t\temit LoanIssuanceFeesUpdated(msg.sender, oldFees, loanIssuanceFees, block.timestamp);\r\n\t\treturn success;\r\n\t}\r\n\r\n\tfunction updateLoanClosureFees(uint fees) external authComptroller() returns(bool success) {\r\n\t\tuint oldFees = loanClosureFees;\r\n\t\tloanClosureFees = fees;\r\n\r\n\t\temit LoanClosureFeesUpdated(msg.sender, oldFees, loanClosureFees, block.timestamp);\r\n\t\treturn success;\r\n\t}\r\n\r\n\tfunction updateLoanPreClosureFees(uint fees) external authComptroller() returns(bool success) {\r\n\t\tuint oldFees = loanPreClosureFees;\r\n\t\tloanPreClosureFees = fees;\r\n\r\n\t\temit LoanPreClosureFeesUpdated(msg.sender, oldFees, loanPreClosureFees, block.timestamp);\r\n\t\treturn success;\r\n\t}\r\n\r\n\tfunction updateDepositPreclosureFees(uint fees) external authComptroller() returns(bool success) {\r\n\t\tuint oldFees = depositPreClosureFees;\r\n\t\tdepositPreClosureFees = fees;\r\n\r\n\t\temit DepositPreClosureFeesUpdated(msg.sender, oldFees, depositPreClosureFees, block.timestamp);\r\n\t\treturn success;\r\n\t}\r\n\r\n\tfunction updateWithdrawalFees(uint fees) external authComptroller() returns(bool success) {\r\n\t\tuint oldFees = depositWithdrawalFees;\r\n\t\tdepositWithdrawalFees = fees;\r\n\r\n\t\temit DepositWithdrawalFeesUpdated(msg.sender, oldFees, depositWithdrawalFees, block.timestamp);\r\n\t\treturn success;\r\n\t}\r\n\r\n\tfunction updateCollateralReleaseFees(uint fees) external authComptroller() returns(bool success) {\r\n\t\tuint oldFees = collateralReleaseFees;\r\n\t\tcollateralReleaseFees = fees;\r\n\r\n\t\temit CollateralReleaseFeesUpdated(msg.sender, oldFees, collateralReleaseFees, block.timestamp);\r\n\t\treturn success;\r\n\t}\r\n\t\r\n\tfunction updateYieldConversion(uint fees) external authComptroller() returns(bool success) {\r\n\t\tuint oldFees = yieldConversionFees;\r\n\t\tyieldConversionFees = fees;\r\n\r\n\t\temit YieldConversionFeesUpdated(msg.sender, oldFees, yieldConversionFees, block.timestamp);\r\n\t\treturn success;\r\n\t}\r\n\r\n\tfunction updateMarketSwapFees(uint fees) external authComptroller() returns(bool success) {\r\n\t\tuint oldFees = marketSwapFees;\r\n\t\tmarketSwapFees = fees;\r\n\r\n\t\temit MarketSwapFeesUpdated(msg.sender, oldFees, marketSwapFees, block.timestamp);\r\n\t\treturn success;\r\n\t}\r\n\r\n\tfunction updateReserveFactor(uint _reserveFactor) external authComptroller() returns (bool success) {\r\n\t \t// implementing the barebones version for testnet. \r\n\t\t//  if cdr >= reserveFactor, 1:3 possible, else 1:2 possible.\r\n\t\tuint oldReserveFactor = reserveFactor;\r\n\t\t reserveFactor = _reserveFactor;\r\n\t\t \r\n\t\t emit ReserveFactorUpdated(msg.sender,oldReserveFactor, reserveFactor, block.timestamp);\r\n\t\t return success;\r\n\t} \r\n\r\n// this function sets a maximum permissible amount that can be moved in a single transaction without the admin permissions.\r\n\tfunction updateMaxWithdrawal(uint factor, uint blockLimit) external authComptroller() returns(bool success) {\r\n\t\t\r\n\t\tuint oldFactor = maxWithdrawalFactor; \r\n\t\tuint oldBlockLimit = blockLimit;\r\n\r\n\t\tmaxWithdrawalFactor = factor;\r\n\t\tmaxWithdrawalBlockLimit = blockLimit;\r\n\r\n\t\temit MaxWithdrawalUpdated(msg.sender, maxWithdrawalFactor, maxWithdrawalBlockLimit, oldFactor, oldBlockLimit, block.timestamp);\r\n\t\treturn success;\r\n\t}\r\n\r\n\tfunction getReserveFactor() external view returns (uint256) {\r\n\t\treturn reserveFactor;\r\n\t}\r\n\r\n\tmodifier authComptroller() {\r\n\t\trequire(msg.sender == adminComptrollerAddress,\r\n\t\t\t\"Only the comptroller admin can modify this function\" \r\n\t\t);\r\n\t\t_;\r\n\t}\r\n\r\n\tfunction pause() external authComptroller() nonReentrant() {\r\n\t\t\t _pause();\r\n\t}\r\n\t\r\n\tfunction unpause() external authComptroller() nonReentrant() {\r\n\t\t\t _unpause();   \r\n\t}\r\n}",
  "sourcePath": "F:\\workspace\\Open-protocol\\contracts\\Comptroller.sol",
  "compiler": {
    "name": "solc",
    "version": "0.8.9+commit.e5eed63a.Emscripten.clang"
  },
  "schemaVersion": "3.4.3",
  "updatedAt": "2021-10-23T13:11:27.054Z",
  "devdoc": {
    "kind": "dev",
    "methods": {},
    "version": 1
  },
  "userdoc": {
    "kind": "user",
    "methods": {},
    "version": 1
  }
}