{
  "contractName": "Comptroller",
  "abi": [
    {
      "inputs": [],
      "name": "liquidationTrigger",
      "outputs": [],
      "stateMutability": "nonpayable",
      "type": "function"
    },
    {
      "inputs": [],
      "name": "updateApy",
      "outputs": [],
      "stateMutability": "nonpayable",
      "type": "function"
    },
    {
      "inputs": [],
      "name": "updateApr",
      "outputs": [],
      "stateMutability": "nonpayable",
      "type": "function"
    },
    {
      "inputs": [],
      "name": "updateLoanIssuanceFees",
      "outputs": [],
      "stateMutability": "nonpayable",
      "type": "function"
    },
    {
      "inputs": [],
      "name": "updateLoanClosureFees",
      "outputs": [],
      "stateMutability": "nonpayable",
      "type": "function"
    },
    {
      "inputs": [],
      "name": "updateLoanpreClosureFees",
      "outputs": [],
      "stateMutability": "nonpayable",
      "type": "function"
    },
    {
      "inputs": [],
      "name": "updateDepositPreclosureFees",
      "outputs": [],
      "stateMutability": "nonpayable",
      "type": "function"
    },
    {
      "inputs": [],
      "name": "updateSwitchDepositTypeFee",
      "outputs": [],
      "stateMutability": "nonpayable",
      "type": "function"
    },
    {
      "inputs": [],
      "name": "setReserveFactor",
      "outputs": [],
      "stateMutability": "nonpayable",
      "type": "function"
    },
    {
      "inputs": [],
      "name": "setMaxWithdrawal",
      "outputs": [],
      "stateMutability": "nonpayable",
      "type": "function"
    }
  ],
  "bytecode": "0x608060405234801561001057600080fd5b5061012f806100206000396000f3fe6080604052348015600f57600080fd5b506004361060905760003560e01c8063b64219ea11605d578063b64219ea1460bd578063cdc1e7e61460c5578063e00fd5871460cd578063f3b3fa241460d5578063fe7532fd1460dd576090565b806348690fd214609557806361631a8b14609d5780637e5485df1460a557806380b72c9e1460ad5780639f841ae81460b5575b600080fd5b609b60e5565b005b60a360e7565b005b60ab60e9565b005b60b360eb565b005b60bb60ed565b005b60c360ef565b005b60cb60f1565b005b60d360f3565b005b60db60f5565b005b60e360f7565b005b565b565b565b565b565b565b565b565b565b56fea26469706673582212200a111301d56f45cbccc65962a2a8d269d203128e643feb635ce152ad9001b77d64736f6c63430008080033",
  "immutableReferences": {},
  "source": "// SPDX-License-Identifier: MIT\r\npragma solidity >=0.8.7 <0.9.0;\r\nimport \"./util/Address.sol\";\r\nimport \"./Library/OpenLibrary.sol\";\r\n\r\ncontract Comptroller  {\r\n  using Address for address;\r\n  // struct SupportedAssets  {\r\n  //   bytes32 symbol;\r\n  //   uint160 decimals;\r\n  //   address contractAddress;\r\n  // }\r\n\r\n  // mapping(bytes32 => bool) isTokenSupported;\r\n\r\n  function liquidationTrigger() external {}\r\n\r\n\r\n\r\n  // SETTERS\r\n  function updateApy() external {}\r\n  function updateApr() external {}\r\n  function updateLoanIssuanceFees() external {}\r\n  function updateLoanClosureFees() external {}\r\n  function updateLoanpreClosureFees() external {}\r\n  function updateDepositPreclosureFees() external {}\r\n  function updateSwitchDepositTypeFee() external {}\r\n\r\n  function setReserveFactor() external  {} // sets a factor from 0 ot 1. This factor is the minimum reserves in the system.\r\n  function setMaxWithdrawal() external  {} // this function sets a maximum permissible amount that can be moved in a single transaction without the admin permissions.\r\n\r\n}",
  "sourcePath": "F:\\workspace\\Open-protocol\\contracts\\Comptroller.sol",
  "compiler": {
    "name": "solc",
    "version": "0.8.8+commit.dddeac2f.Emscripten.clang"
  },
  "schemaVersion": "3.4.3",
  "updatedAt": "2021-09-29T05:13:34.617Z",
  "devdoc": {
    "kind": "dev",
    "methods": {},
    "version": 1
  },
  "userdoc": {
    "kind": "user",
    "methods": {},
    "version": 1
  }
}