{
  "contractName": "Comptroller",
  "abi": [
    {
      "inputs": [
        {
          "internalType": "address",
          "name": "superAdminAddr_",
          "type": "address"
        }
      ],
      "stateMutability": "nonpayable",
      "type": "constructor"
    },
    {
      "anonymous": false,
      "inputs": [
        {
          "indexed": true,
          "internalType": "address",
          "name": "admin",
          "type": "address"
        },
        {
          "indexed": true,
          "internalType": "uint256",
          "name": "newAPR",
          "type": "uint256"
        },
        {
          "indexed": false,
          "internalType": "uint256",
          "name": "oldAPR",
          "type": "uint256"
        },
        {
          "indexed": true,
          "internalType": "uint256",
          "name": "timestamp",
          "type": "uint256"
        }
      ],
      "name": "APRupdated",
      "type": "event"
    },
    {
      "anonymous": false,
      "inputs": [
        {
          "indexed": true,
          "internalType": "address",
          "name": "admin",
          "type": "address"
        },
        {
          "indexed": true,
          "internalType": "uint256",
          "name": "newAPY",
          "type": "uint256"
        },
        {
          "indexed": false,
          "internalType": "uint256",
          "name": "oldAPY",
          "type": "uint256"
        },
        {
          "indexed": true,
          "internalType": "uint256",
          "name": "timestamp",
          "type": "uint256"
        }
      ],
      "name": "APYupdated",
      "type": "event"
    },
    {
      "anonymous": false,
      "inputs": [
        {
          "indexed": true,
          "internalType": "address",
          "name": "admin",
          "type": "address"
        },
        {
          "indexed": false,
          "internalType": "uint256",
          "name": "oldFees",
          "type": "uint256"
        },
        {
          "indexed": true,
          "internalType": "uint256",
          "name": "newFees",
          "type": "uint256"
        },
        {
          "indexed": true,
          "internalType": "uint256",
          "name": "timestamp",
          "type": "uint256"
        }
      ],
      "name": "CollateralReleaseFeesUpdated",
      "type": "event"
    },
    {
      "anonymous": false,
      "inputs": [
        {
          "indexed": true,
          "internalType": "address",
          "name": "admin",
          "type": "address"
        },
        {
          "indexed": false,
          "internalType": "uint256",
          "name": "oldFees",
          "type": "uint256"
        },
        {
          "indexed": true,
          "internalType": "uint256",
          "name": "newFees",
          "type": "uint256"
        },
        {
          "indexed": true,
          "internalType": "uint256",
          "name": "timestamp",
          "type": "uint256"
        }
      ],
      "name": "DepositPreClosureFeesUpdated",
      "type": "event"
    },
    {
      "anonymous": false,
      "inputs": [
        {
          "indexed": true,
          "internalType": "address",
          "name": "admin",
          "type": "address"
        },
        {
          "indexed": false,
          "internalType": "uint256",
          "name": "oldFees",
          "type": "uint256"
        },
        {
          "indexed": true,
          "internalType": "uint256",
          "name": "newFees",
          "type": "uint256"
        },
        {
          "indexed": true,
          "internalType": "uint256",
          "name": "timestamp",
          "type": "uint256"
        }
      ],
      "name": "DepositWithdrawalFeesUpdated",
      "type": "event"
    },
    {
      "anonymous": false,
      "inputs": [
        {
          "indexed": true,
          "internalType": "address",
          "name": "admin",
          "type": "address"
        },
        {
          "indexed": false,
          "internalType": "uint256",
          "name": "oldFees",
          "type": "uint256"
        },
        {
          "indexed": true,
          "internalType": "uint256",
          "name": "newFees",
          "type": "uint256"
        },
        {
          "indexed": true,
          "internalType": "uint256",
          "name": "timestamp",
          "type": "uint256"
        }
      ],
      "name": "LoanClosureFeesUpdated",
      "type": "event"
    },
    {
      "anonymous": false,
      "inputs": [
        {
          "indexed": true,
          "internalType": "address",
          "name": "admin",
          "type": "address"
        },
        {
          "indexed": false,
          "internalType": "uint256",
          "name": "oldFees",
          "type": "uint256"
        },
        {
          "indexed": true,
          "internalType": "uint256",
          "name": "newFees",
          "type": "uint256"
        },
        {
          "indexed": true,
          "internalType": "uint256",
          "name": "timestamp",
          "type": "uint256"
        }
      ],
      "name": "LoanIssuanceFeesUpdated",
      "type": "event"
    },
    {
      "anonymous": false,
      "inputs": [
        {
          "indexed": true,
          "internalType": "address",
          "name": "admin",
          "type": "address"
        },
        {
          "indexed": false,
          "internalType": "uint256",
          "name": "oldFees",
          "type": "uint256"
        },
        {
          "indexed": true,
          "internalType": "uint256",
          "name": "newFees",
          "type": "uint256"
        },
        {
          "indexed": true,
          "internalType": "uint256",
          "name": "timestamp",
          "type": "uint256"
        }
      ],
      "name": "LoanPreClosureFeesUpdated",
      "type": "event"
    },
    {
      "anonymous": false,
      "inputs": [
        {
          "indexed": true,
          "internalType": "address",
          "name": "admin",
          "type": "address"
        },
        {
          "indexed": false,
          "internalType": "uint256",
          "name": "oldFees",
          "type": "uint256"
        },
        {
          "indexed": true,
          "internalType": "uint256",
          "name": "newFees",
          "type": "uint256"
        },
        {
          "indexed": true,
          "internalType": "uint256",
          "name": "timestamp",
          "type": "uint256"
        }
      ],
      "name": "MarketSwapFeesUpdated",
      "type": "event"
    },
    {
      "anonymous": false,
      "inputs": [
        {
          "indexed": true,
          "internalType": "address",
          "name": "admin",
          "type": "address"
        },
        {
          "indexed": true,
          "internalType": "uint256",
          "name": "newFactor",
          "type": "uint256"
        },
        {
          "indexed": true,
          "internalType": "uint256",
          "name": "newBlockLimit",
          "type": "uint256"
        },
        {
          "indexed": false,
          "internalType": "uint256",
          "name": "oldFactor",
          "type": "uint256"
        },
        {
          "indexed": false,
          "internalType": "uint256",
          "name": "oldBlockLimit",
          "type": "uint256"
        },
        {
          "indexed": false,
          "internalType": "uint256",
          "name": "timestamp",
          "type": "uint256"
        }
      ],
      "name": "MaxWithdrawalUpdated",
      "type": "event"
    },
    {
      "anonymous": false,
      "inputs": [
        {
          "indexed": true,
          "internalType": "address",
          "name": "_pauser",
          "type": "address"
        },
        {
          "indexed": false,
          "internalType": "bool",
          "name": "isPaused",
          "type": "bool"
        }
      ],
      "name": "PauseState",
      "type": "event"
    },
    {
      "anonymous": false,
      "inputs": [
        {
          "indexed": true,
          "internalType": "address",
          "name": "admin",
          "type": "address"
        },
        {
          "indexed": false,
          "internalType": "uint256",
          "name": "oldReserveFactor",
          "type": "uint256"
        },
        {
          "indexed": true,
          "internalType": "uint256",
          "name": "newReserveFactor",
          "type": "uint256"
        },
        {
          "indexed": true,
          "internalType": "uint256",
          "name": "timestamp",
          "type": "uint256"
        }
      ],
      "name": "ReserveFactorUpdated",
      "type": "event"
    },
    {
      "anonymous": false,
      "inputs": [
        {
          "indexed": true,
          "internalType": "address",
          "name": "admin",
          "type": "address"
        },
        {
          "indexed": false,
          "internalType": "uint256",
          "name": "oldFees",
          "type": "uint256"
        },
        {
          "indexed": true,
          "internalType": "uint256",
          "name": "newFees",
          "type": "uint256"
        },
        {
          "indexed": true,
          "internalType": "uint256",
          "name": "timestamp",
          "type": "uint256"
        }
      ],
      "name": "YieldConversionFeesUpdated",
      "type": "event"
    },
    {
      "stateMutability": "payable",
      "type": "fallback"
    },
    {
      "inputs": [],
      "name": "collateralReleaseFees",
      "outputs": [
        {
          "internalType": "uint256",
          "name": "",
          "type": "uint256"
        }
      ],
      "stateMutability": "view",
      "type": "function"
    },
    {
      "inputs": [],
      "name": "depositPreClosureFees",
      "outputs": [
        {
          "internalType": "uint256",
          "name": "",
          "type": "uint256"
        }
      ],
      "stateMutability": "view",
      "type": "function"
    },
    {
      "inputs": [],
      "name": "depositWithdrawalFees",
      "outputs": [
        {
          "internalType": "uint256",
          "name": "",
          "type": "uint256"
        }
      ],
      "stateMutability": "view",
      "type": "function"
    },
    {
      "inputs": [],
      "name": "loanClosureFees",
      "outputs": [
        {
          "internalType": "uint256",
          "name": "",
          "type": "uint256"
        }
      ],
      "stateMutability": "view",
      "type": "function"
    },
    {
      "inputs": [],
      "name": "loanIssuanceFees",
      "outputs": [
        {
          "internalType": "uint256",
          "name": "",
          "type": "uint256"
        }
      ],
      "stateMutability": "view",
      "type": "function"
    },
    {
      "inputs": [],
      "name": "loanPreClosureFees",
      "outputs": [
        {
          "internalType": "uint256",
          "name": "",
          "type": "uint256"
        }
      ],
      "stateMutability": "view",
      "type": "function"
    },
    {
      "inputs": [],
      "name": "marketSwapFees",
      "outputs": [
        {
          "internalType": "uint256",
          "name": "",
          "type": "uint256"
        }
      ],
      "stateMutability": "view",
      "type": "function"
    },
    {
      "inputs": [],
      "name": "maxWithdrawalBlockLimit",
      "outputs": [
        {
          "internalType": "uint256",
          "name": "",
          "type": "uint256"
        }
      ],
      "stateMutability": "view",
      "type": "function"
    },
    {
      "inputs": [],
      "name": "maxWithdrawalFactor",
      "outputs": [
        {
          "internalType": "uint256",
          "name": "",
          "type": "uint256"
        }
      ],
      "stateMutability": "view",
      "type": "function"
    },
    {
      "inputs": [],
      "name": "pauseState",
      "outputs": [
        {
          "internalType": "string",
          "name": "",
          "type": "string"
        }
      ],
      "stateMutability": "view",
      "type": "function"
    },
    {
      "inputs": [],
      "name": "paused",
      "outputs": [
        {
          "internalType": "bool",
          "name": "",
          "type": "bool"
        }
      ],
      "stateMutability": "view",
      "type": "function"
    },
    {
      "inputs": [],
      "name": "reserveFactor",
      "outputs": [
        {
          "internalType": "uint256",
          "name": "",
          "type": "uint256"
        }
      ],
      "stateMutability": "view",
      "type": "function"
    },
    {
      "inputs": [],
      "name": "yieldConversionFees",
      "outputs": [
        {
          "internalType": "uint256",
          "name": "",
          "type": "uint256"
        }
      ],
      "stateMutability": "view",
      "type": "function"
    },
    {
      "stateMutability": "payable",
      "type": "receive"
    },
    {
      "inputs": [
        {
          "internalType": "address",
          "name": "token_",
          "type": "address"
        },
        {
          "internalType": "address",
          "name": "recipient_",
          "type": "address"
        },
        {
          "internalType": "uint256",
          "name": "value_",
          "type": "uint256"
        }
      ],
      "name": "transferAnyBEP20",
      "outputs": [
        {
          "internalType": "bool",
          "name": "",
          "type": "bool"
        }
      ],
      "stateMutability": "nonpayable",
      "type": "function"
    },
    {
      "inputs": [
        {
          "internalType": "bytes32",
          "name": "_commitment",
          "type": "bytes32"
        }
      ],
      "name": "getAPR",
      "outputs": [
        {
          "internalType": "uint256",
          "name": "",
          "type": "uint256"
        }
      ],
      "stateMutability": "view",
      "type": "function"
    },
    {
      "inputs": [
        {
          "internalType": "bytes32",
          "name": "_commitment",
          "type": "bytes32"
        },
        {
          "internalType": "uint256",
          "name": "index",
          "type": "uint256"
        }
      ],
      "name": "getAPR",
      "outputs": [
        {
          "internalType": "uint256",
          "name": "",
          "type": "uint256"
        }
      ],
      "stateMutability": "view",
      "type": "function"
    },
    {
      "inputs": [
        {
          "internalType": "bytes32",
          "name": "_commitment",
          "type": "bytes32"
        }
      ],
      "name": "getAPY",
      "outputs": [
        {
          "internalType": "uint256",
          "name": "",
          "type": "uint256"
        }
      ],
      "stateMutability": "view",
      "type": "function"
    },
    {
      "inputs": [
        {
          "internalType": "bytes32",
          "name": "_commitment",
          "type": "bytes32"
        },
        {
          "internalType": "uint256",
          "name": "_index",
          "type": "uint256"
        }
      ],
      "name": "getAPY",
      "outputs": [
        {
          "internalType": "uint256",
          "name": "",
          "type": "uint256"
        }
      ],
      "stateMutability": "view",
      "type": "function"
    },
    {
      "inputs": [
        {
          "internalType": "bytes32",
          "name": "_commitment",
          "type": "bytes32"
        },
        {
          "internalType": "uint256",
          "name": "_index",
          "type": "uint256"
        }
      ],
      "name": "getApytimeber",
      "outputs": [
        {
          "internalType": "uint256",
          "name": "",
          "type": "uint256"
        }
      ],
      "stateMutability": "view",
      "type": "function"
    },
    {
      "inputs": [
        {
          "internalType": "bytes32",
          "name": "_commitment",
          "type": "bytes32"
        },
        {
          "internalType": "uint256",
          "name": "_index",
          "type": "uint256"
        }
      ],
      "name": "getAprtimeber",
      "outputs": [
        {
          "internalType": "uint256",
          "name": "",
          "type": "uint256"
        }
      ],
      "stateMutability": "view",
      "type": "function"
    },
    {
      "inputs": [
        {
          "internalType": "bytes32",
          "name": "_commitment",
          "type": "bytes32"
        }
      ],
      "name": "getApyRecordCount",
      "outputs": [
        {
          "internalType": "uint256",
          "name": "",
          "type": "uint256"
        }
      ],
      "stateMutability": "view",
      "type": "function"
    },
    {
      "inputs": [
        {
          "internalType": "bytes32",
          "name": "_commitment",
          "type": "bytes32"
        }
      ],
      "name": "getAprRecordCount",
      "outputs": [
        {
          "internalType": "uint256",
          "name": "",
          "type": "uint256"
        }
      ],
      "stateMutability": "view",
      "type": "function"
    },
    {
      "inputs": [
        {
          "internalType": "bytes32",
          "name": "commitment_",
          "type": "bytes32"
        }
      ],
      "name": "getApyLastTime",
      "outputs": [
        {
          "internalType": "uint256",
          "name": "",
          "type": "uint256"
        }
      ],
      "stateMutability": "view",
      "type": "function"
    },
    {
      "inputs": [
        {
          "internalType": "bytes32",
          "name": "commitment_",
          "type": "bytes32"
        }
      ],
      "name": "getAprLastTime",
      "outputs": [
        {
          "internalType": "uint256",
          "name": "",
          "type": "uint256"
        }
      ],
      "stateMutability": "view",
      "type": "function"
    },
    {
      "inputs": [
        {
          "internalType": "bytes32",
          "name": "commitment_",
          "type": "bytes32"
        }
      ],
      "name": "getApyTimeLength",
      "outputs": [
        {
          "internalType": "uint256",
          "name": "",
          "type": "uint256"
        }
      ],
      "stateMutability": "view",
      "type": "function"
    },
    {
      "inputs": [
        {
          "internalType": "bytes32",
          "name": "commitment_",
          "type": "bytes32"
        }
      ],
      "name": "getAprTimeLength",
      "outputs": [
        {
          "internalType": "uint256",
          "name": "",
          "type": "uint256"
        }
      ],
      "stateMutability": "view",
      "type": "function"
    },
    {
      "inputs": [
        {
          "internalType": "uint256",
          "name": "index_",
          "type": "uint256"
        }
      ],
      "name": "getCommitment",
      "outputs": [
        {
          "internalType": "bytes32",
          "name": "",
          "type": "bytes32"
        }
      ],
      "stateMutability": "view",
      "type": "function"
    },
    {
      "inputs": [
        {
          "internalType": "uint256",
          "name": "loanID",
          "type": "uint256"
        }
      ],
      "name": "liquidationTrigger",
      "outputs": [],
      "stateMutability": "nonpayable",
      "type": "function"
    },
    {
      "inputs": [
        {
          "internalType": "bytes32",
          "name": "_commitment",
          "type": "bytes32"
        },
        {
          "internalType": "uint256",
          "name": "_apy",
          "type": "uint256"
        }
      ],
      "name": "updateAPY",
      "outputs": [
        {
          "internalType": "bool",
          "name": "",
          "type": "bool"
        }
      ],
      "stateMutability": "nonpayable",
      "type": "function"
    },
    {
      "inputs": [
        {
          "internalType": "bytes32",
          "name": "_commitment",
          "type": "bytes32"
        },
        {
          "internalType": "uint256",
          "name": "_apr",
          "type": "uint256"
        }
      ],
      "name": "updateAPR",
      "outputs": [
        {
          "internalType": "bool",
          "name": "",
          "type": "bool"
        }
      ],
      "stateMutability": "nonpayable",
      "type": "function"
    },
    {
      "inputs": [
        {
          "internalType": "uint256",
          "name": "fees",
          "type": "uint256"
        }
      ],
      "name": "updateLoanIssuanceFees",
      "outputs": [
        {
          "internalType": "bool",
          "name": "success",
          "type": "bool"
        }
      ],
      "stateMutability": "nonpayable",
      "type": "function"
    },
    {
      "inputs": [
        {
          "internalType": "uint256",
          "name": "fees",
          "type": "uint256"
        }
      ],
      "name": "updateLoanClosureFees",
      "outputs": [
        {
          "internalType": "bool",
          "name": "success",
          "type": "bool"
        }
      ],
      "stateMutability": "nonpayable",
      "type": "function"
    },
    {
      "inputs": [
        {
          "internalType": "uint256",
          "name": "fees",
          "type": "uint256"
        }
      ],
      "name": "updateLoanPreClosureFees",
      "outputs": [
        {
          "internalType": "bool",
          "name": "success",
          "type": "bool"
        }
      ],
      "stateMutability": "nonpayable",
      "type": "function"
    },
    {
      "inputs": [
        {
          "internalType": "uint256",
          "name": "fees",
          "type": "uint256"
        }
      ],
      "name": "updateDepositPreclosureFees",
      "outputs": [
        {
          "internalType": "bool",
          "name": "success",
          "type": "bool"
        }
      ],
      "stateMutability": "nonpayable",
      "type": "function"
    },
    {
      "inputs": [
        {
          "internalType": "uint256",
          "name": "fees",
          "type": "uint256"
        }
      ],
      "name": "updateWithdrawalFees",
      "outputs": [
        {
          "internalType": "bool",
          "name": "success",
          "type": "bool"
        }
      ],
      "stateMutability": "nonpayable",
      "type": "function"
    },
    {
      "inputs": [
        {
          "internalType": "uint256",
          "name": "fees",
          "type": "uint256"
        }
      ],
      "name": "updateCollateralReleaseFees",
      "outputs": [
        {
          "internalType": "bool",
          "name": "success",
          "type": "bool"
        }
      ],
      "stateMutability": "nonpayable",
      "type": "function"
    },
    {
      "inputs": [
        {
          "internalType": "uint256",
          "name": "fees",
          "type": "uint256"
        }
      ],
      "name": "updateYieldConversion",
      "outputs": [
        {
          "internalType": "bool",
          "name": "success",
          "type": "bool"
        }
      ],
      "stateMutability": "nonpayable",
      "type": "function"
    },
    {
      "inputs": [
        {
          "internalType": "uint256",
          "name": "fees",
          "type": "uint256"
        }
      ],
      "name": "updateMarketSwapFees",
      "outputs": [
        {
          "internalType": "bool",
          "name": "success",
          "type": "bool"
        }
      ],
      "stateMutability": "nonpayable",
      "type": "function"
    },
    {
      "inputs": [
        {
          "internalType": "uint256",
          "name": "_reserveFactor",
          "type": "uint256"
        }
      ],
      "name": "updateReserveFactor",
      "outputs": [
        {
          "internalType": "bool",
          "name": "success",
          "type": "bool"
        }
      ],
      "stateMutability": "nonpayable",
      "type": "function"
    },
    {
      "inputs": [
        {
          "internalType": "uint256",
          "name": "factor",
          "type": "uint256"
        },
        {
          "internalType": "uint256",
          "name": "blockLimit",
          "type": "uint256"
        }
      ],
      "name": "updateMaxWithdrawal",
      "outputs": [
        {
          "internalType": "bool",
          "name": "success",
          "type": "bool"
        }
      ],
      "stateMutability": "nonpayable",
      "type": "function"
    },
    {
      "inputs": [],
      "name": "pause",
      "outputs": [],
      "stateMutability": "nonpayable",
      "type": "function"
    },
    {
      "inputs": [],
      "name": "unpause",
      "outputs": [],
      "stateMutability": "nonpayable",
      "type": "function"
    }
  ],
  "bytecode": "0x608060405260008060006101000a81548160ff0219169083151502179055503480156200002b57600080fd5b5060405162002aaf38038062002aaf83398181016040528101906200005191906200015e565b60008060016101000a81548160ff02191690831515021790555080600360006101000a81548173ffffffffffffffffffffffffffffffffffffffff021916908373ffffffffffffffffffffffffffffffffffffffff16021790555033600260006101000a81548173ffffffffffffffffffffffffffffffffffffffff021916908373ffffffffffffffffffffffffffffffffffffffff1602179055505062000190565b600080fd5b600073ffffffffffffffffffffffffffffffffffffffff82169050919050565b60006200012682620000f9565b9050919050565b620001388162000119565b81146200014457600080fd5b50565b60008151905062000158816200012d565b92915050565b600060208284031215620001775762000176620000f4565b5b6000620001878482850162000147565b91505092915050565b61290f80620001a06000396000f3fe6080604052600436106102555760003560e01c80635c975abb11610139578063b129cef6116100b6578063cdc6fdd31161007a578063cdc6fdd314610ad0578063d138866314610afb578063d711835114610b26578063e6e0cc0b14610b51578063f23c7ac114610b8e578063f9386a4314610bcb576102cc565b8063b129cef6146109b1578063be00e075146109ee578063c35c63c114610a2b578063c9f19e9814610a68578063caa7847b14610a93576102cc565b8063844458e2116100fd578063844458e2146108b85780638456cb59146108f557806388dfa4c01461090c5780638e13bd5414610937578063999fc85014610974576102cc565b80635c975abb146107ab57806362479351146107d657806369bcdb7d146108135780636eadb58b1461085057806374ef19111461087b576102cc565b80633278182f116101d257806344622fc21161019657806344622fc214610663578063496c9169146106a057806349e271d7146106dd5780634a2fd9c11461071a5780634dccf0d71461074357806351ad1c931461076e576102cc565b80633278182f1461057c57806335a84ce2146105b95780633f4ba83a146105e45780634322b714146105fb578063439c373914610626576102cc565b80631fae2eb1116102195780631fae2eb11461046f578063238c8055146104ac57806324a2ac9a146104e957806328a18d34146105265780632ea9ec0b14610551576102cc565b806302eb8f491461033e57806303e80d481461037b57806305564e8f146103b8578063164b2630146103f55780631d09c6c814610432576102cc565b366102cc57600260009054906101000a900473ffffffffffffffffffffffffffffffffffffffff1673ffffffffffffffffffffffffffffffffffffffff166108fc61029e610bf6565b9081150290604051600060405180830381858888f193505050501580156102c9573d6000803e3d6000fd5b50005b600260009054906101000a900473ffffffffffffffffffffffffffffffffffffffff1673ffffffffffffffffffffffffffffffffffffffff166108fc610310610bf6565b9081150290604051600060405180830381858888f1935050505015801561033b573d6000803e3d6000fd5b50005b34801561034a57600080fd5b50610365600480360381019061036091906121fa565b610bfe565b6040516103729190612242565b60405180910390f35b34801561038757600080fd5b506103a2600480360381019061039d9190612293565b610cf6565b6040516103af91906122cf565b60405180910390f35b3480156103c457600080fd5b506103df60048036038101906103da9190612293565b610d08565b6040516103ec91906122cf565b60405180910390f35b34801561040157600080fd5b5061041c60048036038101906104179190612348565b610d1a565b6040516104299190612242565b60405180910390f35b34801561043e57600080fd5b506104596004803603810190610454919061239b565b610db5565b60405161046691906122cf565b60405180910390f35b34801561047b57600080fd5b506104966004803603810190610491919061239b565b610dc9565b6040516104a391906122cf565b60405180910390f35b3480156104b857600080fd5b506104d360048036038101906104ce91906121fa565b610ddd565b6040516104e09190612242565b60405180910390f35b3480156104f557600080fd5b50610510600480360381019061050b919061239b565b610ed5565b60405161051d9190612242565b60405180910390f35b34801561053257600080fd5b5061053b610f79565b60405161054891906122cf565b60405180910390f35b34801561055d57600080fd5b50610566610f7f565b60405161057391906122cf565b60405180910390f35b34801561058857600080fd5b506105a3600480360381019061059e9190612293565b610f85565b6040516105b091906122cf565b60405180910390f35b3480156105c557600080fd5b506105ce610f97565b6040516105db91906122cf565b60405180910390f35b3480156105f057600080fd5b506105f9610f9d565b005b34801561060757600080fd5b506106106110bf565b60405161061d91906122cf565b60405180910390f35b34801561063257600080fd5b5061064d600480360381019061064891906123db565b6110c5565b60405161065a9190612242565b60405180910390f35b34801561066f57600080fd5b5061068a600480360381019061068591906121fa565b6111d1565b6040516106979190612242565b60405180910390f35b3480156106ac57600080fd5b506106c760048036038101906106c2919061239b565b6112c9565b6040516106d49190612242565b60405180910390f35b3480156106e957600080fd5b5061070460048036038101906106ff91906121fa565b61136d565b6040516107119190612242565b60405180910390f35b34801561072657600080fd5b50610741600480360381019061073c91906121fa565b611465565b005b34801561074f57600080fd5b50610758611468565b60405161076591906122cf565b60405180910390f35b34801561077a57600080fd5b50610795600480360381019061079091906121fa565b61146e565b6040516107a29190612242565b60405180910390f35b3480156107b757600080fd5b506107c0611566565b6040516107cd9190612242565b60405180910390f35b3480156107e257600080fd5b506107fd60048036038101906107f891906121fa565b61157c565b60405161080a9190612242565b60405180910390f35b34801561081f57600080fd5b5061083a600480360381019061083591906121fa565b611674565b604051610847919061242a565b60405180910390f35b34801561085c57600080fd5b506108656116cd565b60405161087291906122cf565b60405180910390f35b34801561088757600080fd5b506108a2600480360381019061089d919061239b565b6116d3565b6040516108af91906122cf565b60405180910390f35b3480156108c457600080fd5b506108df60048036038101906108da9190612293565b6116e7565b6040516108ec91906122cf565b60405180910390f35b34801561090157600080fd5b5061090a6116f9565b005b34801561091857600080fd5b5061092161181b565b60405161092e91906122cf565b60405180910390f35b34801561094357600080fd5b5061095e600480360381019061095991906121fa565b611821565b60405161096b9190612242565b60405180910390f35b34801561098057600080fd5b5061099b60048036038101906109969190612293565b611919565b6040516109a891906122cf565b60405180910390f35b3480156109bd57600080fd5b506109d860048036038101906109d39190612293565b61193c565b6040516109e591906122cf565b60405180910390f35b3480156109fa57600080fd5b50610a156004803603810190610a109190612293565b61195f565b604051610a2291906122cf565b60405180910390f35b348015610a3757600080fd5b50610a526004803603810190610a4d9190612293565b611971565b604051610a5f91906122cf565b60405180910390f35b348015610a7457600080fd5b50610a7d611983565b604051610a8a91906122cf565b60405180910390f35b348015610a9f57600080fd5b50610aba6004803603810190610ab5919061239b565b611989565b604051610ac791906122cf565b60405180910390f35b348015610adc57600080fd5b50610ae561199d565b604051610af291906122cf565b60405180910390f35b348015610b0757600080fd5b50610b106119a3565b604051610b1d91906122cf565b60405180910390f35b348015610b3257600080fd5b50610b3b6119a9565b604051610b4891906124de565b60405180910390f35b348015610b5d57600080fd5b50610b786004803603810190610b7391906121fa565b611a23565b604051610b859190612242565b60405180910390f35b348015610b9a57600080fd5b50610bb56004803603810190610bb091906121fa565b611b1b565b604051610bc29190612242565b60405180910390f35b348015610bd757600080fd5b50610be0611c13565b604051610bed91906122cf565b60405180910390f35b600034905090565b6000600260009054906101000a900473ffffffffffffffffffffffffffffffffffffffff1673ffffffffffffffffffffffffffffffffffffffff163373ffffffffffffffffffffffffffffffffffffffff1614610c90576040517f08c379a0000000000000000000000000000000000000000000000000000000008152600401610c8790612572565b60405180910390fd5b6000600554905082600581905550426005543373ffffffffffffffffffffffffffffffffffffffff167ffb98269f19d78474ac878322ac7ba04b71c45c7622771ea1d2f7e8644df6ea4e84604051610ce891906122cf565b60405180910390a450919050565b6000610d0182611c19565b9050919050565b6000610d1382611c7a565b9050919050565b60008373ffffffffffffffffffffffffffffffffffffffff1663a9059cbb84846040518363ffffffff1660e01b8152600401610d579291906125a1565b602060405180830381600087803b158015610d7157600080fd5b505af1158015610d85573d6000803e3d6000fd5b505050506040513d601f19601f82011682018060405250810190610da991906125f6565b50600190509392505050565b6000610dc18383611cdb565b905092915050565b6000610dd58383611d18565b905092915050565b6000600260009054906101000a900473ffffffffffffffffffffffffffffffffffffffff1673ffffffffffffffffffffffffffffffffffffffff163373ffffffffffffffffffffffffffffffffffffffff1614610e6f576040517f08c379a0000000000000000000000000000000000000000000000000000000008152600401610e6690612572565b60405180910390fd5b6000600654905082600681905550426006543373ffffffffffffffffffffffffffffffffffffffff167f06403715997d4fe2f9f7585b59802b551be29c70f61af541f97386bcaa1f8d4984604051610ec791906122cf565b60405180910390a450919050565b6000600260009054906101000a900473ffffffffffffffffffffffffffffffffffffffff1673ffffffffffffffffffffffffffffffffffffffff163373ffffffffffffffffffffffffffffffffffffffff1614610f67576040517f08c379a0000000000000000000000000000000000000000000000000000000008152600401610f5e90612572565b60405180910390fd5b610f718383611d55565b905092915050565b600f5481565b60075481565b6000610f9082611df7565b9050919050565b600d5481565b600260009054906101000a900473ffffffffffffffffffffffffffffffffffffffff1673ffffffffffffffffffffffffffffffffffffffff163373ffffffffffffffffffffffffffffffffffffffff161461102d576040517f08c379a000000000000000000000000000000000000000000000000000000000815260040161102490612572565b60405180910390fd5b6000151560008054906101000a900460ff16151514611081576040517f08c379a00000000000000000000000000000000000000000000000000000000081526004016110789061266f565b60405180910390fd5b60016000806101000a81548160ff0219169083151502179055506110a3611e58565b60008060006101000a81548160ff021916908315150217905550565b60055481565b6000600260009054906101000a900473ffffffffffffffffffffffffffffffffffffffff1673ffffffffffffffffffffffffffffffffffffffff163373ffffffffffffffffffffffffffffffffffffffff1614611157576040517f08c379a000000000000000000000000000000000000000000000000000000000815260040161114e90612572565b60405180910390fd5b6000600a549050600083905084600a8190555083600b81905550600b54600a543373ffffffffffffffffffffffffffffffffffffffff167f4ce89aa93adb8bafdc7ddc6061773865d605197ea1a77541afa107c9abe8cd5c8585426040516111c19392919061268f565b60405180910390a4505092915050565b6000600260009054906101000a900473ffffffffffffffffffffffffffffffffffffffff1673ffffffffffffffffffffffffffffffffffffffff163373ffffffffffffffffffffffffffffffffffffffff1614611263576040517f08c379a000000000000000000000000000000000000000000000000000000000815260040161125a90612572565b60405180910390fd5b6000600d54905082600d8190555042600d543373ffffffffffffffffffffffffffffffffffffffff167f94a4ce4f658c0cb80a75f72ee9be12bf0e43be440d70c7293c8cbc3cc6ed8672846040516112bb91906122cf565b60405180910390a450919050565b6000600260009054906101000a900473ffffffffffffffffffffffffffffffffffffffff1673ffffffffffffffffffffffffffffffffffffffff163373ffffffffffffffffffffffffffffffffffffffff161461135b576040517f08c379a000000000000000000000000000000000000000000000000000000000815260040161135290612572565b60405180910390fd5b6113658383611f11565b905092915050565b6000600260009054906101000a900473ffffffffffffffffffffffffffffffffffffffff1673ffffffffffffffffffffffffffffffffffffffff163373ffffffffffffffffffffffffffffffffffffffff16146113ff576040517f08c379a00000000000000000000000000000000000000000000000000000000081526004016113f690612572565b60405180910390fd5b6000600954905082600981905550426009543373ffffffffffffffffffffffffffffffffffffffff167fb5b77994ac42b763f4b57c1c03b5b2ba471e7aefe8ab19d99bd81be07d0e78518460405161145791906122cf565b60405180910390a450919050565b50565b600c5481565b6000600260009054906101000a900473ffffffffffffffffffffffffffffffffffffffff1673ffffffffffffffffffffffffffffffffffffffff163373ffffffffffffffffffffffffffffffffffffffff1614611500576040517f08c379a00000000000000000000000000000000000000000000000000000000081526004016114f790612572565b60405180910390fd5b6000600854905082600881905550426008543373ffffffffffffffffffffffffffffffffffffffff167fe50cbf802e464265ce9d3aae039ac0bf2e942407e205efa4dc9c0d565d1e06178460405161155891906122cf565b60405180910390a450919050565b60008060019054906101000a900460ff16905090565b6000600260009054906101000a900473ffffffffffffffffffffffffffffffffffffffff1673ffffffffffffffffffffffffffffffffffffffff163373ffffffffffffffffffffffffffffffffffffffff161461160e576040517f08c379a000000000000000000000000000000000000000000000000000000000815260040161160590612572565b60405180910390fd5b6000600c54905082600c8190555042600c543373ffffffffffffffffffffffffffffffffffffffff167ffd27186b5b06bb0abc85385b8e907fe9145ac75075115bbfb59eeac15e2a38f98460405161166691906122cf565b60405180910390a450919050565b600060048054905082106116bd576040517f08c379a00000000000000000000000000000000000000000000000000000000081526004016116b490612712565b60405180910390fd5b6116c682611fb3565b9050919050565b600a5481565b60006116df8383611fdb565b905092915050565b60006116f282612018565b9050919050565b600260009054906101000a900473ffffffffffffffffffffffffffffffffffffffff1673ffffffffffffffffffffffffffffffffffffffff163373ffffffffffffffffffffffffffffffffffffffff1614611789576040517f08c379a000000000000000000000000000000000000000000000000000000000815260040161178090612572565b60405180910390fd5b6000151560008054906101000a900460ff161515146117dd576040517f08c379a00000000000000000000000000000000000000000000000000000000081526004016117d49061266f565b60405180910390fd5b60016000806101000a81548160ff0219169083151502179055506117ff61203b565b60008060006101000a81548160ff021916908315150217905550565b600b5481565b6000600260009054906101000a900473ffffffffffffffffffffffffffffffffffffffff1673ffffffffffffffffffffffffffffffffffffffff163373ffffffffffffffffffffffffffffffffffffffff16146118b3576040517f08c379a00000000000000000000000000000000000000000000000000000000081526004016118aa90612572565b60405180910390fd5b6000600f54905082600f8190555042600f543373ffffffffffffffffffffffffffffffffffffffff167ff00afe6a0c954abee03186f00fc4805dacac7759356f090e2803b71155888edf8460405161190b91906122cf565b60405180910390a450919050565b600060106000838152602001908152602001600020600201805490509050919050565b600060116000838152602001908152602001600020600201805490509050919050565b600061196a826120f6565b9050919050565b600061197c82612157565b9050919050565b60085481565b6000611995838361217a565b905092915050565b600e5481565b60095481565b606060011515600060019054906101000a900460ff16151514156119e7576040518060600160405280603d815260200161289d603d91399050611a20565b6040518060400160405280601681526020017f436f6e7472616374206973206e6f74207061757365640000000000000000000081525090505b90565b6000600260009054906101000a900473ffffffffffffffffffffffffffffffffffffffff1673ffffffffffffffffffffffffffffffffffffffff163373ffffffffffffffffffffffffffffffffffffffff1614611ab5576040517f08c379a0000000000000000000000000000000000000000000000000000000008152600401611aac90612572565b60405180910390fd5b6000600754905082600781905550426007543373ffffffffffffffffffffffffffffffffffffffff167f4167d03bb850949b07518fa64067465d7da592fcc03b73bbed505ff85a3b6b6a84604051611b0d91906122cf565b60405180910390a450919050565b6000600260009054906101000a900473ffffffffffffffffffffffffffffffffffffffff1673ffffffffffffffffffffffffffffffffffffffff163373ffffffffffffffffffffffffffffffffffffffff1614611bad576040517f08c379a0000000000000000000000000000000000000000000000000000000008152600401611ba490612572565b60405180910390fd5b6000600e54905082600e8190555042600e543373ffffffffffffffffffffffffffffffffffffffff167f1167e818614d931d4346c17b9a2bee2456e36f5f833d6e387504450b609ca09284604051611c0591906122cf565b60405180910390a450919050565b60065481565b60006010600083815260200190815260200160002060020160016010600085815260200190815260200160002060020180549050611c579190612761565b81548110611c6857611c67612795565b5b90600052602060002001549050919050565b60006011600083815260200190815260200160002060010160016011600085815260200190815260200160002060010180549050611cb89190612761565b81548110611cc957611cc8612795565b5b90600052602060002001549050919050565b6000601160008481526020019081526020016000206001018281548110611d0557611d04612795565b5b9060005260206000200154905092915050565b6000601060008481526020019081526020016000206001018281548110611d4257611d41612795565b5b9060005260206000200154905092915050565b6000806011600085815260200190815260200160002090508060020180549050816001018054905014611d8c576000915050611df1565b838160000181905550806001014290806001815401808255809150506001900390600052602060002001600090919091909150558060020183908060018154018082558091505060019003906000526020600020016000909190919091505560019150505b92915050565b60006010600083815260200190815260200160002060010160016010600085815260200190815260200160002060010180549050611e359190612761565b81548110611e4657611e45612795565b5b90600052602060002001549050919050565b611e60611566565b611e9f576040517f08c379a0000000000000000000000000000000000000000000000000000000008152600401611e9690612810565b60405180910390fd5b60008060016101000a81548160ff021916908315150217905550611ec16121b7565b73ffffffffffffffffffffffffffffffffffffffff167fd90c20276b7955800df9b223f244944b25b581f437448b1978aa61d4036b428a6000604051611f079190612242565b60405180910390a2565b6000806010600085815260200190815260200160002090508060020180549050816001018054905014611f48576000915050611fad565b838160000181905550806001014290806001815401808255809150506001900390600052602060002001600090919091909150558060020183908060018154018082558091505060019003906000526020600020016000909190919091505560019150505b92915050565b600060048281548110611fc957611fc8612795565b5b90600052602060002001549050919050565b600060106000848152602001908152602001600020600201828154811061200557612004612795565b5b9060005260206000200154905092915050565b600060106000838152602001908152602001600020600101805490509050919050565b612043611566565b15612083576040517f08c379a000000000000000000000000000000000000000000000000000000000815260040161207a9061287c565b60405180910390fd5b6001600060016101000a81548160ff0219169083151502179055506120a66121b7565b73ffffffffffffffffffffffffffffffffffffffff167fd90c20276b7955800df9b223f244944b25b581f437448b1978aa61d4036b428a60016040516120ec9190612242565b60405180910390a2565b600060116000838152602001908152602001600020600201600160116000858152602001908152602001600020600201805490506121349190612761565b8154811061214557612144612795565b5b90600052602060002001549050919050565b600060116000838152602001908152602001600020600101805490509050919050565b60006011600084815260200190815260200160002060020182815481106121a4576121a3612795565b5b9060005260206000200154905092915050565b600033905090565b600080fd5b6000819050919050565b6121d7816121c4565b81146121e257600080fd5b50565b6000813590506121f4816121ce565b92915050565b6000602082840312156122105761220f6121bf565b5b600061221e848285016121e5565b91505092915050565b60008115159050919050565b61223c81612227565b82525050565b60006020820190506122576000830184612233565b92915050565b6000819050919050565b6122708161225d565b811461227b57600080fd5b50565b60008135905061228d81612267565b92915050565b6000602082840312156122a9576122a86121bf565b5b60006122b78482850161227e565b91505092915050565b6122c9816121c4565b82525050565b60006020820190506122e460008301846122c0565b92915050565b600073ffffffffffffffffffffffffffffffffffffffff82169050919050565b6000612315826122ea565b9050919050565b6123258161230a565b811461233057600080fd5b50565b6000813590506123428161231c565b92915050565b600080600060608486031215612361576123606121bf565b5b600061236f86828701612333565b935050602061238086828701612333565b9250506040612391868287016121e5565b9150509250925092565b600080604083850312156123b2576123b16121bf565b5b60006123c08582860161227e565b92505060206123d1858286016121e5565b9150509250929050565b600080604083850312156123f2576123f16121bf565b5b6000612400858286016121e5565b9250506020612411858286016121e5565b9150509250929050565b6124248161225d565b82525050565b600060208201905061243f600083018461241b565b92915050565b600081519050919050565b600082825260208201905092915050565b60005b8381101561247f578082015181840152602081019050612464565b8381111561248e576000848401525b50505050565b6000601f19601f8301169050919050565b60006124b082612445565b6124ba8185612450565b93506124ca818560208601612461565b6124d381612494565b840191505092915050565b600060208201905081810360008301526124f881846124a5565b905092915050565b7f4f6e6c792074686520636f6d7074726f6c6c65722061646d696e2063616e206d60008201527f6f6469667920746869732066756e6374696f6e00000000000000000000000000602082015250565b600061255c603383612450565b915061256782612500565b604082019050919050565b6000602082019050818103600083015261258b8161254f565b9050919050565b61259b8161230a565b82525050565b60006040820190506125b66000830185612592565b6125c360208301846122c0565b9392505050565b6125d381612227565b81146125de57600080fd5b50565b6000815190506125f0816125ca565b92915050565b60006020828403121561260c5761260b6121bf565b5b600061261a848285016125e1565b91505092915050565b7f52652d656e7472616e7420616c65727421000000000000000000000000000000600082015250565b6000612659601183612450565b915061266482612623565b602082019050919050565b600060208201905081810360008301526126888161264c565b9050919050565b60006060820190506126a460008301866122c0565b6126b160208301856122c0565b6126be60408301846122c0565b949350505050565b7f436f6d6d69746d656e7420496e646578206f7574206f662072616e6765000000600082015250565b60006126fc601d83612450565b9150612707826126c6565b602082019050919050565b6000602082019050818103600083015261272b816126ef565b9050919050565b7f4e487b7100000000000000000000000000000000000000000000000000000000600052601160045260246000fd5b600061276c826121c4565b9150612777836121c4565b92508282101561278a57612789612732565b5b828203905092915050565b7f4e487b7100000000000000000000000000000000000000000000000000000000600052603260045260246000fd5b7f4e6f742070617573656420737461747573000000000000000000000000000000600082015250565b60006127fa601183612450565b9150612805826127c4565b602082019050919050565b60006020820190508181036000830152612829816127ed565b9050919050565b7f5061757365642073746174757300000000000000000000000000000000000000600082015250565b6000612866600d83612450565b915061287182612830565b602082019050919050565b6000602082019050818103600083015261289581612859565b905091905056fe436f6e7472616374206973207061757365642e20546f6b656e207472616e7366657273206172652074656d706f726172696c792064697361626c65642ea2646970667358221220f8df4da1806ac4360c6e573db9ce50c0bd29017c824f3b6c4d7900a86c254c5464736f6c63430008090033",
  "immutableReferences": {},
  "source": "// SPDX-License-Identifier: MIT\r\npragma solidity >=0.8.9 <0.9.0;\r\nimport \"./util/Address.sol\";\r\nimport \"./util/Pausable.sol\";\r\nimport \"./util/IBEP20.sol\";\r\n\r\ncontract Comptroller is Pausable {\r\n\tusing Address for address;\r\n\r\n\tbytes32 adminComptroller;\r\n\taddress adminComptrollerAddress;\r\n\taddress superAdminAddress;\r\n\r\n\t// uint public latestAPR;\r\n\t// uint public latestAPY;\r\n\t\r\n\tbytes32[] commitment; // NONE, TWOWEEKS, ONEMONTH, THREEMONTHS\r\n\t\r\n\tuint public reserveFactor;\r\n\tuint public loanIssuanceFees;\r\n\tuint public loanClosureFees;\r\n\tuint public loanPreClosureFees;\r\n\tuint public depositPreClosureFees;\r\n\tuint public maxWithdrawalFactor;\r\n\tuint public maxWithdrawalBlockLimit;\r\n\tuint public depositWithdrawalFees;\r\n\tuint public collateralReleaseFees;\r\n\tuint public yieldConversionFees;\r\n\tuint public marketSwapFees;\r\n\r\n/// @notice each APY or APR struct holds the recorded changes in interest data & the\r\n/// corresponding time for a particular commitment type.\r\n\tstruct APY  {\r\n\t\tbytes32 commitment; \r\n\t\tuint[] time; // ledger of time when the APY changes were made.\r\n\t\tuint[] apyChanges; // ledger of APY changes.\r\n\t}\r\n\r\n\tstruct APR  {\r\n\t\tbytes32 commitment; // validity\r\n\t\tuint[] time; // ledger of time when the APR changes were made.\r\n\t\tuint[] aprChanges; // Per block.timestamp APR is tabulated in here.\r\n\t}\t\r\n\t// Latest Individual apy/apr data\r\n\tmapping(bytes32 => APY) indAPYRecords;\r\n\tmapping(bytes32 => APR) indAPRRecords;\r\n\r\n\r\n\tevent APRupdated(address indexed admin, uint indexed newAPR, uint oldAPR, uint indexed timestamp);\r\n\tevent APYupdated(address indexed admin, uint indexed newAPY, uint oldAPY, uint indexed timestamp);\r\n\t\r\n\tevent ReserveFactorUpdated(address indexed admin, uint oldReserveFactor, uint indexed newReserveFactor, uint indexed timestamp);\r\n\tevent LoanIssuanceFeesUpdated(address indexed admin, uint oldFees, uint indexed newFees, uint indexed timestamp);\r\n\tevent LoanClosureFeesUpdated(address indexed admin, uint oldFees, uint indexed newFees, uint indexed timestamp);\r\n\tevent LoanPreClosureFeesUpdated(address indexed admin, uint oldFees, uint indexed newFees, uint indexed timestamp);\r\n\tevent DepositPreClosureFeesUpdated(address indexed admin, uint oldFees, uint indexed newFees, uint indexed timestamp);\r\n\tevent DepositWithdrawalFeesUpdated(address indexed admin, uint oldFees, uint indexed newFees, uint indexed timestamp);\r\n\tevent CollateralReleaseFeesUpdated(address indexed admin, uint oldFees, uint indexed newFees, uint indexed timestamp);\r\n\tevent YieldConversionFeesUpdated(address indexed admin, uint oldFees, uint indexed newFees, uint indexed timestamp);\r\n\tevent MarketSwapFeesUpdated(address indexed admin, uint oldFees, uint indexed newFees, uint indexed timestamp);\r\n\tevent MaxWithdrawalUpdated(address indexed admin, uint indexed newFactor, uint indexed newBlockLimit, uint oldFactor, uint oldBlockLimit, uint timestamp);\r\n\t\r\n\tconstructor(address superAdminAddr_) {\r\n\t\tsuperAdminAddress = superAdminAddr_;\r\n\t\tadminComptrollerAddress = msg.sender;\r\n\t}\r\n\t\r\n\treceive() external payable {\r\n\t\t payable(adminComptrollerAddress).transfer(_msgValue());\r\n\t}\r\n\t\r\n\tfallback() external payable {\r\n\t\tpayable(adminComptrollerAddress).transfer(_msgValue());\r\n\t}\r\n\t\r\n\tfunction transferAnyBEP20(address token_,address recipient_,uint256 value_) external returns(bool) {\r\n\t\tIBEP20(token_).transfer(recipient_, value_);\r\n\t\treturn true;\r\n\t}\r\n\t\r\n\tfunction getAPR(bytes32 _commitment) external view returns (uint) {\r\n\t\treturn _getAPR(_commitment);\r\n\t}\r\n\tfunction getAPR(bytes32 _commitment, uint index) external view returns (uint) {\r\n\t\treturn _getAPR(_commitment, index);\r\n\t}\r\n\r\n\t// function getAPY() external view returns (uint) {\r\n\t//   return apy;\r\n\t// }\r\n\r\n\tfunction getAPY(bytes32 _commitment) external view returns (uint) {\r\n\t\treturn _getAPY(_commitment);\r\n\t}\r\n\r\n\tfunction getAPY(bytes32 _commitment, uint _index) external view returns (uint) {\r\n\t\treturn _getAPY(_commitment, _index);\r\n\t}\r\n\r\n\tfunction getApytimeber(bytes32 _commitment, uint _index) external view returns (uint){\r\n\t\treturn _getApytimeber(_commitment, _index);\r\n\t}\r\n\r\n\tfunction getAprtimeber(bytes32 _commitment, uint _index) external view returns (uint){\r\n\t\treturn _getAprtimeber(_commitment, _index);\r\n\t}\r\n\r\n\tfunction getApyRecordCount(bytes32 _commitment) external view returns (uint) {\r\n\t\treturn indAPYRecords[_commitment].apyChanges.length;\r\n\t}\r\n\r\n\tfunction getAprRecordCount(bytes32 _commitment) external view returns (uint) {\r\n\t\treturn indAPRRecords[_commitment].aprChanges.length;\r\n\t}\r\n\r\n\tfunction getApyLastTime(bytes32 commitment_) external view returns (uint) {\r\n\t\treturn _getApyLastTime(commitment_);\r\n\t}\r\n\r\n\tfunction _getApyLastTime(bytes32 commitment_) internal view returns (uint) {\r\n\t\treturn indAPYRecords[commitment_].time[indAPYRecords[commitment_].time.length - 1];\r\n\t}\r\n\r\n\tfunction getAprLastTime(bytes32 commitment_) external view returns (uint) {\r\n\t\treturn _getAprLastTime(commitment_);\r\n\t}\r\n\r\n\tfunction _getAprLastTime(bytes32 commitment_) internal view returns (uint) {\r\n\t\treturn indAPRRecords[commitment_].time[indAPRRecords[commitment_].time.length - 1];\r\n\t}\r\n\r\n\tfunction getApyTimeLength(bytes32 commitment_) external view returns (uint) {\r\n\t\treturn _getApyTimeLength(commitment_);\r\n\t}\r\n\r\n\tfunction _getApyTimeLength(bytes32 commitment_) internal view returns (uint) {\r\n\t\treturn indAPYRecords[commitment_].time.length;\r\n\t}\r\n\r\n\tfunction getAprTimeLength(bytes32 commitment_) external view returns (uint) {\r\n\t\treturn _getAprTimeLength(commitment_);\r\n\t}\r\n\r\n\tfunction _getAprTimeLength(bytes32 commitment_) internal view returns (uint) {\r\n\t\treturn indAPRRecords[commitment_].time.length;\r\n\t}\r\n\r\n\tfunction getCommitment(uint index_) external view returns (bytes32) {\r\n\t\trequire(index_ < commitment.length, \"Commitment Index out of range\");\r\n\t\treturn _getCommitment(index_);\r\n\t}\r\n\r\n\tfunction _getCommitment(uint index_)internal view returns (bytes32) {\r\n\t\treturn commitment[index_];\r\n\t}\r\n\r\n\tfunction _getAPY(bytes32 _commitment) internal view returns (uint) {\r\n\t\treturn indAPYRecords[_commitment].apyChanges[indAPYRecords[_commitment].apyChanges.length - 1];\r\n\t}\r\n\r\n\tfunction _getAPY(bytes32 _commitment, uint _index) internal view returns (uint) {\r\n\t\treturn indAPYRecords[_commitment].apyChanges[_index];\r\n\t}\r\n\r\n\tfunction _getAPR(bytes32 _commitment) internal view returns (uint){\r\n\t\treturn indAPRRecords[_commitment].aprChanges[indAPRRecords[_commitment].aprChanges.length - 1];\r\n\t}\r\n\r\n\tfunction _getAPR(bytes32 _commitment, uint _index) internal view returns (uint) {\r\n\t\treturn indAPRRecords[_commitment].aprChanges[_index];\r\n\t}\r\n\r\n\tfunction _getApytimeber(bytes32 _commitment, uint _index) internal view returns (uint) {\r\n\t\treturn indAPYRecords[_commitment].time[_index];\r\n\t}\r\n\r\n\tfunction _getAprtimeber(bytes32 _commitment, uint _index) internal view returns (uint) {\r\n\t\treturn indAPRRecords[_commitment].time[_index];\r\n\t}\r\n\r\n\tfunction liquidationTrigger(uint loanID) external {}\r\n\r\n\t// SETTERS\r\n\tfunction updateAPY(bytes32 _commitment, uint _apy) external authComptroller() returns (bool) {\r\n\t\treturn _updateApy(_commitment, _apy);\r\n\t}\r\n\r\n\tfunction updateAPR(bytes32 _commitment, uint _apr) external authComptroller() returns (bool ){\r\n\t\treturn _updateApr(_commitment, _apr);\r\n\t}\r\n\r\n\tfunction _updateApy(bytes32 _commitment, uint _apy) internal returns (bool) {\r\n\t\tAPY storage apyUpdate = indAPYRecords[_commitment];\r\n\r\n\t\tif(apyUpdate.time.length != apyUpdate.apyChanges.length) return false;\r\n\r\n\t\tapyUpdate.commitment = _commitment;\r\n\t\tapyUpdate.time.push(block.timestamp);\r\n\t\tapyUpdate.apyChanges.push(_apy);\r\n\t\treturn true;\r\n\t}\r\n\t\r\n\tfunction _updateApr(bytes32 _commitment, uint _apr) internal returns (bool) {\r\n\t\tAPR storage aprUpdate = indAPRRecords[_commitment];\r\n\r\n\t\tif(aprUpdate.time.length != aprUpdate.aprChanges.length) return false;\r\n\r\n\t\taprUpdate.commitment = _commitment;\r\n\t\taprUpdate.time.push(block.timestamp);\r\n\t\taprUpdate.aprChanges.push(_apr);\r\n\t\treturn true;\r\n\t}\r\n\r\n\t// function _calcAPR(bytes32 _commitment, uint oldLengthAccruedInterest, uint oldTime, uint aggregateInterest) internal view {\r\n\t\t\r\n\t// \tAPR storage apr = indAPRRecords[_commitment];\r\n\r\n\t// \tuint256 index = oldLengthAccruedInterest - 1;\r\n\t// \tuint256 time = oldTime;\r\n\r\n\t// \t// 1. apr.time.length > oldLengthAccruedInterest => there is some change.\r\n\r\n\t// \tif (apr.time.length > oldLengthAccruedInterest)  {\r\n\r\n\t// \t\tif (apr.time[index] < time) {\r\n\t// \t\t\tuint256 newIndex = index + 1;\r\n\t// \t\t\t// Convert the aprChanges to the lowest unit value.\r\n\t// \t\t\taggregateInterest = (((apr.time[newIndex] - time) *apr.aprChanges[index])/100)*365/(100*1000);\r\n\t\t\t\r\n\t// \t\t\tfor (uint256 i = newIndex; i < apr.aprChanges.length; i++) {\r\n\t// \t\t\t\tuint256 timeDiff = apr.time[i + 1] - apr.time[i];\r\n\t// \t\t\t\taggregateInterest += (timeDiff*apr.aprChanges[newIndex] / 100)*365/(100*1000);\r\n\t// \t\t\t}\r\n\t// \t\t}\r\n\t// \t\telse if (apr.time[index] == time) {\r\n\t// \t\t\tfor (uint256 i = index; i < apr.aprChanges.length; i++) {\r\n\t// \t\t\t\tuint256 timeDiff = apr.time[i + 1] - apr.time[i];\r\n\t// \t\t\t\taggregateInterest += (timeDiff*apr.aprChanges[index] / 100)*365/(100*1000);\r\n\t// \t\t\t}\r\n\t// \t\t}\r\n\t// \t} else if (apr.time.length == oldLengthAccruedInterest && block.timestamp > oldLengthAccruedInterest) {\r\n\t// \t\tif (apr.time[index] < time || apr.time[index] == time) {\r\n\t// \t\t\taggregateInterest += (block.timestamp - time)*apr.aprChanges[index]/100;\r\n\t// \t\t\t// Convert the aprChanges to the lowest unit value.\r\n\t// \t\t\t// aggregateYield = (((apr.time[newIndex] - time) *apr.aprChanges[index])/100)*365/(100*1000);\r\n\t// \t\t}\r\n\t// \t}\r\n\t// \toldLengthAccruedInterest = apr.time.length;\r\n\t// \toldTime = block.timestamp;\r\n\t// }\r\n\r\n\r\n\t// function _calcAPY(bytes32 _commitment, uint oldLengthAccruedYield, uint oldTime, uint aggregateYield) internal  view {\r\n\t\t\r\n\t// \tAPY storage apy = indAPYRecords[_commitment];\r\n\r\n\t// \tuint256 index = oldLengthAccruedYield - 1;\r\n\t// \tuint256 time = oldTime;\r\n\r\n\t// \t// 1. apr.time.length > oldLengthAccruedInterest => there is some change.\r\n\r\n\t// \tif (apy.time.length > oldLengthAccruedYield)  {\r\n\r\n\t// \t\tif (apy.time[index] < time) {\r\n\t// \t\t\tuint256 newIndex = index + 1;\r\n\t// \t\t\t// Convert the aprChanges to the lowest unit value.\r\n\t// \t\t\taggregateYield = (((apy.time[newIndex] - time) *apy.apyChanges[index])/100)*365/(100*1000);\r\n\t\t\t\r\n\t// \t\t\tfor (uint256 i = newIndex; i < apy.apyChanges.length; i++) {\r\n\t// \t\t\t\tuint256 timeDiff = apy.time[i + 1] - apy.time[i];\r\n\t// \t\t\t\taggregateYield += (timeDiff*apy.apyChanges[newIndex] / 100)*365/(100*1000);\r\n\t// \t\t\t}\r\n\t// \t\t}\r\n\t// \t\telse if (apy.time[index] == time) {\r\n\t// \t\t\tfor (uint256 i = index; i < apy.apyChanges.length; i++) {\r\n\t// \t\t\t\tuint256 timeDiff = apy.time[i + 1] - apy.time[i];\r\n\t// \t\t\t\taggregateYield += (timeDiff*apy.apyChanges[index] / 100)*365/(100*1000);\r\n\t// \t\t\t}\r\n\t// \t\t}\r\n\t// \t} else if (apy.time.length == oldLengthAccruedYield && block.timestamp > oldLengthAccruedYield) {\r\n\t// \t\tif (apy.time[index] < time || apy.time[index] == time) {\r\n\t// \t\t\taggregateYield += (block.timestamp - time)*apy.apyChanges[index]/100;\r\n\t// \t\t\t// Convert the aprChanges to the lowest unit value.\r\n\t// \t\t\t// aggregateYield = (((apr.time[newIndex] - time) *apr.aprChanges[index])/100)*365/(100*1000);\r\n\t// \t\t}\r\n\t// \t}\r\n\t// \toldLengthAccruedYield = apy.time.length;\r\n\t// \toldTime = block.timestamp;\r\n\t// }\r\n\r\n\tfunction updateLoanIssuanceFees(uint fees) external authComptroller() returns(bool success){\r\n\t\tuint oldFees = loanIssuanceFees;\r\n\t\tloanIssuanceFees = fees;\r\n\r\n\t\temit LoanIssuanceFeesUpdated(msg.sender, oldFees, loanIssuanceFees, block.timestamp);\r\n\t\treturn success;\r\n\t}\r\n\tfunction updateLoanClosureFees(uint fees) external authComptroller() returns(bool success){\r\n\t\tuint oldFees = loanClosureFees;\r\n\t\tloanClosureFees = fees;\r\n\r\n\t\temit LoanClosureFeesUpdated(msg.sender, oldFees, loanClosureFees, block.timestamp);\r\n\t\treturn success;\r\n\t}\r\n\r\n\tfunction updateLoanPreClosureFees(uint fees) external authComptroller() returns(bool success){\r\n\t\tuint oldFees = loanPreClosureFees;\r\n\t\tloanPreClosureFees = fees;\r\n\r\n\t\temit LoanPreClosureFeesUpdated(msg.sender, oldFees, loanPreClosureFees, block.timestamp);\r\n\t\treturn success;\r\n\t}\r\n\tfunction updateDepositPreclosureFees(uint fees) external authComptroller() returns(bool success){\r\n\t\tuint oldFees = depositPreClosureFees;\r\n\t\tdepositPreClosureFees = fees;\r\n\r\n\t\temit DepositPreClosureFeesUpdated(msg.sender, oldFees, depositPreClosureFees, block.timestamp);\r\n\t\treturn success;\r\n\t}\r\n\r\n\tfunction updateWithdrawalFees(uint fees) external authComptroller() returns(bool success){\r\n\t\tuint oldFees = depositWithdrawalFees;\r\n\t\tdepositWithdrawalFees = fees;\r\n\r\n\t\temit DepositWithdrawalFeesUpdated(msg.sender, oldFees, depositWithdrawalFees, block.timestamp);\r\n\t\treturn success;\r\n\t}\r\n\r\n\tfunction updateCollateralReleaseFees(uint fees) external authComptroller() returns(bool success){\r\n\t\tuint oldFees = collateralReleaseFees;\r\n\t\tcollateralReleaseFees = fees;\r\n\r\n\t\temit CollateralReleaseFeesUpdated(msg.sender, oldFees, collateralReleaseFees, block.timestamp);\r\n\t\treturn success;\r\n\t}\r\n\t\r\n\tfunction updateYieldConversion(uint fees) external authComptroller() returns(bool success){\r\n\t\tuint oldFees = yieldConversionFees;\r\n\t\tyieldConversionFees = fees;\r\n\r\n\t\temit YieldConversionFeesUpdated(msg.sender, oldFees, yieldConversionFees, block.timestamp);\r\n\t\treturn success;\r\n\t}\r\n\tfunction updateMarketSwapFees(uint fees) external authComptroller() returns(bool success){\r\n\t\tuint oldFees = marketSwapFees;\r\n\t\tmarketSwapFees = fees;\r\n\r\n\t\temit MarketSwapFeesUpdated(msg.sender, oldFees, marketSwapFees, block.timestamp);\r\n\t\treturn success;\r\n\t}\r\n\r\n\tfunction updateReserveFactor(uint _reserveFactor) external  authComptroller() returns(bool success){\r\n\t \t// implementing the barebones version for testnet. \r\n\t\t//  if cdr >= reserveFactor, 1:3 possible, else 1:2 possible.\r\n\t\tuint oldReserveFactor = reserveFactor;\r\n\t\t reserveFactor = _reserveFactor;\r\n\t\t \r\n\t\t emit ReserveFactorUpdated(msg.sender,oldReserveFactor, reserveFactor, block.timestamp);\r\n\t\t return success;\r\n\t} \r\n\r\n// this function sets a maximum permissible amount that can be moved in a single transaction without the admin permissions.\r\n\tfunction updateMaxWithdrawal(uint factor, uint blockLimit) external authComptroller() returns(bool success){\r\n\t\t\r\n\t\tuint oldFactor = maxWithdrawalFactor; \r\n\t\tuint oldBlockLimit = blockLimit;\r\n\r\n\t\tmaxWithdrawalFactor = factor;\r\n\t\tmaxWithdrawalBlockLimit = blockLimit;\r\n\r\n\t\temit MaxWithdrawalUpdated(msg.sender, maxWithdrawalFactor, maxWithdrawalBlockLimit, oldFactor, oldBlockLimit, block.timestamp);\r\n\t\treturn success;\r\n\t} \r\n\r\n\tmodifier authComptroller() {\r\n\t\trequire(msg.sender == adminComptrollerAddress,\r\n\t\t\t\"Only the comptroller admin can modify this function\" \r\n\t\t);\r\n\t\t_;\r\n\t}\r\n\r\n\tfunction pause() external authComptroller() nonReentrant() {\r\n\t\t\t _pause();\r\n\t}\r\n\t\r\n\tfunction unpause() external authComptroller() nonReentrant() {\r\n\t\t\t _unpause();   \r\n\t}\r\n\r\n}\r\n\r\n\r\n\r\n// struct ApyLedger()\r\n// struct APRLedger()\r\n// permissibleCDR()\r\n// reserveFactor() - ReserveFactor is an integer from 1 to 100. Here 1 means 1%.\r\n// 100 means 100%. Reserve factor determines the minimum reserves that need\r\n// maintaining. Minimum reserves against the total deposits.\r\n\r\n// permissionlessWithdrawal(uint factor, uint blockLimit) - This function like reserve factor takes an input\r\n// from 1 to 100. If 1, it means, upto 1% of total available reserves can be\r\n// released within a defined block limit. Eg: factor = 10, blockLimit = 4800.\r\n// This means, 10% of reserves can be withdrawn during a 4800 bsc block window.\r\n// This check is implemented to mitigate excess loss of funds during exploits.\r\n\r\n// updateApy()\r\n// updateAPR()\r\n// updatePreclosureCharges()\r\n// updateLoanIssuanceFees()\r\n// updateLoanClosureFees()\r\n// updateConvertYieldFees()\r\n\r\n\r\n\r\n// fallback() / receive()\r\n// transferAnyERC20()\r\n// pause\r\n// auth(superAdmin || adminComptroller)\r\n",
  "sourcePath": "F:\\workspace\\Open-protocol\\contracts\\Comptroller.sol",
  "compiler": {
    "name": "solc",
    "version": "0.8.9+commit.e5eed63a.Emscripten.clang"
  },
  "schemaVersion": "3.4.3",
  "updatedAt": "2021-10-18T07:46:32.419Z",
  "devdoc": {
    "kind": "dev",
    "methods": {},
    "version": 1
  },
  "userdoc": {
    "kind": "user",
    "methods": {},
    "version": 1
  }
}