{
  "contractName": "Comptroller",
  "abi": [
    {
      "inputs": [],
      "stateMutability": "nonpayable",
      "type": "constructor"
    },
    {
      "anonymous": false,
      "inputs": [
        {
          "indexed": true,
          "internalType": "address",
          "name": "admin",
          "type": "address"
        },
        {
          "indexed": true,
          "internalType": "uint256",
          "name": "newAPR",
          "type": "uint256"
        },
        {
          "indexed": false,
          "internalType": "uint256",
          "name": "oldAPR",
          "type": "uint256"
        },
        {
          "indexed": true,
          "internalType": "uint256",
          "name": "timestamp",
          "type": "uint256"
        }
      ],
      "name": "APRupdated",
      "type": "event"
    },
    {
      "anonymous": false,
      "inputs": [
        {
          "indexed": true,
          "internalType": "address",
          "name": "admin",
          "type": "address"
        },
        {
          "indexed": true,
          "internalType": "uint256",
          "name": "newAPY",
          "type": "uint256"
        },
        {
          "indexed": false,
          "internalType": "uint256",
          "name": "oldAPY",
          "type": "uint256"
        },
        {
          "indexed": true,
          "internalType": "uint256",
          "name": "timestamp",
          "type": "uint256"
        }
      ],
      "name": "APYupdated",
      "type": "event"
    },
    {
      "anonymous": false,
      "inputs": [
        {
          "indexed": true,
          "internalType": "address",
          "name": "_pauser",
          "type": "address"
        },
        {
          "indexed": false,
          "internalType": "bool",
          "name": "isPaused",
          "type": "bool"
        }
      ],
      "name": "PauseState",
      "type": "event"
    },
    {
      "stateMutability": "payable",
      "type": "fallback"
    },
    {
      "inputs": [],
      "name": "pauseState",
      "outputs": [
        {
          "internalType": "string",
          "name": "",
          "type": "string"
        }
      ],
      "stateMutability": "view",
      "type": "function"
    },
    {
      "inputs": [],
      "name": "paused",
      "outputs": [
        {
          "internalType": "bool",
          "name": "",
          "type": "bool"
        }
      ],
      "stateMutability": "view",
      "type": "function"
    },
    {
      "stateMutability": "payable",
      "type": "receive"
    },
    {
      "inputs": [
        {
          "internalType": "address",
          "name": "token_",
          "type": "address"
        },
        {
          "internalType": "address",
          "name": "recipient_",
          "type": "address"
        },
        {
          "internalType": "uint256",
          "name": "value_",
          "type": "uint256"
        }
      ],
      "name": "transferAnyERC20",
      "outputs": [
        {
          "internalType": "bool",
          "name": "",
          "type": "bool"
        }
      ],
      "stateMutability": "nonpayable",
      "type": "function"
    },
    {
      "inputs": [
        {
          "internalType": "bytes32",
          "name": "commitment_",
          "type": "bytes32"
        }
      ],
      "name": "getAPR",
      "outputs": [
        {
          "internalType": "uint256",
          "name": "",
          "type": "uint256"
        }
      ],
      "stateMutability": "view",
      "type": "function"
    },
    {
      "inputs": [],
      "name": "getAPR",
      "outputs": [
        {
          "internalType": "uint256",
          "name": "",
          "type": "uint256"
        }
      ],
      "stateMutability": "view",
      "type": "function"
    },
    {
      "inputs": [
        {
          "internalType": "bytes32",
          "name": "commitment_",
          "type": "bytes32"
        },
        {
          "internalType": "uint256",
          "name": "index_",
          "type": "uint256"
        }
      ],
      "name": "getAPR",
      "outputs": [
        {
          "internalType": "uint256",
          "name": "",
          "type": "uint256"
        }
      ],
      "stateMutability": "view",
      "type": "function"
    },
    {
      "inputs": [
        {
          "internalType": "bytes32",
          "name": "commitment_",
          "type": "bytes32"
        }
      ],
      "name": "getAPY",
      "outputs": [
        {
          "internalType": "uint256",
          "name": "",
          "type": "uint256"
        }
      ],
      "stateMutability": "view",
      "type": "function"
    },
    {
      "inputs": [
        {
          "internalType": "bytes32",
          "name": "commitment_",
          "type": "bytes32"
        },
        {
          "internalType": "uint256",
          "name": "index_",
          "type": "uint256"
        }
      ],
      "name": "getAPY",
      "outputs": [
        {
          "internalType": "uint256",
          "name": "",
          "type": "uint256"
        }
      ],
      "stateMutability": "view",
      "type": "function"
    },
    {
      "inputs": [],
      "name": "getAPY",
      "outputs": [
        {
          "internalType": "uint256",
          "name": "",
          "type": "uint256"
        }
      ],
      "stateMutability": "view",
      "type": "function"
    },
    {
      "inputs": [
        {
          "internalType": "bytes32",
          "name": "commitment_",
          "type": "bytes32"
        },
        {
          "internalType": "uint256",
          "name": "index_",
          "type": "uint256"
        }
      ],
      "name": "getApyBlockNumber",
      "outputs": [
        {
          "internalType": "uint256",
          "name": "",
          "type": "uint256"
        }
      ],
      "stateMutability": "view",
      "type": "function"
    },
    {
      "inputs": [
        {
          "internalType": "bytes32",
          "name": "commitment_",
          "type": "bytes32"
        },
        {
          "internalType": "uint256",
          "name": "index_",
          "type": "uint256"
        }
      ],
      "name": "getAprBlockNumber",
      "outputs": [
        {
          "internalType": "uint256",
          "name": "",
          "type": "uint256"
        }
      ],
      "stateMutability": "view",
      "type": "function"
    },
    {
      "inputs": [
        {
          "internalType": "bytes32",
          "name": "commitment_",
          "type": "bytes32"
        }
      ],
      "name": "getApyRecordCount",
      "outputs": [
        {
          "internalType": "uint256",
          "name": "",
          "type": "uint256"
        }
      ],
      "stateMutability": "view",
      "type": "function"
    },
    {
      "inputs": [
        {
          "internalType": "bytes32",
          "name": "commitment_",
          "type": "bytes32"
        }
      ],
      "name": "getAprRecordCount",
      "outputs": [
        {
          "internalType": "uint256",
          "name": "",
          "type": "uint256"
        }
      ],
      "stateMutability": "view",
      "type": "function"
    },
    {
      "inputs": [],
      "name": "liquidationTrigger",
      "outputs": [],
      "stateMutability": "nonpayable",
      "type": "function"
    },
    {
      "inputs": [
        {
          "internalType": "bytes32",
          "name": "commitment_",
          "type": "bytes32"
        },
        {
          "internalType": "uint256",
          "name": "apy_",
          "type": "uint256"
        }
      ],
      "name": "updateAPY",
      "outputs": [
        {
          "internalType": "bool",
          "name": "",
          "type": "bool"
        }
      ],
      "stateMutability": "nonpayable",
      "type": "function"
    },
    {
      "inputs": [
        {
          "internalType": "bytes32",
          "name": "commitment_",
          "type": "bytes32"
        },
        {
          "internalType": "uint256",
          "name": "apr_",
          "type": "uint256"
        }
      ],
      "name": "updateAPR",
      "outputs": [
        {
          "internalType": "bool",
          "name": "",
          "type": "bool"
        }
      ],
      "stateMutability": "nonpayable",
      "type": "function"
    },
    {
      "inputs": [],
      "name": "updateLoanIssuanceFees",
      "outputs": [],
      "stateMutability": "nonpayable",
      "type": "function"
    },
    {
      "inputs": [],
      "name": "updateLoanClosureFees",
      "outputs": [],
      "stateMutability": "nonpayable",
      "type": "function"
    },
    {
      "inputs": [],
      "name": "updateLoanpreClosureFees",
      "outputs": [],
      "stateMutability": "nonpayable",
      "type": "function"
    },
    {
      "inputs": [],
      "name": "updateDepositPreclosureFees",
      "outputs": [],
      "stateMutability": "nonpayable",
      "type": "function"
    },
    {
      "inputs": [],
      "name": "updateSwitchDepositTypeFee",
      "outputs": [],
      "stateMutability": "nonpayable",
      "type": "function"
    },
    {
      "inputs": [],
      "name": "updateReserveFactor",
      "outputs": [],
      "stateMutability": "nonpayable",
      "type": "function"
    },
    {
      "inputs": [],
      "name": "updateMaxWithdrawal",
      "outputs": [],
      "stateMutability": "nonpayable",
      "type": "function"
    },
    {
      "inputs": [],
      "name": "pause",
      "outputs": [],
      "stateMutability": "nonpayable",
      "type": "function"
    },
    {
      "inputs": [],
      "name": "unpause",
      "outputs": [],
      "stateMutability": "nonpayable",
      "type": "function"
    }
  ],
  "bytecode": "0x608060405260008060006101000a81548160ff02191690831515021790555034801561002a57600080fd5b5060008060016101000a81548160ff02191690831515021790555033600260006101000a81548173ffffffffffffffffffffffffffffffffffffffff021916908373ffffffffffffffffffffffffffffffffffffffff160217905550611a9d806100956000396000f3fe60806040526004361061016a5760003560e01c8063b129cef6116100d1578063d2cbf7ad1161008a578063ea92b39f11610064578063ea92b39f14610628578063f3b3fa241461063f578063fa0de9a814610656578063fe7532fd1461066d576101e1565b8063d2cbf7ad146105bb578063d7118351146105e6578063e00fd58714610611576101e1565b8063b129cef6146104ab578063b64219ea146104e8578063be00e075146104ff578063c89d5b8b1461053c578063caa7847b14610567578063cdc1e7e6146105a4576101e1565b8063496c916911610123578063496c9169146103755780635b6f547e146103b25780635c975abb146103ef57806374ef19111461041a5780638456cb5914610457578063999fc8501461046e576101e1565b8063027b99d41461025357806303e80d481461029057806324a2ac9a146102cd5780633f4ba83a1461030a578063476015c71461032157806348690fd21461035e576101e1565b366101e157600260009054906101000a900473ffffffffffffffffffffffffffffffffffffffff1673ffffffffffffffffffffffffffffffffffffffff166108fc6101b3610684565b9081150290604051600060405180830381858888f193505050501580156101de573d6000803e3d6000fd5b50005b600260009054906101000a900473ffffffffffffffffffffffffffffffffffffffff1673ffffffffffffffffffffffffffffffffffffffff166108fc610225610684565b9081150290604051600060405180830381858888f19350505050158015610250573d6000803e3d6000fd5b50005b34801561025f57600080fd5b5061027a600480360381019061027591906114f8565b61068c565b6040516102879190611547565b60405180910390f35b34801561029c57600080fd5b506102b760048036038101906102b29190611562565b6106a0565b6040516102c49190611547565b60405180910390f35b3480156102d957600080fd5b506102f460048036038101906102ef91906114f8565b6106b2565b60405161030191906115aa565b60405180910390f35b34801561031657600080fd5b5061031f610756565b005b34801561032d57600080fd5b50610348600480360381019061034391906114f8565b610878565b6040516103559190611547565b60405180910390f35b34801561036a57600080fd5b5061037361088c565b005b34801561038157600080fd5b5061039c600480360381019061039791906114f8565b61091e565b6040516103a991906115aa565b60405180910390f35b3480156103be57600080fd5b506103d960048036038101906103d49190611623565b6109c2565b6040516103e691906115aa565b60405180910390f35b3480156103fb57600080fd5b50610404610a5d565b60405161041191906115aa565b60405180910390f35b34801561042657600080fd5b50610441600480360381019061043c91906114f8565b610a73565b60405161044e9190611547565b60405180910390f35b34801561046357600080fd5b5061046c610a87565b005b34801561047a57600080fd5b5061049560048036038101906104909190611562565b610ba9565b6040516104a29190611547565b60405180910390f35b3480156104b757600080fd5b506104d260048036038101906104cd9190611562565b610bcc565b6040516104df9190611547565b60405180910390f35b3480156104f457600080fd5b506104fd610bef565b005b34801561050b57600080fd5b5061052660048036038101906105219190611562565b610c81565b6040516105339190611547565b60405180910390f35b34801561054857600080fd5b50610551610c93565b60405161055e9190611547565b60405180910390f35b34801561057357600080fd5b5061058e600480360381019061058991906114f8565b610c9d565b60405161059b9190611547565b60405180910390f35b3480156105b057600080fd5b506105b9610cb1565b005b3480156105c757600080fd5b506105d0610d43565b6040516105dd9190611547565b60405180910390f35b3480156105f257600080fd5b506105fb610d4d565b604051610608919061170f565b60405180910390f35b34801561061d57600080fd5b50610626610dc7565b005b34801561063457600080fd5b5061063d610e59565b005b34801561064b57600080fd5b50610654610eeb565b005b34801561066257600080fd5b5061066b610f7d565b005b34801561067957600080fd5b5061068261100f565b005b600034905090565b60006106988383611011565b905092915050565b60006106ab8261104e565b9050919050565b6000600260009054906101000a900473ffffffffffffffffffffffffffffffffffffffff1673ffffffffffffffffffffffffffffffffffffffff163373ffffffffffffffffffffffffffffffffffffffff1614610744576040517f08c379a000000000000000000000000000000000000000000000000000000000815260040161073b906117a3565b60405180910390fd5b61074e83836110af565b905092915050565b600260009054906101000a900473ffffffffffffffffffffffffffffffffffffffff1673ffffffffffffffffffffffffffffffffffffffff163373ffffffffffffffffffffffffffffffffffffffff16146107e6576040517f08c379a00000000000000000000000000000000000000000000000000000000081526004016107dd906117a3565b60405180910390fd5b6000151560008054906101000a900460ff1615151461083a576040517f08c379a00000000000000000000000000000000000000000000000000000000081526004016108319061180f565b60405180910390fd5b60016000806101000a81548160ff02191690831515021790555061085c611151565b60008060006101000a81548160ff021916908315150217905550565b6000610884838361120a565b905092915050565b600260009054906101000a900473ffffffffffffffffffffffffffffffffffffffff1673ffffffffffffffffffffffffffffffffffffffff163373ffffffffffffffffffffffffffffffffffffffff161461091c576040517f08c379a0000000000000000000000000000000000000000000000000000000008152600401610913906117a3565b60405180910390fd5b565b6000600260009054906101000a900473ffffffffffffffffffffffffffffffffffffffff1673ffffffffffffffffffffffffffffffffffffffff163373ffffffffffffffffffffffffffffffffffffffff16146109b0576040517f08c379a00000000000000000000000000000000000000000000000000000000081526004016109a7906117a3565b60405180910390fd5b6109ba8383611247565b905092915050565b60008373ffffffffffffffffffffffffffffffffffffffff1663a9059cbb84846040518363ffffffff1660e01b81526004016109ff92919061183e565b602060405180830381600087803b158015610a1957600080fd5b505af1158015610a2d573d6000803e3d6000fd5b505050506040513d601f19601f82011682018060405250810190610a519190611893565b50600190509392505050565b60008060019054906101000a900460ff16905090565b6000610a7f83836112e9565b905092915050565b600260009054906101000a900473ffffffffffffffffffffffffffffffffffffffff1673ffffffffffffffffffffffffffffffffffffffff163373ffffffffffffffffffffffffffffffffffffffff1614610b17576040517f08c379a0000000000000000000000000000000000000000000000000000000008152600401610b0e906117a3565b60405180910390fd5b6000151560008054906101000a900460ff16151514610b6b576040517f08c379a0000000000000000000000000000000000000000000000000000000008152600401610b629061180f565b60405180910390fd5b60016000806101000a81548160ff021916908315150217905550610b8d611326565b60008060006101000a81548160ff021916908315150217905550565b600060056000838152602001908152602001600020600201805490509050919050565b600060066000838152602001908152602001600020600201805490509050919050565b600260009054906101000a900473ffffffffffffffffffffffffffffffffffffffff1673ffffffffffffffffffffffffffffffffffffffff163373ffffffffffffffffffffffffffffffffffffffff1614610c7f576040517f08c379a0000000000000000000000000000000000000000000000000000000008152600401610c76906117a3565b60405180910390fd5b565b6000610c8c826113e1565b9050919050565b6000600354905090565b6000610ca98383611442565b905092915050565b600260009054906101000a900473ffffffffffffffffffffffffffffffffffffffff1673ffffffffffffffffffffffffffffffffffffffff163373ffffffffffffffffffffffffffffffffffffffff1614610d41576040517f08c379a0000000000000000000000000000000000000000000000000000000008152600401610d38906117a3565b60405180910390fd5b565b6000600454905090565b606060011515600060019054906101000a900460ff1615151415610d8b576040518060600160405280603d8152602001611a2b603d91399050610dc4565b6040518060400160405280601681526020017f436f6e7472616374206973206e6f74207061757365640000000000000000000081525090505b90565b600260009054906101000a900473ffffffffffffffffffffffffffffffffffffffff1673ffffffffffffffffffffffffffffffffffffffff163373ffffffffffffffffffffffffffffffffffffffff1614610e57576040517f08c379a0000000000000000000000000000000000000000000000000000000008152600401610e4e906117a3565b60405180910390fd5b565b600260009054906101000a900473ffffffffffffffffffffffffffffffffffffffff1673ffffffffffffffffffffffffffffffffffffffff163373ffffffffffffffffffffffffffffffffffffffff1614610ee9576040517f08c379a0000000000000000000000000000000000000000000000000000000008152600401610ee0906117a3565b60405180910390fd5b565b600260009054906101000a900473ffffffffffffffffffffffffffffffffffffffff1673ffffffffffffffffffffffffffffffffffffffff163373ffffffffffffffffffffffffffffffffffffffff1614610f7b576040517f08c379a0000000000000000000000000000000000000000000000000000000008152600401610f72906117a3565b60405180910390fd5b565b600260009054906101000a900473ffffffffffffffffffffffffffffffffffffffff1673ffffffffffffffffffffffffffffffffffffffff163373ffffffffffffffffffffffffffffffffffffffff161461100d576040517f08c379a0000000000000000000000000000000000000000000000000000000008152600401611004906117a3565b60405180910390fd5b565b565b600060066000848152602001908152602001600020600101828154811061103b5761103a6118c0565b5b9060005260206000200154905092915050565b6000600560008381526020019081526020016000206002016001600560008581526020019081526020016000206002018054905061108c919061191e565b8154811061109d5761109c6118c0565b5b90600052602060002001549050919050565b60008060066000858152602001908152602001600020905080600201805490508160010180549050146110e657600091505061114b565b838160000181905550806001014390806001815401808255809150506001900390600052602060002001600090919091909150558060020183908060018154018082558091505060019003906000526020600020016000909190919091505560019150505b92915050565b611159610a5d565b611198576040517f08c379a000000000000000000000000000000000000000000000000000000000815260040161118f9061199e565b60405180910390fd5b60008060016101000a81548160ff0219169083151502179055506111ba61147f565b73ffffffffffffffffffffffffffffffffffffffff167fd90c20276b7955800df9b223f244944b25b581f437448b1978aa61d4036b428a600060405161120091906115aa565b60405180910390a2565b6000600560008481526020019081526020016000206001018281548110611234576112336118c0565b5b9060005260206000200154905092915050565b600080600560008581526020019081526020016000209050806002018054905081600101805490501461127e5760009150506112e3565b838160000181905550806001014390806001815401808255809150506001900390600052602060002001600090919091909150558060020183908060018154018082558091505060019003906000526020600020016000909190919091505560019150505b92915050565b6000600560008481526020019081526020016000206002018281548110611313576113126118c0565b5b9060005260206000200154905092915050565b61132e610a5d565b1561136e576040517f08c379a000000000000000000000000000000000000000000000000000000000815260040161136590611a0a565b60405180910390fd5b6001600060016101000a81548160ff02191690831515021790555061139161147f565b73ffffffffffffffffffffffffffffffffffffffff167fd90c20276b7955800df9b223f244944b25b581f437448b1978aa61d4036b428a60016040516113d791906115aa565b60405180910390a2565b6000600660008381526020019081526020016000206002016001600660008581526020019081526020016000206002018054905061141f919061191e565b815481106114305761142f6118c0565b5b90600052602060002001549050919050565b600060066000848152602001908152602001600020600201828154811061146c5761146b6118c0565b5b9060005260206000200154905092915050565b600033905090565b600080fd5b6000819050919050565b61149f8161148c565b81146114aa57600080fd5b50565b6000813590506114bc81611496565b92915050565b6000819050919050565b6114d5816114c2565b81146114e057600080fd5b50565b6000813590506114f2816114cc565b92915050565b6000806040838503121561150f5761150e611487565b5b600061151d858286016114ad565b925050602061152e858286016114e3565b9150509250929050565b611541816114c2565b82525050565b600060208201905061155c6000830184611538565b92915050565b60006020828403121561157857611577611487565b5b6000611586848285016114ad565b91505092915050565b60008115159050919050565b6115a48161158f565b82525050565b60006020820190506115bf600083018461159b565b92915050565b600073ffffffffffffffffffffffffffffffffffffffff82169050919050565b60006115f0826115c5565b9050919050565b611600816115e5565b811461160b57600080fd5b50565b60008135905061161d816115f7565b92915050565b60008060006060848603121561163c5761163b611487565b5b600061164a8682870161160e565b935050602061165b8682870161160e565b925050604061166c868287016114e3565b9150509250925092565b600081519050919050565b600082825260208201905092915050565b60005b838110156116b0578082015181840152602081019050611695565b838111156116bf576000848401525b50505050565b6000601f19601f8301169050919050565b60006116e182611676565b6116eb8185611681565b93506116fb818560208601611692565b611704816116c5565b840191505092915050565b6000602082019050818103600083015261172981846116d6565b905092915050565b7f4f6e6c792074686520636f6d7074726f6c6c65722061646d696e2063616e206d60008201527f6f6469667920746869732066756e6374696f6e00000000000000000000000000602082015250565b600061178d603383611681565b915061179882611731565b604082019050919050565b600060208201905081810360008301526117bc81611780565b9050919050565b7f52652d656e7472616e7420616c65727421000000000000000000000000000000600082015250565b60006117f9601183611681565b9150611804826117c3565b602082019050919050565b60006020820190508181036000830152611828816117ec565b9050919050565b611838816115e5565b82525050565b6000604082019050611853600083018561182f565b6118606020830184611538565b9392505050565b6118708161158f565b811461187b57600080fd5b50565b60008151905061188d81611867565b92915050565b6000602082840312156118a9576118a8611487565b5b60006118b78482850161187e565b91505092915050565b7f4e487b7100000000000000000000000000000000000000000000000000000000600052603260045260246000fd5b7f4e487b7100000000000000000000000000000000000000000000000000000000600052601160045260246000fd5b6000611929826114c2565b9150611934836114c2565b925082821015611947576119466118ef565b5b828203905092915050565b7f4e6f742070617573656420737461747573000000000000000000000000000000600082015250565b6000611988601183611681565b915061199382611952565b602082019050919050565b600060208201905081810360008301526119b78161197b565b9050919050565b7f5061757365642073746174757300000000000000000000000000000000000000600082015250565b60006119f4600d83611681565b91506119ff826119be565b602082019050919050565b60006020820190508181036000830152611a23816119e7565b905091905056fe436f6e7472616374206973207061757365642e20546f6b656e207472616e7366657273206172652074656d706f726172696c792064697361626c65642ea26469706673582212200ea3c8e4d797fe34ef228d1172363dbd2983905616cc57326b9fac7c9c82b2a164736f6c63430008090033",
  "immutableReferences": {},
  "source": "// SPDX-License-Identifier: MIT\r\npragma solidity >=0.8.9 <0.9.0;\r\nimport \"./util/Address.sol\";\r\nimport \"./Passbook.sol\";\r\nimport \"./util/Pausable.sol\";\r\n\r\ncontract Comptroller is Pausable {\r\n  using Address for address;\r\n\r\n  // Passbook passbook = Passbook(0x3E2884D9F6013Ac28b0323b81460f49FE8E5f401);\r\n\r\n  bytes32 adminComptroller;\r\n  address adminComptrollerAddress;\r\n\r\n  uint apr;\r\n  uint apy;\r\n\r\n  struct APY  {\r\n    bytes32 commitment; // validity\r\n    uint[] blockNumbers; // when the apy changes were made\r\n    uint[] apyChangeRecords; // the apy changes.\r\n  }\r\n\r\n  struct APR  {\r\n    bytes32 commitment; // validity\r\n    uint[] blockNumbers; // when the apy changes were made\r\n    uint[] aprChangeRecords; // the apy changes.\r\n  }\r\n\r\n  \r\n  // Latest Individual apy/apr data\r\n  mapping(bytes32 => APY) indAPYRecords;\r\n  mapping(bytes32 => APR) indAPRRecords;\r\n\r\n\r\n  event APRupdated(address indexed admin, uint indexed newAPR, uint oldAPR, uint indexed timestamp);\r\n  event APYupdated(address indexed admin, uint indexed newAPY, uint oldAPY, uint indexed timestamp);\r\n  \r\n  constructor() {\r\n    adminComptrollerAddress = msg.sender;\r\n  }\r\n  \r\n  receive() external payable {\r\n     payable(adminComptrollerAddress).transfer(_msgValue());\r\n  }\r\n    \r\n  fallback() external payable {\r\n    payable(adminComptrollerAddress).transfer(_msgValue());\r\n  }\r\n    \r\n  function transferAnyERC20(address token_,address recipient_,uint256 value_) external returns(bool) {\r\n    IBEP20(token_).transfer(recipient_, value_);\r\n    return true;\r\n  }\r\n\r\n  function getAPR() external view returns (uint) {\r\n    return apr;\r\n  }\r\n\r\n  function getAPR(bytes32 commitment_) external view returns (uint) {\r\n    return _getAPR(commitment_);\r\n  }\r\n\r\n  function getAPR(bytes32 commitment_, uint index_) external view returns (uint) {\r\n    return _getAPR(commitment_, index_);\r\n  }\r\n\r\n  function getAPY() external view returns (uint) {\r\n    return apy;\r\n  }\r\n\r\n  function getAPY(bytes32 commitment_) external view returns (uint) {\r\n    return _getAPY(commitment_);\r\n  }\r\n\r\n  function getAPY(bytes32 commitment_, uint index_) external view returns (uint) {\r\n    return _getAPY(commitment_, index_);\r\n  }\r\n\r\n  function getApyBlockNumber(bytes32 commitment_, uint index_) external view returns (uint){\r\n    return _getApyBlockNumber(commitment_, index_);\r\n  }\r\n\r\n  function getAprBlockNumber(bytes32 commitment_, uint index_) external view returns (uint){\r\n    return _getAprBlockNumber(commitment_, index_);\r\n  }\r\n\r\n  function getApyRecordCount(bytes32 commitment_) external view returns (uint) {\r\n    return indAPYRecords[commitment_].apyChangeRecords.length;\r\n  }\r\n\r\n  function getAprRecordCount(bytes32 commitment_) external view returns (uint) {\r\n    return indAPRRecords[commitment_].aprChangeRecords.length;\r\n  }\r\n\r\n  function _getAPY(bytes32 commitment_) internal view returns (uint) {\r\n    return indAPYRecords[commitment_].apyChangeRecords[indAPYRecords[commitment_].apyChangeRecords.length - 1];\r\n  }\r\n\r\n  function _getAPY(bytes32 commitment_, uint index_) internal view returns (uint) {\r\n    return indAPYRecords[commitment_].apyChangeRecords[index_];\r\n  }\r\n\r\n  function _getAPR(bytes32 commitment_) internal view returns (uint){\r\n    return indAPRRecords[commitment_].aprChangeRecords[indAPRRecords[commitment_].aprChangeRecords.length - 1];\r\n  }\r\n\r\n  function _getAPR(bytes32 commitment_, uint index_) internal view returns (uint) {\r\n    return indAPRRecords[commitment_].aprChangeRecords[index_];\r\n  }\r\n\r\n  function _getApyBlockNumber(bytes32 commitment_, uint index_) internal view returns (uint) {\r\n    return indAPYRecords[commitment_].blockNumbers[index_];\r\n  }\r\n\r\n  function _getAprBlockNumber(bytes32 commitment_, uint index_) internal view returns (uint) {\r\n    return indAPRRecords[commitment_].blockNumbers[index_];\r\n  }\r\n\r\n  function liquidationTrigger() external {}\r\n\r\n  // SETTERS\r\n  function updateAPY(bytes32 commitment_, uint apy_) external onlyAdmin returns (bool) {\r\n    return _updateApy(commitment_, apy_);\r\n  }\r\n\r\n  function updateAPR(bytes32 commitment_, uint apr_) external onlyAdmin returns (bool ){\r\n    return _updateApr(commitment_, apr_);\r\n  }\r\n\r\n  function _updateApy(bytes32 commitment_, uint apy_) internal returns (bool) {\r\n    APY storage apyUpdate = indAPYRecords[commitment_];\r\n\r\n    if(apyUpdate.blockNumbers.length != apyUpdate.apyChangeRecords.length) return false;\r\n\r\n    apyUpdate.commitment = commitment_;\r\n    apyUpdate.blockNumbers.push(block.number);\r\n    apyUpdate.apyChangeRecords.push(apy_);\r\n    return true;\r\n  }\r\n  \r\n  function _updateApr(bytes32 commitment_, uint apr_) internal returns (bool) {\r\n    APR storage aprUpdate = indAPRRecords[commitment_];\r\n\r\n    if(aprUpdate.blockNumbers.length != aprUpdate.aprChangeRecords.length) return false;\r\n\r\n    aprUpdate.commitment = commitment_;\r\n    aprUpdate.blockNumbers.push(block.number);\r\n    aprUpdate.aprChangeRecords.push(apr_);\r\n    return true;\r\n  }\r\n\r\n\r\n  function updateLoanIssuanceFees() external onlyAdmin() {}\r\n  function updateLoanClosureFees() external onlyAdmin() {}\r\n  function updateLoanpreClosureFees() external onlyAdmin() {}\r\n  function updateDepositPreclosureFees() external onlyAdmin() {}\r\n  function updateSwitchDepositTypeFee() external onlyAdmin() {}\r\n\r\n  function updateReserveFactor() external  onlyAdmin() {} // sets a factor from 0 ot 1. This factor is the minimum reserves in the system.\r\n  function updateMaxWithdrawal() external  onlyAdmin() {} // this function sets a maximum permissible amount that can be moved in a single transaction without the admin permissions.\r\n\r\n  modifier onlyAdmin() {\r\n    require(msg.sender == adminComptrollerAddress, \"Only the comptroller admin can modify this function\" );\r\n    _;\r\n  }\r\n\r\n  function pause() external onlyAdmin() nonReentrant() {\r\n       _pause();\r\n\t}\r\n\t\r\n\tfunction unpause() external onlyAdmin() nonReentrant() {\r\n       _unpause();   \r\n\t}\r\n\r\n}\r\n\r\n\r\n// calcYield()\r\n// calcInterest()\r\n// struct Passbook()\r\n// struct InterestRates()\r\n// struct ApyLedger()\r\n// struct APRLedger()\r\n// struct SupportedAssets {}\r\n// updateCdr()\r\n// updateApy() DONE\r\n// updateAPR() DONE\r\n// updatePreclosureCharges()\r\n// updateLoanIssuanceFees()\r\n// updateLoanClosureFees()\r\n// priceOracle()\r\n// balancingAccounts()\r\n// liquidationTrigger()\r\n// liquidationCall()\r\n\r\n\r\n\r\n// fallback() / receive()\r\n// transferAnyERC20()\r\n// pause\r\n// auth(superAdmin || adminComptroller)",
  "sourcePath": "F:\\workspace\\Open-protocol\\contracts\\Comptroller.sol",
  "compiler": {
    "name": "solc",
    "version": "0.8.9+commit.e5eed63a.Emscripten.clang"
  },
  "schemaVersion": "3.4.3",
  "updatedAt": "2021-09-30T23:52:23.874Z",
  "devdoc": {
    "kind": "dev",
    "methods": {},
    "version": 1
  },
  "userdoc": {
    "kind": "user",
    "methods": {},
    "version": 1
  }
}