{
  "contractName": "Comptroller",
  "abi": [
    {
      "inputs": [
        {
          "internalType": "uint256",
          "name": "apy_",
          "type": "uint256"
        },
        {
          "internalType": "uint256",
          "name": "apr_",
          "type": "uint256"
        }
      ],
      "stateMutability": "nonpayable",
      "type": "constructor"
    },
    {
      "anonymous": false,
      "inputs": [
        {
          "indexed": true,
          "internalType": "address",
          "name": "admin",
          "type": "address"
        },
        {
          "indexed": true,
          "internalType": "uint256",
          "name": "newAPR",
          "type": "uint256"
        },
        {
          "indexed": false,
          "internalType": "uint256",
          "name": "oldAPR",
          "type": "uint256"
        },
        {
          "indexed": true,
          "internalType": "uint256",
          "name": "timestamp",
          "type": "uint256"
        }
      ],
      "name": "APRupdated",
      "type": "event"
    },
    {
      "anonymous": false,
      "inputs": [
        {
          "indexed": true,
          "internalType": "address",
          "name": "admin",
          "type": "address"
        },
        {
          "indexed": true,
          "internalType": "uint256",
          "name": "newAPY",
          "type": "uint256"
        },
        {
          "indexed": false,
          "internalType": "uint256",
          "name": "oldAPY",
          "type": "uint256"
        },
        {
          "indexed": true,
          "internalType": "uint256",
          "name": "timestamp",
          "type": "uint256"
        }
      ],
      "name": "APYupdated",
      "type": "event"
    },
    {
      "inputs": [],
      "name": "getAPR",
      "outputs": [
        {
          "internalType": "uint256",
          "name": "",
          "type": "uint256"
        }
      ],
      "stateMutability": "view",
      "type": "function"
    },
    {
      "inputs": [],
      "name": "liquidationTrigger",
      "outputs": [],
      "stateMutability": "nonpayable",
      "type": "function"
    },
    {
      "inputs": [],
      "name": "updateLoanIssuanceFees",
      "outputs": [],
      "stateMutability": "nonpayable",
      "type": "function"
    },
    {
      "inputs": [],
      "name": "updateLoanClosureFees",
      "outputs": [],
      "stateMutability": "nonpayable",
      "type": "function"
    },
    {
      "inputs": [],
      "name": "updateLoanpreClosureFees",
      "outputs": [],
      "stateMutability": "nonpayable",
      "type": "function"
    },
    {
      "inputs": [],
      "name": "updateDepositPreclosureFees",
      "outputs": [],
      "stateMutability": "nonpayable",
      "type": "function"
    },
    {
      "inputs": [],
      "name": "updateSwitchDepositTypeFee",
      "outputs": [],
      "stateMutability": "nonpayable",
      "type": "function"
    },
    {
      "inputs": [],
      "name": "updateReserveFactor",
      "outputs": [],
      "stateMutability": "nonpayable",
      "type": "function"
    },
    {
      "inputs": [],
      "name": "updateMaxWithdrawal",
      "outputs": [],
      "stateMutability": "nonpayable",
      "type": "function"
    }
  ],
  "bytecode": "0x6080604052733e2884d9f6013ac28b0323b81460f49fe8e5f4016000806101000a81548173ffffffffffffffffffffffffffffffffffffffff021916908373ffffffffffffffffffffffffffffffffffffffff16021790555034801561006457600080fd5b5060405161077538038061077583398181016040528101906100869190610109565b33600260006101000a81548173ffffffffffffffffffffffffffffffffffffffff021916908373ffffffffffffffffffffffffffffffffffffffff1602179055505050610149565b600080fd5b6000819050919050565b6100e6816100d3565b81146100f157600080fd5b50565b600081519050610103816100dd565b92915050565b600080604083850312156101205761011f6100ce565b5b600061012e858286016100f4565b925050602061013f858286016100f4565b9150509250929050565b61061d806101586000396000f3fe608060405234801561001057600080fd5b50600436106100935760003560e01c8063e00fd58711610066578063e00fd587146100d4578063ea92b39f146100de578063f3b3fa24146100e8578063fa0de9a8146100f2578063fe7532fd146100fc57610093565b806348690fd214610098578063b64219ea146100a2578063c89d5b8b146100ac578063cdc1e7e6146100ca575b600080fd5b6100a0610106565b005b6100aa610198565b005b6100b461022a565b6040516100c19190610529565b60405180910390f35b6100d2610234565b005b6100dc6102c6565b005b6100e6610358565b005b6100f06103ea565b005b6100fa61047c565b005b61010461050e565b005b600260009054906101000a900473ffffffffffffffffffffffffffffffffffffffff1673ffffffffffffffffffffffffffffffffffffffff163373ffffffffffffffffffffffffffffffffffffffff1614610196576040517f08c379a000000000000000000000000000000000000000000000000000000000815260040161018d906105c7565b60405180910390fd5b565b600260009054906101000a900473ffffffffffffffffffffffffffffffffffffffff1673ffffffffffffffffffffffffffffffffffffffff163373ffffffffffffffffffffffffffffffffffffffff1614610228576040517f08c379a000000000000000000000000000000000000000000000000000000000815260040161021f906105c7565b60405180910390fd5b565b6000600354905090565b600260009054906101000a900473ffffffffffffffffffffffffffffffffffffffff1673ffffffffffffffffffffffffffffffffffffffff163373ffffffffffffffffffffffffffffffffffffffff16146102c4576040517f08c379a00000000000000000000000000000000000000000000000000000000081526004016102bb906105c7565b60405180910390fd5b565b600260009054906101000a900473ffffffffffffffffffffffffffffffffffffffff1673ffffffffffffffffffffffffffffffffffffffff163373ffffffffffffffffffffffffffffffffffffffff1614610356576040517f08c379a000000000000000000000000000000000000000000000000000000000815260040161034d906105c7565b60405180910390fd5b565b600260009054906101000a900473ffffffffffffffffffffffffffffffffffffffff1673ffffffffffffffffffffffffffffffffffffffff163373ffffffffffffffffffffffffffffffffffffffff16146103e8576040517f08c379a00000000000000000000000000000000000000000000000000000000081526004016103df906105c7565b60405180910390fd5b565b600260009054906101000a900473ffffffffffffffffffffffffffffffffffffffff1673ffffffffffffffffffffffffffffffffffffffff163373ffffffffffffffffffffffffffffffffffffffff161461047a576040517f08c379a0000000000000000000000000000000000000000000000000000000008152600401610471906105c7565b60405180910390fd5b565b600260009054906101000a900473ffffffffffffffffffffffffffffffffffffffff1673ffffffffffffffffffffffffffffffffffffffff163373ffffffffffffffffffffffffffffffffffffffff161461050c576040517f08c379a0000000000000000000000000000000000000000000000000000000008152600401610503906105c7565b60405180910390fd5b565b565b6000819050919050565b61052381610510565b82525050565b600060208201905061053e600083018461051a565b92915050565b600082825260208201905092915050565b7f4f6e6c792074686520636f6d7074726f6c6c65722061646d696e2063616e206d60008201527f6f6469667920746869732066756e6374696f6e00000000000000000000000000602082015250565b60006105b1603383610544565b91506105bc82610555565b604082019050919050565b600060208201905081810360008301526105e0816105a4565b905091905056fea2646970667358221220617e4111442d4c92e95f2e6690d85093db3e074e07b97c62eb93f7b3bbf61ffb64736f6c63430008090033",
  "immutableReferences": {},
  "source": "// SPDX-License-Identifier: MIT\r\npragma solidity >=0.8.7 <0.9.0;\r\nimport \"./util/Address.sol\";\r\nimport \"./Passbook.sol\";\r\n\r\ncontract Comptroller  {\r\n  using Address for address;\r\n\r\n  Passbook passbook = Passbook(0x3E2884D9F6013Ac28b0323b81460f49FE8E5f401);\r\n\r\n  bytes32 adminComptroller;\r\n  address adminComptrollerAddress;\r\n\r\n  uint apr;\r\n  uint apy;\r\n\r\n  struct APY  {\r\n    bytes32 commitment; // validity\r\n    uint[] blockNumbers; // when the apy changes were made\r\n    uint[] apyChangeRecords; // the apy changes.\r\n  }\r\n\r\n  struct APR  {\r\n    bytes32 commitment; // validity\r\n    uint[] blockNumbers; // when the apy changes were made\r\n    uint[] aprChangeRecords; // the apy changes.\r\n  }\r\n\r\n  \r\n  // Latest Individual apy/apr data\r\n  mapping(bytes32 => APY) indAPYRecords;\r\n  mapping(bytes32 => APR) indAPRRecords;\r\n\r\n\r\n  event APRupdated(address indexed admin, uint indexed newAPR, uint oldAPR, uint indexed timestamp);\r\n  event APYupdated(address indexed admin, uint indexed newAPY, uint oldAPY, uint indexed timestamp);\r\n  \r\n  constructor(uint apy_, uint apr_) {\r\n    adminComptrollerAddress = msg.sender;\r\n\r\n    // _updateAPY(apy_);\r\n    // _updateAPR(apr_);\r\n  }\r\n\r\n  function getAPR() public view returns (uint) {\r\n    return apr;\r\n  }\r\n  // function getAPY(bytes32 commitment_) public view returns (uint) {\r\n  //   _getAPY(commitment_);\r\n  // }\r\n\r\n\r\n  function _getAPY(bytes32 commitment_) internal  {\r\n    // return indAPYRecords.commitment_.apy;\r\n  }\r\n\r\n  function liquidationTrigger() external {}\r\n\r\n  // SETTERS\r\n  function _updateAPY(bytes32 commitment_, uint apy_) internal returns (bool) {\r\n\r\n  }\r\n\r\n\r\n  function updateLoanIssuanceFees() external onlyAdmin() {}\r\n  function updateLoanClosureFees() external onlyAdmin() {}\r\n  function updateLoanpreClosureFees() external onlyAdmin() {}\r\n  function updateDepositPreclosureFees() external onlyAdmin() {}\r\n  function updateSwitchDepositTypeFee() external onlyAdmin() {}\r\n\r\n  function updateReserveFactor() external  onlyAdmin() {} // sets a factor from 0 ot 1. This factor is the minimum reserves in the system.\r\n  function updateMaxWithdrawal() external  onlyAdmin() {} // this function sets a maximum permissible amount that can be moved in a single transaction without the admin permissions.\r\n  \r\n\r\n  modifier onlyAdmin() {\r\n    require(msg.sender == adminComptrollerAddress, \"Only the comptroller admin can modify this function\" );\r\n    _;\r\n  }\r\n\r\n}\r\n\r\n\r\n// calcYield()\r\n// calcInterest()\r\n// struct Passbook()\r\n// struct InterestRates()\r\n// struct ApyLedger()\r\n// struct APRLedger()\r\n// struct SupportedAssets {}\r\n// updateCdr()\r\n// updateApy()\r\n// updateAPR()\r\n// updatePreclosureCharges()\r\n// updateLoanIssuanceFees()\r\n// updateLoanClosureFees()\r\n// priceOracle()\r\n// balancingAccounts()\r\n// liquidationTrigger()\r\n// liquidationCall()\r\n\r\n\r\n\r\n// fallback() / receive()\r\n// transferAnyERC20()\r\n// pause\r\n// auth(superAdmin || adminComptroller)",
  "sourcePath": "F:\\workspace\\Open-protocol\\contracts\\Comptroller.sol",
  "compiler": {
    "name": "solc",
    "version": "0.8.9+commit.e5eed63a.Emscripten.clang"
  },
  "schemaVersion": "3.4.3",
  "updatedAt": "2021-09-30T01:03:14.725Z",
  "devdoc": {
    "kind": "dev",
    "methods": {},
    "version": 1
  },
  "userdoc": {
    "kind": "user",
    "methods": {},
    "version": 1
  }
}