{
  "contractName": "Deposit",
  "abi": [
    {
      "inputs": [
        {
          "internalType": "address",
          "name": "superAdminAddr_",
          "type": "address"
        },
        {
          "internalType": "address",
          "name": "tokenListAddr_",
          "type": "address"
        },
        {
          "internalType": "address",
          "name": "comptrollerAddr_",
          "type": "address"
        }
      ],
      "stateMutability": "nonpayable",
      "type": "constructor"
    },
    {
      "anonymous": false,
      "inputs": [
        {
          "indexed": true,
          "internalType": "address",
          "name": "account",
          "type": "address"
        },
        {
          "indexed": true,
          "internalType": "bytes32",
          "name": "market",
          "type": "bytes32"
        },
        {
          "indexed": false,
          "internalType": "bytes32",
          "name": "commmitment",
          "type": "bytes32"
        },
        {
          "indexed": true,
          "internalType": "uint256",
          "name": "amount",
          "type": "uint256"
        }
      ],
      "name": "NewDeposit",
      "type": "event"
    },
    {
      "anonymous": false,
      "inputs": [
        {
          "indexed": true,
          "internalType": "address",
          "name": "_pauser",
          "type": "address"
        },
        {
          "indexed": false,
          "internalType": "bool",
          "name": "isPaused",
          "type": "bool"
        }
      ],
      "name": "PauseState",
      "type": "event"
    },
    {
      "anonymous": false,
      "inputs": [
        {
          "indexed": true,
          "internalType": "address",
          "name": "account",
          "type": "address"
        },
        {
          "indexed": true,
          "internalType": "bytes32",
          "name": "market",
          "type": "bytes32"
        },
        {
          "indexed": true,
          "internalType": "uint256",
          "name": "amount",
          "type": "uint256"
        },
        {
          "indexed": false,
          "internalType": "bytes32",
          "name": "commitment",
          "type": "bytes32"
        },
        {
          "indexed": false,
          "internalType": "uint256",
          "name": "timestamp",
          "type": "uint256"
        }
      ],
      "name": "Withdrawal",
      "type": "event"
    },
    {
      "anonymous": false,
      "inputs": [
        {
          "indexed": true,
          "internalType": "address",
          "name": "account",
          "type": "address"
        },
        {
          "indexed": true,
          "internalType": "bytes32",
          "name": "market",
          "type": "bytes32"
        },
        {
          "indexed": false,
          "internalType": "bytes32",
          "name": "commmitment",
          "type": "bytes32"
        },
        {
          "indexed": true,
          "internalType": "uint256",
          "name": "amount",
          "type": "uint256"
        }
      ],
      "name": "YieldDeposited",
      "type": "event"
    },
    {
      "inputs": [],
      "name": "pauseState",
      "outputs": [
        {
          "internalType": "string",
          "name": "",
          "type": "string"
        }
      ],
      "stateMutability": "view",
      "type": "function"
    },
    {
      "inputs": [],
      "name": "paused",
      "outputs": [
        {
          "internalType": "bool",
          "name": "",
          "type": "bool"
        }
      ],
      "stateMutability": "view",
      "type": "function"
    },
    {
      "inputs": [
        {
          "internalType": "address",
          "name": "_account",
          "type": "address"
        }
      ],
      "name": "hasAccount",
      "outputs": [
        {
          "internalType": "bool",
          "name": "",
          "type": "bool"
        }
      ],
      "stateMutability": "view",
      "type": "function"
    },
    {
      "inputs": [
        {
          "internalType": "bytes32",
          "name": "_market",
          "type": "bytes32"
        },
        {
          "internalType": "bytes32",
          "name": "_commitment",
          "type": "bytes32"
        }
      ],
      "name": "savingsBalance",
      "outputs": [
        {
          "internalType": "uint256",
          "name": "",
          "type": "uint256"
        }
      ],
      "stateMutability": "nonpayable",
      "type": "function"
    },
    {
      "inputs": [
        {
          "internalType": "bytes32",
          "name": "_market",
          "type": "bytes32"
        },
        {
          "internalType": "bytes32",
          "name": "_commitment",
          "type": "bytes32"
        }
      ],
      "name": "convertYield",
      "outputs": [
        {
          "internalType": "bool",
          "name": "success",
          "type": "bool"
        }
      ],
      "stateMutability": "nonpayable",
      "type": "function"
    },
    {
      "inputs": [
        {
          "internalType": "bytes32",
          "name": "_market",
          "type": "bytes32"
        },
        {
          "internalType": "bytes32",
          "name": "_commitment",
          "type": "bytes32"
        }
      ],
      "name": "hasYield",
      "outputs": [
        {
          "internalType": "bool",
          "name": "",
          "type": "bool"
        }
      ],
      "stateMutability": "view",
      "type": "function"
    },
    {
      "inputs": [
        {
          "internalType": "bytes32",
          "name": "_market",
          "type": "bytes32"
        }
      ],
      "name": "avblReserves",
      "outputs": [
        {
          "internalType": "uint256",
          "name": "",
          "type": "uint256"
        }
      ],
      "stateMutability": "view",
      "type": "function"
    },
    {
      "inputs": [
        {
          "internalType": "bytes32",
          "name": "_market",
          "type": "bytes32"
        }
      ],
      "name": "utilisedReserves",
      "outputs": [
        {
          "internalType": "uint256",
          "name": "",
          "type": "uint256"
        }
      ],
      "stateMutability": "view",
      "type": "function"
    },
    {
      "inputs": [
        {
          "internalType": "bytes32",
          "name": "_market",
          "type": "bytes32"
        },
        {
          "internalType": "bytes32",
          "name": "_commitment",
          "type": "bytes32"
        },
        {
          "internalType": "uint256",
          "name": "_amount",
          "type": "uint256"
        }
      ],
      "name": "createDeposit",
      "outputs": [
        {
          "internalType": "bool",
          "name": "success",
          "type": "bool"
        }
      ],
      "stateMutability": "nonpayable",
      "type": "function"
    },
    {
      "inputs": [
        {
          "internalType": "bytes32",
          "name": "_market",
          "type": "bytes32"
        },
        {
          "internalType": "bytes32",
          "name": "_commitment",
          "type": "bytes32"
        },
        {
          "internalType": "uint256",
          "name": "_amount",
          "type": "uint256"
        },
        {
          "internalType": "enum Deposit.BALANCETYPE",
          "name": "_request",
          "type": "uint8"
        }
      ],
      "name": "withdrawDeposit",
      "outputs": [
        {
          "internalType": "bool",
          "name": "",
          "type": "bool"
        }
      ],
      "stateMutability": "nonpayable",
      "type": "function"
    },
    {
      "inputs": [
        {
          "internalType": "address",
          "name": "reserveAddr_",
          "type": "address"
        }
      ],
      "name": "setReserveAddress",
      "outputs": [],
      "stateMutability": "nonpayable",
      "type": "function"
    },
    {
      "inputs": [],
      "name": "pause",
      "outputs": [],
      "stateMutability": "nonpayable",
      "type": "function"
    },
    {
      "inputs": [],
      "name": "unpause",
      "outputs": [],
      "stateMutability": "nonpayable",
      "type": "function"
    }
  ],
  "bytecode": "0x608060405260008060006101000a81548160ff0219169083151502179055503480156200002b57600080fd5b5060405162003e9338038062003e938339818101604052810190620000519190620001e2565b60008060016101000a81548160ff02191690831515021790555082600360006101000a81548173ffffffffffffffffffffffffffffffffffffffff021916908373ffffffffffffffffffffffffffffffffffffffff16021790555033600260006101000a81548173ffffffffffffffffffffffffffffffffffffffff021916908373ffffffffffffffffffffffffffffffffffffffff16021790555081600560006101000a81548173ffffffffffffffffffffffffffffffffffffffff021916908373ffffffffffffffffffffffffffffffffffffffff16021790555080600660006101000a81548173ffffffffffffffffffffffffffffffffffffffff021916908373ffffffffffffffffffffffffffffffffffffffff1602179055505050506200023e565b600080fd5b600073ffffffffffffffffffffffffffffffffffffffff82169050919050565b6000620001aa826200017d565b9050919050565b620001bc816200019d565b8114620001c857600080fd5b50565b600081519050620001dc81620001b1565b92915050565b600080600060608486031215620001fe57620001fd62000178565b5b60006200020e86828701620001cb565b93505060206200022186828701620001cb565b92505060406200023486828701620001cb565b9150509250925092565b613c45806200024e6000396000f3fe608060405234801561001057600080fd5b50600436106100cf5760003560e01c80634b67be511161008c5780638f5e9b53116100665780638f5e9b5314610212578063c8e40fbf14610242578063d711835114610272578063df29f96a14610290576100cf565b80634b67be51146101ba5780635c975abb146101ea5780638456cb5914610208576100cf565b806302fce195146100d457806314673d3114610104578063157c71e2146101205780633f4ba83a1461015057806346a8d93b1461015a5780634776119b1461018a575b600080fd5b6100ee60048036038101906100e991906130c4565b6102c0565b6040516100fb919061310a565b60405180910390f35b61011e60048036038101906101199190613183565b6102d2565b005b61013a600480360381019061013591906130c4565b6103a6565b604051610147919061310a565b60405180910390f35b6101586103b8565b005b610174600480360381019061016f91906131b0565b6104da565b604051610181919061320b565b60405180910390f35b6101a4600480360381019061019f91906131b0565b6105c9565b6040516101b1919061310a565b60405180910390f35b6101d460048036038101906101cf9190613277565b6105e0565b6040516101e1919061320b565b60405180910390f35b6101f26106d4565b6040516101ff919061320b565b60405180910390f35b6102106106ea565b005b61022c600480360381019061022791906131b0565b61080c565b604051610239919061320b565b60405180910390f35b61025c60048036038101906102579190613183565b610886565b604051610269919061320b565b60405180910390f35b61027a61089a565b6040516102879190613377565b60405180910390f35b6102aa60048036038101906102a59190613399565b610914565b6040516102b7919061320b565b60405180910390f35b60006102cb826109ff565b9050919050565b600260009054906101000a900473ffffffffffffffffffffffffffffffffffffffff1673ffffffffffffffffffffffffffffffffffffffff163373ffffffffffffffffffffffffffffffffffffffff1614610362576040517f08c379a00000000000000000000000000000000000000000000000000000000081526004016103599061345e565b60405180910390fd5b80600460006101000a81548173ffffffffffffffffffffffffffffffffffffffff021916908373ffffffffffffffffffffffffffffffffffffffff16021790555050565b60006103b182610a1c565b9050919050565b600260009054906101000a900473ffffffffffffffffffffffffffffffffffffffff1673ffffffffffffffffffffffffffffffffffffffff163373ffffffffffffffffffffffffffffffffffffffff1614610448576040517f08c379a000000000000000000000000000000000000000000000000000000000815260040161043f9061345e565b60405180910390fd5b6000151560008054906101000a900460ff1615151461049c576040517f08c379a0000000000000000000000000000000000000000000000000000000008152600401610493906134ca565b60405180910390fd5b60016000806101000a81548160ff0219169083151502179055506104be610a39565b60008060006101000a81548160ff021916908315150217905550565b600080151560008054906101000a900460ff1615151461052f576040517f08c379a0000000000000000000000000000000000000000000000000000000008152600401610526906134ca565b60405180910390fd5b60016000806101000a81548160ff0219169083151502179055506000610556338585610af2565b905080843373ffffffffffffffffffffffffffffffffffffffff167f518b80a2da6eadc33bf03797e1c2a5d7087d6bc2e6e960e1852526b8d0f3b4fa866040516105a091906134f9565b60405180910390a45060008060006101000a81548160ff02191690831515021790555092915050565b60006105d83384846002610d29565b905092915050565b600080151560008054906101000a900460ff16151514610635576040517f08c379a000000000000000000000000000000000000000000000000000000000815260040161062c906134ca565b60405180910390fd5b60016000806101000a81548160ff02191690831515021790555061065c3386868686610ed1565b82853373ffffffffffffffffffffffffffffffffffffffff167f2cf34188b50ffe4cba3e004169d7725c886f53474a39abef02a2aa6ac93ac35687426040516106a6929190613514565b60405180910390a46001905060008060006101000a81548160ff021916908315150217905550949350505050565b60008060019054906101000a900460ff16905090565b600260009054906101000a900473ffffffffffffffffffffffffffffffffffffffff1673ffffffffffffffffffffffffffffffffffffffff163373ffffffffffffffffffffffffffffffffffffffff161461077a576040517f08c379a00000000000000000000000000000000000000000000000000000000081526004016107719061345e565b60405180910390fd5b6000151560008054906101000a900460ff161515146107ce576040517f08c379a00000000000000000000000000000000000000000000000000000000081526004016107c5906134ca565b60405180910390fd5b60016000806101000a81548160ff0219169083151502179055506107f061123a565b60008060006101000a81548160ff021916908315150217905550565b600080600960003373ffffffffffffffffffffffffffffffffffffffff1673ffffffffffffffffffffffffffffffffffffffff16815260200190815260200160002060008581526020019081526020016000206000848152602001908152602001600020905061087b816112f5565b600191505092915050565b600061089182611340565b60019050919050565b606060011515600060019054906101000a900460ff16151514156108d8576040518060600160405280603d8152602001613bd3603d91399050610911565b6040518060400160405280601681526020017f436f6e7472616374206973206e6f74207061757365640000000000000000000081525090505b90565b600080151560008054906101000a900460ff16151514610969576040517f08c379a0000000000000000000000000000000000000000000000000000000008152600401610960906134ca565b60405180910390fd5b60016000806101000a81548160ff02191690831515021790555061098e8484846113c9565b81843373ffffffffffffffffffffffffffffffffffffffff167fe5e90022a16efe318e3be758157c8b021ac46773ff87a62c8d88e9698c8d82a6866040516109d691906134f9565b60405180910390a460008060006101000a81548160ff0219169083151502179055509392505050565b6000600c6000838152602001908152602001600020549050919050565b6000600b6000838152602001908152602001600020549050919050565b610a416106d4565b610a80576040517f08c379a0000000000000000000000000000000000000000000000000000000008152600401610a7790613589565b60405180910390fd5b60008060016101000a81548160ff021916908315150217905550610aa2611508565b73ffffffffffffffffffffffffffffffffffffffff167fd90c20276b7955800df9b223f244944b25b581f437448b1978aa61d4036b428a6000604051610ae8919061320b565b60405180910390a2565b6000610afd84611340565b600080600860003373ffffffffffffffffffffffffffffffffffffffff1673ffffffffffffffffffffffffffffffffffffffff16815260200190815260200160002090506000600960003373ffffffffffffffffffffffffffffffffffffffff1673ffffffffffffffffffffffffffffffffffffffff1681526020019081526020016000206000878152602001908152602001600020600086815260200190815260200160002090506000600a60003373ffffffffffffffffffffffffffffffffffffffff1673ffffffffffffffffffffffffffffffffffffffff168152602001908152602001600020600088815260200190815260200160002060008781526020019081526020016000209050610c14826112f5565b610c1f888888611510565b806004015493506000816004018190555083826003016000828254610c4491906135d8565b92505081905550428260040181905550838360020160018460000154610c6a919061362e565b81548110610c7b57610c7a613662565b5b90600052602060002090600502016003016000828254610c9b91906135d8565b92505081905550428360020160018460000154610cb8919061362e565b81548110610cc957610cc8613662565b5b90600052602060002090600502016004018190555060008360030160018460000154610cf5919061362e565b81548110610d0657610d05613662565b5b906000526020600020906008020160040181905550839450505050509392505050565b6000806000600960008873ffffffffffffffffffffffffffffffffffffffff1673ffffffffffffffffffffffffffffffffffffffff1681526020019081526020016000206000878152602001908152602001600020600086815260200190815260200160002090506000600a60008973ffffffffffffffffffffffffffffffffffffffff1673ffffffffffffffffffffffffffffffffffffffff16815260200190815260200160002060008881526020019081526020016000206000878152602001908152602001600020905060006002811115610e0a57610e09613691565b5b856002811115610e1d57610e1c613691565b5b1415610e2f5781600301549250610ec3565b60016002811115610e4357610e42613691565b5b856002811115610e5657610e55613691565b5b1415610e7357610e67338888611510565b80600401549250610ec2565b600280811115610e8657610e85613691565b5b856002811115610e9957610e98613691565b5b1415610ec157610eaa338888611510565b80600401548260030154610ebe91906135d8565b92505b5b5b829350505050949350505050565b610eda85611340565b600560009054906101000a900473ffffffffffffffffffffffffffffffffffffffff1673ffffffffffffffffffffffffffffffffffffffff166378f504f9856040518263ffffffff1660e01b8152600401610f3591906134f9565b60206040518083038186803b158015610f4d57600080fd5b505afa158015610f61573d6000803e3d6000fd5b505050506040513d601f19601f82011682018060405250810190610f8591906136ec565b50610f91338585611510565b6000610f9f86868685610d29565b905080831015610fe4576040517f08c379a0000000000000000000000000000000000000000000000000000000008152600401610fdb90613765565b60405180910390fd5b600660009054906101000a900473ffffffffffffffffffffffffffffffffffffffff1673ffffffffffffffffffffffffffffffffffffffff166369bcdb7d60006040518263ffffffff1660e01b815260040161104091906137ca565b60206040518083038186803b15801561105857600080fd5b505afa15801561106c573d6000803e3d6000fd5b505050506040513d601f19601f8201168201806040525081019061109091906137fa565b8414156110a5576110a486868686866124a3565b5b600560009054906101000a900473ffffffffffffffffffffffffffffffffffffffff1673ffffffffffffffffffffffffffffffffffffffff16639bb5a57886600760009054906101000a900473ffffffffffffffffffffffffffffffffffffffff166040518363ffffffff1660e01b815260040161112492919061387c565b60006040518083038186803b15801561113c57600080fd5b505afa158015611150573d6000803e3d6000fd5b50505050600760009054906101000a900473ffffffffffffffffffffffffffffffffffffffff1673ffffffffffffffffffffffffffffffffffffffff1663a9059cbb600460009054906101000a900473ffffffffffffffffffffffffffffffffffffffff16856040518363ffffffff1660e01b81526004016111d39291906138b4565b602060405180830381600087803b1580156111ed57600080fd5b505af1158015611201573d6000803e3d6000fd5b505050506040513d601f19601f8201168201806040525081019061122591906136ec565b506112328584600161280b565b505050505050565b6112426106d4565b15611282576040517f08c379a000000000000000000000000000000000000000000000000000000000815260040161127990613929565b60405180910390fd5b6001600060016101000a81548160ff0219169083151502179055506112a5611508565b73ffffffffffffffffffffffffffffffffffffffff167fd90c20276b7955800df9b223f244944b25b581f437448b1978aa61d4036b428a60016040516112eb919061320b565b60405180910390a2565b60008160000154141561133d576040517f08c379a000000000000000000000000000000000000000000000000000000000815260040161133490613995565b60405180910390fd5b50565b6000600860008373ffffffffffffffffffffffffffffffffffffffff1673ffffffffffffffffffffffffffffffffffffffff1681526020019081526020016000206000015414156113c6576040517f08c379a00000000000000000000000000000000000000000000000000000000081526004016113bd90613a01565b60405180910390fd5b50565b6000600860003373ffffffffffffffffffffffffffffffffffffffff1673ffffffffffffffffffffffffffffffffffffffff16815260200190815260200160002090506114183385848461287d565b600760009054906101000a900473ffffffffffffffffffffffffffffffffffffffff1673ffffffffffffffffffffffffffffffffffffffff1663a9059cbb600460009054906101000a900473ffffffffffffffffffffffffffffffffffffffff16846040518363ffffffff1660e01b81526004016114979291906138b4565b602060405180830381600087803b1580156114b157600080fd5b505af11580156114c5573d6000803e3d6000fd5b505050506040513d601f19601f820116820180604052508101906114e991906136ec565b506114f633858585612a75565b6115028483600061280b565b50505050565b600033905090565b6000600a60008573ffffffffffffffffffffffffffffffffffffffff1673ffffffffffffffffffffffffffffffffffffffff1681526020019081526020016000206000848152602001908152602001600020600083815260200190815260200160002090506000600960008673ffffffffffffffffffffffffffffffffffffffff1673ffffffffffffffffffffffffffffffffffffffff1681526020019081526020016000206000858152602001908152602001600020600084815260200190815260200160002090506000600183600201546115ed919061362e565b90506000836003015490506000846004015490508460020154600660009054906101000a900473ffffffffffffffffffffffffffffffffffffffff1673ffffffffffffffffffffffffffffffffffffffff1663999fc850886040518263ffffffff1660e01b815260040161166191906134f9565b60206040518083038186803b15801561167957600080fd5b505afa15801561168d573d6000803e3d6000fd5b505050506040513d601f19601f820116820180604052508101906116b19190613a36565b111561221f5781600660009054906101000a900473ffffffffffffffffffffffffffffffffffffffff1673ffffffffffffffffffffffffffffffffffffffff1663f5051f7b88866040518363ffffffff1660e01b8152600401611715929190613514565b60206040518083038186803b15801561172d57600080fd5b505afa158015611741573d6000803e3d6000fd5b505050506040513d601f19601f820116820180604052508101906117659190613a36565b1015611c1c57600060018461177a91906135d8565b90506064600660009054906101000a900473ffffffffffffffffffffffffffffffffffffffff1673ffffffffffffffffffffffffffffffffffffffff166374ef191189876040518363ffffffff1660e01b81526004016117db929190613514565b60206040518083038186803b1580156117f357600080fd5b505afa158015611807573d6000803e3d6000fd5b505050506040513d601f19601f8201168201806040525081019061182b9190613a36565b84600660009054906101000a900473ffffffffffffffffffffffffffffffffffffffff1673ffffffffffffffffffffffffffffffffffffffff1663f5051f7b8b866040518363ffffffff1660e01b8152600401611889929190613514565b60206040518083038186803b1580156118a157600080fd5b505afa1580156118b5573d6000803e3d6000fd5b505050506040513d601f19601f820116820180604052508101906118d99190613a36565b6118e3919061362e565b6118ed9190613a63565b6118f79190613aec565b8261190291906135d8565b915060008190505b600660009054906101000a900473ffffffffffffffffffffffffffffffffffffffff1673ffffffffffffffffffffffffffffffffffffffff1663999fc850896040518263ffffffff1660e01b815260040161196591906134f9565b60206040518083038186803b15801561197d57600080fd5b505afa158015611991573d6000803e3d6000fd5b505050506040513d601f19601f820116820180604052508101906119b59190613a36565b811015611c15576000600660009054906101000a900473ffffffffffffffffffffffffffffffffffffffff1673ffffffffffffffffffffffffffffffffffffffff1663f5051f7b8a846040518363ffffffff1660e01b8152600401611a1b929190613514565b60206040518083038186803b158015611a3357600080fd5b505afa158015611a47573d6000803e3d6000fd5b505050506040513d601f19601f82011682018060405250810190611a6b9190613a36565b600660009054906101000a900473ffffffffffffffffffffffffffffffffffffffff1673ffffffffffffffffffffffffffffffffffffffff1663f5051f7b8b600186611ab791906135d8565b6040518363ffffffff1660e01b8152600401611ad4929190613514565b60206040518083038186803b158015611aec57600080fd5b505afa158015611b00573d6000803e3d6000fd5b505050506040513d601f19601f82011682018060405250810190611b249190613a36565b611b2e919061362e565b90506064600660009054906101000a900473ffffffffffffffffffffffffffffffffffffffff1673ffffffffffffffffffffffffffffffffffffffff166374ef19118b866040518363ffffffff1660e01b8152600401611b8f929190613514565b60206040518083038186803b158015611ba757600080fd5b505afa158015611bbb573d6000803e3d6000fd5b505050506040513d601f19601f82011682018060405250810190611bdf9190613a36565b82611bea9190613a63565b611bf49190613aec565b84611bff91906135d8565b9350508080611c0d90613b1d565b91505061190a565b5050611fe4565b81600660009054906101000a900473ffffffffffffffffffffffffffffffffffffffff1673ffffffffffffffffffffffffffffffffffffffff1663f5051f7b88866040518363ffffffff1660e01b8152600401611c7a929190613514565b60206040518083038186803b158015611c9257600080fd5b505afa158015611ca6573d6000803e3d6000fd5b505050506040513d601f19601f82011682018060405250810190611cca9190613a36565b1415611fe35760008390505b600660009054906101000a900473ffffffffffffffffffffffffffffffffffffffff1673ffffffffffffffffffffffffffffffffffffffff1663999fc850886040518263ffffffff1660e01b8152600401611d3191906134f9565b60206040518083038186803b158015611d4957600080fd5b505afa158015611d5d573d6000803e3d6000fd5b505050506040513d601f19601f82011682018060405250810190611d819190613a36565b811015611fe1576000600660009054906101000a900473ffffffffffffffffffffffffffffffffffffffff1673ffffffffffffffffffffffffffffffffffffffff1663f5051f7b89846040518363ffffffff1660e01b8152600401611de7929190613514565b60206040518083038186803b158015611dff57600080fd5b505afa158015611e13573d6000803e3d6000fd5b505050506040513d601f19601f82011682018060405250810190611e379190613a36565b600660009054906101000a900473ffffffffffffffffffffffffffffffffffffffff1673ffffffffffffffffffffffffffffffffffffffff1663f5051f7b8a600186611e8391906135d8565b6040518363ffffffff1660e01b8152600401611ea0929190613514565b60206040518083038186803b158015611eb857600080fd5b505afa158015611ecc573d6000803e3d6000fd5b505050506040513d601f19601f82011682018060405250810190611ef09190613a36565b611efa919061362e565b90506064600660009054906101000a900473ffffffffffffffffffffffffffffffffffffffff1673ffffffffffffffffffffffffffffffffffffffff166374ef19118a886040518363ffffffff1660e01b8152600401611f5b929190613514565b60206040518083038186803b158015611f7357600080fd5b505afa158015611f87573d6000803e3d6000fd5b505050506040513d601f19601f82011682018060405250810190611fab9190613a36565b82611fb69190613a63565b611fc09190613aec565b83611fcb91906135d8565b9250508080611fd990613b1d565b915050611cd6565b505b5b600660009054906101000a900473ffffffffffffffffffffffffffffffffffffffff1673ffffffffffffffffffffffffffffffffffffffff16633278182f876040518263ffffffff1660e01b815260040161203f91906134f9565b60206040518083038186803b15801561205757600080fd5b505afa15801561206b573d6000803e3d6000fd5b505050506040513d601f19601f8201168201806040525081019061208f9190613a36565b421061221a576064600660009054906101000a900473ffffffffffffffffffffffffffffffffffffffff1673ffffffffffffffffffffffffffffffffffffffff166303e80d48886040518263ffffffff1660e01b81526004016120f291906134f9565b60206040518083038186803b15801561210a57600080fd5b505afa15801561211e573d6000803e3d6000fd5b505050506040513d601f19601f820116820180604052508101906121429190613a36565b600660009054906101000a900473ffffffffffffffffffffffffffffffffffffffff1673ffffffffffffffffffffffffffffffffffffffff16633278182f896040518263ffffffff1660e01b815260040161219d91906134f9565b60206040518083038186803b1580156121b557600080fd5b505afa1580156121c9573d6000803e3d6000fd5b505050506040513d601f19601f820116820180604052508101906121ed9190613a36565b426121f8919061362e565b6122029190613a63565b61220c9190613aec565b8161221791906135d8565b90505b6123b3565b8460020154600660009054906101000a900473ffffffffffffffffffffffffffffffffffffffff1673ffffffffffffffffffffffffffffffffffffffff1663999fc850886040518263ffffffff1660e01b815260040161227f91906134f9565b60206040518083038186803b15801561229757600080fd5b505afa1580156122ab573d6000803e3d6000fd5b505050506040513d601f19601f820116820180604052508101906122cf9190613a36565b14156123b2576064600660009054906101000a900473ffffffffffffffffffffffffffffffffffffffff1673ffffffffffffffffffffffffffffffffffffffff166374ef191188866040518363ffffffff1660e01b8152600401612334929190613514565b60206040518083038186803b15801561234c57600080fd5b505afa158015612360573d6000803e3d6000fd5b505050506040513d601f19601f820116820180604052508101906123849190613a36565b8342612390919061362e565b61239a9190613a63565b6123a49190613aec565b816123af91906135d8565b90505b5b8084600301546123c39190613a63565b8560040160008282546123d691906135d8565b92505081905550600660009054906101000a900473ffffffffffffffffffffffffffffffffffffffff1673ffffffffffffffffffffffffffffffffffffffff1663844458e2876040518263ffffffff1660e01b815260040161243891906134f9565b60206040518083038186803b15801561245057600080fd5b505afa158015612464573d6000803e3d6000fd5b505050506040513d601f19601f820116820180604052508101906124889190613a36565b85600201819055504385600301819055505050505050505050565b6000600960008773ffffffffffffffffffffffffffffffffffffffff1673ffffffffffffffffffffffffffffffffffffffff1681526020019081526020016000206000868152602001908152602001600020600085815260200190815260200160002090506000600a60008873ffffffffffffffffffffffffffffffffffffffff1673ffffffffffffffffffffffffffffffffffffffff1681526020019081526020016000206000878152602001908152602001600020600086815260200190815260200160002090506000600281111561258157612580613691565b5b83600281111561259457612593613691565b5b14156125c357838260030160008282546125ae919061362e565b92505081905550428260040181905550612802565b600160028111156125d7576125d6613691565b5b8360028111156125ea576125e9613691565b5b14156126d257600015158160050160009054906101000a900460ff161515148061262757508060060154816007015461262391906135d8565b4210155b156126555783816004016000828254612640919061362e565b925050819055504281600301819055506126cd565b600015158160050160009054906101000a900460ff16151514158061268c57508060060154816007015461268991906135d8565b42105b156126cc576040517f08c379a00000000000000000000000000000000000000000000000000000000081526004016126c390613bb2565b60405180910390fd5b5b612801565b6002808111156126e5576126e4613691565b5b8360028111156126f8576126f7613691565b5b141561280057600015158160050160009054906101000a900460ff161515148061273557508060060154816007015461273191906135d8565b4210155b15612763578381600401600082825461274e919061362e565b925050819055504281600301819055506127db565b600015158160050160009054906101000a900460ff16151514158061279a57508060060154816007015461279791906135d8565b42105b156127da576040517f08c379a00000000000000000000000000000000000000000000000000000000081526004016127d190613bb2565b60405180910390fd5b5b838260030160008282546127ef919061362e565b925050819055504282600401819055505b5b5b50505050505050565b60008114156128435781600b6000858152602001908152602001600020600082825461283791906135d8565b92505081905550612878565b60018114156128775781600b6000858152602001908152602001600020600082825461286f919061362e565b925050819055505b5b505050565b600560009054906101000a900473ffffffffffffffffffffffffffffffffffffffff1673ffffffffffffffffffffffffffffffffffffffff166378f504f9846040518263ffffffff1660e01b81526004016128d891906134f9565b60206040518083038186803b1580156128f057600080fd5b505afa158015612904573d6000803e3d6000fd5b505050506040513d601f19601f8201168201806040525081019061292891906136ec565b50612933848261302b565b600560009054906101000a900473ffffffffffffffffffffffffffffffffffffffff1673ffffffffffffffffffffffffffffffffffffffff16639bb5a57884600760009054906101000a900473ffffffffffffffffffffffffffffffffffffffff166040518363ffffffff1660e01b81526004016129b292919061387c565b60006040518083038186803b1580156129ca57600080fd5b505afa1580156129de573d6000803e3d6000fd5b50505050600560009054906101000a900473ffffffffffffffffffffffffffffffffffffffff1673ffffffffffffffffffffffffffffffffffffffff1663fafb502884846040518363ffffffff1660e01b8152600401612a3f929190613514565b60006040518083038186803b158015612a5757600080fd5b505afa158015612a6b573d6000803e3d6000fd5b5050505050505050565b6000600860008673ffffffffffffffffffffffffffffffffffffffff1673ffffffffffffffffffffffffffffffffffffffff16815260200190815260200160002090506000600960008773ffffffffffffffffffffffffffffffffffffffff1673ffffffffffffffffffffffffffffffffffffffff1681526020019081526020016000206000868152602001908152602001600020600085815260200190815260200160002090506000600a60008873ffffffffffffffffffffffffffffffffffffffff1673ffffffffffffffffffffffffffffffffffffffff16815260200190815260200160002060008781526020019081526020016000206000868152602001908152602001600020905060008084600201805490501415612b9c5760019050612bb3565b60018460020180549050612bb091906135d8565b90505b83600201846002018054905081548110612bd057612bcf613662565b5b90600052602060002090600502019250808360000181905550868360010181905550858360020181905550848360030181905550428360040181905550600660009054906101000a900473ffffffffffffffffffffffffffffffffffffffff1673ffffffffffffffffffffffffffffffffffffffff166369bcdb7d60006040518263ffffffff1660e01b8152600401612c6991906137ca565b60206040518083038186803b158015612c8157600080fd5b505afa158015612c95573d6000803e3d6000fd5b505050506040513d601f19601f82011682018060405250810190612cb991906137fa565b8614612e195783600301846003018054905081548110612cdc57612cdb613662565b5b90600052602060002090600802019150808260000181905550868260010181905550600660009054906101000a900473ffffffffffffffffffffffffffffffffffffffff1673ffffffffffffffffffffffffffffffffffffffff1663844458e2876040518263ffffffff1660e01b8152600401612d5991906134f9565b60206040518083038186803b158015612d7157600080fd5b505afa158015612d85573d6000803e3d6000fd5b505050506040513d601f19601f82011682018060405250810190612da99190613a36565b82600201819055504282600301819055506000826004018190555060018260050160006101000a81548160ff02191690831515021790555060008260050160016101000a81548160ff02191690831515021790555062015180826006018190555060008260070181905550613021565b600660009054906101000a900473ffffffffffffffffffffffffffffffffffffffff1673ffffffffffffffffffffffffffffffffffffffff166369bcdb7d60006040518263ffffffff1660e01b8152600401612e7591906137ca565b60206040518083038186803b158015612e8d57600080fd5b505afa158015612ea1573d6000803e3d6000fd5b505050506040513d601f19601f82011682018060405250810190612ec591906137fa565b8614156130205783600301846003018054905081548110612ee957612ee8613662565b5b90600052602060002090600802019150808260000181905550868260010181905550600660009054906101000a900473ffffffffffffffffffffffffffffffffffffffff1673ffffffffffffffffffffffffffffffffffffffff1663844458e2876040518263ffffffff1660e01b8152600401612f6691906134f9565b60206040518083038186803b158015612f7e57600080fd5b505afa158015612f92573d6000803e3d6000fd5b505050506040513d601f19601f82011682018060405250810190612fb69190613a36565b82600201819055504282600301819055506000826004018190555060008260050160006101000a81548160ff02191690831515021790555060018260050160016101000a81548160ff02191690831515021790555060008260060181905550600082600701819055505b5b5050505050505050565b60008160000154141561308557428160000181905550818160010160006101000a81548173ffffffffffffffffffffffffffffffffffffffff021916908373ffffffffffffffffffffffffffffffffffffffff1602179055505b5050565b600080fd5b6000819050919050565b6130a18161308e565b81146130ac57600080fd5b50565b6000813590506130be81613098565b92915050565b6000602082840312156130da576130d9613089565b5b60006130e8848285016130af565b91505092915050565b6000819050919050565b613104816130f1565b82525050565b600060208201905061311f60008301846130fb565b92915050565b600073ffffffffffffffffffffffffffffffffffffffff82169050919050565b600061315082613125565b9050919050565b61316081613145565b811461316b57600080fd5b50565b60008135905061317d81613157565b92915050565b60006020828403121561319957613198613089565b5b60006131a78482850161316e565b91505092915050565b600080604083850312156131c7576131c6613089565b5b60006131d5858286016130af565b92505060206131e6858286016130af565b9150509250929050565b60008115159050919050565b613205816131f0565b82525050565b600060208201905061322060008301846131fc565b92915050565b61322f816130f1565b811461323a57600080fd5b50565b60008135905061324c81613226565b92915050565b6003811061325f57600080fd5b50565b60008135905061327181613252565b92915050565b6000806000806080858703121561329157613290613089565b5b600061329f878288016130af565b94505060206132b0878288016130af565b93505060406132c18782880161323d565b92505060606132d287828801613262565b91505092959194509250565b600081519050919050565b600082825260208201905092915050565b60005b838110156133185780820151818401526020810190506132fd565b83811115613327576000848401525b50505050565b6000601f19601f8301169050919050565b6000613349826132de565b61335381856132e9565b93506133638185602086016132fa565b61336c8161332d565b840191505092915050565b60006020820190508181036000830152613391818461333e565b905092915050565b6000806000606084860312156133b2576133b1613089565b5b60006133c0868287016130af565b93505060206133d1868287016130af565b92505060406133e28682870161323d565b9150509250925092565b7f4f6e6c7920616e2061646d696e2063616e2063616c6c20746869732066756e6360008201527f74696f6e00000000000000000000000000000000000000000000000000000000602082015250565b60006134486024836132e9565b9150613453826133ec565b604082019050919050565b600060208201905081810360008301526134778161343b565b9050919050565b7f52652d656e7472616e7420616c65727421000000000000000000000000000000600082015250565b60006134b46011836132e9565b91506134bf8261347e565b602082019050919050565b600060208201905081810360008301526134e3816134a7565b9050919050565b6134f38161308e565b82525050565b600060208201905061350e60008301846134ea565b92915050565b600060408201905061352960008301856134ea565b61353660208301846130fb565b9392505050565b7f4e6f742070617573656420737461747573000000000000000000000000000000600082015250565b60006135736011836132e9565b915061357e8261353d565b602082019050919050565b600060208201905081810360008301526135a281613566565b9050919050565b7f4e487b7100000000000000000000000000000000000000000000000000000000600052601160045260246000fd5b60006135e3826130f1565b91506135ee836130f1565b9250827fffffffffffffffffffffffffffffffffffffffffffffffffffffffffffffffff03821115613623576136226135a9565b5b828201905092915050565b6000613639826130f1565b9150613644836130f1565b925082821015613657576136566135a9565b5b828203905092915050565b7f4e487b7100000000000000000000000000000000000000000000000000000000600052603260045260246000fd5b7f4e487b7100000000000000000000000000000000000000000000000000000000600052602160045260246000fd5b6136c9816131f0565b81146136d457600080fd5b50565b6000815190506136e6816136c0565b92915050565b60006020828403121561370257613701613089565b5b6000613710848285016136d7565b91505092915050565b7f496e73756666696369656e742062616c616e6365000000000000000000000000600082015250565b600061374f6014836132e9565b915061375a82613719565b602082019050919050565b6000602082019050818103600083015261377e81613742565b9050919050565b6000819050919050565b6000819050919050565b60006137b46137af6137aa84613785565b61378f565b6130f1565b9050919050565b6137c481613799565b82525050565b60006020820190506137df60008301846137bb565b92915050565b6000815190506137f481613098565b92915050565b6000602082840312156138105761380f613089565b5b600061381e848285016137e5565b91505092915050565b600061384261383d61383884613125565b61378f565b613125565b9050919050565b600061385482613827565b9050919050565b600061386682613849565b9050919050565b6138768161385b565b82525050565b600060408201905061389160008301856134ea565b61389e602083018461386d565b9392505050565b6138ae81613145565b82525050565b60006040820190506138c960008301856138a5565b6138d660208301846130fb565b9392505050565b7f5061757365642073746174757300000000000000000000000000000000000000600082015250565b6000613913600d836132e9565b915061391e826138dd565b602082019050919050565b6000602082019050818103600083015261394281613906565b9050919050565b7f4552524f523a204e6f205969656c640000000000000000000000000000000000600082015250565b600061397f600f836132e9565b915061398a82613949565b602082019050919050565b600060208201905081810360008301526139ae81613972565b9050919050565b7f4552524f523a204e6f20736176696e6773206163636f756e7400000000000000600082015250565b60006139eb6019836132e9565b91506139f6826139b5565b602082019050919050565b60006020820190508181036000830152613a1a816139de565b9050919050565b600081519050613a3081613226565b92915050565b600060208284031215613a4c57613a4b613089565b5b6000613a5a84828501613a21565b91505092915050565b6000613a6e826130f1565b9150613a79836130f1565b9250817fffffffffffffffffffffffffffffffffffffffffffffffffffffffffffffffff0483118215151615613ab257613ab16135a9565b5b828202905092915050565b7f4e487b7100000000000000000000000000000000000000000000000000000000600052601260045260246000fd5b6000613af7826130f1565b9150613b02836130f1565b925082613b1257613b11613abd565b5b828204905092915050565b6000613b28826130f1565b91507fffffffffffffffffffffffffffffffffffffffffffffffffffffffffffffffff821415613b5b57613b5a6135a9565b5b600182019050919050565b7f5769746864726177616c2063616e206e6f742062652070726f63657373656400600082015250565b6000613b9c601f836132e9565b9150613ba782613b66565b602082019050919050565b60006020820190508181036000830152613bcb81613b8f565b905091905056fe436f6e7472616374206973207061757365642e20546f6b656e207472616e7366657273206172652074656d706f726172696c792064697361626c65642ea2646970667358221220db8be2ffe426f7b475a86eb005ac74bff1c177d40c55408771066c8be974667b64736f6c63430008090033",
  "immutableReferences": {},
  "source": "// SPDX-License-Identifier: MIT\r\npragma solidity >=0.8.9 <0.9.0;\r\n\r\nimport \"./util/Pausable.sol\";\r\nimport \"./interfaces/ITokenList.sol\";\r\nimport \"./util/IBEP20.sol\";\r\nimport \"./interfaces/IComptroller.sol\";\r\n\r\ncontract Deposit is Pausable{\r\n\t\r\n\tbytes32 adminDeposit;\r\n\taddress adminDepositAddress;\r\n\taddress superAdminAddress;\r\n\taddress reserveAddress;\r\n\r\n\tITokenList markets;\r\n\tIComptroller comptroller;\r\n\r\n\t// address superAdminAddress;\r\n\t// address reserveAddress;\r\n\t// ITokenList markets;\r\n\t// IComptroller comptroller;\r\n\r\n\t// TokenList markets = TokenList(0x3E2884D9F6013Ac28b0323b81460f49FE8E5f401);\r\n\t// Comptroller comptroller = Comptroller(0x3E2884D9F6013Ac28b0323b81460f49FE8E5f401);\r\n\t// Reserve reserve = Reserve(payable(0xeAc61D9e3224B20104e7F0BAD6a6DB7CaF76659B));\r\n\tIBEP20 token;\r\n\r\n\tstruct SavingsAccount {\r\n        uint accOpenTime;\r\n        address account; \r\n        DepositRecords[] deposits;\r\n        YieldLedger[] yield;\r\n    }\r\n\r\n    struct DepositRecords   {\r\n        uint id;\r\n        bytes32 market;\r\n        bytes32 commitment;\r\n        uint amount;\r\n        uint lastUpdate;\r\n    }\r\n\r\n    struct YieldLedger    {\r\n        uint id;\r\n        bytes32 market; //_market this yield is calculated for\r\n        uint oldLengthAccruedYield; // length of the APY time array.\r\n        uint oldTime; // last recorded block num. This is when this struct is lastly updated.\r\n        uint accruedYield; // accruedYield in \r\n        bool isTimelockApplicable; // is timelockApplicalbe or not. Except the flexible deposits, the timelock is applicabel on all the deposits.\r\n        bool isTimelockActivated; // is timelockApplicalbe or not. Except the flexible deposits, the timelock is applicabel on all the deposits.\r\n        uint timelockValidity; // timelock duration\r\n        uint activationTime; // block.timestamp(isTimelockActivated) + timelockValidity.\r\n    }\r\n\r\n\tenum BALANCETYPE{DEPOSIT, YIELD, BOTH}\r\n\t\r\n\tmapping(address => SavingsAccount) savingsPassbook;  // Maps an account to its savings Passbook\r\n    mapping(address => mapping(bytes32 => mapping(bytes32 => DepositRecords))) indDepositRecord; // address =>_market => _commitment => depositRecord\r\n    mapping(address => mapping(bytes32 => mapping(bytes32 => YieldLedger))) indYieldRecord; // address =>_market => _commitment => depositRecord\r\n\r\n\t///  Balance monitoring  - Deposits\r\n\tmapping(bytes32 => uint) marketReserves; // mapping(market => marketBalance)\r\n\tmapping(bytes32 => uint) marketUtilisation; // mapping(market => marketBalance)\r\n\r\n\tevent NewDeposit(address indexed account,bytes32 indexed market,bytes32 commmitment,uint256 indexed amount);\r\n\tevent YieldDeposited(address indexed account,bytes32 indexed market,bytes32 commmitment,uint256 indexed amount);\r\n\tevent Withdrawal(address indexed account, bytes32 indexed market, uint indexed amount, bytes32 commitment, uint timestamp);\r\n\r\n\r\n\tconstructor(\r\n\t\taddress superAdminAddr_,\r\n\t\taddress tokenListAddr_,\r\n\t\taddress comptrollerAddr_\r\n\t) \r\n\t{\r\n\t\tsuperAdminAddress = superAdminAddr_;\r\n\t\tadminDepositAddress = msg.sender;\r\n\t\tmarkets = ITokenList(tokenListAddr_);\r\n\t\tcomptroller = IComptroller(comptrollerAddr_);\r\n\t}\r\n\r\n\tfunction hasAccount(address _account) external view returns (bool)\t{\r\n\t\t_hasAccount(_account);\r\n\t\treturn true;\r\n\t}\r\n\r\n\tfunction savingsBalance(bytes32 _market, bytes32 _commitment) external returns (uint) {\r\n\t\treturn _accountBalance(msg.sender, _market, _commitment, BALANCETYPE.BOTH);\r\n\t}\r\n\r\n\tfunction convertYield(bytes32 _market, bytes32 _commitment) external nonReentrant() returns (bool success){\r\n\r\n\t\tuint _amount;\r\n\t\t_amount = _convertYield(msg.sender, _market,_commitment);\r\n\r\n\t\temit YieldDeposited(msg.sender, _market, _commitment, _amount);\r\n\t\treturn success;\r\n\t}\r\n\r\n\tfunction hasYield(bytes32 _market, bytes32 _commitment) external view returns (bool)\t{\r\n\t\tDepositRecords storage deposit = indDepositRecord[msg.sender][_market][_commitment];\r\n\t\t_hasYield(/*_account, _market, _commitment, */deposit);\r\n\t\treturn true;\r\n\t}\r\n\r\n\tfunction avblReserves(bytes32 _market) external view returns (uint) {\r\n\t\treturn _avblReserves(_market);\r\n\t}\r\n\r\n\tfunction _avblReserves(bytes32 _market) internal view returns(uint)\t{\r\n\t\treturn marketReserves[_market];\r\n\t}\r\n\r\n\tfunction utilisedReserves(bytes32 _market) external view returns (uint) {\r\n\t\treturn _utilisedReserves(_market);\r\n\t}\r\n\r\n\tfunction _utilisedReserves(bytes32 _market) internal view returns(uint)\t{\r\n\t\treturn marketUtilisation[_market];\r\n\t}\r\n\r\n\tfunction _updateReserves(bytes32 _market, uint _amount, uint _num) private\r\n\t{\r\n\t\tif (_num == 0)\t{\r\n\t\t\tmarketReserves[_market] += _amount;\r\n\t\t} else if (_num == 1)\t{\r\n\t\t\tmarketReserves[_market] -= _amount;\r\n\t\t}\r\n\t\t// return this;\r\n\t}\r\n\r\n\tfunction _updateUtilisation(bytes32 _market, uint _amount, uint _num) private\r\n\t{\r\n\t\tif (_num == 0)\t{\r\n\t\t\tmarketUtilisation[_market] += _amount;\r\n\t\t} else if (_num == 1)\t{\r\n\t\t\tmarketUtilisation[_market] -= _amount;\r\n\t\t}\r\n\t\t// return this;\r\n\t}\r\n\r\n\t\r\n\tfunction createDeposit(\r\n\t\tbytes32 _market,\r\n\t\tbytes32 _commitment,\r\n\t\tuint256 _amount\r\n\t) external nonReentrant() returns (bool success) {\r\n\t\t\r\n\t\t_createNewDeposit(_market,_commitment, _amount);\r\n\r\n\t\temit NewDeposit(msg.sender, _market, _commitment, _amount);\r\n\t\treturn success;\r\n\t}\r\n\r\n\r\n\tfunction withdrawDeposit (bytes32 _market, bytes32 _commitment, uint _amount, BALANCETYPE _request) external nonReentrant() returns (bool){\r\n\r\n\t\t_withdrawDeposit (msg.sender, _market, _commitment, _amount, _request);\r\n\r\n\t\temit Withdrawal(msg.sender,_market, _amount, _commitment, block.timestamp);\r\n\t\treturn true;\r\n\t\t\r\n\t}\r\n\r\n\r\n\tfunction _withdrawDeposit (address _account, bytes32 _market, bytes32 _commitment, uint _amount, BALANCETYPE _request) internal{\r\n\t\t\r\n\t\t_hasAccount(_account);\r\n\t\tmarkets.isMarketSupported(_market);\r\n\r\n\t\t// DepositRecords storage deposit = indDepositRecord[_account][_market][_commitment];\r\n\t\t// YieldLedger storage yield = indYieldRecord[_account][_market][_commitment];\r\n\r\n\t\t_updateYield(msg.sender,_market,_commitment);\r\n\r\n\t\tuint _savingsBalance = _accountBalance(_account, _market, _commitment, _request);\r\n\r\n\t\trequire(_amount >= _savingsBalance, \"Insufficient balance\");\r\n\t\tif (_commitment == comptroller.getCommitment(0))\t{\r\n\t\t\t_updateSavingsBalance(_account, _market, _commitment, _amount, _request);\r\n\t\t}\r\n\t\t/// Transfer funds to the user's wallet.\r\n\t\tmarkets.connectMarket(_market, token);\r\n\t\ttoken.transfer(reserveAddress, _amount);\r\n\r\n\t\t_updateReserves(_market, _amount, 1);\r\n\r\n\t}\r\n\r\n\t// function convertDeposit() external nonReentrant() {}\r\n\r\n\tfunction _preDepositProcess(\r\n\t\taddress _account,\r\n\t\tbytes32 _market,\r\n\t\tuint256 _amount,\r\n\t\tSavingsAccount storage savingsAccount\r\n\t) private{\r\n\r\n\t\tmarkets.isMarketSupported(_market);\r\n\t\t_ensureSavingsAccount(_account,savingsAccount);\r\n\t\t\r\n\t\tmarkets.connectMarket(_market, token);\r\n\t\tmarkets.quantifyAmount(_market, _amount);\r\n\t\t// return this;\r\n\t}\r\n\r\n\tfunction _ensureSavingsAccount(address _account, SavingsAccount storage savingsAccount) private {\r\n\r\n\t\tif (savingsAccount.accOpenTime == 0) {\r\n\r\n\t\t\tsavingsAccount.accOpenTime = block.timestamp;\r\n\t\t\tsavingsAccount.account = _account;\r\n\t\t}\r\n\t}\r\n\r\n\tfunction _updateYield(address _account,bytes32 _market,bytes32 _commitment) internal {\r\n\t\t\r\n\t\tYieldLedger storage yield = indYieldRecord[_account][_market][_commitment];\r\n\t\tDepositRecords storage deposit = indDepositRecord[_account][_market][_commitment];\r\n\t\t// IComptroller.APY storage apy = comptroller.indAPYRecords[commitment_];\r\n\r\n\t\tuint256 index = yield.oldLengthAccruedYield - 1;\r\n\t\tuint256 blockNum = yield.oldTime;\r\n\t\tuint256 aggregateYield = yield.accruedYield;\r\n\r\n\t\tif (comptroller.getApyRecordCount(_commitment) > yield.oldLengthAccruedYield)  {\r\n\t\t\tif (comptroller.getApytime(_commitment, index) < blockNum) {\r\n\t\t\t\tuint256 newIndex = index + 1;\r\n\t\t\t\taggregateYield +=\r\n\t\t\t\t((comptroller.getApytime(_commitment, newIndex) - blockNum) *comptroller.getAPY(_commitment, index))/100;\r\n\r\n\t\t\t\tfor (uint256 i = newIndex; i < comptroller.getApyRecordCount(_commitment); i++) {\r\n\t\t\t\tuint256 blockDiff = comptroller.getApytime(_commitment, i+1) - comptroller.getApytime(_commitment, i);\r\n\t\t\t\taggregateYield += blockDiff*comptroller.getAPY(_commitment, newIndex) / 100;\r\n\t\t\t\t}\r\n\t\t\t} else if (comptroller.getApytime(_commitment, index) == blockNum) {\r\n\t\t\t\tfor (uint256 i = index; i < comptroller.getApyRecordCount(_commitment); i++) {\r\n\t\t\t\tuint256 blockDiff = comptroller.getApytime(_commitment, i+1) - comptroller.getApytime(_commitment, i);\r\n\t\t\t\taggregateYield += blockDiff*comptroller.getAPY(_commitment, index) / 100;\r\n\t\t\t\t}\r\n\t\t\t}\r\n\t\t\t\r\n\t\t\tif (block.timestamp >= comptroller.getApyLastTime(_commitment)) {\r\n\t\t\t\t\taggregateYield += ((block.timestamp - comptroller.getApyLastTime(_commitment)) *comptroller.getAPY(_commitment)) /100;\r\n\t\t\t}\r\n\r\n\t\t}  else if (comptroller.getApyRecordCount(_commitment) == yield.oldLengthAccruedYield)  {\r\n\t\t\taggregateYield += (block.timestamp - blockNum)*comptroller.getAPY(_commitment, index)/100;\r\n\t\t}\r\n\r\n\t// need to add a condition that accounts for multiple deposits of the same kind? Meaning, if \r\n\t// there is an add-on deposit, \r\n\t/// Update: 12th October. 2021\r\n\t// trigger updateYield for newDeposit, add-onDeposit as well.\r\n\t\tyield.accruedYield += deposit.amount * aggregateYield;\r\n\t\tyield.oldLengthAccruedYield = comptroller.getApyTimeLength(_commitment);\r\n\t\tyield.oldTime = block.number;\r\n\t}\r\n\r\n\r\n\tfunction _processNewDeposit(\r\n\t\taddress _account,\r\n\t\tbytes32 _market,\r\n\t\tbytes32 _commitment,\r\n\t\tuint256 _amount\r\n\t) internal {\r\n\t\tSavingsAccount storage savingsAccount = savingsPassbook[_account];\r\n\t\tDepositRecords storage deposit = indDepositRecord[_account][_market][_commitment];\r\n\t\tYieldLedger storage yield = indYieldRecord[_account][_market][_commitment];\r\n\t\t// IComptroller.APY storage apy = comptroller.indAPYRecords[_commitment];\r\n\r\n\t\tuint256 id;\r\n\r\n\t\tif (savingsAccount.deposits.length == 0) {\r\n\t\t\t\tid = 1;\r\n\t\t\t} else {\r\n\t\t\t\tid = savingsAccount.deposits.length + 1;\r\n\t\t}\r\n\r\n\t\t// deposit = DepositRecords({\r\n\t\t// \tid: id,\r\n\t\t// \tmarket:_market,\r\n\t\t// \tcommitment: _commitment,\r\n\t\t// \tamount: _amount,\r\n\t\t// \tlastUpdate: block.timestamp\r\n\t\t// });\t\t\r\n\t\tdeposit = savingsAccount.deposits[savingsAccount.deposits.length];\r\n\t\tdeposit.id = id;\r\n\t\tdeposit.market = _market;\r\n\t\tdeposit.commitment = _commitment;\r\n\t\tdeposit.amount = _amount;\r\n\t\tdeposit.lastUpdate = block.timestamp;\r\n\r\n\t\tif (_commitment != comptroller.getCommitment(0)) {\r\n\t\t\t// yield = YieldLedger({\r\n\t\t\t// \tid: id,\r\n\t\t\t// \tmarket:_market,\r\n\t\t\t// \toldLengthAccruedYield: comptroller.getApyTimeLength(_commitment),\r\n\t\t\t// \toldTime: block.timestamp,\r\n\t\t\t// \taccruedYield: 0,\r\n\t\t\t// \tisTimelockApplicable: true,\r\n\t\t\t// \tisTimelockActivated: false,\r\n\t\t\t// \ttimelockValidity: 86400,\r\n\t\t\t// \tactivationTime: 0\r\n\t\t\t// });\r\n\t\t\tyield = savingsAccount.yield[savingsAccount.yield.length];\r\n\t\t\tyield.id = id;\r\n\t\t\tyield.market = _market;\r\n\t\t\tyield.oldLengthAccruedYield = comptroller.getApyTimeLength(_commitment);\r\n\t\t\tyield.oldTime = block.timestamp;\r\n\t\t\tyield.accruedYield = 0;\r\n\t\t\tyield.isTimelockApplicable = true;\r\n\t\t\tyield.isTimelockActivated = false;\r\n\t\t\tyield.timelockValidity = 86400;\r\n\t\t\tyield.activationTime = 0;\r\n\t\t} else if (\r\n\t\t\t_commitment == comptroller.getCommitment(0)) {\r\n\t\t\t\r\n\t\t\t// yield = YieldLedger({\r\n\t\t\t// \tid: id,\r\n\t\t\t// \tmarket:_market,\r\n\t\t\t// \toldLengthAccruedYield: comptroller.getApyTimeLength(_commitment),\r\n\t\t\t// \toldTime: block.timestamp,\r\n\t\t\t// \taccruedYield: 0,\r\n\t\t\t// \tisTimelockApplicable: false,\r\n\t\t\t// \tisTimelockActivated: true,\r\n\t\t\t// \ttimelockValidity: 0,\r\n\t\t\t// \tactivationTime: 0\r\n\t\t\t// });\r\n\t\t\tyield = savingsAccount.yield[savingsAccount.yield.length];\r\n\t\t\tyield.id = id;\r\n\t\t\tyield.market = _market;\r\n\t\t\tyield.oldLengthAccruedYield = comptroller.getApyTimeLength(_commitment);\r\n\t\t\tyield.oldTime = block.timestamp;\r\n\t\t\tyield.accruedYield = 0;\r\n\t\t\tyield.isTimelockApplicable = false;\r\n\t\t\tyield.isTimelockActivated = true;\r\n\t\t\tyield.timelockValidity = 0;\r\n\t\t\tyield.activationTime = 0;\r\n\t\t}\r\n\t\t// savingsAccount.deposits.push(deposit);\r\n\t\t// savingsAccount.yield.push(yield);\r\n\t}\r\n\r\n\tfunction _hasAccount(address _account) internal view{\r\n\t\trequire(savingsPassbook[_account].accOpenTime!=0, \"ERROR: No savings account\");\r\n\t}\r\n\r\n\tfunction _hasYield(/*address _account, bytes32 _market, bytes32 _commitment, */DepositRecords storage deposit) internal view{\r\n\t\trequire(deposit.id !=0, \"ERROR: No Yield\");\r\n\t\t// return this;\r\n\t}\r\n\r\n\tfunction _createNewDeposit(bytes32 _market,bytes32 _commitment,uint256 _amount) private\t{\r\n\t\tSavingsAccount storage savingsAccount = savingsPassbook[msg.sender];\r\n\t\t_preDepositProcess(msg.sender, _market, _amount, savingsAccount);\r\n\t\ttoken.transfer(reserveAddress, _amount);\r\n\r\n\t\t_processNewDeposit(msg.sender, _market, _commitment, _amount);\r\n\t\t_updateReserves(_market, _amount, 0);\r\n\t}\r\n\r\n\tfunction _convertYield(address _account, bytes32 _market, bytes32 _commitment) private returns (uint) {\r\n\r\n\t\t_hasAccount(_account);\r\n\r\n\t\tuint _amount;\r\n\r\n\t\tSavingsAccount storage savingsAccount = savingsPassbook[msg.sender];\r\n\t\tDepositRecords storage deposit = indDepositRecord[msg.sender][_market][_commitment];\r\n\t\tYieldLedger storage yield = indYieldRecord[msg.sender][_market][_commitment];\r\n\t\t// IComptroller.APY storage apy = comptroller.indAPYRecords[_commitment];\r\n\r\n\t\t\r\n\t\t_hasYield(/*_account, _market, _commitment, */deposit);\r\n\t\t_updateYield(_account,_market,_commitment);\r\n\r\n\t\t_amount = yield.accruedYield;\r\n\r\n\t\t// updating yield\r\n\t\tyield.accruedYield = 0;\r\n\r\n\t\tdeposit.amount += _amount;\r\n\t\tdeposit.lastUpdate = block.timestamp;\r\n\r\n\t\tsavingsAccount.deposits[deposit.id -1].amount += _amount;\r\n\t\tsavingsAccount.deposits[deposit.id -1].lastUpdate = block.timestamp;\r\n\t\tsavingsAccount.yield[deposit.id-1].accruedYield = 0;\r\n\r\n\t\treturn _amount;\r\n\t}\r\n\r\n\tfunction _accountBalance(address _account, bytes32 _market, bytes32 _commitment, BALANCETYPE _request) private returns (uint) {\r\n\r\n\t\tuint _savingsBalance;\r\n\t\t\r\n\t\tDepositRecords storage deposit = indDepositRecord[_account][_market][_commitment];\r\n\t\tYieldLedger storage yield = indYieldRecord[_account][_market][_commitment];\r\n\r\n\t\tif (_request == BALANCETYPE.DEPOSIT)\t{\r\n\t\t\t_savingsBalance = deposit.amount;\r\n\r\n\t\t}\telse if (_request == BALANCETYPE.YIELD)\t{\r\n\t\t\t_updateYield(msg.sender,_market,_commitment);\r\n\t\t\t_savingsBalance =  yield.accruedYield;\r\n\r\n\t\t}\telse if (_request == BALANCETYPE.BOTH)\t{\r\n\t\t\t_updateYield(msg.sender,_market,_commitment);\r\n\t\t\t_savingsBalance = deposit.amount + yield.accruedYield;\r\n\t\t}\r\n\t\treturn _savingsBalance;\r\n\t}\r\n\r\n\tfunction _updateSavingsBalance(address _account, bytes32 _market, bytes32 _commitment, uint _amount, BALANCETYPE _request) internal {\r\n\r\n\t\tDepositRecords storage deposit = indDepositRecord[_account][_market][_commitment];\r\n\t\tYieldLedger storage yield = indYieldRecord[_account][_market][_commitment];\r\n\r\n\t\tif (_request == BALANCETYPE.DEPOSIT)\t{\r\n\t\t\tdeposit.amount -= _amount;\r\n\t\t\tdeposit.lastUpdate =  block.timestamp;\r\n\r\n\t\t}\telse if (_request == BALANCETYPE.YIELD)\t{\r\n\r\n\t\t\tif (yield.isTimelockApplicable == false || block.timestamp >= yield.activationTime+yield.timelockValidity)\t{\r\n\t\t\t\t\r\n\t\t\t\t// _updateYield(msg.sender,_market,_commitment);\r\n\t\t\t\tyield.accruedYield -= _amount;\r\n\t\t\t\tyield.oldTime = block.timestamp;\r\n\t\t\t}\telse if (yield.isTimelockApplicable != false || block.timestamp < yield.activationTime+yield.timelockValidity)\t{\r\n\t\t\t\trevert ('Withdrawal can not be processed');\r\n\t\t\t}\r\n\r\n\t\t}\telse if (_request == BALANCETYPE.BOTH)\t{\r\n\r\n\t\t\t// require (deposit.id == yield.id, \"mapping error\");\r\n\r\n\t\t\tif (yield.isTimelockApplicable == false || block.timestamp >= yield.activationTime+yield.timelockValidity)\t{\r\n\t\t\t\t// _updateYield(msg.sender,_market,_commitment);\r\n\t\t\t\tyield.accruedYield -= _amount;\r\n\t\t\t\tyield.oldTime = block.timestamp;\r\n\r\n\t\t\t}\telse if (yield.isTimelockApplicable != false || block.timestamp < yield.activationTime+yield.timelockValidity)\t{\r\n\t\t\t\trevert ('Withdrawal can not be processed');\r\n\t\t\t}\r\n\t\t\t\r\n\t\t\tdeposit.amount -= _amount;\r\n\t\t\tdeposit.lastUpdate =  block.timestamp;\r\n\t\t}\r\n\t}\r\n\r\n\tfunction setReserveAddress(address reserveAddr_) public authDeposit() {\r\n\t\treserveAddress = reserveAddr_;\r\n\t}\r\n\r\n\tfunction pause() external authDeposit() nonReentrant() {\r\n\t\t_pause();\r\n\t}\r\n\t\r\n\tfunction unpause() external authDeposit() nonReentrant() {\r\n\t\t_unpause();   \r\n\t}\r\n\r\n\tmodifier authDeposit() {\r\n\t\trequire(\r\n\t\t\tmsg.sender == adminDepositAddress,\r\n\t\t\t\"Only an admin can call this function\"\r\n\t\t);\r\n\t\t_;\r\n\t}\r\n}",
  "sourcePath": "F:\\workspace\\Open-protocol\\contracts\\Deposit.sol",
  "compiler": {
    "name": "solc",
    "version": "0.8.9+commit.e5eed63a.Emscripten.clang"
  },
  "schemaVersion": "3.4.3",
  "updatedAt": "2021-10-18T07:46:32.448Z",
  "devdoc": {
    "kind": "dev",
    "methods": {},
    "version": 1
  },
  "userdoc": {
    "kind": "user",
    "methods": {},
    "version": 1
  }
}