{
  "contractName": "Deposit",
  "abi": [
    {
      "inputs": [
        {
          "internalType": "address",
          "name": "tokenListAddr_",
          "type": "address"
        },
        {
          "internalType": "address",
          "name": "comptrollerAddr_",
          "type": "address"
        },
        {
          "internalType": "address",
          "name": "reserveAddr_",
          "type": "address"
        }
      ],
      "stateMutability": "nonpayable",
      "type": "constructor"
    },
    {
      "anonymous": false,
      "inputs": [
        {
          "indexed": true,
          "internalType": "address",
          "name": "account",
          "type": "address"
        },
        {
          "indexed": true,
          "internalType": "bytes32",
          "name": "market",
          "type": "bytes32"
        },
        {
          "indexed": false,
          "internalType": "bytes32",
          "name": "commmitment",
          "type": "bytes32"
        },
        {
          "indexed": true,
          "internalType": "uint256",
          "name": "amount",
          "type": "uint256"
        }
      ],
      "name": "NewDeposit",
      "type": "event"
    },
    {
      "anonymous": false,
      "inputs": [
        {
          "indexed": true,
          "internalType": "address",
          "name": "_pauser",
          "type": "address"
        },
        {
          "indexed": false,
          "internalType": "bool",
          "name": "isPaused",
          "type": "bool"
        }
      ],
      "name": "PauseState",
      "type": "event"
    },
    {
      "anonymous": false,
      "inputs": [
        {
          "indexed": true,
          "internalType": "address",
          "name": "account",
          "type": "address"
        },
        {
          "indexed": true,
          "internalType": "bytes32",
          "name": "market",
          "type": "bytes32"
        },
        {
          "indexed": true,
          "internalType": "uint256",
          "name": "amount",
          "type": "uint256"
        },
        {
          "indexed": false,
          "internalType": "bytes32",
          "name": "commitment",
          "type": "bytes32"
        },
        {
          "indexed": false,
          "internalType": "uint256",
          "name": "timestamp",
          "type": "uint256"
        }
      ],
      "name": "Withdrawal",
      "type": "event"
    },
    {
      "anonymous": false,
      "inputs": [
        {
          "indexed": true,
          "internalType": "address",
          "name": "account",
          "type": "address"
        },
        {
          "indexed": true,
          "internalType": "bytes32",
          "name": "market",
          "type": "bytes32"
        },
        {
          "indexed": false,
          "internalType": "bytes32",
          "name": "commmitment",
          "type": "bytes32"
        },
        {
          "indexed": true,
          "internalType": "uint256",
          "name": "amount",
          "type": "uint256"
        }
      ],
      "name": "YieldDeposited",
      "type": "event"
    },
    {
      "stateMutability": "payable",
      "type": "fallback"
    },
    {
      "inputs": [],
      "name": "pauseState",
      "outputs": [
        {
          "internalType": "string",
          "name": "",
          "type": "string"
        }
      ],
      "stateMutability": "view",
      "type": "function"
    },
    {
      "inputs": [],
      "name": "paused",
      "outputs": [
        {
          "internalType": "bool",
          "name": "",
          "type": "bool"
        }
      ],
      "stateMutability": "view",
      "type": "function"
    },
    {
      "stateMutability": "payable",
      "type": "receive"
    },
    {
      "inputs": [
        {
          "internalType": "address",
          "name": "token_",
          "type": "address"
        },
        {
          "internalType": "address",
          "name": "recipient_",
          "type": "address"
        },
        {
          "internalType": "uint256",
          "name": "value_",
          "type": "uint256"
        }
      ],
      "name": "transferAnyERC20",
      "outputs": [
        {
          "internalType": "bool",
          "name": "",
          "type": "bool"
        }
      ],
      "stateMutability": "nonpayable",
      "type": "function"
    },
    {
      "inputs": [
        {
          "internalType": "address",
          "name": "account_",
          "type": "address"
        }
      ],
      "name": "hasAccount",
      "outputs": [
        {
          "internalType": "bool",
          "name": "",
          "type": "bool"
        }
      ],
      "stateMutability": "nonpayable",
      "type": "function"
    },
    {
      "inputs": [
        {
          "internalType": "address",
          "name": "account_",
          "type": "address"
        },
        {
          "internalType": "bytes32",
          "name": "market_",
          "type": "bytes32"
        },
        {
          "internalType": "bytes32",
          "name": "commitment_",
          "type": "bytes32"
        }
      ],
      "name": "hasYield",
      "outputs": [
        {
          "internalType": "bool",
          "name": "",
          "type": "bool"
        }
      ],
      "stateMutability": "nonpayable",
      "type": "function"
    },
    {
      "inputs": [
        {
          "internalType": "bytes32",
          "name": "market_",
          "type": "bytes32"
        },
        {
          "internalType": "bytes32",
          "name": "commitment_",
          "type": "bytes32"
        },
        {
          "internalType": "uint256",
          "name": "amount_",
          "type": "uint256"
        }
      ],
      "name": "createDeposit",
      "outputs": [
        {
          "internalType": "bool",
          "name": "",
          "type": "bool"
        }
      ],
      "stateMutability": "nonpayable",
      "type": "function"
    },
    {
      "inputs": [
        {
          "internalType": "bytes32",
          "name": "market_",
          "type": "bytes32"
        },
        {
          "internalType": "bytes32",
          "name": "commitment_",
          "type": "bytes32"
        },
        {
          "internalType": "enum Deposit.BALANCETYPE",
          "name": "request_",
          "type": "uint8"
        }
      ],
      "name": "savingsBalance",
      "outputs": [
        {
          "internalType": "uint256",
          "name": "",
          "type": "uint256"
        }
      ],
      "stateMutability": "nonpayable",
      "type": "function"
    },
    {
      "inputs": [
        {
          "internalType": "bytes32",
          "name": "market_",
          "type": "bytes32"
        },
        {
          "internalType": "bytes32",
          "name": "commitment_",
          "type": "bytes32"
        },
        {
          "internalType": "uint256",
          "name": "amount_",
          "type": "uint256"
        },
        {
          "internalType": "enum Deposit.BALANCETYPE",
          "name": "request_",
          "type": "uint8"
        }
      ],
      "name": "withdrawFunds",
      "outputs": [
        {
          "internalType": "bool",
          "name": "",
          "type": "bool"
        }
      ],
      "stateMutability": "nonpayable",
      "type": "function"
    },
    {
      "inputs": [
        {
          "internalType": "bytes32",
          "name": "market_",
          "type": "bytes32"
        },
        {
          "internalType": "bytes32",
          "name": "oldCommitment_",
          "type": "bytes32"
        },
        {
          "internalType": "bytes32",
          "name": "newCommitment_",
          "type": "bytes32"
        }
      ],
      "name": "convertYield",
      "outputs": [
        {
          "internalType": "bool",
          "name": "",
          "type": "bool"
        }
      ],
      "stateMutability": "nonpayable",
      "type": "function"
    },
    {
      "inputs": [],
      "name": "pause",
      "outputs": [],
      "stateMutability": "nonpayable",
      "type": "function"
    },
    {
      "inputs": [],
      "name": "unpause",
      "outputs": [],
      "stateMutability": "nonpayable",
      "type": "function"
    }
  ],
  "bytecode": "0x608060405260008060006101000a81548160ff0219169083151502179055503480156200002b57600080fd5b50604051620031b6380380620031b68339818101604052810190620000519190620001e2565b60008060016101000a81548160ff02191690831515021790555081600560006101000a81548173ffffffffffffffffffffffffffffffffffffffff021916908373ffffffffffffffffffffffffffffffffffffffff16021790555082600460006101000a81548173ffffffffffffffffffffffffffffffffffffffff021916908373ffffffffffffffffffffffffffffffffffffffff16021790555080600660006101000a81548173ffffffffffffffffffffffffffffffffffffffff021916908373ffffffffffffffffffffffffffffffffffffffff16021790555033600260006101000a81548173ffffffffffffffffffffffffffffffffffffffff021916908373ffffffffffffffffffffffffffffffffffffffff1602179055505050506200023e565b600080fd5b600073ffffffffffffffffffffffffffffffffffffffff82169050919050565b6000620001aa826200017d565b9050919050565b620001bc816200019d565b8114620001c857600080fd5b50565b600081519050620001dc81620001b1565b92915050565b600080600060608486031215620001fe57620001fd62000178565b5b60006200020e86828701620001cb565b93505060206200022186828701620001cb565b92505060406200023486828701620001cb565b9150509250925092565b612f68806200024e6000396000f3fe6080604052600436106100a05760003560e01c8063bbae3c9e11610064578063bbae3c9e1461025c578063c8e40fbf14610299578063cd9579bc146102d6578063d711835114610313578063df29f96a1461033e578063ed1e739a1461037b57610117565b80633f4ba83a146101895780635b6f547e146101a05780635c975abb146101dd5780638456cb5914610208578063b6a4b1de1461021f57610117565b3661011757600260009054906101000a900473ffffffffffffffffffffffffffffffffffffffff1673ffffffffffffffffffffffffffffffffffffffff166108fc6100e96103b8565b9081150290604051600060405180830381858888f19350505050158015610114573d6000803e3d6000fd5b50005b600260009054906101000a900473ffffffffffffffffffffffffffffffffffffffff1673ffffffffffffffffffffffffffffffffffffffff166108fc61015b6103b8565b9081150290604051600060405180830381858888f19350505050158015610186573d6000803e3d6000fd5b50005b34801561019557600080fd5b5061019e6103c0565b005b3480156101ac57600080fd5b506101c760048036038101906101c291906124a2565b6104e2565b6040516101d49190612510565b60405180910390f35b3480156101e957600080fd5b506101f261057d565b6040516101ff9190612510565b60405180910390f35b34801561021457600080fd5b5061021d610593565b005b34801561022b57600080fd5b5061024660048036038101906102419190612561565b6106b5565b6040516102539190612510565b60405180910390f35b34801561026857600080fd5b50610283600480360381019061027e91906125b4565b6106cd565b6040516102909190612510565b60405180910390f35b3480156102a557600080fd5b506102c060048036038101906102bb9190612607565b6107bf565b6040516102cd9190612510565b60405180910390f35b3480156102e257600080fd5b506102fd60048036038101906102f89190612659565b6107d3565b60405161030a91906126bb565b60405180910390f35b34801561031f57600080fd5b506103286107ed565b604051610335919061276f565b60405180910390f35b34801561034a57600080fd5b5061036560048036038101906103609190612791565b610867565b6040516103729190612510565b60405180910390f35b34801561038757600080fd5b506103a2600480360381019061039d91906127e4565b610956565b6040516103af9190612510565b60405180910390f35b600034905090565b600260009054906101000a900473ffffffffffffffffffffffffffffffffffffffff1673ffffffffffffffffffffffffffffffffffffffff163373ffffffffffffffffffffffffffffffffffffffff1614610450576040517f08c379a0000000000000000000000000000000000000000000000000000000008152600401610447906128bd565b60405180910390fd5b6000151560008054906101000a900460ff161515146104a4576040517f08c379a000000000000000000000000000000000000000000000000000000000815260040161049b90612929565b60405180910390fd5b60016000806101000a81548160ff0219169083151502179055506104c6610b67565b60008060006101000a81548160ff021916908315150217905550565b60008373ffffffffffffffffffffffffffffffffffffffff1663a9059cbb84846040518363ffffffff1660e01b815260040161051f929190612958565b602060405180830381600087803b15801561053957600080fd5b505af115801561054d573d6000803e3d6000fd5b505050506040513d601f19601f8201168201806040525081019061057191906129ad565b50600190509392505050565b60008060019054906101000a900460ff16905090565b600260009054906101000a900473ffffffffffffffffffffffffffffffffffffffff1673ffffffffffffffffffffffffffffffffffffffff163373ffffffffffffffffffffffffffffffffffffffff1614610623576040517f08c379a000000000000000000000000000000000000000000000000000000000815260040161061a906128bd565b60405180910390fd5b6000151560008054906101000a900460ff16151514610677576040517f08c379a000000000000000000000000000000000000000000000000000000000815260040161066e90612929565b60405180910390fd5b60016000806101000a81548160ff021916908315150217905550610699610c20565b60008060006101000a81548160ff021916908315150217905550565b60006106c2848484610cdb565b600190509392505050565b600080151560008054906101000a900460ff16151514610722576040517f08c379a000000000000000000000000000000000000000000000000000000000815260040161071990612929565b60405180910390fd5b60016000806101000a81548160ff021916908315150217905550610747848484610d8e565b600080853373ffffffffffffffffffffffffffffffffffffffff167f518b80a2da6eadc33bf03797e1c2a5d7087d6bc2e6e960e1852526b8d0f3b4fa8660405161079191906129e9565b60405180910390a4600191505060008060006101000a81548160ff0219169083151502179055509392505050565b60006107ca82610dbb565b60019050919050565b6000806107e233868686610e44565b809150509392505050565b606060011515600060019054906101000a900460ff161515141561082b576040518060600160405280603d8152602001612ef6603d91399050610864565b6040518060400160405280601681526020017f436f6e7472616374206973206e6f74207061757365640000000000000000000081525090505b90565b600080151560008054906101000a900460ff161515146108bc576040517f08c379a00000000000000000000000000000000000000000000000000000000081526004016108b390612929565b60405180910390fd5b60016000806101000a81548160ff0219169083151502179055506108e1848484610f16565b81843373ffffffffffffffffffffffffffffffffffffffff167fe5e90022a16efe318e3be758157c8b021ac46773ff87a62c8d88e9698c8d82a68660405161092991906129e9565b60405180910390a46001905060008060006101000a81548160ff0219169083151502179055509392505050565b600080151560008054906101000a900460ff161515146109ab576040517f08c379a00000000000000000000000000000000000000000000000000000000081526004016109a290612929565b60405180910390fd5b60016000806101000a81548160ff0219169083151502179055506109ce85611012565b6109d733610dbb565b60006109e533878786610e44565b80841015610a28576040517f08c379a0000000000000000000000000000000000000000000000000000000008152600401610a1f90612a50565b60405180910390fd5b610a3433868686611107565b610a3e868561110d565b600760009054906101000a900473ffffffffffffffffffffffffffffffffffffffff1673ffffffffffffffffffffffffffffffffffffffff1663a9059cbb33866040518363ffffffff1660e01b8152600401610a9b929190612958565b602060405180830381600087803b158015610ab557600080fd5b505af1158015610ac9573d6000803e3d6000fd5b505050506040513d601f19601f82011682018060405250810190610aed91906129ad565b5083863373ffffffffffffffffffffffffffffffffffffffff167f2cf34188b50ffe4cba3e004169d7725c886f53474a39abef02a2aa6ac93ac3568842604051610b38929190612a70565b60405180910390a4600191505060008060006101000a81548160ff021916908315150217905550949350505050565b610b6f61057d565b610bae576040517f08c379a0000000000000000000000000000000000000000000000000000000008152600401610ba590612ae5565b60405180910390fd5b60008060016101000a81548160ff021916908315150217905550610bd06112ba565b73ffffffffffffffffffffffffffffffffffffffff167fd90c20276b7955800df9b223f244944b25b581f437448b1978aa61d4036b428a6000604051610c169190612510565b60405180910390a2565b610c2861057d565b15610c68576040517f08c379a0000000000000000000000000000000000000000000000000000000008152600401610c5f90612b51565b60405180910390fd5b6001600060016101000a81548160ff021916908315150217905550610c8b6112ba565b73ffffffffffffffffffffffffffffffffffffffff167fd90c20276b7955800df9b223f244944b25b581f437448b1978aa61d4036b428a6001604051610cd19190612510565b60405180910390a2565b6000600a60008573ffffffffffffffffffffffffffffffffffffffff1673ffffffffffffffffffffffffffffffffffffffff168152602001908152602001600020600084815260200190815260200160002060008381526020019081526020016000209050600081600001541415610d88576040517f08c379a0000000000000000000000000000000000000000000000000000000008152600401610d7f90612bbd565b60405180910390fd5b50505050565b610d9733610dbb565b610da2338484610cdb565b610dab83611012565b610db63384846112c2565b505050565b6000600860008373ffffffffffffffffffffffffffffffffffffffff1673ffffffffffffffffffffffffffffffffffffffff168152602001908152602001600020600001541415610e41576040517f08c379a0000000000000000000000000000000000000000000000000000000008152600401610e3890612c29565b60405180910390fd5b50565b6000600960008673ffffffffffffffffffffffffffffffffffffffff1673ffffffffffffffffffffffffffffffffffffffff1681526020019081526020016000206000858152602001908152602001600020600084815260200190815260200160002090506000600a60008773ffffffffffffffffffffffffffffffffffffffff1673ffffffffffffffffffffffffffffffffffffffff168152602001908152602001600020600086815260200190815260200160002060008581526020019081526020016000209050505050505050565b6000610f23338584612231565b600760009054906101000a900473ffffffffffffffffffffffffffffffffffffffff1673ffffffffffffffffffffffffffffffffffffffff1663a9059cbb600660009054906101000a900473ffffffffffffffffffffffffffffffffffffffff16846040518363ffffffff1660e01b8152600401610fa2929190612958565b602060405180830381600087803b158015610fbc57600080fd5b505af1158015610fd0573d6000803e3d6000fd5b505050506040513d601f19601f82011682018060405250810190610ff491906129ad565b506110003385856112c2565b61100c33858585612252565b50505050565b60001515600460009054906101000a900473ffffffffffffffffffffffffffffffffffffffff1673ffffffffffffffffffffffffffffffffffffffff16639985aaa6836040518263ffffffff1660e01b815260040161107191906129e9565b60206040518083038186803b15801561108957600080fd5b505afa15801561109d573d6000803e3d6000fd5b505050506040513d601f19601f820116820180604052508101906110c191906129ad565b15151415611104576040517f08c379a00000000000000000000000000000000000000000000000000000000081526004016110fb90612c95565b60405180910390fd5b50565b50505050565b6000600460009054906101000a900473ffffffffffffffffffffffffffffffffffffffff1673ffffffffffffffffffffffffffffffffffffffff1663ecf21d84846040518263ffffffff1660e01b815260040161116a91906129e9565b60206040518083038186803b15801561118257600080fd5b505afa158015611196573d6000803e3d6000fd5b505050506040513d601f19601f820116820180604052508101906111ba9190612cca565b905080600760006101000a81548173ffffffffffffffffffffffffffffffffffffffff021916908373ffffffffffffffffffffffffffffffffffffffff160217905550600460009054906101000a900473ffffffffffffffffffffffffffffffffffffffff1673ffffffffffffffffffffffffffffffffffffffff166371f082da846040518263ffffffff1660e01b815260040161125891906129e9565b60206040518083038186803b15801561127057600080fd5b505afa158015611284573d6000803e3d6000fd5b505050506040513d601f19601f820116820180604052508101906112a89190612d0c565b826112b39190612d68565b9150505050565b600033905090565b6000600a60008573ffffffffffffffffffffffffffffffffffffffff1673ffffffffffffffffffffffffffffffffffffffff1681526020019081526020016000206000848152602001908152602001600020600083815260200190815260200160002090506000600960008673ffffffffffffffffffffffffffffffffffffffff1673ffffffffffffffffffffffffffffffffffffffff16815260200190815260200160002060008581526020019081526020016000206000848152602001908152602001600020905060006001836001015461139f9190612dc2565b905060008360020154905060008460040154905081600560009054906101000a900473ffffffffffffffffffffffffffffffffffffffff1673ffffffffffffffffffffffffffffffffffffffff1663476015c788866040518363ffffffff1660e01b8152600401611411929190612a70565b60206040518083038186803b15801561142957600080fd5b505afa15801561143d573d6000803e3d6000fd5b505050506040513d601f19601f820116820180604052508101906114619190612d0c565b10156119185760006001846114769190612df6565b90506064600560009054906101000a900473ffffffffffffffffffffffffffffffffffffffff1673ffffffffffffffffffffffffffffffffffffffff166374ef191189876040518363ffffffff1660e01b81526004016114d7929190612a70565b60206040518083038186803b1580156114ef57600080fd5b505afa158015611503573d6000803e3d6000fd5b505050506040513d601f19601f820116820180604052508101906115279190612d0c565b84600560009054906101000a900473ffffffffffffffffffffffffffffffffffffffff1673ffffffffffffffffffffffffffffffffffffffff1663476015c78b866040518363ffffffff1660e01b8152600401611585929190612a70565b60206040518083038186803b15801561159d57600080fd5b505afa1580156115b1573d6000803e3d6000fd5b505050506040513d601f19601f820116820180604052508101906115d59190612d0c565b6115df9190612dc2565b6115e99190612d68565b6115f39190612e7b565b826115fe9190612df6565b915060008190505b600560009054906101000a900473ffffffffffffffffffffffffffffffffffffffff1673ffffffffffffffffffffffffffffffffffffffff1663999fc850896040518263ffffffff1660e01b815260040161166191906129e9565b60206040518083038186803b15801561167957600080fd5b505afa15801561168d573d6000803e3d6000fd5b505050506040513d601f19601f820116820180604052508101906116b19190612d0c565b811015611911576000600560009054906101000a900473ffffffffffffffffffffffffffffffffffffffff1673ffffffffffffffffffffffffffffffffffffffff1663476015c78a846040518363ffffffff1660e01b8152600401611717929190612a70565b60206040518083038186803b15801561172f57600080fd5b505afa158015611743573d6000803e3d6000fd5b505050506040513d601f19601f820116820180604052508101906117679190612d0c565b600560009054906101000a900473ffffffffffffffffffffffffffffffffffffffff1673ffffffffffffffffffffffffffffffffffffffff1663476015c78b6001866117b39190612df6565b6040518363ffffffff1660e01b81526004016117d0929190612a70565b60206040518083038186803b1580156117e857600080fd5b505afa1580156117fc573d6000803e3d6000fd5b505050506040513d601f19601f820116820180604052508101906118209190612d0c565b61182a9190612dc2565b90506064600560009054906101000a900473ffffffffffffffffffffffffffffffffffffffff1673ffffffffffffffffffffffffffffffffffffffff166374ef19118b866040518363ffffffff1660e01b815260040161188b929190612a70565b60206040518083038186803b1580156118a357600080fd5b505afa1580156118b7573d6000803e3d6000fd5b505050506040513d601f19601f820116820180604052508101906118db9190612d0c565b826118e69190612d68565b6118f09190612e7b565b846118fb9190612df6565b935050808061190990612eac565b915050611606565b5050611ce0565b81600560009054906101000a900473ffffffffffffffffffffffffffffffffffffffff1673ffffffffffffffffffffffffffffffffffffffff1663476015c788866040518363ffffffff1660e01b8152600401611976929190612a70565b60206040518083038186803b15801561198e57600080fd5b505afa1580156119a2573d6000803e3d6000fd5b505050506040513d601f19601f820116820180604052508101906119c69190612d0c565b1415611cdf5760008390505b600560009054906101000a900473ffffffffffffffffffffffffffffffffffffffff1673ffffffffffffffffffffffffffffffffffffffff1663999fc850886040518263ffffffff1660e01b8152600401611a2d91906129e9565b60206040518083038186803b158015611a4557600080fd5b505afa158015611a59573d6000803e3d6000fd5b505050506040513d601f19601f82011682018060405250810190611a7d9190612d0c565b811015611cdd576000600560009054906101000a900473ffffffffffffffffffffffffffffffffffffffff1673ffffffffffffffffffffffffffffffffffffffff1663476015c789846040518363ffffffff1660e01b8152600401611ae3929190612a70565b60206040518083038186803b158015611afb57600080fd5b505afa158015611b0f573d6000803e3d6000fd5b505050506040513d601f19601f82011682018060405250810190611b339190612d0c565b600560009054906101000a900473ffffffffffffffffffffffffffffffffffffffff1673ffffffffffffffffffffffffffffffffffffffff1663476015c78a600186611b7f9190612df6565b6040518363ffffffff1660e01b8152600401611b9c929190612a70565b60206040518083038186803b158015611bb457600080fd5b505afa158015611bc8573d6000803e3d6000fd5b505050506040513d601f19601f82011682018060405250810190611bec9190612d0c565b611bf69190612dc2565b90506064600560009054906101000a900473ffffffffffffffffffffffffffffffffffffffff1673ffffffffffffffffffffffffffffffffffffffff166374ef19118a886040518363ffffffff1660e01b8152600401611c57929190612a70565b60206040518083038186803b158015611c6f57600080fd5b505afa158015611c83573d6000803e3d6000fd5b505050506040513d601f19601f82011682018060405250810190611ca79190612d0c565b82611cb29190612d68565b611cbc9190612e7b565b83611cc79190612df6565b9250508080611cd590612eac565b9150506119d2565b505b5b600560009054906101000a900473ffffffffffffffffffffffffffffffffffffffff1673ffffffffffffffffffffffffffffffffffffffff1663476015c7876001600560009054906101000a900473ffffffffffffffffffffffffffffffffffffffff1673ffffffffffffffffffffffffffffffffffffffff1663999fc8508b6040518263ffffffff1660e01b8152600401611d7c91906129e9565b60206040518083038186803b158015611d9457600080fd5b505afa158015611da8573d6000803e3d6000fd5b505050506040513d601f19601f82011682018060405250810190611dcc9190612d0c565b611dd69190612dc2565b6040518363ffffffff1660e01b8152600401611df3929190612a70565b60206040518083038186803b158015611e0b57600080fd5b505afa158015611e1f573d6000803e3d6000fd5b505050506040513d601f19601f82011682018060405250810190611e439190612d0c565b43111561213f576064600560009054906101000a900473ffffffffffffffffffffffffffffffffffffffff1673ffffffffffffffffffffffffffffffffffffffff166374ef1911886001600560009054906101000a900473ffffffffffffffffffffffffffffffffffffffff1673ffffffffffffffffffffffffffffffffffffffff1663999fc8508c6040518263ffffffff1660e01b8152600401611ee891906129e9565b60206040518083038186803b158015611f0057600080fd5b505afa158015611f14573d6000803e3d6000fd5b505050506040513d601f19601f82011682018060405250810190611f389190612d0c565b611f429190612dc2565b6040518363ffffffff1660e01b8152600401611f5f929190612a70565b60206040518083038186803b158015611f7757600080fd5b505afa158015611f8b573d6000803e3d6000fd5b505050506040513d601f19601f82011682018060405250810190611faf9190612d0c565b600560009054906101000a900473ffffffffffffffffffffffffffffffffffffffff1673ffffffffffffffffffffffffffffffffffffffff1663476015c7896001600560009054906101000a900473ffffffffffffffffffffffffffffffffffffffff1673ffffffffffffffffffffffffffffffffffffffff1663999fc8508d6040518263ffffffff1660e01b815260040161204b91906129e9565b60206040518083038186803b15801561206357600080fd5b505afa158015612077573d6000803e3d6000fd5b505050506040513d601f19601f8201168201806040525081019061209b9190612d0c565b6120a59190612dc2565b6040518363ffffffff1660e01b81526004016120c2929190612a70565b60206040518083038186803b1580156120da57600080fd5b505afa1580156120ee573d6000803e3d6000fd5b505050506040513d601f19601f820116820180604052508101906121129190612d0c565b4361211d9190612dc2565b6121279190612d68565b6121319190612e7b565b8161213c9190612df6565b90505b60035484600401546121519190612d68565b8560040160008282546121649190612df6565b92505081905550600560009054906101000a900473ffffffffffffffffffffffffffffffffffffffff1673ffffffffffffffffffffffffffffffffffffffff1663999fc850876040518263ffffffff1660e01b81526004016121c691906129e9565b60206040518083038186803b1580156121de57600080fd5b505afa1580156121f2573d6000803e3d6000fd5b505050506040513d601f19601f820116820180604052508101906122169190612d0c565b85600101819055504385600201819055505050505050505050565b61223a82611012565b61224383612368565b61224d828261110d565b505050565b6000600960008673ffffffffffffffffffffffffffffffffffffffff1673ffffffffffffffffffffffffffffffffffffffff1681526020019081526020016000206000858152602001908152602001600020600084815260200190815260200160002090506000600860008773ffffffffffffffffffffffffffffffffffffffff1673ffffffffffffffffffffffffffffffffffffffff16815260200190815260200160002090506000600a60008873ffffffffffffffffffffffffffffffffffffffff1673ffffffffffffffffffffffffffffffffffffffff16815260200190815260200160002060008781526020019081526020016000206000868152602001908152602001600020905050505050505050565b6000600860008373ffffffffffffffffffffffffffffffffffffffff1673ffffffffffffffffffffffffffffffffffffffff168152602001908152602001600020905060008160000154141561240557428160000181905550818160010160006101000a81548173ffffffffffffffffffffffffffffffffffffffff021916908373ffffffffffffffffffffffffffffffffffffffff1602179055505b5050565b600080fd5b600073ffffffffffffffffffffffffffffffffffffffff82169050919050565b60006124398261240e565b9050919050565b6124498161242e565b811461245457600080fd5b50565b60008135905061246681612440565b92915050565b6000819050919050565b61247f8161246c565b811461248a57600080fd5b50565b60008135905061249c81612476565b92915050565b6000806000606084860312156124bb576124ba612409565b5b60006124c986828701612457565b93505060206124da86828701612457565b92505060406124eb8682870161248d565b9150509250925092565b60008115159050919050565b61250a816124f5565b82525050565b60006020820190506125256000830184612501565b92915050565b6000819050919050565b61253e8161252b565b811461254957600080fd5b50565b60008135905061255b81612535565b92915050565b60008060006060848603121561257a57612579612409565b5b600061258886828701612457565b93505060206125998682870161254c565b92505060406125aa8682870161254c565b9150509250925092565b6000806000606084860312156125cd576125cc612409565b5b60006125db8682870161254c565b93505060206125ec8682870161254c565b92505060406125fd8682870161254c565b9150509250925092565b60006020828403121561261d5761261c612409565b5b600061262b84828501612457565b91505092915050565b6003811061264157600080fd5b50565b60008135905061265381612634565b92915050565b60008060006060848603121561267257612671612409565b5b60006126808682870161254c565b93505060206126918682870161254c565b92505060406126a286828701612644565b9150509250925092565b6126b58161246c565b82525050565b60006020820190506126d060008301846126ac565b92915050565b600081519050919050565b600082825260208201905092915050565b60005b838110156127105780820151818401526020810190506126f5565b8381111561271f576000848401525b50505050565b6000601f19601f8301169050919050565b6000612741826126d6565b61274b81856126e1565b935061275b8185602086016126f2565b61276481612725565b840191505092915050565b600060208201905081810360008301526127898184612736565b905092915050565b6000806000606084860312156127aa576127a9612409565b5b60006127b88682870161254c565b93505060206127c98682870161254c565b92505060406127da8682870161248d565b9150509250925092565b600080600080608085870312156127fe576127fd612409565b5b600061280c8782880161254c565b945050602061281d8782880161254c565b935050604061282e8782880161248d565b925050606061283f87828801612644565b91505092959194509250565b7f4f6e6c79204465706f7369742061646d696e2063616e2063616c6c207468697360008201527f2066756e6374696f6e0000000000000000000000000000000000000000000000602082015250565b60006128a76029836126e1565b91506128b28261284b565b604082019050919050565b600060208201905081810360008301526128d68161289a565b9050919050565b7f52652d656e7472616e7420616c65727421000000000000000000000000000000600082015250565b60006129136011836126e1565b915061291e826128dd565b602082019050919050565b6000602082019050818103600083015261294281612906565b9050919050565b6129528161242e565b82525050565b600060408201905061296d6000830185612949565b61297a60208301846126ac565b9392505050565b61298a816124f5565b811461299557600080fd5b50565b6000815190506129a781612981565b92915050565b6000602082840312156129c3576129c2612409565b5b60006129d184828501612998565b91505092915050565b6129e38161252b565b82525050565b60006020820190506129fe60008301846129da565b92915050565b7f496e73756666696369656e742062616c616e6365000000000000000000000000600082015250565b6000612a3a6014836126e1565b9150612a4582612a04565b602082019050919050565b60006020820190508181036000830152612a6981612a2d565b9050919050565b6000604082019050612a8560008301856129da565b612a9260208301846126ac565b9392505050565b7f4e6f742070617573656420737461747573000000000000000000000000000000600082015250565b6000612acf6011836126e1565b9150612ada82612a99565b602082019050919050565b60006020820190508181036000830152612afe81612ac2565b9050919050565b7f5061757365642073746174757300000000000000000000000000000000000000600082015250565b6000612b3b600d836126e1565b9150612b4682612b05565b602082019050919050565b60006020820190508181036000830152612b6a81612b2e565b9050919050565b7f5969656c6420646f6573206e6f74206578697374000000000000000000000000600082015250565b6000612ba76014836126e1565b9150612bb282612b71565b602082019050919050565b60006020820190508181036000830152612bd681612b9a565b9050919050565b7f536176696e6773206163636f756e7420646f6573206e6f742065786973740000600082015250565b6000612c13601e836126e1565b9150612c1e82612bdd565b602082019050919050565b60006020820190508181036000830152612c4281612c06565b9050919050565b7f556e737570706f72746564206d61726b65740000000000000000000000000000600082015250565b6000612c7f6012836126e1565b9150612c8a82612c49565b602082019050919050565b60006020820190508181036000830152612cae81612c72565b9050919050565b600081519050612cc481612440565b92915050565b600060208284031215612ce057612cdf612409565b5b6000612cee84828501612cb5565b91505092915050565b600081519050612d0681612476565b92915050565b600060208284031215612d2257612d21612409565b5b6000612d3084828501612cf7565b91505092915050565b7f4e487b7100000000000000000000000000000000000000000000000000000000600052601160045260246000fd5b6000612d738261246c565b9150612d7e8361246c565b9250817fffffffffffffffffffffffffffffffffffffffffffffffffffffffffffffffff0483118215151615612db757612db6612d39565b5b828202905092915050565b6000612dcd8261246c565b9150612dd88361246c565b925082821015612deb57612dea612d39565b5b828203905092915050565b6000612e018261246c565b9150612e0c8361246c565b9250827fffffffffffffffffffffffffffffffffffffffffffffffffffffffffffffffff03821115612e4157612e40612d39565b5b828201905092915050565b7f4e487b7100000000000000000000000000000000000000000000000000000000600052601260045260246000fd5b6000612e868261246c565b9150612e918361246c565b925082612ea157612ea0612e4c565b5b828204905092915050565b6000612eb78261246c565b91507fffffffffffffffffffffffffffffffffffffffffffffffffffffffffffffffff821415612eea57612ee9612d39565b5b60018201905091905056fe436f6e7472616374206973207061757365642e20546f6b656e207472616e7366657273206172652074656d706f726172696c792064697361626c65642ea2646970667358221220a41c9c6d28d1319f5021e294d4d3b1024d75baaa9318fd9025c74a4aa24f0a8064736f6c63430008090033",
  "immutableReferences": {},
  "source": "// SPDX-License-Identifier: MIT\r\npragma solidity >=0.8.9 <0.9.0;\r\n\r\nimport \"./interfaces/ITokenList.sol\";\r\nimport \"./interfaces/IPassbook.sol\";\r\nimport \"./util/IBEP20.sol\";\r\nimport \"./interfaces/IComptroller.sol\";\r\nimport \"./interfaces/IReserve.sol\";\r\nimport \"./util/Pausable.sol\";\r\ncontract Deposit is Pausable {\r\n\r\n\tbytes32 adminDeposit;\r\n\taddress adminDepositAddress;\r\n\r\n\tstruct SavingsAccount {\r\n\t\tuint accOpenTime;\r\n        address account; \r\n        DepositRecords[] deposits;\r\n        Yield[] accruedYieldLedger;\r\n    }\r\n\r\n\tstruct DepositRecords   {\r\n        uint id;\r\n        uint firstDeposit;\r\n        bytes32 market;\r\n        bytes32 commitment;\r\n        uint amount; // Non fractional amount\r\n        uint lastUpdate;\r\n    }\r\n\r\n\tstruct Yield    {\r\n        uint id;\r\n        uint oldLengthAccruedYield; // length of the APY blockNumbers array.\r\n        uint oldBlockNum; // last recorded block num\r\n        bytes32 market; // market_ this yield is calculated for\r\n        uint accruedYield; // accruedYield in \r\n        bool timelockApplicable; // is timelockApplicalbe or not. Except the flexible deposits, the timelock is applicabel on all the deposits.\r\n        uint timelockValidity; // timelock duration\r\n        uint activationBlock; // blocknumber when yield withdrawal request was placed.\r\n    }\r\n\r\n\r\n\tuint aggregatedYield;\r\n\r\n\tITokenList markets;\r\n\tIComptroller comptroller;\r\n\tIReserve reserve;\r\n\tIBEP20 token;\r\n\r\n    mapping(address => SavingsAccount) savingsPassbook;  // Maps an account to its savings Passbook\r\n    mapping(address => mapping(bytes32 => mapping(bytes32 => DepositRecords))) indDepositRecord; // address => market_ => commitment_ => depositRecord\r\n    mapping(address => mapping(bytes32 => mapping(bytes32 => Yield))) indYieldRecord; // address => market_ => commitment_ => depositRecord\r\n\r\n\tenum BALANCETYPE{DEPOSIT, YIELD, BOTH}\r\n\r\n\tevent NewDeposit(address indexed account,bytes32 indexed market,bytes32 commmitment,uint256 indexed amount);\r\n\tevent YieldDeposited(address indexed account,bytes32 indexed market,bytes32 commmitment,uint256 indexed amount);\r\n\tevent Withdrawal(address indexed account, bytes32 indexed market, uint indexed amount, bytes32 commitment, uint timestamp);\r\n\r\n\tconstructor(\r\n\t\taddress tokenListAddr_,\r\n\t\taddress comptrollerAddr_,\r\n\t\taddress reserveAddr_\r\n\t)\r\n\t{\r\n\t\tcomptroller = IComptroller(comptrollerAddr_);\r\n\t\tmarkets = ITokenList(tokenListAddr_);\r\n\t\treserve = IReserve(reserveAddr_);\r\n\t\tadminDepositAddress = msg.sender;\r\n\t}\r\n\r\n\treceive() external payable {\r\n        payable(adminDepositAddress).transfer(_msgValue());\r\n    }\r\n    \r\n    fallback() external payable {\r\n        payable(adminDepositAddress).transfer(_msgValue());\r\n    }\r\n    \r\n    function transferAnyERC20(address token_,address recipient_,uint256 value_) external returns(bool) {\r\n        IBEP20(token_).transfer(recipient_, value_);\r\n        return true;\r\n    }\r\n\r\n\tfunction hasAccount(address account_) public returns (bool) {\r\n\t\t_hasAccount(account_);\r\n\t\treturn true;\r\n\t}\r\n\r\n\tfunction hasYield(address account_, bytes32 market_, bytes32 commitment_) public returns (bool)\t{\r\n\t\t_hasYield(account_, market_, commitment_);\r\n\t\treturn true;\r\n\t}\r\n\r\n\tfunction createDeposit(\r\n\t\tbytes32 market_,\r\n\t\tbytes32 commitment_,\r\n\t\tuint256 amount_\r\n\t) external nonReentrant() returns (bool) {\r\n\t\t\r\n\t\t_createDeposit(market_,commitment_, amount_);\r\n\r\n\t\temit NewDeposit(msg.sender, market_, commitment_, amount_);\r\n\t\treturn true;\r\n\t}\r\n\r\n\tfunction savingsBalance(bytes32 market_, bytes32 commitment_, BALANCETYPE request_) external returns (uint) {\r\n\t\tuint savingsBalance_;\r\n\r\n\t\t_savingsBalance(msg.sender, market_, commitment_, request_);\r\n\t\treturn savingsBalance_;\r\n\t}\r\n\r\n\r\n\tfunction withdrawFunds(bytes32 market_, bytes32 commitment_, uint amount_, BALANCETYPE request_) external nonReentrant() returns (bool){\r\n\t\t_isMarketSupported(market_);\r\n\t\t_hasAccount(msg.sender);\r\n\r\n\t\tuint savingsBalance_;\r\n\t\t_savingsBalance(msg.sender, market_, commitment_, request_);\r\n\r\n\t\trequire(amount_ >= savingsBalance_, \"Insufficient balance\");\r\n\t\t_updateSavingsBalance(msg.sender, commitment_, amount_, request_);\r\n\t\t_connectMarket(market_, amount_);\r\n\t\ttoken.transfer(msg.sender, amount_);\r\n\r\n\t\temit Withdrawal(msg.sender,market_, amount_, commitment_, block.timestamp);\r\n\t\treturn true;\r\n\t\t\r\n\t}\r\n\r\n\t// function convertDeposit() external nonReentrant() {}\r\n\r\n\tfunction convertYield(bytes32 market_, bytes32 oldCommitment_, bytes32 newCommitment_) external nonReentrant() returns (bool){\r\n\t\t_convertYield(market_,oldCommitment_, newCommitment_) ;\r\n\r\n\t\tuint amount_;\r\n\r\n\t\temit YieldDeposited(msg.sender, market_, newCommitment_, amount_);\r\n\t\treturn true;\r\n\t}\r\n\r\n\tfunction _preDepositProcess(\r\n\t\taddress account_,\r\n\t\tbytes32 market_,\r\n\t\tuint256 amount_\r\n\t) internal {\r\n\t\t_isMarketSupported(market_);\r\n\t\t_createSavingsAccount(account_);\r\n\t\t_connectMarket(market_, amount_);\r\n\t\t// return this;\r\n\t}\r\n\r\n\tfunction _createSavingsAccount(address account_) internal {\r\n\t\tSavingsAccount storage savingsAccount = savingsPassbook[account_];\r\n\r\n\t\tif (savingsAccount.accOpenTime == 0) {\r\n\t\t\tsavingsAccount.accOpenTime = block.timestamp;\r\n\t\t\tsavingsAccount.account = account_;\r\n\t\t}\r\n\t}\r\n\r\n\tfunction _isMarketSupported(bytes32 market_) internal {\r\n\t\trequire(markets.isTokenSupported(market_) != false, \"Unsupported market\");\r\n\t}\r\n\r\n\tfunction _connectMarket(bytes32 market_, uint256 amount_) internal {\r\n\t\taddress marketAddress = markets.getMarketTokenAddress(market_);\r\n\t\ttoken = IBEP20(marketAddress);\r\n\t\tamount_ *= markets.getMarketDecimal(market_);\r\n\t}\r\n\r\n\tfunction _updateYield(\r\n\t\taddress account_,\r\n\t\tbytes32 market_,\r\n\t\tbytes32 commitment_\r\n\t) internal {\r\n\t\tYield storage yield = indYieldRecord[account_][market_][commitment_];\r\n\t\tDepositRecords storage deposit = indDepositRecord[account_][market_][commitment_];\r\n\t\t// APY storage apy = comptroller.indAPYRecords[commitment_];\r\n\r\n\t\tuint256 index = yield.oldLengthAccruedYield - 1;\r\n\t\tuint256 blockNum = yield.oldBlockNum;\r\n\t\tuint256 aggregateYield = yield.accruedYield;\r\n\r\n\t\tif (comptroller.getApyBlockNumber(commitment_, index) < blockNum) {\r\n\t\t\tuint256 newIndex = index + 1;\r\n\t\t\taggregateYield +=\r\n\t\t\t\t((comptroller.getApyBlockNumber(commitment_, newIndex) - blockNum) *\r\n\t\t\t\t\tcomptroller.getAPY(commitment_, index)) /\r\n\t\t\t\t100;\r\n\r\n\t\t\tfor (uint256 i = newIndex; i < comptroller.getApyRecordCount(commitment_); i++) {\r\n\t\t\t\tuint256 blockDiff = comptroller.getApyBlockNumber(commitment_, i + 1) - comptroller.getApyBlockNumber(commitment_, i);\r\n\t\t\t\taggregateYield += blockDiff*comptroller.getAPY(commitment_, newIndex) / 100;\r\n\t\t\t}\r\n\t\t} else if (comptroller.getApyBlockNumber(commitment_, index) == blockNum) {\r\n\t\t\tfor (uint256 i = index; i < comptroller.getApyRecordCount(commitment_); i++) {\r\n\t\t\t\tuint256 blockDiff = comptroller.getApyBlockNumber(commitment_, i + 1) - comptroller.getApyBlockNumber(commitment_, i);\r\n\t\t\t\taggregateYield += blockDiff*comptroller.getAPY(commitment_, index) / 100;\r\n\t\t\t}\r\n\t\t}\r\n\t\tif (block.number > comptroller.getApyBlockNumber(commitment_, comptroller.getApyRecordCount(commitment_) - 1)) {\r\n\t\t\taggregateYield += ((block.number - comptroller.getApyBlockNumber(commitment_, comptroller.getApyRecordCount(commitment_) - 1))\r\n\t\t\t\t *comptroller.getAPY(commitment_, comptroller.getApyRecordCount(commitment_) - 1)) /100;\r\n\t\t}\r\n\r\n\t\tyield.accruedYield += deposit.amount * aggregatedYield;\r\n\t\tyield.oldLengthAccruedYield = comptroller.getApyRecordCount(commitment_);\r\n\t\tyield.oldBlockNum = block.number;\r\n\t}\r\n\r\n\tfunction _processDeposit(\r\n\t\taddress account_,\r\n\t\tbytes32 market_,\r\n\t\tbytes32 commitment_,\r\n\t\tuint256 amount_\r\n\t) internal {\r\n\t\tDepositRecords storage deposit = indDepositRecord[account_][market_][commitment_];\r\n\t\tSavingsAccount storage savingsAccount = savingsPassbook[account_];\r\n\t\tYield storage yield = indYieldRecord[account_][market_][commitment_];\r\n\t\tuint256 id;\r\n\r\n\t\t// if (deposit.firstDeposit == 0 && commitment_ != comptroller.commitment[0]) {\r\n\t\t// \tif (savingsAccount.deposits.length == 0) {\r\n\t\t// \t\tid = 1;\r\n\t\t// \t} else {\r\n\t\t// \t\tid = savingsAccount.deposits.length + 1;\r\n\t\t// \t}\r\n\r\n\t\t// \tdeposit = DepositRecords({\r\n\t\t// \t\tid: id,\r\n\t\t// \t\tfirstDeposit: block.number,\r\n\t\t// \t\tmarket_: market_,\r\n\t\t// \t\tcommitment_: commitment_,\r\n\t\t// \t\tamount_: amount_,\r\n\t\t// \t\tlastUpdate: block.number\r\n\t\t// \t});\r\n\r\n\t\t// \tsavingsAccount.deposits.push(deposit);\r\n\t\t// \tyield = Yield({\r\n\t\t// \t\tid: id,\r\n\t\t// \t\toldLengthAccruedYield: comptroller.getApyRecordCount(commitment_),\r\n\t\t// \t\toldBlockNum: block.number,\r\n\t\t// \t\tmarket: market_,\r\n\t\t// \t\taccruedYield: 0,\r\n\t\t// \t\ttimelockApplicable: true,\r\n\t\t// \t\ttimelockValidity: 86400,\r\n\t\t// \t\tactivationBlock: 0\r\n\t\t// \t});\r\n\t\t// } else if (\r\n\t\t// \tdeposit.firstDeposit == 0 && commitment_ == comptroller.commitment[0]\r\n\t\t// ) {\r\n\t\t// \tif (savingsAccount.deposits.length == 0) {\r\n\t\t// \t\tid = 1;\r\n\t\t// \t} else {\r\n\t\t// \t\tid = savingsAccount.deposits.length + 1;\r\n\t\t// \t}\r\n\t\t// \tid = savingsAccount.deposits.length;\r\n\t\t// \tdeposit = DepositRecords({\r\n\t\t// \t\tid: id,\r\n\t\t// \t\tfirstDeposit: block.number,\r\n\t\t// \t\tmarket_: market_,\r\n\t\t// \t\tcommitment_: commitment_,\r\n\t\t// \t\tamount_: amount_,\r\n\t\t// \t\tlastUpdate: block.number\r\n\t\t// \t});\r\n\t\t// \tsavingsAccount.deposits.push(deposit);\r\n\t\t// \tyield = Yield({\r\n\t\t// \t\tid: id,\r\n\t\t// \t\toldLengthAccruedYield: comptroller.getApyRecordCount(commitment_),\r\n\t\t// \t\toldBlockNum: block.number,\r\n\t\t// \t\tmarket: market_,\r\n\t\t// \t\taccruedYield: 0,\r\n\t\t// \t\ttimelockApplicable: false,\r\n\t\t// \t\ttimelockValidity: 0,\r\n\t\t// \t\tactivationBlock: 0\r\n\t\t// \t});\r\n\t\t// } else if (!deposit.firstDeposit = 0) {\r\n\t\t// \tdeposit.amount_ += amount_;\r\n\t\t// \tdeposit.lastUpdate = block.number;\r\n\t\t// \tsavingsAccount.deposits[deposit.id].amount += amount_;\r\n\t\t// \tsavingsAccount.deposits[deposit.id].lastUpdate += block.number;\r\n\t\t// }\r\n\t}\r\n\r\n\tfunction _hasAccount(address account_) internal \t{\r\n\t\trequire(savingsPassbook[account_].accOpenTime!=0, \"Savings account does not exist\");\r\n\t}\r\n\r\n\tfunction _hasYield(address account_, bytes32 market_, bytes32 commitment_) internal {\r\n\t\tYield storage yield = indYieldRecord[account_][market_][commitment_];\r\n\t\trequire(yield.id !=0, \"Yield does not exist\");\r\n\t\t// return this;\r\n\t}\r\n\r\n\tfunction _createDeposit(bytes32 market_,bytes32 commitment_,uint256 amount_) private\t{\r\n\t\taddress marketAddress;\r\n\t\t_preDepositProcess(msg.sender, market_, amount_);\r\n\t\ttoken.transfer(address(reserve), amount_);\r\n\r\n\t\t_updateYield(msg.sender, market_, commitment_);\r\n\t\t_processDeposit(msg.sender, market_, commitment_, amount_);\r\n\t}\r\n\r\n\tfunction _convertYield(bytes32 market_, bytes32 oldCommitment_, bytes32 newCommitment_) private {\r\n\t\t_hasAccount(msg.sender);\r\n\t\t_hasYield(msg.sender, market_, oldCommitment_);\r\n\t\t_isMarketSupported(market_);\r\n\t\t_updateYield(msg.sender, market_, oldCommitment_);\r\n\r\n\t\t// amount_ = accruedYield(1-(5/10000)); // 0.05% conversion fees applied.\r\n\t\t// // transfer 0.05% fees deducted from the accrued yield to the reserveAccount.\r\n\t\t// _createDeposit(market_, newCommitment_, amount_);\r\n\t}\r\n\t\r\n\tfunction _savingsBalance(address account_, bytes32 market_, bytes32 commitment_, BALANCETYPE request_) internal\t{\r\n\t\t\r\n\t\tDepositRecords storage deposit = indDepositRecord[account_][market_][commitment_];\r\n\t\tYield storage yield = indYieldRecord[account_][market_][commitment_];\r\n\r\n\t\t// if (request_ == BALANCETYPE.DEPOSIT) {\r\n\t\t// \tsavingsBalance_ = deposit.amount;\r\n\r\n\t\t// }\telse if (request_ == BALANCETYPE.YIELD)\t{\r\n\t\t// \t_updateYield(msg.sender,market_,commitment_);\r\n\t\t// \tsavingsBalance_ =  yield.accruedYield;\r\n\r\n\t\t// }\telse if (request_ == BALANCETYPE.BOTH)\t{\r\n\t\t// \t_updateYield(msg.sender,market_,commitment_);\r\n\t\t// \tsavingsBalance_ = deposit.amount + yield.accruedYield;\r\n\t\t// }\r\n\t}\r\n\r\n\tfunction _updateSavingsBalance(address account_, bytes32 commitment_, uint amount_, BALANCETYPE request_) internal {\r\n\r\n\t\t// DepositRecords storage deposit = indDepositRecord[account_][market_][commitment_];\r\n\t\t// Yield storage yield = indYieldRecord[account_][market_][commitment_];\r\n\r\n\t\t// if (request_ == BALANCETYPE.DEPOSIT)\t{\r\n\t\t// \tdeposit.amount -= amount_;\r\n\t\t// \tdeposit.lastUpdate =  block.number;\r\n\r\n\t\t// }\telse if (request_ == BALANCETYPE.YIELD)\t{\r\n\r\n\t\t// \tif (yield.timelockApplicable == false || block.number >= yield.activationBlock+yield.timelockValidity)\t{\r\n\t\t// \t\t_updateYield(msg.sender,market_,commitment_);\r\n\t\t// \t\tyield.accruedYield -= amount_;\r\n\t\t// \t\tyield.oldBlockNum = block.number;\r\n\t\t// \t}\telse if (yield.timelockApplicable != false || block.number < yield.activationBlock+yield.timelockValidity)\t{\r\n\t\t// \t\trevert ('Withdrawal can not be processed');\r\n\t\t// \t}\r\n\r\n\t\t// }\telse if (request_ == BALANCETYPE.BOTH)\t{\r\n\r\n\t\t// \trequire (deposit.id == yield.id, \"mapping error\");\r\n\r\n\t\t// \tif (yield.timelockApplicable == false || block.number >= yield.activationBlock+yield.timelockValidity)\t{\r\n\t\t// \t\t_updateYield(msg.sender,market_,commitment_);\r\n\t\t// \t\tyield.accruedYield -= amount_;\r\n\t\t// \t\tyield.oldBlockNum = block.number;\r\n\r\n\t\t// \t}\telse if (yield.timelockApplicable != false || block.number < yield.activationBlock+yield.timelockValidity)\t{\r\n\t\t// \t\trevert ('Withdrawal can not be processed');\r\n\t\t// \t}\r\n\t\t\t\r\n\t\t// \tdeposit.amount -= amount_;\r\n\t\t// \tdeposit.lastUpdate =  block.number;\r\n\t\t// }\r\n\t}\r\n\t\r\n\tfunction pause() external authDeposit() nonReentrant() {\r\n       _pause();\r\n\t}\r\n\t\r\n\tfunction unpause() external authDeposit() nonReentrant() {\r\n       _unpause();   \r\n\t}\r\n\r\n\tmodifier authDeposit() {\r\n\t\trequire(\r\n\t\t\tmsg.sender == adminDepositAddress,\r\n\t\t\t\"Only Deposit admin can call this function\"\r\n\t\t);\r\n\t\t_;\r\n\t}\r\n}",
  "sourcePath": "F:\\workspace\\Open-protocol\\contracts\\Deposit.sol",
  "compiler": {
    "name": "solc",
    "version": "0.8.9+commit.e5eed63a.Emscripten.clang"
  },
  "schemaVersion": "3.4.3",
  "updatedAt": "2021-09-30T23:52:23.887Z",
  "devdoc": {
    "kind": "dev",
    "methods": {},
    "version": 1
  },
  "userdoc": {
    "kind": "user",
    "methods": {},
    "version": 1
  }
}