{
  "contractName": "Deposit",
  "abi": [
    {
      "inputs": [],
      "stateMutability": "nonpayable",
      "type": "constructor"
    },
    {
      "anonymous": false,
      "inputs": [
        {
          "indexed": true,
          "internalType": "address",
          "name": "previousOwner",
          "type": "address"
        },
        {
          "indexed": true,
          "internalType": "address",
          "name": "newOwner",
          "type": "address"
        }
      ],
      "name": "OwnershipTransferred",
      "type": "event"
    },
    {
      "inputs": [],
      "name": "depositAsset",
      "outputs": [
        {
          "internalType": "contract ERC20",
          "name": "",
          "type": "address"
        }
      ],
      "stateMutability": "view",
      "type": "function"
    },
    {
      "inputs": [],
      "name": "owner",
      "outputs": [
        {
          "internalType": "address",
          "name": "",
          "type": "address"
        }
      ],
      "stateMutability": "view",
      "type": "function"
    },
    {
      "inputs": [],
      "name": "renounceOwnership",
      "outputs": [],
      "stateMutability": "nonpayable",
      "type": "function"
    },
    {
      "inputs": [
        {
          "internalType": "address",
          "name": "",
          "type": "address"
        }
      ],
      "name": "supportedAsset",
      "outputs": [
        {
          "internalType": "uint256",
          "name": "",
          "type": "uint256"
        }
      ],
      "stateMutability": "view",
      "type": "function"
    },
    {
      "inputs": [
        {
          "internalType": "address",
          "name": "newOwner",
          "type": "address"
        }
      ],
      "name": "transferOwnership",
      "outputs": [],
      "stateMutability": "nonpayable",
      "type": "function"
    },
    {
      "inputs": [
        {
          "internalType": "address",
          "name": "",
          "type": "address"
        }
      ],
      "name": "userInfo",
      "outputs": [
        {
          "internalType": "uint256",
          "name": "depositAmount",
          "type": "uint256"
        },
        {
          "internalType": "address",
          "name": "depositAssetType",
          "type": "address"
        },
        {
          "internalType": "enum GlobalLibrary.DepositType",
          "name": "depositType",
          "type": "uint8"
        },
        {
          "internalType": "uint256",
          "name": "minimumCommitment",
          "type": "uint256"
        }
      ],
      "stateMutability": "view",
      "type": "function"
    },
    {
      "inputs": [
        {
          "internalType": "address",
          "name": "_assetType",
          "type": "address"
        },
        {
          "internalType": "uint256",
          "name": "_amount",
          "type": "uint256"
        },
        {
          "internalType": "enum GlobalLibrary.DepositType",
          "name": "_depositType",
          "type": "uint8"
        }
      ],
      "name": "deposit",
      "outputs": [],
      "stateMutability": "nonpayable",
      "type": "function"
    },
    {
      "inputs": [],
      "name": "updateUserPassBook",
      "outputs": [],
      "stateMutability": "nonpayable",
      "type": "function"
    },
    {
      "inputs": [
        {
          "internalType": "address",
          "name": "_user",
          "type": "address"
        }
      ],
      "name": "calculateYield",
      "outputs": [
        {
          "internalType": "uint256",
          "name": "",
          "type": "uint256"
        }
      ],
      "stateMutability": "view",
      "type": "function"
    },
    {
      "inputs": [],
      "name": "updateYield",
      "outputs": [],
      "stateMutability": "nonpayable",
      "type": "function"
    },
    {
      "inputs": [],
      "name": "calimDividend",
      "outputs": [],
      "stateMutability": "nonpayable",
      "type": "function"
    },
    {
      "inputs": [],
      "name": "Pause",
      "outputs": [],
      "stateMutability": "nonpayable",
      "type": "function"
    }
  ],
  "bytecode": "0x608060405234801561001057600080fd5b5061002d61002261013d60201b60201c565b61014560201b60201c565b6001600360007302822e968856186a20fec2c824d4b174d0b7050273ffffffffffffffffffffffffffffffffffffffff1673ffffffffffffffffffffffffffffffffffffffff16815260200190815260200160002081905550606460036000739780881bf45b83ee028c4c1de7e0c168df8e9eef73ffffffffffffffffffffffffffffffffffffffff1673ffffffffffffffffffffffffffffffffffffffff168152602001908152602001600020819055506064600360007304df6e4121c27713ed22341e7c7df330f56f289b73ffffffffffffffffffffffffffffffffffffffff1673ffffffffffffffffffffffffffffffffffffffff16815260200190815260200160002081905550610209565b600033905090565b60008060009054906101000a900473ffffffffffffffffffffffffffffffffffffffff169050816000806101000a81548173ffffffffffffffffffffffffffffffffffffffff021916908373ffffffffffffffffffffffffffffffffffffffff1602179055508173ffffffffffffffffffffffffffffffffffffffff168173ffffffffffffffffffffffffffffffffffffffff167f8be0079c531659141344cd1fd0a4f28419497f9722a3daafe3b4186f6b6457e060405160405180910390a35050565b610f5a806102186000396000f3fe608060405234801561001057600080fd5b50600436106100b45760003560e01c8063a90d527311610071578063a90d527314610158578063bb21a99714610162578063ccc41f241461016c578063d82e66fa1461018a578063f19ed6be146101ba578063f2fde38b146101d6576100b4565b806315de5e1a146100b95780631959a002146100c3578063567add64146100f65780636985a02214610126578063715018a6146101305780638da5cb5b1461013a575b600080fd5b6100c16101f2565b005b6100dd60048036038101906100d8919061093b565b6101f4565b6040516100ed9493929190610b75565b60405180910390f35b610110600480360381019061010b919061093b565b610251565b60405161011d9190610b5a565b60405180910390f35b61012e610258565b005b61013861025a565b005b6101426102e2565b60405161014f9190610aa4565b60405180910390f35b61016061030b565b005b61016a61030d565b005b61017461030f565b6040516101819190610abf565b60405180910390f35b6101a4600480360381019061019f919061093b565b610335565b6040516101b19190610b5a565b60405180910390f35b6101d460048036038101906101cf9190610964565b61034d565b005b6101f060048036038101906101eb919061093b565b6106f7565b005b565b60016020528060005260406000206000915090508060000154908060010160009054906101000a900473ffffffffffffffffffffffffffffffffffffffff16908060010160149054906101000a900460ff16908060020154905084565b6000919050565b565b6102626107ef565b73ffffffffffffffffffffffffffffffffffffffff166102806102e2565b73ffffffffffffffffffffffffffffffffffffffff16146102d6576040517f08c379a00000000000000000000000000000000000000000000000000000000081526004016102cd90610b1a565b60405180910390fd5b6102e060006107f7565b565b60008060009054906101000a900473ffffffffffffffffffffffffffffffffffffffff16905090565b565b565b600260009054906101000a900473ffffffffffffffffffffffffffffffffffffffff1681565b60036020528060005260406000206000915090505481565b826001600360008373ffffffffffffffffffffffffffffffffffffffff1673ffffffffffffffffffffffffffffffffffffffff16815260200190815260200160002054116103d0576040517f08c379a00000000000000000000000000000000000000000000000000000000081526004016103c790610b3a565b60405180910390fd5b83600260006101000a81548173ffffffffffffffffffffffffffffffffffffffff021916908373ffffffffffffffffffffffffffffffffffffffff1602179055506000600260009054906101000a900473ffffffffffffffffffffffffffffffffffffffff1673ffffffffffffffffffffffffffffffffffffffff1663313ce5676040518163ffffffff1660e01b815260040160206040518083038186803b15801561047b57600080fd5b505afa15801561048f573d6000803e3d6000fd5b505050506040513d601f19601f820116820180604052508101906104b391906109b3565b60ff169050600a600360008773ffffffffffffffffffffffffffffffffffffffff1673ffffffffffffffffffffffffffffffffffffffff168152602001908152602001600020546105049190610c52565b61051782866108bb90919063ffffffff16565b11610557576040517f08c379a000000000000000000000000000000000000000000000000000000000815260040161054e90610ada565b60405180910390fd5b6000600160003373ffffffffffffffffffffffffffffffffffffffff1673ffffffffffffffffffffffffffffffffffffffff16815260200190815260200160002090506000816000015411156105c7576105be8582600001546108d190919063ffffffff16565b81600001819055505b858160010160006101000a81548173ffffffffffffffffffffffffffffffffffffffff021916908373ffffffffffffffffffffffffffffffffffffffff160217905550838160010160146101000a81548160ff02191690836001811115610657577f4e487b7100000000000000000000000000000000000000000000000000000000600052602160045260246000fd5b021790555060006001811115610696577f4e487b7100000000000000000000000000000000000000000000000000000000600052602160045260246000fd5b8460018111156106cf577f4e487b7100000000000000000000000000000000000000000000000000000000600052602160045260246000fd5b14156106e457600681600201819055506106ef565b600081600201819055505b505050505050565b6106ff6107ef565b73ffffffffffffffffffffffffffffffffffffffff1661071d6102e2565b73ffffffffffffffffffffffffffffffffffffffff1614610773576040517f08c379a000000000000000000000000000000000000000000000000000000000815260040161076a90610b1a565b60405180910390fd5b600073ffffffffffffffffffffffffffffffffffffffff168173ffffffffffffffffffffffffffffffffffffffff1614156107e3576040517f08c379a00000000000000000000000000000000000000000000000000000000081526004016107da90610afa565b60405180910390fd5b6107ec816107f7565b50565b600033905090565b60008060009054906101000a900473ffffffffffffffffffffffffffffffffffffffff169050816000806101000a81548173ffffffffffffffffffffffffffffffffffffffff021916908373ffffffffffffffffffffffffffffffffffffffff1602179055508173ffffffffffffffffffffffffffffffffffffffff168173ffffffffffffffffffffffffffffffffffffffff167f8be0079c531659141344cd1fd0a4f28419497f9722a3daafe3b4186f6b6457e060405160405180910390a35050565b600081836108c99190610c21565b905092915050565b600081836108df9190610bcb565b905092915050565b6000813590506108f681610ecf565b92915050565b60008135905061090b81610ee6565b92915050565b60008135905061092081610ef6565b92915050565b60008151905061093581610f0d565b92915050565b60006020828403121561094d57600080fd5b600061095b848285016108e7565b91505092915050565b60008060006060848603121561097957600080fd5b6000610987868287016108e7565b935050602061099886828701610911565b92505060406109a9868287016108fc565b9150509250925092565b6000602082840312156109c557600080fd5b60006109d384828501610926565b91505092915050565b6109e581610cac565b82525050565b6109f481610d08565b82525050565b610a0381610d2c565b82525050565b6000610a16603483610bba565b9150610a2182610dcb565b604082019050919050565b6000610a39602683610bba565b9150610a4482610e1a565b604082019050919050565b6000610a5c602083610bba565b9150610a6782610e69565b602082019050919050565b6000610a7f601383610bba565b9150610a8a82610e92565b602082019050919050565b610a9e81610cf1565b82525050565b6000602082019050610ab960008301846109dc565b92915050565b6000602082019050610ad460008301846109eb565b92915050565b60006020820190508181036000830152610af381610a09565b9050919050565b60006020820190508181036000830152610b1381610a2c565b9050919050565b60006020820190508181036000830152610b3381610a4f565b9050919050565b60006020820190508181036000830152610b5381610a72565b9050919050565b6000602082019050610b6f6000830184610a95565b92915050565b6000608082019050610b8a6000830187610a95565b610b9760208301866109dc565b610ba460408301856109fa565b610bb16060830184610a95565b95945050505050565b600082825260208201905092915050565b6000610bd682610cf1565b9150610be183610cf1565b9250827fffffffffffffffffffffffffffffffffffffffffffffffffffffffffffffffff03821115610c1657610c15610d3e565b5b828201905092915050565b6000610c2c82610cf1565b9150610c3783610cf1565b925082610c4757610c46610d6d565b5b828204905092915050565b6000610c5d82610cf1565b9150610c6883610cf1565b9250817fffffffffffffffffffffffffffffffffffffffffffffffffffffffffffffffff0483118215151615610ca157610ca0610d3e565b5b828202905092915050565b6000610cb782610cd1565b9050919050565b6000819050610ccc82610ebb565b919050565b600073ffffffffffffffffffffffffffffffffffffffff82169050919050565b6000819050919050565b600060ff82169050919050565b6000610d1382610d1a565b9050919050565b6000610d2582610cd1565b9050919050565b6000610d3782610cbe565b9050919050565b7f4e487b7100000000000000000000000000000000000000000000000000000000600052601160045260246000fd5b7f4e487b7100000000000000000000000000000000000000000000000000000000600052601260045260246000fd5b7f4e487b7100000000000000000000000000000000000000000000000000000000600052602160045260246000fd5b7f557365722073686f756c64206465706f736974206d6f72652074686174206d6960008201527f6e696d756d206465706f73697420616d6f756e74000000000000000000000000602082015250565b7f4f776e61626c653a206e6577206f776e657220697320746865207a65726f206160008201527f6464726573730000000000000000000000000000000000000000000000000000602082015250565b7f4f776e61626c653a2063616c6c6572206973206e6f7420746865206f776e6572600082015250565b7f6e6f2061636365707461626c6520746f6b656e00000000000000000000000000600082015250565b60028110610ecc57610ecb610d9c565b5b50565b610ed881610cac565b8114610ee357600080fd5b50565b60028110610ef357600080fd5b50565b610eff81610cf1565b8114610f0a57600080fd5b50565b610f1681610cfb565b8114610f2157600080fd5b5056fea26469706673582212207de0c85954fef6bc3b21fee2a88fab7066b657809e4703820ff4f77eab8e553c64736f6c63430008040033",
  "immutableReferences": {},
  "source": "// SPDX-License-Identifier: MIT\r\n\r\npragma solidity ^0.8.4;\r\n\r\nimport \"@openzeppelin/contracts/access/Ownable.sol\";\r\nimport \"@openzeppelin/contracts/utils/math/SafeMath.sol\";\r\nimport \"@openzeppelin/contracts/token/ERC20/ERC20.sol\";\r\nimport \"@openzeppelin/contracts/token/ERC20/utils/SafeERC20.sol\";\r\nimport \"./Library/GlobalLibrary.sol\";\r\n\r\ncontract Deposit is Ownable{\r\n\r\n    using SafeMath for uint256;\r\n    using SafeERC20 for IERC20;\r\n\r\n     modifier acceptable(address token) {\r\n        require(\r\n            supportedAsset[token] > 1, \r\n            \"no acceptable token\"\r\n        );\r\n        _;\r\n    }\r\n    // Info of each user.\r\n    struct UserPassBook {\r\n        uint256 depositAmount;     \r\n        address depositAssetType; \r\n        GlobalLibrary.DepositType depositType;\r\n        uint256 minimumCommitment; \r\n    }\r\n\r\n    \r\n    mapping (address => UserPassBook) public userInfo;\r\n\r\n    // Address of the ERC20 Token contract.\r\n    ERC20 public depositAsset;\r\n\r\n\r\n    // Info of supported asset\r\n     mapping (address => uint256) public supportedAsset;\r\n\r\n   \r\n\r\n    constructor () {\r\n        supportedAsset[GlobalLibrary.BNB] = 1;\r\n        supportedAsset[GlobalLibrary.USDC] = 100;\r\n        supportedAsset[GlobalLibrary.STACK] = 100;\r\n\r\n    }\r\n\r\n    function deposit(address _assetType, uint256 _amount, GlobalLibrary.DepositType _depositType) public acceptable(_assetType) {\r\n        depositAsset = ERC20(_assetType);\r\n        uint256 assetDecimal = depositAsset.decimals();\r\n        require(_amount.div(assetDecimal) > supportedAsset[_assetType] * 10, \"User should deposit more that minimum deposit amount\" );\r\n        UserPassBook storage user = userInfo[msg.sender];\r\n        \r\n        if(user.depositAmount > 0)\r\n        {\r\n            user.depositAmount  = user.depositAmount.add(_amount);\r\n        }\r\n        user.depositAssetType = _assetType;\r\n        user.depositType = _depositType;\r\n        if(_depositType == GlobalLibrary.DepositType.FIXED)\r\n            user.minimumCommitment = 6;\r\n        else\r\n            user.minimumCommitment = 0;\r\n\r\n\r\n    }\r\n    function updateUserPassBook() public {\r\n\r\n    }\r\n    function calculateYield(address _user) external view returns (uint256) {\r\n\r\n    } \r\n    function updateYield() public {\r\n\r\n    }\r\n    function calimDividend() public {\r\n\r\n    }\r\n    function Pause() public {\r\n\r\n    }\r\n\r\n\r\n}",
  "sourcePath": "E:/WORK/Hashstack/Open-protocol/contracts/Deposit.sol",
  "compiler": {
    "name": "solc",
    "version": "0.8.4+commit.c7e474f2.Emscripten.clang"
  },
  "schemaVersion": "3.3.4",
  "updatedAt": "2021-09-17T00:09:15.005Z",
  "devdoc": {
    "kind": "dev",
    "methods": {
      "owner()": {
        "details": "Returns the address of the current owner."
      },
      "renounceOwnership()": {
        "details": "Leaves the contract without owner. It will not be possible to call `onlyOwner` functions anymore. Can only be called by the current owner. NOTE: Renouncing ownership will leave the contract without an owner, thereby removing any functionality that is only available to the owner."
      },
      "transferOwnership(address)": {
        "details": "Transfers ownership of the contract to a new account (`newOwner`). Can only be called by the current owner."
      }
    },
    "version": 1
  },
  "userdoc": {
    "kind": "user",
    "methods": {},
    "version": 1
  }
}