{
  "contractName": "Deposit",
  "abi": [
    {
      "inputs": [
        {
          "internalType": "address",
          "name": "_superAdminAddr",
          "type": "address"
        },
        {
          "internalType": "address",
          "name": "_tokenListAddr",
          "type": "address"
        },
        {
          "internalType": "address",
          "name": "_comptrollerAddr",
          "type": "address"
        }
      ],
      "stateMutability": "nonpayable",
      "type": "constructor"
    },
    {
      "anonymous": false,
      "inputs": [
        {
          "indexed": true,
          "internalType": "address",
          "name": "account",
          "type": "address"
        },
        {
          "indexed": true,
          "internalType": "bytes32",
          "name": "market",
          "type": "bytes32"
        },
        {
          "indexed": false,
          "internalType": "bytes32",
          "name": "commmitment",
          "type": "bytes32"
        },
        {
          "indexed": true,
          "internalType": "uint256",
          "name": "amount",
          "type": "uint256"
        }
      ],
      "name": "DepositAdded",
      "type": "event"
    },
    {
      "anonymous": false,
      "inputs": [
        {
          "indexed": true,
          "internalType": "address",
          "name": "account",
          "type": "address"
        },
        {
          "indexed": true,
          "internalType": "bytes32",
          "name": "market",
          "type": "bytes32"
        },
        {
          "indexed": false,
          "internalType": "bytes32",
          "name": "commmitment",
          "type": "bytes32"
        },
        {
          "indexed": true,
          "internalType": "uint256",
          "name": "amount",
          "type": "uint256"
        }
      ],
      "name": "NewDeposit",
      "type": "event"
    },
    {
      "anonymous": false,
      "inputs": [
        {
          "indexed": true,
          "internalType": "address",
          "name": "_pauser",
          "type": "address"
        },
        {
          "indexed": false,
          "internalType": "bool",
          "name": "isPaused",
          "type": "bool"
        }
      ],
      "name": "PauseState",
      "type": "event"
    },
    {
      "anonymous": false,
      "inputs": [
        {
          "indexed": true,
          "internalType": "address",
          "name": "account",
          "type": "address"
        },
        {
          "indexed": true,
          "internalType": "bytes32",
          "name": "market",
          "type": "bytes32"
        },
        {
          "indexed": true,
          "internalType": "uint256",
          "name": "amount",
          "type": "uint256"
        },
        {
          "indexed": false,
          "internalType": "bytes32",
          "name": "commitment",
          "type": "bytes32"
        },
        {
          "indexed": false,
          "internalType": "uint256",
          "name": "timestamp",
          "type": "uint256"
        }
      ],
      "name": "Withdrawal",
      "type": "event"
    },
    {
      "anonymous": false,
      "inputs": [
        {
          "indexed": true,
          "internalType": "address",
          "name": "account",
          "type": "address"
        },
        {
          "indexed": true,
          "internalType": "bytes32",
          "name": "market",
          "type": "bytes32"
        },
        {
          "indexed": false,
          "internalType": "bytes32",
          "name": "commmitment",
          "type": "bytes32"
        },
        {
          "indexed": true,
          "internalType": "uint256",
          "name": "amount",
          "type": "uint256"
        }
      ],
      "name": "YieldDeposited",
      "type": "event"
    },
    {
      "inputs": [],
      "name": "pauseState",
      "outputs": [
        {
          "internalType": "string",
          "name": "",
          "type": "string"
        }
      ],
      "stateMutability": "view",
      "type": "function"
    },
    {
      "inputs": [],
      "name": "paused",
      "outputs": [
        {
          "internalType": "bool",
          "name": "",
          "type": "bool"
        }
      ],
      "stateMutability": "view",
      "type": "function"
    },
    {
      "inputs": [],
      "name": "token",
      "outputs": [
        {
          "internalType": "contract IMockBep20",
          "name": "",
          "type": "address"
        }
      ],
      "stateMutability": "view",
      "type": "function"
    },
    {
      "inputs": [
        {
          "internalType": "address",
          "name": "_account",
          "type": "address"
        }
      ],
      "name": "hasAccount",
      "outputs": [
        {
          "internalType": "bool",
          "name": "",
          "type": "bool"
        }
      ],
      "stateMutability": "view",
      "type": "function"
    },
    {
      "inputs": [
        {
          "internalType": "bytes32",
          "name": "_market",
          "type": "bytes32"
        },
        {
          "internalType": "bytes32",
          "name": "_commitment",
          "type": "bytes32"
        }
      ],
      "name": "savingsBalance",
      "outputs": [
        {
          "internalType": "uint256",
          "name": "",
          "type": "uint256"
        }
      ],
      "stateMutability": "nonpayable",
      "type": "function"
    },
    {
      "inputs": [
        {
          "internalType": "bytes32",
          "name": "_market",
          "type": "bytes32"
        },
        {
          "internalType": "bytes32",
          "name": "_commitment",
          "type": "bytes32"
        }
      ],
      "name": "convertYield",
      "outputs": [
        {
          "internalType": "bool",
          "name": "success",
          "type": "bool"
        }
      ],
      "stateMutability": "nonpayable",
      "type": "function"
    },
    {
      "inputs": [
        {
          "internalType": "bytes32",
          "name": "_market",
          "type": "bytes32"
        },
        {
          "internalType": "bytes32",
          "name": "_commitment",
          "type": "bytes32"
        }
      ],
      "name": "hasYield",
      "outputs": [
        {
          "internalType": "bool",
          "name": "",
          "type": "bool"
        }
      ],
      "stateMutability": "view",
      "type": "function"
    },
    {
      "inputs": [
        {
          "internalType": "bytes32",
          "name": "_market",
          "type": "bytes32"
        }
      ],
      "name": "avblReserves",
      "outputs": [
        {
          "internalType": "uint256",
          "name": "",
          "type": "uint256"
        }
      ],
      "stateMutability": "view",
      "type": "function"
    },
    {
      "inputs": [
        {
          "internalType": "bytes32",
          "name": "_market",
          "type": "bytes32"
        }
      ],
      "name": "utilisedReserves",
      "outputs": [
        {
          "internalType": "uint256",
          "name": "",
          "type": "uint256"
        }
      ],
      "stateMutability": "view",
      "type": "function"
    },
    {
      "inputs": [
        {
          "internalType": "bytes32",
          "name": "_market",
          "type": "bytes32"
        },
        {
          "internalType": "bytes32",
          "name": "_commitment",
          "type": "bytes32"
        }
      ],
      "name": "hasDeposit",
      "outputs": [],
      "stateMutability": "view",
      "type": "function"
    },
    {
      "inputs": [
        {
          "internalType": "bytes32",
          "name": "_market",
          "type": "bytes32"
        },
        {
          "internalType": "bytes32",
          "name": "_commitment",
          "type": "bytes32"
        },
        {
          "internalType": "uint256",
          "name": "_amount",
          "type": "uint256"
        }
      ],
      "name": "createDeposit",
      "outputs": [],
      "stateMutability": "nonpayable",
      "type": "function"
    },
    {
      "inputs": [
        {
          "internalType": "bytes32",
          "name": "_market",
          "type": "bytes32"
        },
        {
          "internalType": "bytes32",
          "name": "_commitment",
          "type": "bytes32"
        },
        {
          "internalType": "uint256",
          "name": "_amount",
          "type": "uint256"
        },
        {
          "internalType": "enum Deposit.SAVINGSTYPE",
          "name": "_request",
          "type": "uint8"
        }
      ],
      "name": "withdrawDeposit",
      "outputs": [
        {
          "internalType": "bool",
          "name": "success",
          "type": "bool"
        }
      ],
      "stateMutability": "nonpayable",
      "type": "function"
    },
    {
      "inputs": [
        {
          "internalType": "bytes32",
          "name": "_market",
          "type": "bytes32"
        },
        {
          "internalType": "bytes32",
          "name": "_commitment",
          "type": "bytes32"
        },
        {
          "internalType": "uint256",
          "name": "_amount",
          "type": "uint256"
        }
      ],
      "name": "addToDeposit",
      "outputs": [
        {
          "internalType": "bool",
          "name": "success",
          "type": "bool"
        }
      ],
      "stateMutability": "nonpayable",
      "type": "function"
    },
    {
      "inputs": [
        {
          "internalType": "address",
          "name": "reserveAddr_",
          "type": "address"
        }
      ],
      "name": "setReserveAddress",
      "outputs": [],
      "stateMutability": "nonpayable",
      "type": "function"
    },
    {
      "inputs": [],
      "name": "pause",
      "outputs": [],
      "stateMutability": "nonpayable",
      "type": "function"
    },
    {
      "inputs": [],
      "name": "unpause",
      "outputs": [],
      "stateMutability": "nonpayable",
      "type": "function"
    }
  ],
  "bytecode": "0x60806040526000805460ff191690553480156200001b57600080fd5b5060405162001f4038038062001f408339810160408190526200003e91620000b3565b6000805461ff0019169055600380546001600160a01b039485166001600160a01b03199182161790915560028054821633179055600580549385169382169390931790925560068054919093169116179055620000fd565b80516001600160a01b0381168114620000ae57600080fd5b919050565b600080600060608486031215620000c957600080fd5b620000d48462000096565b9250620000e46020850162000096565b9150620000f46040850162000096565b90509250925092565b611e33806200010d6000396000f3fe608060405234801561001057600080fd5b50600436106100ff5760003560e01c80635c975abb11610097578063d711835111610066578063d71183511461020e578063db46e72b14610223578063df29f96a14610236578063fc0c546a1461024957600080fd5b80635c975abb146101d05780638456cb59146101e05780638f5e9b53146101e8578063c8e40fbf146101fb57600080fd5b80633f4ba83a116100d35780633f4ba83a1461017f57806346a8d93b146101875780634776119b146101aa5780634b67be51146101bd57600080fd5b8062d398e31461010457806302fce1951461011957806314673d311461014c578063157c71e21461015f575b600080fd5b610117610112366004611b36565b610274565b005b610139610127366004611b58565b6000908152600c602052604090205490565b6040519081526020015b60405180910390f35b61011761015a366004611b86565b610284565b61013961016d366004611b58565b6000908152600b602052604090205490565b6101176102d9565b61019a610195366004611b36565b610347565b6040519015158152602001610143565b6101396101b8366004611b36565b6103da565b61019a6101cb366004611ba3565b6103f0565b600054610100900460ff1661019a565b61011761047e565b61019a6101f6366004611b36565b6104e0565b61019a610209366004611b86565b610582565b610216610595565b6040516101439190611be8565b61019a610231366004611c3d565b6105fd565b610117610244366004611c3d565b6106b6565b60075461025c906001600160a01b031681565b6040516001600160a01b039091168152602001610143565b61027f338383610745565b505050565b6002546001600160a01b031633146102b75760405162461bcd60e51b81526004016102ae90611c69565b60405180910390fd5b600480546001600160a01b0319166001600160a01b0392909216919091179055565b6002546001600160a01b031633146103035760405162461bcd60e51b81526004016102ae90611c69565b60005460ff16156103265760405162461bcd60e51b81526004016102ae90611cad565b6000805460ff1916600117905561033b6107b1565b6000805460ff19169055565b6000805460ff161561036b5760405162461bcd60e51b81526004016102ae90611cad565b6000805460ff191660011781556103843385858461083f565b8084336001600160a01b03167f518b80a2da6eadc33bf03797e1c2a5d7087d6bc2e6e960e1852526b8d0f3b4fa866040516103c191815260200190565b60405180910390a4506000805460ff1916905592915050565b60006103e93384846002610a09565b9392505050565b6000805460ff16156104145760405162461bcd60e51b81526004016102ae90611cad565b6000805460ff1916600117905561042e3386868686610af0565b604080518581524260208201528491879133917f2cf34188b50ffe4cba3e004169d7725c886f53474a39abef02a2aa6ac93ac356910160405180910390a46000805460ff19169055949350505050565b6002546001600160a01b031633146104a85760405162461bcd60e51b81526004016102ae90611c69565b60005460ff16156104cb5760405162461bcd60e51b81526004016102ae90611cad565b6000805460ff1916600117905561033b610d96565b336000908152600a6020908152604080832085845282528083208484528252808320815161012081018352815481526001820154938101939093526002810154918301919091526003810154606083015260048101546080830152600581015460ff808216151560a08501526101009182900416151560c0840152600682015460e08401526007820154908301529061057890610e31565b5060019392505050565b600061058d82610e74565b506001919050565b60005460609060ff610100909104161515600114156105cc576040518060600160405280603d8152602001611dc1603d9139905090565b5060408051808201909152601681527510dbdb9d1c9858dd081a5cc81b9bdd081c185d5cd95960521b602082015290565b6000805460ff16156106215760405162461bcd60e51b81526004016102ae90611cad565b6000805460ff19166001179055610639338585610745565b61064857610648848484610ed9565b61065433858585610fe3565b61066084836000611170565b8184336001600160a01b03167f21b0b41c8a05983fe43b6d7b1c6ffcf0ad33cf0f21000877a0ccdbfdd67331e48660405161069d91815260200190565b60405180910390a46000805460ff191690559392505050565b60005460ff16156106d95760405162461bcd60e51b81526004016102ae90611cad565b6000805460ff191660011790556106f1838383610ed9565b8083336001600160a01b03167fe5e90022a16efe318e3be758157c8b021ac46773ff87a62c8d88e9698c8d82a68560405161072e91815260200190565b60405180910390a450506000805460ff1916905550565b6001600160a01b038316600090815260096020908152604080832085845282528083208484529091528120546105785760405162461bcd60e51b815260206004820152601160248201527011549493d48e88139bc819195c1bdcda5d607a1b60448201526064016102ae565b600054610100900460ff166107fc5760405162461bcd60e51b81526020600482015260116024820152704e6f74207061757365642073746174757360781b60448201526064016102ae565b6000805461ff001916815560405190815233907fd90c20276b7955800df9b223f244944b25b581f437448b1978aa61d4036b428a906020015b60405180910390a2565b61084884610e74565b3360008181526008602090815260408083206009835281842088855283528184208785528352818420948452600a83528184208885528352818420878552835292819020815161012081018352815481526001820154938101939093526002810154918301919091526003810154606083015260048101546080830152600581015460ff808216151560a08501526101009182900416151560c0840152600682015460e08401526007820154908301529192919061090590610e31565b6109108787876111cf565b8060040154935060008160040181905550838260030160008282546109359190611cee565b909155505042600483015581548490600285019061095590600190611d06565b8154811061096557610965611d1d565b906000526020600020906005020160030160008282546109859190611cee565b909155505081544290600285019061099f90600190611d06565b815481106109af576109af611d1d565b906000526020600020906005020160040181905550600083600301600184600001546109db9190611d06565b815481106109eb576109eb611d1d565b90600052602060002090600802016004018190555050505050505050565b6001600160a01b038416600081815260096020908152604080832087845282528083208684528252808320938352600a8252808320878452825280832086845290915281209091829182856002811115610a6557610a65611d33565b1415610a775781600301549250610ae4565b6001856002811115610a8b57610a8b611d33565b1415610aa857610a9c3388886111cf565b80600401549250610ae4565b6002856002811115610abc57610abc611d33565b1415610ae457610acd3388886111cf565b80600401548260030154610ae19190611cee565b92505b50909695505050505050565b610af985610e74565b6005546040516378f504f960e01b8152600481018690526001600160a01b03909116906378f504f99060240160206040518083038186803b158015610b3d57600080fd5b505afa158015610b51573d6000803e3d6000fd5b505050506040513d601f19601f82011682018060405250810190610b759190611d49565b50610b813385856111cf565b6000610b8f86868685610a09565b905080831015610bd85760405162461bcd60e51b8152602060048201526014602482015273496e73756666696369656e742062616c616e636560601b60448201526064016102ae565b6006546040516369bcdb7d60e01b8152600060048201526001600160a01b03909116906369bcdb7d9060240160206040518083038186803b158015610c1c57600080fd5b505afa158015610c30573d6000803e3d6000fd5b505050506040513d601f19601f82011682018060405250810190610c549190611d6b565b841415610c6857610c68868686868661131f565b60055460405163164db43d60e21b8152600481018790526000916001600160a01b031690635936d0f49060240160206040518083038186803b158015610cad57600080fd5b505afa158015610cc1573d6000803e3d6000fd5b505050506040513d601f19601f82011682018060405250810190610ce59190611d84565b600780546001600160a01b0319166001600160a01b038381169182179092556004805460405163a9059cbb60e01b81529316908301526024820187905291925063a9059cbb90604401602060405180830381600087803b158015610d4857600080fd5b505af1158015610d5c573d6000803e3d6000fd5b505050506040513d601f19601f82011682018060405250810190610d809190611d49565b50610d8d86856001611170565b50505050505050565b600054610100900460ff1615610dde5760405162461bcd60e51b815260206004820152600d60248201526c5061757365642073746174757360981b60448201526064016102ae565b6000805461ff001916610100179055610df43390565b6001600160a01b03167fd90c20276b7955800df9b223f244944b25b581f437448b1978aa61d4036b428a6001604051610835911515815260200190565b8051610e715760405162461bcd60e51b815260206004820152600f60248201526e11549493d48e88139bc8165a595b19608a1b60448201526064016102ae565b50565b6001600160a01b038116600090815260086020526040902054610e715760405162461bcd60e51b815260206004820152601960248201527f4552524f523a204e6f20736176696e6773206163636f756e740000000000000060448201526064016102ae565b3360008181526008602090815260408083206009835281842088855283528184208785528352818420948452600a83528184208885528352818420878552909252909120909190610f2a868561158a565b610f34338461175f565b6007546004805460405163a9059cbb60e01b81526001600160a01b0391821692810192909252600160248301529091169063a9059cbb90604401602060405180830381600087803b158015610f8857600080fd5b505af1158015610f9c573d6000803e3d6000fd5b505050506040513d601f19601f82011682018060405250810190610fc09190611d49565b50610fcf86868686868661178a565b610fdb86856000611170565b505050505050565b6001600160a01b03841660008181526008602090815260408083206009835281842088855283528184208785528352818420948452600a8352818420888552835281842087855290925282208354919392909161104290600190611d06565b905061104f8888886111cf565b848360030160008282546110639190611cee565b90915550504260048401556002840180548691908390811061108757611087611d1d565b906000526020600020906005020160030160008282546110a79190611cee565b92505081905550428460020182815481106110c4576110c4611d1d565b90600052602060002090600502016004018190555081600201548460030182815481106110f3576110f3611d1d565b906000526020600020906008020160020181905550816003015484600301828154811061112257611122611d1d565b906000526020600020906008020160030181905550816004015484600301828154811061115157611151611d1d565b9060005260206000209060080201600401819055505050505050505050565b8061119e576000838152600b602052604081208054849290611193908490611cee565b9091555061027f9050565b806001141561027f576000838152600b6020526040812080548492906111c5908490611d06565b9091555050505050565b6111da838383610745565b506001600160a01b0383811660008181526008602090815260408083206009835281842088855283528184208785528352818420948452600a8352818420888552835281842087855290925280832060065460028201546003830154935163f0cff4b560e01b8152600481018a9052602481019190915260448101939093526064830185905293959294939092169063f0cff4b59060840160006040518083038186803b15801561128a57600080fd5b505afa15801561129e573d6000803e3d6000fd5b50505060038301546112b1915085611da1565b9350838160040160008282546112c79190611cee565b90915550508154849060038501906112e190600190611d06565b815481106112f1576112f1611d1d565b906000526020600020906008020160040160008282546113119190611cee565b909155505050505050505050565b6001600160a01b038516600081815260096020908152604080832088845282528083208784528252808320938352600a8252808320888452825280832087845290915281209083600281111561137757611377611d33565b14156113a157838260030160008282546113919190611d06565b9091555050426004830155610d8d565b60018360028111156113b5576113b5611d33565b141561148457600581015460ff1615806113e25750806006015481600701546113de9190611cee565b4210155b1561140b57838160040160008282546113fb9190611d06565b9091555050426003820155610d8d565b600581015460ff1615158061143257508060060154816007015461142f9190611cee565b42105b1561147f5760405162461bcd60e51b815260206004820152601f60248201527f5769746864726177616c2063616e206e6f742062652070726f6365737365640060448201526064016102ae565b610d8d565b600283600281111561149857611498611d33565b1415610d8d57600581015460ff1615806114c55750806006015481600701546114c19190611cee565b4210155b156114ee57838160040160008282546114de9190611d06565b9091555050426003820155611562565b600581015460ff161515806115155750806006015481600701546115129190611cee565b42105b156115625760405162461bcd60e51b815260206004820152601f60248201527f5769746864726177616c2063616e206e6f742062652070726f6365737365640060448201526064016102ae565b838260030160008282546115769190611d06565b909155505042600483015550505050505050565b6005546040516378f504f960e01b8152600481018490526001600160a01b03909116906378f504f99060240160206040518083038186803b1580156115ce57600080fd5b505afa1580156115e2573d6000803e3d6000fd5b505050506040513d601f19601f820116820180604052508101906116069190611d49565b5060055460405163164db43d60e21b8152600481018490526000916001600160a01b031690635936d0f49060240160206040518083038186803b15801561164c57600080fd5b505afa158015611660573d6000803e3d6000fd5b505050506040513d601f19601f820116820180604052508101906116849190611d84565b600780546001600160a01b0319166001600160a01b0383811691909117909155600554604051631f5f6a0560e31b81526004810187905260248101869052929350169063fafb50289060440160006040518083038186803b1580156116e857600080fd5b505afa1580156116fc573d6000803e3d6000fd5b5050600554604051636b7b9dbf60e11b815260048101879052602481018690526001600160a01b03909116925063d6f73b7e915060440160006040518083038186803b15801561174b57600080fd5b505afa158015610d8d573d6000803e3d6000fd5b8054611786574281556001810180546001600160a01b0319166001600160a01b0384161790555b5050565b600283015460009061179e575060016117b1565b60028401546117ae906001611cee565b90505b808355600183018790556002830186905560038301859055426004808501919091556006546040516369bcdb7d60e01b81526000928101929092526001600160a01b0316906369bcdb7d9060240160206040518083038186803b15801561181757600080fd5b505afa15801561182b573d6000803e3d6000fd5b505050506040513d601f19601f8201168201806040525081019061184f9190611d6b565b861461191257808255600182018790556006546040516342222c7160e11b8152600481018890526001600160a01b039091169063844458e29060240160206040518083038186803b1580156118a357600080fd5b505afa1580156118b7573d6000803e3d6000fd5b505050506040513d601f19601f820116820180604052508101906118db9190611d6b565b600283015542600383015560006004830181905560058301805461ffff191660011790556201518060068401556007830155611a4d565b6006546040516369bcdb7d60e01b8152600060048201526001600160a01b03909116906369bcdb7d9060240160206040518083038186803b15801561195657600080fd5b505afa15801561196a573d6000803e3d6000fd5b505050506040513d601f19601f8201168201806040525081019061198e9190611d6b565b861415611a4d57808255600182018790556006546040516342222c7160e11b8152600481018890526001600160a01b039091169063844458e29060240160206040518083038186803b1580156119e357600080fd5b505afa1580156119f7573d6000803e3d6000fd5b505050506040513d601f19601f82011682018060405250810190611a1b9190611d6b565b600283015542600383015560006004830181905560058301805461ffff19166101001790556006830181905560078301555b5060028084018054600181810183556000928352602080842087546005948502909101908155828801548184015587860154818701556003808901548183015560049889015491890191909155978801805480840182559085529320855460089094020192835584810154908301558383015492820192909255828501549481019490945581830154928401929092558082018054928401805460ff948516151560ff19821681178355925461010090819004909516151590940261ff001990921661ffff19909416939093171790915560068082015490830155600790810154910155505050565b60008060408385031215611b4957600080fd5b50508035926020909101359150565b600060208284031215611b6a57600080fd5b5035919050565b6001600160a01b0381168114610e7157600080fd5b600060208284031215611b9857600080fd5b81356103e981611b71565b60008060008060808587031215611bb957600080fd5b843593506020850135925060408501359150606085013560038110611bdd57600080fd5b939692955090935050565b600060208083528351808285015260005b81811015611c1557858101830151858201604001528201611bf9565b81811115611c27576000604083870101525b50601f01601f1916929092016040019392505050565b600080600060608486031215611c5257600080fd5b505081359360208301359350604090920135919050565b60208082526024908201527f4f6e6c7920616e2061646d696e2063616e2063616c6c20746869732066756e636040820152633a34b7b760e11b606082015260800190565b60208082526011908201527052652d656e7472616e7420616c6572742160781b604082015260600190565b634e487b7160e01b600052601160045260246000fd5b60008219821115611d0157611d01611cd8565b500190565b600082821015611d1857611d18611cd8565b500390565b634e487b7160e01b600052603260045260246000fd5b634e487b7160e01b600052602160045260246000fd5b600060208284031215611d5b57600080fd5b815180151581146103e957600080fd5b600060208284031215611d7d57600080fd5b5051919050565b600060208284031215611d9657600080fd5b81516103e981611b71565b6000816000190483118215151615611dbb57611dbb611cd8565b50029056fe436f6e7472616374206973207061757365642e20546f6b656e207472616e7366657273206172652074656d706f726172696c792064697361626c65642ea26469706673582212203f8ec853e7026367e0aec32e9460d33d73955f3cb8bee5eee56d045b2e2cc86564736f6c63430008090033",
  "immutableReferences": {},
  "source": "// SPDX-License-Identifier: MIT\r\npragma solidity >=0.8.9 <0.9.0;\r\n\r\nimport \"./util/Pausable.sol\";\r\nimport \"./interfaces/ITokenList.sol\";\r\nimport \"./mockup/IMockBep20.sol\";\r\nimport \"./interfaces/IComptroller.sol\";\r\n\r\n\r\ncontract Deposit is Pausable{\r\n\t\r\n\tbytes32 adminDeposit;\r\n\taddress adminDepositAddress;\r\n\taddress superAdminAddress;\r\n\taddress reserveAddress;\r\n\r\n\tITokenList markets;\r\n\tIComptroller comptroller;\r\n\r\n\tIMockBep20 public \ttoken;\r\n\r\n\tstruct SavingsAccount {\r\n        uint accOpenTime;\r\n        address account; \r\n        DepositRecords[] deposits;\r\n        YieldLedger[] yield;\r\n    }\r\n\r\n    struct DepositRecords   {\r\n        uint id;\r\n        bytes32 market;\r\n        bytes32 commitment;\r\n        uint amount;\r\n        uint lastUpdate;\r\n    }\r\n\r\n    struct YieldLedger    {\r\n        uint id;\r\n        bytes32 market; //_market this yield is calculated for\r\n        uint oldLengthAccruedYield; // length of the APY time array.\r\n        uint oldTime; // last recorded block num. This is when this struct is lastly updated.\r\n        uint accruedYield; // accruedYield in \r\n        bool isTimelockApplicable; // is timelockApplicalbe or not. Except the flexible deposits, the timelock is applicabel on all the deposits.\r\n        bool isTimelockActivated; // is timelockApplicalbe or not. Except the flexible deposits, the timelock is applicabel on all the deposits.\r\n        uint timelockValidity; // timelock duration\r\n        uint activationTime; // block.timestamp(isTimelockActivated) + timelockValidity.\r\n    }\r\n\r\n\tenum SAVINGSTYPE{DEPOSIT, YIELD, BOTH}\r\n\t\r\n\tmapping(address => SavingsAccount) savingsPassbook;  // Maps an account to its savings Passbook\r\n    mapping(address => mapping(bytes32 => mapping(bytes32 => DepositRecords))) indDepositRecord; // address =>_market => _commitment => depositRecord\r\n    mapping(address => mapping(bytes32 => mapping(bytes32 => YieldLedger))) indYieldRecord; // address =>_market => _commitment => depositRecord\r\n\r\n\t///  Balance monitoring  - Deposits\r\n\tmapping(bytes32 => uint) marketReserves; // mapping(market => marketBalance)\r\n\tmapping(bytes32 => uint) marketUtilisation; // mapping(market => marketBalance)\r\n\r\n\tevent NewDeposit(address indexed account,bytes32 indexed market,bytes32 commmitment,uint256 indexed amount);\r\n\tevent DepositAdded(address indexed account,bytes32 indexed market,bytes32 commmitment,uint256 indexed amount);\r\n\tevent YieldDeposited(address indexed account,bytes32 indexed market,bytes32 commmitment,uint256 indexed amount);\r\n\tevent Withdrawal(address indexed account, bytes32 indexed market, uint indexed amount, bytes32 commitment, uint timestamp);\r\n\r\n\r\n\tconstructor(\r\n\t\taddress _superAdminAddr,\r\n\t\taddress _tokenListAddr,\r\n\t\taddress _comptrollerAddr\r\n\t) \r\n\t{\r\n\t\tsuperAdminAddress = _superAdminAddr;\r\n\t\tadminDepositAddress = msg.sender;\r\n\t\tmarkets = ITokenList(_tokenListAddr);\r\n\t\tcomptroller = IComptroller(_comptrollerAddr);\r\n\t}\r\n\r\n\tfunction hasAccount(address _account) external view returns (bool)\t{\r\n\t\t_hasAccount(_account);\r\n\t\treturn true;\r\n\t}\r\n\r\n\tfunction savingsBalance(bytes32 _market, bytes32 _commitment) external returns (uint) {\r\n\t\treturn _accountBalance(msg.sender, _market, _commitment, SAVINGSTYPE.BOTH);\r\n\t}\r\n\r\n\tfunction convertYield(bytes32 _market, bytes32 _commitment) external nonReentrant() returns (bool success){\r\n\t\t\r\n\t\tuint _amount;\r\n\t\t_convertYield(msg.sender, _market,_commitment, _amount);\r\n\r\n\t\temit YieldDeposited(msg.sender, _market, _commitment, _amount);\r\n\t\treturn success;\r\n\t}\r\n\r\n\tfunction hasYield(bytes32 _market, bytes32 _commitment) external view returns (bool)\t{\r\n\t\tYieldLedger storage yield = indYieldRecord[msg.sender][_market][_commitment];\r\n\t\t\r\n\t\t_hasYield(yield);\r\n\t\treturn true;\r\n\t}\r\n\r\n\r\n\tfunction avblReserves(bytes32 _market) external view returns(uint){\r\n\t\treturn marketReserves[_market];\r\n\t}\r\n\r\n\t// function _avblReserves(bytes32 _market) internal view returns(uint)\t{\r\n\t// \treturn marketReserves[_market];\r\n\t// }\r\n\r\n\tfunction utilisedReserves(bytes32 _market) external view returns(uint)\t{\r\n\t\treturn _utilisedReserves(_market);\r\n\t}\r\n\tfunction _utilisedReserves(bytes32 _market) internal view returns(uint)\t{\r\n\t\treturn marketUtilisation[_market];\r\n\t}\r\n\r\n\r\n\tfunction _updateReserves(bytes32 _market, uint _amount, uint _num) private\r\n\t{\r\n\t\tif (_num == 0)\t{\r\n\t\t\tmarketReserves[_market] += _amount;\r\n\t\t} else if (_num == 1)\t{\r\n\t\t\tmarketReserves[_market] -= _amount;\r\n\t\t}\r\n\t}\r\n\r\n\tfunction _updateUtilisation(bytes32 _market, uint _amount, uint _num) private \r\n\t{\r\n\t\tif (_num == 0)\t{\r\n\t\t\tmarketUtilisation[_market] += _amount;\r\n\t\t} else if (_num == 1)\t{\r\n\t\t\tmarketUtilisation[_market] -= _amount;\r\n\t\t}\r\n\t}\r\n\r\n\tfunction hasDeposit(bytes32 _market, bytes32 _commitment) external view {\r\n\t\t_hasDeposit(msg.sender,_market, _commitment);\r\n\t}\r\n\tfunction _hasDeposit(address _account, bytes32 _market, bytes32 _commitment) internal view returns(bool) {\r\n\t\trequire (indDepositRecord[_account][_market][_commitment].id != 0, \"ERROR: No deposit\");\r\n\t\treturn true;\r\n\t}\r\n\r\n\t\r\n\tfunction createDeposit(\r\n\t\tbytes32 _market,\r\n\t\tbytes32 _commitment,\r\n\t\tuint256 _amount\r\n\t) external nonReentrant(){\r\n\t\t\r\n\t\t_createNewDeposit(_market,_commitment, _amount);\r\n\r\n\t\temit NewDeposit(msg.sender, _market, _commitment, _amount);\r\n\t}\r\n\r\n\r\n\tfunction withdrawDeposit (bytes32 _market, bytes32 _commitment, uint _amount, SAVINGSTYPE _request) external nonReentrant() returns (bool success){\r\n\r\n\t\t_withdrawDeposit (msg.sender, _market, _commitment, _amount, _request);\r\n\r\n\t\temit Withdrawal(msg.sender,_market, _amount, _commitment, block.timestamp);\r\n\t\treturn success;\r\n\t\t\r\n\t}\r\n\r\n\r\n\tfunction _withdrawDeposit (address _account, bytes32 _market, bytes32 _commitment, uint _amount, SAVINGSTYPE _request) internal{\r\n\t\t\r\n\t\t_hasAccount(_account);\r\n\t\tmarkets.isMarketSupported(_market);\r\n\r\n\t\t// DepositRecords storage deposit = indDepositRecord[_account][_market][_commitment];\r\n\t\t// YieldLedger storage yield = indYieldRecord[_account][_market][_commitment];\r\n\r\n\t\t_accruedYield(msg.sender,_market,_commitment);\r\n\r\n\t\tuint _savingsBalance = _accountBalance(_account, _market, _commitment, _request);\r\n\r\n\t\trequire(_amount >= _savingsBalance, \"Insufficient balance\");\r\n\t\tif (_commitment == comptroller.getCommitment(0))\t{\r\n\t\t\t_updateSavingsBalance(_account, _market, _commitment, _amount, _request);\r\n\t\t}\r\n\t\t/// Transfer funds to the user's wallet.\r\n\t\taddress retAddr = markets.connectMarket(_market);\r\n\t\ttoken = IMockBep20(retAddr);\r\n\t\ttoken.transfer(reserveAddress, _amount);\r\n\r\n\t\t_updateReserves(_market, _amount, 1);\r\n\r\n\t}\r\n\r\n\t// function convertDeposit() external nonReentrant() {}\r\n\r\n\tfunction _preDepositProcess(\r\n\t\tbytes32 _market,\r\n\t\tuint256 _amount\r\n\t\t// SavingsAccount memory savingsAccount\r\n\t) private {\r\n\r\n\t\tmarkets.isMarketSupported(_market);\r\n\t\t\r\n\t\taddress retAddr = markets.connectMarket(_market);\r\n\t\ttoken = IMockBep20(retAddr);\r\n\t\tmarkets.quantifyAmount(_market, _amount);\r\n\t\tmarkets.minAmountCheck(_market, _amount);\r\n\t}\r\n\r\n\tfunction _ensureSavingsAccount(address _account, SavingsAccount storage savingsAccount) private {\r\n\r\n\t\tif (savingsAccount.accOpenTime == 0) {\r\n\r\n\t\t\tsavingsAccount.accOpenTime = block.timestamp;\r\n\t\t\tsavingsAccount.account = _account;\r\n\t\t}\r\n\t}\r\n\r\n\tfunction _accruedYield(address _account,bytes32 _market,bytes32 _commitment) internal {\r\n\t\t\r\n\t\t_hasDeposit(_account, _market, _commitment);\r\n\r\n\t\tuint256 aggregateYield;\r\n\r\n\t\tSavingsAccount storage savingsAccount = savingsPassbook[_account];\r\n\t\tDepositRecords storage deposit = indDepositRecord[_account][_market][_commitment];\r\n\t\tYieldLedger storage yield = indYieldRecord[_account][_market][_commitment];\r\n\r\n\t\tcomptroller.calcAPY(_commitment, yield.oldLengthAccruedYield, yield.oldTime, aggregateYield);\r\n\r\n\t\taggregateYield *= deposit.amount;\r\n\r\n\t\tyield.accruedYield += aggregateYield;\r\n\t\tsavingsAccount.yield[deposit.id-1].accruedYield += aggregateYield;\r\n\r\n\t}\r\n\r\n\tfunction _processNewDeposit(\r\n\t\t// address _account,\r\n\t\tbytes32 _market,\r\n\t\tbytes32 _commitment,\r\n\t\tuint256 _amount,\r\n\t\tSavingsAccount storage savingsAccount,\r\n\t\tDepositRecords storage deposit,\r\n\t\tYieldLedger storage yield\r\n\t) internal {\r\n\t\t// SavingsAccount storage savingsAccount = savingsPassbook[_account];\r\n\t\t// DepositRecords storage deposit = indDepositRecord[_account][_market][_commitment];\r\n\t\t// YieldLedger storage yield = indYieldRecord[_account][_market][_commitment];\r\n\r\n\t\tuint256 id;\r\n\r\n\t\tif (savingsAccount.deposits.length == 0) {\r\n\t\t\t\tid = 1;\r\n\t\t\t} else {\r\n\t\t\t\tid = savingsAccount.deposits.length + 1;\r\n\t\t}\r\n\r\n\t\tdeposit.id = id;\t\r\n\t\tdeposit.market =_market;\r\n\t\tdeposit.commitment = _commitment;\r\n\t\tdeposit.amount = _amount;\r\n\t\tdeposit.lastUpdate =  block.timestamp;\r\n\r\n\t\tif (_commitment != comptroller.getCommitment(0)) {\r\n\r\n\t\t\tyield.id=  id;\r\n\t\t\tyield.market=_market;\r\n\t\t\tyield.oldLengthAccruedYield = comptroller.getApyTimeLength(_commitment);\r\n\t\t\tyield.oldTime = block.timestamp;\r\n\t\t\tyield.accruedYield = 0;\r\n\t\t\tyield.isTimelockApplicable = true;\r\n\t\t\tyield.isTimelockActivated=  false;\r\n\t\t\tyield.timelockValidity = 86400;\r\n\t\t\tyield.activationTime = 0;\r\n\r\n\t\t} else if (\r\n\t\t\t_commitment == comptroller.getCommitment(0)) {\r\n\r\n\r\n\t\t\tyield.id=  id;\r\n\t\t\tyield.market=_market;\r\n\t\t\tyield.oldLengthAccruedYield = comptroller.getApyTimeLength(_commitment);\r\n\t\t\tyield.oldTime = block.timestamp;\r\n\t\t\tyield.accruedYield = 0;\r\n\t\t\tyield.isTimelockApplicable = false;\r\n\t\t\tyield.isTimelockActivated=  true;\r\n\t\t\tyield.timelockValidity = 0;\r\n\t\t\tyield.activationTime = 0;\r\n\r\n\t\t}\r\n\t\tsavingsAccount.deposits.push(deposit);\r\n\t\tsavingsAccount.yield.push(yield);\r\n\t}\r\n\tfunction _processDeposit(\r\n\t\taddress _account,\r\n\t\tbytes32 _market,\r\n\t\tbytes32 _commitment,\r\n\t\tuint256 _amount\r\n\t) internal {\r\n\t\tSavingsAccount storage savingsAccount = savingsPassbook[_account];\r\n\t\tDepositRecords storage deposit = indDepositRecord[_account][_market][_commitment];\r\n\t\tYieldLedger storage yield = indYieldRecord[_account][_market][_commitment];\r\n\r\n\t\tuint num = deposit.id - 1;\r\n\r\n\t\t_accruedYield(_account, _market, _commitment);\r\n\t\t\r\n\t\tdeposit.amount += _amount;\r\n\t\tdeposit.lastUpdate =  block.timestamp;\r\n\r\n\r\n\t\tsavingsAccount.deposits[num].amount += _amount;\r\n\t\tsavingsAccount.deposits[num].lastUpdate =  block.timestamp;\r\n\r\n\t\tsavingsAccount.yield[num].oldLengthAccruedYield = yield.oldLengthAccruedYield;\r\n\t\tsavingsAccount.yield[num].oldTime = yield.oldTime;\r\n\t\tsavingsAccount.yield[num].accruedYield = yield.accruedYield;\r\n\t}\r\n\r\n\tfunction _hasAccount(address _account) internal view {\r\n\t\trequire(savingsPassbook[_account].accOpenTime!=0, \"ERROR: No savings account\");\r\n\t}\r\n\r\n\tfunction _hasYield(YieldLedger memory yield) internal pure {\r\n\t\trequire(yield.id !=0, \"ERROR: No Yield\");\r\n\t}\r\n\r\n\tfunction addToDeposit(bytes32 _market, bytes32 _commitment, uint _amount) external nonReentrant() returns(bool success){\r\n\r\n\t\tif (!_hasDeposit(msg.sender, _market, _commitment))\t{\r\n\t\t\t_createNewDeposit(_market, _commitment, _amount);\r\n\t\t}\r\n\t\t\r\n\t\t_processDeposit(msg.sender, _market, _commitment, _amount);\r\n\t\t_updateReserves(_market, _amount, 0);\r\n\r\n\t\temit DepositAdded(msg.sender, _market, _commitment, _amount);\r\n\t\treturn success;\r\n\t}\r\n\r\n\tfunction _createNewDeposit(bytes32 _market,bytes32 _commitment,uint256 _amount) private {\r\n\r\n\t\tSavingsAccount storage savingsAccount = savingsPassbook[msg.sender];\r\n\t\tDepositRecords storage deposit = indDepositRecord[msg.sender][_market][_commitment];\r\n\t\tYieldLedger storage yield = indYieldRecord[msg.sender][_market][_commitment];\r\n\r\n\t\t_preDepositProcess(_market, _amount);\r\n\t\t_ensureSavingsAccount(msg.sender,savingsAccount);\r\n\t\ttoken.transfer(reserveAddress, 1);\r\n\t\t_processNewDeposit(_market, _commitment, _amount, savingsAccount,deposit, yield);\r\n\t\t_updateReserves(_market, _amount, 0);\r\n\t}\r\n\r\n\tfunction _convertYield(address _account, bytes32 _market, bytes32 _commitment, uint _amount) private {\r\n\r\n\t\t_hasAccount(_account);\r\n\r\n\t\tSavingsAccount storage savingsAccount = savingsPassbook[msg.sender];\r\n\t\tDepositRecords storage deposit = indDepositRecord[msg.sender][_market][_commitment];\r\n\t\tYieldLedger storage yield = indYieldRecord[msg.sender][_market][_commitment];\r\n\r\n\t\t_hasYield(yield);\r\n\t\t_accruedYield(_account,_market,_commitment);\r\n\r\n\t\t_amount = yield.accruedYield;\r\n\r\n\t\t// updating yield\r\n\t\tyield.accruedYield = 0;\r\n\r\n\t\tdeposit.amount += _amount;\r\n\t\tdeposit.lastUpdate = block.timestamp;\r\n\r\n\t\tsavingsAccount.deposits[deposit.id -1].amount += _amount;\r\n\t\tsavingsAccount.deposits[deposit.id -1].lastUpdate = block.timestamp;\r\n\t\tsavingsAccount.yield[deposit.id-1].accruedYield = 0;\r\n\t}\r\n\r\n\tfunction _accountBalance(address _account, bytes32 _market, bytes32 _commitment, SAVINGSTYPE _request) internal returns (uint) {\r\n\r\n\t\tuint _savingsBalance;\r\n\t\t\r\n\t\tDepositRecords storage deposit = indDepositRecord[_account][_market][_commitment];\r\n\t\tYieldLedger storage yield = indYieldRecord[_account][_market][_commitment];\r\n\r\n\t\tif (_request == SAVINGSTYPE.DEPOSIT)\t{\r\n\t\t\t_savingsBalance = deposit.amount;\r\n\r\n\t\t}\telse if (_request == SAVINGSTYPE.YIELD)\t{\r\n\t\t\t_accruedYield(msg.sender,_market,_commitment);\r\n\t\t\t_savingsBalance =  yield.accruedYield;\r\n\r\n\t\t}\telse if (_request == SAVINGSTYPE.BOTH)\t{\r\n\t\t\t_accruedYield(msg.sender,_market,_commitment);\r\n\t\t\t_savingsBalance = deposit.amount + yield.accruedYield;\r\n\t\t}\r\n\t\treturn _savingsBalance;\r\n\t}\r\n\r\n\tfunction _updateSavingsBalance(address _account, bytes32 _market, bytes32 _commitment, uint _amount, SAVINGSTYPE _request) internal {\r\n\r\n\t\tDepositRecords storage deposit = indDepositRecord[_account][_market][_commitment];\r\n\t\tYieldLedger storage yield = indYieldRecord[_account][_market][_commitment];\r\n\r\n\t\tif (_request == SAVINGSTYPE.DEPOSIT)\t{\r\n\t\t\tdeposit.amount -= _amount;\r\n\t\t\tdeposit.lastUpdate =  block.timestamp;\r\n\r\n\t\t}\telse if (_request == SAVINGSTYPE.YIELD)\t{\r\n\r\n\t\t\tif (yield.isTimelockApplicable == false || block.timestamp >= yield.activationTime+yield.timelockValidity)\t{\r\n\t\t\t\t\r\n\t\t\t\t// _accruedYield(msg.sender,_market,_commitment);\r\n\t\t\t\tyield.accruedYield -= _amount;\r\n\t\t\t\tyield.oldTime = block.timestamp;\r\n\t\t\t}\telse if (yield.isTimelockApplicable != false || block.timestamp < yield.activationTime+yield.timelockValidity)\t{\r\n\t\t\t\trevert ('Withdrawal can not be processed');\r\n\t\t\t}\r\n\r\n\t\t}\telse if (_request == SAVINGSTYPE.BOTH)\t{\r\n\r\n\t\t\t// require (deposit.id == yield.id, \"mapping error\");\r\n\r\n\t\t\tif (yield.isTimelockApplicable == false || block.timestamp >= yield.activationTime+yield.timelockValidity)\t{\r\n\t\t\t\t// _accruedYield(msg.sender,_market,_commitment);\r\n\t\t\t\tyield.accruedYield -= _amount;\r\n\t\t\t\tyield.oldTime = block.timestamp;\r\n\r\n\t\t\t}\telse if (yield.isTimelockApplicable != false || block.timestamp < yield.activationTime+yield.timelockValidity)\t{\r\n\t\t\t\trevert ('Withdrawal can not be processed');\r\n\t\t\t}\r\n\t\t\t\r\n\t\t\tdeposit.amount -= _amount;\r\n\t\t\tdeposit.lastUpdate =  block.timestamp;\r\n\t\t}\r\n\t}\r\n\r\n\tfunction setReserveAddress(address reserveAddr_) public authDeposit() {\r\n\t\treserveAddress = reserveAddr_;\r\n\t}\r\n\r\n\tfunction pause() external authDeposit() nonReentrant() {\r\n\t\t_pause();\r\n\t}\r\n\t\r\n\tfunction unpause() external authDeposit() nonReentrant() {\r\n\t\t_unpause();   \r\n\t}\r\n\r\n\tmodifier authDeposit() {\r\n\t\trequire(\r\n\t\t\tmsg.sender == adminDepositAddress,\r\n\t\t\t\"Only an admin can call this function\"\r\n\t\t);\r\n\t\t_;\r\n\t}\r\n}",
  "sourcePath": "F:\\workspace\\Open-protocol\\contracts\\Deposit.sol",
  "compiler": {
    "name": "solc",
    "version": "0.8.9+commit.e5eed63a.Emscripten.clang"
  },
  "schemaVersion": "3.4.3",
  "updatedAt": "2021-10-22T12:07:31.102Z",
  "devdoc": {
    "kind": "dev",
    "methods": {},
    "version": 1
  },
  "userdoc": {
    "kind": "user",
    "methods": {},
    "version": 1
  }
}