{
  "contractName": "Deposit",
  "abi": [
    {
      "inputs": [],
      "stateMutability": "nonpayable",
      "type": "constructor"
    },
    {
      "anonymous": false,
      "inputs": [
        {
          "indexed": true,
          "internalType": "address",
          "name": "account",
          "type": "address"
        },
        {
          "indexed": true,
          "internalType": "bytes32",
          "name": "market",
          "type": "bytes32"
        },
        {
          "indexed": false,
          "internalType": "bytes32",
          "name": "commmitment",
          "type": "bytes32"
        },
        {
          "indexed": true,
          "internalType": "uint256",
          "name": "amount",
          "type": "uint256"
        }
      ],
      "name": "NewDeposit",
      "type": "event"
    },
    {
      "inputs": [
        {
          "internalType": "bytes32",
          "name": "market_",
          "type": "bytes32"
        },
        {
          "internalType": "bytes32",
          "name": "commitment_",
          "type": "bytes32"
        },
        {
          "internalType": "uint256",
          "name": "amount_",
          "type": "uint256"
        }
      ],
      "name": "createDeposit",
      "outputs": [
        {
          "internalType": "bool",
          "name": "",
          "type": "bool"
        }
      ],
      "stateMutability": "nonpayable",
      "type": "function"
    },
    {
      "inputs": [],
      "name": "savingsBalance",
      "outputs": [],
      "stateMutability": "nonpayable",
      "type": "function"
    },
    {
      "inputs": [],
      "name": "withdrawFunds",
      "outputs": [],
      "stateMutability": "nonpayable",
      "type": "function"
    },
    {
      "inputs": [],
      "name": "convertDeposit",
      "outputs": [],
      "stateMutability": "nonpayable",
      "type": "function"
    },
    {
      "inputs": [],
      "name": "convertYield",
      "outputs": [],
      "stateMutability": "nonpayable",
      "type": "function"
    }
  ],
  "bytecode": "0x60806040526000600160146101000a81548160ff021916908315150217905550733e2884d9f6013ac28b0323b81460f49fe8e5f401600260006101000a81548173ffffffffffffffffffffffffffffffffffffffff021916908373ffffffffffffffffffffffffffffffffffffffff160217905550733e2884d9f6013ac28b0323b81460f49fe8e5f401600360006101000a81548173ffffffffffffffffffffffffffffffffffffffff021916908373ffffffffffffffffffffffffffffffffffffffff1602179055503480156100d557600080fd5b5033600160006101000a81548173ffffffffffffffffffffffffffffffffffffffff021916908373ffffffffffffffffffffffffffffffffffffffff16021790555061071a806101266000396000f3fe608060405234801561001057600080fd5b50600436106100575760003560e01c806324600fc31461005c5780638c281df314610066578063ad78709614610070578063c69524831461007a578063df29f96a14610084575b600080fd5b6100646100b4565b005b61006e610141565b005b6100786101ce565b005b6100826101d0565b005b61009e600480360381019061009991906104e2565b61025d565b6040516100ab9190610550565b60405180910390f35b60001515600160149054906101000a900460ff1615151461010a576040517f08c379a0000000000000000000000000000000000000000000000000000000008152600401610101906105c8565b60405180910390fd5b60018060146101000a81548160ff0219169083151502179055506000600160146101000a81548160ff021916908315150217905550565b60001515600160149054906101000a900460ff16151514610197576040517f08c379a000000000000000000000000000000000000000000000000000000000815260040161018e906105c8565b60405180910390fd5b60018060146101000a81548160ff0219169083151502179055506000600160146101000a81548160ff021916908315150217905550565b565b60001515600160149054906101000a900460ff16151514610226576040517f08c379a000000000000000000000000000000000000000000000000000000000815260040161021d906105c8565b60405180910390fd5b60018060146101000a81548160ff0219169083151502179055506000600160146101000a81548160ff021916908315150217905550565b6000801515600160149054906101000a900460ff161515146102b4576040517f08c379a00000000000000000000000000000000000000000000000000000000081526004016102ab906105c8565b60405180910390fd5b60018060146101000a81548160ff02191690831515021790555060006102db33868561043b565b600660009054906101000a900473ffffffffffffffffffffffffffffffffffffffff1673ffffffffffffffffffffffffffffffffffffffff1663a9059cbb600460009054906101000a900473ffffffffffffffffffffffffffffffffffffffff16856040518363ffffffff1660e01b815260040161035a929190610638565b602060405180830381600087803b15801561037457600080fd5b505af1158015610388573d6000803e3d6000fd5b505050506040513d601f19601f820116820180604052508101906103ac919061068d565b506103b833868661045c565b6103c433868686610461565b82853373ffffffffffffffffffffffffffffffffffffffff167fe5e90022a16efe318e3be758157c8b021ac46773ff87a62c8d88e9698c8d82a68760405161040c91906106c9565b60405180910390a460019150506000600160146101000a81548160ff0219169083151502179055509392505050565b61044482610467565b61044d8361046a565b610457828261046d565b505050565b505050565b50505050565b50565b50565b5050565b600080fd5b6000819050919050565b61048981610476565b811461049457600080fd5b50565b6000813590506104a681610480565b92915050565b6000819050919050565b6104bf816104ac565b81146104ca57600080fd5b50565b6000813590506104dc816104b6565b92915050565b6000806000606084860312156104fb576104fa610471565b5b600061050986828701610497565b935050602061051a86828701610497565b925050604061052b868287016104cd565b9150509250925092565b60008115159050919050565b61054a81610535565b82525050565b60006020820190506105656000830184610541565b92915050565b600082825260208201905092915050565b7f52652d656e7472616e7420616c65727421000000000000000000000000000000600082015250565b60006105b260118361056b565b91506105bd8261057c565b602082019050919050565b600060208201905081810360008301526105e1816105a5565b9050919050565b600073ffffffffffffffffffffffffffffffffffffffff82169050919050565b6000610613826105e8565b9050919050565b61062381610608565b82525050565b610632816104ac565b82525050565b600060408201905061064d600083018561061a565b61065a6020830184610629565b9392505050565b61066a81610535565b811461067557600080fd5b50565b60008151905061068781610661565b92915050565b6000602082840312156106a3576106a2610471565b5b60006106b184828501610678565b91505092915050565b6106c381610476565b82525050565b60006020820190506106de60008301846106ba565b9291505056fea2646970667358221220efc3d7aeb2917e34ab54aece2bcac8a6735864191b0969b1f22d30c61055ba7064736f6c63430008090033",
  "immutableReferences": {},
  "source": "// SPDX-License-Identifier: MIT\r\npragma solidity >=0.8.7 <0.9.0;\r\n\r\nimport \"./TokenList.sol\";\r\nimport \"./Passbook.sol\";\r\nimport \"./util/IBEP20.sol\";\r\nimport \"./Comptroller.sol\";\r\nimport \"./Reserve.sol\";\r\n\r\ncontract Deposit {\r\n\tbytes32 adminDeposit;\r\n\taddress adminDepositAddress;\r\n\r\n\tbool isReentrant = false;\r\n\r\n\tTokenList markets = TokenList(0x3E2884D9F6013Ac28b0323b81460f49FE8E5f401);\r\n\tComptroller comptroller = Comptroller(0x3E2884D9F6013Ac28b0323b81460f49FE8E5f401);\r\n\tReserve reserve;// = Reserve(0x3E2884D9F6013Ac28b0323b81460f49FE8E5f401);\r\n\tPassbook passbook;// = passbook(0x3E2884D9F6013Ac28b0323b81460f49FE8E5f401);\r\n\tIBEP20 token;\r\n\r\n\tevent NewDeposit(\r\n\t\taddress indexed account,\r\n\t\tbytes32 indexed market,\r\n\t\tbytes32 commmitment,\r\n\t\tuint256 indexed amount\r\n\t);\r\n\r\n\tconstructor() {\r\n\t\tadminDepositAddress = msg.sender;\r\n\t}\r\n\r\n\tfunction createDeposit(\r\n\t\tbytes32 market_,\r\n\t\tbytes32 commitment_,\r\n\t\tuint256 amount_\r\n\t) external nonReentrant returns (bool) {\r\n\t\taddress marketAddress;\r\n\t\t_preDepositProcess(msg.sender, market_, amount_);\r\n\t\ttoken.transfer(address(reserve), amount_);\r\n\r\n\t\t_updateYield(msg.sender, market_, commitment_);\r\n\t\t_processDeposit(msg.sender, market_, commitment_, amount_);\r\n\r\n\t\temit NewDeposit(msg.sender, market_, commitment_, amount_);\r\n\r\n\t\treturn true;\r\n\t}\r\n\r\n\tfunction savingsBalance() external {}\r\n\r\n\tfunction withdrawFunds() external nonReentrant {}\r\n\r\n\tfunction convertDeposit() external nonReentrant {}\r\n\r\n\tfunction convertYield() external nonReentrant {}\r\n\r\n\tfunction _preDepositProcess(\r\n\t\taddress account_,\r\n\t\tbytes32 market_,\r\n\t\tuint256 amount_\r\n\t) internal {\r\n\t\t_isMarketSupported(market_);\r\n\t\t_createSavingsAccount(account_);\r\n\t\t_connectMarket(market_, amount_);\r\n\t\t// return this;\r\n\t}\r\n\r\n\tfunction _createSavingsAccount(address account_) internal {\r\n\t\t// SavingsAcccount storage savingsAccount = passbook.savingsPassbook[account_];\r\n\r\n\t\t// if (savingsAccount.accOpenTime == 0) {\r\n\t\t// \tsavingsAccount.accOpenTime = block.timestamp;\r\n\t\t// \tsavingsAccount.account = account_;\r\n\t\t// }\r\n\t}\r\n\r\n\tfunction _isMarketSupported(bytes32 market_) internal {\r\n\t\t// require(!markets.tokenSupportCheck[market_] = false, \"Unsupported market\");\r\n\t}\r\n\r\n\tfunction _connectMarket(bytes32 market_, uint256 amount_) internal {\r\n\t\t// MarketData marketData = markets.indMarketData[market_];\r\n\t\t// marketAddress = marketData.tokenAddress;\r\n\t\t// token = IBEP20(marketAddress);\r\n\t\t// amount_ *= marketData.decimals;\r\n\t}\r\n\r\n\tfunction _updateYield(\r\n\t\taddress account_,\r\n\t\tbytes32 market_,\r\n\t\tbytes32 commitment_\r\n\t) internal {\r\n\t\t// Yield storage yield = passbook.indYieldRecords[account_][market_][\r\n\t\t// \tcommitment_\r\n\t\t// ];\r\n\t\t// DepositRecords storage deposit = passbook.indDepositRecord[account_][\r\n\t\t// \tmarket_\r\n\t\t// ][commitment_];\r\n\t\t// APY storage apy = comptroller.indAPYRecords[commitment_];\r\n\r\n\t\t// uint256 index = yield.oldLengthAccruedYield - 1;\r\n\t\t// uint256 blockNum = yield.oldBlockNum;\r\n\t\t// uint256 aggregateYield = yield.accruedYield;\r\n\r\n\t\t// if (apy.blockNumbers[index] < blockNum) {\r\n\t\t// \tuint256 newIndex = index + 1;\r\n\t\t// \taggregateYield +=\r\n\t\t// \t\t((apy.blockNumbers[newIndex] - blockNum) *\r\n\t\t// \t\t\tapy.apyChangeRecords[index]) /\r\n\t\t// \t\t100;\r\n\r\n\t\t// \tfor (uint256 i = newIndex; i < apy.apyChangeRecords.length; i++) {\r\n\t\t// \t\tuint256 blockDiff = apy.blockNumbers[i + 1] - apy.blockNumbers[i];\r\n\t\t// \t\taggregateYield += blockDiff**apy.apyChangeRecords[newIndex] / 100;\r\n\t\t// \t}\r\n\t\t// } else if (apy.blockNumbers[index] == blockNum) {\r\n\t\t// \tfor (uint256 i = index; i < apy.apyChangeRecords.length; i++) {\r\n\t\t// \t\tuint256 blockDiff = apy.blockNumbers[i + 1] - apy.blockNumbers[i];\r\n\t\t// \t\taggregateYield += blockDiff**apy.apyChangeRecords[index] / 100;\r\n\t\t// \t}\r\n\t\t// }\r\n\t\t// if (block.number > apy.blockNumbers[apy.blockNumbers.length - 1]) {\r\n\t\t// \taggregateYield +=\r\n\t\t// \t\t((block.Number - apy.blockNumbers[apy.blockNumbers.length - 1]) *\r\n\t\t// \t\t\tapy.apyChangeRecords[apy.blockNumbers.length - 1]) /\r\n\t\t// \t\t100;\r\n\t\t// }\r\n\t\t// yield.accruedYield += deposit.amount * aggregatedYield;\r\n\t\t// yield.oldLengthAccruedYield = apy.blockNumbers.length;\r\n\t\t// yield.oldBlockNum = block.number;\r\n\t}\r\n\r\n\tfunction _processDeposit(\r\n\t\taddress account_,\r\n\t\tbytes32 market_,\r\n\t\tbytes32 commitment_,\r\n\t\tuint256 amount_\r\n\t) internal {\r\n\t\t// DepositRecords storage deposit = passbook.indDepositRecord[account_][\r\n\t\t// \tmarket_\r\n\t\t// ][commitment__];\r\n\t\t// SavingsAccount storage savingsAccount = passbook.savingsPassbook[account_];\r\n\t\t// Yield storage yield = passbook.indYieldRecord[account_][market_][\r\n\t\t// \tcommitment_\r\n\t\t// ];\r\n\t\t// APY storage apy = comptroller.indAPYRecords[commitment_];\r\n\t\t// uint256 id;\r\n\r\n\t\t// if (deposit.firstDeposit == 0 && commitment_ != comptroller.commitment[0]) {\r\n\t\t// \tif (savingsAccount.deposits.length == 0) {\r\n\t\t// \t\tid = 1;\r\n\t\t// \t} else {\r\n\t\t// \t\tid = savingsAccount.deposits.length + 1;\r\n\t\t// \t}\r\n\r\n\t\t// \tdeposit = DepositRecords({\r\n\t\t// \t\tid: id,\r\n\t\t// \t\tfirstDeposit: block.number,\r\n\t\t// \t\tmarket_: market_,\r\n\t\t// \t\tcommitment_: commitment_,\r\n\t\t// \t\tamount_: amount_,\r\n\t\t// \t\tlastDeposit: block.number\r\n\t\t// \t});\r\n\r\n\t\t// \tsavingsAccount.deposits.push(deposit);\r\n\t\t// \tyield = Yield({\r\n\t\t// \t\tid: id,\r\n\t\t// \t\toldLengthAccruedYield: apy.blockNumbers.length,\r\n\t\t// \t\toldBlockNum: block.number,\r\n\t\t// \t\tmarket: market_,\r\n\t\t// \t\taccruedYield: 0,\r\n\t\t// \t\ttimelock: true,\r\n\t\t// \t\ttimelockValidity: 86400,\r\n\t\t// \t\ttimelockActivated: false,\r\n\t\t// \t\tactivatedBlockNum: 0\r\n\t\t// \t});\r\n\t\t// } else if (\r\n\t\t// \tdeposit.firstDeposit == 0 && commitment_ == comptroller.commitment[0]\r\n\t\t// ) {\r\n\t\t// \tif (savingsAccount.deposits.length == 0) {\r\n\t\t// \t\tid = 1;\r\n\t\t// \t} else {\r\n\t\t// \t\tid = savingsAccount.deposits.length + 1;\r\n\t\t// \t}\r\n\t\t// \tid = savingsAccount.deposits.length;\r\n\t\t// \tdeposit = DepositRecords({\r\n\t\t// \t\tid: id,\r\n\t\t// \t\tfirstDeposit: block.number,\r\n\t\t// \t\tmarket_: market_,\r\n\t\t// \t\tcommitment_: commitment_,\r\n\t\t// \t\tamount_: amount_,\r\n\t\t// \t\tlastDeposit: block.number\r\n\t\t// \t});\r\n\t\t// \tsavingsAccount.deposits.push(deposit);\r\n\t\t// \tyield = Yield({\r\n\t\t// \t\tid: id,\r\n\t\t// \t\toldLengthAccruedYield: apy.blockNumbers.length,\r\n\t\t// \t\toldBlockNum: block.number,\r\n\t\t// \t\tmarket: market_,\r\n\t\t// \t\taccruedYield: 0,\r\n\t\t// \t\ttimelock: false,\r\n\t\t// \t\ttimelockValidity: 0,\r\n\t\t// \t\ttimelockActivated: true,\r\n\t\t// \t\tactivatedBlockNum: 0\r\n\t\t// \t});\r\n\t\t// } else if (!deposit.firstDeposit = 0) {\r\n\t\t// \tdeposit.amount_ += amount_;\r\n\t\t// \tdeposit.lastDeposit = block.number;\r\n\t\t// \tsavingsAccount.deposits[deposit.id].amount += amount_;\r\n\t\t// \tsavingsAccount.deposits[deposit.id].lastDeposit += block.number;\r\n\t\t// }\r\n\t}\r\n\r\n\tmodifier nonReentrant() {\r\n\t\trequire(isReentrant == false, \"Re-entrant alert!\");\r\n\t\tisReentrant = true;\r\n\t\t_;\r\n\t\tisReentrant = false;\r\n\t}\r\n\r\n\tmodifier authDeposit() {\r\n\t\trequire(\r\n\t\t\tmsg.sender == adminDepositAddress,\r\n\t\t\t\"Only an admin can call this function\"\r\n\t\t);\r\n\t\t_;\r\n\t}\r\n}\r\n",
  "sourcePath": "F:\\workspace\\Open-protocol\\contracts\\Deposit.sol",
  "compiler": {
    "name": "solc",
    "version": "0.8.9+commit.e5eed63a.Emscripten.clang"
  },
  "schemaVersion": "3.4.3",
  "updatedAt": "2021-09-30T01:03:14.729Z",
  "devdoc": {
    "kind": "dev",
    "methods": {},
    "version": 1
  },
  "userdoc": {
    "kind": "user",
    "methods": {},
    "version": 1
  }
}