{
  "contractName": "Deposit",
  "abi": [
    {
      "inputs": [
        {
          "internalType": "address",
          "name": "superAdminAddr_",
          "type": "address"
        },
        {
          "internalType": "address",
          "name": "tokenListAddr_",
          "type": "address"
        },
        {
          "internalType": "address",
          "name": "comptrollerAddr_",
          "type": "address"
        }
      ],
      "stateMutability": "nonpayable",
      "type": "constructor"
    },
    {
      "anonymous": false,
      "inputs": [
        {
          "indexed": true,
          "internalType": "address",
          "name": "account",
          "type": "address"
        },
        {
          "indexed": true,
          "internalType": "bytes32",
          "name": "market",
          "type": "bytes32"
        },
        {
          "indexed": false,
          "internalType": "bytes32",
          "name": "commmitment",
          "type": "bytes32"
        },
        {
          "indexed": true,
          "internalType": "uint256",
          "name": "amount",
          "type": "uint256"
        }
      ],
      "name": "NewDeposit",
      "type": "event"
    },
    {
      "anonymous": false,
      "inputs": [
        {
          "indexed": true,
          "internalType": "address",
          "name": "account",
          "type": "address"
        },
        {
          "indexed": true,
          "internalType": "bytes32",
          "name": "market",
          "type": "bytes32"
        },
        {
          "indexed": true,
          "internalType": "uint256",
          "name": "amount",
          "type": "uint256"
        },
        {
          "indexed": false,
          "internalType": "bytes32",
          "name": "commitment",
          "type": "bytes32"
        },
        {
          "indexed": false,
          "internalType": "uint256",
          "name": "timestamp",
          "type": "uint256"
        }
      ],
      "name": "Withdrawal",
      "type": "event"
    },
    {
      "anonymous": false,
      "inputs": [
        {
          "indexed": true,
          "internalType": "address",
          "name": "account",
          "type": "address"
        },
        {
          "indexed": true,
          "internalType": "bytes32",
          "name": "market",
          "type": "bytes32"
        },
        {
          "indexed": false,
          "internalType": "bytes32",
          "name": "commmitment",
          "type": "bytes32"
        },
        {
          "indexed": true,
          "internalType": "uint256",
          "name": "amount",
          "type": "uint256"
        }
      ],
      "name": "YieldDeposited",
      "type": "event"
    },
    {
      "inputs": [
        {
          "internalType": "address",
          "name": "_account",
          "type": "address"
        }
      ],
      "name": "hasAccount",
      "outputs": [
        {
          "internalType": "bool",
          "name": "",
          "type": "bool"
        }
      ],
      "stateMutability": "view",
      "type": "function"
    },
    {
      "inputs": [
        {
          "internalType": "bytes32",
          "name": "_market",
          "type": "bytes32"
        },
        {
          "internalType": "bytes32",
          "name": "_commitment",
          "type": "bytes32"
        }
      ],
      "name": "savingsBalance",
      "outputs": [
        {
          "internalType": "uint256",
          "name": "",
          "type": "uint256"
        }
      ],
      "stateMutability": "nonpayable",
      "type": "function"
    },
    {
      "inputs": [
        {
          "internalType": "bytes32",
          "name": "_market",
          "type": "bytes32"
        },
        {
          "internalType": "bytes32",
          "name": "_commitment",
          "type": "bytes32"
        }
      ],
      "name": "convertYield",
      "outputs": [
        {
          "internalType": "bool",
          "name": "success",
          "type": "bool"
        }
      ],
      "stateMutability": "nonpayable",
      "type": "function"
    },
    {
      "inputs": [
        {
          "internalType": "bytes32",
          "name": "_market",
          "type": "bytes32"
        },
        {
          "internalType": "bytes32",
          "name": "_commitment",
          "type": "bytes32"
        }
      ],
      "name": "hasYield",
      "outputs": [
        {
          "internalType": "bool",
          "name": "",
          "type": "bool"
        }
      ],
      "stateMutability": "view",
      "type": "function"
    },
    {
      "inputs": [
        {
          "internalType": "bytes32",
          "name": "_market",
          "type": "bytes32"
        }
      ],
      "name": "avblReserves",
      "outputs": [
        {
          "internalType": "uint256",
          "name": "",
          "type": "uint256"
        }
      ],
      "stateMutability": "view",
      "type": "function"
    },
    {
      "inputs": [
        {
          "internalType": "bytes32",
          "name": "_market",
          "type": "bytes32"
        }
      ],
      "name": "utilisedReserves",
      "outputs": [
        {
          "internalType": "uint256",
          "name": "",
          "type": "uint256"
        }
      ],
      "stateMutability": "view",
      "type": "function"
    },
    {
      "inputs": [
        {
          "internalType": "bytes32",
          "name": "_market",
          "type": "bytes32"
        },
        {
          "internalType": "bytes32",
          "name": "_commitment",
          "type": "bytes32"
        },
        {
          "internalType": "uint256",
          "name": "_amount",
          "type": "uint256"
        }
      ],
      "name": "createDeposit",
      "outputs": [
        {
          "internalType": "bool",
          "name": "success",
          "type": "bool"
        }
      ],
      "stateMutability": "nonpayable",
      "type": "function"
    },
    {
      "inputs": [
        {
          "internalType": "bytes32",
          "name": "_market",
          "type": "bytes32"
        },
        {
          "internalType": "bytes32",
          "name": "_commitment",
          "type": "bytes32"
        },
        {
          "internalType": "uint256",
          "name": "_amount",
          "type": "uint256"
        },
        {
          "internalType": "enum Deposit.BALANCETYPE",
          "name": "_request",
          "type": "uint8"
        }
      ],
      "name": "withdrawDeposit",
      "outputs": [
        {
          "internalType": "bool",
          "name": "",
          "type": "bool"
        }
      ],
      "stateMutability": "nonpayable",
      "type": "function"
    },
    {
      "inputs": [
        {
          "internalType": "address",
          "name": "reserveAddr_",
          "type": "address"
        }
      ],
      "name": "setReserveAddress",
      "outputs": [],
      "stateMutability": "nonpayable",
      "type": "function"
    }
  ],
  "bytecode": "0x60806040526000600560146101000a81548160ff0219169083151502179055503480156200002c57600080fd5b50604051620037eb380380620037eb8339818101604052810190620000529190620001c9565b82600260006101000a81548173ffffffffffffffffffffffffffffffffffffffff021916908373ffffffffffffffffffffffffffffffffffffffff16021790555033600160006101000a81548173ffffffffffffffffffffffffffffffffffffffff021916908373ffffffffffffffffffffffffffffffffffffffff16021790555081600460006101000a81548173ffffffffffffffffffffffffffffffffffffffff021916908373ffffffffffffffffffffffffffffffffffffffff16021790555080600560006101000a81548173ffffffffffffffffffffffffffffffffffffffff021916908373ffffffffffffffffffffffffffffffffffffffff16021790555050505062000225565b600080fd5b600073ffffffffffffffffffffffffffffffffffffffff82169050919050565b6000620001918262000164565b9050919050565b620001a38162000184565b8114620001af57600080fd5b50565b600081519050620001c38162000198565b92915050565b600080600060608486031215620001e557620001e46200015f565b5b6000620001f586828701620001b2565b93505060206200020886828701620001b2565b92505060406200021b86828701620001b2565b9150509250925092565b6135b680620002356000396000f3fe608060405234801561001057600080fd5b50600436106100935760003560e01c80634776119b116100665780634776119b146101445780634b67be51146101745780638f5e9b53146101a4578063c8e40fbf146101d4578063df29f96a1461020457610093565b806302fce1951461009857806314673d31146100c8578063157c71e2146100e457806346a8d93b14610114575b600080fd5b6100b260048036038101906100ad9190612bf4565b610234565b6040516100bf9190612c3a565b60405180910390f35b6100e260048036038101906100dd9190612cb3565b610246565b005b6100fe60048036038101906100f99190612bf4565b61031a565b60405161010b9190612c3a565b60405180910390f35b61012e60048036038101906101299190612ce0565b61032c565b60405161013b9190612d3b565b60405180910390f35b61015e60048036038101906101599190612ce0565b61041f565b60405161016b9190612c3a565b60405180910390f35b61018e60048036038101906101899190612da7565b610436565b60405161019b9190612d3b565b60405180910390f35b6101be60048036038101906101b99190612ce0565b61052e565b6040516101cb9190612d3b565b60405180910390f35b6101ee60048036038101906101e99190612cb3565b6105a8565b6040516101fb9190612d3b565b60405180910390f35b61021e60048036038101906102199190612e0e565b6105bc565b60405161022b9190612d3b565b60405180910390f35b600061023f826106ab565b9050919050565b600160009054906101000a900473ffffffffffffffffffffffffffffffffffffffff1673ffffffffffffffffffffffffffffffffffffffff163373ffffffffffffffffffffffffffffffffffffffff16146102d6576040517f08c379a00000000000000000000000000000000000000000000000000000000081526004016102cd90612ee4565b60405180910390fd5b80600360006101000a81548173ffffffffffffffffffffffffffffffffffffffff021916908373ffffffffffffffffffffffffffffffffffffffff16021790555050565b6000610325826106c8565b9050919050565b6000801515600560149054906101000a900460ff16151514610383576040517f08c379a000000000000000000000000000000000000000000000000000000000815260040161037a90612f50565b60405180910390fd5b6001600560146101000a81548160ff02191690831515021790555060006103ab3385856106e5565b905080843373ffffffffffffffffffffffffffffffffffffffff167f518b80a2da6eadc33bf03797e1c2a5d7087d6bc2e6e960e1852526b8d0f3b4fa866040516103f59190612f7f565b60405180910390a4506000600560146101000a81548160ff02191690831515021790555092915050565b600061042e338484600261091c565b905092915050565b6000801515600560149054906101000a900460ff1615151461048d576040517f08c379a000000000000000000000000000000000000000000000000000000000815260040161048490612f50565b60405180910390fd5b6001600560146101000a81548160ff0219169083151502179055506104b53386868686610ac4565b82853373ffffffffffffffffffffffffffffffffffffffff167f2cf34188b50ffe4cba3e004169d7725c886f53474a39abef02a2aa6ac93ac35687426040516104ff929190612f9a565b60405180910390a4600190506000600560146101000a81548160ff021916908315150217905550949350505050565b600080600860003373ffffffffffffffffffffffffffffffffffffffff1673ffffffffffffffffffffffffffffffffffffffff16815260200190815260200160002060008581526020019081526020016000206000848152602001908152602001600020905061059d81610e2d565b600191505092915050565b60006105b382610e78565b60019050919050565b6000801515600560149054906101000a900460ff16151514610613576040517f08c379a000000000000000000000000000000000000000000000000000000000815260040161060a90612f50565b60405180910390fd5b6001600560146101000a81548160ff021916908315150217905550610639848484610f01565b81843373ffffffffffffffffffffffffffffffffffffffff167fe5e90022a16efe318e3be758157c8b021ac46773ff87a62c8d88e9698c8d82a6866040516106819190612f7f565b60405180910390a46000600560146101000a81548160ff0219169083151502179055509392505050565b6000600b6000838152602001908152602001600020549050919050565b6000600a6000838152602001908152602001600020549050919050565b60006106f084610e78565b600080600760003373ffffffffffffffffffffffffffffffffffffffff1673ffffffffffffffffffffffffffffffffffffffff16815260200190815260200160002090506000600860003373ffffffffffffffffffffffffffffffffffffffff1673ffffffffffffffffffffffffffffffffffffffff1681526020019081526020016000206000878152602001908152602001600020600086815260200190815260200160002090506000600960003373ffffffffffffffffffffffffffffffffffffffff1673ffffffffffffffffffffffffffffffffffffffff16815260200190815260200160002060008881526020019081526020016000206000878152602001908152602001600020905061080782610e2d565b610812888888611040565b8060040154935060008160040181905550838260030160008282546108379190612ff2565b9250508190555042826004018190555083836002016001846000015461085d9190613048565b8154811061086e5761086d61307c565b5b9060005260206000209060050201600301600082825461088e9190612ff2565b925050819055504283600201600184600001546108ab9190613048565b815481106108bc576108bb61307c565b5b906000526020600020906005020160040181905550600083600301600184600001546108e89190613048565b815481106108f9576108f861307c565b5b906000526020600020906008020160040181905550839450505050509392505050565b6000806000600860008873ffffffffffffffffffffffffffffffffffffffff1673ffffffffffffffffffffffffffffffffffffffff1681526020019081526020016000206000878152602001908152602001600020600086815260200190815260200160002090506000600960008973ffffffffffffffffffffffffffffffffffffffff1673ffffffffffffffffffffffffffffffffffffffff168152602001908152602001600020600088815260200190815260200160002060008781526020019081526020016000209050600060028111156109fd576109fc6130ab565b5b856002811115610a1057610a0f6130ab565b5b1415610a225781600301549250610ab6565b60016002811115610a3657610a356130ab565b5b856002811115610a4957610a486130ab565b5b1415610a6657610a5a338888611040565b80600401549250610ab5565b600280811115610a7957610a786130ab565b5b856002811115610a8c57610a8b6130ab565b5b1415610ab457610a9d338888611040565b80600401548260030154610ab19190612ff2565b92505b5b5b829350505050949350505050565b610acd85610e78565b600460009054906101000a900473ffffffffffffffffffffffffffffffffffffffff1673ffffffffffffffffffffffffffffffffffffffff166378f504f9856040518263ffffffff1660e01b8152600401610b289190612f7f565b60206040518083038186803b158015610b4057600080fd5b505afa158015610b54573d6000803e3d6000fd5b505050506040513d601f19601f82011682018060405250810190610b789190613106565b50610b84338585611040565b6000610b928686868561091c565b905080831015610bd7576040517f08c379a0000000000000000000000000000000000000000000000000000000008152600401610bce9061317f565b60405180910390fd5b600560009054906101000a900473ffffffffffffffffffffffffffffffffffffffff1673ffffffffffffffffffffffffffffffffffffffff166369bcdb7d60006040518263ffffffff1660e01b8152600401610c3391906131e4565b60206040518083038186803b158015610c4b57600080fd5b505afa158015610c5f573d6000803e3d6000fd5b505050506040513d601f19601f82011682018060405250810190610c839190613214565b841415610c9857610c978686868686611fd3565b5b600460009054906101000a900473ffffffffffffffffffffffffffffffffffffffff1673ffffffffffffffffffffffffffffffffffffffff16639bb5a57886600660009054906101000a900473ffffffffffffffffffffffffffffffffffffffff166040518363ffffffff1660e01b8152600401610d17929190613296565b60006040518083038186803b158015610d2f57600080fd5b505afa158015610d43573d6000803e3d6000fd5b50505050600660009054906101000a900473ffffffffffffffffffffffffffffffffffffffff1673ffffffffffffffffffffffffffffffffffffffff1663a9059cbb600360009054906101000a900473ffffffffffffffffffffffffffffffffffffffff16856040518363ffffffff1660e01b8152600401610dc69291906132ce565b602060405180830381600087803b158015610de057600080fd5b505af1158015610df4573d6000803e3d6000fd5b505050506040513d601f19601f82011682018060405250810190610e189190613106565b50610e258584600161233b565b505050505050565b600081600001541415610e75576040517f08c379a0000000000000000000000000000000000000000000000000000000008152600401610e6c90613343565b60405180910390fd5b50565b6000600760008373ffffffffffffffffffffffffffffffffffffffff1673ffffffffffffffffffffffffffffffffffffffff168152602001908152602001600020600001541415610efe576040517f08c379a0000000000000000000000000000000000000000000000000000000008152600401610ef5906133af565b60405180910390fd5b50565b6000600760003373ffffffffffffffffffffffffffffffffffffffff1673ffffffffffffffffffffffffffffffffffffffff1681526020019081526020016000209050610f50338584846123ad565b600660009054906101000a900473ffffffffffffffffffffffffffffffffffffffff1673ffffffffffffffffffffffffffffffffffffffff1663a9059cbb600360009054906101000a900473ffffffffffffffffffffffffffffffffffffffff16846040518363ffffffff1660e01b8152600401610fcf9291906132ce565b602060405180830381600087803b158015610fe957600080fd5b505af1158015610ffd573d6000803e3d6000fd5b505050506040513d601f19601f820116820180604052508101906110219190613106565b5061102e338585856125a5565b61103a8483600061233b565b50505050565b6000600960008573ffffffffffffffffffffffffffffffffffffffff1673ffffffffffffffffffffffffffffffffffffffff1681526020019081526020016000206000848152602001908152602001600020600083815260200190815260200160002090506000600860008673ffffffffffffffffffffffffffffffffffffffff1673ffffffffffffffffffffffffffffffffffffffff16815260200190815260200160002060008581526020019081526020016000206000848152602001908152602001600020905060006001836002015461111d9190613048565b90506000836003015490506000846004015490508460020154600560009054906101000a900473ffffffffffffffffffffffffffffffffffffffff1673ffffffffffffffffffffffffffffffffffffffff1663999fc850886040518263ffffffff1660e01b81526004016111919190612f7f565b60206040518083038186803b1580156111a957600080fd5b505afa1580156111bd573d6000803e3d6000fd5b505050506040513d601f19601f820116820180604052508101906111e191906133e4565b1115611d4f5781600560009054906101000a900473ffffffffffffffffffffffffffffffffffffffff1673ffffffffffffffffffffffffffffffffffffffff1663f5051f7b88866040518363ffffffff1660e01b8152600401611245929190612f9a565b60206040518083038186803b15801561125d57600080fd5b505afa158015611271573d6000803e3d6000fd5b505050506040513d601f19601f8201168201806040525081019061129591906133e4565b101561174c5760006001846112aa9190612ff2565b90506064600560009054906101000a900473ffffffffffffffffffffffffffffffffffffffff1673ffffffffffffffffffffffffffffffffffffffff166374ef191189876040518363ffffffff1660e01b815260040161130b929190612f9a565b60206040518083038186803b15801561132357600080fd5b505afa158015611337573d6000803e3d6000fd5b505050506040513d601f19601f8201168201806040525081019061135b91906133e4565b84600560009054906101000a900473ffffffffffffffffffffffffffffffffffffffff1673ffffffffffffffffffffffffffffffffffffffff1663f5051f7b8b866040518363ffffffff1660e01b81526004016113b9929190612f9a565b60206040518083038186803b1580156113d157600080fd5b505afa1580156113e5573d6000803e3d6000fd5b505050506040513d601f19601f8201168201806040525081019061140991906133e4565b6114139190613048565b61141d9190613411565b611427919061349a565b826114329190612ff2565b915060008190505b600560009054906101000a900473ffffffffffffffffffffffffffffffffffffffff1673ffffffffffffffffffffffffffffffffffffffff1663999fc850896040518263ffffffff1660e01b81526004016114959190612f7f565b60206040518083038186803b1580156114ad57600080fd5b505afa1580156114c1573d6000803e3d6000fd5b505050506040513d601f19601f820116820180604052508101906114e591906133e4565b811015611745576000600560009054906101000a900473ffffffffffffffffffffffffffffffffffffffff1673ffffffffffffffffffffffffffffffffffffffff1663f5051f7b8a846040518363ffffffff1660e01b815260040161154b929190612f9a565b60206040518083038186803b15801561156357600080fd5b505afa158015611577573d6000803e3d6000fd5b505050506040513d601f19601f8201168201806040525081019061159b91906133e4565b600560009054906101000a900473ffffffffffffffffffffffffffffffffffffffff1673ffffffffffffffffffffffffffffffffffffffff1663f5051f7b8b6001866115e79190612ff2565b6040518363ffffffff1660e01b8152600401611604929190612f9a565b60206040518083038186803b15801561161c57600080fd5b505afa158015611630573d6000803e3d6000fd5b505050506040513d601f19601f8201168201806040525081019061165491906133e4565b61165e9190613048565b90506064600560009054906101000a900473ffffffffffffffffffffffffffffffffffffffff1673ffffffffffffffffffffffffffffffffffffffff166374ef19118b866040518363ffffffff1660e01b81526004016116bf929190612f9a565b60206040518083038186803b1580156116d757600080fd5b505afa1580156116eb573d6000803e3d6000fd5b505050506040513d601f19601f8201168201806040525081019061170f91906133e4565b8261171a9190613411565b611724919061349a565b8461172f9190612ff2565b935050808061173d906134cb565b91505061143a565b5050611b14565b81600560009054906101000a900473ffffffffffffffffffffffffffffffffffffffff1673ffffffffffffffffffffffffffffffffffffffff1663f5051f7b88866040518363ffffffff1660e01b81526004016117aa929190612f9a565b60206040518083038186803b1580156117c257600080fd5b505afa1580156117d6573d6000803e3d6000fd5b505050506040513d601f19601f820116820180604052508101906117fa91906133e4565b1415611b135760008390505b600560009054906101000a900473ffffffffffffffffffffffffffffffffffffffff1673ffffffffffffffffffffffffffffffffffffffff1663999fc850886040518263ffffffff1660e01b81526004016118619190612f7f565b60206040518083038186803b15801561187957600080fd5b505afa15801561188d573d6000803e3d6000fd5b505050506040513d601f19601f820116820180604052508101906118b191906133e4565b811015611b11576000600560009054906101000a900473ffffffffffffffffffffffffffffffffffffffff1673ffffffffffffffffffffffffffffffffffffffff1663f5051f7b89846040518363ffffffff1660e01b8152600401611917929190612f9a565b60206040518083038186803b15801561192f57600080fd5b505afa158015611943573d6000803e3d6000fd5b505050506040513d601f19601f8201168201806040525081019061196791906133e4565b600560009054906101000a900473ffffffffffffffffffffffffffffffffffffffff1673ffffffffffffffffffffffffffffffffffffffff1663f5051f7b8a6001866119b39190612ff2565b6040518363ffffffff1660e01b81526004016119d0929190612f9a565b60206040518083038186803b1580156119e857600080fd5b505afa1580156119fc573d6000803e3d6000fd5b505050506040513d601f19601f82011682018060405250810190611a2091906133e4565b611a2a9190613048565b90506064600560009054906101000a900473ffffffffffffffffffffffffffffffffffffffff1673ffffffffffffffffffffffffffffffffffffffff166374ef19118a886040518363ffffffff1660e01b8152600401611a8b929190612f9a565b60206040518083038186803b158015611aa357600080fd5b505afa158015611ab7573d6000803e3d6000fd5b505050506040513d601f19601f82011682018060405250810190611adb91906133e4565b82611ae69190613411565b611af0919061349a565b83611afb9190612ff2565b9250508080611b09906134cb565b915050611806565b505b5b600560009054906101000a900473ffffffffffffffffffffffffffffffffffffffff1673ffffffffffffffffffffffffffffffffffffffff16633278182f876040518263ffffffff1660e01b8152600401611b6f9190612f7f565b60206040518083038186803b158015611b8757600080fd5b505afa158015611b9b573d6000803e3d6000fd5b505050506040513d601f19601f82011682018060405250810190611bbf91906133e4565b4210611d4a576064600560009054906101000a900473ffffffffffffffffffffffffffffffffffffffff1673ffffffffffffffffffffffffffffffffffffffff166303e80d48886040518263ffffffff1660e01b8152600401611c229190612f7f565b60206040518083038186803b158015611c3a57600080fd5b505afa158015611c4e573d6000803e3d6000fd5b505050506040513d601f19601f82011682018060405250810190611c7291906133e4565b600560009054906101000a900473ffffffffffffffffffffffffffffffffffffffff1673ffffffffffffffffffffffffffffffffffffffff16633278182f896040518263ffffffff1660e01b8152600401611ccd9190612f7f565b60206040518083038186803b158015611ce557600080fd5b505afa158015611cf9573d6000803e3d6000fd5b505050506040513d601f19601f82011682018060405250810190611d1d91906133e4565b42611d289190613048565b611d329190613411565b611d3c919061349a565b81611d479190612ff2565b90505b611ee3565b8460020154600560009054906101000a900473ffffffffffffffffffffffffffffffffffffffff1673ffffffffffffffffffffffffffffffffffffffff1663999fc850886040518263ffffffff1660e01b8152600401611daf9190612f7f565b60206040518083038186803b158015611dc757600080fd5b505afa158015611ddb573d6000803e3d6000fd5b505050506040513d601f19601f82011682018060405250810190611dff91906133e4565b1415611ee2576064600560009054906101000a900473ffffffffffffffffffffffffffffffffffffffff1673ffffffffffffffffffffffffffffffffffffffff166374ef191188866040518363ffffffff1660e01b8152600401611e64929190612f9a565b60206040518083038186803b158015611e7c57600080fd5b505afa158015611e90573d6000803e3d6000fd5b505050506040513d601f19601f82011682018060405250810190611eb491906133e4565b8342611ec09190613048565b611eca9190613411565b611ed4919061349a565b81611edf9190612ff2565b90505b5b808460030154611ef39190613411565b856004016000828254611f069190612ff2565b92505081905550600560009054906101000a900473ffffffffffffffffffffffffffffffffffffffff1673ffffffffffffffffffffffffffffffffffffffff1663844458e2876040518263ffffffff1660e01b8152600401611f689190612f7f565b60206040518083038186803b158015611f8057600080fd5b505afa158015611f94573d6000803e3d6000fd5b505050506040513d601f19601f82011682018060405250810190611fb891906133e4565b85600201819055504385600301819055505050505050505050565b6000600860008773ffffffffffffffffffffffffffffffffffffffff1673ffffffffffffffffffffffffffffffffffffffff1681526020019081526020016000206000868152602001908152602001600020600085815260200190815260200160002090506000600960008873ffffffffffffffffffffffffffffffffffffffff1673ffffffffffffffffffffffffffffffffffffffff168152602001908152602001600020600087815260200190815260200160002060008681526020019081526020016000209050600060028111156120b1576120b06130ab565b5b8360028111156120c4576120c36130ab565b5b14156120f357838260030160008282546120de9190613048565b92505081905550428260040181905550612332565b60016002811115612107576121066130ab565b5b83600281111561211a576121196130ab565b5b141561220257600015158160050160009054906101000a900460ff16151514806121575750806006015481600701546121539190612ff2565b4210155b1561218557838160040160008282546121709190613048565b925050819055504281600301819055506121fd565b600015158160050160009054906101000a900460ff1615151415806121bc5750806006015481600701546121b99190612ff2565b42105b156121fc576040517f08c379a00000000000000000000000000000000000000000000000000000000081526004016121f390613560565b60405180910390fd5b5b612331565b600280811115612215576122146130ab565b5b836002811115612228576122276130ab565b5b141561233057600015158160050160009054906101000a900460ff16151514806122655750806006015481600701546122619190612ff2565b4210155b15612293578381600401600082825461227e9190613048565b9250508190555042816003018190555061230b565b600015158160050160009054906101000a900460ff1615151415806122ca5750806006015481600701546122c79190612ff2565b42105b1561230a576040517f08c379a000000000000000000000000000000000000000000000000000000000815260040161230190613560565b60405180910390fd5b5b8382600301600082825461231f9190613048565b925050819055504282600401819055505b5b5b50505050505050565b60008114156123735781600a600085815260200190815260200160002060008282546123679190612ff2565b925050819055506123a8565b60018114156123a75781600a6000858152602001908152602001600020600082825461239f9190613048565b925050819055505b5b505050565b600460009054906101000a900473ffffffffffffffffffffffffffffffffffffffff1673ffffffffffffffffffffffffffffffffffffffff166378f504f9846040518263ffffffff1660e01b81526004016124089190612f7f565b60206040518083038186803b15801561242057600080fd5b505afa158015612434573d6000803e3d6000fd5b505050506040513d601f19601f820116820180604052508101906124589190613106565b506124638482612b5b565b600460009054906101000a900473ffffffffffffffffffffffffffffffffffffffff1673ffffffffffffffffffffffffffffffffffffffff16639bb5a57884600660009054906101000a900473ffffffffffffffffffffffffffffffffffffffff166040518363ffffffff1660e01b81526004016124e2929190613296565b60006040518083038186803b1580156124fa57600080fd5b505afa15801561250e573d6000803e3d6000fd5b50505050600460009054906101000a900473ffffffffffffffffffffffffffffffffffffffff1673ffffffffffffffffffffffffffffffffffffffff1663fafb502884846040518363ffffffff1660e01b815260040161256f929190612f9a565b60006040518083038186803b15801561258757600080fd5b505afa15801561259b573d6000803e3d6000fd5b5050505050505050565b6000600760008673ffffffffffffffffffffffffffffffffffffffff1673ffffffffffffffffffffffffffffffffffffffff16815260200190815260200160002090506000600860008773ffffffffffffffffffffffffffffffffffffffff1673ffffffffffffffffffffffffffffffffffffffff1681526020019081526020016000206000868152602001908152602001600020600085815260200190815260200160002090506000600960008873ffffffffffffffffffffffffffffffffffffffff1673ffffffffffffffffffffffffffffffffffffffff168152602001908152602001600020600087815260200190815260200160002060008681526020019081526020016000209050600080846002018054905014156126cc57600190506126e3565b600184600201805490506126e09190612ff2565b90505b83600201846002018054905081548110612700576126ff61307c565b5b90600052602060002090600502019250808360000181905550868360010181905550858360020181905550848360030181905550428360040181905550600560009054906101000a900473ffffffffffffffffffffffffffffffffffffffff1673ffffffffffffffffffffffffffffffffffffffff166369bcdb7d60006040518263ffffffff1660e01b815260040161279991906131e4565b60206040518083038186803b1580156127b157600080fd5b505afa1580156127c5573d6000803e3d6000fd5b505050506040513d601f19601f820116820180604052508101906127e99190613214565b8614612949578360030184600301805490508154811061280c5761280b61307c565b5b90600052602060002090600802019150808260000181905550868260010181905550600560009054906101000a900473ffffffffffffffffffffffffffffffffffffffff1673ffffffffffffffffffffffffffffffffffffffff1663844458e2876040518263ffffffff1660e01b81526004016128899190612f7f565b60206040518083038186803b1580156128a157600080fd5b505afa1580156128b5573d6000803e3d6000fd5b505050506040513d601f19601f820116820180604052508101906128d991906133e4565b82600201819055504282600301819055506000826004018190555060018260050160006101000a81548160ff02191690831515021790555060008260050160016101000a81548160ff02191690831515021790555062015180826006018190555060008260070181905550612b51565b600560009054906101000a900473ffffffffffffffffffffffffffffffffffffffff1673ffffffffffffffffffffffffffffffffffffffff166369bcdb7d60006040518263ffffffff1660e01b81526004016129a591906131e4565b60206040518083038186803b1580156129bd57600080fd5b505afa1580156129d1573d6000803e3d6000fd5b505050506040513d601f19601f820116820180604052508101906129f59190613214565b861415612b505783600301846003018054905081548110612a1957612a1861307c565b5b90600052602060002090600802019150808260000181905550868260010181905550600560009054906101000a900473ffffffffffffffffffffffffffffffffffffffff1673ffffffffffffffffffffffffffffffffffffffff1663844458e2876040518263ffffffff1660e01b8152600401612a969190612f7f565b60206040518083038186803b158015612aae57600080fd5b505afa158015612ac2573d6000803e3d6000fd5b505050506040513d601f19601f82011682018060405250810190612ae691906133e4565b82600201819055504282600301819055506000826004018190555060008260050160006101000a81548160ff02191690831515021790555060018260050160016101000a81548160ff02191690831515021790555060008260060181905550600082600701819055505b5b5050505050505050565b600081600001541415612bb557428160000181905550818160010160006101000a81548173ffffffffffffffffffffffffffffffffffffffff021916908373ffffffffffffffffffffffffffffffffffffffff1602179055505b5050565b600080fd5b6000819050919050565b612bd181612bbe565b8114612bdc57600080fd5b50565b600081359050612bee81612bc8565b92915050565b600060208284031215612c0a57612c09612bb9565b5b6000612c1884828501612bdf565b91505092915050565b6000819050919050565b612c3481612c21565b82525050565b6000602082019050612c4f6000830184612c2b565b92915050565b600073ffffffffffffffffffffffffffffffffffffffff82169050919050565b6000612c8082612c55565b9050919050565b612c9081612c75565b8114612c9b57600080fd5b50565b600081359050612cad81612c87565b92915050565b600060208284031215612cc957612cc8612bb9565b5b6000612cd784828501612c9e565b91505092915050565b60008060408385031215612cf757612cf6612bb9565b5b6000612d0585828601612bdf565b9250506020612d1685828601612bdf565b9150509250929050565b60008115159050919050565b612d3581612d20565b82525050565b6000602082019050612d506000830184612d2c565b92915050565b612d5f81612c21565b8114612d6a57600080fd5b50565b600081359050612d7c81612d56565b92915050565b60038110612d8f57600080fd5b50565b600081359050612da181612d82565b92915050565b60008060008060808587031215612dc157612dc0612bb9565b5b6000612dcf87828801612bdf565b9450506020612de087828801612bdf565b9350506040612df187828801612d6d565b9250506060612e0287828801612d92565b91505092959194509250565b600080600060608486031215612e2757612e26612bb9565b5b6000612e3586828701612bdf565b9350506020612e4686828701612bdf565b9250506040612e5786828701612d6d565b9150509250925092565b600082825260208201905092915050565b7f4f6e6c7920616e2061646d696e2063616e2063616c6c20746869732066756e6360008201527f74696f6e00000000000000000000000000000000000000000000000000000000602082015250565b6000612ece602483612e61565b9150612ed982612e72565b604082019050919050565b60006020820190508181036000830152612efd81612ec1565b9050919050565b7f52652d656e7472616e7420616c65727421000000000000000000000000000000600082015250565b6000612f3a601183612e61565b9150612f4582612f04565b602082019050919050565b60006020820190508181036000830152612f6981612f2d565b9050919050565b612f7981612bbe565b82525050565b6000602082019050612f946000830184612f70565b92915050565b6000604082019050612faf6000830185612f70565b612fbc6020830184612c2b565b9392505050565b7f4e487b7100000000000000000000000000000000000000000000000000000000600052601160045260246000fd5b6000612ffd82612c21565b915061300883612c21565b9250827fffffffffffffffffffffffffffffffffffffffffffffffffffffffffffffffff0382111561303d5761303c612fc3565b5b828201905092915050565b600061305382612c21565b915061305e83612c21565b92508282101561307157613070612fc3565b5b828203905092915050565b7f4e487b7100000000000000000000000000000000000000000000000000000000600052603260045260246000fd5b7f4e487b7100000000000000000000000000000000000000000000000000000000600052602160045260246000fd5b6130e381612d20565b81146130ee57600080fd5b50565b600081519050613100816130da565b92915050565b60006020828403121561311c5761311b612bb9565b5b600061312a848285016130f1565b91505092915050565b7f496e73756666696369656e742062616c616e6365000000000000000000000000600082015250565b6000613169601483612e61565b915061317482613133565b602082019050919050565b600060208201905081810360008301526131988161315c565b9050919050565b6000819050919050565b6000819050919050565b60006131ce6131c96131c48461319f565b6131a9565b612c21565b9050919050565b6131de816131b3565b82525050565b60006020820190506131f960008301846131d5565b92915050565b60008151905061320e81612bc8565b92915050565b60006020828403121561322a57613229612bb9565b5b6000613238848285016131ff565b91505092915050565b600061325c61325761325284612c55565b6131a9565b612c55565b9050919050565b600061326e82613241565b9050919050565b600061328082613263565b9050919050565b61329081613275565b82525050565b60006040820190506132ab6000830185612f70565b6132b86020830184613287565b9392505050565b6132c881612c75565b82525050565b60006040820190506132e360008301856132bf565b6132f06020830184612c2b565b9392505050565b7f4552524f523a204e6f205969656c640000000000000000000000000000000000600082015250565b600061332d600f83612e61565b9150613338826132f7565b602082019050919050565b6000602082019050818103600083015261335c81613320565b9050919050565b7f4552524f523a204e6f20736176696e6773206163636f756e7400000000000000600082015250565b6000613399601983612e61565b91506133a482613363565b602082019050919050565b600060208201905081810360008301526133c88161338c565b9050919050565b6000815190506133de81612d56565b92915050565b6000602082840312156133fa576133f9612bb9565b5b6000613408848285016133cf565b91505092915050565b600061341c82612c21565b915061342783612c21565b9250817fffffffffffffffffffffffffffffffffffffffffffffffffffffffffffffffff04831182151516156134605761345f612fc3565b5b828202905092915050565b7f4e487b7100000000000000000000000000000000000000000000000000000000600052601260045260246000fd5b60006134a582612c21565b91506134b083612c21565b9250826134c0576134bf61346b565b5b828204905092915050565b60006134d682612c21565b91507fffffffffffffffffffffffffffffffffffffffffffffffffffffffffffffffff82141561350957613508612fc3565b5b600182019050919050565b7f5769746864726177616c2063616e206e6f742062652070726f63657373656400600082015250565b600061354a601f83612e61565b915061355582613514565b602082019050919050565b600060208201905081810360008301526135798161353d565b905091905056fea2646970667358221220b725c79ffa27bf6efb7b3efeb278938a47be95743f7d38a3c19dd38d59250ab264736f6c63430008090033",
  "immutableReferences": {},
  "source": "// SPDX-License-Identifier: MIT\r\npragma solidity >=0.8.9 <0.9.0;\r\n\r\nimport \"./interfaces/ITokenList.sol\";\r\nimport \"./util/IBEP20.sol\";\r\nimport \"./interfaces/IComptroller.sol\";\r\n\r\ncontract Deposit {\r\n\t\r\n\tbytes32 adminDeposit;\r\n\taddress adminDepositAddress;\r\n\taddress superAdminAddress;\r\n\taddress reserveAddress;\r\n\r\n\tITokenList markets;\r\n\tIComptroller comptroller;\r\n\r\n\t// address superAdminAddress;\r\n\t// address reserveAddress;\r\n\r\n\t// ITokenList markets;\r\n\t// IComptroller comptroller;\r\n\r\n\tbool isReentrant = false;\r\n\r\n\t// TokenList markets = TokenList(0x3E2884D9F6013Ac28b0323b81460f49FE8E5f401);\r\n\t// Comptroller comptroller = Comptroller(0x3E2884D9F6013Ac28b0323b81460f49FE8E5f401);\r\n\t// Reserve reserve = Reserve(payable(0xeAc61D9e3224B20104e7F0BAD6a6DB7CaF76659B));\r\n\tIBEP20 token;\r\n\r\n\tstruct SavingsAccount {\r\n        uint accOpenTime;\r\n        address account; \r\n        DepositRecords[] deposits;\r\n        YieldLedger[] yield;\r\n    }\r\n\r\n    struct DepositRecords   {\r\n        uint id;\r\n        bytes32 market;\r\n        bytes32 commitment;\r\n        uint amount;\r\n        uint lastUpdate;\r\n    }\r\n\r\n    struct YieldLedger    {\r\n        uint id;\r\n        bytes32 market; //_market this yield is calculated for\r\n        uint oldLengthAccruedYield; // length of the APY time array.\r\n        uint oldTime; // last recorded block num. This is when this struct is lastly updated.\r\n        uint accruedYield; // accruedYield in \r\n        bool isTimelockApplicable; // is timelockApplicalbe or not. Except the flexible deposits, the timelock is applicabel on all the deposits.\r\n        bool isTimelockActivated; // is timelockApplicalbe or not. Except the flexible deposits, the timelock is applicabel on all the deposits.\r\n        uint timelockValidity; // timelock duration\r\n        uint activationTime; // block.timestamp(isTimelockActivated) + timelockValidity.\r\n    }\r\n\r\n\tenum BALANCETYPE{DEPOSIT, YIELD, BOTH}\r\n\t\r\n\tmapping(address => SavingsAccount) savingsPassbook;  // Maps an account to its savings Passbook\r\n    mapping(address => mapping(bytes32 => mapping(bytes32 => DepositRecords))) indDepositRecord; // address =>_market => _commitment => depositRecord\r\n    mapping(address => mapping(bytes32 => mapping(bytes32 => YieldLedger))) indYieldRecord; // address =>_market => _commitment => depositRecord\r\n\r\n\t///  Balance monitoring  - Deposits\r\n\tmapping(bytes32 => uint) marketReserves; // mapping(market => marketBalance)\r\n\tmapping(bytes32 => uint) marketUtilisation; // mapping(market => marketBalance)\r\n\r\n\tevent NewDeposit(address indexed account,bytes32 indexed market,bytes32 commmitment,uint256 indexed amount);\r\n\tevent YieldDeposited(address indexed account,bytes32 indexed market,bytes32 commmitment,uint256 indexed amount);\r\n\tevent Withdrawal(address indexed account, bytes32 indexed market, uint indexed amount, bytes32 commitment, uint timestamp);\r\n\r\n\r\n\tconstructor(\r\n\t\taddress superAdminAddr_,\r\n\t\taddress tokenListAddr_,\r\n\t\taddress comptrollerAddr_\r\n\t) \r\n\t{\r\n\t\tsuperAdminAddress = superAdminAddr_;\r\n\t\tadminDepositAddress = msg.sender;\r\n\t\tmarkets = ITokenList(tokenListAddr_);\r\n\t\tcomptroller = IComptroller(comptrollerAddr_);\r\n\t}\r\n\r\n\tfunction hasAccount(address _account) external view returns (bool)\t{\r\n\t\t_hasAccount(_account);\r\n\t\treturn true;\r\n\t}\r\n\r\n\tfunction savingsBalance(bytes32 _market, bytes32 _commitment) external returns (uint) {\r\n\t\treturn _accountBalance(msg.sender, _market, _commitment, BALANCETYPE.BOTH);\r\n\t}\r\n\r\n\tfunction convertYield(bytes32 _market, bytes32 _commitment) external nonReentrant() returns (bool success){\r\n\r\n\t\tuint _amount;\r\n\t\t_amount = _convertYield(msg.sender, _market,_commitment);\r\n\r\n\t\temit YieldDeposited(msg.sender, _market, _commitment, _amount);\r\n\t\treturn success;\r\n\t}\r\n\r\n\tfunction hasYield(bytes32 _market, bytes32 _commitment) external view returns (bool)\t{\r\n\t\tDepositRecords storage deposit = indDepositRecord[msg.sender][_market][_commitment];\r\n\t\t_hasYield(/*_account, _market, _commitment, */deposit);\r\n\t\treturn true;\r\n\t}\r\n\r\n\tfunction avblReserves(bytes32 _market) external view returns (uint) {\r\n\t\treturn _avblReserves(_market);\r\n\t}\r\n\r\n\tfunction _avblReserves(bytes32 _market) internal view returns(uint)\t{\r\n\t\treturn marketReserves[_market];\r\n\t}\r\n\r\n\tfunction utilisedReserves(bytes32 _market) external view returns (uint) {\r\n\t\treturn _utilisedReserves(_market);\r\n\t}\r\n\r\n\tfunction _utilisedReserves(bytes32 _market) internal view returns(uint)\t{\r\n\t\treturn marketUtilisation[_market];\r\n\t}\r\n\r\n\tfunction _updateReserves(bytes32 _market, uint _amount, uint _num) private\r\n\t{\r\n\t\tif (_num == 0)\t{\r\n\t\t\tmarketReserves[_market] += _amount;\r\n\t\t} else if (_num == 1)\t{\r\n\t\t\tmarketReserves[_market] -= _amount;\r\n\t\t}\r\n\t\t// return this;\r\n\t}\r\n\r\n\tfunction _updateUtilisation(bytes32 _market, uint _amount, uint _num) private\r\n\t{\r\n\t\tif (_num == 0)\t{\r\n\t\t\tmarketUtilisation[_market] += _amount;\r\n\t\t} else if (_num == 1)\t{\r\n\t\t\tmarketUtilisation[_market] -= _amount;\r\n\t\t}\r\n\t\t// return this;\r\n\t}\r\n\r\n\t\r\n\tfunction createDeposit(\r\n\t\tbytes32 _market,\r\n\t\tbytes32 _commitment,\r\n\t\tuint256 _amount\r\n\t) external nonReentrant() returns (bool success) {\r\n\t\t\r\n\t\t_createNewDeposit(_market,_commitment, _amount);\r\n\r\n\t\temit NewDeposit(msg.sender, _market, _commitment, _amount);\r\n\t\treturn success;\r\n\t}\r\n\r\n\r\n\tfunction withdrawDeposit (bytes32 _market, bytes32 _commitment, uint _amount, BALANCETYPE _request) external nonReentrant() returns (bool){\r\n\r\n\t\t_withdrawDeposit (msg.sender, _market, _commitment, _amount, _request);\r\n\r\n\t\temit Withdrawal(msg.sender,_market, _amount, _commitment, block.timestamp);\r\n\t\treturn true;\r\n\t\t\r\n\t}\r\n\r\n\r\n\tfunction _withdrawDeposit (address _account, bytes32 _market, bytes32 _commitment, uint _amount, BALANCETYPE _request) internal{\r\n\t\t\r\n\t\t_hasAccount(_account);\r\n\t\tmarkets.isMarketSupported(_market);\r\n\r\n\t\t// DepositRecords storage deposit = indDepositRecord[_account][_market][_commitment];\r\n\t\t// YieldLedger storage yield = indYieldRecord[_account][_market][_commitment];\r\n\r\n\t\t_updateYield(msg.sender,_market,_commitment);\r\n\r\n\t\tuint _savingsBalance = _accountBalance(_account, _market, _commitment, _request);\r\n\r\n\t\trequire(_amount >= _savingsBalance, \"Insufficient balance\");\r\n\t\tif (_commitment == comptroller.getCommitment(0))\t{\r\n\t\t\t_updateSavingsBalance(_account, _market, _commitment, _amount, _request);\r\n\t\t}\r\n\t\t/// Transfer funds to the user's wallet.\r\n\t\tmarkets.connectMarket(_market, token);\r\n\t\ttoken.transfer(reserveAddress, _amount);\r\n\r\n\t\t_updateReserves(_market, _amount, 1);\r\n\r\n\t}\r\n\r\n\t// function convertDeposit() external nonReentrant() {}\r\n\r\n\tfunction _preDepositProcess(\r\n\t\taddress _account,\r\n\t\tbytes32 _market,\r\n\t\tuint256 _amount,\r\n\t\tSavingsAccount storage savingsAccount\r\n\t) private{\r\n\r\n\t\tmarkets.isMarketSupported(_market);\r\n\t\t_ensureSavingsAccount(_account,savingsAccount);\r\n\t\t\r\n\t\tmarkets.connectMarket(_market, token);\r\n\t\tmarkets.quantifyAmount(_market, _amount);\r\n\t\t// return this;\r\n\t}\r\n\r\n\tfunction _ensureSavingsAccount(address _account, SavingsAccount storage savingsAccount) private {\r\n\r\n\t\tif (savingsAccount.accOpenTime == 0) {\r\n\r\n\t\t\tsavingsAccount.accOpenTime = block.timestamp;\r\n\t\t\tsavingsAccount.account = _account;\r\n\t\t}\r\n\t}\r\n\r\n\tfunction _updateYield(address _account,bytes32 _market,bytes32 _commitment) internal {\r\n\t\t\r\n\t\tYieldLedger storage yield = indYieldRecord[_account][_market][_commitment];\r\n\t\tDepositRecords storage deposit = indDepositRecord[_account][_market][_commitment];\r\n\t\t// IComptroller.APY storage apy = comptroller.indAPYRecords[commitment_];\r\n\r\n\t\tuint256 index = yield.oldLengthAccruedYield - 1;\r\n\t\tuint256 blockNum = yield.oldTime;\r\n\t\tuint256 aggregateYield = yield.accruedYield;\r\n\r\n\t\tif (comptroller.getApyRecordCount(_commitment) > yield.oldLengthAccruedYield)  {\r\n\t\t\tif (comptroller.getApytime(_commitment, index) < blockNum) {\r\n\t\t\t\tuint256 newIndex = index + 1;\r\n\t\t\t\taggregateYield +=\r\n\t\t\t\t((comptroller.getApytime(_commitment, newIndex) - blockNum) *comptroller.getAPY(_commitment, index))/100;\r\n\r\n\t\t\t\tfor (uint256 i = newIndex; i < comptroller.getApyRecordCount(_commitment); i++) {\r\n\t\t\t\tuint256 blockDiff = comptroller.getApytime(_commitment, i+1) - comptroller.getApytime(_commitment, i);\r\n\t\t\t\taggregateYield += blockDiff*comptroller.getAPY(_commitment, newIndex) / 100;\r\n\t\t\t\t}\r\n\t\t\t} else if (comptroller.getApytime(_commitment, index) == blockNum) {\r\n\t\t\t\tfor (uint256 i = index; i < comptroller.getApyRecordCount(_commitment); i++) {\r\n\t\t\t\tuint256 blockDiff = comptroller.getApytime(_commitment, i+1) - comptroller.getApytime(_commitment, i);\r\n\t\t\t\taggregateYield += blockDiff*comptroller.getAPY(_commitment, index) / 100;\r\n\t\t\t\t}\r\n\t\t\t}\r\n\t\t\t\r\n\t\t\tif (block.timestamp >= comptroller.getApyLastTime(_commitment)) {\r\n\t\t\t\t\taggregateYield += ((block.timestamp - comptroller.getApyLastTime(_commitment)) *comptroller.getAPY(_commitment)) /100;\r\n\t\t\t}\r\n\r\n\t\t}  else if (comptroller.getApyRecordCount(_commitment) == yield.oldLengthAccruedYield)  {\r\n\t\t\taggregateYield += (block.timestamp - blockNum)*comptroller.getAPY(_commitment, index)/100;\r\n\t\t}\r\n\r\n\t// need to add a condition that accounts for multiple deposits of the same kind? Meaning, if \r\n\t// there is an add-on deposit, \r\n\t/// Update: 12th October. 2021\r\n\t// trigger updateYield for newDeposit, add-onDeposit as well.\r\n\t\tyield.accruedYield += deposit.amount * aggregateYield;\r\n\t\tyield.oldLengthAccruedYield = comptroller.getApyTimeLength(_commitment);\r\n\t\tyield.oldTime = block.number;\r\n\t}\r\n\r\n\r\n\tfunction _processNewDeposit(\r\n\t\taddress _account,\r\n\t\tbytes32 _market,\r\n\t\tbytes32 _commitment,\r\n\t\tuint256 _amount\r\n\t) internal {\r\n\t\tSavingsAccount storage savingsAccount = savingsPassbook[_account];\r\n\t\tDepositRecords storage deposit = indDepositRecord[_account][_market][_commitment];\r\n\t\tYieldLedger storage yield = indYieldRecord[_account][_market][_commitment];\r\n\t\t// IComptroller.APY storage apy = comptroller.indAPYRecords[_commitment];\r\n\r\n\t\tuint256 id;\r\n\r\n\t\tif (savingsAccount.deposits.length == 0) {\r\n\t\t\t\tid = 1;\r\n\t\t\t} else {\r\n\t\t\t\tid = savingsAccount.deposits.length + 1;\r\n\t\t}\r\n\r\n\t\t// deposit = DepositRecords({\r\n\t\t// \tid: id,\r\n\t\t// \tmarket:_market,\r\n\t\t// \tcommitment: _commitment,\r\n\t\t// \tamount: _amount,\r\n\t\t// \tlastUpdate: block.timestamp\r\n\t\t// });\t\t\r\n\t\tdeposit = savingsAccount.deposits[savingsAccount.deposits.length];\r\n\t\tdeposit.id = id;\r\n\t\tdeposit.market = _market;\r\n\t\tdeposit.commitment = _commitment;\r\n\t\tdeposit.amount = _amount;\r\n\t\tdeposit.lastUpdate = block.timestamp;\r\n\r\n\t\tif (_commitment != comptroller.getCommitment(0)) {\r\n\t\t\t// yield = YieldLedger({\r\n\t\t\t// \tid: id,\r\n\t\t\t// \tmarket:_market,\r\n\t\t\t// \toldLengthAccruedYield: comptroller.getApyTimeLength(_commitment),\r\n\t\t\t// \toldTime: block.timestamp,\r\n\t\t\t// \taccruedYield: 0,\r\n\t\t\t// \tisTimelockApplicable: true,\r\n\t\t\t// \tisTimelockActivated: false,\r\n\t\t\t// \ttimelockValidity: 86400,\r\n\t\t\t// \tactivationTime: 0\r\n\t\t\t// });\r\n\t\t\tyield = savingsAccount.yield[savingsAccount.yield.length];\r\n\t\t\tyield.id = id;\r\n\t\t\tyield.market = _market;\r\n\t\t\tyield.oldLengthAccruedYield = comptroller.getApyTimeLength(_commitment);\r\n\t\t\tyield.oldTime = block.timestamp;\r\n\t\t\tyield.accruedYield = 0;\r\n\t\t\tyield.isTimelockApplicable = true;\r\n\t\t\tyield.isTimelockActivated = false;\r\n\t\t\tyield.timelockValidity = 86400;\r\n\t\t\tyield.activationTime = 0;\r\n\t\t} else if (\r\n\t\t\t_commitment == comptroller.getCommitment(0)) {\r\n\t\t\t\r\n\t\t\t// yield = YieldLedger({\r\n\t\t\t// \tid: id,\r\n\t\t\t// \tmarket:_market,\r\n\t\t\t// \toldLengthAccruedYield: comptroller.getApyTimeLength(_commitment),\r\n\t\t\t// \toldTime: block.timestamp,\r\n\t\t\t// \taccruedYield: 0,\r\n\t\t\t// \tisTimelockApplicable: false,\r\n\t\t\t// \tisTimelockActivated: true,\r\n\t\t\t// \ttimelockValidity: 0,\r\n\t\t\t// \tactivationTime: 0\r\n\t\t\t// });\r\n\t\t\tyield = savingsAccount.yield[savingsAccount.yield.length];\r\n\t\t\tyield.id = id;\r\n\t\t\tyield.market = _market;\r\n\t\t\tyield.oldLengthAccruedYield = comptroller.getApyTimeLength(_commitment);\r\n\t\t\tyield.oldTime = block.timestamp;\r\n\t\t\tyield.accruedYield = 0;\r\n\t\t\tyield.isTimelockApplicable = false;\r\n\t\t\tyield.isTimelockActivated = true;\r\n\t\t\tyield.timelockValidity = 0;\r\n\t\t\tyield.activationTime = 0;\r\n\t\t}\r\n\t\t// savingsAccount.deposits.push(deposit);\r\n\t\t// savingsAccount.yield.push(yield);\r\n\t}\r\n\r\n\tfunction _hasAccount(address _account) internal view{\r\n\t\trequire(savingsPassbook[_account].accOpenTime!=0, \"ERROR: No savings account\");\r\n\t}\r\n\r\n\tfunction _hasYield(/*address _account, bytes32 _market, bytes32 _commitment, */DepositRecords storage deposit) internal view{\r\n\t\trequire(deposit.id !=0, \"ERROR: No Yield\");\r\n\t\t// return this;\r\n\t}\r\n\r\n\tfunction _createNewDeposit(bytes32 _market,bytes32 _commitment,uint256 _amount) private\t{\r\n\t\tSavingsAccount storage savingsAccount = savingsPassbook[msg.sender];\r\n\t\t_preDepositProcess(msg.sender, _market, _amount, savingsAccount);\r\n\t\ttoken.transfer(reserveAddress, _amount);\r\n\r\n\t\t_processNewDeposit(msg.sender, _market, _commitment, _amount);\r\n\t\t_updateReserves(_market, _amount, 0);\r\n\t}\r\n\r\n\tfunction _convertYield(address _account, bytes32 _market, bytes32 _commitment) private returns (uint) {\r\n\r\n\t\t_hasAccount(_account);\r\n\r\n\t\tuint _amount;\r\n\r\n\t\tSavingsAccount storage savingsAccount = savingsPassbook[msg.sender];\r\n\t\tDepositRecords storage deposit = indDepositRecord[msg.sender][_market][_commitment];\r\n\t\tYieldLedger storage yield = indYieldRecord[msg.sender][_market][_commitment];\r\n\t\t// IComptroller.APY storage apy = comptroller.indAPYRecords[_commitment];\r\n\r\n\t\t\r\n\t\t_hasYield(/*_account, _market, _commitment, */deposit);\r\n\t\t_updateYield(_account,_market,_commitment);\r\n\r\n\t\t_amount = yield.accruedYield;\r\n\r\n\t\t// updating yield\r\n\t\tyield.accruedYield = 0;\r\n\r\n\t\tdeposit.amount += _amount;\r\n\t\tdeposit.lastUpdate = block.timestamp;\r\n\r\n\t\tsavingsAccount.deposits[deposit.id -1].amount += _amount;\r\n\t\tsavingsAccount.deposits[deposit.id -1].lastUpdate = block.timestamp;\r\n\t\tsavingsAccount.yield[deposit.id-1].accruedYield = 0;\r\n\r\n\t\treturn _amount;\r\n\t}\r\n\r\n\tfunction _accountBalance(address _account, bytes32 _market, bytes32 _commitment, BALANCETYPE _request) private returns (uint) {\r\n\r\n\t\tuint _savingsBalance;\r\n\t\t\r\n\t\tDepositRecords storage deposit = indDepositRecord[_account][_market][_commitment];\r\n\t\tYieldLedger storage yield = indYieldRecord[_account][_market][_commitment];\r\n\r\n\t\tif (_request == BALANCETYPE.DEPOSIT)\t{\r\n\t\t\t_savingsBalance = deposit.amount;\r\n\r\n\t\t}\telse if (_request == BALANCETYPE.YIELD)\t{\r\n\t\t\t_updateYield(msg.sender,_market,_commitment);\r\n\t\t\t_savingsBalance =  yield.accruedYield;\r\n\r\n\t\t}\telse if (_request == BALANCETYPE.BOTH)\t{\r\n\t\t\t_updateYield(msg.sender,_market,_commitment);\r\n\t\t\t_savingsBalance = deposit.amount + yield.accruedYield;\r\n\t\t}\r\n\t\treturn _savingsBalance;\r\n\t}\r\n\r\n\tfunction _updateSavingsBalance(address _account, bytes32 _market, bytes32 _commitment, uint _amount, BALANCETYPE _request) internal {\r\n\r\n\t\tDepositRecords storage deposit = indDepositRecord[_account][_market][_commitment];\r\n\t\tYieldLedger storage yield = indYieldRecord[_account][_market][_commitment];\r\n\r\n\t\tif (_request == BALANCETYPE.DEPOSIT)\t{\r\n\t\t\tdeposit.amount -= _amount;\r\n\t\t\tdeposit.lastUpdate =  block.timestamp;\r\n\r\n\t\t}\telse if (_request == BALANCETYPE.YIELD)\t{\r\n\r\n\t\t\tif (yield.isTimelockApplicable == false || block.timestamp >= yield.activationTime+yield.timelockValidity)\t{\r\n\t\t\t\t\r\n\t\t\t\t// _updateYield(msg.sender,_market,_commitment);\r\n\t\t\t\tyield.accruedYield -= _amount;\r\n\t\t\t\tyield.oldTime = block.timestamp;\r\n\t\t\t}\telse if (yield.isTimelockApplicable != false || block.timestamp < yield.activationTime+yield.timelockValidity)\t{\r\n\t\t\t\trevert ('Withdrawal can not be processed');\r\n\t\t\t}\r\n\r\n\t\t}\telse if (_request == BALANCETYPE.BOTH)\t{\r\n\r\n\t\t\t// require (deposit.id == yield.id, \"mapping error\");\r\n\r\n\t\t\tif (yield.isTimelockApplicable == false || block.timestamp >= yield.activationTime+yield.timelockValidity)\t{\r\n\t\t\t\t// _updateYield(msg.sender,_market,_commitment);\r\n\t\t\t\tyield.accruedYield -= _amount;\r\n\t\t\t\tyield.oldTime = block.timestamp;\r\n\r\n\t\t\t}\telse if (yield.isTimelockApplicable != false || block.timestamp < yield.activationTime+yield.timelockValidity)\t{\r\n\t\t\t\trevert ('Withdrawal can not be processed');\r\n\t\t\t}\r\n\t\t\t\r\n\t\t\tdeposit.amount -= _amount;\r\n\t\t\tdeposit.lastUpdate =  block.timestamp;\r\n\t\t}\r\n\t}\r\n\r\n\tfunction setReserveAddress(address reserveAddr_) public authDeposit() {\r\n\t\treserveAddress = reserveAddr_;\r\n\t}\r\n\r\n\tmodifier nonReentrant() {\r\n\t\trequire(isReentrant == false, \"Re-entrant alert!\");\r\n\t\tisReentrant = true;\r\n\t\t_;\r\n\t\tisReentrant = false;\r\n\t}\r\n\r\n\tmodifier authDeposit() {\r\n\t\trequire(\r\n\t\t\tmsg.sender == adminDepositAddress,\r\n\t\t\t\"Only an admin can call this function\"\r\n\t\t);\r\n\t\t_;\r\n\t}\r\n}",
  "sourcePath": "F:\\workspace\\Open-protocol\\contracts\\Deposit.sol",
  "compiler": {
    "name": "solc",
    "version": "0.8.9+commit.e5eed63a.Emscripten.clang"
  },
  "schemaVersion": "3.4.3",
  "updatedAt": "2021-10-18T04:43:18.609Z",
  "devdoc": {
    "kind": "dev",
    "methods": {},
    "version": 1
  },
  "userdoc": {
    "kind": "user",
    "methods": {},
    "version": 1
  }
}