{
  "contractName": "Deposit",
  "abi": [
    {
      "inputs": [],
      "name": "deposit",
      "outputs": [
        {
          "internalType": "bool",
          "name": "",
          "type": "bool"
        }
      ],
      "stateMutability": "nonpayable",
      "type": "function"
    },
    {
      "inputs": [],
      "name": "withdrawDeposit",
      "outputs": [
        {
          "internalType": "bool",
          "name": "",
          "type": "bool"
        }
      ],
      "stateMutability": "nonpayable",
      "type": "function"
    },
    {
      "inputs": [],
      "name": "switchDepositType",
      "outputs": [],
      "stateMutability": "nonpayable",
      "type": "function"
    },
    {
      "inputs": [],
      "name": "convertDepositToCollateral",
      "outputs": [],
      "stateMutability": "nonpayable",
      "type": "function"
    }
  ],
  "bytecode": "0x608060405234801561001057600080fd5b50610105806100206000396000f3fe6080604052348015600f57600080fd5b506004361060465760003560e01c8063117df08814604b5780635e4c8e8b146065578063d0e30db014606d578063e8859d08146087575b600080fd5b6051608f565b604051605c919060aa565b60405180910390f35b606b6094565b005b60736096565b604051607e919060aa565b60405180910390f35b608d609b565b005b600090565b565b600090565b565b60a48160c3565b82525050565b600060208201905060bd6000830184609d565b92915050565b6000811515905091905056fea264697066735822122049f412a7ec2ed3d4f91d1e81cf4ba3e798d28ec65676232a01d54cd0047e1b4f64736f6c63430008070033",
  "immutableReferences": {},
  "source": "// SPDX-License-Identifier: MIT\r\npragma solidity >=0.8.7 <0.9.0;\r\n\r\n// import \"@openzeppelin/contracts/access/Ownable.sol\";\r\n// import \"@openzeppelin/contracts/utils/math/SafeMath.sol\";\r\n// import \"@openzeppelin/contracts/token/ERC20/ERC20.sol\";\r\n// import \"@openzeppelin/contracts/token/ERC20/utils/SafeERC20.sol\";\r\nimport \"./TokenList.sol\";\r\nimport \"./util/Address.sol\";\r\n\r\n// import \"./Library/OpenLibrary.sol\";\r\n\r\ncontract Deposit {\r\n  using Address for address;\r\n  function deposit() external returns (bool) {}\r\n\r\n  function _deposit() internal {}\r\n\r\n  function withdrawDeposit() external returns (bool) {}\r\n\r\n  function _withdrawDeposit() internal returns (bool) {}\r\n\r\n  function switchDepositType() external {}\r\n\r\n  function _switchDepositType() internal {}\r\n\r\n  function convertDepositToCollateral() external {}\r\n  function _convertDepositToCollateral() internal {}\r\n}\r\n",
  "sourcePath": "F:\\workspace\\Open-protocol\\contracts\\Deposit.sol",
  "compiler": {
    "name": "solc",
    "version": "0.8.7+commit.e28d00a7.Emscripten.clang"
  },
  "schemaVersion": "3.4.3",
  "updatedAt": "2021-09-27T06:01:02.803Z",
  "devdoc": {
    "kind": "dev",
    "methods": {},
    "version": 1
  },
  "userdoc": {
    "kind": "user",
    "methods": {},
    "version": 1
  }
}