{
  "contractName": "Liquidator",
  "abi": [
    {
      "inputs": [
        {
          "internalType": "address",
          "name": "superAdminAddr_",
          "type": "address"
        },
        {
          "internalType": "address",
          "name": "tokenListAddr_",
          "type": "address"
        }
      ],
      "stateMutability": "nonpayable",
      "type": "constructor"
    },
    {
      "anonymous": false,
      "inputs": [
        {
          "indexed": true,
          "internalType": "address",
          "name": "_pauser",
          "type": "address"
        },
        {
          "indexed": false,
          "internalType": "bool",
          "name": "isPaused",
          "type": "bool"
        }
      ],
      "name": "PauseState",
      "type": "event"
    },
    {
      "stateMutability": "payable",
      "type": "fallback"
    },
    {
      "inputs": [],
      "name": "pauseState",
      "outputs": [
        {
          "internalType": "string",
          "name": "",
          "type": "string"
        }
      ],
      "stateMutability": "view",
      "type": "function"
    },
    {
      "inputs": [],
      "name": "paused",
      "outputs": [
        {
          "internalType": "bool",
          "name": "",
          "type": "bool"
        }
      ],
      "stateMutability": "view",
      "type": "function"
    },
    {
      "inputs": [],
      "name": "simpleSwap",
      "outputs": [
        {
          "internalType": "contract IAugustusSwapper",
          "name": "",
          "type": "address"
        }
      ],
      "stateMutability": "view",
      "type": "function"
    },
    {
      "inputs": [],
      "name": "tokenList",
      "outputs": [
        {
          "internalType": "contract ITokenList",
          "name": "",
          "type": "address"
        }
      ],
      "stateMutability": "view",
      "type": "function"
    },
    {
      "stateMutability": "payable",
      "type": "receive"
    },
    {
      "inputs": [
        {
          "internalType": "address",
          "name": "token_",
          "type": "address"
        },
        {
          "internalType": "address",
          "name": "recipient_",
          "type": "address"
        },
        {
          "internalType": "uint256",
          "name": "value_",
          "type": "uint256"
        }
      ],
      "name": "transferAnyERC20",
      "outputs": [
        {
          "internalType": "bool",
          "name": "",
          "type": "bool"
        }
      ],
      "stateMutability": "nonpayable",
      "type": "function"
    },
    {
      "inputs": [
        {
          "internalType": "bytes32",
          "name": "_fromMarket",
          "type": "bytes32"
        },
        {
          "internalType": "bytes32",
          "name": "_toMarket",
          "type": "bytes32"
        },
        {
          "internalType": "uint256",
          "name": "_fromAmount",
          "type": "uint256"
        },
        {
          "internalType": "uint8",
          "name": "mode",
          "type": "uint8"
        }
      ],
      "name": "swap",
      "outputs": [
        {
          "internalType": "uint256",
          "name": "receivedAmount",
          "type": "uint256"
        }
      ],
      "stateMutability": "payable",
      "type": "function"
    },
    {
      "inputs": [],
      "name": "pause",
      "outputs": [],
      "stateMutability": "nonpayable",
      "type": "function"
    },
    {
      "inputs": [],
      "name": "unpause",
      "outputs": [],
      "stateMutability": "nonpayable",
      "type": "function"
    }
  ],
  "bytecode": "0x60806040526000805460ff1916905534801561001a57600080fd5b50604051610d98380380610d98833981016040819052610039916100c6565b60008054600180546001600160a01b03199081166001600160a01b0396871617909155610100600160b01b03199091163362010000021790915560038054821692909316919091179091556002805473def171fe48cf0115b1d80b88dc8eab59176fee5792169190911790556100f9565b80516001600160a01b03811681146100c157600080fd5b919050565b600080604083850312156100d957600080fd5b6100e2836100aa565b91506100f0602084016100aa565b90509250929050565b610c90806101086000396000f3fe60806040526004361061007f5760003560e01c80638456cb591161004e5780638456cb591461016b5780638927e052146101805780639e2c58ca146101b8578063d7118351146101d8576100c6565b80633f4ba83a146100e15780635b6f547e146100f85780635c975abb1461012d57806366e8247a1461014a576100c6565b366100c6576000546201000090046001600160a01b03166108fc345b6040518115909202916000818181858888f193505050501580156100c3573d6000803e3d6000fd5b50005b6000546201000090046001600160a01b03166108fc3461009b565b3480156100ed57600080fd5b506100f66101fa565b005b34801561010457600080fd5b50610118610113366004610965565b61029b565b60405190151581526020015b60405180910390f35b34801561013957600080fd5b50600054610100900460ff16610118565b61015d6101583660046109a6565b61032c565b604051908152602001610124565b34801561017757600080fd5b506100f6610730565b34801561018c57600080fd5b506002546101a0906001600160a01b031681565b6040516001600160a01b039091168152602001610124565b3480156101c457600080fd5b506003546101a0906001600160a01b031681565b3480156101e457600080fd5b506101ed6107bc565b6040516101249190610a3a565b6000546201000090046001600160a01b031633146102335760405162461bcd60e51b815260040161022a90610a54565b60405180910390fd5b60005460ff161561027a5760405162461bcd60e51b815260206004820152601160248201527052652d656e7472616e7420616c6572742160781b604482015260640161022a565b6000805460ff1916600117905561028f610824565b6000805460ff19169055565b60405163a9059cbb60e01b81526001600160a01b038381166004830152602482018390526000919085169063a9059cbb90604401602060405180830381600087803b1580156102e957600080fd5b505af11580156102fd573d6000803e3d6000fd5b505050506040513d601f19601f820116820180604052508101906103219190610aa0565b506001949350505050565b60008385141561038e5760405162461bcd60e51b815260206004820152602760248201527f46726f6d546f6b656e2063616e2774206265207468652073616d65206173205460448201526637aa37b5b2b71760c91b606482015260840161022a565b60008060ff841661049a5760035460405163d1c5cfab60e01b8152600481018990526001600160a01b039091169063d1c5cfab9060240160206040518083038186803b1580156103dd57600080fd5b505afa1580156103f1573d6000803e3d6000fd5b505050506040513d601f19601f820116820180604052508101906104159190610ac2565b600354604051630128e49960e21b8152600481018a90529193506001600160a01b0316906304a39264906024015b60206040518083038186803b15801561045b57600080fd5b505afa15801561046f573d6000803e3d6000fd5b505050506040513d601f19601f820116820180604052508101906104939190610ac2565b905061065c565b8360ff166001141561055457600354604051630128e49960e21b8152600481018990526001600160a01b03909116906304a392649060240160206040518083038186803b1580156104ea57600080fd5b505afa1580156104fe573d6000803e3d6000fd5b505050506040513d601f19601f820116820180604052508101906105229190610ac2565b60035460405163d1c5cfab60e01b8152600481018990529193506001600160a01b03169063d1c5cfab90602401610443565b8360ff166002141561065c57600354604051630128e49960e21b8152600481018890526001600160a01b03909116906304a392649060240160206040518083038186803b1580156105a457600080fd5b505afa1580156105b8573d6000803e3d6000fd5b505050506040513d601f19601f820116820180604052508101906105dc9190610ac2565b600354604051630128e49960e21b8152600481018a90529193506001600160a01b0316906304a392649060240160206040518083038186803b15801561062157600080fd5b505afa158015610635573d6000803e3d6000fd5b505050506040513d601f19601f820116820180604052508101906106599190610ac2565b90505b60006060806060806000600260009054906101000a90046001600160a01b03166001600160a01b031663cfc0afeb89898e8a8b8b898c8c8b6040518060200160405280600081525060006040518d63ffffffff1660e01b81526004016106cd9c9b9a99989796959493929190610b53565b602060405180830381600087803b1580156106e757600080fd5b505af11580156106fb573d6000803e3d6000fd5b505050506040513d601f19601f8201168201806040525081019061071f9190610c04565b9d9c50505050505050505050505050565b6000546201000090046001600160a01b031633146107605760405162461bcd60e51b815260040161022a90610a54565b60005460ff16156107a75760405162461bcd60e51b815260206004820152601160248201527052652d656e7472616e7420616c6572742160781b604482015260640161022a565b6000805460ff1916600117905561028f6108b2565b60005460609060ff610100909104161515600114156107f3576040518060600160405280603d8152602001610c1e603d9139905090565b5060408051808201909152601681527510dbdb9d1c9858dd081a5cc81b9bdd081c185d5cd95960521b602082015290565b600054610100900460ff1661086f5760405162461bcd60e51b81526020600482015260116024820152704e6f74207061757365642073746174757360781b604482015260640161022a565b6000805461ff001916815560405190815233907fd90c20276b7955800df9b223f244944b25b581f437448b1978aa61d4036b428a906020015b60405180910390a2565b600054610100900460ff16156108fa5760405162461bcd60e51b815260206004820152600d60248201526c5061757365642073746174757360981b604482015260640161022a565b6000805461ff0019166101001790556109103390565b6001600160a01b03167fd90c20276b7955800df9b223f244944b25b581f437448b1978aa61d4036b428a60016040516108a8911515815260200190565b6001600160a01b038116811461096257600080fd5b50565b60008060006060848603121561097a57600080fd5b83356109858161094d565b925060208401356109958161094d565b929592945050506040919091013590565b600080600080608085870312156109bc57600080fd5b843593506020850135925060408501359150606085013560ff811681146109e257600080fd5b939692955090935050565b6000815180845260005b81811015610a13576020818501810151868301820152016109f7565b81811115610a25576000602083870101525b50601f01601f19169290920160200192915050565b602081526000610a4d60208301846109ed565b9392505050565b6020808252602c908201527f4f6e6c79204c697175696461746f722061646d696e2063616e2063616c6c207460408201526b3434b990333ab731ba34b7b760a11b606082015260800190565b600060208284031215610ab257600080fd5b81518015158114610a4d57600080fd5b600060208284031215610ad457600080fd5b8151610a4d8161094d565b600081518084526020808501945080840160005b83811015610b185781516001600160a01b031687529582019590820190600101610af3565b509495945050505050565b600081518084526020808501945080840160005b83811015610b1857815187529582019590820190600101610b37565b6001600160a01b038d811682528c16602082015260006101808c60408401528b60608401528a60808401528060a0840152610b908184018b610adf565b905082810360c0840152610ba4818a6109ed565b905082810360e0840152610bb88189610b23565b9050828103610100840152610bcd8188610b23565b6001600160a01b0387166101208501529050828103610140840152610bf281866109ed565b91505061071f61016083018415159052565b600060208284031215610c1657600080fd5b505191905056fe436f6e7472616374206973207061757365642e20546f6b656e207472616e7366657273206172652074656d706f726172696c792064697361626c65642ea26469706673582212207fb3a8f5ac3320bdaf6be0782a8da47981ea5b9d23b41fd7fb69b058aaa6ba5364736f6c63430008090033",
  "immutableReferences": {},
  "source": "// SPDX-License-Identifier: MIT\r\npragma solidity >=0.8.9 <0.9.0;\r\nimport \"./util/Pausable.sol\";\r\nimport \"./mockup/IMockBep20.sol\";\r\nimport \"./interfaces/IAugustusSwapper.sol\";\r\nimport \"./interfaces/ITokenList.sol\";\r\n\r\ncontract Liquidator is Pausable {\r\n    address adminLiquidator;\r\n    address superAdminAddress;\r\n  \r\n    IAugustusSwapper public simpleSwap;\r\n    ITokenList public tokenList;\r\n\r\n    constructor(address superAdminAddr_, address tokenListAddr_) {\r\n        superAdminAddress = superAdminAddr_;\r\n        adminLiquidator = msg.sender;\r\n        tokenList = ITokenList(tokenListAddr_);\r\n        IAugustusSwapper _simpleSwap = IAugustusSwapper(0xDEF171Fe48CF0115B1d80b88dc8eAB59176FEe57);\r\n        simpleSwap = _simpleSwap;\r\n    }\r\n    \r\n    receive() external payable {\r\n        payable(adminLiquidator).transfer(_msgValue());\r\n    }\r\n    \r\n    fallback() external payable {\r\n        payable(adminLiquidator).transfer(_msgValue());\r\n    }\r\n    \r\n    function transferAnyERC20(address token_,address recipient_,uint256 value_) \r\n        external returns(bool) \r\n    {\r\n        IMockBep20(token_).transfer(recipient_, value_);\r\n        return true;\r\n    }\r\n    \r\n    function swap(bytes32 _fromMarket, bytes32 _toMarket, uint256 _fromAmount, uint8 mode) external payable returns (uint256 receivedAmount) {\r\n\r\n        require(_fromMarket != _toMarket, \"FromToken can't be the same as ToToken.\");\r\n\r\n        address addrFromMarket;\r\n        address addrToMarket;\r\n        if(mode == 0){\r\n            addrFromMarket = tokenList.getMarketAddress(_fromMarket);\r\n            addrToMarket = tokenList.getMarket2Address(_fromMarket);\r\n        } else if(mode == 1) {\r\n            addrFromMarket = tokenList.getMarket2Address(_fromMarket);\r\n            addrToMarket = tokenList.getMarketAddress(_toMarket);\r\n        } else if(mode == 2) {\r\n            addrFromMarket = tokenList.getMarket2Address(_toMarket);\r\n            addrToMarket = tokenList.getMarket2Address(_fromMarket);\r\n        }\r\n\r\n        uint minAmount;\r\n        address[] memory callees;\r\n        uint256[] memory startIndexes;\r\n        uint256[] memory values;\r\n        bytes memory exchangeData;\r\n        address payable beneficiary;\r\n        receivedAmount =  simpleSwap.simpleSwap(\r\n            addrFromMarket,\r\n            addrToMarket,\r\n            _fromAmount,\r\n            minAmount,\r\n            minAmount,\r\n            callees,\r\n            exchangeData,\r\n            startIndexes,\r\n            values,\r\n            beneficiary,\r\n            string(\"\"),\r\n            false\r\n        );\r\n    }\r\n\r\n    function pause() external authLiquidator() nonReentrant() {\r\n       _pause();\r\n\t}\r\n\t\r\n\tfunction unpause() external authLiquidator() nonReentrant() {\r\n       _unpause();   \r\n\t}\r\n\r\n\tmodifier authLiquidator() {\r\n\t\trequire(\r\n\t\t\tmsg.sender == adminLiquidator,\r\n\t\t\t\"Only Liquidator admin can call this function\"\r\n\t\t);\r\n\t\t_;\r\n\t}\r\n}",
  "sourcePath": "F:\\workspace\\Open-protocol\\contracts\\Liquidator.sol",
  "compiler": {
    "name": "solc",
    "version": "0.8.9+commit.e5eed63a.Emscripten.clang"
  },
  "schemaVersion": "3.4.3",
  "updatedAt": "2021-10-22T12:07:31.153Z",
  "devdoc": {
    "kind": "dev",
    "methods": {},
    "version": 1
  },
  "userdoc": {
    "kind": "user",
    "methods": {},
    "version": 1
  }
}