{
  "contractName": "Liquidator",
  "abi": [
    {
      "inputs": [],
      "stateMutability": "nonpayable",
      "type": "constructor"
    },
    {
      "anonymous": false,
      "inputs": [
        {
          "indexed": true,
          "internalType": "address",
          "name": "_pauser",
          "type": "address"
        },
        {
          "indexed": false,
          "internalType": "bool",
          "name": "isPaused",
          "type": "bool"
        }
      ],
      "name": "PauseState",
      "type": "event"
    },
    {
      "stateMutability": "payable",
      "type": "fallback"
    },
    {
      "inputs": [],
      "name": "pauseState",
      "outputs": [
        {
          "internalType": "string",
          "name": "",
          "type": "string"
        }
      ],
      "stateMutability": "view",
      "type": "function"
    },
    {
      "inputs": [],
      "name": "paused",
      "outputs": [
        {
          "internalType": "bool",
          "name": "",
          "type": "bool"
        }
      ],
      "stateMutability": "view",
      "type": "function"
    },
    {
      "stateMutability": "payable",
      "type": "receive"
    },
    {
      "inputs": [
        {
          "internalType": "address",
          "name": "token_",
          "type": "address"
        },
        {
          "internalType": "address",
          "name": "recipient_",
          "type": "address"
        },
        {
          "internalType": "uint256",
          "name": "value_",
          "type": "uint256"
        }
      ],
      "name": "transferAnyERC20",
      "outputs": [
        {
          "internalType": "bool",
          "name": "",
          "type": "bool"
        }
      ],
      "stateMutability": "nonpayable",
      "type": "function"
    },
    {
      "inputs": [],
      "name": "pause",
      "outputs": [],
      "stateMutability": "nonpayable",
      "type": "function"
    },
    {
      "inputs": [],
      "name": "unpause",
      "outputs": [],
      "stateMutability": "nonpayable",
      "type": "function"
    }
  ],
  "bytecode": "0x608060405260008060006101000a81548160ff02191690831515021790555034801561002a57600080fd5b5060008060016101000a81548160ff02191690831515021790555033600060026101000a81548173ffffffffffffffffffffffffffffffffffffffff021916908373ffffffffffffffffffffffffffffffffffffffff160217905550610bb1806100956000396000f3fe60806040526004361061004e5760003560e01c80633f4ba83a146101375780635b6f547e1461014e5780635c975abb1461018b5780638456cb59146101b6578063d7118351146101cd576100c5565b366100c557600060029054906101000a900473ffffffffffffffffffffffffffffffffffffffff1673ffffffffffffffffffffffffffffffffffffffff166108fc6100976101f8565b9081150290604051600060405180830381858888f193505050501580156100c2573d6000803e3d6000fd5b50005b600060029054906101000a900473ffffffffffffffffffffffffffffffffffffffff1673ffffffffffffffffffffffffffffffffffffffff166108fc6101096101f8565b9081150290604051600060405180830381858888f19350505050158015610134573d6000803e3d6000fd5b50005b34801561014357600080fd5b5061014c610200565b005b34801561015a57600080fd5b5061017560048036038101906101709190610784565b610322565b60405161018291906107f2565b60405180910390f35b34801561019757600080fd5b506101a06103bd565b6040516101ad91906107f2565b60405180910390f35b3480156101c257600080fd5b506101cb6103d3565b005b3480156101d957600080fd5b506101e26104f5565b6040516101ef91906108a6565b60405180910390f35b600034905090565b600060029054906101000a900473ffffffffffffffffffffffffffffffffffffffff1673ffffffffffffffffffffffffffffffffffffffff163373ffffffffffffffffffffffffffffffffffffffff1614610290576040517f08c379a00000000000000000000000000000000000000000000000000000000081526004016102879061093a565b60405180910390fd5b6000151560008054906101000a900460ff161515146102e4576040517f08c379a00000000000000000000000000000000000000000000000000000000081526004016102db906109a6565b60405180910390fd5b60016000806101000a81548160ff02191690831515021790555061030661056f565b60008060006101000a81548160ff021916908315150217905550565b60008373ffffffffffffffffffffffffffffffffffffffff1663a9059cbb84846040518363ffffffff1660e01b815260040161035f9291906109e4565b602060405180830381600087803b15801561037957600080fd5b505af115801561038d573d6000803e3d6000fd5b505050506040513d601f19601f820116820180604052508101906103b19190610a39565b50600190509392505050565b60008060019054906101000a900460ff16905090565b600060029054906101000a900473ffffffffffffffffffffffffffffffffffffffff1673ffffffffffffffffffffffffffffffffffffffff163373ffffffffffffffffffffffffffffffffffffffff1614610463576040517f08c379a000000000000000000000000000000000000000000000000000000000815260040161045a9061093a565b60405180910390fd5b6000151560008054906101000a900460ff161515146104b7576040517f08c379a00000000000000000000000000000000000000000000000000000000081526004016104ae906109a6565b60405180910390fd5b60016000806101000a81548160ff0219169083151502179055506104d9610628565b60008060006101000a81548160ff021916908315150217905550565b606060011515600060019054906101000a900460ff1615151415610533576040518060600160405280603d8152602001610b3f603d9139905061056c565b6040518060400160405280601681526020017f436f6e7472616374206973206e6f74207061757365640000000000000000000081525090505b90565b6105776103bd565b6105b6576040517f08c379a00000000000000000000000000000000000000000000000000000000081526004016105ad90610ab2565b60405180910390fd5b60008060016101000a81548160ff0219169083151502179055506105d86106e3565b73ffffffffffffffffffffffffffffffffffffffff167fd90c20276b7955800df9b223f244944b25b581f437448b1978aa61d4036b428a600060405161061e91906107f2565b60405180910390a2565b6106306103bd565b15610670576040517f08c379a000000000000000000000000000000000000000000000000000000000815260040161066790610b1e565b60405180910390fd5b6001600060016101000a81548160ff0219169083151502179055506106936106e3565b73ffffffffffffffffffffffffffffffffffffffff167fd90c20276b7955800df9b223f244944b25b581f437448b1978aa61d4036b428a60016040516106d991906107f2565b60405180910390a2565b600033905090565b600080fd5b600073ffffffffffffffffffffffffffffffffffffffff82169050919050565b600061071b826106f0565b9050919050565b61072b81610710565b811461073657600080fd5b50565b60008135905061074881610722565b92915050565b6000819050919050565b6107618161074e565b811461076c57600080fd5b50565b60008135905061077e81610758565b92915050565b60008060006060848603121561079d5761079c6106eb565b5b60006107ab86828701610739565b93505060206107bc86828701610739565b92505060406107cd8682870161076f565b9150509250925092565b60008115159050919050565b6107ec816107d7565b82525050565b600060208201905061080760008301846107e3565b92915050565b600081519050919050565b600082825260208201905092915050565b60005b8381101561084757808201518184015260208101905061082c565b83811115610856576000848401525b50505050565b6000601f19601f8301169050919050565b60006108788261080d565b6108828185610818565b9350610892818560208601610829565b61089b8161085c565b840191505092915050565b600060208201905081810360008301526108c0818461086d565b905092915050565b7f4f6e6c79204c697175696461746f722061646d696e2063616e2063616c6c207460008201527f6869732066756e6374696f6e0000000000000000000000000000000000000000602082015250565b6000610924602c83610818565b915061092f826108c8565b604082019050919050565b6000602082019050818103600083015261095381610917565b9050919050565b7f52652d656e7472616e7420616c65727421000000000000000000000000000000600082015250565b6000610990601183610818565b915061099b8261095a565b602082019050919050565b600060208201905081810360008301526109bf81610983565b9050919050565b6109cf81610710565b82525050565b6109de8161074e565b82525050565b60006040820190506109f960008301856109c6565b610a0660208301846109d5565b9392505050565b610a16816107d7565b8114610a2157600080fd5b50565b600081519050610a3381610a0d565b92915050565b600060208284031215610a4f57610a4e6106eb565b5b6000610a5d84828501610a24565b91505092915050565b7f4e6f742070617573656420737461747573000000000000000000000000000000600082015250565b6000610a9c601183610818565b9150610aa782610a66565b602082019050919050565b60006020820190508181036000830152610acb81610a8f565b9050919050565b7f5061757365642073746174757300000000000000000000000000000000000000600082015250565b6000610b08600d83610818565b9150610b1382610ad2565b602082019050919050565b60006020820190508181036000830152610b3781610afb565b905091905056fe436f6e7472616374206973207061757365642e20546f6b656e207472616e7366657273206172652074656d706f726172696c792064697361626c65642ea26469706673582212202fb2ab211c61660e00f7643b46bbcd9f2b4079b800274e29a0b7859c34a1648f64736f6c63430008090033",
  "immutableReferences": {},
  "source": "// SPDX-License-Identifier: MIT\r\npragma solidity >=0.8.9 <0.9.0;\r\nimport \"./util/Pausable.sol\";\r\nimport \"./util/IBEP20.sol\";\r\ncontract Liquidator is Pausable {\r\n    address adminLiquidator;\r\n    constructor() {\r\n        adminLiquidator = msg.sender;\r\n    }\r\n    \r\n    receive() external payable {\r\n        payable(adminLiquidator).transfer(_msgValue());\r\n    }\r\n    \r\n    fallback() external payable {\r\n        payable(adminLiquidator).transfer(_msgValue());\r\n    }\r\n    \r\n    function transferAnyERC20(address token_,address recipient_,uint256 value_) external returns(bool) {\r\n        IBEP20(token_).transfer(recipient_, value_);\r\n        return true;\r\n    }\r\n\r\n    function pause() external authLiquidator() nonReentrant() {\r\n       _pause();\r\n\t}\r\n\t\r\n\tfunction unpause() external authLiquidator() nonReentrant() {\r\n       _unpause();   \r\n\t}\r\n\r\n\tmodifier authLiquidator() {\r\n\t\trequire(\r\n\t\t\tmsg.sender == adminLiquidator,\r\n\t\t\t\"Only Liquidator admin can call this function\"\r\n\t\t);\r\n\t\t_;\r\n\t}\r\n}",
  "sourcePath": "F:\\workspace\\Open-protocol\\contracts\\Liquidator.sol",
  "compiler": {
    "name": "solc",
    "version": "0.8.9+commit.e5eed63a.Emscripten.clang"
  },
  "schemaVersion": "3.4.3",
  "updatedAt": "2021-09-30T23:52:23.927Z",
  "devdoc": {
    "kind": "dev",
    "methods": {},
    "version": 1
  },
  "userdoc": {
    "kind": "user",
    "methods": {},
    "version": 1
  }
}