{
  "contractName": "Liquidator",
  "abi": [
    {
      "inputs": [
        {
          "internalType": "address",
          "name": "superAdminAddr_",
          "type": "address"
        },
        {
          "internalType": "address",
          "name": "tokenListAddr_",
          "type": "address"
        }
      ],
      "stateMutability": "nonpayable",
      "type": "constructor"
    },
    {
      "anonymous": false,
      "inputs": [
        {
          "indexed": true,
          "internalType": "address",
          "name": "_pauser",
          "type": "address"
        },
        {
          "indexed": false,
          "internalType": "bool",
          "name": "isPaused",
          "type": "bool"
        }
      ],
      "name": "PauseState",
      "type": "event"
    },
    {
      "stateMutability": "payable",
      "type": "fallback"
    },
    {
      "inputs": [],
      "name": "pauseState",
      "outputs": [
        {
          "internalType": "string",
          "name": "",
          "type": "string"
        }
      ],
      "stateMutability": "view",
      "type": "function"
    },
    {
      "inputs": [],
      "name": "paused",
      "outputs": [
        {
          "internalType": "bool",
          "name": "",
          "type": "bool"
        }
      ],
      "stateMutability": "view",
      "type": "function"
    },
    {
      "inputs": [],
      "name": "simpleSwap",
      "outputs": [
        {
          "internalType": "contract IAugustusSwapper",
          "name": "",
          "type": "address"
        }
      ],
      "stateMutability": "view",
      "type": "function"
    },
    {
      "inputs": [],
      "name": "tokenList",
      "outputs": [
        {
          "internalType": "contract ITokenList",
          "name": "",
          "type": "address"
        }
      ],
      "stateMutability": "view",
      "type": "function"
    },
    {
      "stateMutability": "payable",
      "type": "receive"
    },
    {
      "inputs": [
        {
          "internalType": "address",
          "name": "token_",
          "type": "address"
        },
        {
          "internalType": "address",
          "name": "recipient_",
          "type": "address"
        },
        {
          "internalType": "uint256",
          "name": "value_",
          "type": "uint256"
        }
      ],
      "name": "transferAnyERC20",
      "outputs": [
        {
          "internalType": "bool",
          "name": "",
          "type": "bool"
        }
      ],
      "stateMutability": "nonpayable",
      "type": "function"
    },
    {
      "inputs": [
        {
          "internalType": "bytes32",
          "name": "_fromToken",
          "type": "bytes32"
        },
        {
          "internalType": "bytes32",
          "name": "_toToken",
          "type": "bytes32"
        },
        {
          "internalType": "uint256",
          "name": "_fromAmount",
          "type": "uint256"
        }
      ],
      "name": "swap",
      "outputs": [
        {
          "internalType": "uint256",
          "name": "receivedAmount",
          "type": "uint256"
        }
      ],
      "stateMutability": "payable",
      "type": "function"
    },
    {
      "inputs": [],
      "name": "pause",
      "outputs": [],
      "stateMutability": "nonpayable",
      "type": "function"
    },
    {
      "inputs": [],
      "name": "unpause",
      "outputs": [],
      "stateMutability": "nonpayable",
      "type": "function"
    }
  ],
  "bytecode": "0x608060405260008060006101000a81548160ff0219169083151502179055503480156200002b57600080fd5b50604051620016df380380620016df8339818101604052810190620000519190620001fb565b60008060016101000a81548160ff02191690831515021790555081600160006101000a81548173ffffffffffffffffffffffffffffffffffffffff021916908373ffffffffffffffffffffffffffffffffffffffff16021790555033600060026101000a81548173ffffffffffffffffffffffffffffffffffffffff021916908373ffffffffffffffffffffffffffffffffffffffff16021790555080600360006101000a81548173ffffffffffffffffffffffffffffffffffffffff021916908373ffffffffffffffffffffffffffffffffffffffff160217905550600073def171fe48cf0115b1d80b88dc8eab59176fee57905080600260006101000a81548173ffffffffffffffffffffffffffffffffffffffff021916908373ffffffffffffffffffffffffffffffffffffffff16021790555050505062000242565b600080fd5b600073ffffffffffffffffffffffffffffffffffffffff82169050919050565b6000620001c38262000196565b9050919050565b620001d581620001b6565b8114620001e157600080fd5b50565b600081519050620001f581620001ca565b92915050565b6000806040838503121562000215576200021462000191565b5b60006200022585828601620001e4565b92505060206200023885828601620001e4565b9150509250929050565b61148d80620002526000396000f3fe60806040526004361061007f5760003560e01c80638456cb591161004e5780638456cb59146102175780638927e0521461022e5780639e2c58ca14610259578063d711835114610284576100f6565b80633f4ba83a146101685780635b6f547e1461017f5780635c975abb146101bc578063759f626f146101e7576100f6565b366100f657600060029054906101000a900473ffffffffffffffffffffffffffffffffffffffff1673ffffffffffffffffffffffffffffffffffffffff166108fc6100c86102af565b9081150290604051600060405180830381858888f193505050501580156100f3573d6000803e3d6000fd5b50005b600060029054906101000a900473ffffffffffffffffffffffffffffffffffffffff1673ffffffffffffffffffffffffffffffffffffffff166108fc61013a6102af565b9081150290604051600060405180830381858888f19350505050158015610165573d6000803e3d6000fd5b50005b34801561017457600080fd5b5061017d6102b7565b005b34801561018b57600080fd5b506101a660048036038101906101a19190610b1d565b6103d9565b6040516101b39190610b8b565b60405180910390f35b3480156101c857600080fd5b506101d1610474565b6040516101de9190610b8b565b60405180910390f35b61020160048036038101906101fc9190610bdc565b61048a565b60405161020e9190610c3e565b60405180910390f35b34801561022357600080fd5b5061022c610720565b005b34801561023a57600080fd5b50610243610842565b6040516102509190610cb8565b60405180910390f35b34801561026557600080fd5b5061026e610868565b60405161027b9190610cf4565b60405180910390f35b34801561029057600080fd5b5061029961088e565b6040516102a69190610da8565b60405180910390f35b600034905090565b600060029054906101000a900473ffffffffffffffffffffffffffffffffffffffff1673ffffffffffffffffffffffffffffffffffffffff163373ffffffffffffffffffffffffffffffffffffffff1614610347576040517f08c379a000000000000000000000000000000000000000000000000000000000815260040161033e90610e3c565b60405180910390fd5b6000151560008054906101000a900460ff1615151461039b576040517f08c379a000000000000000000000000000000000000000000000000000000000815260040161039290610ea8565b60405180910390fd5b60016000806101000a81548160ff0219169083151502179055506103bd610908565b60008060006101000a81548160ff021916908315150217905550565b60008373ffffffffffffffffffffffffffffffffffffffff1663a9059cbb84846040518363ffffffff1660e01b8152600401610416929190610ed7565b602060405180830381600087803b15801561043057600080fd5b505af1158015610444573d6000803e3d6000fd5b505050506040513d601f19601f820116820180604052508101906104689190610f2c565b50600190509392505050565b60008060019054906101000a900460ff16905090565b6000828414156104cf576040517f08c379a00000000000000000000000000000000000000000000000000000000081526004016104c690610fa5565b60405180910390fd5b6000600360009054906101000a900473ffffffffffffffffffffffffffffffffffffffff1673ffffffffffffffffffffffffffffffffffffffff166380af8664866040518263ffffffff1660e01b815260040161052c9190610fd4565b60206040518083038186803b15801561054457600080fd5b505afa158015610558573d6000803e3d6000fd5b505050506040513d601f19601f8201168201806040525081019061057c9190611004565b90506000600360009054906101000a900473ffffffffffffffffffffffffffffffffffffffff1673ffffffffffffffffffffffffffffffffffffffff166380af8664866040518263ffffffff1660e01b81526004016105db9190610fd4565b60206040518083038186803b1580156105f357600080fd5b505afa158015610607573d6000803e3d6000fd5b505050506040513d601f19601f8201168201806040525081019061062b9190611004565b90506000606080606080600080600260009054906101000a900473ffffffffffffffffffffffffffffffffffffffff1673ffffffffffffffffffffffffffffffffffffffff1663cfc0afeb8a8a8e8b8c8c8a8d8d8c6040518060200160405280600081525060006040518d63ffffffff1660e01b81526004016106b99c9b9a99989796959493929190611223565b602060405180830381600087803b1580156106d357600080fd5b505af11580156106e7573d6000803e3d6000fd5b505050506040513d601f19601f8201168201806040525081019061070b9190611315565b90508099505050505050505050509392505050565b600060029054906101000a900473ffffffffffffffffffffffffffffffffffffffff1673ffffffffffffffffffffffffffffffffffffffff163373ffffffffffffffffffffffffffffffffffffffff16146107b0576040517f08c379a00000000000000000000000000000000000000000000000000000000081526004016107a790610e3c565b60405180910390fd5b6000151560008054906101000a900460ff16151514610804576040517f08c379a00000000000000000000000000000000000000000000000000000000081526004016107fb90610ea8565b60405180910390fd5b60016000806101000a81548160ff0219169083151502179055506108266109c1565b60008060006101000a81548160ff021916908315150217905550565b600260009054906101000a900473ffffffffffffffffffffffffffffffffffffffff1681565b600360009054906101000a900473ffffffffffffffffffffffffffffffffffffffff1681565b606060011515600060019054906101000a900460ff16151514156108cc576040518060600160405280603d815260200161141b603d91399050610905565b6040518060400160405280601681526020017f436f6e7472616374206973206e6f74207061757365640000000000000000000081525090505b90565b610910610474565b61094f576040517f08c379a00000000000000000000000000000000000000000000000000000000081526004016109469061138e565b60405180910390fd5b60008060016101000a81548160ff021916908315150217905550610971610a7c565b73ffffffffffffffffffffffffffffffffffffffff167fd90c20276b7955800df9b223f244944b25b581f437448b1978aa61d4036b428a60006040516109b79190610b8b565b60405180910390a2565b6109c9610474565b15610a09576040517f08c379a0000000000000000000000000000000000000000000000000000000008152600401610a00906113fa565b60405180910390fd5b6001600060016101000a81548160ff021916908315150217905550610a2c610a7c565b73ffffffffffffffffffffffffffffffffffffffff167fd90c20276b7955800df9b223f244944b25b581f437448b1978aa61d4036b428a6001604051610a729190610b8b565b60405180910390a2565b600033905090565b600080fd5b600073ffffffffffffffffffffffffffffffffffffffff82169050919050565b6000610ab482610a89565b9050919050565b610ac481610aa9565b8114610acf57600080fd5b50565b600081359050610ae181610abb565b92915050565b6000819050919050565b610afa81610ae7565b8114610b0557600080fd5b50565b600081359050610b1781610af1565b92915050565b600080600060608486031215610b3657610b35610a84565b5b6000610b4486828701610ad2565b9350506020610b5586828701610ad2565b9250506040610b6686828701610b08565b9150509250925092565b60008115159050919050565b610b8581610b70565b82525050565b6000602082019050610ba06000830184610b7c565b92915050565b6000819050919050565b610bb981610ba6565b8114610bc457600080fd5b50565b600081359050610bd681610bb0565b92915050565b600080600060608486031215610bf557610bf4610a84565b5b6000610c0386828701610bc7565b9350506020610c1486828701610bc7565b9250506040610c2586828701610b08565b9150509250925092565b610c3881610ae7565b82525050565b6000602082019050610c536000830184610c2f565b92915050565b6000819050919050565b6000610c7e610c79610c7484610a89565b610c59565b610a89565b9050919050565b6000610c9082610c63565b9050919050565b6000610ca282610c85565b9050919050565b610cb281610c97565b82525050565b6000602082019050610ccd6000830184610ca9565b92915050565b6000610cde82610c85565b9050919050565b610cee81610cd3565b82525050565b6000602082019050610d096000830184610ce5565b92915050565b600081519050919050565b600082825260208201905092915050565b60005b83811015610d49578082015181840152602081019050610d2e565b83811115610d58576000848401525b50505050565b6000601f19601f8301169050919050565b6000610d7a82610d0f565b610d848185610d1a565b9350610d94818560208601610d2b565b610d9d81610d5e565b840191505092915050565b60006020820190508181036000830152610dc28184610d6f565b905092915050565b7f4f6e6c79204c697175696461746f722061646d696e2063616e2063616c6c207460008201527f6869732066756e6374696f6e0000000000000000000000000000000000000000602082015250565b6000610e26602c83610d1a565b9150610e3182610dca565b604082019050919050565b60006020820190508181036000830152610e5581610e19565b9050919050565b7f52652d656e7472616e7420616c65727421000000000000000000000000000000600082015250565b6000610e92601183610d1a565b9150610e9d82610e5c565b602082019050919050565b60006020820190508181036000830152610ec181610e85565b9050919050565b610ed181610aa9565b82525050565b6000604082019050610eec6000830185610ec8565b610ef96020830184610c2f565b9392505050565b610f0981610b70565b8114610f1457600080fd5b50565b600081519050610f2681610f00565b92915050565b600060208284031215610f4257610f41610a84565b5b6000610f5084828501610f17565b91505092915050565b7f5f66726f6d546f6b656e203d205f746f546f6b656e0000000000000000000000600082015250565b6000610f8f601583610d1a565b9150610f9a82610f59565b602082019050919050565b60006020820190508181036000830152610fbe81610f82565b9050919050565b610fce81610ba6565b82525050565b6000602082019050610fe96000830184610fc5565b92915050565b600081519050610ffe81610abb565b92915050565b60006020828403121561101a57611019610a84565b5b600061102884828501610fef565b91505092915050565b600081519050919050565b600082825260208201905092915050565b6000819050602082019050919050565b61106681610aa9565b82525050565b6000611078838361105d565b60208301905092915050565b6000602082019050919050565b600061109c82611031565b6110a6818561103c565b93506110b18361104d565b8060005b838110156110e25781516110c9888261106c565b97506110d483611084565b9250506001810190506110b5565b5085935050505092915050565b600081519050919050565b600082825260208201905092915050565b6000611116826110ef565b61112081856110fa565b9350611130818560208601610d2b565b61113981610d5e565b840191505092915050565b600081519050919050565b600082825260208201905092915050565b6000819050602082019050919050565b61117981610ae7565b82525050565b600061118b8383611170565b60208301905092915050565b6000602082019050919050565b60006111af82611144565b6111b9818561114f565b93506111c483611160565b8060005b838110156111f55781516111dc888261117f565b97506111e783611197565b9250506001810190506111c8565b5085935050505092915050565b600061120d82610a89565b9050919050565b61121d81611202565b82525050565b600061018082019050611239600083018f610ec8565b611246602083018e610ec8565b611253604083018d610c2f565b611260606083018c610c2f565b61126d608083018b610c2f565b81810360a083015261127f818a611091565b905081810360c0830152611293818961110b565b905081810360e08301526112a781886111a4565b90508181036101008301526112bc81876111a4565b90506112cc610120830186611214565b8181036101408301526112df8185610d6f565b90506112ef610160830184610b7c565b9d9c50505050505050505050505050565b60008151905061130f81610af1565b92915050565b60006020828403121561132b5761132a610a84565b5b600061133984828501611300565b91505092915050565b7f4e6f742070617573656420737461747573000000000000000000000000000000600082015250565b6000611378601183610d1a565b915061138382611342565b602082019050919050565b600060208201905081810360008301526113a78161136b565b9050919050565b7f5061757365642073746174757300000000000000000000000000000000000000600082015250565b60006113e4600d83610d1a565b91506113ef826113ae565b602082019050919050565b60006020820190508181036000830152611413816113d7565b905091905056fe436f6e7472616374206973207061757365642e20546f6b656e207472616e7366657273206172652074656d706f726172696c792064697361626c65642ea26469706673582212208e1c2e222dd182267486f7c0bddcbe0374cf999d33dc168a6bf3dd030567faa564736f6c63430008090033",
  "immutableReferences": {},
  "source": "// SPDX-License-Identifier: MIT\r\npragma solidity >=0.8.9 <0.9.0;\r\nimport \"./util/Pausable.sol\";\r\nimport \"./util/IBEP20.sol\";\r\nimport \"./interfaces/IAugustusSwapper.sol\";\r\nimport \"./interfaces/ITokenList.sol\";\r\n\r\ncontract Liquidator is Pausable {\r\n    address adminLiquidator;\r\n    address superAdminAddress;\r\n  \r\n    IAugustusSwapper public simpleSwap;\r\n    ITokenList public tokenList;\r\n\r\n    constructor(address superAdminAddr_, address tokenListAddr_) {\r\n        superAdminAddress = superAdminAddr_;\r\n        adminLiquidator = msg.sender;\r\n        tokenList = ITokenList(tokenListAddr_);\r\n        IAugustusSwapper _simpleSwap = IAugustusSwapper(0xDEF171Fe48CF0115B1d80b88dc8eAB59176FEe57);\r\n        simpleSwap = _simpleSwap;\r\n    }\r\n    \r\n    receive() external payable {\r\n        payable(adminLiquidator).transfer(_msgValue());\r\n    }\r\n    \r\n    fallback() external payable {\r\n        payable(adminLiquidator).transfer(_msgValue());\r\n    }\r\n    \r\n    function transferAnyERC20(address token_,address recipient_,uint256 value_) \r\n        external returns(bool) \r\n    {\r\n        IBEP20(token_).transfer(recipient_, value_);\r\n        return true;\r\n    }\r\n    \r\n    function swap(bytes32 _fromToken, bytes32 _toToken, uint256 _fromAmount) external payable returns (uint256 receivedAmount) {\r\n\r\n        require(_fromToken != _toToken, \"_fromToken = _toToken\");\r\n\r\n        address addrFromToken = tokenList.getMarketToken2Address(_fromToken);\r\n        address addrToToken = tokenList.getMarketToken2Address(_toToken);\r\n        uint minAmount;\r\n        address[] memory callees;\r\n        uint256[] memory startIndexes;\r\n        uint256[] memory values;\r\n        bytes memory exchangeData;\r\n        address payable beneficiary;\r\n        uint256 _receiveAmount =  simpleSwap.simpleSwap(\r\n            addrFromToken,\r\n            addrToToken,\r\n            _fromAmount,\r\n            minAmount,\r\n            minAmount,\r\n            callees,\r\n            exchangeData,\r\n            startIndexes,\r\n            values,\r\n            beneficiary,\r\n            string(\"\"),\r\n            false\r\n        );\r\n        return _receiveAmount;\r\n    }\r\n\r\n    function pause() external authLiquidator() nonReentrant() {\r\n       _pause();\r\n\t}\r\n\t\r\n\tfunction unpause() external authLiquidator() nonReentrant() {\r\n       _unpause();   \r\n\t}\r\n\r\n\tmodifier authLiquidator() {\r\n\t\trequire(\r\n\t\t\tmsg.sender == adminLiquidator,\r\n\t\t\t\"Only Liquidator admin can call this function\"\r\n\t\t);\r\n\t\t_;\r\n\t}\r\n}",
  "sourcePath": "F:\\workspace\\Open-protocol\\contracts\\Liquidator.sol",
  "compiler": {
    "name": "solc",
    "version": "0.8.9+commit.e5eed63a.Emscripten.clang"
  },
  "schemaVersion": "3.4.3",
  "updatedAt": "2021-10-18T04:43:18.668Z",
  "devdoc": {
    "kind": "dev",
    "methods": {},
    "version": 1
  },
  "userdoc": {
    "kind": "user",
    "methods": {},
    "version": 1
  }
}