{
  "contractName": "Loan",
  "abi": [
    {
      "inputs": [],
      "name": "borrow",
      "outputs": [],
      "stateMutability": "nonpayable",
      "type": "function"
    },
    {
      "inputs": [],
      "name": "permissibleWithdrawal",
      "outputs": [
        {
          "internalType": "bool",
          "name": "",
          "type": "bool"
        }
      ],
      "stateMutability": "nonpayable",
      "type": "function"
    },
    {
      "inputs": [],
      "name": "switchLoanType",
      "outputs": [],
      "stateMutability": "nonpayable",
      "type": "function"
    },
    {
      "inputs": [],
      "name": "currentApr",
      "outputs": [],
      "stateMutability": "nonpayable",
      "type": "function"
    }
  ],
  "bytecode": "0x608060405234801561001057600080fd5b5060f08061001f6000396000f3fe6080604052348015600f57600080fd5b506004361060465760003560e01c80632c64883c14604b5780634f322ae8146053578063e68d356914605b578063f008b21d146063575b600080fd5b6051607d565b005b6059607f565b005b60616081565b005b60696083565b6040516074919060a1565b60405180910390f35b565b565b565b600090565b60008115159050919050565b609b816088565b82525050565b600060208201905060b460008301846094565b9291505056fea2646970667358221220cf2f3a23894b35429529dd695dd8778b850c1a7f6a924767f08b615f98e8916664736f6c63430008080033",
  "immutableReferences": {},
  "source": "// SPDX-License-Identifier: MIT\r\npragma solidity >=0.8.7 <0.9.0;\r\n\r\ncontract Loan {\r\n  function borrow() external {}\r\n  function _borrow() internal {}\r\n\r\n  function permissibleWithdrawal() external returns(bool) {}\r\n  function _permissibleWithdrawal() internal returns(bool) {}\r\n\r\n  function switchLoanType() external {}\r\n  function _switchLoanType() internal {}\r\n\r\n  function currentApr() public  {}\r\n\r\n  function _calcCdr() internal {} // performs a cdr check internally\r\n}",
  "sourcePath": "F:\\workspace\\Open-protocol\\contracts\\Loan.sol",
  "compiler": {
    "name": "solc",
    "version": "0.8.8+commit.dddeac2f.Emscripten.clang"
  },
  "schemaVersion": "3.4.3",
  "updatedAt": "2021-09-29T05:13:34.624Z",
  "devdoc": {
    "kind": "dev",
    "methods": {},
    "version": 1
  },
  "userdoc": {
    "kind": "user",
    "methods": {},
    "version": 1
  }
}