{
  "contractName": "Loan",
  "abi": [
    {
      "inputs": [
        {
          "internalType": "address",
          "name": "tokenListAddr",
          "type": "address"
        },
        {
          "internalType": "address",
          "name": "comptrollerAddr",
          "type": "address"
        },
        {
          "internalType": "address",
          "name": "reserveAddr",
          "type": "address"
        }
      ],
      "stateMutability": "nonpayable",
      "type": "constructor"
    },
    {
      "anonymous": false,
      "inputs": [
        {
          "indexed": true,
          "internalType": "address",
          "name": "_pauser",
          "type": "address"
        },
        {
          "indexed": false,
          "internalType": "bool",
          "name": "isPaused",
          "type": "bool"
        }
      ],
      "name": "PauseState",
      "type": "event"
    },
    {
      "stateMutability": "payable",
      "type": "fallback"
    },
    {
      "inputs": [],
      "name": "pauseState",
      "outputs": [
        {
          "internalType": "string",
          "name": "",
          "type": "string"
        }
      ],
      "stateMutability": "view",
      "type": "function"
    },
    {
      "inputs": [],
      "name": "paused",
      "outputs": [
        {
          "internalType": "bool",
          "name": "",
          "type": "bool"
        }
      ],
      "stateMutability": "view",
      "type": "function"
    },
    {
      "stateMutability": "payable",
      "type": "receive"
    },
    {
      "inputs": [
        {
          "internalType": "address",
          "name": "token_",
          "type": "address"
        },
        {
          "internalType": "address",
          "name": "recipient_",
          "type": "address"
        },
        {
          "internalType": "uint256",
          "name": "value_",
          "type": "uint256"
        }
      ],
      "name": "transferAnyERC20",
      "outputs": [
        {
          "internalType": "bool",
          "name": "",
          "type": "bool"
        }
      ],
      "stateMutability": "nonpayable",
      "type": "function"
    },
    {
      "inputs": [],
      "name": "borrow",
      "outputs": [],
      "stateMutability": "nonpayable",
      "type": "function"
    },
    {
      "inputs": [],
      "name": "permissibleWithdrawal",
      "outputs": [
        {
          "internalType": "bool",
          "name": "",
          "type": "bool"
        }
      ],
      "stateMutability": "nonpayable",
      "type": "function"
    },
    {
      "inputs": [],
      "name": "switchLoanType",
      "outputs": [],
      "stateMutability": "nonpayable",
      "type": "function"
    },
    {
      "inputs": [],
      "name": "currentApr",
      "outputs": [],
      "stateMutability": "nonpayable",
      "type": "function"
    },
    {
      "inputs": [],
      "name": "pause",
      "outputs": [],
      "stateMutability": "nonpayable",
      "type": "function"
    },
    {
      "inputs": [],
      "name": "unpause",
      "outputs": [],
      "stateMutability": "nonpayable",
      "type": "function"
    }
  ],
  "bytecode": "0x608060405260008060006101000a81548160ff02191690831515021790555034801561002a57600080fd5b5060405162000ea238038062000ea2833981810160405281019061004e91906101d7565b60008060016101000a81548160ff02191690831515021790555033600260006101000a81548173ffffffffffffffffffffffffffffffffffffffff021916908373ffffffffffffffffffffffffffffffffffffffff16021790555082600360006101000a81548173ffffffffffffffffffffffffffffffffffffffff021916908373ffffffffffffffffffffffffffffffffffffffff16021790555081600460006101000a81548173ffffffffffffffffffffffffffffffffffffffff021916908373ffffffffffffffffffffffffffffffffffffffff16021790555080600560006101000a81548173ffffffffffffffffffffffffffffffffffffffff021916908373ffffffffffffffffffffffffffffffffffffffff16021790555050505061022a565b600080fd5b600073ffffffffffffffffffffffffffffffffffffffff82169050919050565b60006101a482610179565b9050919050565b6101b481610199565b81146101bf57600080fd5b50565b6000815190506101d1816101ab565b92915050565b6000806000606084860312156101f0576101ef610174565b5b60006101fe868287016101c2565b935050602061020f868287016101c2565b9250506040610220868287016101c2565b9150509250925092565b610c68806200023a6000396000f3fe60806040526004361061008a5760003560e01c80635c975abb116100595780635c975abb146101f55780638456cb5914610220578063d711835114610237578063e68d356914610262578063f008b21d1461027957610101565b80632c64883c146101735780633f4ba83a1461018a5780634f322ae8146101a15780635b6f547e146101b857610101565b3661010157600260009054906101000a900473ffffffffffffffffffffffffffffffffffffffff1673ffffffffffffffffffffffffffffffffffffffff166108fc6100d36102a4565b9081150290604051600060405180830381858888f193505050501580156100fe573d6000803e3d6000fd5b50005b600260009054906101000a900473ffffffffffffffffffffffffffffffffffffffff1673ffffffffffffffffffffffffffffffffffffffff166108fc6101456102a4565b9081150290604051600060405180830381858888f19350505050158015610170573d6000803e3d6000fd5b50005b34801561017f57600080fd5b506101886102ac565b005b34801561019657600080fd5b5061019f6102ae565b005b3480156101ad57600080fd5b506101b66103d0565b005b3480156101c457600080fd5b506101df60048036038101906101da919061083b565b6103d2565b6040516101ec91906108a9565b60405180910390f35b34801561020157600080fd5b5061020a61046d565b60405161021791906108a9565b60405180910390f35b34801561022c57600080fd5b50610235610483565b005b34801561024357600080fd5b5061024c6105a5565b604051610259919061095d565b60405180910390f35b34801561026e57600080fd5b5061027761061f565b005b34801561028557600080fd5b5061028e610621565b60405161029b91906108a9565b60405180910390f35b600034905090565b565b600260009054906101000a900473ffffffffffffffffffffffffffffffffffffffff1673ffffffffffffffffffffffffffffffffffffffff163373ffffffffffffffffffffffffffffffffffffffff161461033e576040517f08c379a0000000000000000000000000000000000000000000000000000000008152600401610335906109f1565b60405180910390fd5b6000151560008054906101000a900460ff16151514610392576040517f08c379a000000000000000000000000000000000000000000000000000000000815260040161038990610a5d565b60405180910390fd5b60016000806101000a81548160ff0219169083151502179055506103b4610626565b60008060006101000a81548160ff021916908315150217905550565b565b60008373ffffffffffffffffffffffffffffffffffffffff1663a9059cbb84846040518363ffffffff1660e01b815260040161040f929190610a9b565b602060405180830381600087803b15801561042957600080fd5b505af115801561043d573d6000803e3d6000fd5b505050506040513d601f19601f820116820180604052508101906104619190610af0565b50600190509392505050565b60008060019054906101000a900460ff16905090565b600260009054906101000a900473ffffffffffffffffffffffffffffffffffffffff1673ffffffffffffffffffffffffffffffffffffffff163373ffffffffffffffffffffffffffffffffffffffff1614610513576040517f08c379a000000000000000000000000000000000000000000000000000000000815260040161050a906109f1565b60405180910390fd5b6000151560008054906101000a900460ff16151514610567576040517f08c379a000000000000000000000000000000000000000000000000000000000815260040161055e90610a5d565b60405180910390fd5b60016000806101000a81548160ff0219169083151502179055506105896106df565b60008060006101000a81548160ff021916908315150217905550565b606060011515600060019054906101000a900460ff16151514156105e3576040518060600160405280603d8152602001610bf6603d9139905061061c565b6040518060400160405280601681526020017f436f6e7472616374206973206e6f74207061757365640000000000000000000081525090505b90565b565b600090565b61062e61046d565b61066d576040517f08c379a000000000000000000000000000000000000000000000000000000000815260040161066490610b69565b60405180910390fd5b60008060016101000a81548160ff02191690831515021790555061068f61079a565b73ffffffffffffffffffffffffffffffffffffffff167fd90c20276b7955800df9b223f244944b25b581f437448b1978aa61d4036b428a60006040516106d591906108a9565b60405180910390a2565b6106e761046d565b15610727576040517f08c379a000000000000000000000000000000000000000000000000000000000815260040161071e90610bd5565b60405180910390fd5b6001600060016101000a81548160ff02191690831515021790555061074a61079a565b73ffffffffffffffffffffffffffffffffffffffff167fd90c20276b7955800df9b223f244944b25b581f437448b1978aa61d4036b428a600160405161079091906108a9565b60405180910390a2565b600033905090565b600080fd5b600073ffffffffffffffffffffffffffffffffffffffff82169050919050565b60006107d2826107a7565b9050919050565b6107e2816107c7565b81146107ed57600080fd5b50565b6000813590506107ff816107d9565b92915050565b6000819050919050565b61081881610805565b811461082357600080fd5b50565b6000813590506108358161080f565b92915050565b600080600060608486031215610854576108536107a2565b5b6000610862868287016107f0565b9350506020610873868287016107f0565b925050604061088486828701610826565b9150509250925092565b60008115159050919050565b6108a38161088e565b82525050565b60006020820190506108be600083018461089a565b92915050565b600081519050919050565b600082825260208201905092915050565b60005b838110156108fe5780820151818401526020810190506108e3565b8381111561090d576000848401525b50505050565b6000601f19601f8301169050919050565b600061092f826108c4565b61093981856108cf565b93506109498185602086016108e0565b61095281610913565b840191505092915050565b600060208201905081810360008301526109778184610924565b905092915050565b7f4f6e6c79204c6f616e2061646d696e2063616e2063616c6c207468697320667560008201527f6e6374696f6e0000000000000000000000000000000000000000000000000000602082015250565b60006109db6026836108cf565b91506109e68261097f565b604082019050919050565b60006020820190508181036000830152610a0a816109ce565b9050919050565b7f52652d656e7472616e7420616c65727421000000000000000000000000000000600082015250565b6000610a476011836108cf565b9150610a5282610a11565b602082019050919050565b60006020820190508181036000830152610a7681610a3a565b9050919050565b610a86816107c7565b82525050565b610a9581610805565b82525050565b6000604082019050610ab06000830185610a7d565b610abd6020830184610a8c565b9392505050565b610acd8161088e565b8114610ad857600080fd5b50565b600081519050610aea81610ac4565b92915050565b600060208284031215610b0657610b056107a2565b5b6000610b1484828501610adb565b91505092915050565b7f4e6f742070617573656420737461747573000000000000000000000000000000600082015250565b6000610b536011836108cf565b9150610b5e82610b1d565b602082019050919050565b60006020820190508181036000830152610b8281610b46565b9050919050565b7f5061757365642073746174757300000000000000000000000000000000000000600082015250565b6000610bbf600d836108cf565b9150610bca82610b89565b602082019050919050565b60006020820190508181036000830152610bee81610bb2565b905091905056fe436f6e7472616374206973207061757365642e20546f6b656e207472616e7366657273206172652074656d706f726172696c792064697361626c65642ea26469706673582212205b8d02a1ede59051bf40b49a380c20ce2af92556c1d2a6ae631751f9217584bf64736f6c63430008090033",
  "immutableReferences": {},
  "source": "// SPDX-License-Identifier: MIT\r\npragma solidity >=0.8.7 <0.9.0;\r\n\r\nimport \"./interfaces/ITokenList.sol\";\r\nimport \"./interfaces/IPassbook.sol\";\r\nimport \"./util/IBEP20.sol\";\r\nimport \"./util/Pausable.sol\";\r\nimport \"./interfaces/IComptroller.sol\";\r\nimport \"./interfaces/IReserve.sol\";\r\n\r\ncontract Loan is Pausable {\r\n\r\n    struct LoanAccount  {\r\n        uint accOpenTime;\r\n        LoanRecords[] outstandingLoans;\r\n        CollateralRecords[] collaterals;\r\n        PayableInterest[] interestRecords;\r\n    }\r\n    struct LoanRecords  {\r\n        uint time; // block.timestamp\r\n        uint id; // since there can be multiple loans of one single asset type, it is necessary to implement  loanid;a\r\n        bytes32 market;\r\n        bytes32 commitment;\r\n        uint amount;\r\n    }\r\n\r\n    struct CollateralisedDeposits   {\r\n        uint time;\r\n        uint id; // since there can be multiple loans of one single asset type, it is necessary to implement  loanid;a\r\n    }\r\n\r\n    struct CollateralRecords    {\r\n        uint time;\r\n        uint id; // since there can be multiple loans of one single asset type, it is necessary to implement  loanid;a\r\n        bytes32 market;\r\n        bytes32 commitment;\r\n        uint amount;\r\n        // uint \r\n\r\n    }\r\n\r\n    struct PayableInterest    {\r\n        uint id; // Id of the loan the interest is being deducted for.\r\n        uint oldLengthAccruedYield; // length of the APY blockNumbers array.\r\n        uint oldBlockNum; // length of the APY blockNumbers array.\r\n        bytes32 market; // market_ this yield is calculated for\r\n        uint accruedInterest; // accruedYield in \r\n        bool timelock; // is timelockApplicalbe or not. Except the flexible deposits, the timelock is applicabel on all the deposits.\r\n        uint timelockValidity; // timelock duration\r\n        uint timelockActivationBlock; // blocknumber when yield withdrawal request was placed.\r\n    }\r\n\r\n\tbytes32 adminLoan;\r\n    address adminLoanAddress;\r\n\r\n    ITokenList markets;\r\n    IComptroller comptroller;\r\n    IReserve reserve;\r\n    // IPassbook passbook;\r\n    IBEP20 token;\r\n\r\n\tconstructor(\r\n        address tokenListAddr,\r\n        address comptrollerAddr,\r\n        address reserveAddr\r\n    )\r\n    {\r\n        adminLoanAddress = msg.sender;\r\n        markets = ITokenList(tokenListAddr);\r\n        comptroller = IComptroller(comptrollerAddr);\r\n        reserve = IReserve(reserveAddr);\r\n    }\r\n\r\n    receive() external payable {\r\n        payable(adminLoanAddress).transfer(_msgValue());\r\n    }\r\n    \r\n    fallback() external payable {\r\n        payable(adminLoanAddress).transfer(_msgValue());\r\n    }\r\n    \r\n    function transferAnyERC20(address token_,address recipient_,uint256 value_) external returns(bool) {\r\n        IBEP20(token_).transfer(recipient_, value_);\r\n        return true;\r\n    }\r\n\r\n\tfunction borrow() external {}\r\n\tfunction _borrow() internal {}\r\n\r\n\tfunction permissibleWithdrawal() external returns(bool) {}\r\n\tfunction _permissibleWithdrawal() internal returns(bool) {}\r\n\r\n\tfunction switchLoanType() external {}\r\n\tfunction _switchLoanType() internal {}\r\n\r\n\tfunction currentApr() public  {}\r\n\r\n\tfunction _calcCdr() internal {} // performs a cdr check internally\r\n    \r\n    function pause() external authLoan() nonReentrant() {\r\n       _pause();\r\n\t}\r\n\t\r\n\tfunction unpause() external authLoan() nonReentrant() {\r\n       _unpause();   \r\n\t}\r\n\r\n    modifier authLoan() {\r\n        require(\r\n            msg.sender == adminLoanAddress,\r\n            \"Only Loan admin can call this function\"\r\n        );\r\n        _;\r\n    }\r\n}",
  "sourcePath": "F:\\workspace\\Open-protocol\\contracts\\Loan.sol",
  "compiler": {
    "name": "solc",
    "version": "0.8.9+commit.e5eed63a.Emscripten.clang"
  },
  "schemaVersion": "3.4.3",
  "updatedAt": "2021-09-30T23:52:23.933Z",
  "devdoc": {
    "kind": "dev",
    "methods": {},
    "version": 1
  },
  "userdoc": {
    "kind": "user",
    "methods": {},
    "version": 1
  }
}