{
  "contractName": "Loan",
  "abi": [
    {
      "inputs": [],
      "name": "borrow",
      "outputs": [],
      "stateMutability": "nonpayable",
      "type": "function"
    },
    {
      "inputs": [],
      "name": "permissibleWithdrawal",
      "outputs": [
        {
          "internalType": "bool",
          "name": "",
          "type": "bool"
        }
      ],
      "stateMutability": "nonpayable",
      "type": "function"
    },
    {
      "inputs": [],
      "name": "switchLoanType",
      "outputs": [],
      "stateMutability": "nonpayable",
      "type": "function"
    },
    {
      "inputs": [],
      "name": "currentApr",
      "outputs": [],
      "stateMutability": "nonpayable",
      "type": "function"
    }
  ],
  "bytecode": "0x608060405234801561001057600080fd5b5060f08061001f6000396000f3fe6080604052348015600f57600080fd5b506004361060465760003560e01c80632c64883c14604b5780634f322ae8146053578063e68d356914605b578063f008b21d146063575b600080fd5b6051607d565b005b6059607f565b005b60616081565b005b60696083565b604051607491906095565b60405180910390f35b565b565b565b600090565b608f8160ae565b82525050565b600060208201905060a860008301846088565b92915050565b6000811515905091905056fea2646970667358221220d2510c9ea14e727c6dc7c6de16c6ae08ffcf8fbda6c2b21858a050dfbd14953f64736f6c63430008070033",
  "immutableReferences": {},
  "source": "// SPDX-License-Identifier: MIT\r\npragma solidity >=0.8.7 <0.9.0;\r\n\r\ncontract Loan {\r\n  function borrow() external {}\r\n  function _borrow() internal {}\r\n\r\n  function permissibleWithdrawal() external returns(bool) {}\r\n  function _permissibleWithdrawal() internal returns(bool) {}\r\n\r\n  function switchLoanType() external {}\r\n  function _switchLoanType() internal {}\r\n\r\n  function currentApr() public  {}\r\n\r\n  function _calcCdr() internal {} // performs a cdr check internally\r\n}",
  "sourcePath": "F:\\workspace\\Open-protocol\\contracts\\Loan.sol",
  "compiler": {
    "name": "solc",
    "version": "0.8.7+commit.e28d00a7.Emscripten.clang"
  },
  "schemaVersion": "3.4.3",
  "updatedAt": "2021-09-27T06:01:02.807Z",
  "devdoc": {
    "kind": "dev",
    "methods": {},
    "version": 1
  },
  "userdoc": {
    "kind": "user",
    "methods": {},
    "version": 1
  }
}