{
  "contractName": "Loan",
  "abi": [
    {
      "inputs": [],
      "stateMutability": "nonpayable",
      "type": "constructor"
    },
    {
      "inputs": [],
      "name": "borrow",
      "outputs": [],
      "stateMutability": "nonpayable",
      "type": "function"
    },
    {
      "inputs": [],
      "name": "permissibleWithdrawal",
      "outputs": [
        {
          "internalType": "bool",
          "name": "",
          "type": "bool"
        }
      ],
      "stateMutability": "nonpayable",
      "type": "function"
    },
    {
      "inputs": [],
      "name": "switchLoanType",
      "outputs": [],
      "stateMutability": "nonpayable",
      "type": "function"
    },
    {
      "inputs": [],
      "name": "currentApr",
      "outputs": [],
      "stateMutability": "nonpayable",
      "type": "function"
    }
  ],
  "bytecode": "0x60806040526000600160146101000a81548160ff021916908315150217905550733e2884d9f6013ac28b0323b81460f49fe8e5f401600260006101000a81548173ffffffffffffffffffffffffffffffffffffffff021916908373ffffffffffffffffffffffffffffffffffffffff160217905550733e2884d9f6013ac28b0323b81460f49fe8e5f401600360006101000a81548173ffffffffffffffffffffffffffffffffffffffff021916908373ffffffffffffffffffffffffffffffffffffffff1602179055503480156100d557600080fd5b5033600160006101000a81548173ffffffffffffffffffffffffffffffffffffffff021916908373ffffffffffffffffffffffffffffffffffffffff16021790555060f0806101256000396000f3fe6080604052348015600f57600080fd5b506004361060465760003560e01c80632c64883c14604b5780634f322ae8146053578063e68d356914605b578063f008b21d146063575b600080fd5b6051607d565b005b6059607f565b005b60616081565b005b60696083565b6040516074919060a1565b60405180910390f35b565b565b565b600090565b60008115159050919050565b609b816088565b82525050565b600060208201905060b460008301846094565b9291505056fea2646970667358221220a5e3f2b64d8668f8f97b5817408a4ab93ffa964b10b4f15b2094e4697b60b5f264736f6c63430008090033",
  "immutableReferences": {},
  "source": "// SPDX-License-Identifier: MIT\r\npragma solidity >=0.8.7 <0.9.0;\r\n\r\nimport \"./TokenList.sol\";\r\nimport \"./Passbook.sol\";\r\nimport \"./util/IBEP20.sol\";\r\nimport \"./Comptroller.sol\";\r\nimport \"./Reserve.sol\";\r\n\r\ncontract Loan {\r\n\r\n\tbytes32 adminLoan;\r\n    address adminLoanAddress;\r\n\r\n    bool isReentrant = false;\r\n\r\n    TokenList markets = TokenList(0x3E2884D9F6013Ac28b0323b81460f49FE8E5f401);\r\n    Comptroller comptroller = Comptroller(0x3E2884D9F6013Ac28b0323b81460f49FE8E5f401);\r\n    Reserve reserve;// = Reserve(0x3E2884D9F6013Ac28b0323b81460f49FE8E5f401);\r\n    Passbook passbook;// = passbook(0x3E2884D9F6013Ac28b0323b81460f49FE8E5f401);\r\n    IBEP20 token;\r\n\r\n\tconstructor() {\r\n        adminLoanAddress = msg.sender;\r\n    }\r\n\tfunction borrow() external {}\r\n\tfunction _borrow() internal {}\r\n\r\n\tfunction permissibleWithdrawal() external returns(bool) {}\r\n\tfunction _permissibleWithdrawal() internal returns(bool) {}\r\n\r\n\tfunction switchLoanType() external {}\r\n\tfunction _switchLoanType() internal {}\r\n\r\n\tfunction currentApr() public  {}\r\n\r\n\tfunction _calcCdr() internal {} // performs a cdr check internally\r\n\r\n\r\n    modifier nonReentrant() {\r\n        require(isReentrant == false, \"Re-entrant alert!\");\r\n        isReentrant = true;\r\n        _;\r\n        isReentrant = false;\r\n    }\r\n\r\n    modifier authLoan() {\r\n        require(\r\n            msg.sender == adminLoanAddress,\r\n            \"Only an admin can call this function\"\r\n        );\r\n        _;\r\n    }\r\n}",
  "sourcePath": "F:\\workspace\\Open-protocol\\contracts\\Loan.sol",
  "compiler": {
    "name": "solc",
    "version": "0.8.9+commit.e5eed63a.Emscripten.clang"
  },
  "schemaVersion": "3.4.3",
  "updatedAt": "2021-09-30T01:03:14.743Z",
  "devdoc": {
    "kind": "dev",
    "methods": {},
    "version": 1
  },
  "userdoc": {
    "kind": "user",
    "methods": {},
    "version": 1
  }
}