{
  "contractName": "OracleOpen",
  "abi": [
    {
      "inputs": [],
      "stateMutability": "nonpayable",
      "type": "constructor"
    },
    {
      "anonymous": false,
      "inputs": [
        {
          "indexed": false,
          "internalType": "string",
          "name": "url",
          "type": "string"
        },
        {
          "indexed": false,
          "internalType": "bytes32",
          "name": "market",
          "type": "bytes32"
        },
        {
          "indexed": false,
          "internalType": "uint256",
          "name": "price",
          "type": "uint256"
        }
      ],
      "name": "OffChainRequest",
      "type": "event"
    },
    {
      "anonymous": false,
      "inputs": [
        {
          "indexed": false,
          "internalType": "string",
          "name": "url",
          "type": "string"
        },
        {
          "indexed": false,
          "internalType": "bytes32",
          "name": "market",
          "type": "bytes32"
        },
        {
          "indexed": false,
          "internalType": "uint256",
          "name": "price",
          "type": "uint256"
        }
      ],
      "name": "UpdatedRequest",
      "type": "event"
    },
    {
      "inputs": [
        {
          "internalType": "string",
          "name": "_url",
          "type": "string"
        },
        {
          "internalType": "bytes32",
          "name": "_market",
          "type": "bytes32"
        },
        {
          "internalType": "uint256",
          "name": "_price",
          "type": "uint256"
        }
      ],
      "name": "newPriceRequest",
      "outputs": [],
      "stateMutability": "nonpayable",
      "type": "function"
    },
    {
      "inputs": [
        {
          "internalType": "string",
          "name": "_url",
          "type": "string"
        },
        {
          "internalType": "bytes32",
          "name": "_market",
          "type": "bytes32"
        },
        {
          "internalType": "uint256",
          "name": "_price",
          "type": "uint256"
        }
      ],
      "name": "updatedChainRequest",
      "outputs": [],
      "stateMutability": "nonpayable",
      "type": "function"
    },
    {
      "inputs": [
        {
          "internalType": "address",
          "name": "account",
          "type": "address"
        },
        {
          "internalType": "bytes32",
          "name": "market",
          "type": "bytes32"
        },
        {
          "internalType": "bytes32",
          "name": "commitment",
          "type": "bytes32"
        },
        {
          "internalType": "uint256",
          "name": "loadId",
          "type": "uint256"
        }
      ],
      "name": "liquidationTrigger",
      "outputs": [],
      "stateMutability": "nonpayable",
      "type": "function"
    }
  ],
  "bytecode": "0x60806040526002805534801561001457600080fd5b5033600160006101000a81548173ffffffffffffffffffffffffffffffffffffffff021916908373ffffffffffffffffffffffffffffffffffffffff160217905550610789806100656000396000f3fe608060405234801561001057600080fd5b50600436106100415760003560e01c806389acc99e146100465780639f436d4514610062578063e03741bb1461007e575b600080fd5b610060600480360381019061005b9190610385565b61009a565b005b61007c60048036038101906100779190610532565b6100a0565b005b61009860048036038101906100939190610532565b610234565b005b50505050565b600060036000848152602001908152602001600020905060018160050160003373ffffffffffffffffffffffffffffffffffffffff1673ffffffffffffffffffffffffffffffffffffffff16815260200190815260200160002054141561022e5760028160050160003373ffffffffffffffffffffffffffffffffffffffff1673ffffffffffffffffffffffffffffffffffffffff16815260200190815260200160002081905550600081600301549050828260040160008381526020019081526020016000208190555060018161017891906105d0565b826003018190555060006001905060005b8281101561022a5760008460040160008381526020019081526020016000205490506000869050808214156102155783806101c390610626565b9450506002548410610214578686600101819055507f4e49529dff1cb07e671ae0dd814e8f55ae9cf8ac71d8e9d955a2fc71fc39c0dd89898960405161020b93929190610715565b60405180910390a15b5b5050808061022290610626565b915050610189565b5050505b50505050565b60006003600084815260200190815260200160002090504281600001819055508281600201819055508181600101819055507fabc097800580332c2ad20e5aee3812876d7a01274c0378d2a56531fdead41f2a84848460405161029993929190610715565b60405180910390a150505050565b6000604051905090565b600080fd5b600080fd5b600073ffffffffffffffffffffffffffffffffffffffff82169050919050565b60006102e6826102bb565b9050919050565b6102f6816102db565b811461030157600080fd5b50565b600081359050610313816102ed565b92915050565b6000819050919050565b61032c81610319565b811461033757600080fd5b50565b60008135905061034981610323565b92915050565b6000819050919050565b6103628161034f565b811461036d57600080fd5b50565b60008135905061037f81610359565b92915050565b6000806000806080858703121561039f5761039e6102b1565b5b60006103ad87828801610304565b94505060206103be8782880161033a565b93505060406103cf8782880161033a565b92505060606103e087828801610370565b91505092959194509250565b600080fd5b600080fd5b6000601f19601f8301169050919050565b7f4e487b7100000000000000000000000000000000000000000000000000000000600052604160045260246000fd5b61043f826103f6565b810181811067ffffffffffffffff8211171561045e5761045d610407565b5b80604052505050565b60006104716102a7565b905061047d8282610436565b919050565b600067ffffffffffffffff82111561049d5761049c610407565b5b6104a6826103f6565b9050602081019050919050565b82818337600083830152505050565b60006104d56104d084610482565b610467565b9050828152602081018484840111156104f1576104f06103f1565b5b6104fc8482856104b3565b509392505050565b600082601f830112610519576105186103ec565b5b81356105298482602086016104c2565b91505092915050565b60008060006060848603121561054b5761054a6102b1565b5b600084013567ffffffffffffffff811115610569576105686102b6565b5b61057586828701610504565b93505060206105868682870161033a565b925050604061059786828701610370565b9150509250925092565b7f4e487b7100000000000000000000000000000000000000000000000000000000600052601160045260246000fd5b60006105db8261034f565b91506105e68361034f565b9250827fffffffffffffffffffffffffffffffffffffffffffffffffffffffffffffffff0382111561061b5761061a6105a1565b5b828201905092915050565b60006106318261034f565b91507fffffffffffffffffffffffffffffffffffffffffffffffffffffffffffffffff821415610664576106636105a1565b5b600182019050919050565b600081519050919050565b600082825260208201905092915050565b60005b838110156106a957808201518184015260208101905061068e565b838111156106b8576000848401525b50505050565b60006106c98261066f565b6106d3818561067a565b93506106e381856020860161068b565b6106ec816103f6565b840191505092915050565b61070081610319565b82525050565b61070f8161034f565b82525050565b6000606082019050818103600083015261072f81866106be565b905061073e60208301856106f7565b61074b6040830184610706565b94935050505056fea2646970667358221220a879a49731010342624121f70d0a860280202a2a7b7b35d9f4f88848f7b2ea0564736f6c63430008080033",
  "immutableReferences": {},
  "source": "// SPDX-License-Identifier: MIT\r\npragma solidity >=0.8.7 <0.9.0;\r\n\r\ncontract OracleOpen {\r\n\r\n    bytes32 adminOpenOracle;\r\n    address adminOpenOracleAddress;\r\n\r\n    uint minConsensus = 2;\r\n\r\n    struct PriceData{\r\n        uint timestamp;\r\n        uint price;\r\n        bytes32 market;\r\n        uint arrivedPrices;\r\n        mapping(uint => uint) response;\r\n        mapping(address => uint) nest;\r\n    }\r\n\r\n    event OffChainRequest (\r\n        string url,\r\n        bytes32 market,\r\n        uint price\r\n    );\r\n\r\n    event UpdatedRequest (\r\n        string url,\r\n        bytes32 market,\r\n        uint price\r\n    );\r\n\r\n    mapping(bytes32 => PriceData) latestPrice;\r\n\r\n    constructor() {\r\n        adminOpenOracleAddress = msg.sender;\r\n        //AccessRegistry.addAdmin()\r\n    }\r\n\r\n    function newPriceRequest (\r\n        string memory _url,\r\n        bytes32 _market,\r\n        uint _price\r\n    )\r\n    public\r\n    {\r\n        PriceData storage r = latestPrice[_market];\r\n        r.timestamp = block.timestamp;\r\n        r.market = _market;\r\n        r.price = _price;\r\n\r\n        emit OffChainRequest (_url, _market, _price);\r\n    }\r\n\r\n    function updatedChainRequest (\r\n        string memory _url,\r\n        bytes32 _market,\r\n        uint _price\r\n    ) \r\n    public \r\n    {\r\n        PriceData storage trackRequest = latestPrice[_market];\r\n\r\n        //Check if the token is supported. In TokenList Contract.\r\n\r\n        if(trackRequest.nest[msg.sender] == 1){\r\n            trackRequest.nest[msg.sender] = 2;\r\n            \r\n            uint tmpI = trackRequest.arrivedPrices;\r\n            trackRequest.response[tmpI] = _price;\r\n            trackRequest.arrivedPrices = tmpI + 1;\r\n            \r\n            uint currentConsensusCount = 1;\r\n            \r\n            for(uint i = 0; i < tmpI; i++){\r\n                uint a = trackRequest.response[i];\r\n                uint b = _price;\r\n\r\n                if(a == b){\r\n                    currentConsensusCount++;\r\n                    if(currentConsensusCount >= minConsensus){\r\n                        trackRequest.price = _price;\r\n                        \r\n                        //Add token to TokenList Contract.\r\n\r\n                        emit UpdatedRequest (_url, _market, _price);\r\n                    }\r\n                }\r\n            }\r\n        }\r\n    }\r\n\r\n    function liquidationTrigger(\r\n        address account, \r\n        bytes32 market,\r\n        bytes32 commitment,\r\n        uint loadId\r\n    ) public\r\n    {\r\n        //Call liquidate() in Loan contract.\r\n    }\r\n\r\n    modifier onlyAdmin(bytes32 role, address account) {\r\n        // require(_hasAdminRole(role, account), \"Role does not exist.\");\r\n        _;\r\n    }\r\n}",
  "sourcePath": "F:\\workspace\\Open-protocol\\contracts\\OracleOpen.sol",
  "compiler": {
    "name": "solc",
    "version": "0.8.8+commit.dddeac2f.Emscripten.clang"
  },
  "schemaVersion": "3.4.3",
  "updatedAt": "2021-09-29T14:39:46.839Z",
  "devdoc": {
    "kind": "dev",
    "methods": {},
    "version": 1
  },
  "userdoc": {
    "kind": "user",
    "methods": {},
    "version": 1
  }
}