{
  "contractName": "OracleOpen",
  "abi": [
    {
      "inputs": [
        {
          "internalType": "address",
          "name": "superAdminAddr_",
          "type": "address"
        }
      ],
      "stateMutability": "nonpayable",
      "type": "constructor"
    },
    {
      "anonymous": false,
      "inputs": [
        {
          "indexed": true,
          "internalType": "address",
          "name": "_pauser",
          "type": "address"
        },
        {
          "indexed": false,
          "internalType": "bool",
          "name": "isPaused",
          "type": "bool"
        }
      ],
      "name": "PauseState",
      "type": "event"
    },
    {
      "stateMutability": "payable",
      "type": "fallback"
    },
    {
      "inputs": [],
      "name": "pauseState",
      "outputs": [
        {
          "internalType": "string",
          "name": "",
          "type": "string"
        }
      ],
      "stateMutability": "view",
      "type": "function"
    },
    {
      "inputs": [],
      "name": "paused",
      "outputs": [
        {
          "internalType": "bool",
          "name": "",
          "type": "bool"
        }
      ],
      "stateMutability": "view",
      "type": "function"
    },
    {
      "stateMutability": "payable",
      "type": "receive"
    },
    {
      "inputs": [
        {
          "internalType": "address",
          "name": "token_",
          "type": "address"
        },
        {
          "internalType": "address",
          "name": "recipient_",
          "type": "address"
        },
        {
          "internalType": "uint256",
          "name": "value_",
          "type": "uint256"
        }
      ],
      "name": "transferAnyERC20",
      "outputs": [
        {
          "internalType": "bool",
          "name": "",
          "type": "bool"
        }
      ],
      "stateMutability": "nonpayable",
      "type": "function"
    },
    {
      "inputs": [],
      "name": "getLatestPrice",
      "outputs": [
        {
          "internalType": "int256",
          "name": "",
          "type": "int256"
        }
      ],
      "stateMutability": "view",
      "type": "function"
    },
    {
      "inputs": [],
      "name": "getLatestPriceBnb",
      "outputs": [
        {
          "internalType": "int256",
          "name": "",
          "type": "int256"
        }
      ],
      "stateMutability": "view",
      "type": "function"
    },
    {
      "inputs": [
        {
          "internalType": "address",
          "name": "account",
          "type": "address"
        },
        {
          "internalType": "uint256",
          "name": "loanId",
          "type": "uint256"
        }
      ],
      "name": "liquidationTrigger",
      "outputs": [],
      "stateMutability": "nonpayable",
      "type": "function"
    },
    {
      "inputs": [],
      "name": "pause",
      "outputs": [],
      "stateMutability": "nonpayable",
      "type": "function"
    },
    {
      "inputs": [],
      "name": "unpause",
      "outputs": [],
      "stateMutability": "nonpayable",
      "type": "function"
    },
    {
      "inputs": [
        {
          "internalType": "address",
          "name": "_loanAddress",
          "type": "address"
        }
      ],
      "name": "setLoanAddress",
      "outputs": [],
      "stateMutability": "nonpayable",
      "type": "function"
    }
  ],
  "bytecode": "0x60806040526000805460ff1916905534801561001a57600080fd5b50604051610a75380380610a75833981016040819052610039916100ae565b6000805461ff0019169055600380546001600160a01b039092166001600160a01b031992831617905560028054821633179055600580548216739326bfa02add2366b30bacb125260af64103133117905560068054909116730567f2323251f0aab15c8dfb1967e4e8a7d42aee1790556100de565b6000602082840312156100c057600080fd5b81516001600160a01b03811681146100d757600080fd5b9392505050565b610988806100ed6000396000f3fe60806040526004361061008a5760003560e01c80638644095811610059578063864409581461015e5780638e15f4731461017e5780639e45576e146101a1578063a972b740146101c1578063d7118351146101d6576100cb565b80633f4ba83a146100e05780635b6f547e146100f75780635c975abb1461012c5780638456cb5914610149576100cb565b366100cb576002546001600160a01b03166108fc345b6040518115909202916000818181858888f193505050501580156100c8573d6000803e3d6000fd5b50005b6002546001600160a01b03166108fc346100a0565b3480156100ec57600080fd5b506100f56101f8565b005b34801561010357600080fd5b50610117610112366004610764565b6102a8565b60405190151581526020015b60405180910390f35b34801561013857600080fd5b50600054610100900460ff16610117565b34801561015557600080fd5b506100f5610339565b34801561016a57600080fd5b506100f56101793660046107a0565b6103d4565b34801561018a57600080fd5b50610193610461565b604051908152602001610123565b3480156101ad57600080fd5b506100f56101bc3660046107ca565b6104ff565b3480156101cd57600080fd5b50610193610560565b3480156101e257600080fd5b506101eb6105b7565b60405161012391906107ec565b6002546001600160a01b031633148061021b57506003546001600160a01b031633145b6102405760405162461bcd60e51b815260040161023790610841565b60405180910390fd5b60005460ff16156102875760405162461bcd60e51b815260206004820152601160248201527052652d656e7472616e7420616c6572742160781b6044820152606401610237565b6000805460ff1916600117905561029c61061f565b6000805460ff19169055565b60405163a9059cbb60e01b81526001600160a01b038381166004830152602482018390526000919085169063a9059cbb90604401602060405180830381600087803b1580156102f657600080fd5b505af115801561030a573d6000803e3d6000fd5b505050506040513d601f19601f8201168201806040525081019061032e9190610889565b506001949350505050565b6002546001600160a01b031633148061035c57506003546001600160a01b031633145b6103785760405162461bcd60e51b815260040161023790610841565b60005460ff16156103bf5760405162461bcd60e51b815260206004820152601160248201527052652d656e7472616e7420616c6572742160781b6044820152606401610237565b6000805460ff1916600117905561029c6106ad565b60048054604051633795dc3560e11b81526001600160a01b038581169382019390935260248101849052911690636f2bb86a90604401602060405180830381600087803b15801561042457600080fd5b505af1158015610438573d6000803e3d6000fd5b505050506040513d601f19601f8201168201806040525081019061045c9190610889565b505050565b600080600080600080600560009054906101000a90046001600160a01b03166001600160a01b031663feaf968c6040518163ffffffff1660e01b815260040160a06040518083038186803b1580156104b857600080fd5b505afa1580156104cc573d6000803e3d6000fd5b505050506040513d601f19601f820116820180604052508101906104f091906108c5565b50919998505050505050505050565b6002546001600160a01b031633148061052257506003546001600160a01b031633145b61053e5760405162461bcd60e51b815260040161023790610841565b600480546001600160a01b0319166001600160a01b0392909216919091179055565b600080600080600080600660009054906101000a90046001600160a01b03166001600160a01b031663feaf968c6040518163ffffffff1660e01b815260040160a06040518083038186803b1580156104b857600080fd5b60005460609060ff610100909104161515600114156105ee576040518060600160405280603d8152602001610916603d9139905090565b5060408051808201909152601681527510dbdb9d1c9858dd081a5cc81b9bdd081c185d5cd95960521b602082015290565b600054610100900460ff1661066a5760405162461bcd60e51b81526020600482015260116024820152704e6f74207061757365642073746174757360781b6044820152606401610237565b6000805461ff001916815560405190815233907fd90c20276b7955800df9b223f244944b25b581f437448b1978aa61d4036b428a906020015b60405180910390a2565b600054610100900460ff16156106f55760405162461bcd60e51b815260206004820152600d60248201526c5061757365642073746174757360981b6044820152606401610237565b6000805461ff00191661010017905561070b3390565b6001600160a01b03167fd90c20276b7955800df9b223f244944b25b581f437448b1978aa61d4036b428a60016040516106a3911515815260200190565b80356001600160a01b038116811461075f57600080fd5b919050565b60008060006060848603121561077957600080fd5b61078284610748565b925061079060208501610748565b9150604084013590509250925092565b600080604083850312156107b357600080fd5b6107bc83610748565b946020939093013593505050565b6000602082840312156107dc57600080fd5b6107e582610748565b9392505050565b600060208083528351808285015260005b81811015610819578581018301518582016040015282016107fd565b8181111561082b576000604083870101525b50601f01601f1916929092016040019392505050565b60208082526028908201527f4f6e6c79204f7261636c652061646d696e2063616e2063616c6c207468697320604082015267333ab731ba34b7b760c11b606082015260800190565b60006020828403121561089b57600080fd5b815180151581146107e557600080fd5b805169ffffffffffffffffffff8116811461075f57600080fd5b600080600080600060a086880312156108dd57600080fd5b6108e6866108ab565b9450602086015193506040860151925060608601519150610909608087016108ab565b9050929550929590935056fe436f6e7472616374206973207061757365642e20546f6b656e207472616e7366657273206172652074656d706f726172696c792064697361626c65642ea26469706673582212207945fc6f782cfb151897be37ae15bd86fd58b58e46af03ec5e2ed122592619d064736f6c63430008090033",
  "immutableReferences": {},
  "source": "// SPDX-License-Identifier: MIT\r\npragma solidity >=0.8.9 <0.9.0;\r\nimport \"./util/Pausable.sol\";\r\nimport \"./mockup/IMockBep20.sol\";\r\n\r\nimport \"./interfaces/AggregatorV3Interface.sol\";\r\nimport \"./interfaces/ILoan.sol\";\r\n\r\ncontract OracleOpen is Pausable {\r\n\r\n    bytes32 adminOpenOracle;\r\n    address adminOpenOracleAddress;\r\n    address superAdminAddress;\r\n    ILoan loan;\r\n    AggregatorV3Interface internal priceFeed;\r\n    AggregatorV3Interface internal priceBnb;\r\n\r\n    constructor(\r\n        address superAdminAddr_\r\n    )\r\n    {\r\n        superAdminAddress = superAdminAddr_;\r\n        adminOpenOracleAddress = msg.sender;\r\n        priceFeed = AggregatorV3Interface(0x9326BFA02ADD2366b30bacB125260Af641031331); // ETH/USD\r\n        priceBnb = AggregatorV3Interface(0x0567F2323251f0Aab15c8dFb1967E4e8A7D42aeE); // BNB / USD\r\n    }\r\n\r\n    receive() external payable {\r\n        payable(adminOpenOracleAddress).transfer(_msgValue());\r\n    }\r\n    \r\n    fallback() external payable {\r\n        payable(adminOpenOracleAddress).transfer(_msgValue());\r\n    }\r\n    \r\n    function transferAnyERC20(address token_,address recipient_,uint256 value_) \r\n        external returns(bool) \r\n    {\r\n        IMockBep20(token_).transfer(recipient_, value_);\r\n        return true;\r\n    }\r\n\r\n    function getLatestPrice() public view returns (int) {\r\n        (\r\n            uint80 roundID, \r\n            int price,\r\n            uint startedAt,\r\n            uint timeStamp,\r\n            uint80 answeredInRound\r\n        ) = priceFeed.latestRoundData();\r\n        return price;\r\n    }\r\n\r\n    function getLatestPriceBnb() public view returns (int) {\r\n        (\r\n            uint80 roundID, \r\n            int price,\r\n            uint startedAt,\r\n            uint timeStamp,\r\n            uint80 answeredInRound\r\n        ) = priceBnb.latestRoundData();\r\n        return price;\r\n    }\r\n\r\n    function liquidationTrigger(\r\n        address account, \r\n        uint loanId\r\n    ) public\r\n    {\r\n        loan.liquidation(account, loanId);\r\n    }\r\n\r\n    function pause() external onlyAdmin() nonReentrant() {\r\n       _pause();\r\n\t}\r\n\t\r\n\tfunction unpause() external onlyAdmin() nonReentrant() {\r\n       _unpause();   \r\n\t}\r\n\r\n    function setLoanAddress(address _loanAddress) public onlyAdmin {\r\n        loan = ILoan(_loanAddress);\r\n    }\r\n\r\n    modifier onlyAdmin() {\r\n        require(msg.sender == adminOpenOracleAddress || \r\n            msg.sender == superAdminAddress,\r\n            \"Only Oracle admin can call this function\"\r\n        );\r\n        _;\r\n    }\r\n}\r\n",
  "sourcePath": "F:\\workspace\\Open-protocol\\contracts\\OracleOpen.sol",
  "compiler": {
    "name": "solc",
    "version": "0.8.9+commit.e5eed63a.Emscripten.clang"
  },
  "schemaVersion": "3.4.3",
  "updatedAt": "2021-10-22T12:07:31.258Z",
  "devdoc": {
    "kind": "dev",
    "methods": {},
    "version": 1
  },
  "userdoc": {
    "kind": "user",
    "methods": {},
    "version": 1
  }
}