{
  "contractName": "OracleOpen",
  "abi": [
    {
      "inputs": [
        {
          "internalType": "address",
          "name": "accessRegistryAddr_",
          "type": "address"
        }
      ],
      "stateMutability": "nonpayable",
      "type": "constructor"
    },
    {
      "anonymous": false,
      "inputs": [
        {
          "indexed": false,
          "internalType": "string",
          "name": "url",
          "type": "string"
        },
        {
          "indexed": false,
          "internalType": "bytes32",
          "name": "market",
          "type": "bytes32"
        },
        {
          "indexed": false,
          "internalType": "uint256",
          "name": "price",
          "type": "uint256"
        }
      ],
      "name": "OffChainRequest",
      "type": "event"
    },
    {
      "anonymous": false,
      "inputs": [
        {
          "indexed": true,
          "internalType": "address",
          "name": "_pauser",
          "type": "address"
        },
        {
          "indexed": false,
          "internalType": "bool",
          "name": "isPaused",
          "type": "bool"
        }
      ],
      "name": "PauseState",
      "type": "event"
    },
    {
      "anonymous": false,
      "inputs": [
        {
          "indexed": false,
          "internalType": "bytes32",
          "name": "market",
          "type": "bytes32"
        },
        {
          "indexed": false,
          "internalType": "uint256",
          "name": "price",
          "type": "uint256"
        }
      ],
      "name": "UpdatedRequest",
      "type": "event"
    },
    {
      "stateMutability": "payable",
      "type": "fallback"
    },
    {
      "inputs": [],
      "name": "pauseState",
      "outputs": [
        {
          "internalType": "string",
          "name": "",
          "type": "string"
        }
      ],
      "stateMutability": "view",
      "type": "function"
    },
    {
      "inputs": [],
      "name": "paused",
      "outputs": [
        {
          "internalType": "bool",
          "name": "",
          "type": "bool"
        }
      ],
      "stateMutability": "view",
      "type": "function"
    },
    {
      "stateMutability": "payable",
      "type": "receive"
    },
    {
      "inputs": [
        {
          "internalType": "address",
          "name": "token_",
          "type": "address"
        },
        {
          "internalType": "address",
          "name": "recipient_",
          "type": "address"
        },
        {
          "internalType": "uint256",
          "name": "value_",
          "type": "uint256"
        }
      ],
      "name": "transferAnyERC20",
      "outputs": [
        {
          "internalType": "bool",
          "name": "",
          "type": "bool"
        }
      ],
      "stateMutability": "nonpayable",
      "type": "function"
    },
    {
      "inputs": [
        {
          "internalType": "string",
          "name": "_url",
          "type": "string"
        },
        {
          "internalType": "bytes32",
          "name": "_market",
          "type": "bytes32"
        },
        {
          "internalType": "uint256",
          "name": "_price",
          "type": "uint256"
        }
      ],
      "name": "newPriceRequest",
      "outputs": [],
      "stateMutability": "nonpayable",
      "type": "function"
    },
    {
      "inputs": [
        {
          "internalType": "bytes32",
          "name": "_market",
          "type": "bytes32"
        },
        {
          "internalType": "uint256",
          "name": "_price",
          "type": "uint256"
        }
      ],
      "name": "updatedChainRequest",
      "outputs": [],
      "stateMutability": "nonpayable",
      "type": "function"
    },
    {
      "inputs": [
        {
          "internalType": "address",
          "name": "account",
          "type": "address"
        },
        {
          "internalType": "bytes32",
          "name": "market",
          "type": "bytes32"
        },
        {
          "internalType": "bytes32",
          "name": "commitment",
          "type": "bytes32"
        },
        {
          "internalType": "uint256",
          "name": "loadId",
          "type": "uint256"
        }
      ],
      "name": "liquidationTrigger",
      "outputs": [],
      "stateMutability": "nonpayable",
      "type": "function"
    },
    {
      "inputs": [],
      "name": "pause",
      "outputs": [],
      "stateMutability": "nonpayable",
      "type": "function"
    },
    {
      "inputs": [],
      "name": "unpause",
      "outputs": [],
      "stateMutability": "nonpayable",
      "type": "function"
    }
  ],
  "bytecode": "0x608060405260008060006101000a81548160ff02191690831515021790555060026004553480156200003057600080fd5b50604051620014f0380380620014f083398181016040528101906200005691906200021a565b60008060016101000a81548160ff02191690831515021790555080600360006101000a81548173ffffffffffffffffffffffffffffffffffffffff021916908373ffffffffffffffffffffffffffffffffffffffff16021790555033600260006101000a81548173ffffffffffffffffffffffffffffffffffffffff021916908373ffffffffffffffffffffffffffffffffffffffff160217905550600360009054906101000a900473ffffffffffffffffffffffffffffffffffffffff1673ffffffffffffffffffffffffffffffffffffffff16633d58a2d8600154600260009054906101000a900473ffffffffffffffffffffffffffffffffffffffff166040518363ffffffff1660e01b81526004016200017592919062000278565b600060405180830381600087803b1580156200019057600080fd5b505af1158015620001a5573d6000803e3d6000fd5b5050505050620002a5565b600080fd5b600073ffffffffffffffffffffffffffffffffffffffff82169050919050565b6000620001e282620001b5565b9050919050565b620001f481620001d5565b81146200020057600080fd5b50565b6000815190506200021481620001e9565b92915050565b600060208284031215620002335762000232620001b0565b5b6000620002438482850162000203565b91505092915050565b6000819050919050565b62000261816200024c565b82525050565b6200027281620001d5565b82525050565b60006040820190506200028f600083018562000256565b6200029e602083018462000267565b9392505050565b61123b80620002b56000396000f3fe60806040526004361061007f5760003560e01c806389acc99e1161004e57806389acc99e146101fe578063d711835114610227578063e03741bb14610252578063f33f63601461027b576100f6565b80633f4ba83a146101685780635b6f547e1461017f5780635c975abb146101bc5780638456cb59146101e7576100f6565b366100f657600260009054906101000a900473ffffffffffffffffffffffffffffffffffffffff1673ffffffffffffffffffffffffffffffffffffffff166108fc6100c86102a4565b9081150290604051600060405180830381858888f193505050501580156100f3573d6000803e3d6000fd5b50005b600260009054906101000a900473ffffffffffffffffffffffffffffffffffffffff1673ffffffffffffffffffffffffffffffffffffffff166108fc61013a6102a4565b9081150290604051600060405180830381858888f19350505050158015610165573d6000803e3d6000fd5b50005b34801561017457600080fd5b5061017d6102ac565b005b34801561018b57600080fd5b506101a660048036038101906101a19190610a49565b6103ce565b6040516101b39190610ab7565b60405180910390f35b3480156101c857600080fd5b506101d1610469565b6040516101de9190610ab7565b60405180910390f35b3480156101f357600080fd5b506101fc61047f565b005b34801561020a57600080fd5b5061022560048036038101906102209190610b08565b6105a1565b005b34801561023357600080fd5b5061023c6105a7565b6040516102499190610c08565b60405180910390f35b34801561025e57600080fd5b5061027960048036038101906102749190610d5f565b610621565b005b34801561028757600080fd5b506102a2600480360381019061029d9190610dce565b610694565b005b600034905090565b600260009054906101000a900473ffffffffffffffffffffffffffffffffffffffff1673ffffffffffffffffffffffffffffffffffffffff163373ffffffffffffffffffffffffffffffffffffffff161461033c576040517f08c379a000000000000000000000000000000000000000000000000000000000815260040161033390610e80565b60405180910390fd5b6000151560008054906101000a900460ff16151514610390576040517f08c379a000000000000000000000000000000000000000000000000000000000815260040161038790610eec565b60405180910390fd5b60016000806101000a81548160ff0219169083151502179055506103b2610825565b60008060006101000a81548160ff021916908315150217905550565b60008373ffffffffffffffffffffffffffffffffffffffff1663a9059cbb84846040518363ffffffff1660e01b815260040161040b929190610f2a565b602060405180830381600087803b15801561042557600080fd5b505af1158015610439573d6000803e3d6000fd5b505050506040513d601f19601f8201168201806040525081019061045d9190610f7f565b50600190509392505050565b60008060019054906101000a900460ff16905090565b600260009054906101000a900473ffffffffffffffffffffffffffffffffffffffff1673ffffffffffffffffffffffffffffffffffffffff163373ffffffffffffffffffffffffffffffffffffffff161461050f576040517f08c379a000000000000000000000000000000000000000000000000000000000815260040161050690610e80565b60405180910390fd5b6000151560008054906101000a900460ff16151514610563576040517f08c379a000000000000000000000000000000000000000000000000000000000815260040161055a90610eec565b60405180910390fd5b60016000806101000a81548160ff0219169083151502179055506105856108de565b60008060006101000a81548160ff021916908315150217905550565b50505050565b606060011515600060019054906101000a900460ff16151514156105e5576040518060600160405280603d81526020016111c9603d9139905061061e565b6040518060400160405280601681526020017f436f6e7472616374206973206e6f74207061757365640000000000000000000081525090505b90565b60006005600084815260200190815260200160002090504281600001819055508281600201819055508181600101819055507fabc097800580332c2ad20e5aee3812876d7a01274c0378d2a56531fdead41f2a84848460405161068693929190610fbb565b60405180910390a150505050565b600060056000848152602001908152602001600020905060018160050160003373ffffffffffffffffffffffffffffffffffffffff1673ffffffffffffffffffffffffffffffffffffffff1681526020019081526020016000205414156108205760028160050160003373ffffffffffffffffffffffffffffffffffffffff1673ffffffffffffffffffffffffffffffffffffffff16815260200190815260200160002081905550600081600301549050828260040160008381526020019081526020016000208190555060018161076c9190611028565b826003018190555060006001905060005b8281101561081c5760008460040160008381526020019081526020016000205490506000869050808214156108075783806107b79061107e565b9450506004548410610806578686600101819055507ffef1d1cce38b7b8276845aa1538767e30b69feae9472b1abebe38130888dbf9b88886040516107fd9291906110c7565b60405180910390a15b5b505080806108149061107e565b91505061077d565b5050505b505050565b61082d610469565b61086c576040517f08c379a00000000000000000000000000000000000000000000000000000000081526004016108639061113c565b60405180910390fd5b60008060016101000a81548160ff02191690831515021790555061088e610999565b73ffffffffffffffffffffffffffffffffffffffff167fd90c20276b7955800df9b223f244944b25b581f437448b1978aa61d4036b428a60006040516108d49190610ab7565b60405180910390a2565b6108e6610469565b15610926576040517f08c379a000000000000000000000000000000000000000000000000000000000815260040161091d906111a8565b60405180910390fd5b6001600060016101000a81548160ff021916908315150217905550610949610999565b73ffffffffffffffffffffffffffffffffffffffff167fd90c20276b7955800df9b223f244944b25b581f437448b1978aa61d4036b428a600160405161098f9190610ab7565b60405180910390a2565b600033905090565b6000604051905090565b600080fd5b600080fd5b600073ffffffffffffffffffffffffffffffffffffffff82169050919050565b60006109e0826109b5565b9050919050565b6109f0816109d5565b81146109fb57600080fd5b50565b600081359050610a0d816109e7565b92915050565b6000819050919050565b610a2681610a13565b8114610a3157600080fd5b50565b600081359050610a4381610a1d565b92915050565b600080600060608486031215610a6257610a616109ab565b5b6000610a70868287016109fe565b9350506020610a81868287016109fe565b9250506040610a9286828701610a34565b9150509250925092565b60008115159050919050565b610ab181610a9c565b82525050565b6000602082019050610acc6000830184610aa8565b92915050565b6000819050919050565b610ae581610ad2565b8114610af057600080fd5b50565b600081359050610b0281610adc565b92915050565b60008060008060808587031215610b2257610b216109ab565b5b6000610b30878288016109fe565b9450506020610b4187828801610af3565b9350506040610b5287828801610af3565b9250506060610b6387828801610a34565b91505092959194509250565b600081519050919050565b600082825260208201905092915050565b60005b83811015610ba9578082015181840152602081019050610b8e565b83811115610bb8576000848401525b50505050565b6000601f19601f8301169050919050565b6000610bda82610b6f565b610be48185610b7a565b9350610bf4818560208601610b8b565b610bfd81610bbe565b840191505092915050565b60006020820190508181036000830152610c228184610bcf565b905092915050565b600080fd5b600080fd5b7f4e487b7100000000000000000000000000000000000000000000000000000000600052604160045260246000fd5b610c6c82610bbe565b810181811067ffffffffffffffff82111715610c8b57610c8a610c34565b5b80604052505050565b6000610c9e6109a1565b9050610caa8282610c63565b919050565b600067ffffffffffffffff821115610cca57610cc9610c34565b5b610cd382610bbe565b9050602081019050919050565b82818337600083830152505050565b6000610d02610cfd84610caf565b610c94565b905082815260208101848484011115610d1e57610d1d610c2f565b5b610d29848285610ce0565b509392505050565b600082601f830112610d4657610d45610c2a565b5b8135610d56848260208601610cef565b91505092915050565b600080600060608486031215610d7857610d776109ab565b5b600084013567ffffffffffffffff811115610d9657610d956109b0565b5b610da286828701610d31565b9350506020610db386828701610af3565b9250506040610dc486828701610a34565b9150509250925092565b60008060408385031215610de557610de46109ab565b5b6000610df385828601610af3565b9250506020610e0485828601610a34565b9150509250929050565b7f4f6e6c79204f7261636c652061646d696e2063616e2063616c6c20746869732060008201527f66756e6374696f6e000000000000000000000000000000000000000000000000602082015250565b6000610e6a602883610b7a565b9150610e7582610e0e565b604082019050919050565b60006020820190508181036000830152610e9981610e5d565b9050919050565b7f52652d656e7472616e7420616c65727421000000000000000000000000000000600082015250565b6000610ed6601183610b7a565b9150610ee182610ea0565b602082019050919050565b60006020820190508181036000830152610f0581610ec9565b9050919050565b610f15816109d5565b82525050565b610f2481610a13565b82525050565b6000604082019050610f3f6000830185610f0c565b610f4c6020830184610f1b565b9392505050565b610f5c81610a9c565b8114610f6757600080fd5b50565b600081519050610f7981610f53565b92915050565b600060208284031215610f9557610f946109ab565b5b6000610fa384828501610f6a565b91505092915050565b610fb581610ad2565b82525050565b60006060820190508181036000830152610fd58186610bcf565b9050610fe46020830185610fac565b610ff16040830184610f1b565b949350505050565b7f4e487b7100000000000000000000000000000000000000000000000000000000600052601160045260246000fd5b600061103382610a13565b915061103e83610a13565b9250827fffffffffffffffffffffffffffffffffffffffffffffffffffffffffffffffff0382111561107357611072610ff9565b5b828201905092915050565b600061108982610a13565b91507fffffffffffffffffffffffffffffffffffffffffffffffffffffffffffffffff8214156110bc576110bb610ff9565b5b600182019050919050565b60006040820190506110dc6000830185610fac565b6110e96020830184610f1b565b9392505050565b7f4e6f742070617573656420737461747573000000000000000000000000000000600082015250565b6000611126601183610b7a565b9150611131826110f0565b602082019050919050565b6000602082019050818103600083015261115581611119565b9050919050565b7f5061757365642073746174757300000000000000000000000000000000000000600082015250565b6000611192600d83610b7a565b915061119d8261115c565b602082019050919050565b600060208201905081810360008301526111c181611185565b905091905056fe436f6e7472616374206973207061757365642e20546f6b656e207472616e7366657273206172652074656d706f726172696c792064697361626c65642ea2646970667358221220216bc7e0ddd65b348ffe3c811436df3ba0b17b59c0df6cfb0c16e7d4cbd6409c64736f6c63430008090033",
  "immutableReferences": {},
  "source": "// SPDX-License-Identifier: MIT\r\npragma solidity >=0.8.7 <0.9.0;\r\nimport \"./util/Pausable.sol\";\r\nimport \"./util/IBEP20.sol\";\r\nimport \"./interfaces/IAccessRegistry.sol\";\r\n\r\ncontract OracleOpen is Pausable {\r\n\r\n    bytes32 adminOpenOracle;\r\n    address adminOpenOracleAddress;\r\n    IAccessRegistry accessRegistry;\r\n\r\n    uint minConsensus = 2;\r\n\r\n    struct PriceData{\r\n        uint timestamp;\r\n        uint price;\r\n        bytes32 market;\r\n        uint arrivedPrices;\r\n        mapping(uint => uint) response;\r\n        mapping(address => uint) nest;\r\n    }\r\n\r\n    event OffChainRequest (\r\n        string url,\r\n        bytes32 market,\r\n        uint price\r\n    );\r\n\r\n    event UpdatedRequest (\r\n        bytes32 market,\r\n        uint price\r\n    );\r\n\r\n    mapping(bytes32 => PriceData) latestPrice;\r\n\r\n    constructor(address accessRegistryAddr_) {\r\n        accessRegistry = IAccessRegistry(accessRegistryAddr_);\r\n        adminOpenOracleAddress = msg.sender;\r\n        accessRegistry.addAdminRole(adminOpenOracle, adminOpenOracleAddress);\r\n    }\r\n\r\n    receive() external payable {\r\n        payable(adminOpenOracleAddress).transfer(_msgValue());\r\n    }\r\n    \r\n    fallback() external payable {\r\n        payable(adminOpenOracleAddress).transfer(_msgValue());\r\n    }\r\n    \r\n    function transferAnyERC20(address token_,address recipient_,uint256 value_) external returns(bool) {\r\n        IBEP20(token_).transfer(recipient_, value_);\r\n        return true;\r\n    }\r\n\r\n    function newPriceRequest (\r\n        string memory _url,\r\n        bytes32 _market,\r\n        uint _price\r\n    )\r\n    external\r\n    {\r\n        PriceData storage r = latestPrice[_market];\r\n        r.timestamp = block.timestamp;\r\n        r.market = _market;\r\n        r.price = _price;\r\n\r\n        emit OffChainRequest (_url, _market, _price);\r\n    }\r\n\r\n    function updatedChainRequest (\r\n        bytes32 _market,\r\n        uint _price\r\n    ) \r\n    external \r\n    {\r\n        PriceData storage trackRequest = latestPrice[_market];\r\n\r\n        //Check if the token is supported. In TokenList Contract.\r\n\r\n        if(trackRequest.nest[msg.sender] == 1){\r\n            trackRequest.nest[msg.sender] = 2;\r\n            \r\n            uint tmpI = trackRequest.arrivedPrices;\r\n            trackRequest.response[tmpI] = _price;\r\n            trackRequest.arrivedPrices = tmpI + 1;\r\n            \r\n            uint currentConsensusCount = 1;\r\n            \r\n            for(uint i = 0; i < tmpI; i++){\r\n                uint a = trackRequest.response[i];\r\n                uint b = _price;\r\n\r\n                if(a == b){\r\n                    currentConsensusCount++;\r\n                    if(currentConsensusCount >= minConsensus){\r\n                        trackRequest.price = _price;\r\n                        \r\n                        //Add token to TokenList Contract.\r\n\r\n                        emit UpdatedRequest (_market, _price);\r\n                    }\r\n                }\r\n            }\r\n        }\r\n    }\r\n\r\n    function liquidationTrigger(\r\n        address account, \r\n        bytes32 market,\r\n        bytes32 commitment,\r\n        uint loadId\r\n    ) public\r\n    {\r\n        //Call liquidate() in Loan contract.\r\n    }\r\n\r\n    function pause() external onlyAdmin() nonReentrant() {\r\n       _pause();\r\n\t}\r\n\t\r\n\tfunction unpause() external onlyAdmin() nonReentrant() {\r\n       _unpause();   \r\n\t}\r\n\r\n    modifier onlyAdmin() {\r\n        require(msg.sender == adminOpenOracleAddress,\r\n            \"Only Oracle admin can call this function\");\r\n        _;\r\n    }\r\n\r\n\r\n}\r\n",
  "sourcePath": "F:\\workspace\\Open-protocol\\contracts\\OracleOpen.sol",
  "compiler": {
    "name": "solc",
    "version": "0.8.9+commit.e5eed63a.Emscripten.clang"
  },
  "schemaVersion": "3.4.3",
  "updatedAt": "2021-09-30T23:52:23.945Z",
  "devdoc": {
    "kind": "dev",
    "methods": {},
    "version": 1
  },
  "userdoc": {
    "kind": "user",
    "methods": {},
    "version": 1
  }
}