{
  "contractName": "OracleOpen",
  "abi": [
    {
      "inputs": [],
      "stateMutability": "nonpayable",
      "type": "constructor"
    },
    {
      "anonymous": false,
      "inputs": [
        {
          "indexed": false,
          "internalType": "string",
          "name": "url",
          "type": "string"
        },
        {
          "indexed": false,
          "internalType": "bytes32",
          "name": "market",
          "type": "bytes32"
        },
        {
          "indexed": false,
          "internalType": "uint256",
          "name": "price",
          "type": "uint256"
        }
      ],
      "name": "OffChainRequest",
      "type": "event"
    },
    {
      "anonymous": false,
      "inputs": [
        {
          "indexed": false,
          "internalType": "bytes32",
          "name": "market",
          "type": "bytes32"
        },
        {
          "indexed": false,
          "internalType": "uint256",
          "name": "price",
          "type": "uint256"
        }
      ],
      "name": "UpdatedRequest",
      "type": "event"
    },
    {
      "inputs": [
        {
          "internalType": "string",
          "name": "_url",
          "type": "string"
        },
        {
          "internalType": "bytes32",
          "name": "_market",
          "type": "bytes32"
        },
        {
          "internalType": "uint256",
          "name": "_price",
          "type": "uint256"
        }
      ],
      "name": "newPriceRequest",
      "outputs": [],
      "stateMutability": "nonpayable",
      "type": "function"
    },
    {
      "inputs": [
        {
          "internalType": "bytes32",
          "name": "_market",
          "type": "bytes32"
        },
        {
          "internalType": "uint256",
          "name": "_price",
          "type": "uint256"
        }
      ],
      "name": "updatedChainRequest",
      "outputs": [],
      "stateMutability": "nonpayable",
      "type": "function"
    },
    {
      "inputs": [
        {
          "internalType": "address",
          "name": "account",
          "type": "address"
        },
        {
          "internalType": "bytes32",
          "name": "market",
          "type": "bytes32"
        },
        {
          "internalType": "bytes32",
          "name": "commitment",
          "type": "bytes32"
        },
        {
          "internalType": "uint256",
          "name": "loadId",
          "type": "uint256"
        }
      ],
      "name": "liquidationTrigger",
      "outputs": [],
      "stateMutability": "nonpayable",
      "type": "function"
    }
  ],
  "bytecode": "0x60806040526002805534801561001457600080fd5b5033600160006101000a81548173ffffffffffffffffffffffffffffffffffffffff021916908373ffffffffffffffffffffffffffffffffffffffff1602179055506107ef806100656000396000f3fe608060405234801561001057600080fd5b50600436106100415760003560e01c806389acc99e14610046578063e03741bb14610062578063f33f63601461007e575b600080fd5b610060600480360381019061005b9190610382565b61009a565b005b61007c6004803603810190610077919061052f565b6100a0565b005b6100986004803603810190610093919061059e565b610113565b005b50505050565b60006003600084815260200190815260200160002090504281600001819055508281600201819055508181600101819055507fabc097800580332c2ad20e5aee3812876d7a01274c0378d2a56531fdead41f2a84848460405161010593929190610684565b60405180910390a150505050565b600060036000848152602001908152602001600020905060018160050160003373ffffffffffffffffffffffffffffffffffffffff1673ffffffffffffffffffffffffffffffffffffffff16815260200190815260200160002054141561029f5760028160050160003373ffffffffffffffffffffffffffffffffffffffff1673ffffffffffffffffffffffffffffffffffffffff1681526020019081526020016000208190555060008160030154905082826004016000838152602001908152602001600020819055506001816101eb91906106f1565b826003018190555060006001905060005b8281101561029b57600084600401600083815260200190815260200160002054905060008690508082141561028657838061023690610747565b9450506002548410610285578686600101819055507ffef1d1cce38b7b8276845aa1538767e30b69feae9472b1abebe38130888dbf9b888860405161027c929190610790565b60405180910390a15b5b5050808061029390610747565b9150506101fc565b5050505b505050565b6000604051905090565b600080fd5b600080fd5b600073ffffffffffffffffffffffffffffffffffffffff82169050919050565b60006102e3826102b8565b9050919050565b6102f3816102d8565b81146102fe57600080fd5b50565b600081359050610310816102ea565b92915050565b6000819050919050565b61032981610316565b811461033457600080fd5b50565b60008135905061034681610320565b92915050565b6000819050919050565b61035f8161034c565b811461036a57600080fd5b50565b60008135905061037c81610356565b92915050565b6000806000806080858703121561039c5761039b6102ae565b5b60006103aa87828801610301565b94505060206103bb87828801610337565b93505060406103cc87828801610337565b92505060606103dd8782880161036d565b91505092959194509250565b600080fd5b600080fd5b6000601f19601f8301169050919050565b7f4e487b7100000000000000000000000000000000000000000000000000000000600052604160045260246000fd5b61043c826103f3565b810181811067ffffffffffffffff8211171561045b5761045a610404565b5b80604052505050565b600061046e6102a4565b905061047a8282610433565b919050565b600067ffffffffffffffff82111561049a57610499610404565b5b6104a3826103f3565b9050602081019050919050565b82818337600083830152505050565b60006104d26104cd8461047f565b610464565b9050828152602081018484840111156104ee576104ed6103ee565b5b6104f98482856104b0565b509392505050565b600082601f830112610516576105156103e9565b5b81356105268482602086016104bf565b91505092915050565b600080600060608486031215610548576105476102ae565b5b600084013567ffffffffffffffff811115610566576105656102b3565b5b61057286828701610501565b935050602061058386828701610337565b92505060406105948682870161036d565b9150509250925092565b600080604083850312156105b5576105b46102ae565b5b60006105c385828601610337565b92505060206105d48582860161036d565b9150509250929050565b600081519050919050565b600082825260208201905092915050565b60005b838110156106185780820151818401526020810190506105fd565b83811115610627576000848401525b50505050565b6000610638826105de565b61064281856105e9565b93506106528185602086016105fa565b61065b816103f3565b840191505092915050565b61066f81610316565b82525050565b61067e8161034c565b82525050565b6000606082019050818103600083015261069e818661062d565b90506106ad6020830185610666565b6106ba6040830184610675565b949350505050565b7f4e487b7100000000000000000000000000000000000000000000000000000000600052601160045260246000fd5b60006106fc8261034c565b91506107078361034c565b9250827fffffffffffffffffffffffffffffffffffffffffffffffffffffffffffffffff0382111561073c5761073b6106c2565b5b828201905092915050565b60006107528261034c565b91507fffffffffffffffffffffffffffffffffffffffffffffffffffffffffffffffff821415610785576107846106c2565b5b600182019050919050565b60006040820190506107a56000830185610666565b6107b26020830184610675565b939250505056fea26469706673582212206d64dc18b12963de187e1e25b5f6b5ad847f6a193d672920899b31b5afe8900564736f6c63430008090033",
  "immutableReferences": {},
  "source": "// SPDX-License-Identifier: MIT\r\npragma solidity >=0.8.7 <0.9.0;\r\n\r\ncontract OracleOpen {\r\n\r\n    bytes32 adminOpenOracle;\r\n    address adminOpenOracleAddress;\r\n\r\n    uint minConsensus = 2;\r\n\r\n    struct PriceData{\r\n        uint timestamp;\r\n        uint price;\r\n        bytes32 market;\r\n        uint arrivedPrices;\r\n        mapping(uint => uint) response;\r\n        mapping(address => uint) nest;\r\n    }\r\n\r\n    event OffChainRequest (\r\n        string url,\r\n        bytes32 market,\r\n        uint price\r\n    );\r\n\r\n    event UpdatedRequest (\r\n        bytes32 market,\r\n        uint price\r\n    );\r\n\r\n    mapping(bytes32 => PriceData) latestPrice;\r\n\r\n    constructor() {\r\n        adminOpenOracleAddress = msg.sender;\r\n        //AccessRegistry.addAdmin()\r\n    }\r\n\r\n    function newPriceRequest (\r\n        string memory _url,\r\n        bytes32 _market,\r\n        uint _price\r\n    )\r\n    external\r\n    {\r\n        PriceData storage r = latestPrice[_market];\r\n        r.timestamp = block.timestamp;\r\n        r.market = _market;\r\n        r.price = _price;\r\n\r\n        emit OffChainRequest (_url, _market, _price);\r\n    }\r\n\r\n    function updatedChainRequest (\r\n        bytes32 _market,\r\n        uint _price\r\n    ) \r\n    external \r\n    {\r\n        PriceData storage trackRequest = latestPrice[_market];\r\n\r\n        //Check if the token is supported. In TokenList Contract.\r\n\r\n        if(trackRequest.nest[msg.sender] == 1){\r\n            trackRequest.nest[msg.sender] = 2;\r\n            \r\n            uint tmpI = trackRequest.arrivedPrices;\r\n            trackRequest.response[tmpI] = _price;\r\n            trackRequest.arrivedPrices = tmpI + 1;\r\n            \r\n            uint currentConsensusCount = 1;\r\n            \r\n            for(uint i = 0; i < tmpI; i++){\r\n                uint a = trackRequest.response[i];\r\n                uint b = _price;\r\n\r\n                if(a == b){\r\n                    currentConsensusCount++;\r\n                    if(currentConsensusCount >= minConsensus){\r\n                        trackRequest.price = _price;\r\n                        \r\n                        //Add token to TokenList Contract.\r\n\r\n                        emit UpdatedRequest (_market, _price);\r\n                    }\r\n                }\r\n            }\r\n        }\r\n    }\r\n\r\n    function liquidationTrigger(\r\n        address account, \r\n        bytes32 market,\r\n        bytes32 commitment,\r\n        uint loadId\r\n    ) public\r\n    {\r\n        //Call liquidate() in Loan contract.\r\n    }\r\n\r\n    modifier onlyAdmin(bytes32 role, address account) {\r\n        require(role == adminOpenOracle && account == adminOpenOracleAddress, \"Not permitted account\");\r\n        _;\r\n    }\r\n}\r\n",
  "sourcePath": "F:\\workspace\\Open-protocol\\contracts\\OracleOpen.sol",
  "compiler": {
    "name": "solc",
    "version": "0.8.9+commit.e5eed63a.Emscripten.clang"
  },
  "schemaVersion": "3.4.3",
  "updatedAt": "2021-09-30T01:03:14.749Z",
  "devdoc": {
    "kind": "dev",
    "methods": {},
    "version": 1
  },
  "userdoc": {
    "kind": "user",
    "methods": {},
    "version": 1
  }
}