{
  "contractName": "OracleOpen",
  "abi": [
    {
      "inputs": [
        {
          "internalType": "address",
          "name": "superAdminAddr_",
          "type": "address"
        },
        {
          "internalType": "address",
          "name": "tokenListAddr_",
          "type": "address"
        }
      ],
      "stateMutability": "nonpayable",
      "type": "constructor"
    },
    {
      "anonymous": false,
      "inputs": [
        {
          "indexed": false,
          "internalType": "string",
          "name": "url",
          "type": "string"
        },
        {
          "indexed": false,
          "internalType": "bytes32",
          "name": "market",
          "type": "bytes32"
        },
        {
          "indexed": false,
          "internalType": "uint256",
          "name": "price",
          "type": "uint256"
        }
      ],
      "name": "OffChainRequest",
      "type": "event"
    },
    {
      "anonymous": false,
      "inputs": [
        {
          "indexed": true,
          "internalType": "address",
          "name": "_pauser",
          "type": "address"
        },
        {
          "indexed": false,
          "internalType": "bool",
          "name": "isPaused",
          "type": "bool"
        }
      ],
      "name": "PauseState",
      "type": "event"
    },
    {
      "anonymous": false,
      "inputs": [
        {
          "indexed": false,
          "internalType": "bytes32",
          "name": "market",
          "type": "bytes32"
        },
        {
          "indexed": false,
          "internalType": "uint256",
          "name": "price",
          "type": "uint256"
        }
      ],
      "name": "UpdatedRequest",
      "type": "event"
    },
    {
      "stateMutability": "payable",
      "type": "fallback"
    },
    {
      "inputs": [],
      "name": "pauseState",
      "outputs": [
        {
          "internalType": "string",
          "name": "",
          "type": "string"
        }
      ],
      "stateMutability": "view",
      "type": "function"
    },
    {
      "inputs": [],
      "name": "paused",
      "outputs": [
        {
          "internalType": "bool",
          "name": "",
          "type": "bool"
        }
      ],
      "stateMutability": "view",
      "type": "function"
    },
    {
      "stateMutability": "payable",
      "type": "receive"
    },
    {
      "inputs": [
        {
          "internalType": "address",
          "name": "token_",
          "type": "address"
        },
        {
          "internalType": "address",
          "name": "recipient_",
          "type": "address"
        },
        {
          "internalType": "uint256",
          "name": "value_",
          "type": "uint256"
        }
      ],
      "name": "transferAnyERC20",
      "outputs": [
        {
          "internalType": "bool",
          "name": "",
          "type": "bool"
        }
      ],
      "stateMutability": "nonpayable",
      "type": "function"
    },
    {
      "inputs": [
        {
          "internalType": "bytes32",
          "name": "_market",
          "type": "bytes32"
        }
      ],
      "name": "getLatestPrice",
      "outputs": [
        {
          "internalType": "uint256",
          "name": "",
          "type": "uint256"
        }
      ],
      "stateMutability": "view",
      "type": "function"
    },
    {
      "inputs": [
        {
          "internalType": "bytes32",
          "name": "_market",
          "type": "bytes32"
        }
      ],
      "name": "getLatestTimestamp",
      "outputs": [
        {
          "internalType": "uint256",
          "name": "",
          "type": "uint256"
        }
      ],
      "stateMutability": "view",
      "type": "function"
    },
    {
      "inputs": [
        {
          "internalType": "string",
          "name": "_url",
          "type": "string"
        },
        {
          "internalType": "bytes32",
          "name": "_market",
          "type": "bytes32"
        },
        {
          "internalType": "uint256",
          "name": "_price",
          "type": "uint256"
        }
      ],
      "name": "newPriceRequest",
      "outputs": [],
      "stateMutability": "nonpayable",
      "type": "function"
    },
    {
      "inputs": [
        {
          "internalType": "bytes32",
          "name": "_market",
          "type": "bytes32"
        },
        {
          "internalType": "uint256",
          "name": "_price",
          "type": "uint256"
        }
      ],
      "name": "updatedChainRequest",
      "outputs": [],
      "stateMutability": "nonpayable",
      "type": "function"
    },
    {
      "inputs": [
        {
          "internalType": "address",
          "name": "account",
          "type": "address"
        },
        {
          "internalType": "uint256",
          "name": "loanId",
          "type": "uint256"
        }
      ],
      "name": "liquidationTrigger",
      "outputs": [],
      "stateMutability": "nonpayable",
      "type": "function"
    },
    {
      "inputs": [],
      "name": "pause",
      "outputs": [],
      "stateMutability": "nonpayable",
      "type": "function"
    },
    {
      "inputs": [],
      "name": "unpause",
      "outputs": [],
      "stateMutability": "nonpayable",
      "type": "function"
    },
    {
      "inputs": [
        {
          "internalType": "address",
          "name": "_loanAddress",
          "type": "address"
        }
      ],
      "name": "setLoanAddress",
      "outputs": [],
      "stateMutability": "nonpayable",
      "type": "function"
    }
  ],
  "bytecode": "0x608060405260008060006101000a81548160ff021916908315150217905550600c60065560026007553480156200003557600080fd5b5060405162001a9e38038062001a9e83398181016040528101906200005b9190620001aa565b60008060016101000a81548160ff02191690831515021790555081600360006101000a81548173ffffffffffffffffffffffffffffffffffffffff021916908373ffffffffffffffffffffffffffffffffffffffff16021790555033600260006101000a81548173ffffffffffffffffffffffffffffffffffffffff021916908373ffffffffffffffffffffffffffffffffffffffff16021790555080600460006101000a81548173ffffffffffffffffffffffffffffffffffffffff021916908373ffffffffffffffffffffffffffffffffffffffff1602179055505050620001f1565b600080fd5b600073ffffffffffffffffffffffffffffffffffffffff82169050919050565b6000620001728262000145565b9050919050565b620001848162000165565b81146200019057600080fd5b50565b600081519050620001a48162000179565b92915050565b60008060408385031215620001c457620001c362000140565b5b6000620001d48582860162000193565b9250506020620001e78582860162000193565b9150509250929050565b61189d80620002016000396000f3fe6080604052600436106100a05760003560e01c80638644095811610064578063864409581461025c5780639e45576e14610285578063b2ee2f01146102ae578063d7118351146102eb578063e03741bb14610316578063f33f63601461033f57610117565b80633f4ba83a146101895780635b6f547e146101a05780635c975abb146101dd5780637ad22632146102085780638456cb591461024557610117565b3661011757600260009054906101000a900473ffffffffffffffffffffffffffffffffffffffff1673ffffffffffffffffffffffffffffffffffffffff166108fc6100e9610368565b9081150290604051600060405180830381858888f19350505050158015610114573d6000803e3d6000fd5b50005b600260009054906101000a900473ffffffffffffffffffffffffffffffffffffffff1673ffffffffffffffffffffffffffffffffffffffff166108fc61015b610368565b9081150290604051600060405180830381858888f19350505050158015610186573d6000803e3d6000fd5b50005b34801561019557600080fd5b5061019e610370565b005b3480156101ac57600080fd5b506101c760048036038101906101c29190610f9f565b6104ea565b6040516101d4919061100d565b60405180910390f35b3480156101e957600080fd5b506101f2610585565b6040516101ff919061100d565b60405180910390f35b34801561021457600080fd5b5061022f600480360381019061022a919061105e565b61059b565b60405161023c919061109a565b60405180910390f35b34801561025157600080fd5b5061025a6105bb565b005b34801561026857600080fd5b50610283600480360381019061027e91906110b5565b610735565b005b34801561029157600080fd5b506102ac60048036038101906102a791906110f5565b6107e9565b005b3480156102ba57600080fd5b506102d560048036038101906102d0919061105e565b610915565b6040516102e2919061109a565b60405180910390f35b3480156102f757600080fd5b50610300610935565b60405161030d91906111bb565b60405180910390f35b34801561032257600080fd5b5061033d60048036038101906103389190611312565b6109af565b005b34801561034b57600080fd5b5061036660048036038101906103619190611381565b610a22565b005b600034905090565b600260009054906101000a900473ffffffffffffffffffffffffffffffffffffffff1673ffffffffffffffffffffffffffffffffffffffff163373ffffffffffffffffffffffffffffffffffffffff1614806104195750600360009054906101000a900473ffffffffffffffffffffffffffffffffffffffff1673ffffffffffffffffffffffffffffffffffffffff163373ffffffffffffffffffffffffffffffffffffffff16145b610458576040517f08c379a000000000000000000000000000000000000000000000000000000000815260040161044f90611433565b60405180910390fd5b6000151560008054906101000a900460ff161515146104ac576040517f08c379a00000000000000000000000000000000000000000000000000000000081526004016104a39061149f565b60405180910390fd5b60016000806101000a81548160ff0219169083151502179055506104ce610d7b565b60008060006101000a81548160ff021916908315150217905550565b60008373ffffffffffffffffffffffffffffffffffffffff1663a9059cbb84846040518363ffffffff1660e01b81526004016105279291906114ce565b602060405180830381600087803b15801561054157600080fd5b505af1158015610555573d6000803e3d6000fd5b505050506040513d601f19601f820116820180604052508101906105799190611523565b50600190509392505050565b60008060019054906101000a900460ff16905090565b600060086000838152602001908152602001600020600001549050919050565b600260009054906101000a900473ffffffffffffffffffffffffffffffffffffffff1673ffffffffffffffffffffffffffffffffffffffff163373ffffffffffffffffffffffffffffffffffffffff1614806106645750600360009054906101000a900473ffffffffffffffffffffffffffffffffffffffff1673ffffffffffffffffffffffffffffffffffffffff163373ffffffffffffffffffffffffffffffffffffffff16145b6106a3576040517f08c379a000000000000000000000000000000000000000000000000000000000815260040161069a90611433565b60405180910390fd5b6000151560008054906101000a900460ff161515146106f7576040517f08c379a00000000000000000000000000000000000000000000000000000000081526004016106ee9061149f565b60405180910390fd5b60016000806101000a81548160ff021916908315150217905550610719610e34565b60008060006101000a81548160ff021916908315150217905550565b600560009054906101000a900473ffffffffffffffffffffffffffffffffffffffff1673ffffffffffffffffffffffffffffffffffffffff16636f2bb86a83836040518363ffffffff1660e01b81526004016107929291906114ce565b602060405180830381600087803b1580156107ac57600080fd5b505af11580156107c0573d6000803e3d6000fd5b505050506040513d601f19601f820116820180604052508101906107e49190611523565b505050565b600260009054906101000a900473ffffffffffffffffffffffffffffffffffffffff1673ffffffffffffffffffffffffffffffffffffffff163373ffffffffffffffffffffffffffffffffffffffff1614806108925750600360009054906101000a900473ffffffffffffffffffffffffffffffffffffffff1673ffffffffffffffffffffffffffffffffffffffff163373ffffffffffffffffffffffffffffffffffffffff16145b6108d1576040517f08c379a00000000000000000000000000000000000000000000000000000000081526004016108c890611433565b60405180910390fd5b80600560006101000a81548173ffffffffffffffffffffffffffffffffffffffff021916908373ffffffffffffffffffffffffffffffffffffffff16021790555050565b600060086000838152602001908152602001600020600101549050919050565b606060011515600060019054906101000a900460ff1615151415610973576040518060600160405280603d815260200161182b603d913990506109ac565b6040518060400160405280601681526020017f436f6e7472616374206973206e6f74207061757365640000000000000000000081525090505b90565b60006008600084815260200190815260200160002090504281600001819055508281600201819055508181600101819055507fabc097800580332c2ad20e5aee3812876d7a01274c0378d2a56531fdead41f2a848484604051610a149392919061155f565b60405180910390a150505050565b6000600860008481526020019081526020016000209050600460009054906101000a900473ffffffffffffffffffffffffffffffffffffffff1673ffffffffffffffffffffffffffffffffffffffff166378f504f982600201546040518263ffffffff1660e01b8152600401610a98919061159d565b60206040518083038186803b158015610ab057600080fd5b505afa158015610ac4573d6000803e3d6000fd5b505050506040513d601f19601f82011682018060405250810190610ae89190611523565b610b27576040517f08c379a0000000000000000000000000000000000000000000000000000000008152600401610b1e90611604565b60405180910390fd5b60018160050160003373ffffffffffffffffffffffffffffffffffffffff1673ffffffffffffffffffffffffffffffffffffffff168152602001908152602001600020541415610d765760028160050160003373ffffffffffffffffffffffffffffffffffffffff1673ffffffffffffffffffffffffffffffffffffffff168152602001908152602001600020819055506000816003015490508282600401600083815260200190815260200160002081905550600181610be89190611653565b826003018190555060006001905060005b82811015610d72576000846004016000838152602001908152602001600020549050600086905080821415610d5d578380610c33906116a9565b9450506007548410610d5c57868660010181905550600460009054906101000a900473ffffffffffffffffffffffffffffffffffffffff1673ffffffffffffffffffffffffffffffffffffffff1663547cb42e8760020154600654600460009054906101000a900473ffffffffffffffffffffffffffffffffffffffff166040518463ffffffff1660e01b8152600401610ccf939291906116f2565b602060405180830381600087803b158015610ce957600080fd5b505af1158015610cfd573d6000803e3d6000fd5b505050506040513d601f19601f82011682018060405250810190610d219190611523565b507ffef1d1cce38b7b8276845aa1538767e30b69feae9472b1abebe38130888dbf9b8888604051610d53929190611729565b60405180910390a15b5b50508080610d6a906116a9565b915050610bf9565b5050505b505050565b610d83610585565b610dc2576040517f08c379a0000000000000000000000000000000000000000000000000000000008152600401610db99061179e565b60405180910390fd5b60008060016101000a81548160ff021916908315150217905550610de4610eef565b73ffffffffffffffffffffffffffffffffffffffff167fd90c20276b7955800df9b223f244944b25b581f437448b1978aa61d4036b428a6000604051610e2a919061100d565b60405180910390a2565b610e3c610585565b15610e7c576040517f08c379a0000000000000000000000000000000000000000000000000000000008152600401610e739061180a565b60405180910390fd5b6001600060016101000a81548160ff021916908315150217905550610e9f610eef565b73ffffffffffffffffffffffffffffffffffffffff167fd90c20276b7955800df9b223f244944b25b581f437448b1978aa61d4036b428a6001604051610ee5919061100d565b60405180910390a2565b600033905090565b6000604051905090565b600080fd5b600080fd5b600073ffffffffffffffffffffffffffffffffffffffff82169050919050565b6000610f3682610f0b565b9050919050565b610f4681610f2b565b8114610f5157600080fd5b50565b600081359050610f6381610f3d565b92915050565b6000819050919050565b610f7c81610f69565b8114610f8757600080fd5b50565b600081359050610f9981610f73565b92915050565b600080600060608486031215610fb857610fb7610f01565b5b6000610fc686828701610f54565b9350506020610fd786828701610f54565b9250506040610fe886828701610f8a565b9150509250925092565b60008115159050919050565b61100781610ff2565b82525050565b60006020820190506110226000830184610ffe565b92915050565b6000819050919050565b61103b81611028565b811461104657600080fd5b50565b60008135905061105881611032565b92915050565b60006020828403121561107457611073610f01565b5b600061108284828501611049565b91505092915050565b61109481610f69565b82525050565b60006020820190506110af600083018461108b565b92915050565b600080604083850312156110cc576110cb610f01565b5b60006110da85828601610f54565b92505060206110eb85828601610f8a565b9150509250929050565b60006020828403121561110b5761110a610f01565b5b600061111984828501610f54565b91505092915050565b600081519050919050565b600082825260208201905092915050565b60005b8381101561115c578082015181840152602081019050611141565b8381111561116b576000848401525b50505050565b6000601f19601f8301169050919050565b600061118d82611122565b611197818561112d565b93506111a781856020860161113e565b6111b081611171565b840191505092915050565b600060208201905081810360008301526111d58184611182565b905092915050565b600080fd5b600080fd5b7f4e487b7100000000000000000000000000000000000000000000000000000000600052604160045260246000fd5b61121f82611171565b810181811067ffffffffffffffff8211171561123e5761123d6111e7565b5b80604052505050565b6000611251610ef7565b905061125d8282611216565b919050565b600067ffffffffffffffff82111561127d5761127c6111e7565b5b61128682611171565b9050602081019050919050565b82818337600083830152505050565b60006112b56112b084611262565b611247565b9050828152602081018484840111156112d1576112d06111e2565b5b6112dc848285611293565b509392505050565b600082601f8301126112f9576112f86111dd565b5b81356113098482602086016112a2565b91505092915050565b60008060006060848603121561132b5761132a610f01565b5b600084013567ffffffffffffffff81111561134957611348610f06565b5b611355868287016112e4565b935050602061136686828701611049565b925050604061137786828701610f8a565b9150509250925092565b6000806040838503121561139857611397610f01565b5b60006113a685828601611049565b92505060206113b785828601610f8a565b9150509250929050565b7f4f6e6c79204f7261636c652061646d696e2063616e2063616c6c20746869732060008201527f66756e6374696f6e000000000000000000000000000000000000000000000000602082015250565b600061141d60288361112d565b9150611428826113c1565b604082019050919050565b6000602082019050818103600083015261144c81611410565b9050919050565b7f52652d656e7472616e7420616c65727421000000000000000000000000000000600082015250565b600061148960118361112d565b915061149482611453565b602082019050919050565b600060208201905081810360008301526114b88161147c565b9050919050565b6114c881610f2b565b82525050565b60006040820190506114e360008301856114bf565b6114f0602083018461108b565b9392505050565b61150081610ff2565b811461150b57600080fd5b50565b60008151905061151d816114f7565b92915050565b60006020828403121561153957611538610f01565b5b60006115478482850161150e565b91505092915050565b61155981611028565b82525050565b600060608201905081810360008301526115798186611182565b90506115886020830185611550565b611595604083018461108b565b949350505050565b60006020820190506115b26000830184611550565b92915050565b7f546f6b656e206973206e6f7420737570706f727465642e000000000000000000600082015250565b60006115ee60178361112d565b91506115f9826115b8565b602082019050919050565b6000602082019050818103600083015261161d816115e1565b9050919050565b7f4e487b7100000000000000000000000000000000000000000000000000000000600052601160045260246000fd5b600061165e82610f69565b915061166983610f69565b9250827fffffffffffffffffffffffffffffffffffffffffffffffffffffffffffffffff0382111561169e5761169d611624565b5b828201905092915050565b60006116b482610f69565b91507fffffffffffffffffffffffffffffffffffffffffffffffffffffffffffffffff8214156116e7576116e6611624565b5b600182019050919050565b60006060820190506117076000830186611550565b611714602083018561108b565b61172160408301846114bf565b949350505050565b600060408201905061173e6000830185611550565b61174b602083018461108b565b9392505050565b7f4e6f742070617573656420737461747573000000000000000000000000000000600082015250565b600061178860118361112d565b915061179382611752565b602082019050919050565b600060208201905081810360008301526117b78161177b565b9050919050565b7f5061757365642073746174757300000000000000000000000000000000000000600082015250565b60006117f4600d8361112d565b91506117ff826117be565b602082019050919050565b60006020820190508181036000830152611823816117e7565b905091905056fe436f6e7472616374206973207061757365642e20546f6b656e207472616e7366657273206172652074656d706f726172696c792064697361626c65642ea264697066735822122015798466a94bfd25a2e787ce9b412e8dab41ede8d263f55d3869adde37feaba564736f6c63430008090033",
  "immutableReferences": {},
  "source": "// SPDX-License-Identifier: MIT\r\npragma solidity >=0.8.9 <0.9.0;\r\nimport \"./util/Pausable.sol\";\r\nimport \"./util/IBEP20.sol\";\r\nimport \"./interfaces/ITokenList.sol\";\r\nimport \"./interfaces/ILoan.sol\";\r\ncontract OracleOpen is Pausable {\r\n\r\n    bytes32 adminOpenOracle;\r\n    address adminOpenOracleAddress;\r\n    address superAdminAddress;\r\n    ITokenList tokenList;\r\n    ILoan loan;\r\n    uint decimals = 12;\r\n\r\n    uint minConsensus = 2;\r\n\r\n    struct PriceData{\r\n        uint timestamp;\r\n        uint price;\r\n        bytes32 market;\r\n        uint arrivedPrices;\r\n        mapping(uint => uint) response;\r\n        mapping(address => uint) nest;\r\n    }\r\n\r\n    event OffChainRequest (\r\n        string url,\r\n        bytes32 market,\r\n        uint price\r\n    );\r\n\r\n    event UpdatedRequest (\r\n        bytes32 market,\r\n        uint price\r\n    );\r\n\r\n    mapping(bytes32 => PriceData) latestPrice;\r\n\r\n    constructor(\r\n        address superAdminAddr_, \r\n        address tokenListAddr_\r\n    )\r\n    {\r\n        superAdminAddress = superAdminAddr_;\r\n        adminOpenOracleAddress = msg.sender;\r\n        tokenList = ITokenList(tokenListAddr_);\r\n    }\r\n\r\n    receive() external payable {\r\n        payable(adminOpenOracleAddress).transfer(_msgValue());\r\n    }\r\n    \r\n    fallback() external payable {\r\n        payable(adminOpenOracleAddress).transfer(_msgValue());\r\n    }\r\n    \r\n    function transferAnyERC20(address token_,address recipient_,uint256 value_) \r\n        external returns(bool) \r\n    {\r\n        IBEP20(token_).transfer(recipient_, value_);\r\n        return true;\r\n    }\r\n\r\n    function getLatestPrice(bytes32 _market) external view returns (uint256) {\r\n        return latestPrice[_market].price;\r\n    }\r\n    \r\n    function getLatestTimestamp(bytes32 _market) external view returns (uint256) {\r\n        return latestPrice[_market].timestamp;\r\n    }\r\n    \r\n    function newPriceRequest (\r\n        string memory _url,\r\n        bytes32 _market,\r\n        uint _price\r\n    ) external {\r\n        PriceData storage r = latestPrice[_market];\r\n        r.timestamp = block.timestamp;\r\n        r.market = _market;\r\n        r.price = _price;\r\n\r\n        emit OffChainRequest (_url, _market, _price);\r\n    }\r\n\r\n    function updatedChainRequest (\r\n        bytes32 _market,\r\n        uint _price\r\n    ) external {\r\n        PriceData storage trackRequest = latestPrice[_market];\r\n\r\n        //Check if the token is supported. In TokenList Contract.\r\n        require(tokenList.isMarketSupported(trackRequest.market), \"Token is not supported.\");\r\n\r\n        if(trackRequest.nest[msg.sender] == 1){\r\n            trackRequest.nest[msg.sender] = 2;\r\n            \r\n            uint tmpI = trackRequest.arrivedPrices;\r\n            trackRequest.response[tmpI] = _price;\r\n            trackRequest.arrivedPrices = tmpI + 1;\r\n            \r\n            uint currentConsensusCount = 1;\r\n            \r\n            for(uint i = 0; i < tmpI; i++){\r\n                uint a = trackRequest.response[i];\r\n                uint b = _price;\r\n\r\n                if(a == b){\r\n                    currentConsensusCount++;\r\n                    if(currentConsensusCount >= minConsensus){\r\n                        trackRequest.price = _price;\r\n                        \r\n                        //Add token to TokenList Contract.\r\n                        tokenList.addTokenSupport(trackRequest.market, decimals, address(tokenList));\r\n\r\n                        emit UpdatedRequest (_market, _price);\r\n                    }\r\n                }\r\n            }\r\n        }\r\n    }\r\n\r\n    function liquidationTrigger(\r\n        address account, \r\n        // bytes32 market,\r\n        // bytes32 commitment,\r\n        uint loanId\r\n    ) public\r\n    {\r\n        //Call liquidate() in Loan contract.\r\n        // uint price = latestPrice[market].price;\r\n        loan.liquidation(account, loanId);\r\n    }\r\n\r\n    function pause() external onlyAdmin() nonReentrant() {\r\n       _pause();\r\n\t}\r\n\t\r\n\tfunction unpause() external onlyAdmin() nonReentrant() {\r\n       _unpause();   \r\n\t}\r\n\r\n    function setLoanAddress(address _loanAddress) public onlyAdmin {\r\n        loan = ILoan(_loanAddress);\r\n    }\r\n\r\n    modifier onlyAdmin() {\r\n        require(msg.sender == adminOpenOracleAddress || \r\n            msg.sender == superAdminAddress,\r\n            \"Only Oracle admin can call this function\"\r\n        );\r\n        _;\r\n    }\r\n\r\n\r\n}\r\n",
  "sourcePath": "F:\\workspace\\Open-protocol\\contracts\\OracleOpen.sol",
  "compiler": {
    "name": "solc",
    "version": "0.8.9+commit.e5eed63a.Emscripten.clang"
  },
  "schemaVersion": "3.4.3",
  "updatedAt": "2021-10-18T04:43:18.678Z",
  "devdoc": {
    "kind": "dev",
    "methods": {},
    "version": 1
  },
  "userdoc": {
    "kind": "user",
    "methods": {},
    "version": 1
  }
}