{
  "contractName": "OracleOpen",
  "abi": [
    {
      "inputs": [
        {
          "internalType": "address",
          "name": "superAdminAddr_",
          "type": "address"
        }
      ],
      "stateMutability": "nonpayable",
      "type": "constructor"
    },
    {
      "anonymous": false,
      "inputs": [
        {
          "indexed": true,
          "internalType": "address",
          "name": "_pauser",
          "type": "address"
        },
        {
          "indexed": false,
          "internalType": "bool",
          "name": "isPaused",
          "type": "bool"
        }
      ],
      "name": "PauseState",
      "type": "event"
    },
    {
      "stateMutability": "payable",
      "type": "fallback",
      "payable": true
    },
    {
      "inputs": [],
      "name": "pauseState",
      "outputs": [
        {
          "internalType": "string",
          "name": "",
          "type": "string"
        }
      ],
      "stateMutability": "view",
      "type": "function",
      "constant": true
    },
    {
      "inputs": [],
      "name": "paused",
      "outputs": [
        {
          "internalType": "bool",
          "name": "",
          "type": "bool"
        }
      ],
      "stateMutability": "view",
      "type": "function",
      "constant": true
    },
    {
      "stateMutability": "payable",
      "type": "receive",
      "payable": true
    },
    {
      "inputs": [
        {
          "internalType": "address",
          "name": "token_",
          "type": "address"
        },
        {
          "internalType": "address",
          "name": "recipient_",
          "type": "address"
        },
        {
          "internalType": "uint256",
          "name": "value_",
          "type": "uint256"
        }
      ],
      "name": "transferAnyERC20",
      "outputs": [
        {
          "internalType": "bool",
          "name": "",
          "type": "bool"
        }
      ],
      "stateMutability": "nonpayable",
      "type": "function"
    },
    {
      "inputs": [],
      "name": "getLatestPrice",
      "outputs": [
        {
          "internalType": "int256",
          "name": "",
          "type": "int256"
        }
      ],
      "stateMutability": "view",
      "type": "function",
      "constant": true
    },
    {
      "inputs": [],
      "name": "getLatestPriceBnb",
      "outputs": [
        {
          "internalType": "int256",
          "name": "",
          "type": "int256"
        }
      ],
      "stateMutability": "view",
      "type": "function",
      "constant": true
    },
    {
      "inputs": [
        {
          "internalType": "address",
          "name": "account",
          "type": "address"
        },
        {
          "internalType": "uint256",
          "name": "loanId",
          "type": "uint256"
        }
      ],
      "name": "liquidationTrigger",
      "outputs": [],
      "stateMutability": "nonpayable",
      "type": "function"
    },
    {
      "inputs": [],
      "name": "pause",
      "outputs": [],
      "stateMutability": "nonpayable",
      "type": "function"
    },
    {
      "inputs": [],
      "name": "unpause",
      "outputs": [],
      "stateMutability": "nonpayable",
      "type": "function"
    },
    {
      "inputs": [
        {
          "internalType": "address",
          "name": "_loanAddress",
          "type": "address"
        }
      ],
      "name": "setLoanAddress",
      "outputs": [],
      "stateMutability": "nonpayable",
      "type": "function"
    }
  ],
  "bytecode": "0x608060405260008060006101000a81548160ff0219169083151502179055503480156200002b57600080fd5b506040516200148a3803806200148a833981810160405281019062000051919062000208565b60008060016101000a81548160ff02191690831515021790555080600360006101000a81548173ffffffffffffffffffffffffffffffffffffffff021916908373ffffffffffffffffffffffffffffffffffffffff16021790555033600260006101000a81548173ffffffffffffffffffffffffffffffffffffffff021916908373ffffffffffffffffffffffffffffffffffffffff160217905550739326bfa02add2366b30bacb125260af641031331600560006101000a81548173ffffffffffffffffffffffffffffffffffffffff021916908373ffffffffffffffffffffffffffffffffffffffff160217905550730567f2323251f0aab15c8dfb1967e4e8a7d42aee600660006101000a81548173ffffffffffffffffffffffffffffffffffffffff021916908373ffffffffffffffffffffffffffffffffffffffff160217905550506200023a565b600080fd5b600073ffffffffffffffffffffffffffffffffffffffff82169050919050565b6000620001d082620001a3565b9050919050565b620001e281620001c3565b8114620001ee57600080fd5b50565b6000815190506200020281620001d7565b92915050565b6000602082840312156200022157620002206200019e565b5b60006200023184828501620001f1565b91505092915050565b611240806200024a6000396000f3fe60806040526004361061008a5760003560e01c8063864409581161005957806386440958146102095780638e15f473146102325780639e45576e1461025d578063a972b74014610286578063d7118351146102b157610101565b80633f4ba83a146101735780635b6f547e1461018a5780635c975abb146101c75780638456cb59146101f257610101565b3661010157600260009054906101000a900473ffffffffffffffffffffffffffffffffffffffff1673ffffffffffffffffffffffffffffffffffffffff166108fc6100d36102dc565b9081150290604051600060405180830381858888f193505050501580156100fe573d6000803e3d6000fd5b50005b600260009054906101000a900473ffffffffffffffffffffffffffffffffffffffff1673ffffffffffffffffffffffffffffffffffffffff166108fc6101456102dc565b9081150290604051600060405180830381858888f19350505050158015610170573d6000803e3d6000fd5b50005b34801561017f57600080fd5b506101886102e4565b005b34801561019657600080fd5b506101b160048036038101906101ac9190610c74565b61045e565b6040516101be9190610ce2565b60405180910390f35b3480156101d357600080fd5b506101dc6104f9565b6040516101e99190610ce2565b60405180910390f35b3480156101fe57600080fd5b5061020761050f565b005b34801561021557600080fd5b50610230600480360381019061022b9190610cfd565b610689565b005b34801561023e57600080fd5b5061024761073d565b6040516102549190610d56565b60405180910390f35b34801561026957600080fd5b50610284600480360381019061027f9190610d71565b6107fb565b005b34801561029257600080fd5b5061029b610927565b6040516102a89190610d56565b60405180910390f35b3480156102bd57600080fd5b506102c66109e5565b6040516102d39190610e37565b60405180910390f35b600034905090565b600260009054906101000a900473ffffffffffffffffffffffffffffffffffffffff1673ffffffffffffffffffffffffffffffffffffffff163373ffffffffffffffffffffffffffffffffffffffff16148061038d5750600360009054906101000a900473ffffffffffffffffffffffffffffffffffffffff1673ffffffffffffffffffffffffffffffffffffffff163373ffffffffffffffffffffffffffffffffffffffff16145b6103cc576040517f08c379a00000000000000000000000000000000000000000000000000000000081526004016103c390610ecb565b60405180910390fd5b6000151560008054906101000a900460ff16151514610420576040517f08c379a000000000000000000000000000000000000000000000000000000000815260040161041790610f37565b60405180910390fd5b60016000806101000a81548160ff021916908315150217905550610442610a5f565b60008060006101000a81548160ff021916908315150217905550565b60008373ffffffffffffffffffffffffffffffffffffffff1663a9059cbb84846040518363ffffffff1660e01b815260040161049b929190610f75565b602060405180830381600087803b1580156104b557600080fd5b505af11580156104c9573d6000803e3d6000fd5b505050506040513d601f19601f820116820180604052508101906104ed9190610fca565b50600190509392505050565b60008060019054906101000a900460ff16905090565b600260009054906101000a900473ffffffffffffffffffffffffffffffffffffffff1673ffffffffffffffffffffffffffffffffffffffff163373ffffffffffffffffffffffffffffffffffffffff1614806105b85750600360009054906101000a900473ffffffffffffffffffffffffffffffffffffffff1673ffffffffffffffffffffffffffffffffffffffff163373ffffffffffffffffffffffffffffffffffffffff16145b6105f7576040517f08c379a00000000000000000000000000000000000000000000000000000000081526004016105ee90610ecb565b60405180910390fd5b6000151560008054906101000a900460ff1615151461064b576040517f08c379a000000000000000000000000000000000000000000000000000000000815260040161064290610f37565b60405180910390fd5b60016000806101000a81548160ff02191690831515021790555061066d610b18565b60008060006101000a81548160ff021916908315150217905550565b600460009054906101000a900473ffffffffffffffffffffffffffffffffffffffff1673ffffffffffffffffffffffffffffffffffffffff16636f2bb86a83836040518363ffffffff1660e01b81526004016106e6929190610f75565b602060405180830381600087803b15801561070057600080fd5b505af1158015610714573d6000803e3d6000fd5b505050506040513d601f19601f820116820180604052508101906107389190610fca565b505050565b600080600080600080600560009054906101000a900473ffffffffffffffffffffffffffffffffffffffff1673ffffffffffffffffffffffffffffffffffffffff1663feaf968c6040518163ffffffff1660e01b815260040160a06040518083038186803b1580156107ae57600080fd5b505afa1580156107c2573d6000803e3d6000fd5b505050506040513d601f19601f820116820180604052508101906107e6919061107a565b94509450945094509450839550505050505090565b600260009054906101000a900473ffffffffffffffffffffffffffffffffffffffff1673ffffffffffffffffffffffffffffffffffffffff163373ffffffffffffffffffffffffffffffffffffffff1614806108a45750600360009054906101000a900473ffffffffffffffffffffffffffffffffffffffff1673ffffffffffffffffffffffffffffffffffffffff163373ffffffffffffffffffffffffffffffffffffffff16145b6108e3576040517f08c379a00000000000000000000000000000000000000000000000000000000081526004016108da90610ecb565b60405180910390fd5b80600460006101000a81548173ffffffffffffffffffffffffffffffffffffffff021916908373ffffffffffffffffffffffffffffffffffffffff16021790555050565b600080600080600080600660009054906101000a900473ffffffffffffffffffffffffffffffffffffffff1673ffffffffffffffffffffffffffffffffffffffff1663feaf968c6040518163ffffffff1660e01b815260040160a06040518083038186803b15801561099857600080fd5b505afa1580156109ac573d6000803e3d6000fd5b505050506040513d601f19601f820116820180604052508101906109d0919061107a565b94509450945094509450839550505050505090565b606060011515600060019054906101000a900460ff1615151415610a23576040518060600160405280603d81526020016111ce603d91399050610a5c565b6040518060400160405280601681526020017f436f6e7472616374206973206e6f74207061757365640000000000000000000081525090505b90565b610a676104f9565b610aa6576040517f08c379a0000000000000000000000000000000000000000000000000000000008152600401610a9d90611141565b60405180910390fd5b60008060016101000a81548160ff021916908315150217905550610ac8610bd3565b73ffffffffffffffffffffffffffffffffffffffff167fd90c20276b7955800df9b223f244944b25b581f437448b1978aa61d4036b428a6000604051610b0e9190610ce2565b60405180910390a2565b610b206104f9565b15610b60576040517f08c379a0000000000000000000000000000000000000000000000000000000008152600401610b57906111ad565b60405180910390fd5b6001600060016101000a81548160ff021916908315150217905550610b83610bd3565b73ffffffffffffffffffffffffffffffffffffffff167fd90c20276b7955800df9b223f244944b25b581f437448b1978aa61d4036b428a6001604051610bc99190610ce2565b60405180910390a2565b600033905090565b600080fd5b600073ffffffffffffffffffffffffffffffffffffffff82169050919050565b6000610c0b82610be0565b9050919050565b610c1b81610c00565b8114610c2657600080fd5b50565b600081359050610c3881610c12565b92915050565b6000819050919050565b610c5181610c3e565b8114610c5c57600080fd5b50565b600081359050610c6e81610c48565b92915050565b600080600060608486031215610c8d57610c8c610bdb565b5b6000610c9b86828701610c29565b9350506020610cac86828701610c29565b9250506040610cbd86828701610c5f565b9150509250925092565b60008115159050919050565b610cdc81610cc7565b82525050565b6000602082019050610cf76000830184610cd3565b92915050565b60008060408385031215610d1457610d13610bdb565b5b6000610d2285828601610c29565b9250506020610d3385828601610c5f565b9150509250929050565b6000819050919050565b610d5081610d3d565b82525050565b6000602082019050610d6b6000830184610d47565b92915050565b600060208284031215610d8757610d86610bdb565b5b6000610d9584828501610c29565b91505092915050565b600081519050919050565b600082825260208201905092915050565b60005b83811015610dd8578082015181840152602081019050610dbd565b83811115610de7576000848401525b50505050565b6000601f19601f8301169050919050565b6000610e0982610d9e565b610e138185610da9565b9350610e23818560208601610dba565b610e2c81610ded565b840191505092915050565b60006020820190508181036000830152610e518184610dfe565b905092915050565b7f4f6e6c79204f7261636c652061646d696e2063616e2063616c6c20746869732060008201527f66756e6374696f6e000000000000000000000000000000000000000000000000602082015250565b6000610eb5602883610da9565b9150610ec082610e59565b604082019050919050565b60006020820190508181036000830152610ee481610ea8565b9050919050565b7f52652d656e7472616e7420616c65727421000000000000000000000000000000600082015250565b6000610f21601183610da9565b9150610f2c82610eeb565b602082019050919050565b60006020820190508181036000830152610f5081610f14565b9050919050565b610f6081610c00565b82525050565b610f6f81610c3e565b82525050565b6000604082019050610f8a6000830185610f57565b610f976020830184610f66565b9392505050565b610fa781610cc7565b8114610fb257600080fd5b50565b600081519050610fc481610f9e565b92915050565b600060208284031215610fe057610fdf610bdb565b5b6000610fee84828501610fb5565b91505092915050565b600069ffffffffffffffffffff82169050919050565b61101681610ff7565b811461102157600080fd5b50565b6000815190506110338161100d565b92915050565b61104281610d3d565b811461104d57600080fd5b50565b60008151905061105f81611039565b92915050565b60008151905061107481610c48565b92915050565b600080600080600060a0868803121561109657611095610bdb565b5b60006110a488828901611024565b95505060206110b588828901611050565b94505060406110c688828901611065565b93505060606110d788828901611065565b92505060806110e888828901611024565b9150509295509295909350565b7f4e6f742070617573656420737461747573000000000000000000000000000000600082015250565b600061112b601183610da9565b9150611136826110f5565b602082019050919050565b6000602082019050818103600083015261115a8161111e565b9050919050565b7f5061757365642073746174757300000000000000000000000000000000000000600082015250565b6000611197600d83610da9565b91506111a282611161565b602082019050919050565b600060208201905081810360008301526111c68161118a565b905091905056fe436f6e7472616374206973207061757365642e20546f6b656e207472616e7366657273206172652074656d706f726172696c792064697361626c65642ea2646970667358221220c282ed917434b3d629e9fcace1d8c2fbfb973614be9d3fcb4ef0fd7432c6dbad64736f6c63430008090033",
  "immutableReferences": {},
  "source": "// SPDX-License-Identifier: MIT\r\npragma solidity >=0.8.9 <0.9.0;\r\nimport \"./util/Pausable.sol\";\r\nimport \"./util/IBEP20.sol\";\r\n\r\nimport \"./interfaces/AggregatorV3Interface.sol\";\r\nimport \"./interfaces/ILoan.sol\";\r\n\r\ncontract OracleOpen is Pausable {\r\n\r\n    bytes32 adminOpenOracle;\r\n    address adminOpenOracleAddress;\r\n    address superAdminAddress;\r\n    ILoan loan;\r\n    AggregatorV3Interface internal priceFeed;\r\n    AggregatorV3Interface internal priceBnb;\r\n\r\n    constructor(\r\n        address superAdminAddr_\r\n    )\r\n    {\r\n        superAdminAddress = superAdminAddr_;\r\n        adminOpenOracleAddress = msg.sender;\r\n        priceFeed = AggregatorV3Interface(0x9326BFA02ADD2366b30bacB125260Af641031331); // ETH/USD\r\n        priceBnb = AggregatorV3Interface(0x0567F2323251f0Aab15c8dFb1967E4e8A7D42aeE); // BNB / USD\r\n    }\r\n\r\n    receive() external payable {\r\n        payable(adminOpenOracleAddress).transfer(_msgValue());\r\n    }\r\n    \r\n    fallback() external payable {\r\n        payable(adminOpenOracleAddress).transfer(_msgValue());\r\n    }\r\n    \r\n    function transferAnyERC20(address token_,address recipient_,uint256 value_) \r\n        external returns(bool) \r\n    {\r\n        IBEP20(token_).transfer(recipient_, value_);\r\n        return true;\r\n    }\r\n\r\n    function getLatestPrice() public view returns (int) {\r\n        (\r\n            uint80 roundID, \r\n            int price,\r\n            uint startedAt,\r\n            uint timeStamp,\r\n            uint80 answeredInRound\r\n        ) = priceFeed.latestRoundData();\r\n        return price;\r\n    }\r\n\r\n    function getLatestPriceBnb() public view returns (int) {\r\n        (\r\n            uint80 roundID, \r\n            int price,\r\n            uint startedAt,\r\n            uint timeStamp,\r\n            uint80 answeredInRound\r\n        ) = priceBnb.latestRoundData();\r\n        return price;\r\n    }\r\n\r\n    function liquidationTrigger(\r\n        address account, \r\n        uint loanId\r\n    ) public\r\n    {\r\n        loan.liquidation(account, loanId);\r\n    }\r\n\r\n    function pause() external onlyAdmin() nonReentrant() {\r\n       _pause();\r\n\t}\r\n\t\r\n\tfunction unpause() external onlyAdmin() nonReentrant() {\r\n       _unpause();   \r\n\t}\r\n\r\n    function setLoanAddress(address _loanAddress) public onlyAdmin {\r\n        loan = ILoan(_loanAddress);\r\n    }\r\n\r\n    modifier onlyAdmin() {\r\n        require(msg.sender == adminOpenOracleAddress || \r\n            msg.sender == superAdminAddress,\r\n            \"Only Oracle admin can call this function\"\r\n        );\r\n        _;\r\n    }\r\n}\r\n",
  "sourcePath": "F:\\workspace\\Open-protocol\\contracts\\OracleOpen.sol",
  "compiler": {
    "name": "solc",
    "version": "0.8.9+commit.e5eed63a.Emscripten.clang"
  },
  "schemaVersion": "3.4.3",
  "updatedAt": "2021-10-18T16:25:24.269Z",
  "networkType": "ethereum",
  "devdoc": {
    "kind": "dev",
    "methods": {},
    "version": 1
  },
  "userdoc": {
    "kind": "user",
    "methods": {},
    "version": 1
  }
}