{
  "contractName": "OracleOpen",
  "abi": [
    {
      "inputs": [
        {
          "internalType": "address",
          "name": "superAdminAddr_",
          "type": "address"
        }
      ],
      "stateMutability": "nonpayable",
      "type": "constructor"
    },
    {
      "anonymous": false,
      "inputs": [
        {
          "indexed": true,
          "internalType": "address",
          "name": "_pauser",
          "type": "address"
        },
        {
          "indexed": false,
          "internalType": "bool",
          "name": "isPaused",
          "type": "bool"
        }
      ],
      "name": "PauseState",
      "type": "event"
    },
    {
      "stateMutability": "payable",
      "type": "fallback"
    },
    {
      "inputs": [],
      "name": "pauseState",
      "outputs": [
        {
          "internalType": "string",
          "name": "",
          "type": "string"
        }
      ],
      "stateMutability": "view",
      "type": "function"
    },
    {
      "inputs": [],
      "name": "paused",
      "outputs": [
        {
          "internalType": "bool",
          "name": "",
          "type": "bool"
        }
      ],
      "stateMutability": "view",
      "type": "function"
    },
    {
      "stateMutability": "payable",
      "type": "receive"
    },
    {
      "inputs": [
        {
          "internalType": "address",
          "name": "token_",
          "type": "address"
        },
        {
          "internalType": "address",
          "name": "recipient_",
          "type": "address"
        },
        {
          "internalType": "uint256",
          "name": "value_",
          "type": "uint256"
        }
      ],
      "name": "transferAnyBEP20",
      "outputs": [
        {
          "internalType": "bool",
          "name": "",
          "type": "bool"
        }
      ],
      "stateMutability": "nonpayable",
      "type": "function"
    },
    {
      "inputs": [
        {
          "internalType": "address",
          "name": "_addrMarket",
          "type": "address"
        }
      ],
      "name": "getLatestPrice",
      "outputs": [
        {
          "internalType": "uint256",
          "name": "",
          "type": "uint256"
        }
      ],
      "stateMutability": "view",
      "type": "function"
    },
    {
      "inputs": [
        {
          "internalType": "address",
          "name": "account",
          "type": "address"
        },
        {
          "internalType": "uint256",
          "name": "loanId",
          "type": "uint256"
        }
      ],
      "name": "liquidationTrigger",
      "outputs": [],
      "stateMutability": "nonpayable",
      "type": "function"
    },
    {
      "inputs": [],
      "name": "pause",
      "outputs": [],
      "stateMutability": "nonpayable",
      "type": "function"
    },
    {
      "inputs": [],
      "name": "unpause",
      "outputs": [],
      "stateMutability": "nonpayable",
      "type": "function"
    },
    {
      "inputs": [
        {
          "internalType": "address",
          "name": "_loanAddress",
          "type": "address"
        }
      ],
      "name": "setLoanAddress",
      "outputs": [],
      "stateMutability": "nonpayable",
      "type": "function"
    }
  ],
  "bytecode": "0x60806040526000805460ff1916905534801561001a57600080fd5b506040516109f73803806109f783398101604081905261003991610072565b6000805461ff0019169055600380546001600160a01b039092166001600160a01b031992831617905560028054909116331790556100a2565b60006020828403121561008457600080fd5b81516001600160a01b038116811461009b57600080fd5b9392505050565b610946806100b16000396000f3fe60806040526004361061007f5760003560e01c80638456cb591161004e5780638456cb591461016c57806386440958146101815780639e45576e146101a1578063d7118351146101c1576100c0565b806316345f18146100d5578063164b2630146101085780633f4ba83a146101385780635c975abb1461014f576100c0565b366100c0576002546001600160a01b03166108fc345b6040518115909202916000818181858888f193505050501580156100bd573d6000803e3d6000fd5b50005b6002546001600160a01b03166108fc34610095565b3480156100e157600080fd5b506100f56100f0366004610722565b6101e3565b6040519081526020015b60405180910390f35b34801561011457600080fd5b50610128610123366004610744565b61026d565b60405190151581526020016100ff565b34801561014457600080fd5b5061014d610345565b005b34801561015b57600080fd5b50600054610100900460ff16610128565b34801561017857600080fd5b5061014d6103ec565b34801561018d57600080fd5b5061014d61019c366004610780565b610487565b3480156101ad57600080fd5b5061014d6101bc366004610722565b610514565b3480156101cd57600080fd5b506101d6610575565b6040516100ff91906107aa565b600080600080600080866001600160a01b031663feaf968c6040518163ffffffff1660e01b815260040160a06040518083038186803b15801561022557600080fd5b505afa158015610239573d6000803e3d6000fd5b505050506040513d601f19601f8201168201806040525081019061025d9190610819565b50919a9950505050505050505050565b6002546000906001600160a01b031633148061029357506003546001600160a01b031633145b6102b85760405162461bcd60e51b81526004016102af90610869565b60405180910390fd5b60405163a9059cbb60e01b81526001600160a01b0384811660048301526024820184905285169063a9059cbb90604401602060405180830381600087803b15801561030257600080fd5b505af1158015610316573d6000803e3d6000fd5b505050506040513d601f19601f8201168201806040525081019061033a91906108b1565b506001949350505050565b6002546001600160a01b031633148061036857506003546001600160a01b031633145b6103845760405162461bcd60e51b81526004016102af90610869565b60005460ff16156103cb5760405162461bcd60e51b815260206004820152601160248201527052652d656e7472616e7420616c6572742160781b60448201526064016102af565b6000805460ff191660011790556103e06105dd565b6000805460ff19169055565b6002546001600160a01b031633148061040f57506003546001600160a01b031633145b61042b5760405162461bcd60e51b81526004016102af90610869565b60005460ff16156104725760405162461bcd60e51b815260206004820152601160248201527052652d656e7472616e7420616c6572742160781b60448201526064016102af565b6000805460ff191660011790556103e061066b565b60048054604051633795dc3560e11b81526001600160a01b038581169382019390935260248101849052911690636f2bb86a90604401602060405180830381600087803b1580156104d757600080fd5b505af11580156104eb573d6000803e3d6000fd5b505050506040513d601f19601f8201168201806040525081019061050f91906108b1565b505050565b6002546001600160a01b031633148061053757506003546001600160a01b031633145b6105535760405162461bcd60e51b81526004016102af90610869565b600480546001600160a01b0319166001600160a01b0392909216919091179055565b60005460609060ff610100909104161515600114156105ac576040518060600160405280603d81526020016108d4603d9139905090565b5060408051808201909152601681527510dbdb9d1c9858dd081a5cc81b9bdd081c185d5cd95960521b602082015290565b600054610100900460ff166106285760405162461bcd60e51b81526020600482015260116024820152704e6f74207061757365642073746174757360781b60448201526064016102af565b6000805461ff001916815560405190815233907fd90c20276b7955800df9b223f244944b25b581f437448b1978aa61d4036b428a906020015b60405180910390a2565b600054610100900460ff16156106b35760405162461bcd60e51b815260206004820152600d60248201526c5061757365642073746174757360981b60448201526064016102af565b6000805461ff0019166101001790556106c93390565b6001600160a01b03167fd90c20276b7955800df9b223f244944b25b581f437448b1978aa61d4036b428a6001604051610661911515815260200190565b80356001600160a01b038116811461071d57600080fd5b919050565b60006020828403121561073457600080fd5b61073d82610706565b9392505050565b60008060006060848603121561075957600080fd5b61076284610706565b925061077060208501610706565b9150604084013590509250925092565b6000806040838503121561079357600080fd5b61079c83610706565b946020939093013593505050565b600060208083528351808285015260005b818110156107d7578581018301518582016040015282016107bb565b818111156107e9576000604083870101525b50601f01601f1916929092016040019392505050565b805169ffffffffffffffffffff8116811461071d57600080fd5b600080600080600060a0868803121561083157600080fd5b61083a866107ff565b945060208601519350604086015192506060860151915061085d608087016107ff565b90509295509295909350565b60208082526028908201527f4f6e6c79204f7261636c652061646d696e2063616e2063616c6c207468697320604082015267333ab731ba34b7b760c11b606082015260800190565b6000602082840312156108c357600080fd5b8151801515811461073d57600080fdfe436f6e7472616374206973207061757365642e20546f6b656e207472616e7366657273206172652074656d706f726172696c792064697361626c65642ea26469706673582212206e71c76ddb190c7c45af10d4b4d7649c9e29b73d8b426202d7771fe04fce253164736f6c63430008090033",
  "immutableReferences": {},
  "source": "// SPDX-License-Identifier: MIT\r\npragma solidity >=0.8.9 <0.9.0;\r\nimport \"./util/Pausable.sol\";\r\n// import \"./mockup/IMockBep20.sol\";\r\nimport \"./util/IBEP20.sol\";\r\n\r\nimport \"./interfaces/AggregatorV3Interface.sol\";\r\nimport \"./interfaces/ILoan.sol\";\r\n\r\ncontract OracleOpen is Pausable {\r\n\r\n    bytes32 adminOpenOracle;\r\n    address adminOpenOracleAddress;\r\n    address superAdminAddress;\r\n    ILoan loan;\r\n\r\n    constructor(address superAdminAddr_) {\r\n        superAdminAddress = superAdminAddr_;\r\n        adminOpenOracleAddress = msg.sender;\r\n    }\r\n\r\n    receive() external payable {\r\n        payable(adminOpenOracleAddress).transfer(_msgValue());\r\n    }\r\n    \r\n    fallback() external payable {\r\n        payable(adminOpenOracleAddress).transfer(_msgValue());\r\n    }\r\n    \r\n    function transferAnyBEP20(address token_,address recipient_,uint256 value_) \r\n        external onlyAdmin returns(bool) \r\n    {\r\n        IBEP20(token_).transfer(recipient_, value_);\r\n        return true;\r\n    }\r\n\r\n    function getLatestPrice(address _addrMarket) public view returns (uint) {\r\n        (\r\n            uint80 roundID, \r\n            int price,\r\n            uint startedAt,\r\n            uint timeStamp,\r\n            uint80 answeredInRound\r\n        ) = AggregatorV3Interface(_addrMarket).latestRoundData();\r\n        return uint256(price);\r\n    }\r\n\r\n    function liquidationTrigger(\r\n        address account, \r\n        uint loanId\r\n    ) public\r\n    {\r\n        loan.liquidation(account, loanId);\r\n    }\r\n\r\n    function pause() external onlyAdmin() nonReentrant() {\r\n       _pause();\r\n\t}\r\n\t\r\n\tfunction unpause() external onlyAdmin() nonReentrant() {\r\n       _unpause();   \r\n\t}\r\n\r\n    function setLoanAddress(address _loanAddress) public onlyAdmin {\r\n        loan = ILoan(_loanAddress);\r\n    }\r\n\r\n    modifier onlyAdmin() {\r\n        require(msg.sender == adminOpenOracleAddress || \r\n            msg.sender == superAdminAddress,\r\n            \"Only Oracle admin can call this function\"\r\n        );\r\n        _;\r\n    }\r\n}\r\n",
  "sourcePath": "F:\\workspace\\Open-protocol\\contracts\\OracleOpen.sol",
  "compiler": {
    "name": "solc",
    "version": "0.8.9+commit.e5eed63a.Emscripten.clang"
  },
  "schemaVersion": "3.4.3",
  "updatedAt": "2021-10-23T13:11:27.208Z",
  "devdoc": {
    "kind": "dev",
    "methods": {},
    "version": 1
  },
  "userdoc": {
    "kind": "user",
    "methods": {},
    "version": 1
  }
}