{
  "contractName": "ProxyAccessRegistry",
  "abi": [
    {
      "inputs": [],
      "stateMutability": "nonpayable",
      "type": "constructor"
    },
    {
      "inputs": [
        {
          "internalType": "address",
          "name": "_newOwner",
          "type": "address"
        }
      ],
      "name": "transferProxyOwnership",
      "outputs": [],
      "stateMutability": "nonpayable",
      "type": "function"
    },
    {
      "inputs": [
        {
          "internalType": "address",
          "name": "_implementation",
          "type": "address"
        }
      ],
      "name": "upgradeTo",
      "outputs": [],
      "stateMutability": "nonpayable",
      "type": "function"
    },
    {
      "inputs": [],
      "name": "implementation",
      "outputs": [
        {
          "internalType": "address",
          "name": "impl",
          "type": "address"
        }
      ],
      "stateMutability": "view",
      "type": "function"
    },
    {
      "inputs": [],
      "name": "proxyOwner",
      "outputs": [
        {
          "internalType": "address",
          "name": "owner",
          "type": "address"
        }
      ],
      "stateMutability": "view",
      "type": "function"
    }
  ],
  "bytecode": "0x608060405234801561001057600080fd5b506100203361002560201b60201c565b610051565b60007f550660f651e2eba1f42d909178abf3134ac364f2a211cd09ff4921845a85b1d790508181555050565b61038b806100606000396000f3fe608060405234801561001057600080fd5b506004361061004c5760003560e01c8063025313a2146100515780633659cfe61461006f5780635c60da1b1461008b578063f1739cae146100a9575b600080fd5b6100596100c5565b60405161006691906102dc565b60405180910390f35b61008960048036038101906100849190610328565b6100f3565b005b61009361013e565b6040516100a091906102dc565b60405180910390f35b6100c360048036038101906100be9190610328565b61016c565b005b6000807f550660f651e2eba1f42d909178abf3134ac364f2a211cd09ff4921845a85b1d79050805491505090565b6100fb6100c5565b73ffffffffffffffffffffffffffffffffffffffff163373ffffffffffffffffffffffffffffffffffffffff161461013257600080fd5b61013b816101f1565b50565b6000807f04475c3ba8239906ec67715b19239264505acfa3e52ccc1e633040241724b08d9050805491505090565b6101746100c5565b73ffffffffffffffffffffffffffffffffffffffff163373ffffffffffffffffffffffffffffffffffffffff16146101ab57600080fd5b600073ffffffffffffffffffffffffffffffffffffffff168173ffffffffffffffffffffffffffffffffffffffff1614156101e557600080fd5b6101ee81610243565b50565b60006101fb61013e565b90508173ffffffffffffffffffffffffffffffffffffffff168173ffffffffffffffffffffffffffffffffffffffff16141561023657600080fd5b61023f8261026f565b5050565b60007f550660f651e2eba1f42d909178abf3134ac364f2a211cd09ff4921845a85b1d790508181555050565b60007f04475c3ba8239906ec67715b19239264505acfa3e52ccc1e633040241724b08d90508181555050565b600073ffffffffffffffffffffffffffffffffffffffff82169050919050565b60006102c68261029b565b9050919050565b6102d6816102bb565b82525050565b60006020820190506102f160008301846102cd565b92915050565b600080fd5b610305816102bb565b811461031057600080fd5b50565b600081359050610322816102fc565b92915050565b60006020828403121561033e5761033d6102f7565b5b600061034c84828501610313565b9150509291505056fea2646970667358221220a820381e75e2b1ca082f53a63901b4c92858a21d95f8642e1073ccc85bd4fd7964736f6c63430008080033",
  "immutableReferences": {},
  "source": "// SPDX-License-Identifier: MIT\r\npragma solidity >=0.8.7 <0.9.0;\r\n\r\ncontract ProxyAccessRegistry {\r\n    \r\n    // Storage position of the address of the current implementation\r\n    bytes32 private constant implementationPosition = \r\n        keccak256(\"AccessRegistry.implementation.address\");\r\n    \r\n    // Storage position of the owner of the contract\r\n    bytes32 private constant proxyOwnerPosition = \r\n        keccak256(\"AccessRegistry.proxy.owner\");\r\n    \r\n    modifier onlyProxyOwner() {\r\n        require (msg.sender == proxyOwner());\r\n        _;\r\n    }\r\n    \r\n    constructor() public {\r\n        _setUpgradeabilityOwner(msg.sender);\r\n    }\r\n    \r\n    function transferProxyOwnership(address _newOwner) \r\n        public onlyProxyOwner \r\n    {\r\n        require(_newOwner != address(0));\r\n        _setUpgradeabilityOwner(_newOwner);\r\n    }\r\n    \r\n    function upgradeTo(address _implementation) \r\n        public onlyProxyOwner\r\n    {\r\n        _upgradeTo(_implementation);\r\n    }\r\n    \r\n    function implementation() public view returns (address impl) {\r\n        bytes32 position = implementationPosition;\r\n        assembly {\r\n            impl := sload(position)\r\n        }\r\n    }\r\n    \r\n    function proxyOwner() public view returns (address owner) {\r\n        bytes32 position = proxyOwnerPosition;\r\n        assembly {\r\n            owner := sload(position)\r\n        }\r\n    }\r\n    \r\n    function _setImplementation(address _newImplementation) \r\n        internal \r\n    {\r\n        bytes32 position = implementationPosition;\r\n        assembly {\r\n            sstore(position, _newImplementation)\r\n        }\r\n    }\r\n    \r\n    function _upgradeTo(address _newImplementation) internal {\r\n        address currentImplementation = implementation();\r\n        require(currentImplementation != _newImplementation);\r\n        _setImplementation(_newImplementation);\r\n    }\r\n    \r\n    function _setUpgradeabilityOwner(address _newProxyOwner) \r\n        internal \r\n    {\r\n        bytes32 position = proxyOwnerPosition;\r\n        assembly {\r\n            sstore(position, _newProxyOwner)\r\n        }\r\n    }\r\n}",
  "sourcePath": "F:\\workspace\\Open-protocol\\contracts\\ProxyAccessRegistry.sol",
  "compiler": {
    "name": "solc",
    "version": "0.8.8+commit.dddeac2f.Emscripten.clang"
  },
  "schemaVersion": "3.4.3",
  "updatedAt": "2021-09-29T05:13:34.627Z",
  "devdoc": {
    "kind": "dev",
    "methods": {},
    "version": 1
  },
  "userdoc": {
    "kind": "user",
    "methods": {},
    "version": 1
  }
}