{
  "contractName": "Reserve",
  "abi": [
    {
      "inputs": [],
      "stateMutability": "nonpayable",
      "type": "constructor"
    },
    {
      "stateMutability": "payable",
      "type": "fallback"
    },
    {
      "stateMutability": "payable",
      "type": "receive"
    },
    {
      "inputs": [
        {
          "internalType": "address",
          "name": "token_",
          "type": "address"
        },
        {
          "internalType": "address",
          "name": "recipient_",
          "type": "address"
        },
        {
          "internalType": "uint256",
          "name": "value_",
          "type": "uint256"
        }
      ],
      "name": "transferAnyBEP20",
      "outputs": [
        {
          "internalType": "bool",
          "name": "",
          "type": "bool"
        }
      ],
      "stateMutability": "nonpayable",
      "type": "function"
    }
  ],
  "bytecode": "0x60806040526000600260146101000a81548160ff02191690831515021790555034801561002b57600080fd5b5033600260006101000a81548173ffffffffffffffffffffffffffffffffffffffff021916908373ffffffffffffffffffffffffffffffffffffffff1602179055506105858061007c6000396000f3fe6080604052600436106100225760003560e01c8063164b26301461002b57610029565b3661002957005b005b34801561003757600080fd5b50610052600480360381019061004d9190610317565b610068565b60405161005f9190610385565b60405180910390f35b6000801515600260149054906101000a900460ff161515146100bf576040517f08c379a00000000000000000000000000000000000000000000000000000000081526004016100b6906103fd565b60405180910390fd5b6001600260146101000a81548160ff021916908315150217905550600260009054906101000a900473ffffffffffffffffffffffffffffffffffffffff1673ffffffffffffffffffffffffffffffffffffffff163373ffffffffffffffffffffffffffffffffffffffff161461016a576040517f08c379a00000000000000000000000000000000000000000000000000000000081526004016101619061048f565b60405180910390fd5b836000806101000a81548173ffffffffffffffffffffffffffffffffffffffff021916908373ffffffffffffffffffffffffffffffffffffffff16021790555060008054906101000a900473ffffffffffffffffffffffffffffffffffffffff1673ffffffffffffffffffffffffffffffffffffffff1663a9059cbb84846040518363ffffffff1660e01b81526004016102059291906104cd565b602060405180830381600087803b15801561021f57600080fd5b505af1158015610233573d6000803e3d6000fd5b505050506040513d601f19601f820116820180604052508101906102579190610522565b50600190506000600260146101000a81548160ff0219169083151502179055509392505050565b600080fd5b600073ffffffffffffffffffffffffffffffffffffffff82169050919050565b60006102ae82610283565b9050919050565b6102be816102a3565b81146102c957600080fd5b50565b6000813590506102db816102b5565b92915050565b6000819050919050565b6102f4816102e1565b81146102ff57600080fd5b50565b600081359050610311816102eb565b92915050565b6000806000606084860312156103305761032f61027e565b5b600061033e868287016102cc565b935050602061034f868287016102cc565b925050604061036086828701610302565b9150509250925092565b60008115159050919050565b61037f8161036a565b82525050565b600060208201905061039a6000830184610376565b92915050565b600082825260208201905092915050565b7f52652d656e7472616e7420616c65727421000000000000000000000000000000600082015250565b60006103e76011836103a0565b91506103f2826103b1565b602082019050919050565b60006020820190508181036000830152610416816103da565b9050919050565b7f4f6e6c7920616e2061646d696e2063616e2063616c6c20746869732066756e6360008201527f74696f6e00000000000000000000000000000000000000000000000000000000602082015250565b60006104796024836103a0565b91506104848261041d565b604082019050919050565b600060208201905081810360008301526104a88161046c565b9050919050565b6104b8816102a3565b82525050565b6104c7816102e1565b82525050565b60006040820190506104e260008301856104af565b6104ef60208301846104be565b9392505050565b6104ff8161036a565b811461050a57600080fd5b50565b60008151905061051c816104f6565b92915050565b6000602082840312156105385761053761027e565b5b60006105468482850161050d565b9150509291505056fea26469706673582212202356cf50b871092eaa320759a868518fb5f6792f2808ed6b153641b1b09ec36264736f6c63430008090033",
  "immutableReferences": {},
  "source": "// SPDX-License-Identifier: MIT\r\npragma solidity >=0.8.7 <0.9.0;\r\n\r\nimport \"./util/IBEP20.sol\";\r\n\r\ncontract Reserve {\r\n    \r\n    IBEP20 token;\r\n\r\n    bytes32 adminReserve;\r\n    address adminReserveAddress;\r\n\r\n    bool isReentrant = false;\r\n\r\n\r\n    constructor()   {\r\n        adminReserveAddress = msg.sender;\r\n    }\r\n\r\n    fallback() external payable {}\r\n    receive() external payable {}\r\n\r\n\r\n    function transferAnyBEP20(address token_,address recipient_,uint256 value_) external nonReentrant()  authReserve()  returns(bool)   {\r\n        token = IBEP20(token_);\r\n        token.transfer(recipient_, value_);\r\n        return true;\r\n    }\r\n\r\n    modifier nonReentrant() {\r\n        require(isReentrant == false, \"Re-entrant alert!\");\r\n        isReentrant = true;\r\n        _;\r\n        isReentrant = false;\r\n    }\r\n\r\n    modifier authReserve()  {\r\n        require(msg.sender == adminReserveAddress, \"Only an admin can call this function\");\r\n        _;\r\n    }\r\n\r\n}\r\n\r\n\r\n\r\n\r\n\r\n//  reserver contract holds all the funds. While the comptroller is the auditor\r\n//  general.\r\n",
  "sourcePath": "F:\\workspace\\Open-protocol\\contracts\\Reserve.sol",
  "compiler": {
    "name": "solc",
    "version": "0.8.9+commit.e5eed63a.Emscripten.clang"
  },
  "schemaVersion": "3.4.3",
  "updatedAt": "2021-09-30T01:03:14.759Z",
  "devdoc": {
    "kind": "dev",
    "methods": {},
    "version": 1
  },
  "userdoc": {
    "kind": "user",
    "methods": {},
    "version": 1
  }
}