{
  "contractName": "Reserve",
  "abi": [
    {
      "inputs": [
        {
          "internalType": "address",
          "name": "superAdminAddr_",
          "type": "address"
        },
        {
          "internalType": "address",
          "name": "depositAddr_",
          "type": "address"
        }
      ],
      "stateMutability": "nonpayable",
      "type": "constructor"
    },
    {
      "anonymous": false,
      "inputs": [
        {
          "indexed": true,
          "internalType": "address",
          "name": "_pauser",
          "type": "address"
        },
        {
          "indexed": false,
          "internalType": "bool",
          "name": "isPaused",
          "type": "bool"
        }
      ],
      "name": "PauseState",
      "type": "event"
    },
    {
      "stateMutability": "payable",
      "type": "fallback"
    },
    {
      "inputs": [],
      "name": "pauseState",
      "outputs": [
        {
          "internalType": "string",
          "name": "",
          "type": "string"
        }
      ],
      "stateMutability": "view",
      "type": "function"
    },
    {
      "inputs": [],
      "name": "paused",
      "outputs": [
        {
          "internalType": "bool",
          "name": "",
          "type": "bool"
        }
      ],
      "stateMutability": "view",
      "type": "function"
    },
    {
      "stateMutability": "payable",
      "type": "receive"
    },
    {
      "inputs": [
        {
          "internalType": "address",
          "name": "token_",
          "type": "address"
        },
        {
          "internalType": "address",
          "name": "_recipient",
          "type": "address"
        },
        {
          "internalType": "uint256",
          "name": "_value",
          "type": "uint256"
        }
      ],
      "name": "transferAnyBEP20",
      "outputs": [
        {
          "internalType": "bool",
          "name": "",
          "type": "bool"
        }
      ],
      "stateMutability": "nonpayable",
      "type": "function"
    },
    {
      "inputs": [
        {
          "internalType": "bytes32",
          "name": "_market",
          "type": "bytes32"
        }
      ],
      "name": "avblMarketReserves",
      "outputs": [
        {
          "internalType": "uint256",
          "name": "",
          "type": "uint256"
        }
      ],
      "stateMutability": "view",
      "type": "function"
    },
    {
      "inputs": [
        {
          "internalType": "bytes32",
          "name": "_market",
          "type": "bytes32"
        }
      ],
      "name": "marketReserves",
      "outputs": [
        {
          "internalType": "uint256",
          "name": "",
          "type": "uint256"
        }
      ],
      "stateMutability": "view",
      "type": "function"
    },
    {
      "inputs": [
        {
          "internalType": "bytes32",
          "name": "_market",
          "type": "bytes32"
        }
      ],
      "name": "marketUtilisation",
      "outputs": [
        {
          "internalType": "uint256",
          "name": "",
          "type": "uint256"
        }
      ],
      "stateMutability": "view",
      "type": "function"
    },
    {
      "inputs": [
        {
          "internalType": "address",
          "name": "loanAddr_",
          "type": "address"
        }
      ],
      "name": "setLoanAddress",
      "outputs": [],
      "stateMutability": "nonpayable",
      "type": "function"
    },
    {
      "inputs": [],
      "name": "pause",
      "outputs": [],
      "stateMutability": "nonpayable",
      "type": "function"
    },
    {
      "inputs": [],
      "name": "unpause",
      "outputs": [],
      "stateMutability": "nonpayable",
      "type": "function"
    }
  ],
  "bytecode": "0x608060405260008060006101000a81548160ff0219169083151502179055503480156200002b57600080fd5b5060405162001839380380620018398339818101604052810190620000519190620001a0565b60008060016101000a81548160ff02191690831515021790555081600560006101000a81548173ffffffffffffffffffffffffffffffffffffffff021916908373ffffffffffffffffffffffffffffffffffffffff16021790555033600460006101000a81548173ffffffffffffffffffffffffffffffffffffffff021916908373ffffffffffffffffffffffffffffffffffffffff16021790555080600060026101000a81548173ffffffffffffffffffffffffffffffffffffffff021916908373ffffffffffffffffffffffffffffffffffffffff1602179055505050620001e7565b600080fd5b600073ffffffffffffffffffffffffffffffffffffffff82169050919050565b600062000168826200013b565b9050919050565b6200017a816200015b565b81146200018657600080fd5b50565b6000815190506200019a816200016f565b92915050565b60008060408385031215620001ba57620001b962000136565b5b6000620001ca8582860162000189565b9250506020620001dd8582860162000189565b9150509250929050565b61164280620001f76000396000f3fe60806040526004361061008a5760003560e01c80635c975abb116100595780635c975abb146102415780638456cb591461026c57806387a1e588146102835780639e45576e146102c0578063d7118351146102e957610101565b8063164b263014610173578063200be40e146101b0578063296d5024146101ed5780633f4ba83a1461022a57610101565b3661010157600460009054906101000a900473ffffffffffffffffffffffffffffffffffffffff1673ffffffffffffffffffffffffffffffffffffffff166108fc6100d3610314565b9081150290604051600060405180830381858888f193505050501580156100fe573d6000803e3d6000fd5b50005b600460009054906101000a900473ffffffffffffffffffffffffffffffffffffffff1673ffffffffffffffffffffffffffffffffffffffff166108fc610145610314565b9081150290604051600060405180830381858888f19350505050158015610170573d6000803e3d6000fd5b50005b34801561017f57600080fd5b5061019a60048036038101906101959190610fd9565b61031c565b6040516101a79190611047565b60405180910390f35b3480156101bc57600080fd5b506101d760048036038101906101d29190611098565b610589565b6040516101e491906110d4565b60405180910390f35b3480156101f957600080fd5b50610214600480360381019061020f9190611098565b61059b565b60405161022191906110d4565b60405180910390f35b34801561023657600080fd5b5061023f6105ad565b005b34801561024d57600080fd5b50610256610727565b6040516102639190611047565b60405180910390f35b34801561027857600080fd5b5061028161073d565b005b34801561028f57600080fd5b506102aa60048036038101906102a59190611098565b6108b7565b6040516102b791906110d4565b60405180910390f35b3480156102cc57600080fd5b506102e760048036038101906102e291906110ef565b6108c9565b005b3480156102f557600080fd5b506102fe6109f5565b60405161030b91906111b5565b60405180910390f35b600034905090565b600080151560008054906101000a900460ff16151514610371576040517f08c379a000000000000000000000000000000000000000000000000000000000815260040161036890611223565b60405180910390fd5b60016000806101000a81548160ff021916908315150217905550600460009054906101000a900473ffffffffffffffffffffffffffffffffffffffff1673ffffffffffffffffffffffffffffffffffffffff163373ffffffffffffffffffffffffffffffffffffffff1614806104345750600560009054906101000a900473ffffffffffffffffffffffffffffffffffffffff1673ffffffffffffffffffffffffffffffffffffffff163373ffffffffffffffffffffffffffffffffffffffff16145b610473576040517f08c379a000000000000000000000000000000000000000000000000000000000815260040161046a906112b5565b60405180910390fd5b83600260006101000a81548173ffffffffffffffffffffffffffffffffffffffff021916908373ffffffffffffffffffffffffffffffffffffffff160217905550600260009054906101000a900473ffffffffffffffffffffffffffffffffffffffff1673ffffffffffffffffffffffffffffffffffffffff1663a9059cbb84846040518363ffffffff1660e01b81526004016105119291906112e4565b602060405180830381600087803b15801561052b57600080fd5b505af115801561053f573d6000803e3d6000fd5b505050506040513d601f19601f820116820180604052508101906105639190611339565b506001905060008060006101000a81548160ff0219169083151502179055509392505050565b600061059482610a6f565b9050919050565b60006105a682610bd8565b9050919050565b600460009054906101000a900473ffffffffffffffffffffffffffffffffffffffff1673ffffffffffffffffffffffffffffffffffffffff163373ffffffffffffffffffffffffffffffffffffffff1614806106565750600560009054906101000a900473ffffffffffffffffffffffffffffffffffffffff1673ffffffffffffffffffffffffffffffffffffffff163373ffffffffffffffffffffffffffffffffffffffff16145b610695576040517f08c379a000000000000000000000000000000000000000000000000000000000815260040161068c906112b5565b60405180910390fd5b6000151560008054906101000a900460ff161515146106e9576040517f08c379a00000000000000000000000000000000000000000000000000000000081526004016106e090611223565b60405180910390fd5b60016000806101000a81548160ff02191690831515021790555061070b610d41565b60008060006101000a81548160ff021916908315150217905550565b60008060019054906101000a900460ff16905090565b600460009054906101000a900473ffffffffffffffffffffffffffffffffffffffff1673ffffffffffffffffffffffffffffffffffffffff163373ffffffffffffffffffffffffffffffffffffffff1614806107e65750600560009054906101000a900473ffffffffffffffffffffffffffffffffffffffff1673ffffffffffffffffffffffffffffffffffffffff163373ffffffffffffffffffffffffffffffffffffffff16145b610825576040517f08c379a000000000000000000000000000000000000000000000000000000000815260040161081c906112b5565b60405180910390fd5b6000151560008054906101000a900460ff16151514610879576040517f08c379a000000000000000000000000000000000000000000000000000000000815260040161087090611223565b60405180910390fd5b60016000806101000a81548160ff02191690831515021790555061089b610dfa565b60008060006101000a81548160ff021916908315150217905550565b60006108c282610eb5565b9050919050565b600460009054906101000a900473ffffffffffffffffffffffffffffffffffffffff1673ffffffffffffffffffffffffffffffffffffffff163373ffffffffffffffffffffffffffffffffffffffff1614806109725750600560009054906101000a900473ffffffffffffffffffffffffffffffffffffffff1673ffffffffffffffffffffffffffffffffffffffff163373ffffffffffffffffffffffffffffffffffffffff16145b6109b1576040517f08c379a00000000000000000000000000000000000000000000000000000000081526004016109a8906112b5565b60405180910390fd5b80600160006101000a81548173ffffffffffffffffffffffffffffffffffffffff021916908373ffffffffffffffffffffffffffffffffffffffff16021790555050565b606060011515600060019054906101000a900460ff1615151415610a33576040518060600160405280603d81526020016115d0603d91399050610a6c565b6040518060400160405280601681526020017f436f6e7472616374206973206e6f74207061757365640000000000000000000081525090505b90565b6000600160009054906101000a900473ffffffffffffffffffffffffffffffffffffffff1673ffffffffffffffffffffffffffffffffffffffff166302fce195836040518263ffffffff1660e01b8152600401610acc9190611375565b60206040518083038186803b158015610ae457600080fd5b505afa158015610af8573d6000803e3d6000fd5b505050506040513d601f19601f82011682018060405250810190610b1c91906113a5565b600060029054906101000a900473ffffffffffffffffffffffffffffffffffffffff1673ffffffffffffffffffffffffffffffffffffffff166302fce195846040518263ffffffff1660e01b8152600401610b779190611375565b60206040518083038186803b158015610b8f57600080fd5b505afa158015610ba3573d6000803e3d6000fd5b505050506040513d601f19601f82011682018060405250810190610bc791906113a5565b610bd19190611401565b9050919050565b6000600160009054906101000a900473ffffffffffffffffffffffffffffffffffffffff1673ffffffffffffffffffffffffffffffffffffffff1663157c71e2836040518263ffffffff1660e01b8152600401610c359190611375565b60206040518083038186803b158015610c4d57600080fd5b505afa158015610c61573d6000803e3d6000fd5b505050506040513d601f19601f82011682018060405250810190610c8591906113a5565b600060029054906101000a900473ffffffffffffffffffffffffffffffffffffffff1673ffffffffffffffffffffffffffffffffffffffff1663157c71e2846040518263ffffffff1660e01b8152600401610ce09190611375565b60206040518083038186803b158015610cf857600080fd5b505afa158015610d0c573d6000803e3d6000fd5b505050506040513d601f19601f82011682018060405250810190610d3091906113a5565b610d3a9190611401565b9050919050565b610d49610727565b610d88576040517f08c379a0000000000000000000000000000000000000000000000000000000008152600401610d7f906114a3565b60405180910390fd5b60008060016101000a81548160ff021916908315150217905550610daa610f38565b73ffffffffffffffffffffffffffffffffffffffff167fd90c20276b7955800df9b223f244944b25b581f437448b1978aa61d4036b428a6000604051610df09190611047565b60405180910390a2565b610e02610727565b15610e42576040517f08c379a0000000000000000000000000000000000000000000000000000000008152600401610e399061150f565b60405180910390fd5b6001600060016101000a81548160ff021916908315150217905550610e65610f38565b73ffffffffffffffffffffffffffffffffffffffff167fd90c20276b7955800df9b223f244944b25b581f437448b1978aa61d4036b428a6001604051610eab9190611047565b60405180910390a2565b600080610ec183610a6f565b610eca84610bd8565b610ed4919061152f565b1015610f15576040517f08c379a0000000000000000000000000000000000000000000000000000000008152600401610f0c906115af565b60405180910390fd5b610f1e82610a6f565b610f2783610bd8565b610f31919061152f565b9050919050565b600033905090565b600080fd5b600073ffffffffffffffffffffffffffffffffffffffff82169050919050565b6000610f7082610f45565b9050919050565b610f8081610f65565b8114610f8b57600080fd5b50565b600081359050610f9d81610f77565b92915050565b6000819050919050565b610fb681610fa3565b8114610fc157600080fd5b50565b600081359050610fd381610fad565b92915050565b600080600060608486031215610ff257610ff1610f40565b5b600061100086828701610f8e565b935050602061101186828701610f8e565b925050604061102286828701610fc4565b9150509250925092565b60008115159050919050565b6110418161102c565b82525050565b600060208201905061105c6000830184611038565b92915050565b6000819050919050565b61107581611062565b811461108057600080fd5b50565b6000813590506110928161106c565b92915050565b6000602082840312156110ae576110ad610f40565b5b60006110bc84828501611083565b91505092915050565b6110ce81610fa3565b82525050565b60006020820190506110e960008301846110c5565b92915050565b60006020828403121561110557611104610f40565b5b600061111384828501610f8e565b91505092915050565b600081519050919050565b600082825260208201905092915050565b60005b8381101561115657808201518184015260208101905061113b565b83811115611165576000848401525b50505050565b6000601f19601f8301169050919050565b60006111878261111c565b6111918185611127565b93506111a1818560208601611138565b6111aa8161116b565b840191505092915050565b600060208201905081810360008301526111cf818461117c565b905092915050565b7f52652d656e7472616e7420616c65727421000000000000000000000000000000600082015250565b600061120d601183611127565b9150611218826111d7565b602082019050919050565b6000602082019050818103600083015261123c81611200565b9050919050565b7f4f6e6c7920526576657273652061646d696e2063616e2063616c6c207468697360008201527f2066756e6374696f6e0000000000000000000000000000000000000000000000602082015250565b600061129f602983611127565b91506112aa82611243565b604082019050919050565b600060208201905081810360008301526112ce81611292565b9050919050565b6112de81610f65565b82525050565b60006040820190506112f960008301856112d5565b61130660208301846110c5565b9392505050565b6113168161102c565b811461132157600080fd5b50565b6000815190506113338161130d565b92915050565b60006020828403121561134f5761134e610f40565b5b600061135d84828501611324565b91505092915050565b61136f81611062565b82525050565b600060208201905061138a6000830184611366565b92915050565b60008151905061139f81610fad565b92915050565b6000602082840312156113bb576113ba610f40565b5b60006113c984828501611390565b91505092915050565b7f4e487b7100000000000000000000000000000000000000000000000000000000600052601160045260246000fd5b600061140c82610fa3565b915061141783610fa3565b9250827fffffffffffffffffffffffffffffffffffffffffffffffffffffffffffffffff0382111561144c5761144b6113d2565b5b828201905092915050565b7f4e6f742070617573656420737461747573000000000000000000000000000000600082015250565b600061148d601183611127565b915061149882611457565b602082019050919050565b600060208201905081810360008301526114bc81611480565b9050919050565b7f5061757365642073746174757300000000000000000000000000000000000000600082015250565b60006114f9600d83611127565b9150611504826114c3565b602082019050919050565b60006020820190508181036000830152611528816114ec565b9050919050565b600061153a82610fa3565b915061154583610fa3565b925082821015611558576115576113d2565b5b828203905092915050565b7f4d617468656d61746963616c206572726f720000000000000000000000000000600082015250565b6000611599601283611127565b91506115a482611563565b602082019050919050565b600060208201905081810360008301526115c88161158c565b905091905056fe436f6e7472616374206973207061757365642e20546f6b656e207472616e7366657273206172652074656d706f726172696c792064697361626c65642ea26469706673582212209b1feddb3d0a09f11de4317d3153ce9daf8263420ba337e7120f1e278fb1713064736f6c63430008090033",
  "immutableReferences": {},
  "source": "// SPDX-License-Identifier: MIT\r\npragma solidity >=0.8.9 <0.9.0;\r\n\r\nimport \"./util/IBEP20.sol\";\r\nimport \"./util/Pausable.sol\";\r\nimport \"./Interfaces/ILoan.sol\";\r\nimport \"./Interfaces/IDeposit.sol\";\r\n\r\ncontract Reserve is Pausable {\r\n    IDeposit deposit;\r\n    ILoan loan;\r\n    // ILoan loan = ILoan(0xeAc61D9e3224B20104e7F0BAD6a6DB7CaF76659B);\r\n    // IDeposit deposit = IDeposit(0xeAc61D9e3224B20104e7F0BAD6a6DB7CaF76659B);\r\n\r\n    IBEP20 token;\r\n\r\n    bytes32 adminReserve;\r\n    address adminReserveAddress;\r\n    address superAdminAddress;\r\n\r\n    constructor(address superAdminAddr_, address depositAddr_) {\r\n        superAdminAddress = superAdminAddr_;\r\n        adminReserveAddress = msg.sender;\r\n        deposit = IDeposit(depositAddr_);\r\n    }\r\n    \r\n    receive() external payable {\r\n        payable(adminReserveAddress).transfer(_msgValue());\r\n    }\r\n    \r\n    fallback() external payable {\r\n        payable(adminReserveAddress).transfer(_msgValue());\r\n    }\r\n    \r\n    // function transferAnyERC20(address token_,address _recipient,uint256 _value) external returns(bool) {\r\n    //     IBEP20(token_).transfer(_recipient, _value);\r\n    //     return true;\r\n    // }\r\n\r\n    function transferAnyBEP20(\r\n        address token_,\r\n        address _recipient,\r\n        uint256 _value) external nonReentrant  authReserve  returns(bool)   \r\n    {\r\n        token = IBEP20(token_);\r\n        token.transfer(_recipient, _value);\r\n        return true;\r\n    }\r\n\r\n    // function marketReserves(bytes32 _market) external view returns(uint) {\r\n    //     _avblReserves(_market);\r\n    // }\r\n    // function _avblReserves(bytes32 _market) internal view returns(uint) {\r\n    //     return loan.reserves(_market) + deposit.reserves(_market);\r\n    // }\r\n\r\n    function avblMarketReserves(bytes32 _market) external view returns (uint)    {\r\n        return _avblMarketReserves(_market);\r\n    }\r\n    function _avblMarketReserves(bytes32 _market) internal view returns (uint) {\r\n        require((_marketReserves(_market) - _marketUtilisation(_market)) >=0, \"Mathematical error\");\r\n        return _marketReserves(_market) - _marketUtilisation(_market);\r\n    }\r\n\r\n\tfunction marketReserves(bytes32 _market) external view returns(uint)\t{\r\n\t\treturn _marketReserves(_market);\r\n\t}\r\n\r\n\tfunction _marketReserves(bytes32 _market) internal view returns (uint) {\r\n\t\treturn deposit.avblReserves(_market)+loan.avblReserves(_market);\r\n\t}\r\n\t\r\n\tfunction marketUtilisation(bytes32 _market) external view returns(uint)\t{\r\n\t\treturn _marketUtilisation(_market);\r\n\t}\r\n\r\n\tfunction _marketUtilisation(bytes32 _market) internal view returns (uint) {\r\n\t\treturn deposit.utilisedReserves(_market) + loan.utilisedReserves(_market);\r\n\t}\r\n\r\n    function setLoanAddress(address loanAddr_) public authReserve {\r\n        loan = ILoan(loanAddr_);\r\n    }\r\n\r\n    modifier authReserve()  {\r\n        require(msg.sender == adminReserveAddress || \r\n            msg.sender == superAdminAddress, \r\n            \"Only Reverse admin can call this function\"\r\n        );\r\n        _;\r\n    }\r\n\r\n    function pause() external authReserve() nonReentrant() {\r\n       _pause();\r\n\t}\r\n\t\r\n\tfunction unpause() external authReserve() nonReentrant() {\r\n       _unpause();   \r\n\t}\r\n\r\n}",
  "sourcePath": "F:\\workspace\\Open-protocol\\contracts\\Reserve.sol",
  "compiler": {
    "name": "solc",
    "version": "0.8.9+commit.e5eed63a.Emscripten.clang"
  },
  "schemaVersion": "3.4.3",
  "updatedAt": "2021-10-18T04:43:18.689Z",
  "devdoc": {
    "kind": "dev",
    "methods": {},
    "version": 1
  },
  "userdoc": {
    "kind": "user",
    "methods": {},
    "version": 1
  }
}