{
  "contractName": "Reserve",
  "abi": [
    {
      "inputs": [],
      "stateMutability": "nonpayable",
      "type": "constructor"
    },
    {
      "anonymous": false,
      "inputs": [
        {
          "indexed": true,
          "internalType": "address",
          "name": "_pauser",
          "type": "address"
        },
        {
          "indexed": false,
          "internalType": "bool",
          "name": "isPaused",
          "type": "bool"
        }
      ],
      "name": "PauseState",
      "type": "event"
    },
    {
      "stateMutability": "payable",
      "type": "fallback"
    },
    {
      "inputs": [],
      "name": "pauseState",
      "outputs": [
        {
          "internalType": "string",
          "name": "",
          "type": "string"
        }
      ],
      "stateMutability": "view",
      "type": "function"
    },
    {
      "inputs": [],
      "name": "paused",
      "outputs": [
        {
          "internalType": "bool",
          "name": "",
          "type": "bool"
        }
      ],
      "stateMutability": "view",
      "type": "function"
    },
    {
      "stateMutability": "payable",
      "type": "receive"
    },
    {
      "inputs": [
        {
          "internalType": "address",
          "name": "token_",
          "type": "address"
        },
        {
          "internalType": "address",
          "name": "recipient_",
          "type": "address"
        },
        {
          "internalType": "uint256",
          "name": "value_",
          "type": "uint256"
        }
      ],
      "name": "transferAnyERC20",
      "outputs": [
        {
          "internalType": "bool",
          "name": "",
          "type": "bool"
        }
      ],
      "stateMutability": "nonpayable",
      "type": "function"
    },
    {
      "inputs": [
        {
          "internalType": "address",
          "name": "token_",
          "type": "address"
        },
        {
          "internalType": "address",
          "name": "recipient_",
          "type": "address"
        },
        {
          "internalType": "uint256",
          "name": "value_",
          "type": "uint256"
        }
      ],
      "name": "transferAnyBEP20",
      "outputs": [
        {
          "internalType": "bool",
          "name": "",
          "type": "bool"
        }
      ],
      "stateMutability": "nonpayable",
      "type": "function"
    },
    {
      "inputs": [],
      "name": "pause",
      "outputs": [],
      "stateMutability": "nonpayable",
      "type": "function"
    },
    {
      "inputs": [],
      "name": "unpause",
      "outputs": [],
      "stateMutability": "nonpayable",
      "type": "function"
    }
  ],
  "bytecode": "0x608060405260008060006101000a81548160ff02191690831515021790555034801561002a57600080fd5b5060008060016101000a81548160ff02191690831515021790555033600260006101000a81548173ffffffffffffffffffffffffffffffffffffffff021916908373ffffffffffffffffffffffffffffffffffffffff160217905550610e0e806100956000396000f3fe6080604052600436106100595760003560e01c8063164b2630146101425780633f4ba83a1461017f5780635b6f547e146101965780635c975abb146101d35780638456cb59146101fe578063d711835114610215576100d0565b366100d057600260009054906101000a900473ffffffffffffffffffffffffffffffffffffffff1673ffffffffffffffffffffffffffffffffffffffff166108fc6100a2610240565b9081150290604051600060405180830381858888f193505050501580156100cd573d6000803e3d6000fd5b50005b600260009054906101000a900473ffffffffffffffffffffffffffffffffffffffff1673ffffffffffffffffffffffffffffffffffffffff166108fc610114610240565b9081150290604051600060405180830381858888f1935050505015801561013f573d6000803e3d6000fd5b50005b34801561014e57600080fd5b50610169600480360381019061016491906109e1565b610248565b6040516101769190610a4f565b60405180910390f35b34801561018b57600080fd5b5061019461045d565b005b3480156101a257600080fd5b506101bd60048036038101906101b891906109e1565b61057f565b6040516101ca9190610a4f565b60405180910390f35b3480156101df57600080fd5b506101e861061a565b6040516101f59190610a4f565b60405180910390f35b34801561020a57600080fd5b50610213610630565b005b34801561022157600080fd5b5061022a610752565b6040516102379190610b03565b60405180910390f35b600034905090565b600080151560008054906101000a900460ff1615151461029d576040517f08c379a000000000000000000000000000000000000000000000000000000000815260040161029490610b71565b60405180910390fd5b60016000806101000a81548160ff021916908315150217905550600260009054906101000a900473ffffffffffffffffffffffffffffffffffffffff1673ffffffffffffffffffffffffffffffffffffffff163373ffffffffffffffffffffffffffffffffffffffff1614610347576040517f08c379a000000000000000000000000000000000000000000000000000000000815260040161033e90610c03565b60405180910390fd5b83600060026101000a81548173ffffffffffffffffffffffffffffffffffffffff021916908373ffffffffffffffffffffffffffffffffffffffff160217905550600060029054906101000a900473ffffffffffffffffffffffffffffffffffffffff1673ffffffffffffffffffffffffffffffffffffffff1663a9059cbb84846040518363ffffffff1660e01b81526004016103e5929190610c41565b602060405180830381600087803b1580156103ff57600080fd5b505af1158015610413573d6000803e3d6000fd5b505050506040513d601f19601f820116820180604052508101906104379190610c96565b506001905060008060006101000a81548160ff0219169083151502179055509392505050565b600260009054906101000a900473ffffffffffffffffffffffffffffffffffffffff1673ffffffffffffffffffffffffffffffffffffffff163373ffffffffffffffffffffffffffffffffffffffff16146104ed576040517f08c379a00000000000000000000000000000000000000000000000000000000081526004016104e490610c03565b60405180910390fd5b6000151560008054906101000a900460ff16151514610541576040517f08c379a000000000000000000000000000000000000000000000000000000000815260040161053890610b71565b60405180910390fd5b60016000806101000a81548160ff0219169083151502179055506105636107cc565b60008060006101000a81548160ff021916908315150217905550565b60008373ffffffffffffffffffffffffffffffffffffffff1663a9059cbb84846040518363ffffffff1660e01b81526004016105bc929190610c41565b602060405180830381600087803b1580156105d657600080fd5b505af11580156105ea573d6000803e3d6000fd5b505050506040513d601f19601f8201168201806040525081019061060e9190610c96565b50600190509392505050565b60008060019054906101000a900460ff16905090565b600260009054906101000a900473ffffffffffffffffffffffffffffffffffffffff1673ffffffffffffffffffffffffffffffffffffffff163373ffffffffffffffffffffffffffffffffffffffff16146106c0576040517f08c379a00000000000000000000000000000000000000000000000000000000081526004016106b790610c03565b60405180910390fd5b6000151560008054906101000a900460ff16151514610714576040517f08c379a000000000000000000000000000000000000000000000000000000000815260040161070b90610b71565b60405180910390fd5b60016000806101000a81548160ff021916908315150217905550610736610885565b60008060006101000a81548160ff021916908315150217905550565b606060011515600060019054906101000a900460ff1615151415610790576040518060600160405280603d8152602001610d9c603d913990506107c9565b6040518060400160405280601681526020017f436f6e7472616374206973206e6f74207061757365640000000000000000000081525090505b90565b6107d461061a565b610813576040517f08c379a000000000000000000000000000000000000000000000000000000000815260040161080a90610d0f565b60405180910390fd5b60008060016101000a81548160ff021916908315150217905550610835610940565b73ffffffffffffffffffffffffffffffffffffffff167fd90c20276b7955800df9b223f244944b25b581f437448b1978aa61d4036b428a600060405161087b9190610a4f565b60405180910390a2565b61088d61061a565b156108cd576040517f08c379a00000000000000000000000000000000000000000000000000000000081526004016108c490610d7b565b60405180910390fd5b6001600060016101000a81548160ff0219169083151502179055506108f0610940565b73ffffffffffffffffffffffffffffffffffffffff167fd90c20276b7955800df9b223f244944b25b581f437448b1978aa61d4036b428a60016040516109369190610a4f565b60405180910390a2565b600033905090565b600080fd5b600073ffffffffffffffffffffffffffffffffffffffff82169050919050565b60006109788261094d565b9050919050565b6109888161096d565b811461099357600080fd5b50565b6000813590506109a58161097f565b92915050565b6000819050919050565b6109be816109ab565b81146109c957600080fd5b50565b6000813590506109db816109b5565b92915050565b6000806000606084860312156109fa576109f9610948565b5b6000610a0886828701610996565b9350506020610a1986828701610996565b9250506040610a2a868287016109cc565b9150509250925092565b60008115159050919050565b610a4981610a34565b82525050565b6000602082019050610a646000830184610a40565b92915050565b600081519050919050565b600082825260208201905092915050565b60005b83811015610aa4578082015181840152602081019050610a89565b83811115610ab3576000848401525b50505050565b6000601f19601f8301169050919050565b6000610ad582610a6a565b610adf8185610a75565b9350610aef818560208601610a86565b610af881610ab9565b840191505092915050565b60006020820190508181036000830152610b1d8184610aca565b905092915050565b7f52652d656e7472616e7420616c65727421000000000000000000000000000000600082015250565b6000610b5b601183610a75565b9150610b6682610b25565b602082019050919050565b60006020820190508181036000830152610b8a81610b4e565b9050919050565b7f4f6e6c7920526576657273652061646d696e2063616e2063616c6c207468697360008201527f2066756e6374696f6e0000000000000000000000000000000000000000000000602082015250565b6000610bed602983610a75565b9150610bf882610b91565b604082019050919050565b60006020820190508181036000830152610c1c81610be0565b9050919050565b610c2c8161096d565b82525050565b610c3b816109ab565b82525050565b6000604082019050610c566000830185610c23565b610c636020830184610c32565b9392505050565b610c7381610a34565b8114610c7e57600080fd5b50565b600081519050610c9081610c6a565b92915050565b600060208284031215610cac57610cab610948565b5b6000610cba84828501610c81565b91505092915050565b7f4e6f742070617573656420737461747573000000000000000000000000000000600082015250565b6000610cf9601183610a75565b9150610d0482610cc3565b602082019050919050565b60006020820190508181036000830152610d2881610cec565b9050919050565b7f5061757365642073746174757300000000000000000000000000000000000000600082015250565b6000610d65600d83610a75565b9150610d7082610d2f565b602082019050919050565b60006020820190508181036000830152610d9481610d58565b905091905056fe436f6e7472616374206973207061757365642e20546f6b656e207472616e7366657273206172652074656d706f726172696c792064697361626c65642ea264697066735822122046393128bdedbd514cabff2765be1ec44f511aa41b9f72822356970c5b708c9164736f6c63430008090033",
  "immutableReferences": {},
  "source": "// SPDX-License-Identifier: MIT\r\npragma solidity >=0.8.9 <0.9.0;\r\n\r\nimport \"./util/IBEP20.sol\";\r\nimport \"./util/Pausable.sol\";\r\n\r\ncontract Reserve is Pausable {\r\n    \r\n    IBEP20 token;\r\n\r\n    bytes32 adminReserve;\r\n    address adminReserveAddress;\r\n\r\n    constructor()   {\r\n        adminReserveAddress = msg.sender;\r\n    }\r\n    \r\n    receive() external payable {\r\n        payable(adminReserveAddress).transfer(_msgValue());\r\n    }\r\n    \r\n    fallback() external payable {\r\n        payable(adminReserveAddress).transfer(_msgValue());\r\n    }\r\n    \r\n    function transferAnyERC20(address token_,address recipient_,uint256 value_) external returns(bool) {\r\n        IBEP20(token_).transfer(recipient_, value_);\r\n        return true;\r\n    }\r\n\r\n    function transferAnyBEP20(address token_,address recipient_,uint256 value_) external nonReentrant  authReserve  returns(bool)   {\r\n        token = IBEP20(token_);\r\n        token.transfer(recipient_, value_);\r\n        return true;\r\n    }\r\n\r\n    modifier authReserve()  {\r\n        require(msg.sender == adminReserveAddress, \"Only Reverse admin can call this function\");\r\n        _;\r\n    }\r\n\r\n    function pause() external authReserve() nonReentrant() {\r\n       _pause();\r\n\t}\r\n\t\r\n\tfunction unpause() external authReserve() nonReentrant() {\r\n       _unpause();   \r\n\t}\r\n\r\n}\r\n\r\n\r\n\r\n\r\n\r\n//  reserver contract holds all the funds. While the comptroller is the auditor\r\n//  general.\r\n",
  "sourcePath": "F:\\workspace\\Open-protocol\\contracts\\Reserve.sol",
  "compiler": {
    "name": "solc",
    "version": "0.8.9+commit.e5eed63a.Emscripten.clang"
  },
  "schemaVersion": "3.4.3",
  "updatedAt": "2021-09-30T23:52:23.975Z",
  "devdoc": {
    "kind": "dev",
    "methods": {},
    "version": 1
  },
  "userdoc": {
    "kind": "user",
    "methods": {},
    "version": 1
  }
}