{
  "contractName": "Reserve",
  "abi": [
    {
      "inputs": [
        {
          "internalType": "address",
          "name": "superAdminAddr_",
          "type": "address"
        },
        {
          "internalType": "address",
          "name": "depositAddr_",
          "type": "address"
        }
      ],
      "stateMutability": "nonpayable",
      "type": "constructor"
    },
    {
      "anonymous": false,
      "inputs": [
        {
          "indexed": true,
          "internalType": "address",
          "name": "_pauser",
          "type": "address"
        },
        {
          "indexed": false,
          "internalType": "bool",
          "name": "isPaused",
          "type": "bool"
        }
      ],
      "name": "PauseState",
      "type": "event"
    },
    {
      "stateMutability": "payable",
      "type": "fallback"
    },
    {
      "inputs": [],
      "name": "pauseState",
      "outputs": [
        {
          "internalType": "string",
          "name": "",
          "type": "string"
        }
      ],
      "stateMutability": "view",
      "type": "function"
    },
    {
      "inputs": [],
      "name": "paused",
      "outputs": [
        {
          "internalType": "bool",
          "name": "",
          "type": "bool"
        }
      ],
      "stateMutability": "view",
      "type": "function"
    },
    {
      "stateMutability": "payable",
      "type": "receive"
    },
    {
      "inputs": [
        {
          "internalType": "address",
          "name": "token_",
          "type": "address"
        },
        {
          "internalType": "address",
          "name": "_recipient",
          "type": "address"
        },
        {
          "internalType": "uint256",
          "name": "_value",
          "type": "uint256"
        }
      ],
      "name": "transferAnyBEP20",
      "outputs": [
        {
          "internalType": "bool",
          "name": "",
          "type": "bool"
        }
      ],
      "stateMutability": "nonpayable",
      "type": "function"
    },
    {
      "inputs": [
        {
          "internalType": "bytes32",
          "name": "_market",
          "type": "bytes32"
        }
      ],
      "name": "avblMarketReserves",
      "outputs": [
        {
          "internalType": "uint256",
          "name": "",
          "type": "uint256"
        }
      ],
      "stateMutability": "view",
      "type": "function"
    },
    {
      "inputs": [
        {
          "internalType": "bytes32",
          "name": "_market",
          "type": "bytes32"
        }
      ],
      "name": "marketReserves",
      "outputs": [
        {
          "internalType": "uint256",
          "name": "",
          "type": "uint256"
        }
      ],
      "stateMutability": "view",
      "type": "function"
    },
    {
      "inputs": [
        {
          "internalType": "bytes32",
          "name": "_market",
          "type": "bytes32"
        }
      ],
      "name": "marketUtilisation",
      "outputs": [
        {
          "internalType": "uint256",
          "name": "",
          "type": "uint256"
        }
      ],
      "stateMutability": "view",
      "type": "function"
    },
    {
      "inputs": [
        {
          "internalType": "address",
          "name": "_account",
          "type": "address"
        },
        {
          "internalType": "bytes32",
          "name": "_market",
          "type": "bytes32"
        },
        {
          "internalType": "bytes32",
          "name": "_commitment",
          "type": "bytes32"
        }
      ],
      "name": "collateralTransfer",
      "outputs": [],
      "stateMutability": "nonpayable",
      "type": "function"
    },
    {
      "inputs": [
        {
          "internalType": "address",
          "name": "loanAddr_",
          "type": "address"
        }
      ],
      "name": "setLoanAddress",
      "outputs": [],
      "stateMutability": "nonpayable",
      "type": "function"
    },
    {
      "inputs": [],
      "name": "pause",
      "outputs": [],
      "stateMutability": "nonpayable",
      "type": "function"
    },
    {
      "inputs": [],
      "name": "unpause",
      "outputs": [],
      "stateMutability": "nonpayable",
      "type": "function"
    }
  ],
  "bytecode": "0x60806040526000805460ff1916905534801561001a57600080fd5b50604051610c12380380610c12833981016040819052610039916100a1565b60008054600580546001600160a01b039586166001600160a01b0319918216179091556004805490911633179055919092166201000002610100600160b01b03199091161790556100d4565b80516001600160a01b038116811461009c57600080fd5b919050565b600080604083850312156100b457600080fd5b6100bd83610085565b91506100cb60208401610085565b90509250929050565b610b2f806100e36000396000f3fe6080604052600436106100955760003560e01c80638456cb59116100595780638456cb59146101a257806387a1e588146101b75780639e45576e146101d7578063d7118351146101f7578063f6c5b05b14610219576100d6565b8063164b2630146100eb578063200be40e14610120578063296d50241461014e5780633f4ba83a1461016e5780635c975abb14610185576100d6565b366100d6576004546001600160a01b03166108fc345b6040518115909202916000818181858888f193505050501580156100d3573d6000803e3d6000fd5b50005b6004546001600160a01b03166108fc346100ab565b3480156100f757600080fd5b5061010b6101063660046108c9565b610239565b60405190151581526020015b60405180910390f35b34801561012c57600080fd5b5061014061013b366004610905565b610360565b604051908152602001610117565b34801561015a57600080fd5b50610140610169366004610905565b610371565b34801561017a57600080fd5b5061018361037c565b005b34801561019157600080fd5b50600054610100900460ff1661010b565b3480156101ae57600080fd5b506101836103ff565b3480156101c357600080fd5b506101406101d2366004610905565b610476565b3480156101e357600080fd5b506101836101f236600461091e565b610481565b34801561020357600080fd5b5061020c6104e2565b6040516101179190610940565b34801561022557600080fd5b50610183610234366004610995565b505050565b6000805460ff16156102665760405162461bcd60e51b815260040161025d906109c8565b60405180910390fd5b6000805460ff19166001179055600454336001600160a01b03909116148061029857506005546001600160a01b031633145b6102b45760405162461bcd60e51b815260040161025d906109f3565b600280546001600160a01b0319166001600160a01b0386811691821790925560405163a9059cbb60e01b81529185166004830152602482018490529063a9059cbb90604401602060405180830381600087803b15801561031357600080fd5b505af1158015610327573d6000803e3d6000fd5b505050506040513d601f19601f8201168201806040525081019061034b9190610a3c565b50506000805460ff1916905550600192915050565b600061036b8261054a565b92915050565b600061036b82610653565b6004546001600160a01b031633148061039f57506005546001600160a01b031633145b6103bb5760405162461bcd60e51b815260040161025d906109f3565b60005460ff16156103de5760405162461bcd60e51b815260040161025d906109c8565b6000805460ff191660011790556103f3610706565b6000805460ff19169055565b6004546001600160a01b031633148061042257506005546001600160a01b031633145b61043e5760405162461bcd60e51b815260040161025d906109f3565b60005460ff16156104615760405162461bcd60e51b815260040161025d906109c8565b6000805460ff191660011790556103f3610794565b600061036b8261082f565b6004546001600160a01b03163314806104a457506005546001600160a01b031633145b6104c05760405162461bcd60e51b815260040161025d906109f3565b600180546001600160a01b0319166001600160a01b0392909216919091179055565b60005460609060ff61010090910416151560011415610519576040518060600160405280603d8152602001610abd603d9139905090565b5060408051808201909152601681527510dbdb9d1c9858dd081a5cc81b9bdd081c185d5cd95960521b602082015290565b6001546040516302fce19560e01b8152600481018390526000916001600160a01b0316906302fce1959060240160206040518083038186803b15801561058f57600080fd5b505afa1580156105a3573d6000803e3d6000fd5b505050506040513d601f19601f820116820180604052508101906105c79190610a5e565b6000546040516302fce19560e01b815260048101859052620100009091046001600160a01b0316906302fce195906024015b60206040518083038186803b15801561061157600080fd5b505afa158015610625573d6000803e3d6000fd5b505050506040513d601f19601f820116820180604052508101906106499190610a5e565b61036b9190610a8d565b600154604051630abe38f160e11b8152600481018390526000916001600160a01b03169063157c71e29060240160206040518083038186803b15801561069857600080fd5b505afa1580156106ac573d6000803e3d6000fd5b505050506040513d601f19601f820116820180604052508101906106d09190610a5e565b600054604051630abe38f160e11b815260048101859052620100009091046001600160a01b03169063157c71e2906024016105f9565b600054610100900460ff166107515760405162461bcd60e51b81526020600482015260116024820152704e6f74207061757365642073746174757360781b604482015260640161025d565b6000805461ff001916815560405190815233907fd90c20276b7955800df9b223f244944b25b581f437448b1978aa61d4036b428a906020015b60405180910390a2565b600054610100900460ff16156107dc5760405162461bcd60e51b815260206004820152600d60248201526c5061757365642073746174757360981b604482015260640161025d565b6000805461ff0019166101001790556107f23390565b6001600160a01b03167fd90c20276b7955800df9b223f244944b25b581f437448b1978aa61d4036b428a600160405161078a911515815260200190565b60008061083b8361054a565b61084484610653565b61084e9190610aa5565b10156108915760405162461bcd60e51b815260206004820152601260248201527126b0ba3432b6b0ba34b1b0b61032b93937b960711b604482015260640161025d565b61089a8261054a565b6108a383610653565b61036b9190610aa5565b80356001600160a01b03811681146108c457600080fd5b919050565b6000806000606084860312156108de57600080fd5b6108e7846108ad565b92506108f5602085016108ad565b9150604084013590509250925092565b60006020828403121561091757600080fd5b5035919050565b60006020828403121561093057600080fd5b610939826108ad565b9392505050565b600060208083528351808285015260005b8181101561096d57858101830151858201604001528201610951565b8181111561097f576000604083870101525b50601f01601f1916929092016040019392505050565b6000806000606084860312156109aa57600080fd5b6109b3846108ad565b95602085013595506040909401359392505050565b60208082526011908201527052652d656e7472616e7420616c6572742160781b604082015260600190565b60208082526029908201527f4f6e6c7920526576657273652061646d696e2063616e2063616c6c207468697360408201526810333ab731ba34b7b760b91b606082015260800190565b600060208284031215610a4e57600080fd5b8151801515811461093957600080fd5b600060208284031215610a7057600080fd5b5051919050565b634e487b7160e01b600052601160045260246000fd5b60008219821115610aa057610aa0610a77565b500190565b600082821015610ab757610ab7610a77565b50039056fe436f6e7472616374206973207061757365642e20546f6b656e207472616e7366657273206172652074656d706f726172696c792064697361626c65642ea26469706673582212205c6fc8ed2b2a52586d73b83a175c98188b85c42a786888288d22817522b8382864736f6c63430008090033",
  "immutableReferences": {},
  "source": "// SPDX-License-Identifier: MIT\r\npragma solidity >=0.8.9 <0.9.0;\r\n\r\nimport \"./mockup/IMockBep20.sol\";\r\nimport \"./util/Pausable.sol\";\r\nimport \"./interfaces/ILoan.sol\";\r\nimport \"./interfaces/IDeposit.sol\";\r\n\r\ncontract Reserve is Pausable {\r\n    IDeposit deposit;\r\n    ILoan loan;\r\n    // ILoan loan = ILoan(0xeAc61D9e3224B20104e7F0BAD6a6DB7CaF76659B);\r\n    // IDeposit deposit = IDeposit(0xeAc61D9e3224B20104e7F0BAD6a6DB7CaF76659B);\r\n\r\n    IMockBep20 token;\r\n\r\n    bytes32 adminReserve;\r\n    address adminReserveAddress;\r\n    address superAdminAddress;\r\n\r\n    constructor(address superAdminAddr_, address depositAddr_) {\r\n        superAdminAddress = superAdminAddr_;\r\n        adminReserveAddress = msg.sender;\r\n        deposit = IDeposit(depositAddr_);\r\n    }\r\n    \r\n    receive() external payable {\r\n        payable(adminReserveAddress).transfer(_msgValue());\r\n    }\r\n    \r\n    fallback() external payable {\r\n        payable(adminReserveAddress).transfer(_msgValue());\r\n    }\r\n    \r\n    // function transferAnyERC20(address token_,address _recipient,uint256 _value) external returns(bool) {\r\n    //     IBEP20(token_).transfer(_recipient, _value);\r\n    //     return true;\r\n    // }\r\n\r\n    function transferAnyBEP20(\r\n        address token_,\r\n        address _recipient,\r\n        uint256 _value) external nonReentrant  authReserve  returns(bool)   \r\n    {\r\n        token = IMockBep20(token_);\r\n        token.transfer(_recipient, _value);\r\n        return true;\r\n    }\r\n\r\n    // function marketReserves(bytes32 _market) external view returns(uint) {\r\n    //     _avblReserves(_market);\r\n    // }\r\n    // function _avblReserves(bytes32 _market) internal view returns(uint) {\r\n    //     return loan.reserves(_market) + deposit.reserves(_market);\r\n    // }\r\n\r\n    function avblMarketReserves(bytes32 _market) external view returns (uint)    {\r\n        return _avblMarketReserves(_market);\r\n    }\r\n    function _avblMarketReserves(bytes32 _market) internal view returns (uint) {\r\n        require((_marketReserves(_market) - _marketUtilisation(_market)) >=0, \"Mathematical error\");\r\n        return _marketReserves(_market) - _marketUtilisation(_market);\r\n    }\r\n\r\n\tfunction marketReserves(bytes32 _market) external view returns(uint)\t{\r\n\t\treturn _marketReserves(_market);\r\n\t}\r\n\r\n\tfunction _marketReserves(bytes32 _market) internal view returns (uint) {\r\n\t\treturn deposit.avblReserves(_market)+loan.avblReserves(_market);\r\n\t}\r\n\t\r\n\tfunction marketUtilisation(bytes32 _market) external view returns(uint)\t{\r\n\t\treturn _marketUtilisation(_market);\r\n\t}\r\n\r\n\tfunction _marketUtilisation(bytes32 _market) internal view returns (uint) {\r\n\t\treturn deposit.utilisedReserves(_market) + loan.utilisedReserves(_market);\r\n\t}\r\n\r\n    function collateralTransfer(address _account, bytes32 _market, bytes32 _commitment) external {\r\n\r\n    }\r\n\r\n    function setLoanAddress(address loanAddr_) external authReserve {\r\n        loan = ILoan(loanAddr_);\r\n    }\r\n\r\n    modifier authReserve()  {\r\n        require(msg.sender == adminReserveAddress || \r\n            msg.sender == superAdminAddress, \r\n            \"Only Reverse admin can call this function\"\r\n        );\r\n        _;\r\n    }\r\n\r\n    function pause() external authReserve() nonReentrant() {\r\n       _pause();\r\n\t}\r\n\t\r\n\tfunction unpause() external authReserve() nonReentrant() {\r\n       _unpause();   \r\n\t}\r\n\r\n}",
  "sourcePath": "F:\\workspace\\Open-protocol\\contracts\\Reserve.sol",
  "compiler": {
    "name": "solc",
    "version": "0.8.9+commit.e5eed63a.Emscripten.clang"
  },
  "schemaVersion": "3.4.3",
  "updatedAt": "2021-10-22T12:07:31.278Z",
  "devdoc": {
    "kind": "dev",
    "methods": {},
    "version": 1
  },
  "userdoc": {
    "kind": "user",
    "methods": {},
    "version": 1
  }
}