{
  "contractName": "TokenList",
  "abi": [
    {
      "anonymous": false,
      "inputs": [
        {
          "indexed": true,
          "internalType": "bytes32",
          "name": "_symbol",
          "type": "bytes32"
        },
        {
          "indexed": false,
          "internalType": "uint256",
          "name": "_decimals",
          "type": "uint256"
        },
        {
          "indexed": true,
          "internalType": "address",
          "name": "_tokenAddress",
          "type": "address"
        },
        {
          "indexed": true,
          "internalType": "uint256",
          "name": "_timestamp",
          "type": "uint256"
        }
      ],
      "name": "TokenSupportAdded",
      "type": "event"
    },
    {
      "anonymous": false,
      "inputs": [
        {
          "indexed": true,
          "internalType": "bytes32",
          "name": "_symbol",
          "type": "bytes32"
        },
        {
          "indexed": true,
          "internalType": "uint256",
          "name": "_timestamp",
          "type": "uint256"
        }
      ],
      "name": "TokenSupportRemoved",
      "type": "event"
    },
    {
      "anonymous": false,
      "inputs": [
        {
          "indexed": true,
          "internalType": "bytes32",
          "name": "_symbol",
          "type": "bytes32"
        },
        {
          "indexed": false,
          "internalType": "uint256",
          "name": "_decimals",
          "type": "uint256"
        },
        {
          "indexed": true,
          "internalType": "address",
          "name": "_tokenAddress",
          "type": "address"
        },
        {
          "indexed": true,
          "internalType": "uint256",
          "name": "_timestamp",
          "type": "uint256"
        }
      ],
      "name": "TokenSupportUpdated",
      "type": "event"
    },
    {
      "inputs": [
        {
          "internalType": "bytes32",
          "name": "",
          "type": "bytes32"
        }
      ],
      "name": "isSymbolExist",
      "outputs": [
        {
          "internalType": "bool",
          "name": "",
          "type": "bool"
        }
      ],
      "stateMutability": "view",
      "type": "function"
    },
    {
      "inputs": [
        {
          "internalType": "bytes32",
          "name": "",
          "type": "bytes32"
        }
      ],
      "name": "tokenPointer",
      "outputs": [
        {
          "internalType": "bytes32",
          "name": "symbol",
          "type": "bytes32"
        },
        {
          "internalType": "address",
          "name": "tokenAddress",
          "type": "address"
        },
        {
          "internalType": "uint256",
          "name": "decimals",
          "type": "uint256"
        },
        {
          "internalType": "uint256",
          "name": "chainId",
          "type": "uint256"
        }
      ],
      "stateMutability": "view",
      "type": "function"
    },
    {
      "inputs": [
        {
          "internalType": "bytes32",
          "name": "_symbol",
          "type": "bytes32"
        }
      ],
      "name": "isTokenSupported",
      "outputs": [
        {
          "internalType": "bool",
          "name": "",
          "type": "bool"
        }
      ],
      "stateMutability": "view",
      "type": "function"
    },
    {
      "inputs": [
        {
          "internalType": "bytes32",
          "name": "_symbol",
          "type": "bytes32"
        },
        {
          "internalType": "uint256",
          "name": "_decimals",
          "type": "uint256"
        },
        {
          "internalType": "address",
          "name": "_tokenAddress",
          "type": "address"
        }
      ],
      "name": "addTokenSupport",
      "outputs": [
        {
          "internalType": "bool",
          "name": "",
          "type": "bool"
        }
      ],
      "stateMutability": "nonpayable",
      "type": "function"
    },
    {
      "inputs": [
        {
          "internalType": "bytes32",
          "name": "_symbol",
          "type": "bytes32"
        }
      ],
      "name": "removeTokenSupport",
      "outputs": [
        {
          "internalType": "bool",
          "name": "",
          "type": "bool"
        }
      ],
      "stateMutability": "nonpayable",
      "type": "function"
    },
    {
      "inputs": [
        {
          "internalType": "bytes32",
          "name": "_symbol",
          "type": "bytes32"
        },
        {
          "internalType": "uint256",
          "name": "_decimals",
          "type": "uint256"
        },
        {
          "internalType": "address",
          "name": "_tokenAddress",
          "type": "address"
        }
      ],
      "name": "updateTokenSupport",
      "outputs": [
        {
          "internalType": "bool",
          "name": "",
          "type": "bool"
        }
      ],
      "stateMutability": "nonpayable",
      "type": "function"
    }
  ],
  "bytecode": "0x608060405234801561001057600080fd5b50610ade806100206000396000f3fe608060405234801561001057600080fd5b50600436106100625760003560e01c80634b7d87ef14610067578063547cb42e1461009757806366f76bb0146100c757806398bebf8a146100f75780639985aaa614610127578063a61caefa14610157575b600080fd5b610081600480360381019061007c91906107c4565b61018a565b60405161008e9190610876565b60405180910390f35b6100b160048036038101906100ac91906107c4565b6101f2565b6040516100be9190610876565b60405180910390f35b6100e160048036038101906100dc9190610797565b610263565b6040516100ee9190610876565b60405180910390f35b610111600480360381019061010c9190610797565b610283565b60405161011e9190610876565b60405180910390f35b610141600480360381019061013c9190610797565b6102c5565b60405161014e9190610876565b60405180910390f35b610171600480360381019061016c9190610797565b6102d9565b6040516101819493929190610891565b60405180910390f35b6000610197848484610329565b428273ffffffffffffffffffffffffffffffffffffffff16857f9ab604ad9855b1238c52a24d927c0c0821a2da955acdbccb28a895213c11cfda866040516101df91906108f6565b60405180910390a4600190509392505050565b60006101fd846103c6565b610208848484610430565b428273ffffffffffffffffffffffffffffffffffffffff16857fcd65c181d6f42e8885eec11befac0534ac3ea7724a2222134546724140637af28660405161025091906108f6565b60405180910390a4600190509392505050565b60016020528060005260406000206000915054906101000a900460ff1681565b600061028e8261051f565b42827f305503d49d4e272bec7ba6427e9f5791311ccf78cc6bc3c7890d645ec06f427760405160405180910390a360019050919050565b60006102d0826103c6565b60019050919050565b60036020528060005260406000206000915090508060000154908060010160009054906101000a900473ffffffffffffffffffffffffffffffffffffffff16908060020154908060030154905084565b6000600360008581526020019081526020016000209050838160000181905550818160010160006101000a81548173ffffffffffffffffffffffffffffffffffffffff021916908373ffffffffffffffffffffffffffffffffffffffff160217905550828160020181905550600180600086815260200190815260200160002060006101000a81548160ff02191690831515021790555050505050565b600115156001600083815260200190815260200160002060009054906101000a900460ff1615151461042d576040517f08c379a0000000000000000000000000000000000000000000000000000000008152600401610424906108d6565b60405180910390fd5b50565b6000600360008581526020019081526020016000209050838160000181905550818160010160006101000a81548173ffffffffffffffffffffffffffffffffffffffff021916908373ffffffffffffffffffffffffffffffffffffffff1602179055508281600201819055506000849080600181540180825580915050600190039060005260206000200160009091909190915055600180600086815260200190815260200160002060006101000a81548160ff02191690831515021790555060016000805490506105029190610922565b600260008681526020019081526020016000208190555050505050565b600060036000838152602001908152602001600020604051806080016040529081600082015481526020016001820160009054906101000a900473ffffffffffffffffffffffffffffffffffffffff1673ffffffffffffffffffffffffffffffffffffffff1673ffffffffffffffffffffffffffffffffffffffff16815260200160028201548152602001600382015481525050905060006001600084815260200190815260200160002060006101000a81548160ff0219169083151502179055506105e9610717565b90506000805490506002600084815260200190815260200160002054106106105750610714565b60008060016000805490506106259190610922565b8154811061063657610635610a06565b5b9060005260206000200154905060026000848152602001908152602001600020546002600083815260200190815260200160002054146106d257600260008481526020019081526020016000205460026000838152602001908152602001600020819055508060006002600086815260200190815260200160002054815481106106c3576106c2610a06565b5b90600052602060002001819055505b60008054806106e4576106e36109d7565b5b60019003818190600052602060002001600090559055600260008481526020019081526020016000206000905550505b50565b604051806080016040528060008019168152602001600073ffffffffffffffffffffffffffffffffffffffff16815260200160008152602001600081525090565b60008135905061076781610a63565b92915050565b60008135905061077c81610a7a565b92915050565b60008135905061079181610a91565b92915050565b6000602082840312156107ad576107ac610a35565b5b60006107bb8482850161076d565b91505092915050565b6000806000606084860312156107dd576107dc610a35565b5b60006107eb8682870161076d565b93505060206107fc86828701610782565b925050604061080d86828701610758565b9150509250925092565b61082081610956565b82525050565b61082f81610968565b82525050565b61083e81610974565b82525050565b6000610851601683610911565b915061085c82610a3a565b602082019050919050565b6108708161099e565b82525050565b600060208201905061088b6000830184610826565b92915050565b60006080820190506108a66000830187610835565b6108b36020830186610817565b6108c06040830185610867565b6108cd6060830184610867565b95945050505050565b600060208201905081810360008301526108ef81610844565b9050919050565b600060208201905061090b6000830184610867565b92915050565b600082825260208201905092915050565b600061092d8261099e565b91506109388361099e565b92508282101561094b5761094a6109a8565b5b828203905092915050565b60006109618261097e565b9050919050565b60008115159050919050565b6000819050919050565b600073ffffffffffffffffffffffffffffffffffffffff82169050919050565b6000819050919050565b7f4e487b7100000000000000000000000000000000000000000000000000000000600052601160045260246000fd5b7f4e487b7100000000000000000000000000000000000000000000000000000000600052603160045260246000fd5b7f4e487b7100000000000000000000000000000000000000000000000000000000600052603260045260246000fd5b600080fd5b7f546f6b656e206973206e6f7420737570706f7274656400000000000000000000600082015250565b610a6c81610956565b8114610a7757600080fd5b50565b610a8381610974565b8114610a8e57600080fd5b50565b610a9a8161099e565b8114610aa557600080fd5b5056fea2646970667358221220fba4092ceb3011ca6db8ffbdb5fef5744a58302ffe181b3c2941a5bcea4c895e64736f6c63430008070033",
  "immutableReferences": {},
  "source": "// SPDX-License-Identifier: MIT\r\npragma solidity >= 0.8.7 < 0.9.0;\r\n\r\nimport \"./AccessRegistry.sol\";\r\nimport \"./util/Address.sol\";\r\n\r\ncontract TokenList{\r\n  struct TokenData{\r\n    bytes32 symbol;\r\n    address tokenAddress;\r\n    uint decimals;\r\n    uint chainId;\r\n  }\r\n\r\n  bytes32[] allSymbols;\r\n  mapping (bytes32 => bool) public isSymbolExist;\r\n  mapping (bytes32=>uint256) symbolIndex;\r\n  mapping (bytes32 => TokenData) public tokenPointer;\r\n\r\n  event TokenSupportAdded(bytes32 indexed _symbol,uint256 _decimals,address indexed _tokenAddress,uint256 indexed _timestamp);\r\n  event TokenSupportUpdated(bytes32 indexed _symbol,uint256 _decimals,address indexed _tokenAddress,uint256 indexed _timestamp);\r\n  event TokenSupportRemoved(bytes32 indexed _symbol, uint256 indexed _timestamp);\r\n\r\n \r\n  function isTokenSupported(bytes32  _symbol) external view returns (bool)\t{\r\n\t\t_isTokenSupported(_symbol);\r\n\t\treturn true;\r\n\t}\r\n\r\n\tfunction _isTokenSupported(bytes32  _symbol) internal view {\r\n\t\trequire(isSymbolExist[_symbol] == true, \"Token is not supported\");\r\n\t}\r\n\r\n// ADD A NEW TOKEN SUPPORT\r\n  function addTokenSupport(bytes32 _symbol,uint256 _decimals,address _tokenAddress) external returns (bool) {\r\n    \r\n    _isTokenSupported(_symbol);\r\n    _addTokenSupport(_symbol, _decimals, _tokenAddress);\r\n\r\n    emit TokenSupportAdded(_symbol,_decimals,_tokenAddress,block.timestamp);\r\n    return bool(true);\r\n  }\r\n  function _addTokenSupport( bytes32 _symbol,uint256 _decimals,address _tokenAddress) internal {\r\n    TokenData storage tokenData = tokenPointer[_symbol];\r\n    \r\n    tokenData.symbol = _symbol;\r\n    tokenData.tokenAddress = _tokenAddress;\r\n    tokenData.decimals = _decimals;\r\n    \r\n    allSymbols.push(_symbol);\r\n    isSymbolExist[_symbol] = true;\r\n    symbolIndex[_symbol] = allSymbols.length-1;\r\n  }\r\n\r\n  function removeTokenSupport(bytes32 _symbol) external returns(bool) {\r\n    _removeTokenSupport(_symbol);\r\n    emit TokenSupportRemoved(_symbol, block.timestamp);\r\n    return bool(true);\r\n  }\r\n  function _removeTokenSupport(bytes32 _symbol) internal {\r\n\r\n    TokenData memory tokenData = tokenPointer[_symbol];\r\n    isSymbolExist[_symbol] = false;\r\n\r\n    delete tokenData;\r\n    \r\n    if (symbolIndex[_symbol] >= allSymbols.length) return;\r\n\r\n    bytes32 lastSymbol  = allSymbols[allSymbols.length-1];\r\n\r\n    if(symbolIndex[lastSymbol] != symbolIndex[_symbol]){\r\n      symbolIndex[lastSymbol] = symbolIndex[_symbol];\r\n      allSymbols[symbolIndex[_symbol]] = lastSymbol;\r\n    }\r\n    allSymbols.pop();\r\n    delete symbolIndex[_symbol];\r\n  }\r\n  \r\n  function updateTokenSupport(bytes32 _symbol, uint256 _decimals,address _tokenAddress) external returns(bool){\r\n    _updateTokenSupport(_symbol, _decimals, _tokenAddress);\r\n    emit TokenSupportUpdated(_symbol,_decimals,_tokenAddress,block.timestamp);\r\n    return bool(true);\r\n  }\r\n  function _updateTokenSupport(bytes32 _symbol, uint256 _decimals,address _tokenAddress) internal{\r\n\r\n    TokenData storage tokenData = tokenPointer[_symbol];\r\n    \r\n    tokenData.symbol = _symbol;\r\n    tokenData.tokenAddress = _tokenAddress;\r\n    tokenData.decimals = _decimals;\r\n\r\n    isSymbolExist[_symbol] = true;\r\n  }\r\n}",
  "sourcePath": "F:\\workspace\\Open-protocol\\contracts\\TokenList.sol",
  "compiler": {
    "name": "solc",
    "version": "0.8.7+commit.e28d00a7.Emscripten.clang"
  },
  "schemaVersion": "3.4.3",
  "updatedAt": "2021-09-24T14:00:34.329Z",
  "devdoc": {
    "kind": "dev",
    "methods": {},
    "version": 1
  },
  "userdoc": {
    "kind": "user",
    "methods": {},
    "version": 1
  }
}