{
  "contractName": "TokenList",
  "abi": [
    {
      "inputs": [
        {
          "internalType": "address",
          "name": "superAdminAddr_",
          "type": "address"
        }
      ],
      "stateMutability": "nonpayable",
      "type": "constructor"
    },
    {
      "anonymous": false,
      "inputs": [
        {
          "indexed": true,
          "internalType": "address",
          "name": "_pauser",
          "type": "address"
        },
        {
          "indexed": false,
          "internalType": "bool",
          "name": "isPaused",
          "type": "bool"
        }
      ],
      "name": "PauseState",
      "type": "event"
    },
    {
      "anonymous": false,
      "inputs": [
        {
          "indexed": true,
          "internalType": "bytes32",
          "name": "market_",
          "type": "bytes32"
        },
        {
          "indexed": false,
          "internalType": "uint256",
          "name": "decimals_",
          "type": "uint256"
        },
        {
          "indexed": true,
          "internalType": "address",
          "name": "tokenAddress_",
          "type": "address"
        },
        {
          "indexed": true,
          "internalType": "uint256",
          "name": "_timestamp",
          "type": "uint256"
        }
      ],
      "name": "Token2Added",
      "type": "event"
    },
    {
      "anonymous": false,
      "inputs": [
        {
          "indexed": true,
          "internalType": "bytes32",
          "name": "market_",
          "type": "bytes32"
        },
        {
          "indexed": true,
          "internalType": "uint256",
          "name": "_timestamp",
          "type": "uint256"
        }
      ],
      "name": "Token2Removed",
      "type": "event"
    },
    {
      "anonymous": false,
      "inputs": [
        {
          "indexed": true,
          "internalType": "bytes32",
          "name": "market_",
          "type": "bytes32"
        },
        {
          "indexed": false,
          "internalType": "uint256",
          "name": "decimals_",
          "type": "uint256"
        },
        {
          "indexed": true,
          "internalType": "address",
          "name": "tokenAddress_",
          "type": "address"
        },
        {
          "indexed": true,
          "internalType": "uint256",
          "name": "_timestamp",
          "type": "uint256"
        }
      ],
      "name": "Token2Updated",
      "type": "event"
    },
    {
      "anonymous": false,
      "inputs": [
        {
          "indexed": true,
          "internalType": "bytes32",
          "name": "market_",
          "type": "bytes32"
        },
        {
          "indexed": false,
          "internalType": "uint256",
          "name": "decimals_",
          "type": "uint256"
        },
        {
          "indexed": true,
          "internalType": "address",
          "name": "tokenAddress_",
          "type": "address"
        },
        {
          "indexed": true,
          "internalType": "uint256",
          "name": "_timestamp",
          "type": "uint256"
        }
      ],
      "name": "TokenSupportAdded",
      "type": "event"
    },
    {
      "anonymous": false,
      "inputs": [
        {
          "indexed": true,
          "internalType": "bytes32",
          "name": "market_",
          "type": "bytes32"
        },
        {
          "indexed": true,
          "internalType": "uint256",
          "name": "_timestamp",
          "type": "uint256"
        }
      ],
      "name": "TokenSupportRemoved",
      "type": "event"
    },
    {
      "anonymous": false,
      "inputs": [
        {
          "indexed": true,
          "internalType": "bytes32",
          "name": "market_",
          "type": "bytes32"
        },
        {
          "indexed": false,
          "internalType": "uint256",
          "name": "decimals_",
          "type": "uint256"
        },
        {
          "indexed": true,
          "internalType": "address",
          "name": "tokenAddress_",
          "type": "address"
        },
        {
          "indexed": true,
          "internalType": "uint256",
          "name": "_timestamp",
          "type": "uint256"
        }
      ],
      "name": "TokenSupportUpdated",
      "type": "event"
    },
    {
      "stateMutability": "payable",
      "type": "fallback"
    },
    {
      "inputs": [
        {
          "internalType": "bytes32",
          "name": "",
          "type": "bytes32"
        }
      ],
      "name": "indMarket2Data",
      "outputs": [
        {
          "internalType": "bytes32",
          "name": "market",
          "type": "bytes32"
        },
        {
          "internalType": "address",
          "name": "tokenAddress",
          "type": "address"
        },
        {
          "internalType": "uint256",
          "name": "decimals",
          "type": "uint256"
        },
        {
          "internalType": "uint256",
          "name": "chainId",
          "type": "uint256"
        }
      ],
      "stateMutability": "view",
      "type": "function"
    },
    {
      "inputs": [
        {
          "internalType": "bytes32",
          "name": "",
          "type": "bytes32"
        }
      ],
      "name": "indMarketData",
      "outputs": [
        {
          "internalType": "bytes32",
          "name": "market",
          "type": "bytes32"
        },
        {
          "internalType": "address",
          "name": "tokenAddress",
          "type": "address"
        },
        {
          "internalType": "uint256",
          "name": "decimals",
          "type": "uint256"
        },
        {
          "internalType": "uint256",
          "name": "chainId",
          "type": "uint256"
        }
      ],
      "stateMutability": "view",
      "type": "function"
    },
    {
      "inputs": [],
      "name": "pauseState",
      "outputs": [
        {
          "internalType": "string",
          "name": "",
          "type": "string"
        }
      ],
      "stateMutability": "view",
      "type": "function"
    },
    {
      "inputs": [],
      "name": "paused",
      "outputs": [
        {
          "internalType": "bool",
          "name": "",
          "type": "bool"
        }
      ],
      "stateMutability": "view",
      "type": "function"
    },
    {
      "inputs": [
        {
          "internalType": "bytes32",
          "name": "",
          "type": "bytes32"
        }
      ],
      "name": "token2SupportCheck",
      "outputs": [
        {
          "internalType": "bool",
          "name": "",
          "type": "bool"
        }
      ],
      "stateMutability": "view",
      "type": "function"
    },
    {
      "inputs": [
        {
          "internalType": "bytes32",
          "name": "",
          "type": "bytes32"
        }
      ],
      "name": "tokenSupportCheck",
      "outputs": [
        {
          "internalType": "bool",
          "name": "",
          "type": "bool"
        }
      ],
      "stateMutability": "view",
      "type": "function"
    },
    {
      "stateMutability": "payable",
      "type": "receive"
    },
    {
      "inputs": [
        {
          "internalType": "address",
          "name": "token_",
          "type": "address"
        },
        {
          "internalType": "address",
          "name": "recipient_",
          "type": "address"
        },
        {
          "internalType": "uint256",
          "name": "value_",
          "type": "uint256"
        }
      ],
      "name": "transferAnyERC20",
      "outputs": [
        {
          "internalType": "bool",
          "name": "",
          "type": "bool"
        }
      ],
      "stateMutability": "nonpayable",
      "type": "function"
    },
    {
      "inputs": [
        {
          "internalType": "bytes32",
          "name": "market_",
          "type": "bytes32"
        }
      ],
      "name": "isMarketSupported",
      "outputs": [
        {
          "internalType": "bool",
          "name": "",
          "type": "bool"
        }
      ],
      "stateMutability": "view",
      "type": "function"
    },
    {
      "inputs": [
        {
          "internalType": "bytes32",
          "name": "market_",
          "type": "bytes32"
        }
      ],
      "name": "getMarketTokenAddress",
      "outputs": [
        {
          "internalType": "address",
          "name": "",
          "type": "address"
        }
      ],
      "stateMutability": "view",
      "type": "function"
    },
    {
      "inputs": [
        {
          "internalType": "bytes32",
          "name": "market_",
          "type": "bytes32"
        }
      ],
      "name": "getMarketDecimal",
      "outputs": [
        {
          "internalType": "uint256",
          "name": "",
          "type": "uint256"
        }
      ],
      "stateMutability": "view",
      "type": "function"
    },
    {
      "inputs": [
        {
          "internalType": "bytes32",
          "name": "market_",
          "type": "bytes32"
        },
        {
          "internalType": "uint256",
          "name": "decimals_",
          "type": "uint256"
        },
        {
          "internalType": "address",
          "name": "tokenAddress_",
          "type": "address"
        }
      ],
      "name": "addTokenSupport",
      "outputs": [
        {
          "internalType": "bool",
          "name": "",
          "type": "bool"
        }
      ],
      "stateMutability": "nonpayable",
      "type": "function"
    },
    {
      "inputs": [
        {
          "internalType": "bytes32",
          "name": "market_",
          "type": "bytes32"
        }
      ],
      "name": "removeTokenSupport",
      "outputs": [
        {
          "internalType": "bool",
          "name": "",
          "type": "bool"
        }
      ],
      "stateMutability": "nonpayable",
      "type": "function"
    },
    {
      "inputs": [
        {
          "internalType": "bytes32",
          "name": "market_",
          "type": "bytes32"
        },
        {
          "internalType": "uint256",
          "name": "decimals_",
          "type": "uint256"
        },
        {
          "internalType": "address",
          "name": "tokenAddress_",
          "type": "address"
        }
      ],
      "name": "updateTokenSupport",
      "outputs": [
        {
          "internalType": "bool",
          "name": "",
          "type": "bool"
        }
      ],
      "stateMutability": "nonpayable",
      "type": "function"
    },
    {
      "inputs": [
        {
          "internalType": "bytes32",
          "name": "market_",
          "type": "bytes32"
        },
        {
          "internalType": "contract IBEP20",
          "name": "token_",
          "type": "address"
        }
      ],
      "name": "connectMarket",
      "outputs": [],
      "stateMutability": "view",
      "type": "function"
    },
    {
      "inputs": [
        {
          "internalType": "bytes32",
          "name": "_market",
          "type": "bytes32"
        },
        {
          "internalType": "uint256",
          "name": "_amount",
          "type": "uint256"
        }
      ],
      "name": "quantifyAmount",
      "outputs": [],
      "stateMutability": "view",
      "type": "function"
    },
    {
      "inputs": [
        {
          "internalType": "bytes32",
          "name": "market_",
          "type": "bytes32"
        }
      ],
      "name": "isToken2Supported",
      "outputs": [
        {
          "internalType": "bool",
          "name": "",
          "type": "bool"
        }
      ],
      "stateMutability": "view",
      "type": "function"
    },
    {
      "inputs": [
        {
          "internalType": "bytes32",
          "name": "market_",
          "type": "bytes32"
        }
      ],
      "name": "getMarketToken2Address",
      "outputs": [
        {
          "internalType": "address",
          "name": "",
          "type": "address"
        }
      ],
      "stateMutability": "view",
      "type": "function"
    },
    {
      "inputs": [
        {
          "internalType": "bytes32",
          "name": "market_",
          "type": "bytes32"
        }
      ],
      "name": "getMarket2Decimal",
      "outputs": [
        {
          "internalType": "uint256",
          "name": "",
          "type": "uint256"
        }
      ],
      "stateMutability": "view",
      "type": "function"
    },
    {
      "inputs": [
        {
          "internalType": "bytes32",
          "name": "market_",
          "type": "bytes32"
        },
        {
          "internalType": "uint256",
          "name": "decimals_",
          "type": "uint256"
        },
        {
          "internalType": "address",
          "name": "tokenAddress_",
          "type": "address"
        }
      ],
      "name": "addToken2Support",
      "outputs": [
        {
          "internalType": "bool",
          "name": "",
          "type": "bool"
        }
      ],
      "stateMutability": "nonpayable",
      "type": "function"
    },
    {
      "inputs": [
        {
          "internalType": "bytes32",
          "name": "market_",
          "type": "bytes32"
        }
      ],
      "name": "removeToken2Support",
      "outputs": [
        {
          "internalType": "bool",
          "name": "",
          "type": "bool"
        }
      ],
      "stateMutability": "nonpayable",
      "type": "function"
    },
    {
      "inputs": [
        {
          "internalType": "bytes32",
          "name": "market_",
          "type": "bytes32"
        },
        {
          "internalType": "uint256",
          "name": "decimals_",
          "type": "uint256"
        },
        {
          "internalType": "address",
          "name": "tokenAddress_",
          "type": "address"
        }
      ],
      "name": "updateToken2Support",
      "outputs": [
        {
          "internalType": "bool",
          "name": "",
          "type": "bool"
        }
      ],
      "stateMutability": "nonpayable",
      "type": "function"
    },
    {
      "inputs": [],
      "name": "pause",
      "outputs": [],
      "stateMutability": "nonpayable",
      "type": "function"
    },
    {
      "inputs": [],
      "name": "unpause",
      "outputs": [],
      "stateMutability": "nonpayable",
      "type": "function"
    }
  ],
  "bytecode": "0x608060405260008060006101000a81548160ff0219169083151502179055503480156200002b57600080fd5b50604051620025713803806200257183398181016040528101906200005191906200015e565b60008060016101000a81548160ff02191690831515021790555080600360006101000a81548173ffffffffffffffffffffffffffffffffffffffff021916908373ffffffffffffffffffffffffffffffffffffffff16021790555033600260006101000a81548173ffffffffffffffffffffffffffffffffffffffff021916908373ffffffffffffffffffffffffffffffffffffffff1602179055505062000190565b600080fd5b600073ffffffffffffffffffffffffffffffffffffffff82169050919050565b60006200012682620000f9565b9050919050565b620001388162000119565b81146200014457600080fd5b50565b60008151905062000158816200012d565b92915050565b600060208284031215620001775762000176620000f4565b5b6000620001878482850162000147565b91505092915050565b6123d180620001a06000396000f3fe6080604052600436106101445760003560e01c806378f504f9116100b6578063949025051161006f57806394902505146105d457806398bebf8a146106115780639bb5a5781461064e578063d711835114610677578063ecf21d84146106a2578063fafb5028146106df576101b4565b806378f504f9146104895780637a241670146104c657806380af8664146105035780638456cb5914610540578063863b252f1461055757806390e9bf8014610597576101b4565b8063547cb42e11610108578063547cb42e1461032d5780635b6f547e1461036a5780635b99bfdb146103a75780635c975abb146103e45780636b250d5a1461040f57806371f082da1461044c576101b4565b8063086632501461021f5780633c2e08b21461025c5780633f4ba83a1461029c578063446a6686146102b35780634b7d87ef146102f0576101b4565b366101b457600260009054906101000a900473ffffffffffffffffffffffffffffffffffffffff1673ffffffffffffffffffffffffffffffffffffffff166108fc349081150290604051600060405180830381858888f193505050501580156101b1573d6000803e3d6000fd5b50005b600260009054906101000a900473ffffffffffffffffffffffffffffffffffffffff1673ffffffffffffffffffffffffffffffffffffffff166108fc349081150290604051600060405180830381858888f1935050505015801561021c573d6000803e3d6000fd5b50005b34801561022b57600080fd5b5061024660048036038101906102419190611b55565b610708565b6040516102539190611b9d565b60405180910390f35b34801561026857600080fd5b50610283600480360381019061027e9190611b55565b6107da565b6040516102939493929190611c21565b60405180910390f35b3480156102a857600080fd5b506102b161082a565b005b3480156102bf57600080fd5b506102da60048036038101906102d59190611b55565b61094c565b6040516102e79190611b9d565b60405180910390f35b3480156102fc57600080fd5b5061031760048036038101906103129190611cbe565b610960565b6040516103249190611b9d565b60405180910390f35b34801561033957600080fd5b50610354600480360381019061034f9190611cbe565b610a58565b6040516103619190611b9d565b60405180910390f35b34801561037657600080fd5b50610391600480360381019061038c9190611d11565b610b50565b60405161039e9190611b9d565b60405180910390f35b3480156103b357600080fd5b506103ce60048036038101906103c99190611b55565b610beb565b6040516103db9190611b9d565b60405180910390f35b3480156103f057600080fd5b506103f9610c0b565b6040516104069190611b9d565b60405180910390f35b34801561041b57600080fd5b5061043660048036038101906104319190611b55565b610c21565b6040516104439190611b9d565b60405180910390f35b34801561045857600080fd5b50610473600480360381019061046e9190611b55565b610c41565b6040516104809190611d64565b60405180910390f35b34801561049557600080fd5b506104b060048036038101906104ab9190611b55565b610c61565b6040516104bd9190611b9d565b60405180910390f35b3480156104d257600080fd5b506104ed60048036038101906104e89190611b55565b610c75565b6040516104fa9190611d64565b60405180910390f35b34801561050f57600080fd5b5061052a60048036038101906105259190611b55565b610c95565b6040516105379190611d7f565b60405180910390f35b34801561054c57600080fd5b50610555610cd5565b005b34801561056357600080fd5b5061057e60048036038101906105799190611b55565b610df7565b60405161058e9493929190611c21565b60405180910390f35b3480156105a357600080fd5b506105be60048036038101906105b99190611cbe565b610e47565b6040516105cb9190611b9d565b60405180910390f35b3480156105e057600080fd5b506105fb60048036038101906105f69190611cbe565b610f3f565b6040516106089190611b9d565b60405180910390f35b34801561061d57600080fd5b5061063860048036038101906106339190611b55565b611037565b6040516106459190611b9d565b60405180910390f35b34801561065a57600080fd5b5061067560048036038101906106709190611dd8565b611109565b005b34801561068357600080fd5b5061068c611117565b6040516106999190611eb1565b60405180910390f35b3480156106ae57600080fd5b506106c960048036038101906106c49190611b55565b611191565b6040516106d69190611d7f565b60405180910390f35b3480156106eb57600080fd5b5061070660048036038101906107019190611ed3565b6111d1565b005b6000600260009054906101000a900473ffffffffffffffffffffffffffffffffffffffff1673ffffffffffffffffffffffffffffffffffffffff163373ffffffffffffffffffffffffffffffffffffffff161461079a576040517f08c379a000000000000000000000000000000000000000000000000000000000815260040161079190611f85565b60405180910390fd5b6107a3826111df565b42827f11b50f4453cd5bb6a7f37dff32363666b5d4329e49fa8832eb1d09de1fedaae360405160405180910390a360019050919050565b600b6020528060005260406000206000915090508060000154908060010160009054906101000a900473ffffffffffffffffffffffffffffffffffffffff16908060020154908060030154905084565b600260009054906101000a900473ffffffffffffffffffffffffffffffffffffffff1673ffffffffffffffffffffffffffffffffffffffff163373ffffffffffffffffffffffffffffffffffffffff16146108ba576040517f08c379a00000000000000000000000000000000000000000000000000000000081526004016108b190611f85565b60405180910390fd5b6000151560008054906101000a900460ff1615151461090e576040517f08c379a000000000000000000000000000000000000000000000000000000000815260040161090590611ff1565b60405180910390fd5b60016000806101000a81548160ff02191690831515021790555061093061138b565b60008060006101000a81548160ff021916908315150217905550565b600061095782611444565b60019050919050565b6000600260009054906101000a900473ffffffffffffffffffffffffffffffffffffffff1673ffffffffffffffffffffffffffffffffffffffff163373ffffffffffffffffffffffffffffffffffffffff16146109f2576040517f08c379a00000000000000000000000000000000000000000000000000000000081526004016109e990611f85565b60405180910390fd5b6109fd8484846114ae565b428273ffffffffffffffffffffffffffffffffffffffff16857f9ab604ad9855b1238c52a24d927c0c0821a2da955acdbccb28a895213c11cfda86604051610a459190611d64565b60405180910390a4600190509392505050565b6000600260009054906101000a900473ffffffffffffffffffffffffffffffffffffffff1673ffffffffffffffffffffffffffffffffffffffff163373ffffffffffffffffffffffffffffffffffffffff1614610aea576040517f08c379a0000000000000000000000000000000000000000000000000000000008152600401610ae190611f85565b60405180910390fd5b610af584848461154c565b428273ffffffffffffffffffffffffffffffffffffffff16857fcd65c181d6f42e8885eec11befac0534ac3ea7724a2222134546724140637af286604051610b3d9190611d64565b60405180910390a4600190509392505050565b60008373ffffffffffffffffffffffffffffffffffffffff1663a9059cbb84846040518363ffffffff1660e01b8152600401610b8d929190612011565b602060405180830381600087803b158015610ba757600080fd5b505af1158015610bbb573d6000803e3d6000fd5b505050506040513d601f19601f82011682018060405250810190610bdf9190612066565b50600190509392505050565b60066020528060005260406000206000915054906101000a900460ff1681565b60008060019054906101000a900460ff16905090565b60096020528060005260406000206000915054906101000a900460ff1681565b600060086000838152602001908152602001600020600201549050919050565b6000610c6c8261163c565b60019050919050565b6000600b6000838152602001908152602001600020600201549050919050565b6000600b600083815260200190815260200160002060010160009054906101000a900473ffffffffffffffffffffffffffffffffffffffff169050919050565b600260009054906101000a900473ffffffffffffffffffffffffffffffffffffffff1673ffffffffffffffffffffffffffffffffffffffff163373ffffffffffffffffffffffffffffffffffffffff1614610d65576040517f08c379a0000000000000000000000000000000000000000000000000000000008152600401610d5c90611f85565b60405180910390fd5b6000151560008054906101000a900460ff16151514610db9576040517f08c379a0000000000000000000000000000000000000000000000000000000008152600401610db090611ff1565b60405180910390fd5b60016000806101000a81548160ff021916908315150217905550610ddb6116a6565b60008060006101000a81548160ff021916908315150217905550565b60086020528060005260406000206000915090508060000154908060010160009054906101000a900473ffffffffffffffffffffffffffffffffffffffff16908060020154908060030154905084565b6000600260009054906101000a900473ffffffffffffffffffffffffffffffffffffffff1673ffffffffffffffffffffffffffffffffffffffff163373ffffffffffffffffffffffffffffffffffffffff1614610ed9576040517f08c379a0000000000000000000000000000000000000000000000000000000008152600401610ed090611f85565b60405180910390fd5b610ee4848484611761565b428273ffffffffffffffffffffffffffffffffffffffff16857f81e85df8bcb89e709d6099b0ea622d71f400f359920ed7f006ff6e16c8b8e40686604051610f2c9190611d64565b60405180910390a4600190509392505050565b6000600260009054906101000a900473ffffffffffffffffffffffffffffffffffffffff1673ffffffffffffffffffffffffffffffffffffffff163373ffffffffffffffffffffffffffffffffffffffff1614610fd1576040517f08c379a0000000000000000000000000000000000000000000000000000000008152600401610fc890611f85565b60405180910390fd5b610fdc848484611851565b428273ffffffffffffffffffffffffffffffffffffffff16857f5f8aa8fd7d2964c96efc95415d5ac2e21b8d85a83c4c91238d3a9c50cd707726866040516110249190611d64565b60405180910390a4600190509392505050565b6000600260009054906101000a900473ffffffffffffffffffffffffffffffffffffffff1673ffffffffffffffffffffffffffffffffffffffff163373ffffffffffffffffffffffffffffffffffffffff16146110c9576040517f08c379a00000000000000000000000000000000000000000000000000000000081526004016110c090611f85565b60405180910390fd5b6110d2826118ef565b42827f305503d49d4e272bec7ba6427e9f5791311ccf78cc6bc3c7890d645ec06f427760405160405180910390a360019050919050565b6111138282611a9b565b5050565b606060011515600060019054906101000a900460ff1615151415611155576040518060600160405280603d815260200161235f603d9139905061118e565b6040518060400160405280601681526020017f436f6e7472616374206973206e6f74207061757365640000000000000000000081525090505b90565b60006008600083815260200190815260200160002060010160009054906101000a900473ffffffffffffffffffffffffffffffffffffffff169050919050565b6111db8282611ae4565b5050565b60006009600083815260200190815260200160002060006101000a81548160ff021916908315150217905550600b60008281526020019081526020016000206000808201600090556001820160006101000a81549073ffffffffffffffffffffffffffffffffffffffff0219169055600282016000905560038201600090555050600580549050600a6000838152602001908152602001600020541061128457611388565b60006005600160058054905061129a91906120c2565b815481106112ab576112aa6120f6565b5b90600052602060002001549050600a600083815260200190815260200160002054600a6000838152602001908152602001600020541461134757600a600083815260200190815260200160002054600a600083815260200190815260200160002081905550806005600a60008581526020019081526020016000205481548110611338576113376120f6565b5b90600052602060002001819055505b600580548061135957611358612125565b5b60019003818190600052602060002001600090559055600a600083815260200190815260200160002060009055505b50565b611393610c0b565b6113d2576040517f08c379a00000000000000000000000000000000000000000000000000000000081526004016113c9906121a0565b60405180910390fd5b60008060016101000a81548160ff0219169083151502179055506113f4611b12565b73ffffffffffffffffffffffffffffffffffffffff167fd90c20276b7955800df9b223f244944b25b581f437448b1978aa61d4036b428a600060405161143a9190611b9d565b60405180910390a2565b600115156009600083815260200190815260200160002060009054906101000a900460ff161515146114ab576040517f08c379a00000000000000000000000000000000000000000000000000000000081526004016114a29061220c565b60405180910390fd5b50565b6000600860008581526020019081526020016000209050838160000181905550818160010160006101000a81548173ffffffffffffffffffffffffffffffffffffffff021916908373ffffffffffffffffffffffffffffffffffffffff16021790555082816002018190555060016006600086815260200190815260200160002060006101000a81548160ff02191690831515021790555050505050565b6000600860008581526020019081526020016000209050838160000181905550818160010160006101000a81548173ffffffffffffffffffffffffffffffffffffffff021916908373ffffffffffffffffffffffffffffffffffffffff160217905550828160020181905550600484908060018154018082558091505060019003906000526020600020016000909190919091505560016006600086815260200190815260200160002060006101000a81548160ff021916908315150217905550600160048054905061161f91906120c2565b600760008681526020019081526020016000208190555050505050565b600115156006600083815260200190815260200160002060009054906101000a900460ff161515146116a3576040517f08c379a000000000000000000000000000000000000000000000000000000000815260040161169a90612278565b60405180910390fd5b50565b6116ae610c0b565b156116ee576040517f08c379a00000000000000000000000000000000000000000000000000000000081526004016116e5906122e4565b60405180910390fd5b6001600060016101000a81548160ff021916908315150217905550611711611b12565b73ffffffffffffffffffffffffffffffffffffffff167fd90c20276b7955800df9b223f244944b25b581f437448b1978aa61d4036b428a60016040516117579190611b9d565b60405180910390a2565b6000600b60008581526020019081526020016000209050838160000181905550818160010160006101000a81548173ffffffffffffffffffffffffffffffffffffffff021916908373ffffffffffffffffffffffffffffffffffffffff160217905550828160020181905550600584908060018154018082558091505060019003906000526020600020016000909190919091505560016009600086815260200190815260200160002060006101000a81548160ff021916908315150217905550600160058054905061183491906120c2565b600a60008681526020019081526020016000208190555050505050565b6000600b60008581526020019081526020016000209050838160000181905550818160010160006101000a81548173ffffffffffffffffffffffffffffffffffffffff021916908373ffffffffffffffffffffffffffffffffffffffff16021790555082816002018190555060016009600086815260200190815260200160002060006101000a81548160ff02191690831515021790555050505050565b60006006600083815260200190815260200160002060006101000a81548160ff021916908315150217905550600860008281526020019081526020016000206000808201600090556001820160006101000a81549073ffffffffffffffffffffffffffffffffffffffff021916905560028201600090556003820160009055505060048054905060076000838152602001908152602001600020541061199457611a98565b6000600460016004805490506119aa91906120c2565b815481106119bb576119ba6120f6565b5b906000526020600020015490506007600083815260200190815260200160002054600760008381526020019081526020016000205414611a575760076000838152602001908152602001600020546007600083815260200190815260200160002081905550806004600760008581526020019081526020016000205481548110611a4857611a476120f6565b5b90600052602060002001819055505b6004805480611a6957611a68612125565b5b600190038181906000526020600020016000905590556007600083815260200190815260200160002060009055505b50565b600060086000848152602001908152602001600020905060008160010160009054906101000a900473ffffffffffffffffffffffffffffffffffffffff16905080925050505050565b6000600860008481526020019081526020016000209050806002015482611b0b9190612304565b9150505050565b600033905090565b600080fd5b6000819050919050565b611b3281611b1f565b8114611b3d57600080fd5b50565b600081359050611b4f81611b29565b92915050565b600060208284031215611b6b57611b6a611b1a565b5b6000611b7984828501611b40565b91505092915050565b60008115159050919050565b611b9781611b82565b82525050565b6000602082019050611bb26000830184611b8e565b92915050565b611bc181611b1f565b82525050565b600073ffffffffffffffffffffffffffffffffffffffff82169050919050565b6000611bf282611bc7565b9050919050565b611c0281611be7565b82525050565b6000819050919050565b611c1b81611c08565b82525050565b6000608082019050611c366000830187611bb8565b611c436020830186611bf9565b611c506040830185611c12565b611c5d6060830184611c12565b95945050505050565b611c6f81611c08565b8114611c7a57600080fd5b50565b600081359050611c8c81611c66565b92915050565b611c9b81611be7565b8114611ca657600080fd5b50565b600081359050611cb881611c92565b92915050565b600080600060608486031215611cd757611cd6611b1a565b5b6000611ce586828701611b40565b9350506020611cf686828701611c7d565b9250506040611d0786828701611ca9565b9150509250925092565b600080600060608486031215611d2a57611d29611b1a565b5b6000611d3886828701611ca9565b9350506020611d4986828701611ca9565b9250506040611d5a86828701611c7d565b9150509250925092565b6000602082019050611d796000830184611c12565b92915050565b6000602082019050611d946000830184611bf9565b92915050565b6000611da582611be7565b9050919050565b611db581611d9a565b8114611dc057600080fd5b50565b600081359050611dd281611dac565b92915050565b60008060408385031215611def57611dee611b1a565b5b6000611dfd85828601611b40565b9250506020611e0e85828601611dc3565b9150509250929050565b600081519050919050565b600082825260208201905092915050565b60005b83811015611e52578082015181840152602081019050611e37565b83811115611e61576000848401525b50505050565b6000601f19601f8301169050919050565b6000611e8382611e18565b611e8d8185611e23565b9350611e9d818560208601611e34565b611ea681611e67565b840191505092915050565b60006020820190508181036000830152611ecb8184611e78565b905092915050565b60008060408385031215611eea57611ee9611b1a565b5b6000611ef885828601611b40565b9250506020611f0985828601611c7d565b9150509250929050565b7f4f6e6c7920616e2061646d696e2063616e2063616c6c20746869732066756e6360008201527f74696f6e00000000000000000000000000000000000000000000000000000000602082015250565b6000611f6f602483611e23565b9150611f7a82611f13565b604082019050919050565b60006020820190508181036000830152611f9e81611f62565b9050919050565b7f52652d656e7472616e7420616c65727421000000000000000000000000000000600082015250565b6000611fdb601183611e23565b9150611fe682611fa5565b602082019050919050565b6000602082019050818103600083015261200a81611fce565b9050919050565b60006040820190506120266000830185611bf9565b6120336020830184611c12565b9392505050565b61204381611b82565b811461204e57600080fd5b50565b6000815190506120608161203a565b92915050565b60006020828403121561207c5761207b611b1a565b5b600061208a84828501612051565b91505092915050565b7f4e487b7100000000000000000000000000000000000000000000000000000000600052601160045260246000fd5b60006120cd82611c08565b91506120d883611c08565b9250828210156120eb576120ea612093565b5b828203905092915050565b7f4e487b7100000000000000000000000000000000000000000000000000000000600052603260045260246000fd5b7f4e487b7100000000000000000000000000000000000000000000000000000000600052603160045260246000fd5b7f4e6f742070617573656420737461747573000000000000000000000000000000600082015250565b600061218a601183611e23565b915061219582612154565b602082019050919050565b600060208201905081810360008301526121b98161217d565b9050919050565b7f5365636f6e6461727920546f6b656e206973206e6f7420737570706f72746564600082015250565b60006121f6602083611e23565b9150612201826121c0565b602082019050919050565b60006020820190508181036000830152612225816121e9565b9050919050565b7f4865792c20546f6b656e206973206e6f7420737570706f727465640000000000600082015250565b6000612262601b83611e23565b915061226d8261222c565b602082019050919050565b6000602082019050818103600083015261229181612255565b9050919050565b7f5061757365642073746174757300000000000000000000000000000000000000600082015250565b60006122ce600d83611e23565b91506122d982612298565b602082019050919050565b600060208201905081810360008301526122fd816122c1565b9050919050565b600061230f82611c08565b915061231a83611c08565b9250817fffffffffffffffffffffffffffffffffffffffffffffffffffffffffffffffff048311821515161561235357612352612093565b5b82820290509291505056fe436f6e7472616374206973207061757365642e20546f6b656e207472616e7366657273206172652074656d706f726172696c792064697361626c65642ea264697066735822122086f7db4ac6b1c7a04122c7a4585efeff9934f7c193238d3a55002846dd959e2a64736f6c63430008090033",
  "immutableReferences": {},
  "source": "// SPDX-License-Identifier: MIT\r\npragma solidity >=0.8.9 <0.9.0;\r\n\r\nimport \"./util/IBEP20.sol\";\r\nimport \"./util/Address.sol\";\r\nimport \"./util/Pausable.sol\";\r\n\r\ncontract TokenList is Pausable {\r\n\r\n  bytes32 adminTokenList;\r\n  address adminTokenListAddress;\r\n  address superAdminAddress;\r\n\r\n  struct MarketData {\r\n    bytes32 market;\r\n    address tokenAddress;\r\n    uint256 decimals;\r\n    uint256 chainId;\r\n  }\r\n\r\n  bytes32[] markets;\r\n  bytes32[] markets2;\r\n\r\n  mapping (bytes32 => bool) public tokenSupportCheck;\r\n  mapping (bytes32=>uint256) marketIndex;\r\n  mapping (bytes32 => MarketData) public indMarketData;\r\n\r\n  mapping (bytes32 => bool) public token2SupportCheck;\r\n  mapping (bytes32=>uint256) market2Index;\r\n  mapping (bytes32 => MarketData) public indMarket2Data;\r\n\r\n//   MarketData internal rmMarketData;\r\n\r\n  event TokenSupportAdded(bytes32 indexed market_,uint256 decimals_,address indexed tokenAddress_,uint256 indexed _timestamp);\r\n  event TokenSupportUpdated(bytes32 indexed market_,uint256 decimals_,address indexed tokenAddress_,uint256 indexed _timestamp);\r\n  event TokenSupportRemoved(bytes32 indexed market_, uint256 indexed _timestamp);\r\n  \r\n  event Token2Added(\r\n    bytes32 indexed market_,\r\n    uint256 decimals_,\r\n    address indexed tokenAddress_,\r\n    uint256 indexed _timestamp\r\n  );\r\n  \r\n  event Token2Updated(\r\n    bytes32 indexed market_,\r\n    uint256 decimals_,\r\n    address indexed tokenAddress_,\r\n    uint256 indexed _timestamp\r\n  );\r\n  \r\n  event Token2Removed(bytes32 indexed market_, uint256 indexed _timestamp);\r\n\r\n  constructor(address superAdminAddr_) {\r\n    superAdminAddress = superAdminAddr_;\r\n    adminTokenListAddress = msg.sender;\r\n  }\r\n  receive() external payable {\r\n    payable(adminTokenListAddress).transfer(msg.value);\r\n  }\r\n  \r\n  fallback() external payable {\r\n    payable(adminTokenListAddress).transfer(msg.value);\r\n  }\r\n  \r\n  function transferAnyERC20(address token_,address recipient_,uint256 value_) external returns(bool) {\r\n    IBEP20(token_).transfer(recipient_, value_);\r\n    return true;\r\n  }\r\n  function isMarketSupported(bytes32  market_) external view returns (bool)\t{\r\n\t\t_isMarketSupported(market_);\r\n\t\treturn true;\r\n\t}\r\n\r\n\tfunction _isMarketSupported(bytes32  market_) internal view {\r\n\t\trequire(tokenSupportCheck[market_] == true, \"Hey, Token is not supported\");\r\n\t}\r\n\r\n  function getMarketTokenAddress(bytes32 market_) external view returns (address) {\r\n    return indMarketData[market_].tokenAddress;\r\n  }\r\n\r\n  function getMarketDecimal(bytes32 market_) external view returns (uint) {\r\n    return indMarketData[market_].decimals;\r\n  }\r\n  \r\n  // ADD A NEW TOKEN SUPPORT\r\n  function addTokenSupport(bytes32 market_,uint256 decimals_,address tokenAddress_) external authTokenList() returns (bool) {\r\n    _addTokenSupport(market_, decimals_, tokenAddress_);\r\n\r\n    emit TokenSupportAdded(market_,decimals_,tokenAddress_,block.timestamp);\r\n    return bool(true);\r\n  }\r\n  function _addTokenSupport( bytes32 market_,uint256 decimals_,address tokenAddress_) internal {\r\n    MarketData storage marketData = indMarketData[market_];\r\n    \r\n    marketData.market = market_;\r\n    marketData.tokenAddress = tokenAddress_;\r\n    marketData.decimals = decimals_;\r\n    \r\n    markets.push(market_);\r\n    tokenSupportCheck[market_] = true;\r\n    marketIndex[market_] = markets.length-1;\r\n  }\r\n\r\n  function removeTokenSupport(bytes32 market_) external authTokenList() returns(bool) {\r\n    _removeTokenSupport(market_);\r\n    emit TokenSupportRemoved(market_, block.timestamp);\r\n    return bool(true);\r\n  }\r\n\r\n  function _removeTokenSupport(bytes32 market_) internal {\r\n\r\n\r\n    tokenSupportCheck[market_] = false;\r\n    delete indMarketData[market_];\r\n    \r\n    if (marketIndex[market_] >= markets.length) return;\r\n\r\n    bytes32 lastmarket = markets[markets.length - 1];\r\n\r\n    if (marketIndex[lastmarket] != marketIndex[market_]) {\r\n      marketIndex[lastmarket] = marketIndex[market_];\r\n      markets[marketIndex[market_]] = lastmarket;\r\n    }\r\n    markets.pop();\r\n    delete marketIndex[market_];\r\n  }\r\n  \r\n  function updateTokenSupport(bytes32 market_, uint256 decimals_,address tokenAddress_) external authTokenList()  returns(bool){\r\n    _updateTokenSupport(market_, decimals_, tokenAddress_);\r\n    emit TokenSupportUpdated(market_,decimals_,tokenAddress_,block.timestamp);\r\n    return bool(true);\r\n  }\r\n\r\n  function connectMarket(bytes32 market_, IBEP20 token_) external view {\r\n    _connectMarket(market_, token_);\r\n  }\r\n\r\n  function _connectMarket(bytes32 market_, /* uint256 amount_, */ IBEP20 token) internal view {\r\n\t\tMarketData storage marketData = indMarketData[market_];\r\n\t\taddress marketAddress = marketData.tokenAddress;\r\n\t\ttoken = IBEP20(marketAddress);\r\n\t\t// amount_ *= marketData.decimals;\r\n\t}\r\n\r\n  function quantifyAmount(bytes32 _market, uint _amount) external view {\r\n    _quantifyAmount(_market, _amount);\r\n  }\r\n\r\n  function _quantifyAmount(bytes32 _market, uint _amount) internal view {\r\n    MarketData storage marketData = indMarketData[_market];\r\n    _amount *= marketData.decimals;\r\n  }\r\n\r\n  function _updateTokenSupport(\r\n    bytes32 market_,\r\n    uint256 decimals_,\r\n    address tokenAddress_\r\n  ) internal\r\n  {\r\n    MarketData storage marketData = indMarketData[market_];\r\n\r\n    marketData.market = market_;\r\n    marketData.tokenAddress = tokenAddress_;\r\n    marketData.decimals = decimals_;\r\n\r\n    tokenSupportCheck[market_] = true;\r\n  }\r\n\r\n  //SecondaryToken\r\n  function isToken2Supported(bytes32  market_) external view returns (bool)\t{\r\n\t\t_isToken2Supported(market_);\r\n\t\treturn true;\r\n\t}\r\n\r\n\tfunction _isToken2Supported(bytes32  market_) internal view {\r\n\t\trequire(token2SupportCheck[market_] == true, \"Secondary Token is not supported\");\r\n\t}\r\n\r\n  function getMarketToken2Address(bytes32 market_) external view returns (address) {\r\n    return indMarket2Data[market_].tokenAddress;\r\n  }\r\n\r\n  function getMarket2Decimal(bytes32 market_) external view returns (uint) {\r\n    return indMarket2Data[market_].decimals;\r\n  }\r\n  \r\n  // ADD A NEW TOKEN SUPPORT\r\n  function addToken2Support(bytes32 market_,uint256 decimals_,address tokenAddress_) \r\n    external authTokenList returns (bool) \r\n  {\r\n    _addToken2Support(market_, decimals_, tokenAddress_);\r\n\r\n    emit Token2Added(market_,decimals_,tokenAddress_,block.timestamp);\r\n    return bool(true);\r\n  }\r\n\r\n  function _addToken2Support( bytes32 market_,uint256 decimals_,address tokenAddress_) internal {\r\n    MarketData storage marketData = indMarket2Data[market_];\r\n    \r\n    marketData.market = market_;\r\n    marketData.tokenAddress = tokenAddress_;\r\n    marketData.decimals = decimals_;\r\n    \r\n    markets2.push(market_);\r\n    token2SupportCheck[market_] = true;\r\n    market2Index[market_] = markets2.length-1;\r\n  }\r\n\r\n  function removeToken2Support(bytes32 market_) external authTokenList returns(bool) {\r\n    _removeToken2Support(market_);\r\n    emit Token2Removed(market_, block.timestamp);\r\n    return bool(true);\r\n  }\r\n\r\n  function _removeToken2Support(bytes32 market_) internal {\r\n    token2SupportCheck[market_] = false;\r\n    delete indMarket2Data[market_];\r\n\r\n    if (market2Index[market_] >= markets2.length) return;\r\n\r\n    bytes32 lastmarket = markets2[markets2.length - 1];\r\n\r\n    if (market2Index[lastmarket] != market2Index[market_]) {\r\n      market2Index[lastmarket] = market2Index[market_];\r\n      markets2[market2Index[market_]] = lastmarket;\r\n    }\r\n    markets2.pop();\r\n    delete market2Index[market_];\r\n  }\r\n  \r\n  function updateToken2Support(bytes32 market_, uint256 decimals_,address tokenAddress_) \r\n    external authTokenList returns(bool)\r\n  {\r\n    _updateToken2Support(market_, decimals_, tokenAddress_);\r\n    emit Token2Updated(market_,decimals_,tokenAddress_,block.timestamp);\r\n    return bool(true);\r\n  }\r\n\r\n  function _updateToken2Support(\r\n    bytes32 market_,\r\n    uint256 decimals_,\r\n    address tokenAddress_\r\n  ) internal {\r\n    MarketData storage marketData = indMarket2Data[market_];\r\n\r\n    marketData.market = market_;\r\n    marketData.tokenAddress = tokenAddress_;\r\n    marketData.decimals = decimals_;\r\n\r\n    token2SupportCheck[market_] = true;\r\n  }\r\n\r\n  function pause() external authTokenList() nonReentrant() {\r\n       _pause();\r\n\t}\r\n\t\r\n\tfunction unpause() external authTokenList() nonReentrant() {\r\n       _unpause();   \r\n\t}\r\n\r\n\tmodifier authTokenList() {\r\n\t\trequire(msg.sender == adminTokenListAddress,\"Only an admin can call this function\");\r\n\t\t_;\r\n\t}\r\n}",
  "sourcePath": "F:\\workspace\\Open-protocol\\contracts\\TokenList.sol",
  "compiler": {
    "name": "solc",
    "version": "0.8.9+commit.e5eed63a.Emscripten.clang"
  },
  "schemaVersion": "3.4.3",
  "updatedAt": "2021-10-18T07:46:32.535Z",
  "devdoc": {
    "kind": "dev",
    "methods": {},
    "version": 1
  },
  "userdoc": {
    "kind": "user",
    "methods": {},
    "version": 1
  }
}