{
  "contractName": "TokenList",
  "abi": [
    {
      "inputs": [
        {
          "internalType": "address",
          "name": "superAdminAddr_",
          "type": "address"
        }
      ],
      "stateMutability": "nonpayable",
      "type": "constructor"
    },
    {
      "anonymous": false,
      "inputs": [
        {
          "indexed": true,
          "internalType": "bytes32",
          "name": "market_",
          "type": "bytes32"
        },
        {
          "indexed": false,
          "internalType": "uint256",
          "name": "decimals_",
          "type": "uint256"
        },
        {
          "indexed": true,
          "internalType": "address",
          "name": "tokenAddress_",
          "type": "address"
        },
        {
          "indexed": true,
          "internalType": "uint256",
          "name": "_timestamp",
          "type": "uint256"
        }
      ],
      "name": "Token2Added",
      "type": "event"
    },
    {
      "anonymous": false,
      "inputs": [
        {
          "indexed": true,
          "internalType": "bytes32",
          "name": "market_",
          "type": "bytes32"
        },
        {
          "indexed": true,
          "internalType": "uint256",
          "name": "_timestamp",
          "type": "uint256"
        }
      ],
      "name": "Token2Removed",
      "type": "event"
    },
    {
      "anonymous": false,
      "inputs": [
        {
          "indexed": true,
          "internalType": "bytes32",
          "name": "market_",
          "type": "bytes32"
        },
        {
          "indexed": false,
          "internalType": "uint256",
          "name": "decimals_",
          "type": "uint256"
        },
        {
          "indexed": true,
          "internalType": "address",
          "name": "tokenAddress_",
          "type": "address"
        },
        {
          "indexed": true,
          "internalType": "uint256",
          "name": "_timestamp",
          "type": "uint256"
        }
      ],
      "name": "Token2Updated",
      "type": "event"
    },
    {
      "anonymous": false,
      "inputs": [
        {
          "indexed": true,
          "internalType": "bytes32",
          "name": "market_",
          "type": "bytes32"
        },
        {
          "indexed": false,
          "internalType": "uint256",
          "name": "decimals_",
          "type": "uint256"
        },
        {
          "indexed": true,
          "internalType": "address",
          "name": "tokenAddress_",
          "type": "address"
        },
        {
          "indexed": true,
          "internalType": "uint256",
          "name": "_timestamp",
          "type": "uint256"
        }
      ],
      "name": "TokenSupportAdded",
      "type": "event"
    },
    {
      "anonymous": false,
      "inputs": [
        {
          "indexed": true,
          "internalType": "bytes32",
          "name": "market_",
          "type": "bytes32"
        },
        {
          "indexed": true,
          "internalType": "uint256",
          "name": "_timestamp",
          "type": "uint256"
        }
      ],
      "name": "TokenSupportRemoved",
      "type": "event"
    },
    {
      "anonymous": false,
      "inputs": [
        {
          "indexed": true,
          "internalType": "bytes32",
          "name": "market_",
          "type": "bytes32"
        },
        {
          "indexed": false,
          "internalType": "uint256",
          "name": "decimals_",
          "type": "uint256"
        },
        {
          "indexed": true,
          "internalType": "address",
          "name": "tokenAddress_",
          "type": "address"
        },
        {
          "indexed": true,
          "internalType": "uint256",
          "name": "_timestamp",
          "type": "uint256"
        }
      ],
      "name": "TokenSupportUpdated",
      "type": "event"
    },
    {
      "stateMutability": "payable",
      "type": "fallback"
    },
    {
      "inputs": [
        {
          "internalType": "bytes32",
          "name": "",
          "type": "bytes32"
        }
      ],
      "name": "indMarket2Data",
      "outputs": [
        {
          "internalType": "bytes32",
          "name": "market",
          "type": "bytes32"
        },
        {
          "internalType": "address",
          "name": "tokenAddress",
          "type": "address"
        },
        {
          "internalType": "uint256",
          "name": "decimals",
          "type": "uint256"
        },
        {
          "internalType": "uint256",
          "name": "chainId",
          "type": "uint256"
        }
      ],
      "stateMutability": "view",
      "type": "function"
    },
    {
      "inputs": [
        {
          "internalType": "bytes32",
          "name": "",
          "type": "bytes32"
        }
      ],
      "name": "indMarketData",
      "outputs": [
        {
          "internalType": "bytes32",
          "name": "market",
          "type": "bytes32"
        },
        {
          "internalType": "address",
          "name": "tokenAddress",
          "type": "address"
        },
        {
          "internalType": "uint256",
          "name": "decimals",
          "type": "uint256"
        },
        {
          "internalType": "uint256",
          "name": "chainId",
          "type": "uint256"
        }
      ],
      "stateMutability": "view",
      "type": "function"
    },
    {
      "inputs": [
        {
          "internalType": "bytes32",
          "name": "",
          "type": "bytes32"
        }
      ],
      "name": "token2SupportCheck",
      "outputs": [
        {
          "internalType": "bool",
          "name": "",
          "type": "bool"
        }
      ],
      "stateMutability": "view",
      "type": "function"
    },
    {
      "inputs": [
        {
          "internalType": "bytes32",
          "name": "",
          "type": "bytes32"
        }
      ],
      "name": "tokenSupportCheck",
      "outputs": [
        {
          "internalType": "bool",
          "name": "",
          "type": "bool"
        }
      ],
      "stateMutability": "view",
      "type": "function"
    },
    {
      "stateMutability": "payable",
      "type": "receive"
    },
    {
      "inputs": [
        {
          "internalType": "address",
          "name": "token_",
          "type": "address"
        },
        {
          "internalType": "address",
          "name": "recipient_",
          "type": "address"
        },
        {
          "internalType": "uint256",
          "name": "value_",
          "type": "uint256"
        }
      ],
      "name": "transferAnyERC20",
      "outputs": [
        {
          "internalType": "bool",
          "name": "",
          "type": "bool"
        }
      ],
      "stateMutability": "nonpayable",
      "type": "function"
    },
    {
      "inputs": [
        {
          "internalType": "bytes32",
          "name": "market_",
          "type": "bytes32"
        }
      ],
      "name": "isMarketSupported",
      "outputs": [
        {
          "internalType": "bool",
          "name": "",
          "type": "bool"
        }
      ],
      "stateMutability": "view",
      "type": "function"
    },
    {
      "inputs": [
        {
          "internalType": "bytes32",
          "name": "market_",
          "type": "bytes32"
        }
      ],
      "name": "getMarketTokenAddress",
      "outputs": [
        {
          "internalType": "address",
          "name": "",
          "type": "address"
        }
      ],
      "stateMutability": "view",
      "type": "function"
    },
    {
      "inputs": [
        {
          "internalType": "bytes32",
          "name": "market_",
          "type": "bytes32"
        }
      ],
      "name": "getMarketDecimal",
      "outputs": [
        {
          "internalType": "uint256",
          "name": "",
          "type": "uint256"
        }
      ],
      "stateMutability": "view",
      "type": "function"
    },
    {
      "inputs": [
        {
          "internalType": "bytes32",
          "name": "market_",
          "type": "bytes32"
        },
        {
          "internalType": "uint256",
          "name": "decimals_",
          "type": "uint256"
        },
        {
          "internalType": "address",
          "name": "tokenAddress_",
          "type": "address"
        }
      ],
      "name": "addTokenSupport",
      "outputs": [
        {
          "internalType": "bool",
          "name": "",
          "type": "bool"
        }
      ],
      "stateMutability": "nonpayable",
      "type": "function"
    },
    {
      "inputs": [
        {
          "internalType": "bytes32",
          "name": "market_",
          "type": "bytes32"
        }
      ],
      "name": "removeTokenSupport",
      "outputs": [
        {
          "internalType": "bool",
          "name": "",
          "type": "bool"
        }
      ],
      "stateMutability": "nonpayable",
      "type": "function"
    },
    {
      "inputs": [
        {
          "internalType": "bytes32",
          "name": "market_",
          "type": "bytes32"
        },
        {
          "internalType": "uint256",
          "name": "decimals_",
          "type": "uint256"
        },
        {
          "internalType": "address",
          "name": "tokenAddress_",
          "type": "address"
        }
      ],
      "name": "updateTokenSupport",
      "outputs": [
        {
          "internalType": "bool",
          "name": "",
          "type": "bool"
        }
      ],
      "stateMutability": "nonpayable",
      "type": "function"
    },
    {
      "inputs": [
        {
          "internalType": "bytes32",
          "name": "market_",
          "type": "bytes32"
        },
        {
          "internalType": "contract IBEP20",
          "name": "token_",
          "type": "address"
        }
      ],
      "name": "connectMarket",
      "outputs": [],
      "stateMutability": "view",
      "type": "function"
    },
    {
      "inputs": [
        {
          "internalType": "bytes32",
          "name": "_market",
          "type": "bytes32"
        },
        {
          "internalType": "uint256",
          "name": "_amount",
          "type": "uint256"
        }
      ],
      "name": "quantifyAmount",
      "outputs": [],
      "stateMutability": "view",
      "type": "function"
    },
    {
      "inputs": [
        {
          "internalType": "bytes32",
          "name": "market_",
          "type": "bytes32"
        }
      ],
      "name": "isToken2Supported",
      "outputs": [
        {
          "internalType": "bool",
          "name": "",
          "type": "bool"
        }
      ],
      "stateMutability": "view",
      "type": "function"
    },
    {
      "inputs": [
        {
          "internalType": "bytes32",
          "name": "market_",
          "type": "bytes32"
        }
      ],
      "name": "getMarketToken2Address",
      "outputs": [
        {
          "internalType": "address",
          "name": "",
          "type": "address"
        }
      ],
      "stateMutability": "view",
      "type": "function"
    },
    {
      "inputs": [
        {
          "internalType": "bytes32",
          "name": "market_",
          "type": "bytes32"
        }
      ],
      "name": "getMarket2Decimal",
      "outputs": [
        {
          "internalType": "uint256",
          "name": "",
          "type": "uint256"
        }
      ],
      "stateMutability": "view",
      "type": "function"
    },
    {
      "inputs": [
        {
          "internalType": "bytes32",
          "name": "market_",
          "type": "bytes32"
        },
        {
          "internalType": "uint256",
          "name": "decimals_",
          "type": "uint256"
        },
        {
          "internalType": "address",
          "name": "tokenAddress_",
          "type": "address"
        }
      ],
      "name": "addToken2Support",
      "outputs": [
        {
          "internalType": "bool",
          "name": "",
          "type": "bool"
        }
      ],
      "stateMutability": "nonpayable",
      "type": "function"
    },
    {
      "inputs": [
        {
          "internalType": "bytes32",
          "name": "market_",
          "type": "bytes32"
        }
      ],
      "name": "removeToken2Support",
      "outputs": [
        {
          "internalType": "bool",
          "name": "",
          "type": "bool"
        }
      ],
      "stateMutability": "nonpayable",
      "type": "function"
    },
    {
      "inputs": [
        {
          "internalType": "bytes32",
          "name": "market_",
          "type": "bytes32"
        },
        {
          "internalType": "uint256",
          "name": "decimals_",
          "type": "uint256"
        },
        {
          "internalType": "address",
          "name": "tokenAddress_",
          "type": "address"
        }
      ],
      "name": "updateToken2Support",
      "outputs": [
        {
          "internalType": "bool",
          "name": "",
          "type": "bool"
        }
      ],
      "stateMutability": "nonpayable",
      "type": "function"
    }
  ],
  "bytecode": "0x60806040526000600260146101000a81548160ff0219169083151502179055503480156200002c57600080fd5b5060405162001e2d38038062001e2d833981810160405281019062000052919062000145565b80600260006101000a81548173ffffffffffffffffffffffffffffffffffffffff021916908373ffffffffffffffffffffffffffffffffffffffff16021790555033600160006101000a81548173ffffffffffffffffffffffffffffffffffffffff021916908373ffffffffffffffffffffffffffffffffffffffff1602179055505062000177565b600080fd5b600073ffffffffffffffffffffffffffffffffffffffff82169050919050565b60006200010d82620000e0565b9050919050565b6200011f8162000100565b81146200012b57600080fd5b50565b6000815190506200013f8162000114565b92915050565b6000602082840312156200015e576200015d620000db565b5b60006200016e848285016200012e565b91505092915050565b611ca680620001876000396000f3fe6080604052600436106101185760003560e01c806378f504f9116100a05780639490250511610064578063949025051461054f57806398bebf8a1461058c5780639bb5a578146105c9578063ecf21d84146105f2578063fafb50281461062f57610188565b806378f504f91461041b5780637a2416701461045857806380af866414610495578063863b252f146104d257806390e9bf801461051257610188565b8063547cb42e116100e7578063547cb42e146102ea5780635b6f547e146103275780635b99bfdb146103645780636b250d5a146103a157806371f082da146103de57610188565b806308663250146101f35780633c2e08b214610230578063446a6686146102705780634b7d87ef146102ad57610188565b3661018857600160009054906101000a900473ffffffffffffffffffffffffffffffffffffffff1673ffffffffffffffffffffffffffffffffffffffff166108fc349081150290604051600060405180830381858888f19350505050158015610185573d6000803e3d6000fd5b50005b600160009054906101000a900473ffffffffffffffffffffffffffffffffffffffff1673ffffffffffffffffffffffffffffffffffffffff166108fc349081150290604051600060405180830381858888f193505050501580156101f0573d6000803e3d6000fd5b50005b3480156101ff57600080fd5b5061021a60048036038101906102159190611655565b610658565b604051610227919061169d565b60405180910390f35b34801561023c57600080fd5b5061025760048036038101906102529190611655565b61072a565b6040516102679493929190611721565b60405180910390f35b34801561027c57600080fd5b5061029760048036038101906102929190611655565b61077a565b6040516102a4919061169d565b60405180910390f35b3480156102b957600080fd5b506102d460048036038101906102cf91906117be565b61078e565b6040516102e1919061169d565b60405180910390f35b3480156102f657600080fd5b50610311600480360381019061030c91906117be565b610886565b60405161031e919061169d565b60405180910390f35b34801561033357600080fd5b5061034e60048036038101906103499190611811565b61097e565b60405161035b919061169d565b60405180910390f35b34801561037057600080fd5b5061038b60048036038101906103869190611655565b610a19565b604051610398919061169d565b60405180910390f35b3480156103ad57600080fd5b506103c860048036038101906103c39190611655565b610a39565b6040516103d5919061169d565b60405180910390f35b3480156103ea57600080fd5b5061040560048036038101906104009190611655565b610a59565b6040516104129190611864565b60405180910390f35b34801561042757600080fd5b50610442600480360381019061043d9190611655565b610a79565b60405161044f919061169d565b60405180910390f35b34801561046457600080fd5b5061047f600480360381019061047a9190611655565b610a8d565b60405161048c9190611864565b60405180910390f35b3480156104a157600080fd5b506104bc60048036038101906104b79190611655565b610aad565b6040516104c9919061187f565b60405180910390f35b3480156104de57600080fd5b506104f960048036038101906104f49190611655565b610aed565b6040516105099493929190611721565b60405180910390f35b34801561051e57600080fd5b50610539600480360381019061053491906117be565b610b3d565b604051610546919061169d565b60405180910390f35b34801561055b57600080fd5b50610576600480360381019061057191906117be565b610c35565b604051610583919061169d565b60405180910390f35b34801561059857600080fd5b506105b360048036038101906105ae9190611655565b610d2d565b6040516105c0919061169d565b60405180910390f35b3480156105d557600080fd5b506105f060048036038101906105eb91906118d8565b610dff565b005b3480156105fe57600080fd5b5061061960048036038101906106149190611655565b610e0d565b604051610626919061187f565b60405180910390f35b34801561063b57600080fd5b5061065660048036038101906106519190611918565b610e4d565b005b6000600160009054906101000a900473ffffffffffffffffffffffffffffffffffffffff1673ffffffffffffffffffffffffffffffffffffffff163373ffffffffffffffffffffffffffffffffffffffff16146106ea576040517f08c379a00000000000000000000000000000000000000000000000000000000081526004016106e1906119db565b60405180910390fd5b6106f382610e5b565b42827f11b50f4453cd5bb6a7f37dff32363666b5d4329e49fa8832eb1d09de1fedaae360405160405180910390a360019050919050565b600a6020528060005260406000206000915090508060000154908060010160009054906101000a900473ffffffffffffffffffffffffffffffffffffffff16908060020154908060030154905084565b600061078582611007565b60019050919050565b6000600160009054906101000a900473ffffffffffffffffffffffffffffffffffffffff1673ffffffffffffffffffffffffffffffffffffffff163373ffffffffffffffffffffffffffffffffffffffff1614610820576040517f08c379a0000000000000000000000000000000000000000000000000000000008152600401610817906119db565b60405180910390fd5b61082b848484611071565b428273ffffffffffffffffffffffffffffffffffffffff16857f9ab604ad9855b1238c52a24d927c0c0821a2da955acdbccb28a895213c11cfda866040516108739190611864565b60405180910390a4600190509392505050565b6000600160009054906101000a900473ffffffffffffffffffffffffffffffffffffffff1673ffffffffffffffffffffffffffffffffffffffff163373ffffffffffffffffffffffffffffffffffffffff1614610918576040517f08c379a000000000000000000000000000000000000000000000000000000000815260040161090f906119db565b60405180910390fd5b61092384848461110f565b428273ffffffffffffffffffffffffffffffffffffffff16857fcd65c181d6f42e8885eec11befac0534ac3ea7724a2222134546724140637af28660405161096b9190611864565b60405180910390a4600190509392505050565b60008373ffffffffffffffffffffffffffffffffffffffff1663a9059cbb84846040518363ffffffff1660e01b81526004016109bb9291906119fb565b602060405180830381600087803b1580156109d557600080fd5b505af11580156109e9573d6000803e3d6000fd5b505050506040513d601f19601f82011682018060405250810190610a0d9190611a50565b50600190509392505050565b60056020528060005260406000206000915054906101000a900460ff1681565b60086020528060005260406000206000915054906101000a900460ff1681565b600060076000838152602001908152602001600020600201549050919050565b6000610a84826111ff565b60019050919050565b6000600a6000838152602001908152602001600020600201549050919050565b6000600a600083815260200190815260200160002060010160009054906101000a900473ffffffffffffffffffffffffffffffffffffffff169050919050565b60076020528060005260406000206000915090508060000154908060010160009054906101000a900473ffffffffffffffffffffffffffffffffffffffff16908060020154908060030154905084565b6000600160009054906101000a900473ffffffffffffffffffffffffffffffffffffffff1673ffffffffffffffffffffffffffffffffffffffff163373ffffffffffffffffffffffffffffffffffffffff1614610bcf576040517f08c379a0000000000000000000000000000000000000000000000000000000008152600401610bc6906119db565b60405180910390fd5b610bda848484611269565b428273ffffffffffffffffffffffffffffffffffffffff16857f81e85df8bcb89e709d6099b0ea622d71f400f359920ed7f006ff6e16c8b8e40686604051610c229190611864565b60405180910390a4600190509392505050565b6000600160009054906101000a900473ffffffffffffffffffffffffffffffffffffffff1673ffffffffffffffffffffffffffffffffffffffff163373ffffffffffffffffffffffffffffffffffffffff1614610cc7576040517f08c379a0000000000000000000000000000000000000000000000000000000008152600401610cbe906119db565b60405180910390fd5b610cd2848484611359565b428273ffffffffffffffffffffffffffffffffffffffff16857f5f8aa8fd7d2964c96efc95415d5ac2e21b8d85a83c4c91238d3a9c50cd70772686604051610d1a9190611864565b60405180910390a4600190509392505050565b6000600160009054906101000a900473ffffffffffffffffffffffffffffffffffffffff1673ffffffffffffffffffffffffffffffffffffffff163373ffffffffffffffffffffffffffffffffffffffff1614610dbf576040517f08c379a0000000000000000000000000000000000000000000000000000000008152600401610db6906119db565b60405180910390fd5b610dc8826113f7565b42827f305503d49d4e272bec7ba6427e9f5791311ccf78cc6bc3c7890d645ec06f427760405160405180910390a360019050919050565b610e0982826115a3565b5050565b60006007600083815260200190815260200160002060010160009054906101000a900473ffffffffffffffffffffffffffffffffffffffff169050919050565b610e5782826115ec565b5050565b60006008600083815260200190815260200160002060006101000a81548160ff021916908315150217905550600a60008281526020019081526020016000206000808201600090556001820160006101000a81549073ffffffffffffffffffffffffffffffffffffffff0219169055600282016000905560038201600090555050600480549050600960008381526020019081526020016000205410610f0057611004565b600060046001600480549050610f169190611aac565b81548110610f2757610f26611ae0565b5b906000526020600020015490506009600083815260200190815260200160002054600960008381526020019081526020016000205414610fc35760096000838152602001908152602001600020546009600083815260200190815260200160002081905550806004600960008581526020019081526020016000205481548110610fb457610fb3611ae0565b5b90600052602060002001819055505b6004805480610fd557610fd4611b0f565b5b600190038181906000526020600020016000905590556009600083815260200190815260200160002060009055505b50565b600115156008600083815260200190815260200160002060009054906101000a900460ff1615151461106e576040517f08c379a000000000000000000000000000000000000000000000000000000000815260040161106590611b8a565b60405180910390fd5b50565b6000600760008581526020019081526020016000209050838160000181905550818160010160006101000a81548173ffffffffffffffffffffffffffffffffffffffff021916908373ffffffffffffffffffffffffffffffffffffffff16021790555082816002018190555060016005600086815260200190815260200160002060006101000a81548160ff02191690831515021790555050505050565b6000600760008581526020019081526020016000209050838160000181905550818160010160006101000a81548173ffffffffffffffffffffffffffffffffffffffff021916908373ffffffffffffffffffffffffffffffffffffffff160217905550828160020181905550600384908060018154018082558091505060019003906000526020600020016000909190919091505560016005600086815260200190815260200160002060006101000a81548160ff02191690831515021790555060016003805490506111e29190611aac565b600660008681526020019081526020016000208190555050505050565b600115156005600083815260200190815260200160002060009054906101000a900460ff16151514611266576040517f08c379a000000000000000000000000000000000000000000000000000000000815260040161125d90611bf6565b60405180910390fd5b50565b6000600a60008581526020019081526020016000209050838160000181905550818160010160006101000a81548173ffffffffffffffffffffffffffffffffffffffff021916908373ffffffffffffffffffffffffffffffffffffffff160217905550828160020181905550600484908060018154018082558091505060019003906000526020600020016000909190919091505560016008600086815260200190815260200160002060006101000a81548160ff021916908315150217905550600160048054905061133c9190611aac565b600960008681526020019081526020016000208190555050505050565b6000600a60008581526020019081526020016000209050838160000181905550818160010160006101000a81548173ffffffffffffffffffffffffffffffffffffffff021916908373ffffffffffffffffffffffffffffffffffffffff16021790555082816002018190555060016008600086815260200190815260200160002060006101000a81548160ff02191690831515021790555050505050565b60006005600083815260200190815260200160002060006101000a81548160ff021916908315150217905550600760008281526020019081526020016000206000808201600090556001820160006101000a81549073ffffffffffffffffffffffffffffffffffffffff021916905560028201600090556003820160009055505060038054905060066000838152602001908152602001600020541061149c576115a0565b6000600360016003805490506114b29190611aac565b815481106114c3576114c2611ae0565b5b90600052602060002001549050600660008381526020019081526020016000205460066000838152602001908152602001600020541461155f57600660008381526020019081526020016000205460066000838152602001908152602001600020819055508060036006600085815260200190815260200160002054815481106115505761154f611ae0565b5b90600052602060002001819055505b600380548061157157611570611b0f565b5b600190038181906000526020600020016000905590556006600083815260200190815260200160002060009055505b50565b600060076000848152602001908152602001600020905060008160010160009054906101000a900473ffffffffffffffffffffffffffffffffffffffff16905080925050505050565b60006007600084815260200190815260200160002090508060020154826116139190611c16565b9150505050565b600080fd5b6000819050919050565b6116328161161f565b811461163d57600080fd5b50565b60008135905061164f81611629565b92915050565b60006020828403121561166b5761166a61161a565b5b600061167984828501611640565b91505092915050565b60008115159050919050565b61169781611682565b82525050565b60006020820190506116b2600083018461168e565b92915050565b6116c18161161f565b82525050565b600073ffffffffffffffffffffffffffffffffffffffff82169050919050565b60006116f2826116c7565b9050919050565b611702816116e7565b82525050565b6000819050919050565b61171b81611708565b82525050565b600060808201905061173660008301876116b8565b61174360208301866116f9565b6117506040830185611712565b61175d6060830184611712565b95945050505050565b61176f81611708565b811461177a57600080fd5b50565b60008135905061178c81611766565b92915050565b61179b816116e7565b81146117a657600080fd5b50565b6000813590506117b881611792565b92915050565b6000806000606084860312156117d7576117d661161a565b5b60006117e586828701611640565b93505060206117f68682870161177d565b9250506040611807868287016117a9565b9150509250925092565b60008060006060848603121561182a5761182961161a565b5b6000611838868287016117a9565b9350506020611849868287016117a9565b925050604061185a8682870161177d565b9150509250925092565b60006020820190506118796000830184611712565b92915050565b600060208201905061189460008301846116f9565b92915050565b60006118a5826116e7565b9050919050565b6118b58161189a565b81146118c057600080fd5b50565b6000813590506118d2816118ac565b92915050565b600080604083850312156118ef576118ee61161a565b5b60006118fd85828601611640565b925050602061190e858286016118c3565b9150509250929050565b6000806040838503121561192f5761192e61161a565b5b600061193d85828601611640565b925050602061194e8582860161177d565b9150509250929050565b600082825260208201905092915050565b7f4f6e6c7920616e2061646d696e2063616e2063616c6c20746869732066756e6360008201527f74696f6e00000000000000000000000000000000000000000000000000000000602082015250565b60006119c5602483611958565b91506119d082611969565b604082019050919050565b600060208201905081810360008301526119f4816119b8565b9050919050565b6000604082019050611a1060008301856116f9565b611a1d6020830184611712565b9392505050565b611a2d81611682565b8114611a3857600080fd5b50565b600081519050611a4a81611a24565b92915050565b600060208284031215611a6657611a6561161a565b5b6000611a7484828501611a3b565b91505092915050565b7f4e487b7100000000000000000000000000000000000000000000000000000000600052601160045260246000fd5b6000611ab782611708565b9150611ac283611708565b925082821015611ad557611ad4611a7d565b5b828203905092915050565b7f4e487b7100000000000000000000000000000000000000000000000000000000600052603260045260246000fd5b7f4e487b7100000000000000000000000000000000000000000000000000000000600052603160045260246000fd5b7f5365636f6e6461727920546f6b656e206973206e6f7420737570706f72746564600082015250565b6000611b74602083611958565b9150611b7f82611b3e565b602082019050919050565b60006020820190508181036000830152611ba381611b67565b9050919050565b7f4865792c20546f6b656e206973206e6f7420737570706f727465640000000000600082015250565b6000611be0601b83611958565b9150611beb82611baa565b602082019050919050565b60006020820190508181036000830152611c0f81611bd3565b9050919050565b6000611c2182611708565b9150611c2c83611708565b9250817fffffffffffffffffffffffffffffffffffffffffffffffffffffffffffffffff0483118215151615611c6557611c64611a7d565b5b82820290509291505056fea2646970667358221220256b998ae7b6468c208985f404a9b4a825f32dab112ee52b92bf82b2436fc27164736f6c63430008090033",
  "immutableReferences": {},
  "source": "// SPDX-License-Identifier: MIT\r\npragma solidity >=0.8.9 <0.9.0;\r\n\r\nimport \"./util/IBEP20.sol\";\r\nimport \"./util/Address.sol\";\r\n// import \"./util/Pausable.sol\";\r\n\r\ncontract TokenList /* is Pausable */{\r\n\r\n  bytes32 adminTokenList;\r\n  address adminTokenListAddress;\r\n  address superAdminAddress;\r\n\r\n  bool isReentrant = false;\r\n  \r\n  struct MarketData {\r\n    bytes32 market;\r\n    address tokenAddress;\r\n    uint256 decimals;\r\n    uint256 chainId;\r\n  }\r\n\r\n  bytes32[] markets;\r\n  bytes32[] markets2;\r\n\r\n  mapping (bytes32 => bool) public tokenSupportCheck;\r\n  mapping (bytes32=>uint256) marketIndex;\r\n  mapping (bytes32 => MarketData) public indMarketData;\r\n\r\n  mapping (bytes32 => bool) public token2SupportCheck;\r\n  mapping (bytes32=>uint256) market2Index;\r\n  mapping (bytes32 => MarketData) public indMarket2Data;\r\n\r\n//   MarketData internal rmMarketData;\r\n\r\n  event TokenSupportAdded(bytes32 indexed market_,uint256 decimals_,address indexed tokenAddress_,uint256 indexed _timestamp);\r\n  event TokenSupportUpdated(bytes32 indexed market_,uint256 decimals_,address indexed tokenAddress_,uint256 indexed _timestamp);\r\n  event TokenSupportRemoved(bytes32 indexed market_, uint256 indexed _timestamp);\r\n  \r\n  event Token2Added(\r\n    bytes32 indexed market_,\r\n    uint256 decimals_,\r\n    address indexed tokenAddress_,\r\n    uint256 indexed _timestamp\r\n  );\r\n  \r\n  event Token2Updated(\r\n    bytes32 indexed market_,\r\n    uint256 decimals_,\r\n    address indexed tokenAddress_,\r\n    uint256 indexed _timestamp\r\n  );\r\n  \r\n  event Token2Removed(bytes32 indexed market_, uint256 indexed _timestamp);\r\n\r\n  constructor(address superAdminAddr_) {\r\n    superAdminAddress = superAdminAddr_;\r\n    adminTokenListAddress = msg.sender;\r\n  }\r\n  receive() external payable {\r\n    payable(adminTokenListAddress).transfer(msg.value);\r\n  }\r\n  \r\n  fallback() external payable {\r\n    payable(adminTokenListAddress).transfer(msg.value);\r\n  }\r\n  \r\n  function transferAnyERC20(address token_,address recipient_,uint256 value_) external returns(bool) {\r\n    IBEP20(token_).transfer(recipient_, value_);\r\n    return true;\r\n  }\r\n  function isMarketSupported(bytes32  market_) external view returns (bool)\t{\r\n\t\t_isMarketSupported(market_);\r\n\t\treturn true;\r\n\t}\r\n\r\n\tfunction _isMarketSupported(bytes32  market_) internal view {\r\n\t\trequire(tokenSupportCheck[market_] == true, \"Hey, Token is not supported\");\r\n\t}\r\n\r\n  function getMarketTokenAddress(bytes32 market_) external view returns (address) {\r\n    return indMarketData[market_].tokenAddress;\r\n  }\r\n\r\n  function getMarketDecimal(bytes32 market_) external view returns (uint) {\r\n    return indMarketData[market_].decimals;\r\n  }\r\n  \r\n  // ADD A NEW TOKEN SUPPORT\r\n  function addTokenSupport(bytes32 market_,uint256 decimals_,address tokenAddress_) external authTokenList() returns (bool) {\r\n    _addTokenSupport(market_, decimals_, tokenAddress_);\r\n\r\n    emit TokenSupportAdded(market_,decimals_,tokenAddress_,block.timestamp);\r\n    return bool(true);\r\n  }\r\n  function _addTokenSupport( bytes32 market_,uint256 decimals_,address tokenAddress_) internal {\r\n    MarketData storage marketData = indMarketData[market_];\r\n    \r\n    marketData.market = market_;\r\n    marketData.tokenAddress = tokenAddress_;\r\n    marketData.decimals = decimals_;\r\n    \r\n    markets.push(market_);\r\n    tokenSupportCheck[market_] = true;\r\n    marketIndex[market_] = markets.length-1;\r\n  }\r\n\r\n  function removeTokenSupport(bytes32 market_) external authTokenList() returns(bool) {\r\n    _removeTokenSupport(market_);\r\n    emit TokenSupportRemoved(market_, block.timestamp);\r\n    return bool(true);\r\n  }\r\n\r\n  function _removeTokenSupport(bytes32 market_) internal {\r\n\r\n\r\n    tokenSupportCheck[market_] = false;\r\n    delete indMarketData[market_];\r\n    \r\n    if (marketIndex[market_] >= markets.length) return;\r\n\r\n    bytes32 lastmarket = markets[markets.length - 1];\r\n\r\n    if (marketIndex[lastmarket] != marketIndex[market_]) {\r\n      marketIndex[lastmarket] = marketIndex[market_];\r\n      markets[marketIndex[market_]] = lastmarket;\r\n    }\r\n    markets.pop();\r\n    delete marketIndex[market_];\r\n  }\r\n  \r\n  function updateTokenSupport(bytes32 market_, uint256 decimals_,address tokenAddress_) external authTokenList()  returns(bool){\r\n    _updateTokenSupport(market_, decimals_, tokenAddress_);\r\n    emit TokenSupportUpdated(market_,decimals_,tokenAddress_,block.timestamp);\r\n    return bool(true);\r\n  }\r\n\r\n  function connectMarket(bytes32 market_, IBEP20 token_) external view {\r\n    _connectMarket(market_, token_);\r\n  }\r\n\r\n  function _connectMarket(bytes32 market_, /* uint256 amount_, */ IBEP20 token) internal view {\r\n\t\tMarketData storage marketData = indMarketData[market_];\r\n\t\taddress marketAddress = marketData.tokenAddress;\r\n\t\ttoken = IBEP20(marketAddress);\r\n\t\t// amount_ *= marketData.decimals;\r\n\t}\r\n\r\n  function quantifyAmount(bytes32 _market, uint _amount) external view {\r\n    _quantifyAmount(_market, _amount);\r\n  }\r\n\r\n  function _quantifyAmount(bytes32 _market, uint _amount) internal view {\r\n    MarketData storage marketData = indMarketData[_market];\r\n    _amount *= marketData.decimals;\r\n  }\r\n\r\n  function _updateTokenSupport(\r\n    bytes32 market_,\r\n    uint256 decimals_,\r\n    address tokenAddress_\r\n  ) internal\r\n  {\r\n    MarketData storage marketData = indMarketData[market_];\r\n\r\n    marketData.market = market_;\r\n    marketData.tokenAddress = tokenAddress_;\r\n    marketData.decimals = decimals_;\r\n\r\n    tokenSupportCheck[market_] = true;\r\n  }\r\n\r\n  //SecondaryToken\r\n  function isToken2Supported(bytes32  market_) external view returns (bool)\t{\r\n\t\t_isToken2Supported(market_);\r\n\t\treturn true;\r\n\t}\r\n\r\n\tfunction _isToken2Supported(bytes32  market_) internal view {\r\n\t\trequire(token2SupportCheck[market_] == true, \"Secondary Token is not supported\");\r\n\t}\r\n\r\n  function getMarketToken2Address(bytes32 market_) external view returns (address) {\r\n    return indMarket2Data[market_].tokenAddress;\r\n  }\r\n\r\n  function getMarket2Decimal(bytes32 market_) external view returns (uint) {\r\n    return indMarket2Data[market_].decimals;\r\n  }\r\n  \r\n  // ADD A NEW TOKEN SUPPORT\r\n  function addToken2Support(bytes32 market_,uint256 decimals_,address tokenAddress_) \r\n    external authTokenList returns (bool) \r\n  {\r\n    _addToken2Support(market_, decimals_, tokenAddress_);\r\n\r\n    emit Token2Added(market_,decimals_,tokenAddress_,block.timestamp);\r\n    return bool(true);\r\n  }\r\n\r\n  function _addToken2Support( bytes32 market_,uint256 decimals_,address tokenAddress_) internal {\r\n    MarketData storage marketData = indMarket2Data[market_];\r\n    \r\n    marketData.market = market_;\r\n    marketData.tokenAddress = tokenAddress_;\r\n    marketData.decimals = decimals_;\r\n    \r\n    markets2.push(market_);\r\n    token2SupportCheck[market_] = true;\r\n    market2Index[market_] = markets2.length-1;\r\n  }\r\n\r\n  function removeToken2Support(bytes32 market_) external authTokenList returns(bool) {\r\n    _removeToken2Support(market_);\r\n    emit Token2Removed(market_, block.timestamp);\r\n    return bool(true);\r\n  }\r\n\r\n  function _removeToken2Support(bytes32 market_) internal {\r\n    token2SupportCheck[market_] = false;\r\n    delete indMarket2Data[market_];\r\n\r\n    if (market2Index[market_] >= markets2.length) return;\r\n\r\n    bytes32 lastmarket = markets2[markets2.length - 1];\r\n\r\n    if (market2Index[lastmarket] != market2Index[market_]) {\r\n      market2Index[lastmarket] = market2Index[market_];\r\n      markets2[market2Index[market_]] = lastmarket;\r\n    }\r\n    markets2.pop();\r\n    delete market2Index[market_];\r\n  }\r\n  \r\n  function updateToken2Support(bytes32 market_, uint256 decimals_,address tokenAddress_) \r\n    external authTokenList returns(bool)\r\n  {\r\n    _updateToken2Support(market_, decimals_, tokenAddress_);\r\n    emit Token2Updated(market_,decimals_,tokenAddress_,block.timestamp);\r\n    return bool(true);\r\n  }\r\n\r\n  function _updateToken2Support(\r\n    bytes32 market_,\r\n    uint256 decimals_,\r\n    address tokenAddress_\r\n  ) internal {\r\n    MarketData storage marketData = indMarket2Data[market_];\r\n\r\n    marketData.market = market_;\r\n    marketData.tokenAddress = tokenAddress_;\r\n    marketData.decimals = decimals_;\r\n\r\n    token2SupportCheck[market_] = true;\r\n  }\r\n\r\n\tmodifier nonReentrant() {\r\n\t\trequire(isReentrant == false, \"Re-entrant alert!\");\r\n\t\tisReentrant = true;\r\n\t\t_;\r\n\t\tisReentrant = false;\r\n\t}\r\n\r\n\tmodifier authTokenList() {\r\n\t\trequire(msg.sender == adminTokenListAddress,\"Only an admin can call this function\");\r\n\t\t_;\r\n\t}\r\n}",
  "sourcePath": "F:\\workspace\\Open-protocol\\contracts\\TokenList.sol",
  "compiler": {
    "name": "solc",
    "version": "0.8.9+commit.e5eed63a.Emscripten.clang"
  },
  "schemaVersion": "3.4.3",
  "updatedAt": "2021-10-18T04:43:18.705Z",
  "devdoc": {
    "kind": "dev",
    "methods": {},
    "version": 1
  },
  "userdoc": {
    "kind": "user",
    "methods": {},
    "version": 1
  }
}