{
  "contractName": "TokenList",
  "abi": [
    {
      "anonymous": false,
      "inputs": [
        {
          "indexed": true,
          "internalType": "bytes32",
          "name": "market_",
          "type": "bytes32"
        },
        {
          "indexed": false,
          "internalType": "uint256",
          "name": "decimals_",
          "type": "uint256"
        },
        {
          "indexed": true,
          "internalType": "address",
          "name": "tokenAddress_",
          "type": "address"
        },
        {
          "indexed": true,
          "internalType": "uint256",
          "name": "_timestamp",
          "type": "uint256"
        }
      ],
      "name": "TokenSupportAdded",
      "type": "event"
    },
    {
      "anonymous": false,
      "inputs": [
        {
          "indexed": true,
          "internalType": "bytes32",
          "name": "market_",
          "type": "bytes32"
        },
        {
          "indexed": true,
          "internalType": "uint256",
          "name": "_timestamp",
          "type": "uint256"
        }
      ],
      "name": "TokenSupportRemoved",
      "type": "event"
    },
    {
      "anonymous": false,
      "inputs": [
        {
          "indexed": true,
          "internalType": "bytes32",
          "name": "market_",
          "type": "bytes32"
        },
        {
          "indexed": false,
          "internalType": "uint256",
          "name": "decimals_",
          "type": "uint256"
        },
        {
          "indexed": true,
          "internalType": "address",
          "name": "tokenAddress_",
          "type": "address"
        },
        {
          "indexed": true,
          "internalType": "uint256",
          "name": "_timestamp",
          "type": "uint256"
        }
      ],
      "name": "TokenSupportUpdated",
      "type": "event"
    },
    {
      "inputs": [
        {
          "internalType": "bytes32",
          "name": "",
          "type": "bytes32"
        }
      ],
      "name": "indMarketData",
      "outputs": [
        {
          "internalType": "bytes32",
          "name": "market",
          "type": "bytes32"
        },
        {
          "internalType": "address",
          "name": "tokenAddress",
          "type": "address"
        },
        {
          "internalType": "uint256",
          "name": "decimals",
          "type": "uint256"
        },
        {
          "internalType": "uint256",
          "name": "chainId",
          "type": "uint256"
        }
      ],
      "stateMutability": "view",
      "type": "function"
    },
    {
      "inputs": [
        {
          "internalType": "bytes32",
          "name": "",
          "type": "bytes32"
        }
      ],
      "name": "tokenSupportCheck",
      "outputs": [
        {
          "internalType": "bool",
          "name": "",
          "type": "bool"
        }
      ],
      "stateMutability": "view",
      "type": "function"
    },
    {
      "inputs": [
        {
          "internalType": "bytes32",
          "name": "market_",
          "type": "bytes32"
        }
      ],
      "name": "isTokenSupported",
      "outputs": [
        {
          "internalType": "bool",
          "name": "",
          "type": "bool"
        }
      ],
      "stateMutability": "view",
      "type": "function"
    },
    {
      "inputs": [
        {
          "internalType": "bytes32",
          "name": "market_",
          "type": "bytes32"
        },
        {
          "internalType": "uint256",
          "name": "decimals_",
          "type": "uint256"
        },
        {
          "internalType": "address",
          "name": "tokenAddress_",
          "type": "address"
        }
      ],
      "name": "addTokenSupport",
      "outputs": [
        {
          "internalType": "bool",
          "name": "",
          "type": "bool"
        }
      ],
      "stateMutability": "nonpayable",
      "type": "function"
    },
    {
      "inputs": [
        {
          "internalType": "bytes32",
          "name": "market_",
          "type": "bytes32"
        }
      ],
      "name": "removeTokenSupport",
      "outputs": [
        {
          "internalType": "bool",
          "name": "",
          "type": "bool"
        }
      ],
      "stateMutability": "nonpayable",
      "type": "function"
    },
    {
      "inputs": [
        {
          "internalType": "bytes32",
          "name": "market_",
          "type": "bytes32"
        },
        {
          "internalType": "uint256",
          "name": "decimals_",
          "type": "uint256"
        },
        {
          "internalType": "address",
          "name": "tokenAddress_",
          "type": "address"
        }
      ],
      "name": "updateTokenSupport",
      "outputs": [
        {
          "internalType": "bool",
          "name": "",
          "type": "bool"
        }
      ],
      "stateMutability": "nonpayable",
      "type": "function"
    }
  ],
  "bytecode": "0x608060405234801561001057600080fd5b50610a47806100206000396000f3fe608060405234801561001057600080fd5b50600436106100625760003560e01c80634b7d87ef14610067578063547cb42e146100975780635b99bfdb146100c7578063863b252f146100f757806398bebf8a1461012a5780639985aaa61461015a575b600080fd5b610081600480360381019061007c9190610790565b61018a565b60405161008e91906107fe565b60405180910390f35b6100b160048036038101906100ac9190610790565b6101f2565b6040516100be91906107fe565b60405180910390f35b6100e160048036038101906100dc9190610819565b61025a565b6040516100ee91906107fe565b60405180910390f35b610111600480360381019061010c9190610819565b61027a565b6040516101219493929190610873565b60405180910390f35b610144600480360381019061013f9190610819565b6102ca565b60405161015191906107fe565b60405180910390f35b610174600480360381019061016f9190610819565b61030c565b60405161018191906107fe565b60405180910390f35b6000610197848484610320565b428273ffffffffffffffffffffffffffffffffffffffff16857f9ab604ad9855b1238c52a24d927c0c0821a2da955acdbccb28a895213c11cfda866040516101df91906108b8565b60405180910390a4600190509392505050565b60006101ff8484846103be565b428273ffffffffffffffffffffffffffffffffffffffff16857fcd65c181d6f42e8885eec11befac0534ac3ea7724a2222134546724140637af28660405161024791906108b8565b60405180910390a4600190509392505050565b60026020528060005260406000206000915054906101000a900460ff1681565b60046020528060005260406000206000915090508060000154908060010160009054906101000a900473ffffffffffffffffffffffffffffffffffffffff16908060020154908060030154905084565b60006102d5826104ad565b42827f305503d49d4e272bec7ba6427e9f5791311ccf78cc6bc3c7890d645ec06f427760405160405180910390a360019050919050565b600061031782610657565b60019050919050565b6000600460008581526020019081526020016000209050838160000181905550818160010160006101000a81548173ffffffffffffffffffffffffffffffffffffffff021916908373ffffffffffffffffffffffffffffffffffffffff16021790555082816002018190555060016002600086815260200190815260200160002060006101000a81548160ff02191690831515021790555050505050565b6000600460008581526020019081526020016000209050838160000181905550818160010160006101000a81548173ffffffffffffffffffffffffffffffffffffffff021916908373ffffffffffffffffffffffffffffffffffffffff160217905550828160020181905550600184908060018154018082558091505060019003906000526020600020016000909190919091505560016002600086815260200190815260200160002060006101000a81548160ff021916908315150217905550600180805490506104909190610902565b600360008681526020019081526020016000208190555050505050565b60006002600083815260200190815260200160002060006101000a81548160ff021916908315150217905550600460008281526020019081526020016000206000808201600090556001820160006101000a81549073ffffffffffffffffffffffffffffffffffffffff021916905560028201600090556003820160009055505060018054905060036000838152602001908152602001600020541061055257610654565b600060018080805490506105669190610902565b8154811061057757610576610936565b5b906000526020600020015490506003600083815260200190815260200160002054600360008381526020019081526020016000205414610613576003600083815260200190815260200160002054600360008381526020019081526020016000208190555080600160036000858152602001908152602001600020548154811061060457610603610936565b5b90600052602060002001819055505b600180548061062557610624610965565b5b600190038181906000526020600020016000905590556003600083815260200190815260200160002060009055505b50565b600115156002600083815260200190815260200160002060009054906101000a900460ff161515146106be576040517f08c379a00000000000000000000000000000000000000000000000000000000081526004016106b5906109f1565b60405180910390fd5b50565b600080fd5b6000819050919050565b6106d9816106c6565b81146106e457600080fd5b50565b6000813590506106f6816106d0565b92915050565b6000819050919050565b61070f816106fc565b811461071a57600080fd5b50565b60008135905061072c81610706565b92915050565b600073ffffffffffffffffffffffffffffffffffffffff82169050919050565b600061075d82610732565b9050919050565b61076d81610752565b811461077857600080fd5b50565b60008135905061078a81610764565b92915050565b6000806000606084860312156107a9576107a86106c1565b5b60006107b7868287016106e7565b93505060206107c88682870161071d565b92505060406107d98682870161077b565b9150509250925092565b60008115159050919050565b6107f8816107e3565b82525050565b600060208201905061081360008301846107ef565b92915050565b60006020828403121561082f5761082e6106c1565b5b600061083d848285016106e7565b91505092915050565b61084f816106c6565b82525050565b61085e81610752565b82525050565b61086d816106fc565b82525050565b60006080820190506108886000830187610846565b6108956020830186610855565b6108a26040830185610864565b6108af6060830184610864565b95945050505050565b60006020820190506108cd6000830184610864565b92915050565b7f4e487b7100000000000000000000000000000000000000000000000000000000600052601160045260246000fd5b600061090d826106fc565b9150610918836106fc565b92508282101561092b5761092a6108d3565b5b828203905092915050565b7f4e487b7100000000000000000000000000000000000000000000000000000000600052603260045260246000fd5b7f4e487b7100000000000000000000000000000000000000000000000000000000600052603160045260246000fd5b600082825260208201905092915050565b7f4865792c20546f6b656e206973206e6f7420737570706f727465640000000000600082015250565b60006109db601b83610994565b91506109e6826109a5565b602082019050919050565b60006020820190508181036000830152610a0a816109ce565b905091905056fea2646970667358221220566b36b28693402449f957b5a8279f8ee3a50cc65a8eb7b60152430fc1b2a74164736f6c63430008090033",
  "immutableReferences": {},
  "source": "// SPDX-License-Identifier: MIT\r\npragma solidity >=0.8.7 <0.9.0;\r\n\r\nimport \"./AccessRegistry.sol\";\r\nimport \"./util/Address.sol\";\r\n\r\ncontract TokenList {\r\n\r\n  bytes32 adminTokenList;\r\n  \r\n  struct MarketData {\r\n    bytes32 market;\r\n    address tokenAddress;\r\n    uint256 decimals;\r\n    uint256 chainId;\r\n  }\r\n\r\n  bytes32[] markets;\r\n  mapping (bytes32 => bool) public tokenSupportCheck;\r\n  mapping (bytes32=>uint256) marketIndex;\r\n  mapping (bytes32 => MarketData) public indMarketData;\r\n\r\n//   MarketData internal rmMarketData;\r\n\r\n  event TokenSupportAdded(bytes32 indexed market_,uint256 decimals_,address indexed tokenAddress_,uint256 indexed _timestamp);\r\n  event TokenSupportUpdated(bytes32 indexed market_,uint256 decimals_,address indexed tokenAddress_,uint256 indexed _timestamp);\r\n  event TokenSupportRemoved(bytes32 indexed market_, uint256 indexed _timestamp);\r\n\r\n \r\n  function isTokenSupported(bytes32  market_) external view returns (bool)\t{\r\n\t\t_isTokenSupported(market_);\r\n\t\treturn true;\r\n\t}\r\n\r\n\tfunction _isTokenSupported(bytes32  market_) internal view {\r\n\t\trequire(tokenSupportCheck[market_] == true, \"Hey, Token is not supported\");\r\n\t}\r\n  \r\n  // ADD A NEW TOKEN SUPPORT\r\n  function addTokenSupport(bytes32 market_,uint256 decimals_,address tokenAddress_) external returns (bool) {\r\n    _addTokenSupport(market_, decimals_, tokenAddress_);\r\n\r\n    emit TokenSupportAdded(market_,decimals_,tokenAddress_,block.timestamp);\r\n    return bool(true);\r\n  }\r\n  function _addTokenSupport( bytes32 market_,uint256 decimals_,address tokenAddress_) internal {\r\n    MarketData storage marketData = indMarketData[market_];\r\n    \r\n    marketData.market = market_;\r\n    marketData.tokenAddress = tokenAddress_;\r\n    marketData.decimals = decimals_;\r\n    \r\n    markets.push(market_);\r\n    tokenSupportCheck[market_] = true;\r\n    marketIndex[market_] = markets.length-1;\r\n  }\r\n\r\n  function removeTokenSupport(bytes32 market_) external returns(bool) {\r\n    _removeTokenSupport(market_);\r\n    emit TokenSupportRemoved(market_, block.timestamp);\r\n    return bool(true);\r\n  }\r\n\r\n  function _removeTokenSupport(bytes32 market_) internal {\r\n\r\n\r\n    tokenSupportCheck[market_] = false;\r\n\r\n    delete indMarketData[market_];\r\n    \r\n    if (marketIndex[market_] >= markets.length) return;\r\n\r\n    bytes32 lastmarket = markets[markets.length - 1];\r\n\r\n    if (marketIndex[lastmarket] != marketIndex[market_]) {\r\n      marketIndex[lastmarket] = marketIndex[market_];\r\n      markets[marketIndex[market_]] = lastmarket;\r\n    }\r\n    markets.pop();\r\n    delete marketIndex[market_];\r\n  }\r\n  \r\n  function updateTokenSupport(bytes32 market_, uint256 decimals_,address tokenAddress_) external returns(bool){\r\n    _updateTokenSupport(market_, decimals_, tokenAddress_);\r\n    emit TokenSupportUpdated(market_,decimals_,tokenAddress_,block.timestamp);\r\n    return bool(true);\r\n  }\r\n\r\n  function _updateTokenSupport(\r\n    bytes32 market_,\r\n    uint256 decimals_,\r\n    address tokenAddress_\r\n  ) internal {\r\n    MarketData storage marketData = indMarketData[market_];\r\n\r\n    marketData.market = market_;\r\n    marketData.tokenAddress = tokenAddress_;\r\n    marketData.decimals = decimals_;\r\n\r\n    tokenSupportCheck[market_] = true;\r\n  }\r\n}",
  "sourcePath": "F:\\workspace\\Open-protocol\\contracts\\TokenList.sol",
  "compiler": {
    "name": "solc",
    "version": "0.8.9+commit.e5eed63a.Emscripten.clang"
  },
  "schemaVersion": "3.4.3",
  "updatedAt": "2021-09-30T01:03:14.765Z",
  "devdoc": {
    "kind": "dev",
    "methods": {},
    "version": 1
  },
  "userdoc": {
    "kind": "user",
    "methods": {},
    "version": 1
  }
}