{
  "contractName": "TokenList",
  "abi": [
    {
      "inputs": [
        {
          "internalType": "address",
          "name": "superAdminAddr_",
          "type": "address"
        }
      ],
      "stateMutability": "nonpayable",
      "type": "constructor"
    },
    {
      "anonymous": false,
      "inputs": [
        {
          "indexed": true,
          "internalType": "bytes32",
          "name": "_market",
          "type": "bytes32"
        },
        {
          "indexed": false,
          "internalType": "uint256",
          "name": "_decimals",
          "type": "uint256"
        },
        {
          "indexed": true,
          "internalType": "address",
          "name": "MarketAddress_",
          "type": "address"
        },
        {
          "indexed": true,
          "internalType": "uint256",
          "name": "_timestamp",
          "type": "uint256"
        }
      ],
      "name": "Market2Added",
      "type": "event"
    },
    {
      "anonymous": false,
      "inputs": [
        {
          "indexed": true,
          "internalType": "bytes32",
          "name": "_market",
          "type": "bytes32"
        },
        {
          "indexed": true,
          "internalType": "uint256",
          "name": "_timestamp",
          "type": "uint256"
        }
      ],
      "name": "Market2Removed",
      "type": "event"
    },
    {
      "anonymous": false,
      "inputs": [
        {
          "indexed": true,
          "internalType": "bytes32",
          "name": "_market",
          "type": "bytes32"
        },
        {
          "indexed": false,
          "internalType": "uint256",
          "name": "_decimals",
          "type": "uint256"
        },
        {
          "indexed": true,
          "internalType": "address",
          "name": "tokenAddress_",
          "type": "address"
        },
        {
          "indexed": true,
          "internalType": "uint256",
          "name": "_timestamp",
          "type": "uint256"
        }
      ],
      "name": "Market2Updated",
      "type": "event"
    },
    {
      "anonymous": false,
      "inputs": [
        {
          "indexed": true,
          "internalType": "bytes32",
          "name": "_market",
          "type": "bytes32"
        },
        {
          "indexed": false,
          "internalType": "uint256",
          "name": "_decimals",
          "type": "uint256"
        },
        {
          "indexed": true,
          "internalType": "address",
          "name": "MarketAddress_",
          "type": "address"
        },
        {
          "indexed": true,
          "internalType": "uint256",
          "name": "_timestamp",
          "type": "uint256"
        }
      ],
      "name": "MarketSupportAdded",
      "type": "event"
    },
    {
      "anonymous": false,
      "inputs": [
        {
          "indexed": true,
          "internalType": "bytes32",
          "name": "_market",
          "type": "bytes32"
        },
        {
          "indexed": true,
          "internalType": "uint256",
          "name": "_timestamp",
          "type": "uint256"
        }
      ],
      "name": "MarketSupportRemoved",
      "type": "event"
    },
    {
      "anonymous": false,
      "inputs": [
        {
          "indexed": true,
          "internalType": "bytes32",
          "name": "_market",
          "type": "bytes32"
        },
        {
          "indexed": false,
          "internalType": "uint256",
          "name": "_decimals",
          "type": "uint256"
        },
        {
          "indexed": true,
          "internalType": "address",
          "name": "MarketAddress_",
          "type": "address"
        },
        {
          "indexed": true,
          "internalType": "uint256",
          "name": "_timestamp",
          "type": "uint256"
        }
      ],
      "name": "MarketSupportUpdated",
      "type": "event"
    },
    {
      "anonymous": false,
      "inputs": [
        {
          "indexed": true,
          "internalType": "address",
          "name": "_pauser",
          "type": "address"
        },
        {
          "indexed": false,
          "internalType": "bool",
          "name": "isPaused",
          "type": "bool"
        }
      ],
      "name": "PauseState",
      "type": "event"
    },
    {
      "stateMutability": "payable",
      "type": "fallback"
    },
    {
      "inputs": [
        {
          "internalType": "bytes32",
          "name": "",
          "type": "bytes32"
        }
      ],
      "name": "indMarket2Data",
      "outputs": [
        {
          "internalType": "bytes32",
          "name": "market",
          "type": "bytes32"
        },
        {
          "internalType": "address",
          "name": "tokenAddress",
          "type": "address"
        },
        {
          "internalType": "uint256",
          "name": "decimals",
          "type": "uint256"
        },
        {
          "internalType": "uint256",
          "name": "chainId",
          "type": "uint256"
        },
        {
          "internalType": "uint256",
          "name": "minAmount",
          "type": "uint256"
        }
      ],
      "stateMutability": "view",
      "type": "function"
    },
    {
      "inputs": [
        {
          "internalType": "bytes32",
          "name": "",
          "type": "bytes32"
        }
      ],
      "name": "indMarketData",
      "outputs": [
        {
          "internalType": "bytes32",
          "name": "market",
          "type": "bytes32"
        },
        {
          "internalType": "address",
          "name": "tokenAddress",
          "type": "address"
        },
        {
          "internalType": "uint256",
          "name": "decimals",
          "type": "uint256"
        },
        {
          "internalType": "uint256",
          "name": "chainId",
          "type": "uint256"
        },
        {
          "internalType": "uint256",
          "name": "minAmount",
          "type": "uint256"
        }
      ],
      "stateMutability": "view",
      "type": "function"
    },
    {
      "inputs": [],
      "name": "pauseState",
      "outputs": [
        {
          "internalType": "string",
          "name": "",
          "type": "string"
        }
      ],
      "stateMutability": "view",
      "type": "function"
    },
    {
      "inputs": [],
      "name": "paused",
      "outputs": [
        {
          "internalType": "bool",
          "name": "",
          "type": "bool"
        }
      ],
      "stateMutability": "view",
      "type": "function"
    },
    {
      "inputs": [
        {
          "internalType": "bytes32",
          "name": "",
          "type": "bytes32"
        }
      ],
      "name": "token2SupportCheck",
      "outputs": [
        {
          "internalType": "bool",
          "name": "",
          "type": "bool"
        }
      ],
      "stateMutability": "view",
      "type": "function"
    },
    {
      "inputs": [
        {
          "internalType": "bytes32",
          "name": "",
          "type": "bytes32"
        }
      ],
      "name": "tokenSupportCheck",
      "outputs": [
        {
          "internalType": "bool",
          "name": "",
          "type": "bool"
        }
      ],
      "stateMutability": "view",
      "type": "function"
    },
    {
      "stateMutability": "payable",
      "type": "receive"
    },
    {
      "inputs": [
        {
          "internalType": "address",
          "name": "token_",
          "type": "address"
        },
        {
          "internalType": "address",
          "name": "recipient_",
          "type": "address"
        },
        {
          "internalType": "uint256",
          "name": "value_",
          "type": "uint256"
        }
      ],
      "name": "transferAnyERC20",
      "outputs": [
        {
          "internalType": "bool",
          "name": "",
          "type": "bool"
        }
      ],
      "stateMutability": "nonpayable",
      "type": "function"
    },
    {
      "inputs": [
        {
          "internalType": "bytes32",
          "name": "_market",
          "type": "bytes32"
        }
      ],
      "name": "isMarketSupported",
      "outputs": [
        {
          "internalType": "bool",
          "name": "",
          "type": "bool"
        }
      ],
      "stateMutability": "view",
      "type": "function"
    },
    {
      "inputs": [
        {
          "internalType": "bytes32",
          "name": "_market",
          "type": "bytes32"
        }
      ],
      "name": "getMarketAddress",
      "outputs": [
        {
          "internalType": "address",
          "name": "",
          "type": "address"
        }
      ],
      "stateMutability": "view",
      "type": "function"
    },
    {
      "inputs": [
        {
          "internalType": "bytes32",
          "name": "_market",
          "type": "bytes32"
        }
      ],
      "name": "getMarketDecimal",
      "outputs": [
        {
          "internalType": "uint256",
          "name": "",
          "type": "uint256"
        }
      ],
      "stateMutability": "view",
      "type": "function"
    },
    {
      "inputs": [
        {
          "internalType": "bytes32",
          "name": "_market",
          "type": "bytes32"
        },
        {
          "internalType": "uint256",
          "name": "_decimals",
          "type": "uint256"
        },
        {
          "internalType": "address",
          "name": "tokenAddress_",
          "type": "address"
        },
        {
          "internalType": "uint256",
          "name": "_amount",
          "type": "uint256"
        }
      ],
      "name": "addMarketSupport",
      "outputs": [
        {
          "internalType": "bool",
          "name": "",
          "type": "bool"
        }
      ],
      "stateMutability": "nonpayable",
      "type": "function"
    },
    {
      "inputs": [
        {
          "internalType": "bytes32",
          "name": "_market",
          "type": "bytes32"
        },
        {
          "internalType": "uint256",
          "name": "_amount",
          "type": "uint256"
        }
      ],
      "name": "minAmountCheck",
      "outputs": [],
      "stateMutability": "view",
      "type": "function"
    },
    {
      "inputs": [
        {
          "internalType": "bytes32",
          "name": "_market",
          "type": "bytes32"
        }
      ],
      "name": "removeMarketSupport",
      "outputs": [
        {
          "internalType": "bool",
          "name": "",
          "type": "bool"
        }
      ],
      "stateMutability": "nonpayable",
      "type": "function"
    },
    {
      "inputs": [
        {
          "internalType": "bytes32",
          "name": "_market",
          "type": "bytes32"
        },
        {
          "internalType": "uint256",
          "name": "_decimals",
          "type": "uint256"
        },
        {
          "internalType": "address",
          "name": "tokenAddress_",
          "type": "address"
        }
      ],
      "name": "updateMarketSupport",
      "outputs": [
        {
          "internalType": "bool",
          "name": "",
          "type": "bool"
        }
      ],
      "stateMutability": "nonpayable",
      "type": "function"
    },
    {
      "inputs": [
        {
          "internalType": "bytes32",
          "name": "_market",
          "type": "bytes32"
        }
      ],
      "name": "connectMarket",
      "outputs": [
        {
          "internalType": "address",
          "name": "addr",
          "type": "address"
        }
      ],
      "stateMutability": "view",
      "type": "function"
    },
    {
      "inputs": [
        {
          "internalType": "bytes32",
          "name": "_market",
          "type": "bytes32"
        },
        {
          "internalType": "uint256",
          "name": "_amount",
          "type": "uint256"
        }
      ],
      "name": "quantifyAmount",
      "outputs": [],
      "stateMutability": "view",
      "type": "function"
    },
    {
      "inputs": [
        {
          "internalType": "bytes32",
          "name": "_market",
          "type": "bytes32"
        }
      ],
      "name": "isMarket2Supported",
      "outputs": [
        {
          "internalType": "bool",
          "name": "",
          "type": "bool"
        }
      ],
      "stateMutability": "view",
      "type": "function"
    },
    {
      "inputs": [
        {
          "internalType": "bytes32",
          "name": "_market",
          "type": "bytes32"
        }
      ],
      "name": "getMarket2Address",
      "outputs": [
        {
          "internalType": "address",
          "name": "",
          "type": "address"
        }
      ],
      "stateMutability": "view",
      "type": "function"
    },
    {
      "inputs": [
        {
          "internalType": "bytes32",
          "name": "_market",
          "type": "bytes32"
        }
      ],
      "name": "getMarket2Decimal",
      "outputs": [
        {
          "internalType": "uint256",
          "name": "",
          "type": "uint256"
        }
      ],
      "stateMutability": "view",
      "type": "function"
    },
    {
      "inputs": [
        {
          "internalType": "bytes32",
          "name": "_market",
          "type": "bytes32"
        },
        {
          "internalType": "uint256",
          "name": "_decimals",
          "type": "uint256"
        },
        {
          "internalType": "address",
          "name": "tokenAddress_",
          "type": "address"
        }
      ],
      "name": "addMarket2Support",
      "outputs": [
        {
          "internalType": "bool",
          "name": "",
          "type": "bool"
        }
      ],
      "stateMutability": "nonpayable",
      "type": "function"
    },
    {
      "inputs": [
        {
          "internalType": "bytes32",
          "name": "_market",
          "type": "bytes32"
        }
      ],
      "name": "removeMarket2Support",
      "outputs": [
        {
          "internalType": "bool",
          "name": "",
          "type": "bool"
        }
      ],
      "stateMutability": "nonpayable",
      "type": "function"
    },
    {
      "inputs": [
        {
          "internalType": "bytes32",
          "name": "_market",
          "type": "bytes32"
        },
        {
          "internalType": "uint256",
          "name": "_decimals",
          "type": "uint256"
        },
        {
          "internalType": "address",
          "name": "tokenAddress_",
          "type": "address"
        }
      ],
      "name": "updateMarket2Support",
      "outputs": [
        {
          "internalType": "bool",
          "name": "",
          "type": "bool"
        }
      ],
      "stateMutability": "nonpayable",
      "type": "function"
    },
    {
      "inputs": [],
      "name": "pause",
      "outputs": [],
      "stateMutability": "nonpayable",
      "type": "function"
    },
    {
      "inputs": [],
      "name": "unpause",
      "outputs": [],
      "stateMutability": "nonpayable",
      "type": "function"
    }
  ],
  "bytecode": "0x60806040526000805460ff1916905534801561001a57600080fd5b506040516115d43803806115d483398101604081905261003991610072565b6000805461ff0019169055600380546001600160a01b039092166001600160a01b031992831617905560028054909116331790556100a2565b60006020828403121561008457600080fd5b81516001600160a01b038116811461009b57600080fd5b9392505050565b611523806100b16000396000f3fe60806040526004361061014f5760003560e01c8063740e4ad6116100b6578063d1c5cfab1161006f578063d1c5cfab14610571578063d6f73b7e146105aa578063d7118351146105ca578063f2641f32146105ec578063f52d62071461060c578063fafb50281461062c57610190565b8063740e4ad61461047857806375a0605c1461049857806378f504f9146104b85780637a241670146104d85780638456cb5914610508578063863b252f1461051d57610190565b80635936d0f4116101085780635936d0f41461032a5780635b6f547e1461039d5780635b99bfdb146103bd5780635c975abb146103ed5780636b250d5a1461040a57806371f082da1461043a57610190565b8063045a1bf4146101c957806304a39264146101fe57806316ab7c931461024f5780632b0268501461026f5780633c2e08b21461028f5780633f4ba83a1461031357610190565b36610190576002546040516001600160a01b03909116903480156108fc02916000818181858888f1935050505015801561018d573d6000803e3d6000fd5b50005b6002546040516001600160a01b03909116903480156108fc02916000818181858888f1935050505015801561018d573d6000803e3d6000fd5b3480156101d557600080fd5b506101e96101e436600461128d565b61064c565b60405190151581526020015b60405180910390f35b34801561020a57600080fd5b506102376102193660046112c2565b6000908152600b60205260409020600101546001600160a01b031690565b6040516001600160a01b0390911681526020016101f5565b34801561025b57600080fd5b506101e961026a36600461128d565b61071e565b34801561027b57600080fd5b506101e961028a3660046112c2565b610793565b34801561029b57600080fd5b506102e36102aa3660046112c2565b600b602052600090815260409020805460018201546002830154600384015460049094015492936001600160a01b039092169290919085565b604080519586526001600160a01b039094166020860152928401919091526060830152608082015260a0016101f5565b34801561031f57600080fd5b506103286107ff565b005b34801561033657600080fd5b506102376103453660046112c2565b600090815260086020908152604091829020825160a0810184528154815260018201546001600160a01b0316928101839052600282015493810193909352600381015460608401526004015460809092019190915290565b3480156103a957600080fd5b506101e96103b83660046112db565b610891565b3480156103c957600080fd5b506101e96103d83660046112c2565b60066020526000908152604090205460ff1681565b3480156103f957600080fd5b50600054610100900460ff166101e9565b34801561041657600080fd5b506101e96104253660046112c2565b60096020526000908152604090205460ff1681565b34801561044657600080fd5b5061046a6104553660046112c2565b60009081526008602052604090206002015490565b6040519081526020016101f5565b34801561048457600080fd5b506101e9610493366004611317565b610922565b3480156104a457600080fd5b506101e96104b33660046112c2565b6109ab565b3480156104c457600080fd5b506101e96104d33660046112c2565b6109be565b3480156104e457600080fd5b5061046a6104f33660046112c2565b6000908152600b602052604090206002015490565b34801561051457600080fd5b506103286109c9565b34801561052957600080fd5b506102e36105383660046112c2565b6008602052600090815260409020805460018201546002830154600384015460049094015492936001600160a01b039092169290919085565b34801561057d57600080fd5b5061023761058c3660046112c2565b6000908152600860205260409020600101546001600160a01b031690565b3480156105b657600080fd5b506103286105c5366004611354565b610a4f565b3480156105d657600080fd5b506105df610af9565b6040516101f59190611376565b3480156105f857600080fd5b506101e96106073660046112c2565b610b61565b34801561061857600080fd5b506101e961062736600461128d565b610bcc565b34801561063857600080fd5b50610328610647366004611354565b610c83565b6002546000906001600160a01b031633146106825760405162461bcd60e51b8152600401610679906113cb565b60405180910390fd5b6000848152600860209081526040808320878155600180820180546001600160a01b0319166001600160a01b03891617905560029091018790556006909252909120805460ff1916909117905542826001600160a01b0316857f676fd8208d46785ab89e3f7e45175672f07a7be4e7096dfe2b63ea8566520c738660405161070c91815260200190565b60405180910390a45060019392505050565b6002546000906001600160a01b0316331461074b5760405162461bcd60e51b8152600401610679906113cb565b610756848484610ce5565b42826001600160a01b0316857ff864dbe056de2147df4af4e132dd4b80adc2145fee69ee00e49b2e357d90eefd8660405161070c91815260200190565b6002546000906001600160a01b031633146107c05760405162461bcd60e51b8152600401610679906113cb565b6107c982610d83565b604051429083907f46cb4298542fed4b211ab7783e8d99e1d683c1d17584a09ad23b6cfa7e65868a90600090a35060015b919050565b6002546001600160a01b031633146108295760405162461bcd60e51b8152600401610679906113cb565b60005460ff16156108705760405162461bcd60e51b815260206004820152601160248201527052652d656e7472616e7420616c6572742160781b6044820152606401610679565b6000805460ff19166001179055610885610ea9565b6000805460ff19169055565b60405163a9059cbb60e01b81526001600160a01b038381166004830152602482018390526000919085169063a9059cbb90604401602060405180830381600087803b1580156108df57600080fd5b505af11580156108f3573d6000803e3d6000fd5b505050506040513d601f19601f82011682018060405250810190610917919061140f565b506001949350505050565b6002546000906001600160a01b0316331461094f5760405162461bcd60e51b8152600401610679906113cb565b61095b85858585610f37565b42836001600160a01b0316867f7643afc17a14750f2bfae896fe88b2bda9ba795e9b571bb59d1e666fa81d93b38760405161099891815260200190565b60405180910390a4506001949350505050565b60006109b682610fec565b506001919050565b60006109b682611052565b6002546001600160a01b031633146109f35760405162461bcd60e51b8152600401610679906113cb565b60005460ff1615610a3a5760405162461bcd60e51b815260206004820152601160248201527052652d656e7472616e7420616c6572742160781b6044820152606401610679565b6000805460ff191660011790556108856110b5565b600082815260086020908152604091829020825160a0810184528154815260018201546001600160a01b0316928101929092526002810154928201929092526003820154606082015260049091015460808201819052821015610af45760405162461bcd60e51b815260206004820181905260248201527f4552524f523a204c657373207468616e206d696e696d756d206465706f7369746044820152606401610679565b505050565b60005460609060ff61010090910416151560011415610b30576040518060600160405280603d81526020016114b1603d9139905090565b5060408051808201909152601681527510dbdb9d1c9858dd081a5cc81b9bdd081c185d5cd95960521b602082015290565b6002546000906001600160a01b03163314610b8e5760405162461bcd60e51b8152600401610679906113cb565b610b9782611150565b604051429083907f401ac0dfdcb231e15661ad8bb099b355eec79a97ba1c9b8d94f707023783bfe690600090a3506001919050565b6002546000906001600160a01b03163314610bf95760405162461bcd60e51b8152600401610679906113cb565b6000848152600b60209081526040808320878155600180820180546001600160a01b0319166001600160a01b03891617905560029091018790556009909252909120805460ff1916909117905542826001600160a01b0316857fb7c0bf38af8a0dcab5fa771f5415a4ffb54ec292d98f794cbb73aba6b9119f3e8660405161070c91815260200190565b600082815260086020908152604091829020825160a0810184528154815260018201546001600160a01b03169281019290925260028101549282018390526003810154606083015260040154608082015290610cdf908361144e565b50505050565b6000838152600b60209081526040808320868155600180820180546001600160a01b0319166001600160a01b038816179055600282018790556005805480830182557f036b6384b5eca791c62761152d0c79bb0604c104a5fb6f4eb0703f3154bb3db001899055600990945291909320805460ff1916821790559054610d6b919061146d565b6000948552600a602052604090942093909355505050565b6000818152600960209081526040808320805460ff19169055600b82528083208381556001810180546001600160a01b03191690556002810184905560038101849055600401839055600554600a9092529091205410610de05750565b6005805460009190610df49060019061146d565b81548110610e0457610e04611484565b6000918252602080832090910154848352600a90915260408083205482845292205490925014610e6d576000828152600a60205260408082205483835290822081905590839052600580548392908110610e6057610e60611484565b6000918252602090912001555b6005805480610e7e57610e7e61149a565b600082815260208082208301600019908101839055909201909255928152600a909252506040812055565b600054610100900460ff16610ef45760405162461bcd60e51b81526020600482015260116024820152704e6f74207061757365642073746174757360781b6044820152606401610679565b6000805461ff001916815560405190815233907fd90c20276b7955800df9b223f244944b25b581f437448b1978aa61d4036b428a906020015b60405180910390a2565b60008481526008602052604090208481556001810180546001600160a01b0319166001600160a01b038516179055610f6f848361144e565b600480830191909155600282018590558054600181810183557f8a35acfbc15ff81a39ae7d344fd709f28e8600b4aa8c65c6b64bfe7fe36bd19b9091018790556000878152600660205260409020805460ff1916821790559054610fd3919061146d565b6000958652600760205260409095209490945550505050565b60008181526009602052604090205460ff16151560011461104f5760405162461bcd60e51b815260206004820181905260248201527f5365636f6e6461727920546f6b656e206973206e6f7420737570706f727465646044820152606401610679565b50565b60008181526006602052604090205460ff16151560011461104f5760405162461bcd60e51b815260206004820152601960248201527f4552524f523a20556e737570706f72746564206d61726b6574000000000000006044820152606401610679565b600054610100900460ff16156110fd5760405162461bcd60e51b815260206004820152600d60248201526c5061757365642073746174757360981b6044820152606401610679565b6000805461ff0019166101001790556111133390565b6001600160a01b03167fd90c20276b7955800df9b223f244944b25b581f437448b1978aa61d4036b428a6001604051610f2d911515815260200190565b6000818152600660209081526040808320805460ff19169055600882528083208381556001810180546001600160a01b03191690556002810184905560038101849055600490810184905554600790925290912054106111ad5750565b60048054600091906111c19060019061146d565b815481106111d1576111d1611484565b600091825260208083209091015484835260079091526040808320548284529220549092501461123a57600082815260076020526040808220548383529082208190559083905260048054839290811061122d5761122d611484565b6000918252602090912001555b600480548061124b5761124b61149a565b6000828152602080822083016000199081018390559092019092559281526007909252506040812055565b80356001600160a01b03811681146107fa57600080fd5b6000806000606084860312156112a257600080fd5b83359250602084013591506112b960408501611276565b90509250925092565b6000602082840312156112d457600080fd5b5035919050565b6000806000606084860312156112f057600080fd5b6112f984611276565b925061130760208501611276565b9150604084013590509250925092565b6000806000806080858703121561132d57600080fd5b843593506020850135925061134460408601611276565b9396929550929360600135925050565b6000806040838503121561136757600080fd5b50508035926020909101359150565b600060208083528351808285015260005b818110156113a357858101830151858201604001528201611387565b818111156113b5576000604083870101525b50601f01601f1916929092016040019392505050565b60208082526024908201527f4f6e6c7920616e2061646d696e2063616e2063616c6c20746869732066756e636040820152633a34b7b760e11b606082015260800190565b60006020828403121561142157600080fd5b8151801515811461143157600080fd5b9392505050565b634e487b7160e01b600052601160045260246000fd5b600081600019048311821515161561146857611468611438565b500290565b60008282101561147f5761147f611438565b500390565b634e487b7160e01b600052603260045260246000fd5b634e487b7160e01b600052603160045260246000fdfe436f6e7472616374206973207061757365642e20546f6b656e207472616e7366657273206172652074656d706f726172696c792064697361626c65642ea2646970667358221220dc76685578ae4c13e51b6730e9f2f939c53f89baf351054136e060c1f325b3f964736f6c63430008090033",
  "immutableReferences": {},
  "source": "// SPDX-License-Identifier: MIT\r\npragma solidity >=0.8.9 <0.9.0;\r\n\r\nimport \"./mockup/IMockBep20.sol\";\r\nimport \"./util/Address.sol\";\r\nimport \"./util/Pausable.sol\";\r\n\r\ncontract TokenList is Pausable {\r\n\r\n  bytes32 adminTokenList;\r\n  address adminTokenListAddress;\r\n  address superAdminAddress;\r\n\r\n  struct MarketData {\r\n    bytes32 market;\r\n    address tokenAddress;\r\n    uint256 decimals;\r\n    uint256 chainId;\r\n    uint minAmount;\r\n  }\r\n\r\n  bytes32[] markets;\r\n  bytes32[] markets2;\r\n\r\n  mapping (bytes32 => bool) public tokenSupportCheck;\r\n  mapping (bytes32=>uint256) marketIndex;\r\n  mapping (bytes32 => MarketData) public indMarketData;\r\n\r\n  mapping (bytes32 => bool) public token2SupportCheck;\r\n  mapping (bytes32=>uint256) market2Index;\r\n  mapping (bytes32 => MarketData) public indMarket2Data;\r\n\r\n//   MarketData internal rmMarketData;\r\n\r\n  event MarketSupportAdded(bytes32 indexed _market,uint256 _decimals,address indexed MarketAddress_,uint256 indexed _timestamp);\r\n  event MarketSupportUpdated(bytes32 indexed _market,uint256 _decimals,address indexed MarketAddress_,uint256 indexed _timestamp);\r\n  event MarketSupportRemoved(bytes32 indexed _market, uint256 indexed _timestamp);\r\n  \r\n  event Market2Added(\r\n    bytes32 indexed _market,\r\n    uint256 _decimals,\r\n    address indexed MarketAddress_,\r\n    uint256 indexed _timestamp\r\n  );\r\n  \r\n  event Market2Updated(\r\n    bytes32 indexed _market,\r\n    uint256 _decimals,\r\n    address indexed tokenAddress_,\r\n    uint256 indexed _timestamp\r\n  );\r\n  \r\n  event Market2Removed(bytes32 indexed _market, uint256 indexed _timestamp);\r\n\r\n  constructor(address superAdminAddr_) {\r\n    superAdminAddress = superAdminAddr_;\r\n    adminTokenListAddress = msg.sender;\r\n  }\r\n  receive() external payable {\r\n    payable(adminTokenListAddress).transfer(msg.value);\r\n  }\r\n  \r\n  fallback() external payable {\r\n    payable(adminTokenListAddress).transfer(msg.value);\r\n  }\r\n  \r\n  function transferAnyERC20(address token_,address recipient_,uint256 value_) external returns(bool) {\r\n    IMockBep20(token_).transfer(recipient_, value_);\r\n    return true;\r\n  }\r\n  function isMarketSupported(bytes32  _market) external view returns (bool)\t{\r\n\t\t_isMarketSupported(_market);\r\n\t\treturn true;\r\n\t}\r\n\r\n\tfunction _isMarketSupported(bytes32  _market) internal view {\r\n\t\trequire(tokenSupportCheck[_market] == true, \"ERROR: Unsupported market\");\r\n\t}\r\n\r\n  function getMarketAddress(bytes32 _market) external view returns (address) {\r\n    return indMarketData[_market].tokenAddress;\r\n  }\r\n\r\n  function getMarketDecimal(bytes32 _market) external view returns (uint) {\r\n    return indMarketData[_market].decimals;\r\n  }\r\n  \r\n  // ADD A NEW TOKEN SUPPORT\r\n  function addMarketSupport(bytes32 _market,uint256 _decimals,address tokenAddress_, uint _amount) external authTokenList() returns (bool) {\r\n    _addMarketSupport(_market, _decimals, tokenAddress_, _amount);\r\n\r\n    emit MarketSupportAdded(_market,_decimals,tokenAddress_,block.timestamp);\r\n    return bool(true);\r\n  }\r\n  function _addMarketSupport( bytes32 _market,uint256 _decimals,address tokenAddress_, uint _amount) internal {\r\n    MarketData storage marketData = indMarketData[_market];\r\n    \r\n    marketData.market = _market;\r\n    marketData.tokenAddress = tokenAddress_;\r\n    marketData.minAmount = _amount*_decimals;\r\n    marketData.decimals = _decimals;\r\n    \r\n    markets.push(_market);\r\n    tokenSupportCheck[_market] = true;\r\n    marketIndex[_market] = markets.length-1;\r\n  }\r\n\r\n  function minAmountCheck(bytes32 _market, uint _amount) external view {\r\n    \r\n    MarketData memory marketData = indMarketData[_market];\r\n    require(marketData.minAmount <= _amount, \"ERROR: Less than minimum deposit\");\r\n  }\r\n\r\n  function removeMarketSupport(bytes32 _market) external authTokenList() returns(bool) {\r\n    _removeMarketSupport(_market);\r\n    emit MarketSupportRemoved(_market, block.timestamp);\r\n    return bool(true);\r\n  }\r\n\r\n  function _removeMarketSupport(bytes32 _market) internal {\r\n\r\n    tokenSupportCheck[_market] = false;\r\n    delete indMarketData[_market];\r\n    \r\n    if (marketIndex[_market] >= markets.length) return;\r\n\r\n    bytes32 lastmarket = markets[markets.length - 1];\r\n\r\n    if (marketIndex[lastmarket] != marketIndex[_market]) {\r\n      marketIndex[lastmarket] = marketIndex[_market];\r\n      markets[marketIndex[_market]] = lastmarket;\r\n    }\r\n    markets.pop();\r\n    delete marketIndex[_market];\r\n  }\r\n  \r\n  function updateMarketSupport(bytes32 _market, uint256 _decimals,address tokenAddress_) external authTokenList()  returns(bool){\r\n    _updateMarketSupport(_market, _decimals, tokenAddress_);\r\n    emit MarketSupportUpdated(_market,_decimals,tokenAddress_,block.timestamp);\r\n    return bool(true);\r\n  }\r\n\r\n  function connectMarket(bytes32 _market) external view returns (address addr){\r\n\t\t\r\n    MarketData memory marketData = indMarketData[_market];\r\n\r\n\t\taddress marketAddress = marketData.tokenAddress;\r\n\t\taddr = marketAddress;\r\n\t\t// amount_ *= marketData.decimals;\r\n\t}\r\n\r\n  function quantifyAmount(bytes32 _market, uint _amount) external view  {\r\n    \r\n    MarketData memory marketData = indMarketData[_market];\r\n    _amount *= marketData.decimals;\r\n    \r\n  }\r\n\r\n  function _updateMarketSupport(\r\n    bytes32 _market,\r\n    uint256 _decimals,\r\n    address tokenAddress_\r\n  ) internal\r\n  {\r\n    MarketData storage marketData = indMarketData[_market];\r\n\r\n    marketData.market = _market;\r\n    marketData.tokenAddress = tokenAddress_;\r\n    marketData.decimals = _decimals;\r\n\r\n    tokenSupportCheck[_market] = true;\r\n  }\r\n\r\n  //SecondaryToken\r\n  function isMarket2Supported(bytes32  _market) external view returns (bool)\t{\r\n\t\t_isMarket2Supported(_market);\r\n\t\treturn true;\r\n\t}\r\n\r\n\tfunction _isMarket2Supported(bytes32  _market) internal view {\r\n\t\trequire(token2SupportCheck[_market] == true, \"Secondary Token is not supported\");\r\n\t}\r\n\r\n  function getMarket2Address(bytes32 _market) external view returns (address) {\r\n    return indMarket2Data[_market].tokenAddress;\r\n  }\r\n\r\n  function getMarket2Decimal(bytes32 _market) external view returns (uint) {\r\n    return indMarket2Data[_market].decimals;\r\n  }\r\n  \r\n  // ADD A NEW TOKEN SUPPORT\r\n  function addMarket2Support(bytes32 _market,uint256 _decimals,address tokenAddress_) \r\n    external authTokenList returns (bool) \r\n  {\r\n    _addMarket2Support(_market, _decimals, tokenAddress_);\r\n\r\n    emit Market2Added(_market,_decimals,tokenAddress_,block.timestamp);\r\n    return bool(true);\r\n  }\r\n\r\n  function _addMarket2Support( bytes32 _market,uint256 _decimals,address tokenAddress_) internal {\r\n    MarketData storage marketData = indMarket2Data[_market];\r\n    \r\n    marketData.market = _market;\r\n    marketData.tokenAddress = tokenAddress_;\r\n    marketData.decimals = _decimals;\r\n    \r\n    markets2.push(_market);\r\n    token2SupportCheck[_market] = true;\r\n    market2Index[_market] = markets2.length-1;\r\n  }\r\n\r\n  function removeMarket2Support(bytes32 _market) external authTokenList returns(bool) {\r\n    _removeMarket2Support(_market);\r\n    emit Market2Removed(_market, block.timestamp);\r\n    return bool(true);\r\n  }\r\n\r\n  function _removeMarket2Support(bytes32 _market) internal {\r\n    token2SupportCheck[_market] = false;\r\n    delete indMarket2Data[_market];\r\n\r\n    if (market2Index[_market] >= markets2.length) return;\r\n\r\n    bytes32 lastmarket = markets2[markets2.length - 1];\r\n\r\n    if (market2Index[lastmarket] != market2Index[_market]) {\r\n      market2Index[lastmarket] = market2Index[_market];\r\n      markets2[market2Index[_market]] = lastmarket;\r\n    }\r\n    markets2.pop();\r\n    delete market2Index[_market];\r\n  }\r\n  \r\n  function updateMarket2Support(bytes32 _market, uint256 _decimals,address tokenAddress_) \r\n    external authTokenList returns(bool)\r\n  {\r\n    _updateMarket2Support(_market, _decimals, tokenAddress_);\r\n    emit Market2Updated(_market,_decimals,tokenAddress_,block.timestamp);\r\n    return bool(true);\r\n  }\r\n\r\n  function _updateMarket2Support(\r\n    bytes32 _market,\r\n    uint256 _decimals,\r\n    address tokenAddress_\r\n  ) internal {\r\n    MarketData storage marketData = indMarket2Data[_market];\r\n\r\n    marketData.market = _market;\r\n    marketData.tokenAddress = tokenAddress_;\r\n    marketData.decimals = _decimals;\r\n\r\n    token2SupportCheck[_market] = true;\r\n  }\r\n\r\n  function pause() external authTokenList() nonReentrant() {\r\n       _pause();\r\n\t}\r\n\t\r\n\tfunction unpause() external authTokenList() nonReentrant() {\r\n       _unpause();   \r\n\t}\r\n\r\n\tmodifier authTokenList() {\r\n\t\trequire(msg.sender == adminTokenListAddress,\"Only an admin can call this function\");\r\n\t\t_;\r\n\t}\r\n}",
  "sourcePath": "F:\\workspace\\Open-protocol\\contracts\\TokenList.sol",
  "compiler": {
    "name": "solc",
    "version": "0.8.9+commit.e5eed63a.Emscripten.clang"
  },
  "schemaVersion": "3.4.3",
  "updatedAt": "2021-10-22T12:07:31.291Z",
  "devdoc": {
    "kind": "dev",
    "methods": {},
    "version": 1
  },
  "userdoc": {
    "kind": "user",
    "methods": {},
    "version": 1
  }
}