{
  "contractName": "TokenList",
  "abi": [
    {
      "inputs": [],
      "stateMutability": "nonpayable",
      "type": "constructor"
    },
    {
      "anonymous": false,
      "inputs": [
        {
          "indexed": true,
          "internalType": "address",
          "name": "_pauser",
          "type": "address"
        },
        {
          "indexed": false,
          "internalType": "bool",
          "name": "isPaused",
          "type": "bool"
        }
      ],
      "name": "PauseState",
      "type": "event"
    },
    {
      "anonymous": false,
      "inputs": [
        {
          "indexed": true,
          "internalType": "bytes32",
          "name": "market_",
          "type": "bytes32"
        },
        {
          "indexed": false,
          "internalType": "uint256",
          "name": "decimals_",
          "type": "uint256"
        },
        {
          "indexed": true,
          "internalType": "address",
          "name": "tokenAddress_",
          "type": "address"
        },
        {
          "indexed": true,
          "internalType": "uint256",
          "name": "_timestamp",
          "type": "uint256"
        }
      ],
      "name": "TokenSupportAdded",
      "type": "event"
    },
    {
      "anonymous": false,
      "inputs": [
        {
          "indexed": true,
          "internalType": "bytes32",
          "name": "market_",
          "type": "bytes32"
        },
        {
          "indexed": true,
          "internalType": "uint256",
          "name": "_timestamp",
          "type": "uint256"
        }
      ],
      "name": "TokenSupportRemoved",
      "type": "event"
    },
    {
      "anonymous": false,
      "inputs": [
        {
          "indexed": true,
          "internalType": "bytes32",
          "name": "market_",
          "type": "bytes32"
        },
        {
          "indexed": false,
          "internalType": "uint256",
          "name": "decimals_",
          "type": "uint256"
        },
        {
          "indexed": true,
          "internalType": "address",
          "name": "tokenAddress_",
          "type": "address"
        },
        {
          "indexed": true,
          "internalType": "uint256",
          "name": "_timestamp",
          "type": "uint256"
        }
      ],
      "name": "TokenSupportUpdated",
      "type": "event"
    },
    {
      "stateMutability": "payable",
      "type": "fallback"
    },
    {
      "inputs": [
        {
          "internalType": "bytes32",
          "name": "",
          "type": "bytes32"
        }
      ],
      "name": "indMarketData",
      "outputs": [
        {
          "internalType": "bytes32",
          "name": "market",
          "type": "bytes32"
        },
        {
          "internalType": "address",
          "name": "tokenAddress",
          "type": "address"
        },
        {
          "internalType": "uint256",
          "name": "decimals",
          "type": "uint256"
        },
        {
          "internalType": "uint256",
          "name": "chainId",
          "type": "uint256"
        }
      ],
      "stateMutability": "view",
      "type": "function"
    },
    {
      "inputs": [],
      "name": "pauseState",
      "outputs": [
        {
          "internalType": "string",
          "name": "",
          "type": "string"
        }
      ],
      "stateMutability": "view",
      "type": "function"
    },
    {
      "inputs": [],
      "name": "paused",
      "outputs": [
        {
          "internalType": "bool",
          "name": "",
          "type": "bool"
        }
      ],
      "stateMutability": "view",
      "type": "function"
    },
    {
      "inputs": [
        {
          "internalType": "bytes32",
          "name": "",
          "type": "bytes32"
        }
      ],
      "name": "tokenSupportCheck",
      "outputs": [
        {
          "internalType": "bool",
          "name": "",
          "type": "bool"
        }
      ],
      "stateMutability": "view",
      "type": "function"
    },
    {
      "stateMutability": "payable",
      "type": "receive"
    },
    {
      "inputs": [
        {
          "internalType": "address",
          "name": "token_",
          "type": "address"
        },
        {
          "internalType": "address",
          "name": "recipient_",
          "type": "address"
        },
        {
          "internalType": "uint256",
          "name": "value_",
          "type": "uint256"
        }
      ],
      "name": "transferAnyERC20",
      "outputs": [
        {
          "internalType": "bool",
          "name": "",
          "type": "bool"
        }
      ],
      "stateMutability": "nonpayable",
      "type": "function"
    },
    {
      "inputs": [
        {
          "internalType": "bytes32",
          "name": "market_",
          "type": "bytes32"
        }
      ],
      "name": "isTokenSupported",
      "outputs": [
        {
          "internalType": "bool",
          "name": "",
          "type": "bool"
        }
      ],
      "stateMutability": "view",
      "type": "function"
    },
    {
      "inputs": [
        {
          "internalType": "bytes32",
          "name": "market_",
          "type": "bytes32"
        }
      ],
      "name": "getMarketTokenAddress",
      "outputs": [
        {
          "internalType": "address",
          "name": "",
          "type": "address"
        }
      ],
      "stateMutability": "view",
      "type": "function"
    },
    {
      "inputs": [
        {
          "internalType": "bytes32",
          "name": "market_",
          "type": "bytes32"
        }
      ],
      "name": "getMarketDecimal",
      "outputs": [
        {
          "internalType": "uint256",
          "name": "",
          "type": "uint256"
        }
      ],
      "stateMutability": "view",
      "type": "function"
    },
    {
      "inputs": [
        {
          "internalType": "bytes32",
          "name": "market_",
          "type": "bytes32"
        },
        {
          "internalType": "uint256",
          "name": "decimals_",
          "type": "uint256"
        },
        {
          "internalType": "address",
          "name": "tokenAddress_",
          "type": "address"
        }
      ],
      "name": "addTokenSupport",
      "outputs": [
        {
          "internalType": "bool",
          "name": "",
          "type": "bool"
        }
      ],
      "stateMutability": "nonpayable",
      "type": "function"
    },
    {
      "inputs": [
        {
          "internalType": "bytes32",
          "name": "market_",
          "type": "bytes32"
        }
      ],
      "name": "removeTokenSupport",
      "outputs": [
        {
          "internalType": "bool",
          "name": "",
          "type": "bool"
        }
      ],
      "stateMutability": "nonpayable",
      "type": "function"
    },
    {
      "inputs": [
        {
          "internalType": "bytes32",
          "name": "market_",
          "type": "bytes32"
        },
        {
          "internalType": "uint256",
          "name": "decimals_",
          "type": "uint256"
        },
        {
          "internalType": "address",
          "name": "tokenAddress_",
          "type": "address"
        }
      ],
      "name": "updateTokenSupport",
      "outputs": [
        {
          "internalType": "bool",
          "name": "",
          "type": "bool"
        }
      ],
      "stateMutability": "nonpayable",
      "type": "function"
    },
    {
      "inputs": [],
      "name": "pause",
      "outputs": [],
      "stateMutability": "nonpayable",
      "type": "function"
    },
    {
      "inputs": [],
      "name": "unpause",
      "outputs": [],
      "stateMutability": "nonpayable",
      "type": "function"
    }
  ],
  "bytecode": "0x608060405260008060006101000a81548160ff02191690831515021790555034801561002a57600080fd5b5060008060016101000a81548160ff02191690831515021790555033600260006101000a81548173ffffffffffffffffffffffffffffffffffffffff021916908373ffffffffffffffffffffffffffffffffffffffff1602179055506117b5806100956000396000f3fe6080604052600436106100c65760003560e01c806371f082da1161007f57806398bebf8a1161005957806398bebf8a1461036b5780639985aaa6146103a8578063d7118351146103e5578063ecf21d841461041057610136565b806371f082da146102d75780638456cb5914610314578063863b252f1461032b57610136565b80633f4ba83a146101a15780634b7d87ef146101b8578063547cb42e146101f55780635b6f547e146102325780635b99bfdb1461026f5780635c975abb146102ac57610136565b3661013657600260009054906101000a900473ffffffffffffffffffffffffffffffffffffffff1673ffffffffffffffffffffffffffffffffffffffff166108fc349081150290604051600060405180830381858888f19350505050158015610133573d6000803e3d6000fd5b50005b600260009054906101000a900473ffffffffffffffffffffffffffffffffffffffff1673ffffffffffffffffffffffffffffffffffffffff166108fc349081150290604051600060405180830381858888f1935050505015801561019e573d6000803e3d6000fd5b50005b3480156101ad57600080fd5b506101b661044d565b005b3480156101c457600080fd5b506101df60048036038101906101da9190611151565b61056f565b6040516101ec91906111bf565b60405180910390f35b34801561020157600080fd5b5061021c60048036038101906102179190611151565b610667565b60405161022991906111bf565b60405180910390f35b34801561023e57600080fd5b50610259600480360381019061025491906111da565b61075f565b60405161026691906111bf565b60405180910390f35b34801561027b57600080fd5b506102966004803603810190610291919061122d565b6107fa565b6040516102a391906111bf565b60405180910390f35b3480156102b857600080fd5b506102c161081a565b6040516102ce91906111bf565b60405180910390f35b3480156102e357600080fd5b506102fe60048036038101906102f9919061122d565b610830565b60405161030b9190611269565b60405180910390f35b34801561032057600080fd5b50610329610850565b005b34801561033757600080fd5b50610352600480360381019061034d919061122d565b610972565b60405161036294939291906112a2565b60405180910390f35b34801561037757600080fd5b50610392600480360381019061038d919061122d565b6109c2565b60405161039f91906111bf565b60405180910390f35b3480156103b457600080fd5b506103cf60048036038101906103ca919061122d565b610a94565b6040516103dc91906111bf565b60405180910390f35b3480156103f157600080fd5b506103fa610aa8565b6040516104079190611380565b60405180910390f35b34801561041c57600080fd5b506104376004803603810190610432919061122d565b610b22565b60405161044491906113a2565b60405180910390f35b600260009054906101000a900473ffffffffffffffffffffffffffffffffffffffff1673ffffffffffffffffffffffffffffffffffffffff163373ffffffffffffffffffffffffffffffffffffffff16146104dd576040517f08c379a00000000000000000000000000000000000000000000000000000000081526004016104d49061142f565b60405180910390fd5b6000151560008054906101000a900460ff16151514610531576040517f08c379a00000000000000000000000000000000000000000000000000000000081526004016105289061149b565b60405180910390fd5b60016000806101000a81548160ff021916908315150217905550610553610b62565b60008060006101000a81548160ff021916908315150217905550565b6000600260009054906101000a900473ffffffffffffffffffffffffffffffffffffffff1673ffffffffffffffffffffffffffffffffffffffff163373ffffffffffffffffffffffffffffffffffffffff1614610601576040517f08c379a00000000000000000000000000000000000000000000000000000000081526004016105f89061142f565b60405180910390fd5b61060c848484610c1b565b428273ffffffffffffffffffffffffffffffffffffffff16857f9ab604ad9855b1238c52a24d927c0c0821a2da955acdbccb28a895213c11cfda866040516106549190611269565b60405180910390a4600190509392505050565b6000600260009054906101000a900473ffffffffffffffffffffffffffffffffffffffff1673ffffffffffffffffffffffffffffffffffffffff163373ffffffffffffffffffffffffffffffffffffffff16146106f9576040517f08c379a00000000000000000000000000000000000000000000000000000000081526004016106f09061142f565b60405180910390fd5b610704848484610cb9565b428273ffffffffffffffffffffffffffffffffffffffff16857fcd65c181d6f42e8885eec11befac0534ac3ea7724a2222134546724140637af28660405161074c9190611269565b60405180910390a4600190509392505050565b60008373ffffffffffffffffffffffffffffffffffffffff1663a9059cbb84846040518363ffffffff1660e01b815260040161079c9291906114bb565b602060405180830381600087803b1580156107b657600080fd5b505af11580156107ca573d6000803e3d6000fd5b505050506040513d601f19601f820116820180604052508101906107ee9190611510565b50600190509392505050565b60046020528060005260406000206000915054906101000a900460ff1681565b60008060019054906101000a900460ff16905090565b600060066000838152602001908152602001600020600201549050919050565b600260009054906101000a900473ffffffffffffffffffffffffffffffffffffffff1673ffffffffffffffffffffffffffffffffffffffff163373ffffffffffffffffffffffffffffffffffffffff16146108e0576040517f08c379a00000000000000000000000000000000000000000000000000000000081526004016108d79061142f565b60405180910390fd5b6000151560008054906101000a900460ff16151514610934576040517f08c379a000000000000000000000000000000000000000000000000000000000815260040161092b9061149b565b60405180910390fd5b60016000806101000a81548160ff021916908315150217905550610956610da9565b60008060006101000a81548160ff021916908315150217905550565b60066020528060005260406000206000915090508060000154908060010160009054906101000a900473ffffffffffffffffffffffffffffffffffffffff16908060020154908060030154905084565b6000600260009054906101000a900473ffffffffffffffffffffffffffffffffffffffff1673ffffffffffffffffffffffffffffffffffffffff163373ffffffffffffffffffffffffffffffffffffffff1614610a54576040517f08c379a0000000000000000000000000000000000000000000000000000000008152600401610a4b9061142f565b60405180910390fd5b610a5d82610e64565b42827f305503d49d4e272bec7ba6427e9f5791311ccf78cc6bc3c7890d645ec06f427760405160405180910390a360019050919050565b6000610a9f82611010565b60019050919050565b606060011515600060019054906101000a900460ff1615151415610ae6576040518060600160405280603d8152602001611743603d91399050610b1f565b6040518060400160405280601681526020017f436f6e7472616374206973206e6f74207061757365640000000000000000000081525090505b90565b60006006600083815260200190815260200160002060010160009054906101000a900473ffffffffffffffffffffffffffffffffffffffff169050919050565b610b6a61081a565b610ba9576040517f08c379a0000000000000000000000000000000000000000000000000000000008152600401610ba090611589565b60405180910390fd5b60008060016101000a81548160ff021916908315150217905550610bcb61107a565b73ffffffffffffffffffffffffffffffffffffffff167fd90c20276b7955800df9b223f244944b25b581f437448b1978aa61d4036b428a6000604051610c1191906111bf565b60405180910390a2565b6000600660008581526020019081526020016000209050838160000181905550818160010160006101000a81548173ffffffffffffffffffffffffffffffffffffffff021916908373ffffffffffffffffffffffffffffffffffffffff16021790555082816002018190555060016004600086815260200190815260200160002060006101000a81548160ff02191690831515021790555050505050565b6000600660008581526020019081526020016000209050838160000181905550818160010160006101000a81548173ffffffffffffffffffffffffffffffffffffffff021916908373ffffffffffffffffffffffffffffffffffffffff160217905550828160020181905550600384908060018154018082558091505060019003906000526020600020016000909190919091505560016004600086815260200190815260200160002060006101000a81548160ff0219169083151502179055506001600380549050610d8c91906115d8565b600560008681526020019081526020016000208190555050505050565b610db161081a565b15610df1576040517f08c379a0000000000000000000000000000000000000000000000000000000008152600401610de890611658565b60405180910390fd5b6001600060016101000a81548160ff021916908315150217905550610e1461107a565b73ffffffffffffffffffffffffffffffffffffffff167fd90c20276b7955800df9b223f244944b25b581f437448b1978aa61d4036b428a6001604051610e5a91906111bf565b60405180910390a2565b60006004600083815260200190815260200160002060006101000a81548160ff021916908315150217905550600660008281526020019081526020016000206000808201600090556001820160006101000a81549073ffffffffffffffffffffffffffffffffffffffff0219169055600282016000905560038201600090555050600380549050600560008381526020019081526020016000205410610f095761100d565b600060036001600380549050610f1f91906115d8565b81548110610f3057610f2f611678565b5b906000526020600020015490506005600083815260200190815260200160002054600560008381526020019081526020016000205414610fcc5760056000838152602001908152602001600020546005600083815260200190815260200160002081905550806003600560008581526020019081526020016000205481548110610fbd57610fbc611678565b5b90600052602060002001819055505b6003805480610fde57610fdd6116a7565b5b600190038181906000526020600020016000905590556005600083815260200190815260200160002060009055505b50565b600115156004600083815260200190815260200160002060009054906101000a900460ff16151514611077576040517f08c379a000000000000000000000000000000000000000000000000000000000815260040161106e90611722565b60405180910390fd5b50565b600033905090565b600080fd5b6000819050919050565b61109a81611087565b81146110a557600080fd5b50565b6000813590506110b781611091565b92915050565b6000819050919050565b6110d0816110bd565b81146110db57600080fd5b50565b6000813590506110ed816110c7565b92915050565b600073ffffffffffffffffffffffffffffffffffffffff82169050919050565b600061111e826110f3565b9050919050565b61112e81611113565b811461113957600080fd5b50565b60008135905061114b81611125565b92915050565b60008060006060848603121561116a57611169611082565b5b6000611178868287016110a8565b9350506020611189868287016110de565b925050604061119a8682870161113c565b9150509250925092565b60008115159050919050565b6111b9816111a4565b82525050565b60006020820190506111d460008301846111b0565b92915050565b6000806000606084860312156111f3576111f2611082565b5b60006112018682870161113c565b93505060206112128682870161113c565b9250506040611223868287016110de565b9150509250925092565b60006020828403121561124357611242611082565b5b6000611251848285016110a8565b91505092915050565b611263816110bd565b82525050565b600060208201905061127e600083018461125a565b92915050565b61128d81611087565b82525050565b61129c81611113565b82525050565b60006080820190506112b76000830187611284565b6112c46020830186611293565b6112d1604083018561125a565b6112de606083018461125a565b95945050505050565b600081519050919050565b600082825260208201905092915050565b60005b83811015611321578082015181840152602081019050611306565b83811115611330576000848401525b50505050565b6000601f19601f8301169050919050565b6000611352826112e7565b61135c81856112f2565b935061136c818560208601611303565b61137581611336565b840191505092915050565b6000602082019050818103600083015261139a8184611347565b905092915050565b60006020820190506113b76000830184611293565b92915050565b7f4f6e6c792074686520546f6b656e4c6973742061646d696e2063616e206d6f6460008201527f69667920746869732066756e6374696f6e000000000000000000000000000000602082015250565b60006114196031836112f2565b9150611424826113bd565b604082019050919050565b600060208201905081810360008301526114488161140c565b9050919050565b7f52652d656e7472616e7420616c65727421000000000000000000000000000000600082015250565b60006114856011836112f2565b91506114908261144f565b602082019050919050565b600060208201905081810360008301526114b481611478565b9050919050565b60006040820190506114d06000830185611293565b6114dd602083018461125a565b9392505050565b6114ed816111a4565b81146114f857600080fd5b50565b60008151905061150a816114e4565b92915050565b60006020828403121561152657611525611082565b5b6000611534848285016114fb565b91505092915050565b7f4e6f742070617573656420737461747573000000000000000000000000000000600082015250565b60006115736011836112f2565b915061157e8261153d565b602082019050919050565b600060208201905081810360008301526115a281611566565b9050919050565b7f4e487b7100000000000000000000000000000000000000000000000000000000600052601160045260246000fd5b60006115e3826110bd565b91506115ee836110bd565b925082821015611601576116006115a9565b5b828203905092915050565b7f5061757365642073746174757300000000000000000000000000000000000000600082015250565b6000611642600d836112f2565b915061164d8261160c565b602082019050919050565b6000602082019050818103600083015261167181611635565b9050919050565b7f4e487b7100000000000000000000000000000000000000000000000000000000600052603260045260246000fd5b7f4e487b7100000000000000000000000000000000000000000000000000000000600052603160045260246000fd5b7f4865792c20546f6b656e206973206e6f7420737570706f727465640000000000600082015250565b600061170c601b836112f2565b9150611717826116d6565b602082019050919050565b6000602082019050818103600083015261173b816116ff565b905091905056fe436f6e7472616374206973207061757365642e20546f6b656e207472616e7366657273206172652074656d706f726172696c792064697361626c65642ea2646970667358221220c5d14a076e3b730911e029f8eb96d4e6bb53340adc1f4706d9e1aa7a4feba4b964736f6c63430008090033",
  "immutableReferences": {},
  "source": "// SPDX-License-Identifier: MIT\r\npragma solidity >=0.8.7 <0.9.0;\r\n\r\nimport \"./AccessRegistry.sol\";\r\nimport \"./util/Address.sol\";\r\nimport \"./util/IBEP20.sol\";\r\nimport \"./util/Pausable.sol\";\r\n\r\ncontract TokenList is Pausable{\r\n\r\n  bytes32 adminTokenList;\r\n  address adminTokenListAddress;\r\n  \r\n  struct MarketData {\r\n    bytes32 market;\r\n    address tokenAddress;\r\n    uint256 decimals;\r\n    uint256 chainId;\r\n  }\r\n\r\n  bytes32[] markets;\r\n  mapping (bytes32 => bool) public tokenSupportCheck;\r\n  mapping (bytes32=>uint256) marketIndex;\r\n  mapping (bytes32 => MarketData) public indMarketData;\r\n\r\n//   MarketData internal rmMarketData;\r\n\r\n  event TokenSupportAdded(bytes32 indexed market_,uint256 decimals_,address indexed tokenAddress_,uint256 indexed _timestamp);\r\n  event TokenSupportUpdated(bytes32 indexed market_,uint256 decimals_,address indexed tokenAddress_,uint256 indexed _timestamp);\r\n  event TokenSupportRemoved(bytes32 indexed market_, uint256 indexed _timestamp);\r\n  \r\n  constructor() {\r\n    adminTokenListAddress = msg.sender;\r\n  }\r\n  receive() external payable {\r\n    payable(adminTokenListAddress).transfer(msg.value);\r\n  }\r\n  \r\n  fallback() external payable {\r\n    payable(adminTokenListAddress).transfer(msg.value);\r\n  }\r\n  \r\n  function transferAnyERC20(address token_,address recipient_,uint256 value_) external returns(bool) {\r\n    IBEP20(token_).transfer(recipient_, value_);\r\n    return true;\r\n  }\r\n\r\n  function isTokenSupported(bytes32  market_) external view returns (bool)\t{\r\n\t\t_isTokenSupported(market_);\r\n\t\treturn true;\r\n\t}\r\n\r\n\tfunction _isTokenSupported(bytes32  market_) internal view {\r\n\t\trequire(tokenSupportCheck[market_] == true, \"Hey, Token is not supported\");\r\n\t}\r\n\r\n  function getMarketTokenAddress(bytes32 market_) external view returns (address) {\r\n    return indMarketData[market_].tokenAddress;\r\n  }\r\n\r\n  function getMarketDecimal(bytes32 market_) external view returns (uint) {\r\n    return indMarketData[market_].decimals;\r\n  }\r\n  \r\n  // ADD A NEW TOKEN SUPPORT\r\n  function addTokenSupport(bytes32 market_,uint256 decimals_,address tokenAddress_) external onlyAdmin returns (bool) {\r\n    _addTokenSupport(market_, decimals_, tokenAddress_);\r\n\r\n    emit TokenSupportAdded(market_,decimals_,tokenAddress_,block.timestamp);\r\n    return bool(true);\r\n  }\r\n  function _addTokenSupport( bytes32 market_,uint256 decimals_,address tokenAddress_) internal {\r\n    MarketData storage marketData = indMarketData[market_];\r\n    \r\n    marketData.market = market_;\r\n    marketData.tokenAddress = tokenAddress_;\r\n    marketData.decimals = decimals_;\r\n    \r\n    markets.push(market_);\r\n    tokenSupportCheck[market_] = true;\r\n    marketIndex[market_] = markets.length-1;\r\n  }\r\n\r\n  function removeTokenSupport(bytes32 market_) external onlyAdmin returns(bool) {\r\n    _removeTokenSupport(market_);\r\n    emit TokenSupportRemoved(market_, block.timestamp);\r\n    return bool(true);\r\n  }\r\n\r\n  function _removeTokenSupport(bytes32 market_) internal {\r\n\r\n\r\n    tokenSupportCheck[market_] = false;\r\n\r\n    delete indMarketData[market_];\r\n    \r\n    if (marketIndex[market_] >= markets.length) return;\r\n\r\n    bytes32 lastmarket = markets[markets.length - 1];\r\n\r\n    if (marketIndex[lastmarket] != marketIndex[market_]) {\r\n      marketIndex[lastmarket] = marketIndex[market_];\r\n      markets[marketIndex[market_]] = lastmarket;\r\n    }\r\n    markets.pop();\r\n    delete marketIndex[market_];\r\n  }\r\n  \r\n  function updateTokenSupport(bytes32 market_, uint256 decimals_,address tokenAddress_) external onlyAdmin returns(bool){\r\n    _updateTokenSupport(market_, decimals_, tokenAddress_);\r\n    emit TokenSupportUpdated(market_,decimals_,tokenAddress_,block.timestamp);\r\n    return bool(true);\r\n  }\r\n\r\n  function _updateTokenSupport(\r\n    bytes32 market_,\r\n    uint256 decimals_,\r\n    address tokenAddress_\r\n  ) internal\r\n  {\r\n    MarketData storage marketData = indMarketData[market_];\r\n\r\n    marketData.market = market_;\r\n    marketData.tokenAddress = tokenAddress_;\r\n    marketData.decimals = decimals_;\r\n\r\n    tokenSupportCheck[market_] = true;\r\n  }\r\n\r\n  modifier onlyAdmin() {\r\n    require(msg.sender == adminTokenListAddress, \"Only the TokenList admin can modify this function\" );\r\n    _;\r\n  }\r\n\r\n  function pause() external onlyAdmin() nonReentrant() {\r\n       _pause();\r\n\t}\r\n\t\r\n\tfunction unpause() external onlyAdmin() nonReentrant() {\r\n       _unpause();   \r\n\t}\r\n}",
  "sourcePath": "F:\\workspace\\Open-protocol\\contracts\\TokenList.sol",
  "compiler": {
    "name": "solc",
    "version": "0.8.9+commit.e5eed63a.Emscripten.clang"
  },
  "schemaVersion": "3.4.3",
  "updatedAt": "2021-09-30T23:52:23.985Z",
  "devdoc": {
    "kind": "dev",
    "methods": {},
    "version": 1
  },
  "userdoc": {
    "kind": "user",
    "methods": {},
    "version": 1
  }
}