{
  "contractName": "UpgradibilityProxy",
  "abi": [
    {
      "inputs": [],
      "stateMutability": "nonpayable",
      "type": "constructor"
    },
    {
      "anonymous": false,
      "inputs": [
        {
          "indexed": true,
          "internalType": "address",
          "name": "_pauser",
          "type": "address"
        },
        {
          "indexed": false,
          "internalType": "bool",
          "name": "isPaused",
          "type": "bool"
        }
      ],
      "name": "PauseState",
      "type": "event"
    },
    {
      "anonymous": false,
      "inputs": [
        {
          "indexed": true,
          "internalType": "address",
          "name": "implementation",
          "type": "address"
        }
      ],
      "name": "Upgraded",
      "type": "event"
    },
    {
      "stateMutability": "payable",
      "type": "fallback"
    },
    {
      "inputs": [],
      "name": "pauseState",
      "outputs": [
        {
          "internalType": "string",
          "name": "",
          "type": "string"
        }
      ],
      "stateMutability": "view",
      "type": "function"
    },
    {
      "inputs": [],
      "name": "paused",
      "outputs": [
        {
          "internalType": "bool",
          "name": "",
          "type": "bool"
        }
      ],
      "stateMutability": "view",
      "type": "function"
    },
    {
      "stateMutability": "payable",
      "type": "receive"
    },
    {
      "inputs": [
        {
          "internalType": "address",
          "name": "_newOwner",
          "type": "address"
        }
      ],
      "name": "transferProxyOwnership",
      "outputs": [],
      "stateMutability": "nonpayable",
      "type": "function"
    },
    {
      "inputs": [
        {
          "internalType": "address",
          "name": "_implementation",
          "type": "address"
        }
      ],
      "name": "upgradeTo",
      "outputs": [],
      "stateMutability": "nonpayable",
      "type": "function"
    },
    {
      "inputs": [],
      "name": "implementation",
      "outputs": [
        {
          "internalType": "address",
          "name": "impl",
          "type": "address"
        }
      ],
      "stateMutability": "view",
      "type": "function"
    },
    {
      "inputs": [],
      "name": "proxyOwner",
      "outputs": [
        {
          "internalType": "address",
          "name": "owner",
          "type": "address"
        }
      ],
      "stateMutability": "view",
      "type": "function"
    },
    {
      "inputs": [
        {
          "internalType": "address",
          "name": "token_",
          "type": "address"
        },
        {
          "internalType": "address",
          "name": "recipient_",
          "type": "address"
        },
        {
          "internalType": "uint256",
          "name": "value_",
          "type": "uint256"
        }
      ],
      "name": "transferAnyERC20",
      "outputs": [
        {
          "internalType": "bool",
          "name": "",
          "type": "bool"
        }
      ],
      "stateMutability": "nonpayable",
      "type": "function"
    },
    {
      "inputs": [],
      "name": "pause",
      "outputs": [],
      "stateMutability": "nonpayable",
      "type": "function"
    },
    {
      "inputs": [],
      "name": "unpause",
      "outputs": [],
      "stateMutability": "nonpayable",
      "type": "function"
    }
  ],
  "bytecode": "0x608060405260008060006101000a81548160ff02191690831515021790555034801561002a57600080fd5b5060008060016101000a81548160ff02191690831515021790555033600060026101000a81548173ffffffffffffffffffffffffffffffffffffffff021916908373ffffffffffffffffffffffffffffffffffffffff1602179055506100953361009a60201b60201c565b6100c6565b60007f6c39c5b82210a37187f46d4d60931f289b92e557b62633fe1090813ef28bf60890508181555050565b610e79806100d56000396000f3fe60806040526004361061008a5760003560e01c80635c60da1b116100595780635c60da1b146101a65780635c975abb146101d15780638456cb59146101fc578063d711835114610213578063f1739cae1461023e57610091565b8063025313a2146100fe5780633659cfe6146101295780633f4ba83a146101525780635b6f547e1461016957610091565b3661009157005b600061009b610267565b9050600073ffffffffffffffffffffffffffffffffffffffff168173ffffffffffffffffffffffffffffffffffffffff1614156100d757600080fd5b60405136600082376000803683855af43d806000843e81600081146100fa578184f35b8184fd5b34801561010a57600080fd5b50610113610295565b60405161012091906109ac565b60405180910390f35b34801561013557600080fd5b50610150600480360381019061014b91906109f8565b6102c3565b005b34801561015e57600080fd5b5061016761030e565b005b34801561017557600080fd5b50610190600480360381019061018b9190610a5b565b610430565b60405161019d9190610ac9565b60405180910390f35b3480156101b257600080fd5b506101bb610267565b6040516101c891906109ac565b60405180910390f35b3480156101dd57600080fd5b506101e66104cb565b6040516101f39190610ac9565b60405180910390f35b34801561020857600080fd5b506102116104e1565b005b34801561021f57600080fd5b50610228610603565b6040516102359190610b7d565b60405180910390f35b34801561024a57600080fd5b50610265600480360381019061026091906109f8565b61067d565b005b6000807f5432b87812f4335d39c112e048b82e6550eb046b8cac9e224828898b74ac701b9050805491505090565b6000807f6c39c5b82210a37187f46d4d60931f289b92e557b62633fe1090813ef28bf6089050805491505090565b6102cb610295565b73ffffffffffffffffffffffffffffffffffffffff163373ffffffffffffffffffffffffffffffffffffffff161461030257600080fd5b61030b81610702565b50565b600060029054906101000a900473ffffffffffffffffffffffffffffffffffffffff1673ffffffffffffffffffffffffffffffffffffffff163373ffffffffffffffffffffffffffffffffffffffff161461039e576040517f08c379a000000000000000000000000000000000000000000000000000000000815260040161039590610c11565b60405180910390fd5b6000151560008054906101000a900460ff161515146103f2576040517f08c379a00000000000000000000000000000000000000000000000000000000081526004016103e990610c7d565b60405180910390fd5b60016000806101000a81548160ff021916908315150217905550610414610797565b60008060006101000a81548160ff021916908315150217905550565b60008373ffffffffffffffffffffffffffffffffffffffff1663a9059cbb84846040518363ffffffff1660e01b815260040161046d929190610cac565b602060405180830381600087803b15801561048757600080fd5b505af115801561049b573d6000803e3d6000fd5b505050506040513d601f19601f820116820180604052508101906104bf9190610d01565b50600190509392505050565b60008060019054906101000a900460ff16905090565b600060029054906101000a900473ffffffffffffffffffffffffffffffffffffffff1673ffffffffffffffffffffffffffffffffffffffff163373ffffffffffffffffffffffffffffffffffffffff1614610571576040517f08c379a000000000000000000000000000000000000000000000000000000000815260040161056890610c11565b60405180910390fd5b6000151560008054906101000a900460ff161515146105c5576040517f08c379a00000000000000000000000000000000000000000000000000000000081526004016105bc90610c7d565b60405180910390fd5b60016000806101000a81548160ff0219169083151502179055506105e7610850565b60008060006101000a81548160ff021916908315150217905550565b606060011515600060019054906101000a900460ff1615151415610641576040518060600160405280603d8152602001610e07603d9139905061067a565b6040518060400160405280601681526020017f436f6e7472616374206973206e6f74207061757365640000000000000000000081525090505b90565b610685610295565b73ffffffffffffffffffffffffffffffffffffffff163373ffffffffffffffffffffffffffffffffffffffff16146106bc57600080fd5b600073ffffffffffffffffffffffffffffffffffffffff168173ffffffffffffffffffffffffffffffffffffffff1614156106f657600080fd5b6106ff8161090b565b50565b600061070c610267565b90508173ffffffffffffffffffffffffffffffffffffffff168173ffffffffffffffffffffffffffffffffffffffff16141561074757600080fd5b61075082610937565b8173ffffffffffffffffffffffffffffffffffffffff167fbc7cd75a20ee27fd9adebab32041f755214dbc6bffa90cc0225b39da2e5c2d3b60405160405180910390a25050565b61079f6104cb565b6107de576040517f08c379a00000000000000000000000000000000000000000000000000000000081526004016107d590610d7a565b60405180910390fd5b60008060016101000a81548160ff021916908315150217905550610800610963565b73ffffffffffffffffffffffffffffffffffffffff167fd90c20276b7955800df9b223f244944b25b581f437448b1978aa61d4036b428a60006040516108469190610ac9565b60405180910390a2565b6108586104cb565b15610898576040517f08c379a000000000000000000000000000000000000000000000000000000000815260040161088f90610de6565b60405180910390fd5b6001600060016101000a81548160ff0219169083151502179055506108bb610963565b73ffffffffffffffffffffffffffffffffffffffff167fd90c20276b7955800df9b223f244944b25b581f437448b1978aa61d4036b428a60016040516109019190610ac9565b60405180910390a2565b60007f6c39c5b82210a37187f46d4d60931f289b92e557b62633fe1090813ef28bf60890508181555050565b60007f5432b87812f4335d39c112e048b82e6550eb046b8cac9e224828898b74ac701b90508181555050565b600033905090565b600073ffffffffffffffffffffffffffffffffffffffff82169050919050565b60006109968261096b565b9050919050565b6109a68161098b565b82525050565b60006020820190506109c1600083018461099d565b92915050565b600080fd5b6109d58161098b565b81146109e057600080fd5b50565b6000813590506109f2816109cc565b92915050565b600060208284031215610a0e57610a0d6109c7565b5b6000610a1c848285016109e3565b91505092915050565b6000819050919050565b610a3881610a25565b8114610a4357600080fd5b50565b600081359050610a5581610a2f565b92915050565b600080600060608486031215610a7457610a736109c7565b5b6000610a82868287016109e3565b9350506020610a93868287016109e3565b9250506040610aa486828701610a46565b9150509250925092565b60008115159050919050565b610ac381610aae565b82525050565b6000602082019050610ade6000830184610aba565b92915050565b600081519050919050565b600082825260208201905092915050565b60005b83811015610b1e578082015181840152602081019050610b03565b83811115610b2d576000848401525b50505050565b6000601f19601f8301169050919050565b6000610b4f82610ae4565b610b598185610aef565b9350610b69818560208601610b00565b610b7281610b33565b840191505092915050565b60006020820190508181036000830152610b978184610b44565b905092915050565b7f4f6e6c792050726f78792061646d696e2063616e2063616c6c2074686973206660008201527f756e6374696f6e00000000000000000000000000000000000000000000000000602082015250565b6000610bfb602783610aef565b9150610c0682610b9f565b604082019050919050565b60006020820190508181036000830152610c2a81610bee565b9050919050565b7f52652d656e7472616e7420616c65727421000000000000000000000000000000600082015250565b6000610c67601183610aef565b9150610c7282610c31565b602082019050919050565b60006020820190508181036000830152610c9681610c5a565b9050919050565b610ca681610a25565b82525050565b6000604082019050610cc1600083018561099d565b610cce6020830184610c9d565b9392505050565b610cde81610aae565b8114610ce957600080fd5b50565b600081519050610cfb81610cd5565b92915050565b600060208284031215610d1757610d166109c7565b5b6000610d2584828501610cec565b91505092915050565b7f4e6f742070617573656420737461747573000000000000000000000000000000600082015250565b6000610d64601183610aef565b9150610d6f82610d2e565b602082019050919050565b60006020820190508181036000830152610d9381610d57565b9050919050565b7f5061757365642073746174757300000000000000000000000000000000000000600082015250565b6000610dd0600d83610aef565b9150610ddb82610d9a565b602082019050919050565b60006020820190508181036000830152610dff81610dc3565b905091905056fe436f6e7472616374206973207061757365642e20546f6b656e207472616e7366657273206172652074656d706f726172696c792064697361626c65642ea2646970667358221220a55f0c623895ef7d0b11f3beabbcb90bab486ae96f1c94844a0a3421e3f5043a64736f6c63430008090033",
  "immutableReferences": {},
  "source": "// SPDX-License-Identifier: MIT\r\npragma solidity >=0.8.9 <0.9.0;\r\nimport \"./Proxy.sol\";\r\nimport \"../util/IBEP20.sol\";\r\nimport \"../util/Pausable.sol\";\r\n\r\ncontract UpgradibilityProxy is Proxy, Pausable {\r\n\r\n    address adminProxyAddress;\r\n    // Storage position of the address of the current implementation\r\n    bytes32 private constant implementationPosition = \r\n        keccak256(\"UpgradibilityProxy.implementation.address\");\r\n    \r\n    // Storage position of the owner of the contract\r\n    bytes32 private constant proxyOwnerPosition = \r\n        keccak256(\"UpgradibilityProxy.proxy.owner\");\r\n    \r\n    modifier onlyProxyOwner() {\r\n        require (msg.sender == proxyOwner());\r\n        _;\r\n    }\r\n    event Upgraded(address indexed implementation);\r\n    constructor() {\r\n        adminProxyAddress = msg.sender;\r\n        _setUpgradeabilityOwner(msg.sender);\r\n    }\r\n\r\n    function transferProxyOwnership(address _newOwner) \r\n        public onlyProxyOwner \r\n    {\r\n        require(_newOwner != address(0));\r\n        _setUpgradeabilityOwner(_newOwner);\r\n    }\r\n    \r\n    function upgradeTo(address _implementation) \r\n        public onlyProxyOwner\r\n    {\r\n        _upgradeTo(_implementation);\r\n    }\r\n    \r\n    function implementation() public override view returns (address impl) {\r\n        bytes32 position = implementationPosition;\r\n        assembly {\r\n            impl := sload(position)\r\n        }\r\n    }\r\n    \r\n    function proxyOwner() public view returns (address owner) {\r\n        bytes32 position = proxyOwnerPosition;\r\n        assembly {\r\n            owner := sload(position)\r\n        }\r\n    }\r\n    \r\n    function _setImplementation(address _newImplementation) \r\n        internal \r\n    {\r\n        bytes32 position = implementationPosition;\r\n        assembly {\r\n            sstore(position, _newImplementation)\r\n        }\r\n    }\r\n    \r\n    function _upgradeTo(address _newImplementation) internal {\r\n        address currentImplementation = implementation();\r\n        require(currentImplementation != _newImplementation);\r\n        _setImplementation(_newImplementation);\r\n        emit Upgraded(_newImplementation);\r\n    }\r\n    \r\n    function _setUpgradeabilityOwner(address _newProxyOwner) \r\n        internal \r\n    {\r\n        bytes32 position = proxyOwnerPosition;\r\n        assembly {\r\n            sstore(position, _newProxyOwner)\r\n        }\r\n    }\r\n\r\n    // receive() external payable {\r\n    //     payable(adminProxyAddress).transfer(_msgValue());\r\n    // }\r\n    \r\n    // fallback() external payable {\r\n    //     payable(adminProxyAddress).transfer(_msgValue());\r\n    // }\r\n\r\n    function transferAnyERC20(address token_,address recipient_,uint256 value_) external returns(bool) {\r\n        IBEP20(token_).transfer(recipient_, value_);\r\n        return true;\r\n    }\r\n\r\n    function pause() external authProxy() nonReentrant() {\r\n       _pause();\r\n\t}\r\n\t\r\n\tfunction unpause() external authProxy() nonReentrant() {\r\n       _unpause();   \r\n\t}\r\n\r\n\tmodifier authProxy() {\r\n\t\trequire(\r\n\t\t\tmsg.sender == adminProxyAddress,\r\n\t\t\t\"Only Proxy admin can call this function\"\r\n\t\t);\r\n\t\t_;\r\n\t}\r\n}",
  "sourcePath": "F:\\workspace\\Open-protocol\\contracts\\proxy\\UpgradibilityProxy.sol",
  "compiler": {
    "name": "solc",
    "version": "0.8.9+commit.e5eed63a.Emscripten.clang"
  },
  "schemaVersion": "3.4.3",
  "updatedAt": "2021-09-30T23:52:24.032Z",
  "devdoc": {
    "kind": "dev",
    "methods": {},
    "version": 1
  },
  "userdoc": {
    "kind": "user",
    "methods": {},
    "version": 1
  }
}