{
  "contractName": "UpgradibilityProxy",
  "abi": [
    {
      "inputs": [
        {
          "internalType": "address",
          "name": "superAdminAddr_",
          "type": "address"
        },
        {
          "internalType": "address",
          "name": "_implementation",
          "type": "address"
        }
      ],
      "stateMutability": "nonpayable",
      "type": "constructor"
    },
    {
      "anonymous": false,
      "inputs": [
        {
          "indexed": true,
          "internalType": "address",
          "name": "_pauser",
          "type": "address"
        },
        {
          "indexed": false,
          "internalType": "bool",
          "name": "isPaused",
          "type": "bool"
        }
      ],
      "name": "PauseState",
      "type": "event"
    },
    {
      "anonymous": false,
      "inputs": [
        {
          "indexed": true,
          "internalType": "address",
          "name": "implementation",
          "type": "address"
        }
      ],
      "name": "Upgraded",
      "type": "event"
    },
    {
      "stateMutability": "payable",
      "type": "fallback"
    },
    {
      "inputs": [],
      "name": "pauseState",
      "outputs": [
        {
          "internalType": "string",
          "name": "",
          "type": "string"
        }
      ],
      "stateMutability": "view",
      "type": "function"
    },
    {
      "inputs": [],
      "name": "paused",
      "outputs": [
        {
          "internalType": "bool",
          "name": "",
          "type": "bool"
        }
      ],
      "stateMutability": "view",
      "type": "function"
    },
    {
      "stateMutability": "payable",
      "type": "receive"
    },
    {
      "inputs": [
        {
          "internalType": "address",
          "name": "_newOwner",
          "type": "address"
        }
      ],
      "name": "transferProxyOwnership",
      "outputs": [],
      "stateMutability": "nonpayable",
      "type": "function"
    },
    {
      "inputs": [
        {
          "internalType": "address",
          "name": "_implementation",
          "type": "address"
        }
      ],
      "name": "upgradeTo",
      "outputs": [],
      "stateMutability": "nonpayable",
      "type": "function"
    },
    {
      "inputs": [],
      "name": "implementation",
      "outputs": [
        {
          "internalType": "address",
          "name": "impl",
          "type": "address"
        }
      ],
      "stateMutability": "view",
      "type": "function"
    },
    {
      "inputs": [],
      "name": "proxyOwner",
      "outputs": [
        {
          "internalType": "address",
          "name": "owner",
          "type": "address"
        }
      ],
      "stateMutability": "view",
      "type": "function"
    },
    {
      "inputs": [
        {
          "internalType": "address",
          "name": "token_",
          "type": "address"
        },
        {
          "internalType": "address",
          "name": "recipient_",
          "type": "address"
        },
        {
          "internalType": "uint256",
          "name": "value_",
          "type": "uint256"
        }
      ],
      "name": "transferAnyBEP20",
      "outputs": [
        {
          "internalType": "bool",
          "name": "",
          "type": "bool"
        }
      ],
      "stateMutability": "nonpayable",
      "type": "function"
    },
    {
      "inputs": [],
      "name": "pause",
      "outputs": [],
      "stateMutability": "nonpayable",
      "type": "function"
    },
    {
      "inputs": [],
      "name": "unpause",
      "outputs": [],
      "stateMutability": "nonpayable",
      "type": "function"
    }
  ],
  "bytecode": "0x60806040526000805460ff1916905534801561001a57600080fd5b50604051610a43380380610a438339810160408190526100399161014c565b60008054600180546001600160a01b0319166001600160a01b038616179055610100600160b01b0319163362010000810291909117909155610099907f6c39c5b82210a37187f46d4d60931f289b92e557b62633fe1090813ef28bf60855565b6100a2816100a9565b505061017f565b60006100c1600080516020610a238339815191525490565b9050816001600160a01b0316816001600160a01b031614156100e257600080fd5b6100f882600080516020610a2383398151915255565b6040516001600160a01b038316907fbc7cd75a20ee27fd9adebab32041f755214dbc6bffa90cc0225b39da2e5c2d3b90600090a25050565b80516001600160a01b038116811461014757600080fd5b919050565b6000806040838503121561015f57600080fd5b61016883610130565b915061017660208401610130565b90509250929050565b6108958061018e6000396000f3fe60806040526004361061008a5760003560e01c80635c60da1b116100595780635c60da1b146101855780635c975abb146101a75780638456cb59146101c4578063d7118351146101d9578063f1739cae146101fb57610091565b8063025313a2146100e3578063164b26301461011e5780633659cfe61461014e5780633f4ba83a1461017057610091565b3661009157005b60006100a96000805160206107e38339815191525490565b90506001600160a01b0381166100be57600080fd5b60405136600082376000803683855af43d806000843e8180156100df578184f35b8184fd5b3480156100ef57600080fd5b50600080516020610840833981519152545b6040516001600160a01b0390911681526020015b60405180910390f35b34801561012a57600080fd5b5061013e6101393660046106c6565b61021b565b6040519015158152602001610115565b34801561015a57600080fd5b5061016e610169366004610702565b6102ac565b005b34801561017c57600080fd5b5061016e6102e5565b34801561019157600080fd5b506000805160206107e383398151915254610101565b3480156101b357600080fd5b50600054610100900460ff1661013e565b3480156101d057600080fd5b5061016e61039b565b3480156101e557600080fd5b506101ee61043c565b6040516101159190610724565b34801561020757600080fd5b5061016e610216366004610702565b6104a4565b60405163a9059cbb60e01b81526001600160a01b038381166004830152602482018390526000919085169063a9059cbb90604401602060405180830381600087803b15801561026957600080fd5b505af115801561027d573d6000803e3d6000fd5b505050506040513d601f19601f820116820180604052508101906102a19190610779565b506001949350505050565b600080516020610840833981519152546001600160a01b0316336001600160a01b0316146102d957600080fd5b6102e2816104fa565b50565b6000546201000090046001600160a01b031633148061030e57506001546001600160a01b031633145b6103335760405162461bcd60e51b815260040161032a9061079b565b60405180910390fd5b60005460ff161561037a5760405162461bcd60e51b815260206004820152601160248201527052652d656e7472616e7420616c6572742160781b604482015260640161032a565b6000805460ff1916600117905561038f610581565b6000805460ff19169055565b6000546201000090046001600160a01b03163314806103c457506001546001600160a01b031633145b6103e05760405162461bcd60e51b815260040161032a9061079b565b60005460ff16156104275760405162461bcd60e51b815260206004820152601160248201527052652d656e7472616e7420616c6572742160781b604482015260640161032a565b6000805460ff1916600117905561038f61060f565b60005460609060ff61010090910416151560011415610473576040518060600160405280603d8152602001610803603d9139905090565b5060408051808201909152601681527510dbdb9d1c9858dd081a5cc81b9bdd081c185d5cd95960521b602082015290565b600080516020610840833981519152546001600160a01b0316336001600160a01b0316146104d157600080fd5b6001600160a01b0381166104e457600080fd5b6102e28160008051602061084083398151915255565b60006105126000805160206107e38339815191525490565b9050816001600160a01b0316816001600160a01b0316141561053357600080fd5b610549826000805160206107e383398151915255565b6040516001600160a01b038316907fbc7cd75a20ee27fd9adebab32041f755214dbc6bffa90cc0225b39da2e5c2d3b90600090a25050565b600054610100900460ff166105cc5760405162461bcd60e51b81526020600482015260116024820152704e6f74207061757365642073746174757360781b604482015260640161032a565b6000805461ff001916815560405190815233907fd90c20276b7955800df9b223f244944b25b581f437448b1978aa61d4036b428a906020015b60405180910390a2565b600054610100900460ff16156106575760405162461bcd60e51b815260206004820152600d60248201526c5061757365642073746174757360981b604482015260640161032a565b6000805461ff00191661010017905561066d3390565b6001600160a01b03167fd90c20276b7955800df9b223f244944b25b581f437448b1978aa61d4036b428a6001604051610605911515815260200190565b80356001600160a01b03811681146106c157600080fd5b919050565b6000806000606084860312156106db57600080fd5b6106e4846106aa565b92506106f2602085016106aa565b9150604084013590509250925092565b60006020828403121561071457600080fd5b61071d826106aa565b9392505050565b600060208083528351808285015260005b8181101561075157858101830151858201604001528201610735565b81811115610763576000604083870101525b50601f01601f1916929092016040019392505050565b60006020828403121561078b57600080fd5b8151801515811461071d57600080fd5b60208082526027908201527f4f6e6c792050726f78792061646d696e2063616e2063616c6c207468697320666040820152663ab731ba34b7b760c91b60608201526080019056fe5432b87812f4335d39c112e048b82e6550eb046b8cac9e224828898b74ac701b436f6e7472616374206973207061757365642e20546f6b656e207472616e7366657273206172652074656d706f726172696c792064697361626c65642e6c39c5b82210a37187f46d4d60931f289b92e557b62633fe1090813ef28bf608a2646970667358221220699b14ed838514c0c01cf9492d246a68f0567b1016a793b3f30344bd4d2e9abd64736f6c634300080900335432b87812f4335d39c112e048b82e6550eb046b8cac9e224828898b74ac701b",
  "immutableReferences": {},
  "source": "// SPDX-License-Identifier: MIT\r\npragma solidity >=0.8.9 <0.9.0;\r\nimport \"./Proxy.sol\";\r\n// import \"../mockup/IMockBep20.sol\";\r\nimport \"../util/IBEP20.sol\";\r\nimport \"../util/Pausable.sol\";\r\n\r\ncontract UpgradibilityProxy is Proxy, Pausable {\r\n\r\n    address adminProxyAddress;\r\n    address superAdminAddress;\r\n    // Storage position of the address of the current implementation\r\n    bytes32 private constant implementationPosition = \r\n        keccak256(\"UpgradibilityProxy.implementation.address\");\r\n    \r\n    // Storage position of the owner of the contract\r\n    bytes32 private constant proxyOwnerPosition = \r\n        keccak256(\"UpgradibilityProxy.proxy.owner\");\r\n    \r\n    event Upgraded(address indexed implementation);\r\n    constructor(address superAdminAddr_, address _implementation) {\r\n        superAdminAddress = superAdminAddr_;\r\n        adminProxyAddress = msg.sender;\r\n        _setUpgradeabilityOwner(msg.sender);\r\n        _upgradeTo(_implementation);\r\n    }\r\n\r\n    function transferProxyOwnership(address _newOwner) \r\n        public onlyProxyOwner() \r\n    {\r\n        require(_newOwner != address(0));\r\n        _setUpgradeabilityOwner(_newOwner);\r\n    }\r\n    \r\n    function upgradeTo(address _implementation) \r\n        public onlyProxyOwner()\r\n    {\r\n        _upgradeTo(_implementation);\r\n    }\r\n    \r\n    function implementation() public override view returns (address impl) {\r\n        bytes32 position = implementationPosition;\r\n        assembly {\r\n            impl := sload(position)\r\n        }\r\n    }\r\n    \r\n    function proxyOwner() public view returns (address owner) {\r\n        bytes32 position = proxyOwnerPosition;\r\n        assembly {\r\n            owner := sload(position)\r\n        }\r\n    }\r\n    \r\n    function _setImplementation(address _newImplementation) \r\n        internal \r\n    {\r\n        bytes32 position = implementationPosition;\r\n        assembly {\r\n            sstore(position, _newImplementation)\r\n        }\r\n    }\r\n    \r\n    function _upgradeTo(address _newImplementation) internal {\r\n        address currentImplementation = implementation();\r\n        require(currentImplementation != _newImplementation);\r\n        _setImplementation(_newImplementation);\r\n        emit Upgraded(_newImplementation);\r\n    }\r\n    \r\n    function _setUpgradeabilityOwner(address _newProxyOwner) \r\n        internal \r\n    {\r\n        bytes32 position = proxyOwnerPosition;\r\n        assembly {\r\n            sstore(position, _newProxyOwner)\r\n        }\r\n    }\r\n\r\n    // receive() external payable {\r\n    //     payable(adminProxyAddress).transfer(_msgValue());\r\n    // }\r\n    \r\n    // fallback() external payable {\r\n    //     payable(adminProxyAddress).transfer(_msgValue());\r\n    // }\r\n\r\n    function transferAnyBEP20(address token_,address recipient_,uint256 value_) external returns(bool) {\r\n        IBEP20(token_).transfer(recipient_, value_);\r\n        return true;\r\n    }\r\n\r\n    function pause() external authProxy() nonReentrant() {\r\n       _pause();\r\n\t}\r\n\t\r\n\tfunction unpause() external authProxy() nonReentrant() {\r\n       _unpause();   \r\n\t}\r\n\r\n    modifier onlyProxyOwner() {\r\n        require (msg.sender == proxyOwner());\r\n        _;\r\n    }\r\n\r\n\tmodifier authProxy() {\r\n\t\trequire(\r\n\t\t\tmsg.sender == adminProxyAddress || \r\n            msg.sender == superAdminAddress,\r\n\t\t\t\"Only Proxy admin can call this function\"\r\n\t\t);\r\n\t\t_;\r\n\t}\r\n}",
  "sourcePath": "F:\\workspace\\Open-protocol\\contracts\\proxy\\UpgradibilityProxy.sol",
  "compiler": {
    "name": "solc",
    "version": "0.8.9+commit.e5eed63a.Emscripten.clang"
  },
  "schemaVersion": "3.4.3",
  "updatedAt": "2021-10-23T13:11:27.269Z",
  "devdoc": {
    "kind": "dev",
    "methods": {},
    "version": 1
  },
  "userdoc": {
    "kind": "user",
    "methods": {},
    "version": 1
  }
}